:100000000C9461010C9489010C9489010C94890170
:100010000C9489010C9489010C9489010C94890138
:100020000C9489010C9489010C9489010C94930E11
:100030000C9489010C9489010C9489010C94890118
:100040000C94E40E0C9489010C9489010C948901A0
:100050000C9489010C9489010C9489010C948901F8
:100060000C9489010C948901200A47656E3A00506E
:100070006F703A00436F6E77617927732067616D07
:1000800065206F66206C696665003F213F0A100A93
:100090001208120E1C0E0C1E0C141A14161F161E1B
:1000A000131E1E1B1E1E1F1E3F213F3A2F3A173DD7
:1000B000173F213F181F02040A041F0E04040E1FDD
:1000C0000A1F0A0E0E1F04110E2E252E2F2A2E2671
:1000D0002929021F02081F08150E04040E150E150B
:1000E000151B151B040604040C0400000000170077
:1000F0000300031F0A1F16371A1904130A153A00C2
:100100000300000E11110E000A040A040E04003050
:10011000000404040010001804030E110E121F1036
:1001200012191611150B07041F1715090E150919B9
:1001300005031A150B12150E000A00003200040AFE
:10014000110A0A0A110A040115020E11171E051ED2
:100150001F150A0E110A1F110E1F15111F05010E82
:10016000111D1F041F111F1108100F1F041B1F104A
:10017000101F061F1E040F0E110E1F09060E112E52
:100180001F051A121509011F011F101F0F180F1F3D
:100190000C1F1B041B031C03191513001F11030460
:1001A00018111F000201022020200001020C121E63
:1001B0001F120C0C12120C121F0C1A14041E052410
:1001C0002A1E1F021C141D1020201D1F0814111FA1
:1001D000101E041E1E021C0C120C3E0A040C123EC1
:1001E0001E040214160A020F120E101E0E100E1E0E
:1001F000081E120C1226281E322A26041E21001F59
:1002000000211E040102013F213F1E0010001E308C
:1002100010002E602C602A60286026602460226016
:1002200080000000177361766500166261636B00E1
:100230001574797065000A0A0A153A6F6B617920A6
:10024000163A6564697400596F7520656E7465723D
:1002500065640A00001E301E6000001E601E300033
:10026000001F60000000000000240027002A00009A
:10027000000000250028002B0000000000230026BD
:10028000002900040404040404040402020202021B
:10029000020303030303030102040810204080014A
:1002A00002040810200102040810200000000700CA
:1002B000020100000304060000000000000000002E
:1002C0003A0211241FBECFEFD8E0DEBFCDBF13E04E
:1002D000A0E0B1E0ECE8F9E202C005900D92A2388E
:1002E000B107D9F714E0A2E8B3E001C01D92A43F22
:1002F000B107E1F712E0C2ECD2E004C02297FE01A0
:100300000E948914C03CD107C9F70E945C110C946B
:10031000C4140C940000A0E0B0E0E1E9F1E00C941A
:100320009514EC01A880B980CA80DB80A114B104C7
:10033000C104D10441F484E2A82E89EDB82E8BE5E6
:10034000C82E87E0D82EC601B5012DE133EF41E07C
:1003500050E00E946C1427EA31E440E050E00E9433
:1003600004147B018C01C601B5012DE133EF41E09E
:1003700050E00E946C14CA01B9012CEE34EF4FEF2B
:100380005FEF0E9404146E0D7F1D801F911F97FF69
:1003900004C06150704080409048688379838A83AC
:1003A0009B839B01AC015F77B901CA01CDB7DEB772
:1003B000EAE00C94B1140E948B01089583E491E06B
:1003C0000E948B01089560934301709344018093D0
:1003D0004501909346010895E62FE695E695E6954A
:1003E00090E070E04423B1F0F0E036E0EE0FFF1F44
:1003F0003A95E1F7E80FF91FE352FC4F6770707010
:1004000081E090E002C0880F991F6A95E2F7208191
:10041000282B16C0F0E026E0EE0FFF1F2A95E1F72B
:10042000E80FF91FE352FC4F6770707081E090E0B5
:1004300002C0880F991F6A95E2F7809520812823D2
:1004400020830895E62FE695E695E695F0E046E0F0
:10045000EE0FFF1F4A95E1F7E80FF11DE352FC4F45
:10046000808190E0677002C0959587956A95E2F764
:100470008170089582E893E00E946D0B0895FF92C9
:100480000F931F931092DE041092DD041092E30488
:100490001092E2041092E4048BEA93E00E949B0A1B
:1004A0008BEA93E069E040E022E402E20E94D90690
:1004B00010E02AC00E94DE0163707070807090703E
:1004C0006115710581059105A9F4812F602F41E027
:1004D0000E94EC01402F4F5F8BEA93E06F2D0E944A
:1004E000AE058091DD049091DE0401969093DE04C8
:1004F0008093DD040F5F0032E9F68BEA93E00E94FF
:100500005B0A1F5F103429F000E05AE0F52EF10E6F
:10051000D1CF1F910F91FF9008958F929F92AF922C
:10052000BF92CF92DF92EF92FF920F931F93CF93E0
:10053000DF9382E893E00E942A0C882309F47DC1AE
:100540008091E2049091E30401969093E3048093F8
:10055000E2048AE0C82E0FE3E02EF12C7BC0CE012E
:100560008150D82E6E96BE016F7170706E97162FE7
:10057000882D0E942202811181E0082F8A2D612F8F
:100580000E94220281110F5F8B2D612F0E94220297
:1005900081110F5F8B2D6D2D0E94220281110F5F43
:1005A000BE016F717070162F8B2D0E942202811177
:1005B0000F5F8A2D612F0E94220281110F5F892D0A
:1005C000612F0E94220281110F5F892D6D2D0E94E3
:1005D000220281110F5F8A2D6D2D0E942202882335
:1005E000D1F00250023040F18BEA93E060E00E94CB
:1005F000A6058BEA93E06C2D4C2F0E94AE058BEA8A
:1006000093E061E040E00E94AA058091DD049091B2
:10061000DE0401970DC0033079F48BEA93E06C2D72
:100620004C2F0E94AE058091DD049091DE0401966E
:100630009093DE048093DD042196C132D10509F048
:100640008ECFC3940894E11CF11C9AE4C91611F4EE
:10065000FF242BC011ECA12EAE0CC1E0D0E0B0EC19
:100660008B2E8E0C82EC9FEFE80EF91EAFE3BA2EB4
:10067000BE208EE390E0E80EF91EFFE39F2E9E2041
:100680006ECF012F102F1F5F8BEA93E06E2D412F4D
:100690000E94E705482F8F2D602F0E94EC01103239
:1006A00081F7F39490E4F91629F000E0EAE0EE2EE9
:1006B000EF0CE8CF82E893E00E94750B26E030E073
:1006C00040E050E00E944A146115710581059105D2
:1006D00009F44FC02091DF043091E0048091DD04E3
:1006E0009091DE0428173907D1F58091E1048F5FDE
:1006F0008093E1048031A9F580EA93E00E94F10D36
:100700008BEA93E060E00E94A6058BEA93E060E24A
:1007100042E224E30EE00E94A3068BEA93E061E04C
:1007200040E00E94AA058BEA93E066E246E20E945E
:10073000310A8BEA93E060E071E00E94801282E867
:1007400093E00E942A0C8823D1F387E893E064E0C9
:100750000E944F05882399F30E943F0202C0109225
:10076000E1048091DD049091DE049093E004809395
:10077000DF048BEA93E060E044E20E94310A8BEAF6
:1007800093E06FE670E00E9495116091DD04709136
:10079000DE048BEA93E04AE050E00E946F128BEA9D
:1007A00093E068E670E00E9495116091E204709118
:1007B000E3048BEA93E04AE050E00E946F128BEA78
:1007C00093E06AE071E00E9480128BEA93E060E0BF
:1007D0000E94A6056091E404605E8BEA93E042E229
:1007E0002EE00E9499068BEA93E061E040E00E94CF
:1007F000AA056091E4046F5D8BEA93E042E22EE08B
:100800000E9499066091E404605E8091DD049091FD
:10081000DE0475E0969587957A95E1F740E3481BED
:100820008BEA93E00E94AE058091E4048F5F809391
:10083000E404853310F01092E404DF91CF911F910E
:100840000F91FF90EF90DF90CF90BF90AF909F906F
:100850008F900895EF92FF920F931F9382E893E099
:1008600064E770E00E94C10D1092950381E08093CF
:10087000AF0385E10E94F40F7C0185E10E94F40F33
:100880008C0185E10E94F40F0E9D90010F9D300DAB
:100890001E9D300D1124820F931F0E94DF120E94B3
:1008A0003F021F910F91FF90EF900895882319F454
:1008B0008CB5806202C08CB58F7D8CBD08959CB5CF
:1008C000937F982B9CBD08952CB5382F33702C7FC7
:1008D000322B3CBD2DB590E09595879595958795E4
:1008E00081702E7F822B8DBD08958AE061E00E9489
:1008F000B5108AE061E00E9476108CB580618CBDF5
:100900008CB580648CBD8DE061E00E9476108BE038
:1009100061E00E9476100895FC011182108281E04E
:100920008383089585E070E00E9416100895AF92C9
:10093000BF92CF92DF92EF92FF920F931F93CF93CC
:10094000DF93EC01888199818C01B4E0000F111FC5
:10095000BA95E1F7081B190B85E10E94F40F9C0181
:10096000200F311FA4E036952795AA95E1F739832A
:1009700028838B818823A1F183E02032380728F473
:1009800060E273E080E090E009C0B901E3E0243E5A
:100990003E0710F063EE73E080E090E000D000D0FE
:1009A000EDB7FEB7118212821382148220E233E087
:1009B00040E050E0F3EEEF2EF3E0FF2E012D112D7D
:1009C000EFEFAE2EB12CC12CD12C0E9496126A836F
:1009D0000F900F900F900F9085E070E00E9416101E
:1009E000DF91CF911F910F91FF90EF90DF90CF900B
:1009F000BF90AF900895FC0124E73EE0328321834D
:100A000083E0838381E0848310828CEA9DE0968377
:100A1000858380E19EE090878783328721870895D0
:100A2000FC0183810895CF93DF93EC018C8190E0EA
:100A30008F719070892B69F584E10E94F40FAA27C9
:100A400097FDA095BA2FBC01CD010E94151326EE8B
:100A50003FE34EEC50E40E94A1130E94E7127A8318
:100A6000698323E02B838D819E816817790710F4B9
:100A700080E00DC08F8198856817790710F481E0B8
:100A800006C089859A856817790718F482E08B83F8
:100A900003C08C818F5F8C83DF91CF91089520E01C
:100AA000FC01E60FF11D8781813009F421E0822FDE
:100AB00008950F931F93CF93DF93EC0110E00FEF96
:100AC00088810E9409112F81892B19F42F5F2F83B0
:100AD00007C0222329F02F3F11F41F8201C00F838A
:100AE0001F5F2196173061F7DF91CF911F910F9112
:100AF00008950F931F93CF93DF93EC0188E08883D1
:100B000089E0898387E08A8386E08B8384E08C8315
:100B100082E08D8381E18E831F82188619861A8672
:100B20001B861C861D8600E010E0FE01E00FF11F11
:100B3000808162E00E9476100F5F1F4F0730110521
:100B4000A1F7DF91CF911F910F910895FC01608F64
:100B5000618F0895FC01608F418F0895FC01643519
:100B6000A8F547FD33C040338CF5808D942F9595C3
:100B700095959595772767FD70954770882399F02F
:100B8000E4E59E02F0011124E60FF71FE95BFE4F3A
:100B900081E090E002C0880F991F4A95E2F720811A
:100BA000282B20830895E4E59E02F0011124E60F2E
:100BB000F71FE95BFE4F81E090E002C0880F991FAC
:100BC0004A95E2F780952081282320830895742F89
:100BD000643530F547FD24C0403314F5842F8595E6
:100BE00085958595992787FD9095462F552747FD33
:100BF000509524E530E0829FF001839FF00D929F95
:100C0000F00D1124E40FF51FE95BFE4F808190E0A9
:100C1000777002C0959587957A95E2F7817008956F
:100C200080E00895AF92BF92CF92DF92EF92FF9251
:100C30000F931F93CF93DF93EC01162FF42EE22E28
:100C4000AA24402F552747FD50958F2D992787FDC2
:100C50009095481B590B57FF03C0509541955F4F26
:100C60002E2D332727FD3095812F992787FD9095CD
:100C7000281B390B37FF03C0309521953F4F2417B0
:100C8000350744F4AA24A3948F2DF12E182F802F1A
:100C90000E2DE82EE11634F48E2DE12E182F802F24
:100CA0000F2DF82EDE2CD11A202F332727FD30955B
:100CB0008F2D992787FD9095281B390B37FF03C08F
:100CC000309521953F4FB22EF0161CF0CC24CA94DB
:100CD00002C0CC24C3948D2DD7FC8F5F082F0595BF
:100CE00011C0AA2021F0CE016F2D412F03C0CE01EB
:100CF000612F4F2D0E94AE050B1907FF02C0FC0C9F
:100D00000D0D1F5FE1166CF7DF91CF911F910F91D1
:100D1000FF90EF90DF90CF90BF90AF9008950F932A
:100D2000042F322F262F2150230F0E9412060F91DD
:100D300008950F93362F042F0150020F232F0E9486
:100D400012060F9108959F92AF92BF92CF92DF92B9
:100D5000EF92FF920F931F93CF93DF936C01B62E08
:100D6000942EA02EC0E0D0E0E62EFF24E7FCF09405
:100D7000022F112707FD10950E0D1F1D06C0C6017D
:100D8000492D2A2D0E94990621966B2D6C0FCE01BC
:100D90008E0D9F1D8017910794F3DF91CF911F91C6
:100DA0000F91FF90EF90DF90CF90BF90AF909F900A
:100DB0000895CF92DF92EF92FF920F931F937C01E1
:100DC000162FD42EC22E0E948F064D2D4150400F5B
:100DD000C701612F2C2D0E948F06C701612F4D2D59
:100DE000202F0E94990611501C0DC701612F4D2D17
:100DF000202F0E9499061F910F91FF90EF90DF9096
:100E0000CF9008952F923F925F926F927F928F9230
:100E10009F92AF92BF92CF92DF92EF92FF920F9389
:100E20001F93DF93CF9300D000D000D0CDB7DEB7B3
:100E30009E838D83C62ED42EEE24E394E21A8EEF89
:100E4000289F502C1124842E8A94962E9A94A42E96
:100E5000A394B62EB394F22E662423E0722E10E0F3
:100E6000C801847090709A838983F801E270F070F1
:100E7000FC83EB8398E0292E312C20223122017053
:100E8000107054C0E7FC04C0FA94F2E05F0EE50C69
:100E9000639489819A81892B71F04F2D4D0D8D813D
:100EA0009E816B2D0E94AE056F2D6C0D8D819E81F4
:100EB0004A2D0E94AE05EB81FC81EF2B71F04D2D88
:100EC0004F198D819E816B2D0E94AE056F2D6C0D8B
:100ED0008D819E81482D0E94AE052114310471F050
:100EE0006C2D6F198D819E814A2D0E94AE054F2D6C
:100EF0004D0D8D819E81692D0E94AE050115110554
:100F000071F06C2D6F198D819E81482D0E94AE0568
:100F10004D2D4F198D819E81692D0E94AE05E70CE4
:100F2000F2E07F0E8A949A94A394B3946F140CF415
:100F3000A9CF26960FB6F894DEBF0FBECDBFCF91D6
:100F4000DF911F910F91FF90EF90DF90CF90BF90B6
:100F5000AF909F908F907F906F905F903F902F9079
:100F600008954F925F926F927F928F929F92AF926D
:100F7000BF92CF92DF92EF92FF920F931F93CF9386
:100F8000DF93EC01A62E742E9E2DFF24F394F21A0B
:100F90008EEF289F802C1124B42EBA9453E0C52ED6
:100FA000CE0CE22EDD2443E0942E10E031E0432EFF
:100FB000512C40225122692E63940270107034C06B
:100FC000F7FC04C0EA9482E0880EF80CD394411434
:100FD000510489F06D2D6A0D472D4E192E2D220FCB
:100FE000260DCE010E9499066E2D6A0DCE014B2D65
:100FF0002C2D0E9499060115110589F06A2D6D1995
:10100000472D4E192E2D220F260DCE010E94990636
:101010006A2D6E19CE014B2D2C2D0E949906F90CCC
:1010200082E0980EBA94C80EDE1454F2DF91CF918C
:101030001F910F91FF90EF90DF90CF90BF90AF90F6
:101040009F908F907F906F905F904F9008957F92C8
:101050008F929F92AF92BF92CF92DF92EF92FF92C8
:101060000F931F936C01962EA42EF22E7E2C760EDB
:101070001EEFE19E102D1124812E820E672D282D4A
:101080000E948F06B02EBA0CBA94C601672D4B2D64
:10109000282D0E948F06AE0C100FC601692D4A2D17
:1010A000212F0E949906F90CFA94C6016F2D4A2D42
:1010B000212F0E949906C601672D4A2D2E2D01E091
:1010C0000E940207FE18C6016F2D4A2D2E2D02E048
:1010D0000E940207BE18C6016F2D4B2D2E2D04E075
:1010E0000E940207C601672D4B2D2E2D08E00E949D
:1010F00002071F910F91FF90EF90DF90CF90BF906C
:10110000AF909F908F907F9008958F929F92AF9213
:10111000BF92CF92DF92EF92FF920F931F936C01D9
:10112000162FA42E922EF02EBE2C8E2C860E2EEF75
:10113000E29EE02C11242E2D290D682D0E94A3067D
:10114000AB0CFA94FE0C1150190D1B19C601612F3E
:101150004A2D2B2D01E0EF2C0E94B107C601682D0E
:101160004A2D2B2D02E00E94B1071F910F91FF9095
:10117000EF90DF90CF90BF90AF909F908F900895A9
:101180003F924F925F926F927F928F929F92AF9217
:10119000BF92CF92DF92EF92FF920F931F93CF9364
:1011A000DF934C01362E442EE901F901A4902196DB
:1011B000FE01549021978A2D992787FD90950796D7
:1011C00068E070E00E943714C62EDD24C7FCD0947E
:1011D00000E072E0E72EF12C60E8662E712C26C04C
:1011E000E12FE595E595E595FF27E7FDF095EE0DF7
:1011F000FF1DEC0FFD1FE4912E2F30E0812F877033
:10120000A30102C0559547958A95E2F7242335231B
:10121000232B31F0612F630DC4014B2D0E94AE05CD
:101220001F5F1A15ECF20F5FEC0CFD1C051524F482
:1012300010E0B02EB40CF5CFDF91CF911F910F913C
:10124000FF90EF90DF90CF90BF90AF909F908F90E6
:101250007F906F905F904F903F9008952F923F92B4
:101260004F925F926F927F928F929F92AF92BF92B6
:10127000CF92DF92EF92FF920F931F93DF93CF9362
:1012800000D00F92CDB7DEB79B838A83562E742E83
:10129000422F102FFC01F08DF98383E586170CF4A3
:1012A00089C0EFE2E7150CF485C0C02EDD2496015D
:1012B000220F331F2C0D3D1D862F992787FD9095FA
:1012C000820F931F181619060CF074C0C901880FFD
:1012D000991F272D332727FD3095820F931F18164E
:1012E00019060CF067C083E0489F10011124AA245E
:1012F000B4E06B2EF3E0AF1611F480E009C0EA2DE4
:10130000FF27E7FDF095E20DF31DE657FF4F8491AF
:10131000AC9C902C1124950CBB24A6E08A2E4A2C60
:10132000450CE82EFF2480FF16C0113041F44B2DF0
:10133000470D8A819B81642D0E94AE052CC0BC9C08
:10134000402D1124470D8A819B81692D212F012F6A
:101350000E94A30620C0EA81FB81918D808D9817A1
:10136000D1F0908F113041F44B2D470D8A819B8134
:10137000642D0E94AE050BC0BC9C402D1124470D6E
:101380008A819B81692D212F012F0E94A3068981CB
:10139000EA81FB81808FB3948A9421F0F594E794DD
:1013A0008E2DBFCFA3946A9409F0A4CF8981EA81DE
:1013B000FB81808F0F900F900F90CF91DF911F9145
:1013C0000F91FF90EF90DF90CF90BF90AF909F90E4
:1013D0008F907F906F905F904F903F902F900895E7
:1013E0000F93CF93DF93EC01262F6A3031F48A8D6F
:1013F00026E0829FC00111242AC06D3061F16E8900
:101400004F890A8D0E942E098A8D482F50E0CA010B
:10141000880F991F880F991F2E89280F2E8B8B8D6F
:101420008823C9F0332727FD309585E190E0841BA0
:10143000950B880F991F880F991F821793075CF4EB
:10144000CA01880F991F840F951F880F991F2F8934
:10145000280F2F8B1E8A81E090E0DF91CF910F91B2
:101460000895FC01668B478B0895FC01662309F4FF
:1014700061E0628F08951F93CF93DF93EC01162FE5
:10148000F8948F8160E00E94B510888518161CF4CE
:1014900060E00E94B5101EBD0DB407FEFDCF8EB5F5
:1014A000888518161CF461E00E94B5107894DF91CD
:1014B000CF911F910895FF920F931F93CF93DF93C6
:1014C000EC01FF2400E010E06F2D6064CE010E946B
:1014D0003B0ACE0160E80E943B0A8F8161E00E94D6
:1014E000B510888518161CF460E00E94B510F8014C
:1014F000E95BFE4F90E080818EBD0DB407FEFDCF0D
:101500008EB59F5F31969435B1F7888518161CF417
:1015100061E00E94B510F3940C5A1F4F86E0F81654
:1015200099F6CE0160E40E943B0ADF91CF911F91B2
:101530000F91FF900895CF93DF93DC0188EF91E046
:10154000E7E4F1E0EF019C01199221503040E1F70E
:1015500056961C92569757961C92DF91CF910895FC
:10156000EF920F93CF93DF93EC014E836D832F8324
:10157000E98608871E8A1F8A81E08A8F888F198EE4
:101580008B8F1C820E94750481E00E94560485E0C6
:101590000E9464048CE00E945F048E8161E00E94DE
:1015A00076108D8161E00E9476108F8161E00E944B
:1015B0007610898518161CF461E00E9476108885E3
:1015C00018161CF461E00E947610898518166CF4D8
:1015D00060E00E94B51065E070E080E090E00E945D
:1015E000600F898561E00E94B510ED812E2F3327B1
:1015F00027FD3095F901ED57FD4FE491F0E0EE0F36
:10160000FF1FE159FD4F859194919D878C87295645
:101610003D4FF90184918B8BEE812E2F332727FDCF
:101620003095F901ED57FD4FE491F0E0EE0FFF1F0B
:10163000E159FD4F859194919B878A8729563D4FAB
:10164000F90184918A8BE8852E2F332727FD309569
:10165000F901ED57FD4FE491F0E0EE0FFF1FE15966
:10166000FD4F859194919F878E8729563D4FF901B3
:1016700084918C8BEF812E2F332727FD3095F90134
:10168000ED57FD4FE491F0E0EE0FFF1FE159FD4FE4
:1016900085919491998B888B29563D4FF9018491BE
:1016A0008D8BCE0161E20E943B0ACE0164E10E9473
:1016B0003B0ACE016AEB0E943B0ACE0160E20E9427
:1016C0003B0ACE016CE00E943B0ACE010E945B0AFD
:1016D000DF91CF910F91EF900895FC0114A613A60E
:1016E0008EE793E092A781A70895FC01E05BFF4F8E
:1016F00060817181828193810895EF92FF920F93AF
:101700001F93CF93DF938C01EC01A996CE0161E08A
:1017100040E00E94AA05CE0161E540E00E94310A46
:1017200093E1E92EF12CE00EF11EC7010E94100595
:10173000882359F580E5E82EF12CE00EF11EF70123
:1017400080819181A281B3818F709070A070B07000
:101750000897A105B105B0F4CE0167E00E94B81169
:10176000F70180819181A281B3818F709070A07008
:10177000B0700097A105B105A1F4C8014E960E9472
:10178000F70D0FC0CE0168E70AC0F80183898823EE
:1017900041F0C7010E941005682F6A5FCE010E94C8
:1017A000B811DF91CF911F910F91FF90EF900895A5
:1017B000CF92DF92EF92FF920F931F93CF93DF931D
:1017C000EC01C65ADF4F8881CA55D0408823C9F141
:1017D0008C3010F010E002C01CE0181B59E2C52E3E
:1017E000D12CCC0EDD1EC60161E00E94350AC60177
:1017F00060E00E94A60547E2F42EF10EC60160E00B
:101800004F2D24E509E033E0E32E0E948508C60150
:1018100061E00E94A605C60160E04F2D24E50E940C
:101820002708175DC60164E0412F0E94310AC85A9B
:10183000DF4F69917991C6010E949511888181508D
:101840008883DF91CF911F910F91FF90EF90DF90F0
:10185000CF900895AF92BF92CF92DF92EF92FF9216
:101860000F931F93CF93DF93EC0174E5A72EB12C58
:10187000A80EB91EF501E080F180028113810E945B
:101880002C0FE61AF70A080B190B6FE4C62ED12CA1
:10189000CC0EDD1EF601808190E0A0E0B0E08E1558
:1018A0009F05A007B10708F075C08E01055B1F4FAB
:1018B000F80180819181A281B3810097A105B105D2
:1018C00009F468C00E942C0FF6012081620F711D7F
:1018D000811D911DF5016083718382839383FE01D5
:1018E000E05BFF4F80819181A281B3810196A11DB0
:1018F000B11D80839183A283B383F801108211828A
:10190000128213820E943A0FC95BDF4F688379838A
:101910008A839B83C754D040CE010E949704CE0196
:1019200005960E945905CE0143960E94130581E059
:1019300026C0CE014E960E94FD0DCE010E94D80B0E
:10194000CE010E947D0B8E01075D1F4FC8010E94D2
:101950005B0A8DA5882319F4C8010E949B0A0E9486
:101960003A0FC55BDF4F688379838A839B83249713
:1019700028813981621B730B7A936A9380E0DF912F
:10198000CF911F910F91FF90EF90DF90CF90BF907C
:10199000AF900895C55BDF4F88819981AA81BB8193
:1019A000CB54D0400097A105B10541F7C2CFEF92CB
:1019B000FF920F931F93CF93DF938C01EC01A996B5
:1019C000CE010E949B0ACE016CE071E00E94801261
:1019D000CE010E945B0A8FE393E0EEEFFFE30995EF
:1019E000F80115A6E5E0EE2EF12CE00EF11EC8017F
:1019F0000E942A0C8823D9F3CE0167E171E00E948E
:101A00008312C70164E00E944F05882381F3DF91B0
:101A1000CF911F910F91FF90EF9008954F925F9299
:101A20006F927F928F929F92AF92BF92CF92DF92EE
:101A3000EF920F93CF93DF93EC012B016A01C15B0F
:101A4000DF4F82E388832596188219821A821B82CF
:101A50001A921A921A921A92259781E090E0A0E0C9
:101A6000B0E088839983AA83BB83CB54D040CE0156
:101A70000E948C0465E0662E712C6C0E7D1EC301E5
:101A80000E947905CE0143960E94FB045EE1A52EDB
:101A9000B12CAC0EBD1EC5010E94B70E49E2842ECA
:101AA000912C8C0E9D1EC4016DE04BE020E10FE0F7
:101AB0003EE0E32E0E94B00ACE016FEF0E94920436
:101AC00081E08DA7C114D10411F400E009C0F60132
:101AD00004910E5FC40160E04CE096010E94C008D2
:101AE000C401602F4CE00E94310ACE018996B201F8
:101AF0000E949511C5016AE072E040E00E94C60DA7
:101B0000CE010E942A0C8823D9F3C30164E00E940D
:101B10004F058823B1F0C50160E00E94D90D1DA6D4
:101B200081E08B8BDF91CF910F91EF90DF90CF9081
:101B3000BF90AF909F908F907F906F905F904F90ED
:101B40000895C30165E00E944F05882321F0C50177
:101B500060E00E94E60DC5010E94EE0D882339F475
:101B6000C40168E44FE128E701E00E942E09C301A7
:101B700066E00E944F05882319F2CE010E94D70C1F
:101B8000BFCF40E050E00E940E0D0895FC014423B9
:101B900079F41092E9041092E8041092B400718371
:101BA000608381E081871086178216828093E60425
:101BB0000895FC01662349F411861092E9041092FD
:101BC000E8041092E6041092B4000895FC01643019
:101BD0000CF063E067FD60E062830895FC018281A0
:101BE00008956BE572E040E00E94C60D089561E63D
:101BF00072E040E00E94C60D0895CF93DF93EC01A0
:101C0000F8948985882309F455C08885882309F0CC
:101C10004EC08E819F81880F991FE881F981E80F5E
:101C2000F91FA591B491109789F48A85882321F032
:101C30001F821E8281E03DC019861092E904109235
:101C4000E8041092E6041092B40034C0AD0124E020
:101C5000569547952A95E1F7FD01EF2FFF27E69569
:101C6000E695E95BFC4F60818A2F81708093EA04DE
:101C70002B818A81289F90011124B695A7958A2FE0
:101C8000877090E0FC012E9FC0012F9F900D3E9F1A
:101C9000900D11248093E8048093E9044F734887E2
:101CA0006093E7048E819F8101969F838E83888550
:101CB000815088877894DF91CF9108956091E804EE
:101CC000662381F18091E5048F5F8093E504909114
:101CD000E704891738F130E08091E604882309F49D
:101CE00031E03093E6041092E5048091EA04882301
:101CF000A9F08091460323E4829FC0011124895BEF
:101D00008093460390E070E00E9423148093E904DE
:101D100005C08091E9048093B40008953323C9F786
:101D200080E0F9CF08951F920F920FB60F92112401
:101D30002F933F934F935F936F937F938F939F93D3
:101D4000AF93BF93EF93FF930E945E0EFF91EF91CD
:101D5000BF91AF919F918F917F916F915F914F91C3
:101D60003F912F910F900FBE0F901F901895FC017F
:101D700083E082838CE0838383E061E070E00E94F3
:101D80001610E1EBF0E08081887F81608083F89419
:101D900010928000E1E8F0E010821092850010922D
:101DA000840088E191E0909389008093880080818D
:101DB00088608083808181608083EFE6F0E08081AD
:101DC00082608083789408951F920F920FB60F92CD
:101DD00011242F933F938F939F93AF93BF93809141
:101DE000EF049091F004A091F104B091F2043091CD
:101DF000F3040196A11DB11D232F2D5F2D3720F077
:101E00002D570196A11DB11D2093F3048093EF047B
:101E10009093F004A093F104B093F2048091EB044A
:101E20009091EC04A091ED04B091EE040196A11DF7
:101E3000B11D8093EB049093EC04A093ED04B09358
:101E4000EE04BF91AF919F918F913F912F910F9091
:101E50000FBE0F901F9018958FB7F8942091EF0444
:101E60003091F0044091F1045091F2048FBFB90118
:101E7000CA0108959FB7F8942091EB043091EC04C7
:101E80004091ED045091EE0486B5A89B06C08F3FAB
:101E900021F02F5F3F4F4F4F5F4F9FBF542F432F76
:101EA000322F2227280F311D411D511D82E0220FA4
:101EB000331F441F551F8A95D1F7B901CA010895F0
:101EC0009B01AC017FB7F8948091EB049091EC04F6
:101ED000A091ED04B091EE0466B5A89B05C06F3FDC
:101EE00019F00196A11DB11D7FBFBA2FA92F982F00
:101EF0008827860F911DA11DB11D62E0880F991FD3
:101F0000AA1FBB1F6A95D1F7BC012DC0FFB7F8947B
:101F10008091EB049091EC04A091ED04B091EE045B
:101F2000E6B5A89B05C0EF3F19F00196A11DB11DB4
:101F3000FFBFBA2FA92F982F88278E0F911DA11DA3
:101F4000B11DE2E0880F991FAA1FBB1FEA95D1F7C8
:101F5000861B970B885E9340C8F22150304040406A
:101F6000504068517C4F211531054105510571F6EE
:101F70000895789484B5826084BD84B5816084BD01
:101F800085B5826085BD85B5816085BDEEE6F0E0F2
:101F9000808181608083E1E8F0E01082808182604E
:101FA0008083808181608083E0E8F0E080818160CF
:101FB0008083E1EBF0E0808184608083E0EBF0E0FF
:101FC000808181608083EAE7F0E0808184608083A3
:101FD000808182608083808181608083808180684D
:101FE00080831092C1000895982F8E3008F09E5083
:101FF0009770809179038295880F880F807C892B58
:1020000080937C0080917A00806480937A00809134
:102010007A0086FDFCCF2091780040917900942FC2
:1020200080E030E0282B392BC90108951F93CF930E
:10203000DF93182FEB0161E00E947610209709F4DE
:102040004AC0CF3FD10509F449C0E12FF0E0E55582
:10205000FD4F84918330C1F0843028F4813051F0F9
:102060008230B1F50CC0863019F1873049F18430E7
:1020700079F514C084B5806884BDC7BD33C084B50C
:10208000806284BDC8BD2EC080918000806880932E
:102090008000D0938900C093880024C08091800084
:1020A000806280938000D0938B00C0938A001AC016
:1020B0008091B00080688093B000C093B30012C0DC
:1020C0008091B00080628093B000C093B4000AC0D9
:1020D000C038D1051CF4812F60E002C0812F61E07F
:1020E0000E94B510DF91CF911F910895CF93DF9398
:1020F000482F50E0CA0189569D4FFC0134914D573D
:102100005D4FFA018491882369F190E0880F991F4F
:10211000FC01EB59FD4FA591B491FC01E159FD4F34
:10212000C591D491662351F42FB7F8948C91932FD5
:10213000909589238C93888189230BC0623061F448
:102140002FB7F8948C91932F909589238C93888145
:10215000832B88832FBF06C09FB7F8948C91832B65
:102160008C939FBFDF91CF910895482F50E0CA0113
:1021700085559D4FFC012491CA0189569D4FFC0154
:1021800094914D575D4FFA013491332309F440C0C7
:10219000222351F1233071F0243028F42130A1F0B2
:1021A000223011F514C02630B1F02730C1F02430B0
:1021B000D9F404C0809180008F7703C080918000A3
:1021C0008F7D8093800010C084B58F7702C084B566
:1021D0008F7D84BD09C08091B0008F7703C080914E
:1021E000B0008F7D8093B000E32FF0E0EE0FFF1F73
:1021F000E159FD4FA591B4912FB7F894662321F4CE
:102200008C919095892302C08C91892B8C932FBF40
:102210000895682F70E0CB0185559D4FFC012491F6
:10222000CB0189569D4FFC0144916D577D4FFB01B9
:102230009491992319F420E030E03CC0222351F11D
:10224000233071F0243028F42130A1F0223011F530
:1022500014C02630B1F02730C1F02430D9F404C0C6
:10226000809180008F7703C0809180008F7D809364
:10227000800010C084B58F7702C084B58F7D84BD87
:1022800009C08091B0008F7703C08091B0008F7D2E
:102290008093B000892F90E0880F991F87589D4F39
:1022A000FC01A591B4918C9120E030E0842311F0E1
:1022B00021E030E0C9010895CF93DF930E94B90F68
:1022C0000E942A04C0E0D0E00E948D022097E1F332
:1022D0000E940000F9CFCF92DF92EF92FF920F930E
:1022E0001F93CF93DF937C016B018A01C0E0D0E0A4
:1022F0000FC0D6016D916D01D701ED91FC91019058
:10230000F081E02DC7010995C80FD91F0150104079
:102310000115110571F7CE01DF91CF911F910F913A
:10232000FF90EF90DF90CF900895EF92FF920F9380
:102330001F93CF93DF937C018B01C0E0D0E0F801C5
:102340000F5F1F4F6491662359F0D701ED91FC9107
:102350000190F081E02DC7010995C80FD91FEFCF7B
:10236000CE01DF91CF911F910F91FF90EF900895D3
:10237000DC01ED91FC910190F081E02D099508952B
:10238000EF92FF920F931F938C01DC01ED91FC9172
:102390000190F081E02D6DE009957C01D801ED916F
:1023A000FC910190F081E02DC8016AE009959C0143
:1023B0002E0D3F1DC9011F910F91FF90EF900895C1
:1023C000CF93DF93EC016115710519F420E030E043
:1023D0000FC0DB010D900020E9F71197A61BB70B8A
:1023E000E881F9810280F381E02DAD0109959C011E
:1023F000C901DF91CF9108954F925F927F928F92A2
:102400009F92AF92BF92CF92DF92EF92FF920F9383
:102410001F93DF93CF93CDB7DEB7A1970FB6F89494
:10242000DEBF0FBECDBF2C01742ECB01223008F4CD
:102430002AE019A231E2C32ED12CCC0EDD1E822E51
:102440009924AA24BB24672D752FA50194010E940D
:102450004A1479018A01C801B701A50194010E94BB
:102460000414472D461B0894C108D1084A3014F4BF
:10247000405D01C0495CF6014083E114F1040105AF
:10248000110521F07E2C5F2DC801DDCFC201B60100
:102490000E94E011A1960FB6F894DEBF0FBECDBF2B
:1024A000CF91DF911F910F91FF90EF90DF90CF9030
:1024B000BF90AF909F908F907F905F904F900895C6
:1024C000DC012115310541F4ED91FC910190F08181
:1024D000E02D642F099508950E94FC110895EF9254
:1024E000FF920F931F939A017B0100E010E0B80167
:1024F000A7010E9460121F910F91FF90EF90089525
:102500000E94E0110895EF92FF920F931F937C01B8
:102510000E94E0118C01C7010E94C011080F191F11
:10252000C8011F910F91FF90EF9008952F923F9255
:102530004F925F926F927F928F929F92AF92BF92D3
:10254000CF92DF92EF92FF920F931F93DF93CF937F
:10255000CDB7DEB73B014C0119012A016D897E8997
:102560008F89988D6A197B098C099D09621A730AF3
:10257000840A950AA40193010E940414E218F30846
:1025800004091509A80197010E946C142A0D3B1D2E
:102590004C1D5D1DB901CA01CF91DF911F910F91B3
:1025A000FF90EF90DF90CF90BF90AF909F908F9073
:1025B0007F906F905F904F903F902F90089500977D
:1025C00029F0BC0180E090E00E94E301089598D0DA
:1025D00088F09F5790F0B92F9927B751A0F0D1F00C
:1025E000660F771F881F991F1AF0BA95C9F712C096
:1025F000B13081F09FD0B1E008959CC0672F782F53
:102600008827B85F39F0B93FCCF386957795679501
:10261000B395D9F73EF490958095709561957F4F6D
:102620008F4F9F4F0895E89409C097FB3EF4909513
:102630008095709561957F4F8F4F9F4F9923A9F09B
:10264000F92F96E9BB279395F6958795779567952A
:10265000B795F111F8CFFAF4BB0F11F460FF1BC06E
:102660006F5F7F4F8F4F9F4F16C0882311F096E901
:1026700011C0772321F09EE8872F762F05C06623AF
:1026800071F096E8862F70E060E02AF09A95660F68
:10269000771F881FDAF7880F9695879597F9089521
:1026A00097F99F6780E870E060E008959FEF80EC05
:1026B000089500240A9416161706180609060895A8
:1026C00000240A9412161306140605060895092E0E
:1026D0000394000C11F4882352F0BB0F40F4BF2B7D
:1026E00011F460FF04C06F5F7F4F8F4F9F4F0895BD
:1026F00057FD9058440F551F59F05F3F71F04795B3
:10270000880F97FB991F61F09F3F79F08795089597
:10271000121613061406551FF2CF4695F1DF08C0B6
:10272000161617061806991FF1CF869571056105D3
:1027300008940895E894BB2766277727CB0197F97B
:1027400008950BD0C4CFB5DF28F0BADF18F0952379
:1027500009F0A6CFABCF1124EECFCADFA0F3959F2F
:10276000D1F3950F50E0551F629FF001729FBB2778
:10277000F00DB11D639FAA27F00DB11DAA1F649F24
:102780006627B00DA11D661F829F2227B00DA11DD7
:10279000621F739FB00DA11D621F839FA00D611D5D
:1027A000221F749F3327A00D611D231F849F600D7E
:1027B000211D822F762F6A2F11249F5750408AF0B7
:1027C000E1F088234AF0EE0FFF1FBB1F661F771F43
:1027D000881F91505040A9F79E3F510570F060CF7F
:1027E000AACF5F3FECF3983EDCF38695779567952B
:1027F000B795F795E7959F5FC1F7FE2B880F911D61
:102800009695879597F90895629FD001739FF0017F
:10281000829FE00DF11D649FE00DF11D929FF00D70
:10282000839FF00D749FF00D659FF00D9927729FA7
:10283000B00DE11DF91F639FB00DE11DF91FBD0132
:10284000CF0111240895AA1BBB1B51E107C0AA1F89
:10285000BB1FA617B70710F0A61BB70B881F991F41
:102860005A95A9F780959095BC01CD01089597FBE5
:10287000092E07260AD077FD04D0E5DF06D0002018
:102880001AF4709561957F4F0895F6F790958195AC
:102890009F4F0895A1E21A2EAA1BBB1BFD010DC07C
:1028A000AA1FBB1FEE1FFF1FA217B307E407F50700
:1028B00020F0A21BB30BE40BF50B661F771F881FDC
:1028C000991F1A9469F760957095809590959B0172
:1028D000AC01BD01CF01089597FB092E05260ED04E
:1028E00057FD04D0D7DF0AD0001C38F4509540952E
:1028F000309521953F4F4F4F5F4F0895F6F79095D4
:102900008095709561957F4F8F4F9F4F0895EE0F83
:10291000FF1F0590F491E02D09942F923F924F9262
:102920005F926F927F928F929F92AF92BF92CF925F
:10293000DF92EF92FF920F931F93CF93DF93CDB768
:10294000DEB7CA1BDB0B0FB6F894DEBF0FBECDBFE0
:1029500009942A88398848885F846E847D848C84B1
:102960009B84AA84B984C884DF80EE80FD800C81BA
:102970001B81AA81B981CE0FD11D0FB6F894DEBF9D
:0C2980000FBECDBFED010895F894FFCF0D
:10298C00153A726573746172740020004C6F616447
:10299C00696E672E2E2E000A4E6F20534420636101
:1029AC007264206F720A6E6F204C4F414445522E58
:1029BC004845580A0A413A4578697400564F4C55B7
:1029CC004D4500010000000000F0FC0E024341C127
:1029DC00C10180E0705C4F7FFC8000C0F03E1FFFA7
:1029EC00E0E0781CFFFF0080FF7F11111111010046
:1029FC00C0FF3F11193FE6C000F8FF07000000F8C8
:102A0C00FF07E0FF1FC0FF3F0E3CF0C0E0FF1F00C0
:102A1C00F8FC0603010183FE7C00000000000103AA
:102A2C00020203030002030100000000030302037F
:102A3C000100000303000000030300030302020271
:102A4C00020202000303020202030101000103025D
:102A5C000202030100000303000303000000000155
:102A6C000303000000010302020301000000000048
:102A7C00000000000000000000000000000000004A
:102A8C00000000000000000000000000000000003A
:102A9C00000000000000000000000000000000002A
:102AAC00000000000000000000000000000000001A
:102ABC000000C02010D0901020C000000000C060AA
:102ACC00A060C0000000000000000000000000003A
:102ADC0000000000000000000000000000000000EA
:102AEC0000000000000000000000000000000000DA
:102AFC0000000000000000000000000000000000CA
:102B0C000000000000000708109713110807800050
:102B1C000000078C8E8C07000000000000000000F5
:102B2C000000000000000000000000000000000099
:102B3C000000000000000000000000000000000089
:102B4C000000000000000000000000000000000079
:102B5C000000000000000000001E1E1E3F7F000C45
:102B6C00211E403F00001F3035311F0000000000C7
:102B7C000000000000000000000000000000000049
:102B8C000000000000000000000000000000000039
:102B9C000000000000000000000000000000000029
:102BAC0000000000000000000000000000FE9D85F9
:102BBC008585868484E41C0000007CC6D6D67C4CBB
:102BCC004F414445520001DBCFC3B8AEA49B938A5E
:102BDC00837B746E68625C57524E4A45423E3A376C
:102BEC0034312E2C29272523211F1D000000000025
:102BFC000000000000000000000100000000F009CF
:022C0C006B114A
:00000001FF
