:100000000C947D010C94A5010C94A5010C94A50100
:100010000C94A5010C94A5010C94A5010C94A501C8
:100020000C94A5010C94A5010C94A5010C945014FA
:100030000C94A5010C94A5010C94A5010C94A501A8
:100040000C94A1140C94A5010C941A170C94681725
:100050000C94A5010C94A5010C94A5010C94A50188
:100060000C94A5010C94A5014572726F720046694B
:100070006C6520656D707479004572726F72005303
:100080006176656420746F20004C6F6164696E67EF
:100090002067616D6500616E6420726573746172C2
:1000A000742E00496E73657274205344206361722C
:1000B000640047616D65206C6F61646572003F216B
:1000C0003F0A100A1208120E1C0E0C1E0C141A14F1
:1000D000161F161E131E1E1B1E1E1F1E3F213F3AFB
:1000E0002F3A173D173F213F181F02040A041F0E25
:1000F00004040E1F0A1F0A0E0E1F04110E2E252EB9
:100100002F2A2E262929021F02081F08150E040473
:100110000E150E15151B151B040604040C04000017
:10012000000017000300031F0A1F16371A190413D3
:100130000A153A000300000E11110E000A040A0409
:100140000E040030000404040010001804030E1113
:100150000E121F1012191611150B07041F1715097F
:100160000E15091905031A150B12150E000A0000C9
:100170003200040A110A0A0A110A040115020E11BA
:10018000171E051E1F150A0E110A1F110E1F15112D
:100190001F05010E111D1F041F111F1108100F1F35
:1001A000041B1F10101F061F1E040F0E110E1F0927
:1001B000060E112E1F051A121509011F011F101F0F
:1001C0000F180F1F0C1F1B041B031C031915130012
:1001D0001F11030418111F0002010220202000013A
:1001E000020C121E1F120C0C12120C121F0C1A14ED
:1001F000041E05242A1E1F021C141D1020201D1F72
:100200000814111F101E041E1E021C0C120C3E0AA4
:10021000040C123E1E040214160A020F120E101EC7
:100220000E100E1E081E120C1226281E322A26043C
:100230001E21001F00211E040102013F213F1E005C
:1002400010001E3010002E602C602A60286026608E
:1002500024602260800000001773617665001662DA
:1002600061636B001574797065000A0A0A153A6FAC
:100270006B617920163A6564697400596F75206561
:100280006E74657265640A00001E301E6000001EF8
:10029000601E3000001F60000000000000240027E6
:1002A000002A0000000000250028002B00000000AC
:1002B00000230026002900040404040404040402AA
:1002C00002020202020303030303030102040810F3
:1002D00020408001020408102001020408102000C0
:1002E00000000700020100000304060000000000F7
:1002F00000000000AE013906D41811241FBECFEF54
:10030000D8E0DEBFCDBF13E0A0E0B1E0EAECF7E358
:1003100002C005900D92A43BB107D9F717E0A4EBFA
:10032000B3E001C01D92A834B107E1F712E0CAEFB3
:10033000D2E004C02297FE010E94DF1BC43FD10718
:10034000C9F70E942A190C94E31B0C940000FB01CE
:10035000DC0101900D920020E1F7089584EB93E019
:100360000E9432110895CF92DF92EF920F937DEDAC
:10037000C72E73E0D72EC60160E040E024E000E322
:10038000EE240E94500C80911D0490911E0466E0A2
:1003900070E00E948D1BAC01440F551F480F591F80
:1003A000440F551FC60160E00E94EE0FC60165E2D2
:1003B00071E00E94DE190F91EF90DF90CF900895C9
:1003C000EF920F931F938DED93E00E945F102091A9
:1003D00023043091240480911D0490911E048217FF
:1003E000930714F0232B79F5109224041092230420
:1003F00083E394E068E574E00E94570780931A0451
:1004000010E014C000E083E394E068E574E00E942B
:100410003C06809123049091240401969093240437
:10042000809323040F5F063071F71F5F212F30E0A8
:1004300080911D0490911E0466E070E00E948D1B67
:1004400026173707FCF280916201909163010797AC
:100450006CF18DED93E062E540E020E301E00E9465
:10046000430CE0911B04F0911C0420911F04309177
:10047000200480E390E0AC01249FC001259F900DF3
:10048000349F900D1124BF010E948D1B462F80E3E5
:1004900090E0BF010E948D1B062F0F5F8DED93E052
:1004A00061E523E0EE24E3940E94500C8DED93E08F
:1004B00067E271E00E94DE198DED93E068E574E07B
:1004C0000E94DE198DED93E069E271E00E94DE1971
:1004D0008DED93E061E674E00E94E11980912304C0
:1004E000909124040196909324048093230483E341
:1004F00094E068E574E00E943C0680931A04882327
:10050000C9F480911D0490911E0466E070E00E9481
:100510008D1B6F5F7F4FCB01880F991F860F971F31
:10052000880F991F2091230430912404281739073C
:100530000CF4BCCF0E94B3011F910F91EF9008956E
:100540001F93CF93DF9310921E0410921D041092FC
:10055000240410922304CEEFDFE384EB93E00E94A7
:10056000E9118823D1F389EB93E064E00E94080B42
:100570008823E1F183E394E068E574E00E94570783
:1005800080931A0410E02EC0212F30E080911D04CA
:1005900090911E0482179307E1F480E194E068E5EE
:1005A00074E00E94A70183E394E00E9432068DED7F
:1005B00093E00E945F108DED93E069E870E00E9487
:1005C00063198DED93E00E941F1080E194E0FE011D
:1005D00009951F5F83E394E068E574E00E943C06A0
:1005E00080931A0480911A04882371F289EB93E0B6
:1005F00063E043E00E94120B8823B9F180911D044F
:1006000090911E04019690931E0480931D0489EB23
:1006100093E065E041E00E94120B882349F080914D
:100620001D0490911E04059690931E0480931D0452
:1006300020911D0430911E0480916201909163010C
:100640002817390724F010921E0410921D0480917F
:100650001D0490911E0466E070E00E948D1B709353
:10066000200460931F040E94B30189EB93E061E0D2
:1006700043E00E94120B8823D9F180911D049091D0
:100680001E04019790931E0480931D0489EB93E050
:1006900065E041E00E94120B882349F080911D041F
:1006A00090911E04059790931E0480931D048091E1
:1006B0001D0490911E0497FF0DC0809162019091DE
:1006C0006301019790931E0480931D0410922404EB
:1006D0001092230480911D0490911E0466E070E046
:1006E0000E948D1B7093200460931F040E94B3012D
:1006F00020911F04309120048091210490912204C4
:100700002817390709F429CF3093220420932104B4
:100710000E94E00122CF86E297E040E052EC61E0E7
:1007200070E00E94A31784EB93E062EB70E00E94FC
:10073000841387EC93E060E00E94C90A83E394E0AD
:1007400061E00E946D08809319048823A9F08DED63
:1007500093E00E945F108DED93E063EA70E00E94E9
:1007600063198DED93E066E970E00E94AE198DED9E
:1007700093E00E941F10FFCF83E394E068E574E0EC
:100780000E94570706C02F5F3F4F309363012093AD
:10079000620183E394E068E574E00E943C062091E6
:1007A000620130916301882371F3C90166E070E052
:1007B0000E948D1B6F5F7F4F70931C0460931B041E
:1007C0008DED93E060E00E94FC0F81E08093E103F7
:1007D0000E94E00108951F93CF93DF930E94E914D4
:1007E000EB011FEF09C00E94E9146C1B7D0B6955DA
:1007F000724010F08FE00CC01EBD0DB407FEFDCF9F
:100800008EB58F3F81F38E3F11F481E00DC08DE0F6
:1008100080932604E0912704F09128048081909130
:100820002904892B808380E0DF91CF911F91089567
:10083000FF920F931F93CF93DF938C010E94E914D3
:10084000EB01FF24FA94FEBC0DB407FEFDCF8EB57C
:100850008F3F11F481E008C00E94E9146C1B7D0BEE
:100860006017710780F380E0DF91CF911F910F91A6
:10087000FF900895DF92EF92FF920F931F93182F2E
:10088000D42EE52EF62E072FE0912704F0912804B0
:100890009081809129048095892380838CE291E066
:1008A0000E941804812F80648EBD0DB407FEFDCF19
:1008B0000EBD0DB407FEFDCFFEBC0DB407FEFDCF8F
:1008C000EEBC0DB407FEFDCFDEBC0DB407FEFDCFC0
:1008D000112311F485E905C0183011F487E801C02F
:1008E0008FEF8EBD0DB407FEFDCF90E02FEF2EBD34
:1008F0000DB407FEFDCF8EB587FF02C09150B9F74A
:100900001F910F91FF90EF90DF900895EF92FF926B
:100910000F931F93CF93DF93EC017A018B018091AA
:100920002504833039F089E0EE0CFF1C001F111FF5
:100930008A95D1F781E1B801A7010E943A04882382
:10094000C9F70E94EB03882319F4109226041BC0F8
:100950008FEF8EBD20E030E09FEF0DB407FEFDCF9E
:100960008EB5FE01E20FF31F80839EBD2F5F3F4FC8
:1009700081E02F3F380789F70DB407FEFDCF8EB514
:10098000C150DE4F8883E0912704F09128048081D4
:1009900090912904892B808380E0DF91CF911F9172
:1009A0000F91FF90EF900895DF92EF92FF920F93D7
:1009B0001F93D82E7A018B0187E340E050E060E07E
:1009C00070E00E943A048D2DB801A7010E943A04FC
:1009D0001F910F91FF90EF90DF900895EF92FF929B
:1009E0000F931F93CF93DF93082F0E94E914EB011D
:1009F000E09164018E2F90E0FC01E954FD4FE491F9
:100A0000F0E0EE0FFF1FED55FD4F2591349130932F
:100A100028042093270485539D4FFC017491709303
:100A20002904E09167018E2F90E0FC01E954FD4F0D
:100A3000E491F0E0EE0FFF1FED55FD4FA591B4914D
:100A4000B0932B04A0932A0485539D4FFC0164911D
:100A500060932C04E09166014E2F50E0FA01E954B6
:100A6000FD4FE491F0E0EE0FFF1FED55FD4F859136
:100A7000949190932E0480932D0445535D4FFA0179
:100A8000849180932F04E09168014E2F50E0FA0189
:100A9000E954FD4FE4918E2F90E0880F991F8D55FA
:100AA0009D4FFC01E590F490F0923104E092300407
:100AB00045535D4FFA01949190933204F90180817E
:100AC000872B8083F7018081892B80838C91862BF3
:100AD0008C938091640161E00E94331680916601DD
:100AE00061E00E9433168091680161E00E94331634
:100AF0008091670160E00E9433168091650161E09A
:100B00000E9433168091650161E00E947216E091A7
:100B10002704F0912804808190912904892B8083F7
:100B200083E58CBD8DB58E7F8DBD80E02FEF2EBD12
:100B30000DB407FEFDCF8F5F8A30C9F78081909595
:100B40009823908309C00E94E9146C1B7D0B615DA2
:100B5000774010F081E048C080E040E050E060E085
:100B600070E00E943A04182F813069F788E04AEA61
:100B700051E060E070E00E943A0482FF03C01093ED
:100B800025041BC080E02FEF2EBD0DB407FEFDCF66
:100B90009EB58F5F8430C1F79A3A11F082E024C08D
:100BA00082E08093250409C00E94E9146C1B7D0B30
:100BB000615D774010F088E017C089E240E050E0C6
:100BC00060E070E00E94D404882371F780912504CE
:100BD000823071F58AE340E050E060E070E00E940E
:100BE0003A04882379F086E080932604E091270474
:100BF000F0912804808190912904892B8083809131
:100C0000260429C08FEF8EBD0DB407FEFDCF8EB533
:100C1000807C803C19F483E08093250480E09FEF82
:100C20009EBD0DB407FEFDCF2EB58F5F8330C1F79B
:100C3000E0912704F0912804808190912904892B68
:100C40008083073028F086E18093260480E003C08B
:100C500000650CBD81E0DF91CF911F910F91FF9056
:100C6000EF900895FC01EF5BFD4F108277961082A4
:100C7000089510928E0608954F925F926F927F9220
:100C80008F929F92AF92BF92CF92DF92EF92FF929C
:100C90000F931F93CF93DF934C013B018DE390E0C3
:100CA000880E991EE401E880F9800A811B81E3EC3B
:100CB000FFEF8E0E9F1E49E5442E42E0542E480C55
:100CC000591CE2018881998135E0880F991F3A9576
:100CD000E1F7AC01452F5527469520E03EEF429FB6
:100CE000E001439FD00D529FD00D1124C80FD91F92
:100CF0005A01CC24DD24AE0CBF1CC01ED11E8401C1
:100D00000F5B1F4FC801B601A5010E94860417C0E2
:100D1000A096F20180819181019691838083F2E017
:100D2000C030DF0761F40894A11CB11CC11CD11CA8
:100D3000C801B601A5010E948604C0E0D0E0F4011C
:100D4000EC0FFD1FEF5BFF4F8081882309F49DC0EE
:100D5000DE011B96F401EA0FFB1FEF5BFF4F808162
:100D60008871B1F6F401EC0FFD1FEF5BFF4F80813E
:100D7000853E71F2CF5BDF4FA4014C0F5D1FC15464
:100D8000D04020E030E0B301620F731FFA0181917F
:100D9000AF01FB0180832F5F3F4F2830310599F76A
:100DA0002896F401EC0FFD1F9E0128503040EF5BA8
:100DB000FF4F8191E301898781918A8780818B87A9
:100DC00018861C86A80DB91DAF5BBF4F8C918D870F
:100DD000280D391D205B3F4FF901908180E0E9012A
:100DE0004A919E01840F911DF301978786872D5F9D
:100DF0003F4FE901988180E0F90142919F01840F02
:100E0000911DE301998B888B255F3F4FF9019081FC
:100E100080E0E9014A919E01840F911DF301938BBB
:100E2000828B2B5F3F4FE901488150E060E070E02A
:100E3000742F662755274427F901829190E0A0E09E
:100E4000B0E0DC0199278827482B592B6A2B7B2B94
:100E5000EF019A9180E0FE01229130E0822B932BEA
:100E6000A0E0B0E0482B592B6A2B7B2BF301448B7D
:100E7000558B668B778BF401E75AFD4F808191810A
:100E800001969183808380E001C081E0DF91CF9162
:100E90001F910F91FF90EF90DF90CF90BF90AF9098
:100EA0009F908F907F906F905F904F9008956F927A
:100EB0007F928F929F92AF92BF92CF92DF92EF92EA
:100EC000FF920F931F93CF93DF93EC016B01ED968D
:100ED000E880F9800A811B81ED9789E5A82E82E0E0
:100EE000B82EAC0EBD1ED5011D921C92B1E48B2E06
:100EF000912C8C0E9D1EC401B801A7010E9486048E
:100F0000F4018081882309F4D8C020E030E022C0B9
:100F1000205E3F4FD5018D919C91119701968D9345
:100F20009C93B2E020303B0761F40894E11CF11C73
:100F3000011D111DC401B801A7010E94860420E013
:100F400030E0FE01E20FF31FEF5BFF4F808188234B
:100F500009F4B3C0ABE06A2E712C620E731EFE0161
:100F6000E60DF71DEF5BFF4F8081887189F6FE016A
:100F7000E20FF31FEF5BFF4F8081853E49F22F5B4D
:100F80003F4FBE01620F731F2154304040E050E0DC
:100F90008601040F151FFB018191BF01D8018C93BD
:100FA0004F5F5F4F4830510599F7285F3F4FFE0173
:100FB000E20FF31F28503040EF5BFF4F8191D601C5
:100FC00019968C93199781911A968C931A97808110
:100FD0001B968C931B9718961C9218971C961C9224
:100FE0006C0E7D1EE1E4F0E06E0E7F1ED3018C914D
:100FF000F60185872C0F3D1F205B3F4FD9019C9147
:1010000080E0F90142919F01840F911DD6011F9646
:101010009C938E931E972D5F3F4FF901908180E046
:10102000D9014E919D01840F911DF601918B808B0A
:10103000255F3F4FD9019C9180E0F90142919F01CA
:10104000840F911DD60153969C938E9352972B5FDC
:101050003F4FF901408150E060E070E0742F662757
:1010600055274427D9018E919D0190E0A0E0B0E082
:10107000DC0199278827482B592B6A2B7B2BF901F8
:10108000929180E0229130E0822B932BA0E0B0E09F
:10109000482B592B6A2B7B2BD60154964D935D938D
:1010A0006D937C935797FE01E75AFD4F80819181A4
:1010B00001969183808380E001C081E0DF91CF9130
:1010C0001F910F91FF90EF90DF90CF90BF90AF9066
:1010D0009F908F907F906F9008950F931F93CF9361
:1010E000DF93EC01862F0E94EE048E010F5B1F4FF1
:1010F000C80140E050E060E070E00E948604882370
:1011000011F080EF84C1C15CDD4F8881CF53D240A4
:10111000853509F079C1C05CDD4F8881C054D2406B
:101120008A3A09F071C1CD5FDD4F7881C350D2405A
:101130007883C65FDD4F288130E040E050E0522FD9
:101140004427332722278A9190E0A0E0B0E0DC0119
:1011500099278827280F391F4A1F5B1F9A9180E023
:101160006A91C750D240860F911DA0E0B0E0280FD1
:10117000391F4A1F5B1F29833A834B835C83C25FFD
:10118000DD4F288130E040E050E0522F44273327E4
:1011900022278A9190E0A0E0B0E0DC01992788271F
:1011A000280F391F4A1F5B1F9A9180E06A91CB502C
:1011B000D240860F911DA0E0B0E0280F391F4A1FD2
:1011C0005B1F2D833E834F835887743031F0763018
:1011D00021F0763811F082EF1AC149815A816B8172
:1011E0007C81C8010E948604882311F080EE0FC123
:1011F000C15CDD4F8881CF53D240853509F006C1EF
:10120000C05CDD4F8881C054D2408A3A09F0FEC0EC
:10121000C25BDF4F8881CE54D0408987C05BDF4FEF
:10122000988180E02A91CF54D040820F911D9B87F6
:101230008A87CF5ADF4F8881C155D0408C87CD5ADD
:10124000DF4F988180E02A91C255D040820F911DD6
:101250009E878D87CB5ADF4F988180E02A91C455B5
:10126000D040820F911DA0E0B0E08F87988BA98BB2
:10127000BA8B0097A105B10531F5CC59DF4F288114
:1012800030E040E050E0522F4427332722278A9154
:1012900090E0A0E0B0E0DC0199278827280F391FF3
:1012A0004A1F5B1F9A9180E06A91C156D040860F19
:1012B000911DA0E0B0E0280F391F4A1F5B1F2F8748
:1012C000388B498B5A8BC85ADF4F788160E08A91FE
:1012D000C755D040680F711D7C8B6B8BC05ADF4F98
:1012E000288130E040E050E0522F44273327222766
:1012F0008A9190E0A0E0B0E0DC0199278827280FD0
:10130000391F4A1F5B1F9A9180E0EA91CD55D0406A
:101310008E0F911DA0E0B0E0280F391F4A1F5B1F00
:101320002D8B3E8B4F8B588FC559DF4F288130E076
:1013300040E050E0522F4427332722278A9190E043
:10134000A0E0B0E0DC0199278827280F391F4A1F49
:101350005B1F9A9180E0EA91C856D0408E0F911D94
:10136000A0E0B0E0280F391F4A1F5B1F298F3A8F7A
:101370004B8F5C8FEA85FB859F0140E050E08981BF
:101380009A81AB81BC81280F391F4A1F5B1F8C8556
:1013900090E0DC01A69FC001A79F900DB69F900D25
:1013A0001124A0E0B0E0280F391F4A1F5B1FED9603
:1013B000288339834A835B83ED9789819A818E0FD5
:1013C0009F1F9E8F8D8F860F971F98A38F8F6D8184
:1013D0007E818F81988549E0660F771F881F991F4E
:1013E0004A95D1F70E94691A20E030E040E855E3C1
:1013F0000E94F71A69A37AA38BA39CA3C55ADD4F59
:1014000081E0888380E003C081EF01C081EEDF913D
:10141000CF911F910F910895882319F48CB58062A4
:1014200002C08CB58F7D8CBD08959CB5937F982BA1
:101430009CBD08952CB5382F33702C7F322B3CBDCA
:101440002DB590E0959587959595879581702E7F20
:10145000822B8DBD08958AE061E00E9472168AE0B9
:1014600061E00E9433168CB580618CBD8CB58064C0
:101470008CBD8DE061E00E9433168BE061E00E943C
:1014800033160895FC011182108281E08383089550
:1014900085E070E00E94D3150895AF92BF92CF927D
:1014A000DF92EF92FF920F931F93CF93DF93EC01A4
:1014B000888199818C01B4E0000F111FBA95E1F782
:1014C000081B190B85E10E94B1159C01200F311FEB
:1014D000A4E036952795AA95E1F7398328838B8177
:1014E0008823A1F183E02032380728F460E273E01A
:1014F00080E090E009C0B901E3E0293E3E0710F02A
:1015000068EE73E080E090E000D000D0EDB7FEB769
:10151000118212821382148220E233E040E050E014
:10152000F8EEEF2EF3E0FF2E012D112DEFEFAE2E92
:10153000B12CC12CD12C0E94F4196A830F900F900A
:101540000F900F9085E070E00E94D315DF91CF914E
:101550001F910F91FF90EF90DF90CF90BF90AF90D1
:101560000895FC0124E73EE03283218383E08383F6
:1015700081E0848310828CEA9DE09683858380E1FC
:101580009EE090878783328721870895FC018381BD
:101590000895FC0160830895CF93DF93EC018C8163
:1015A00090E08F719070892B69F584E10E94B115EC
:1015B000AA2797FDA095BA2FBC01CD010E946B1AF6
:1015C00026EE3FE34EEC50E40E94F71A0E943D1ACB
:1015D0007A83698323E02B838D819E816817790745
:1015E00010F480E00DC08F8198856817790710F49A
:1015F00081E006C089859A856817790718F482E02A
:101600008B8303C08C818F5F8C83DF91CF91089592
:1016100020E0FC01E60FF11D8781813009F421E013
:10162000822F0895E62FF0E0423040F420E0E80FEA
:10163000F91F878181508E3F88F40FC0E80FF91F92
:1016400087818F3F11F420E009C020E090E0642FF3
:1016500070E00E94791B019709F421E0822F089520
:101660000F931F93CF93DF93EC0110E00FEF88816E
:101670000E94C6162F81892B19F42F5F2F8307C074
:10168000222329F02F3F11F41F8201C00F831F5F17
:101690002196173061F7DF91CF911F910F91089537
:1016A0000F931F93CF93DF93EC0188E0888389E049
:1016B000898387E08A8386E08B8384E08C8382E061
:1016C0008D8381E18E831F82188619861A861B8678
:1016D0001C861D8600E010E0FE01E00FF11F8081F6
:1016E00062E00E9433160F5F1F4F07301105A1F70C
:1016F000DF91CF911F910F9108956435A0F547FDBB
:1017000032C0403384F5842F85958595859577275C
:1017100067FD70954770222399F0E4E58E02F00191
:101720001124E60FF71FE759FE4F81E090E002C059
:10173000880F991F4A95E2F72081282B208308956E
:10174000E4E58E02F0011124E60FF71FE759FE4F82
:1017500081E090E002C0880F991F4A95E2F78095DA
:1017600020812823208308959F92AF92BF92CF9229
:10177000DF92EF92FF920F931F93CF93DF93EC01D1
:10178000162FF42ED22E9E2CAA24402F552747FD2B
:1017900050958F2D992787FD9095481B590B57FF22
:1017A00003C0509541955F4F2D2D332727FD309570
:1017B000812F992787FD9095281B390B37FF03C090
:1017C000309521953F4F2417350744F4AA24A3945C
:1017D000802F0D2DD82E8F2DF12E182FD11634F4E9
:1017E000812F1D2DD82E8F2DF02E082FED2CE11AD4
:1017F000202F332727FD30958F2D992787FD909532
:10180000281B390B37FF03C0309521953F4FB22E6F
:10181000F0161CF0CC24CA9402C0CC24C3948E2DA4
:10182000E7FC8F5F082F059512C0AA2021F0CE019A
:101830006F2D412F03C0CE01612F4F2D292D0E9406
:101840007D0B0B1907FF02C0FC0C0E0D1F5FD1169C
:1018500064F7DF91CF911F910F91FF90EF90DF9090
:10186000CF90BF90AF909F900895EF920F93542F19
:10187000322FE02E262F2150230F052F0E94B40B6C
:101880000F91EF900895EF920F93362FE02E042FD3
:101890000150020F232F0E94B40B0F91EF90089577
:1018A0007F928F929F92AF92BF92CF92DF92EF92F0
:1018B000FF920F931F93CF93DF935C01162F742E2B
:1018C000802E9E2CC0E0D0E0C62EDD24C7FCD09434
:1018D000E22EFF24E7FCF094EC0CFD1C07C0C501D0
:1018E000472D282D092D0E94430C2196612F6C0F46
:1018F000CE018C0D9D1D8E159F058CF3DF91CF9130
:101900001F910F91FF90EF90DF90CF90BF90AF901D
:101910009F908F907F9008952F923F924F925F9269
:101920006F927F928F929F92AF92BF92CF92DF92EF
:10193000EF92FF920F931F93DF93CF9300D000D0CD
:1019400000D0CDB7DEB79E838D83B62EC42EDD24A6
:10195000D394D21A8EEF289F402C1124742E7A949F
:10196000862E8A94942E9394A62EA394F22E552418
:1019700023E0622E10E0C801847090709A838983FE
:10198000F801E270F070FC83EB8398E0292E312C93
:1019900020223122017010705CC0D7FC04C0FA9480
:1019A000F2E04F0ED40C539489819A81892B81F0F7
:1019B0004F2D4C0D8D819E816A2D2E2D0E947D0B09
:1019C0006F2D6B0D8D819E81492D2E2D0E947D0BDB
:1019D000EB81FC81EF2B81F04C2D4F198D819E8185
:1019E0006A2D2E2D0E947D0B6F2D6B0D8D819E819A
:1019F000472D2E2D0E947D0B2114310481F06B2D7B
:101A00006F198D819E81492D2E2D0E947D0B4F2DAA
:101A10004C0D8D819E81682D2E2D0E947D0B011510
:101A2000110581F06B2D6F198D819E81472D2E2D13
:101A30000E947D0B4C2D4F198D819E81682D2E2D7E
:101A40000E947D0BD60CF2E06F0E7A948A949394E8
:101A5000A3945F140CF4A1CF26960FB6F894DEBFC2
:101A60000FBECDBFCF91DF911F910F91FF90EF90EF
:101A7000DF90CF90BF90AF909F908F907F906F90AE
:101A80005F904F903F902F9008952F923F924F92EA
:101A90005F926F927F928F929F92AF92BF92CF92FE
:101AA000DF92EF92FF920F931F93DF93CF9300D0BB
:101AB0000F92CDB7DEB79B838A83962E642E9E2D20
:101AC000AC2CFF24F394F21A8EEF289F702C112473
:101AD000B42EBA9463E0C62ECE0CE22EDD2453E081
:101AE000852E10E041E0242E312C202231229F5FF0
:101AF000998332E0432E512C402251223CC0F7FC06
:101B000004C0EA9482E0780EF70CD39421143104D7
:101B1000A9F06D2D690D462D4E192E2D220FE9814C
:101B20002E0F8A819B810A2D0E94430C6E2D690D18
:101B30008A819B814B2D2C2D0E94430C4114510412
:101B4000A9F0692D6D19462D4E192E2D220FF98100
:101B50002F0F8A819B810A2D0E94430C692D6E19DB
:101B60008A819B814B2D2C2D0E94430CF80C82E026
:101B7000880EBA94C80EDE1414F20F900F900F90D6
:101B8000CF91DF911F910F91FF90EF90DF90CF9059
:101B9000BF90AF909F908F907F906F905F904F908D
:101BA0003F902F9008955F926F927F928F929F92B5
:101BB000AF92BF92CF92DF92EF92FF920F931F935B
:101BC0005C01762E842EF22E502E9E2C6E2C660EEC
:101BD0001EEFE19E102D1124E12EE20E662D2E2D1A
:101BE0000C2D0E94350CD52CD80CDA94C501662D2D
:101BF0004D2D2E2D0E94350C890C150DC501672D1C
:101C0000482D212F0E94430CF70CFA94C5016F2D2B
:101C1000482D212F0E94430CC501662D482D292DEA
:101C200001E0EC2C0E948C0CF918C5016F2D482D99
:101C3000292D02E00E948C0CD918C5016F2D4D2D65
:101C4000292D04E00E948C0CC501662D4D2D292DF7
:101C500008E00E948C0C1F910F91FF90EF90DF9095
:101C6000CF90BF90AF909F908F907F906F905F903C
:101C700008956F927F928F929F92AF92BF92CF9270
:101C8000DF92EF92FF920F931F935C01162F842E29
:101C9000722EF02EDE2C9C2C6E2C660E2EEFE29E09
:101CA000C02C11242C2D270D662DE92C0E94500CE0
:101CB0008D0CFA94FC0C1150170D1D19C501612FE4
:101CC000482D2D2D01E0EF2CC92C0E94450DC5019A
:101CD000662D482D2D2D02E00E94450D1F910F917C
:101CE000FF90EF90DF90CF90BF90AF909F908F903C
:101CF0007F906F9008953F924F925F926F927F9284
:101D00008F929F92AF92BF92CF92DF92EF92FF920B
:101D10000F931F93CF93DF936C01362E442EE9016E
:101D2000F90184902196FE0154902197882D9927DE
:101D300087FD9095079668E070E00E948D1BA62EA7
:101D4000BB24A7FCB09400E0E2E0EE2EF12C70E89A
:101D5000672E712C28C0E12FE595E595E595FF27C5
:101D6000E7FDF095EE0DFF1DEC0FFD1FE4912E2F0A
:101D700030E0812F8770A30102C0559547958A9561
:101D8000E2F724233523232B41F0612F630DC60195
:101D9000492DF601208D0E947D0B1F5F1815DCF286
:101DA0000F5FEA0CFB1C051524F410E0902E940C38
:101DB000F5CFDF91CF911F910F91FF90EF90DF90C2
:101DC000CF90BF90AF909F908F907F906F905F90DB
:101DD0004F903F9008952F923F924F925F926F9253
:101DE0007F928F929F92AF92BF92CF92DF92EF92AB
:101DF000FF920F931F93DF93CF9300D000D00F92E9
:101E0000CDB7DEB75C01462E642E422F202E3E2C2D
:101E10001C2D23E526170CF482C03FE236150CF486
:101E20007EC0DD249601220F331F2C0D3D1D862F11
:101E3000992787FD9095820F931F181619060CF0AD
:101E40006EC0C901880F991F262D332727FD3095B5
:101E5000820F931F181619060CF061C083E0489F8B
:101E6000D0011124BA83A983992404E0502EB3E051
:101E70009B1611F480E00BC0E92DFF27E7FDF095DC
:101E800029813A81E20FF31FE254FF4F84919C9C19
:101E9000802C1124840CFF24B6E07B2E392D340DC8
:101EA0003B83A82FB0E0BD83AC8380FF12C011300C
:101EB00031F44F2D460DC5016B81222D13C0FC9CC2
:101EC000402D1124460DC501682D212F012FE22C34
:101ED00015C03214A9F0113041F44F2D460DC50143
:101EE0006B81232D0E947D0B0BC0FC9C402D112487
:101EF000460DC501682D212F012FE32C0E94500CA7
:101F0000F3947A9441F0EC81FD81F595E795FD839A
:101F1000EC838C81C6CF93945A9409F0A8CF0F908C
:101F20000F900F900F900F90CF91DF911F910F9115
:101F3000FF90EF90DF90CF90BF90AF909F908F90E9
:101F40007F906F905F904F903F902F900895CF9229
:101F5000EF920F93CF93DF93EC01262F6A3031F489
:101F60008B8D26E0829FC00111242CC06D3071F151
:101F70006E894F89098DEA8CCB8C0E94EB0E8B8D7C
:101F8000482F50E0CA01880F991F880F991F2E898A
:101F9000280F2E8B8C8D8823C9F0332727FD309591
:101FA00085E190E0841B950B880F991F880F991F7E
:101FB000821793075CF4CA01880F991F840F951F3D
:101FC000880F991F2F89280F2F8B1E8A81E090E0A0
:101FD000DF91CF910F91EF90CF900895FC01668B28
:101FE000478B0895FC01662309F461E0638F08952F
:101FF000FC01618F428F0895FC01648F08951F9347
:10200000CF93DF93EC01162FF8948F8160E00E944C
:102010007216888518161CF460E00E9472161EBDA8
:102020000DB407FEFDCF8EB5888518161CF461E04F
:102030000E9472167894DF91CF911F910895FF92BC
:102040000F931F93CF93DF93EC01FF2400E010E088
:102050006F2D6064CE010E94FF0FCE0160E80E94E8
:10206000FF0F8F8161E00E947216888518161CF49C
:1020700060E00E947216F801E759FE4F90E08081FF
:102080008EBD0DB407FEFDCF8EB59F5F31969435A2
:10209000B1F7888518161CF461E00E947216F3945B
:1020A0000C5A1F4F86E0F81699F6CE0160E40E94A4
:1020B000FF0FDF91CF911F910F91FF900895CF9364
:1020C000DF93DC0188EF91E0E9E6F1E0EF019C01AC
:1020D000199221503040E1F756961C925697579628
:1020E0001C92DF91CF910895EF920F93CF93DF93DE
:1020F000EC014E836D832F83E98608871E8A1F8A31
:1021000081E08B8F888F8A8F898F8C8F1C820E94B1
:102110002B0A81E00E940C0A85E00E941A0A8CE0DA
:102120000E94150A8E8161E00E9433168D8161E064
:102130000E9433168F8161E00E943316898518163C
:102140001CF461E00E943316888518161CF461E0C7
:102150000E943316898518166CF460E00E9472168E
:1021600065E070E080E090E00E941D15898561E0E7
:102170000E947216ED812E2F332727FD3095F9012D
:10218000E954FD4FE491F0E0EE0FFF1FED55FD4FD8
:10219000859194919D878C8725533D4FF9018491BA
:1021A0008B8BEE812E2F332727FD3095F901E954D3
:1021B000FD4FE491F0E0EE0FFF1FED55FD4F8591CF
:1021C00094919B878A8725533D4FF90184918A8B8F
:1021D000E8852E2F332727FD3095F901E954FD4F6F
:1021E000E491F0E0EE0FFF1FED55FD4F85919491C6
:1021F0009F878E8725533D4FF90184918C8BEF810A
:102200002E2F332727FD3095F901E954FD4FE49136
:10221000F0E0EE0FFF1FED55FD4F85919491998BE6
:10222000888B25533D4FF90184918D8BCE0161E25E
:102230000E94FF0FCE0164E10E94FF0FCE016AEB06
:102240000E94FF0FCE0160E20E94FF0FCE016CE002
:102250000E94FF0FCE010E941F10DF91CF910F91BE
:10226000EF900895FC0114A613A680EA93E092A7CC
:1022700081A70895EF92FF920F931F93CF93DF935F
:102280008C01EC01A996CE0161E040E00E94F80FBC
:10229000CE0161E540E00E94EE0F93E1E92EF12CC2
:1022A000E00EF11EC7010E94C60A882359F581E598
:1022B000E82EF12CE00EF11EF70180819181A281C0
:1022C000B3818F709070A070B0700897A105B105B0
:1022D000B0F4CE0167E00E948619F70180819181F8
:1022E000A281B3818F709070A070B0700097A1052B
:1022F000B105A1F4C8014E960E94B4130FC0CE01DF
:1023000068E70AC0F8018389882341F0C7010E9469
:10231000C60A682F6A5FCE010E948619DF91CF91AD
:102320001F910F91FF90EF900895AF92BF92CF92BF
:10233000EF92FF920F931F93CF93DF93EC01C55A57
:10234000DF4F8881CB55D0408823C9F18C3010F005
:1023500010E002C01CE0181B59E2A52EB12CAC0EF7
:10236000BD1EC50161E00E94F20FC50161E040E0C1
:102370000E94F80F47E2F42EF10EC50160E04F2DE8
:1023800024E509E033E0E32ECC240E94390EC50198
:1023900060E04F2D24E5CC24C3940E94D30D175D3B
:1023A000C50164E0412F0E94EE0FC75ADF4F6991CB
:1023B0007991C5010E946319888181508883DF91DA
:1023C000CF911F910F91FF90EF90CF90BF90AF9062
:1023D0000895AF92BF92CF92DF92EF92FF920F9348
:1023E0001F93CF93DF93EC0175E5A72EB12CA80EB8
:1023F000B91EF501E080F180028113810E94E91489
:10240000E61AF70A080B190B60E5C62ED12CCC0E84
:10241000DD1EF601808190E0A0E0B0E08E159F0502
:10242000A007B10708F075C08E01045B1F4FF801CB
:1024300080819181A281B3810097A105B10509F442
:1024400068C00E94E914F6012081620F711D811D90
:10245000911DF5016083718382839383FE01EF5A9E
:10246000FF4F80819181A281B3810196A11DB11D91
:1024700080839183A283B383F80110821182128238
:1024800013820E94F714C85BDF4F688379838A83C5
:102490009B83C854D040CE010E944D0ACE010596C0
:1024A0000E94300BCE0143960E94CC0A81E026C0E8
:1024B000CE014E960E94BA13CE010E949511CE0114
:1024C0000E943A118E01075D1F4FC8010E941F1024
:1024D0008DA5882319F4C8010E945F100E94F7148B
:1024E000C45BDF4F688379838A839B832497288129
:1024F0003981621B730B7A936A9380E0DF91CF91ED
:102500001F910F91FF90EF90DF90CF90BF90AF9011
:102510000895C45BDF4F88819981AA81BB81CC5427
:10252000D0400097A105B10541F7C2CFEF92FF92CD
:102530000F931F93CF93DF938C01EC01A996CE01EB
:102540000E945F10CE016BE271E00E94DE19CE01A5
:102550000E941F1081E693E0EEEFFFE30995F8017A
:1025600015A6E5E0EE2EF12CE00EF11EC8010E944A
:10257000E9118823D9F3CE0166E371E00E94E119E5
:10258000C70164E00E94080B882381F3DF91CF919B
:102590001F910F91FF90EF9008954F925F926F926D
:1025A0007F928F929F92AF92BF92CF92DF92EF92E3
:1025B0000F93CF93DF93EC012B016A01C05BDF4FD8
:1025C00082E388832596188219821A821B821A92C6
:1025D0001A921A921A92259781E090E0A0E0B0E05A
:1025E00088839983AA83BB83CC54D040CE010E94B8
:1025F000420A65E0662E712C6C0E7D1EC3010E949E
:10260000500BCE0143960E94B10A5EE1A52EB12C7B
:10261000AC0EBD1EC5010E94741449E2842E912C9B
:102620008C0E9D1EC4016DE04BE020E10FE03EE00A
:10263000E32E0E947410CE016FEF0E94480A81E0E1
:102640008DA7C114D10411F400E009C0F601049172
:102650000E5FC40160E04CE096010E947B0EC40155
:10266000602F4CE00E94EE0FCE018996B2010E94CD
:102670006319C5016EE372E040E00E948913CE0148
:102680000E94E9118823D9F3C30164E00E94080B7A
:102690008823B1F0C50160E00E949C131DA681E073
:1026A0008B8BDF91CF910F91EF90DF90CF90BF9008
:1026B000AF909F908F907F906F905F904F90089514
:1026C000C30165E00E94080B882321F0C50160E08A
:1026D0000E94A913C5010E94B113882351F4C401BB
:1026E00068E44FE128E701E0EE24CC24C3940E9483
:1026F000EB0EC30166E00E94080B882309F4BFCFEC
:10270000CE010E949612BBCF40E050E00E94CD1255
:102710000895FC01442379F41092930610929206D6
:102720001092B4007183608381E0818710861782E4
:102730001682809390060895FC01662349F4118661
:102740001092930610929206109290061092B40086
:102750000895FC0164300CF063E067FD60E0628383
:102760000895FC018281089565E972E040E00E94CD
:1027700089130895CF93DF93EC01F894898588231A
:1027800009F455C08885882309F04EC08E819F8149
:10279000880F991FE881F981E80FF91FA591B4917D
:1027A000109789F48A85882321F01F821E8281E098
:1027B0003DC01986109293061092920610929006D0
:1027C0001092B40034C0AD0124E0569547952A9587
:1027D000E1F7FD01EF2FFF27E695E695E759FC4F5E
:1027E00060818A2F8170809394062B818A81289F33
:1027F00090011124B695A7958A2F877090E0FC016F
:102800002E9FC0012F9F900D3E9F900D112480930D
:102810009206809393064F734887609391068E814A
:102820009F8101969F838E838885815088877894C5
:10283000DF91CF91089560919206662381F1809196
:102840008F068F5F80938F0690919106891738F1DC
:1028500030E080919006882309F431E030939006AF
:1028600010928F06809194068823A9F080916803C6
:1028700023E4829FC0011124895B8093680390E068
:1028800070E00E94791B8093930605C080919306A7
:102890008093B40008953323C9F780E0F9CF0895F9
:1028A0001F920F920FB60F9211242F933F934F93C5
:1028B0005F936F937F938F939F93AF93BF93EF93A8
:1028C000FF930E941B14FF91EF91BF91AF919F91D5
:1028D0008F917F916F915F914F913F912F910F90C9
:1028E0000FBE0F901F901895FC0183E082838CE04F
:1028F000838383E061E070E00E94D315E1EBF0E0B8
:102900008081887F81608083F89410928000E1E864
:10291000F0E01082109285001092840088E191E02E
:102920009093890080938800808188608083808173
:1029300081608083EFE6F0E080818260808378941C
:1029400008951F920F920FB60F9211242F933F9369
:102950008F939F93AF93BF938091990690919A061E
:10296000A0919B06B0919C0630919D060196A11DF9
:10297000B11D232F2D5F2D3720F02D570196A11D5E
:10298000B11D20939D068093990690939A06A0937B
:102990009B06B0939C068091950690919606A09117
:1029A0009706B09198060196A11DB11D80939506DA
:1029B00090939606A0939706B0939806BF91AF9117
:1029C0009F918F913F912F910F900FBE0F901F906D
:1029D00018958FB7F8942091990630919A064091F6
:1029E0009B0650919C068FBFB901CA0108959FB7FD
:1029F000F894209195063091960640919706509153
:102A0000980686B5A89B06C08F3F21F02F5F3F4FE9
:102A10004F4F5F4F9FBF542F432F322F2227280F36
:102A2000311D411D511D82E0220F331F441F551FD0
:102A30008A95D1F7B901CA0108959B01AC017FB70E
:102A4000F8948091950690919606A0919706B09182
:102A5000980666B5A89B05C06F3F19F00196A11DA9
:102A6000B11D7FBFBA2FA92F982F8827860F911DE0
:102A7000A11DB11D62E0880F991FAA1FBB1F6A9597
:102A8000D1F7BC012DC0FFB7F894809195069091C5
:102A90009606A0919706B0919806E6B5A89B05C04A
:102AA000EF3F19F00196A11DB11DFFBFBA2FA92F4D
:102AB000982F88278E0F911DA11DB11DE2E0880F70
:102AC000991FAA1FBB1FEA95D1F7861B970B885E3B
:102AD0009340C8F2215030404040504068517C4FF4
:102AE000211531054105510571F60895789484B595
:102AF000826084BD84B5816084BD85B5826085BDFA
:102B000085B5816085BDEEE6F0E0808181608083DF
:102B1000E1E8F0E0108280818260808380818160C2
:102B20008083E0E8F0E0808181608083E1EBF0E089
:102B3000808184608083E0EBF0E08081816080832D
:102B4000EAE7F0E080818460808380818260808316
:102B50008081816080838081806880831092C10041
:102B60000895982F8E3008F09E50977080919B03A7
:102B70008295880F880F807C892B80937C008091C0
:102B80007A00806480937A0080917A0086FDFCCF81
:102B90002091780040917900942F80E030E0282B3C
:102BA000392BC90108951F93CF93DF93182FEB01A1
:102BB00061E00E943316209709F44AC0CF3FD10547
:102BC00009F449C0E12FF0E0E152FD4F84918330D8
:102BD000C1F0843028F4813051F08230B1F50CC05E
:102BE000863019F1873049F1843079F514C084B505
:102BF000806884BDC7BD33C084B5806284BDC8BD54
:102C00002EC080918000806880938000D0938900DE
:102C1000C093880024C080918000806280938000EF
:102C2000D0938B00C0938A001AC08091B000806856
:102C30008093B000C093B30012C08091B000806256
:102C40008093B000C093B4000AC0C038D1051CF412
:102C5000812F60E002C0812F61E00E947216DF9137
:102C6000CF911F910895CF93DF93482F50E0CA0171
:102C700085539D4FFC01349149545D4FFA01849175
:102C8000882369F190E0880F991FFC01E756FD4FFA
:102C9000A591B491FC01ED55FD4FC591D4916623EA
:102CA00051F42FB7F8948C91932F909589238C939E
:102CB000888189230BC0623061F42FB7F8948C911E
:102CC000932F909589238C938881832B88832FBFA2
:102CD00006C09FB7F8948C91832B8C939FBFDF9194
:102CE000CF910895482F50E0CA0181529D4FFC01B9
:102CF0002491CA0185539D4FFC01949149545D4F25
:102D0000FA013491332309F440C0222351F12330D6
:102D100071F0243028F42130A1F0223011F514C0D4
:102D20002630B1F02730C1F02430D9F404C08091AE
:102D300080008F7703C0809180008F7D809380001A
:102D400010C084B58F7702C084B58F7D84BD09C063
:102D50008091B0008F7703C08091B0008F7D809309
:102D6000B000E32FF0E0EE0FFF1FED55FD4FA591F2
:102D7000B4912FB7F894662321F48C919095892310
:102D800002C08C91892B8C932FBF0895682F70E01F
:102D9000CB0181529D4FFC012491CB0185539D4F66
:102DA000FC01449169547D4FFB019491992319F4DE
:102DB00020E030E03CC0222351F1233071F0243078
:102DC00028F42130A1F0223011F514C02630B1F0E2
:102DD0002730C1F02430D9F404C0809180008F776F
:102DE00003C0809180008F7D8093800010C084B5E7
:102DF0008F7702C084B58F7D84BD09C08091B000FB
:102E00008F7703C08091B0008F7D8093B000892FB1
:102E100090E0880F991F83559D4FFC01A591B491B7
:102E20008C9120E030E0842311F021E030E0C901F2
:102E3000089508951F920F920FB60F9211242F93A9
:102E40003F934F938F939F93EF93FF938091C00095
:102E500082FD1DC04091C6002091DE063091DF0644
:102E60002F5F3F4F2F7330708091E0069091E10605
:102E70002817390771F0E091DE06F091DF06E2567F
:102E8000F94F40833093DF062093DE0602C0809125
:102E9000C600FF91EF919F918F914F913F912F919C
:102EA0000F900FBE0F901F901895E0913207F09190
:102EB0003307E05CFF4F8191919120813181821B2A
:102EC000930B8F739070892B11F00E94191708953E
:102ED0001F920F920FB60F9211242F933F938F934F
:102EE0009F93EF93FF9320912207309123078091C6
:102EF0002407909125072817390731F48091C100E4
:102F00008F7D8093C10014C0E0912407F0912507C4
:102F1000EE51F94F20818091240790912507019669
:102F20008F73907090932507809324072093C60099
:102F3000FF91EF919F918F913F912F910F900FBE35
:102F40000F901F901895AF92BF92DF92EF92FF9271
:102F50000F931F93CF93DF93EC017A018B01DD2454
:102F6000403081EE580780E0680780E0780711F074
:102F7000DD24D39491E0A92EB12CEC89FD89DD20CC
:102F800069F0C50108A002C0880F991F0A94E2F7F2
:102F9000808360E079E08DE390E005C0108260E816
:102FA00074E88EE190E0A80197010E94A01B2150D7
:102FB000304040405040569547953795279580E1E1
:102FC0002030380720F0DD2011F0DD24D6CFE8894D
:102FD000F9893083EA89FB89208319A2EE89FF8968
:102FE000408121E030E0C9010C8C02C0880F991F9C
:102FF0000A94E2F7482B4083EE89FF894081C9019A
:103000000D8C02C0880F991F0A94E2F7482B408369
:10301000EE89FF894081C9010E8C02C0880F991F7B
:103020000A94E2F7482B4083EE89FF8980810F8C58
:1030300002C0220F331F0A94E2F720952823208331
:10304000DF91CF911F910F91FF90EF90DF90BF9094
:10305000AF900895DC011C96ED91FC911D97E05C0A
:10306000FF4F2191319180819181281B390B2F7362
:103070003070C9010895DC011C96ED91FC911D97FB
:10308000E05CFF4F20813181E054F040DF01AE5B16
:10309000BF4F8D919C9111972817390719F42FEF85
:1030A0003FEF07C08D919C91E80FF91F8081282F79
:1030B00030E0C9010895DC011C96ED91FC911D974B
:1030C000E05CFF4F20813181E054F040DF01AE5BD6
:1030D000BF4F8D919C9111972817390719F42FEF45
:1030E0003FEF10C08D919C911197E80FF91F20813F
:1030F0008D919C91119701968F73907011969C936E
:103100008E9330E0C9010895DC0191968C919197DE
:10311000882339F05496ED91FC915597808186FF74
:10312000F9CF91961C920895CF93DF93EC01EE8531
:10313000FF85E05CFF4F20813181E054F0402F5F3C
:103140003F4F2F733070DF01AE5BBF4F8D919C916D
:10315000119728173907D1F3E05CFF4F80819181E7
:10316000E054F040E80FF91F6083EE85FF85E05CD6
:10317000FF4F31832083EE89FF89208181E090E039
:103180000F8C02C0880F991F0A94E2F7282B208326
:1031900081E089A3EC89FD8980818064808381E05E
:1031A00090E0DF91CF91089510922907109228079F
:1031B00088EE93E0A0E0B0E080932A0790932B077D
:1031C000A0932C07B0932D0788EA93E090932707EC
:1031D000809326078EE996E0909333078093320719
:1031E00082EE96E0909335078093340785EC90E06B
:1031F000909337078093360784EC90E090933907DB
:103200008093380780EC90E090933B0780933A07D7
:1032100081EC90E090933D0780933C0782EC90E036
:1032200090933F0780933E0786EC90E09093410790
:103230008093400784E08093420783E080934307B4
:1032400087E08093440785E08093450781E0809381
:1032500046070895CF93DF930E9476150E948B0353
:10326000C5E5D7E10E94A0022097E1F30E9455171F
:10327000F9CFCF92DF92EF92FF920F931F93CF93EC
:10328000DF937C016B018A01C0E0D0E00FC0D60162
:103290006D916D01D701ED91FC910190F081E02DD0
:1032A000C7010995C80FD91F01501040011511051C
:1032B00071F7CE01DF91CF911F910F91FF90EF90A9
:1032C000DF90CF900895EF92FF920F931F93CF93CB
:1032D000DF937C018B01C0E0D0E0F8010F5F1F4F4E
:1032E0006491662359F0D701ED91FC910190F08132
:1032F000E02DC7010995C80FD91FEFCFCE01DF918F
:10330000CF911F910F91FF90EF900895DC01ED9107
:10331000FC910190F081E02D09950895EF92FF92C4
:103320000F931F938C01DC01ED91FC910190F081D2
:10333000E02D6DE009957C01D801ED91FC910190A3
:10334000F081E02DC8016AE009959C012E0D3F1D1A
:10335000C9011F910F91FF90EF900895EF92FF9296
:103360000F931F937C010E9463198C01C7010E9477
:103370008E199C01200F311FC9011F910F91FF90E1
:10338000EF900895CF93DF93EC016115710519F467
:1033900020E030E00FC0DB010D900020E9F711972D
:1033A000A61BB70BE881F9810280F381E02DAD0106
:1033B00009959C01C901DF91CF9108950E94C2191E
:1033C0000895EF92FF920F931F937C010E94C21900
:1033D0008C01C7010E948E19080F191FC8011F9187
:1033E0000F91FF90EF9008952F923F924F925F922E
:1033F0006F927F928F929F92AF92BF92CF92DF9205
:10340000EF92FF920F931F93DF93CF93CDB7DEB769
:103410003B014C0119012A016D897E898F89988DA4
:103420006A197B098C099D09621A730A840A950A34
:10343000A40193010E945A1BE218F308040915091C
:10344000A80197010E94C21B2A0D3B1D4C1D5D1D4A
:10345000B901CA01CF91DF911F910F91FF90EF90B9
:10346000DF90CF90BF90AF909F908F907F906F90A4
:103470005F904F903F902F90089598D088F09F577D
:1034800090F0B92F9927B751A0F0D1F0660F771FB0
:10349000881F991F1AF0BA95C9F712C0B13081F090
:1034A0009FD0B1E008959CC0672F782F8827B85F20
:1034B00039F0B93FCCF3869577956795B395D9F7F1
:1034C0003EF490958095709561957F4F8F4F9F4FFB
:1034D0000895E89409C097FB3EF490958095709507
:1034E00061957F4F8F4F9F4F9923A9F0F92F96E950
:1034F000BB279395F695879577956795B795F111C5
:10350000F8CFFAF4BB0F11F460FF1BC06F5F7F4F61
:103510008F4F9F4F16C0882311F096E911C0772373
:1035200021F09EE8872F762F05C0662371F096E87C
:10353000862F70E060E02AF09A95660F771F881F4B
:10354000DAF7880F9695879597F9089597F99F6709
:1035500080E870E060E008959FEF80EC089500241B
:103560000A941616170618060906089500240A94E8
:1035700012161306140605060895092E0394000C6E
:1035800011F4882352F0BB0F40F4BF2B11F460FFFD
:1035900004C06F5F7F4F8F4F9F4F089557FD905826
:1035A000440F551F59F05F3F71F04795880F97FB07
:1035B000991F61F09F3F79F08795089512161306C1
:1035C0001406551FF2CF4695F1DF08C016161706F0
:1035D0001806991FF1CF8695710561050894089525
:1035E000E894BB2766277727CB0197F908950BD07E
:1035F000C4CFB5DF28F0BADF18F0952309F0A6CFC5
:10360000ABCF1124EECFCADFA0F3959FD1F3950F76
:1036100050E0551F629FF001729FBB27F00DB11D56
:10362000639FAA27F00DB11DAA1F649F6627B00DE6
:10363000A11D661F829F2227B00DA11D621F739FCF
:10364000B00DA11D621F839FA00D611D221F749FDD
:103650003327A00D611D231F849F600D211D822F24
:10366000762F6A2F11249F5750408AF0E1F088236B
:103670004AF0EE0FFF1FBB1F661F771F881F915078
:103680005040A9F79E3F510570F060CFAACF5F3F31
:10369000ECF3983EDCF3869577956795B795F795AB
:1036A000E7959F5FC1F7FE2B880F911D9695879533
:1036B00097F90895629FD001739FF001829FE00DFA
:1036C000F11D649FE00DF11D929FF00D839FF00DA1
:1036D000749FF00D659FF00D9927729FB00DE11D4D
:1036E000F91F639FB00DE11DF91FBD01CF0111242A
:1036F0000895AA1BBB1B51E107C0AA1FBB1FA61739
:10370000B70710F0A61BB70B881F991F5A95A9F78A
:1037100080959095BC01CD01089597FB092E072651
:103720000AD077FD04D0E5DF06D000201AF47095AA
:1037300061957F4F0895F6F7909581959F4F089575
:10374000A1E21A2EAA1BBB1BFD010DC0AA1FBB1FA5
:10375000EE1FFF1FA217B307E407F50720F0A21B17
:10376000B30BE40BF50B661F771F881F991F1A9484
:1037700069F760957095809590959B01AC01BD01AE
:10378000CF01089597FB092E05260ED057FD04D0D2
:10379000D7DF0AD0001C38F450954095309521951C
:1037A0003F4F4F4F5F4F0895F6F790958095709576
:1037B00061957F4F8F4F9F4F0895EE0FFF1F05902C
:0A37C000F491E02D0994F894FFCF76
:1037CA004241434B55502E4D454D002E5341560014
:1037DA004578697374696E67206F76657277726966
:1037EA007474656E00100020002E004C6F616469CD
:1037FA006E672E2E2E000A4E6F205344206361728C
:10380A0064206F720A6E6F204C4F414445522E4815
:10381A0045580A0A413A4578697400564F4C554D45
:10382A00450001000A0A0B0C0D0000F0FC0E0243D1
:10383A0041C1C10180E0705C4F7FFC8000C0F03E56
:10384A001FFFE0E0781CFFFF0080FF7F11111111BC
:10385A000100C0FF3F11193FE6C000F8FF07000052
:10386A0000F8FF07E0FF1FC0FF3F0E3CF0C0E0FF7B
:10387A001F00F8FC0603010183FE7C000000000023
:10388A000103020203030002030100000000030314
:10389A000203010000030300000003030003030204
:1038AA0002020202020003030202020301010001F2
:1038BA0003020202030100000303000303000000E5
:1038CA0000010303000000010302020301000000DB
:1038DA0000000000000000000000000000000000DE
:1038EA0000000000000000000000000000000000CE
:1038FA0000000000000000000000000000000000BE
:10390A0000000000000000000000000000000000AD
:10391A0000000000C02010D0901020C0000000005D
:10392A00C060A060C00000000000000000000000AD
:10393A00000000000000000000000000000000007D
:10394A00000000000000000000000000000000006D
:10395A00000000000000000000000000000000005D
:10396A000000000000000000070810971311080764
:10397A0080000000078C8E8C070000000000000009
:10398A00000000000000000000000000000000002D
:10399A00000000000000000000000000000000001D
:1039AA00000000000000000000000000000000000D
:1039BA0000000000000000000000001E1E1E3F7FE5
:1039CA00000C211E403F00001F3035311F0000004F
:1039DA0000000000000000000000000000000000DD
:1039EA0000000000000000000000000000000000CD
:1039FA0000000000000000000000000000000000BD
:103A0A00000000000000000000000000000000FEAE
:103A1A009D858585868484E41C0000007CC6D6D6F4
:103A2A007C4C4F414445520001DBCFC3B8AEA49B46
:103A3A00938A837B746E68625C57524E4A45423E53
:103A4A003A3734312E2C29272523211F1D00000047
:103A5A00000000000000000000000001000000005B
:103A6A00A70F391900000000941839192A185B1891
:043A7A003B18841859
:00000001FF
