:100000000C94D5010C94FD010C94FD010C94FD01A0
:100010000C94FD010C94FD010C94FD010C94FD0168
:100020000C94FD010C94FD010C94FD010C94490D00
:100030000C94FD010C94FD010C94FD010C94FD0148
:100040000C949A0D0C94FD010C94FD010C94FD018F
:100050000C94FD010C94FD010C94FD010C94FD0128
:100060000C94FD010C94FD01426F756E63696E671F
:100070002042616C6C003F213F0A100A1208120EE8
:100080001C0E0C1E0C141A14161F161E131E1E1BFB
:100090001E1E1F1E3F213F3A2F3A173D173F213F9B
:1000A000181F02040A041F0E04040E1F0A1F0A0E62
:1000B0000E1F04110E2E252E2F2A2E262929021F4F
:1000C00002081F08150E04040E150E15151B151B2E
:1000D000040604040C040000000017000300031FC2
:1000E0000A1F16371A1904130A153A000300000EE6
:1000F00011110E000A040A040E0400300004040466
:100100000010001804030E110E121F101219161100
:10011000150B07041F1715090E15091905031A15E4
:100120000B12150E000A00003200040A110A0A0A16
:10013000110A040115020E11171E051E1F150A0EC5
:10014000110A1F110E1F15111F05010E111D1F048D
:100150001F111F1108100F1F041B1F10101F061F57
:100160001E040F0E110E1F09060E112E1F051A1266
:100170001509011F011F101F0F180F1F0C1F1B0453
:100180001B031C03191513001F11030418111F0072
:100190000201022020200001020C121E1F120C0C72
:1001A00012120C121F0C1A14041E05242A1E1F0200
:1001B0001C141D1020201D1F0814111F101E041ECA
:1001C0001E021C0C120C3E0A040C123E1E040214E9
:1001D000160A020F120E101E0E100E1E081E120C12
:1001E0001226281E322A26041E21001F00211E046A
:1001F0000102013F213F1E0010001E3010002E6042
:100200002C602A6028602660246022608000000044
:100210000A4E6F2053442063617264206F720A6E2D
:100220006F204C4F414445522E4845580A0A153A12
:1002300045786974004C6F6164696E672E2E2E00DC
:100240004E4F20424154544552590A0A504C4541A0
:1002500053450A5455524E204F464600564F4C5572
:100260004D4500177361766500166261636B00157A
:1002700074797065000A0A0A153A6F6B6179201665
:100280003A6564697400596F7520656E74657265AE
:10029000640A0000540A03E181867F3E186D830FD3
:1002A0000F0E0183866033186DC3198F1803C38E38
:1002B0006033186DE330CF1803C39E603630CDE352
:1002C00060CF3006C79E7E3E30CDB360CF300CC6C7
:1002D000F6603330D9B660CF33CFCCF66061B0DB97
:1002E0001E60CF30D86CE6C061B0DB1E618F1998FC
:1002F0006CC6C063B19B0E330F0FB078C6FF7E1F74
:100300001B061E0F101C3C00420E911B99159D11DF
:100310009915911F420E3C0000000000000E0017CE
:10032000001100150011001F000E000000007800F1
:10033000840EFFDFC051C0578091809FFF8E1E301A
:100340001E6000001E601E3000001F6000000000E4
:100350000000240027002A000000000025002800DB
:100360002B000000000023002600290004040404E0
:10037000040404040202020202020303030303034F
:10038000010204081020408001020408102001022C
:10039000040810200000000700020100000304060A
:1003A0000000000000000000FF0111241FBECFEF7D
:1003B000D8E0DEBFCDBF11E0A0E0B1E0E6E3F5E2BA
:1003C00002C005900D92AE34B107D9F713E0AEE448
:1003D000B1E001C01D92AB3BB107E1F713E0CAEAFF
:1003E000D3E004C02297FE010E949512C83AD107BB
:1003F000C9F70E9412100C9499120C9400008EE41C
:1004000091E00E943F0908950F938EE491E00E94CD
:10041000BC0A882309F481C060910B0170910C0122
:100420008091070190910801860F971F9093080112
:10043000809307012091090130910A0140910D013B
:1004400050910E01240F351F30930A0120930901AA
:1004500097FF0CC088279927861B970B90930C0158
:1004600080930B0183E791E00E94A20C80910F0121
:10047000909110012091070130910801820F931F84
:10048000853591057CF080910B0190910C01909540
:1004900081959F4F90930C0180930B0183E791E02E
:1004A0000E94A20C8091090190910A0197FF0FC050
:1004B00080910D0190910E01909581959F4F9093A1
:1004C0000E0180930D0183E791E00E94A20C8091C0
:1004D0000F01909110012091090130910A01820FC2
:1004E000931FC1977CF080910D0190910E01909522
:1004F00081959F4F90930E0180930D0183E791E0CA
:100500000E94A20C00910F0180E891E06091070128
:1005100040910901202F0E9498040F9108958EE4C4
:1005200091E068E670E00E94660C0895882319F453
:100530008CB5806202C08CB58F7D8CBD08959CB552
:10054000937F982B9CBD08952CB5382F33702C7F4A
:10055000322B3CBD2DB590E0959587959595879567
:1005600081702E7F822B8DBD08958AE061E00E940C
:100570006B0F8AE061E00E942C0F8CB580618CBD0E
:100580008CB580648CBD8DE061E00E942C0F8BE007
:1005900061E00E942C0F0895FC011282118281E01B
:1005A0008083089585E070E00E94CC0E08956F92DC
:1005B0007F928F929F92AF92BF92CF92DF92EF92F3
:1005C000FF920F931F93CF93DF93EC0189819A8160
:1005D0008C0124E0000F111F2A95E1F7081B190B6D
:1005E00085E10E94AA0EBC01600F711F84E0769520
:1005F00067958A95E1F77A8369838881882381F1F9
:100600002E813F816217730710F4B90106C08885F7
:1006100099858617970708F4BC0100D000D080E0C8
:1006200090E040E050E0E884F98400E010E0AD8024
:10063000BB24CC24DD246C80772488249924EDB756
:10064000FEB761827282838294820E94AA106B83B9
:100650000F900F900F900F9085E070E00E94CC0EED
:10066000DF91CF911F910F91FF90EF90DF90CF908E
:10067000BF90AF909F908F907F906F900895FC01F6
:100680008CE39FE09383828384E0818381E084878D
:1006900010820895CF93DF93EC018C8590E08F71E9
:1006A0009070892B21F584E10E94AA0EAA2797FD5C
:1006B000A095BA2FBC01CD010E94211126EE3FE387
:1006C0004EEC50E40E94AD110E94F3107B836A83CC
:1006D00024E02983FE0120E0848195816817790751
:1006E00010F4298307C02F5F32962430A9F78C8538
:1006F0008F5F8C87DF91CF910895FC0188E0808324
:1007000089E0818387E0828386E0838384E0848339
:1007100082E0858381E186831782108611861286A6
:10072000138614861586089520E0FC01E60FF11D5E
:100730008781813009F421E0822F08950F931F9360
:10074000CF93DF93EC0110E00FEF888162E00E940D
:100750002C0F88810E94BF0F2F81892B19F42F5FE6
:100760002F8307C0222349F02F3F11F41F8201C0BD
:100770000F83888160E00E942C0F1F5F2196173045
:1007800021F7DF91CF911F910F910895FC01618FA7
:10079000628F0895FC01618F428F0895FC016435DA
:1007A000A8F547FD33C040338CF5818D942F959586
:1007B00095959595772767FD70954770882399F0F3
:1007C000E4E59E02F0011124E60FF71FEC54FE4F02
:1007D00081E090E002C0880F991F4A95E2F72081DE
:1007E000282B20830895E4E59E02F0011124E60FF2
:1007F000F71FEC54FE4F81E090E002C0880F991F74
:100800004A95E2F780952081282320830895AF92AE
:10081000BF92CF92DF92EF92FF920F931F93CF93ED
:10082000DF93EC01162FF42EE22EAA24402F552739
:1008300047FD50958F2D992787FD9095481B590BA3
:1008400057FF03C0509541955F4F2E2D332727FD4D
:100850003095812F992787FD9095281B390B37FFFD
:1008600003C0309521953F4F2417350744F4AA243F
:10087000A3948F2DF12E182F802F0E2DE82EE11628
:1008800034F48E2DE12E182F802F0F2DF82EDE2C14
:10089000D11A202F332727FD30958F2D992787FDDB
:1008A0009095281B390B37FF03C0309521953F4F9A
:1008B000B22EF0161CF0CC24CA9402C0CC24C394EF
:1008C0008D2DD7FC8F5F082F059511C0AA2021F030
:1008D000CE016F2D412F03C0CE01612F4F2D0E94FD
:1008E000CE030B1907FF02C0FC0C0D0D1F5FE116B4
:1008F0006CF7DF91CF911F910F91FF90EF90DF90F8
:10090000CF90BF90AF9008950F93042F322F262FD2
:100910002150230F0E9407040F9108950F93362F43
:10092000042F0150020F232F0E9407040F910895F6
:100930009F92AF92BF92CF92DF92EF92FF920F936E
:100940001F93CF93DF936C01B62E942EA02EC0E0A0
:10095000D0E0E62EFF24E7FCF094022F112707FDDC
:1009600010950E0D1F1D06C0C601492D2A2D0E948F
:100970008E0421966B2D6C0FCE018E0D9F1D80175E
:10098000910794F3DF91CF911F910F91FF90EF901A
:10099000DF90CF90BF90AF909F9008952F923F929D
:1009A0005F926F927F928F929F92AF92BF92CF92FF
:1009B000DF92EF92FF920F931F93DF93CF9300D0BC
:1009C00000D000D0CDB7DEB79E838D83C62ED42E47
:1009D000EE24E394E21A8EEF289F502C1124842EEB
:1009E0008A94962E9A94A42EA394B62EB394F22EA3
:1009F000662423E0722E10E0C801847090709A8300
:100A00008983F801E270F070FC83EB8398E0292E73
:100A1000312C202231220170107054C0E7FC04C038
:100A2000FA94F2E05F0EE50C639489819A81892B38
:100A300071F04F2D4D0D8D819E816B2D0E94CE0347
:100A40006F2D6C0D8D819E814A2D0E94CE03EB810E
:100A5000FC81EF2B71F04D2D4F198D819E816B2DF7
:100A60000E94CE036F2D6C0D8D819E81482D0E94BA
:100A7000CE032114310471F06C2D6F198D819E818C
:100A80004A2D0E94CE034F2D4D0D8D819E81692DE3
:100A90000E94CE030115110571F06C2D6F198D8127
:100AA0009E81482D0E94CE034D2D4F198D819E8130
:100AB000692D0E94CE03E70CF2E07F0E8A949A948F
:100AC000A394B3946F140CF4A9CF26960FB6F894A0
:100AD000DEBF0FBECDBFCF91DF911F910F91FF9071
:100AE000EF90DF90CF90BF90AF909F908F907F90CE
:100AF0006F905F903F902F9008954F925F926F920A
:100B00007F928F929F92AF92BF92CF92DF92EF929D
:100B1000FF920F931F93CF93DF93EC01A62E742EB9
:100B20009E2DFF24F394F21A8EEF289F802C11241F
:100B3000B42EBA9453E0C52ECE0CE22EDD2443E051
:100B4000942E10E031E0432E512C40225122692E88
:100B500063940270107034C0F7FC04C0EA9482E021
:100B6000880EF80CD3944114510489F06D2D6A0D50
:100B7000472D4E192E2D220F260DCE010E948E04D8
:100B80006E2D6A0DCE014B2D2C2D0E948E04011569
:100B9000110589F06A2D6D19472D4E192E2D220F42
:100BA000260DCE010E948E046A2D6E19CE014B2DAA
:100BB0002C2D0E948E04F90C82E0980EBA94C80E77
:100BC000DE1454F2DF91CF911F910F91FF90EF90BF
:100BD000DF90CF90BF90AF909F908F907F906F905D
:100BE0005F904F9008957F928F929F92AF92BF92A5
:100BF000CF92DF92EF92FF920F931F936C01962E8C
:100C0000A42EF22E7E2C760E1EEFE19E102D1124C6
:100C1000812E820E672D282D0E948404B02EBA0CDE
:100C2000BA94C601672D4B2D282D0E948404AE0C6A
:100C3000100FC601692D4A2D212F0E948E04F90C38
:100C4000FA94C6016F2D4A2D212F0E948E04C601F1
:100C5000672D4A2D2E2D01E00E94CE04FE18C601FC
:100C60006F2D4A2D2E2D02E00E94CE04BE18C60123
:100C70006F2D4B2D2E2D04E00E94CE04C601672D52
:100C80004B2D2E2D08E00E94CE041F910F91FF9056
:100C9000EF90DF90CF90BF90AF909F908F907F901C
:100CA00008958F929F92AF92BF92CF92DF92EF9270
:100CB000FF920F931F936C01162FA42E922EF02EED
:100CC000BE2C8E2C860E2EEFE29EE02C11242E2DB3
:100CD000290D682D0E949804AB0CFA94FE0C11505B
:100CE000190D1B19C601612F4A2D2B2D01E0EF2C88
:100CF0000E947D05C601682D4A2D2B2D02E00E9421
:100D00007D051F910F91FF90EF90DF90CF90BF90E6
:100D1000AF909F908F9008953F924F925F926F9205
:100D20007F928F929F92AF92BF92CF92DF92EF927B
:100D3000FF920F931F93CF93DF934C01362E442ED7
:100D4000E901F901A4902196FE01549021978A2D82
:100D5000992787FD9095079668E070E00E944312FE
:100D6000C62EDD24C7FCD09400E072E0E72EF12C03
:100D700060E8662E712C26C0E12FE595E595E59596
:100D8000FF27E7FDF095EE0DFF1DEC0FFD1FE49131
:100D90002E2F30E0812F8770A30102C05595479513
:100DA0008A95E2F724233523232B31F0612F630D3D
:100DB000C4014B2D0E94CE031F5F1A15ECF20F5F8A
:100DC000EC0CFD1C051524F410E0B02EB40CF5CF8E
:100DD000DF91CF911F910F91FF90EF90DF90CF9017
:100DE000BF90AF909F908F907F906F905F904F904B
:100DF0003F9008952F923F924F925F926F927F9211
:100E00008F929F92AF92BF92CF92DF92EF92FF921A
:100E10000F931F93DF93CF9300D00F92CDB7DEB720
:100E20009B838A83562E742E422F102FFC01F18D46
:100E3000F98383E586170CF489C0EFE2E7150CF41B
:100E400085C0C02EDD249601220F331F2C0D3D1DC1
:100E5000862F992787FD9095820F931F18161906E4
:100E60000CF074C0C901880F991F272D332727FD67
:100E70003095820F931F181619060CF067C083E097
:100E8000489F10011124AA24B4E06B2EF3E0AF16A2
:100E900011F480E009C0EA2DFF27E7FDF095E20D8F
:100EA000F31DEA58FF4F8491AC9C902C1124950CB3
:100EB000BB24A6E08A2E4A2C450CE82EFF2480FF96
:100EC00016C0113041F44B2D470D8A819B81642D52
:100ED0000E94CE032CC0BC9C402D1124470D8A815A
:100EE0009B81692D212F012F0E94980420C0EA8147
:100EF000FB81928D818D9817D1F0918F113041F443
:100F00004B2D470D8A819B81642D0E94CE030BC01F
:100F1000BC9C402D1124470D8A819B81692D212F76
:100F2000012F0E9498048981EA81FB81818FB3940B
:100F30008A9421F0F594E7948E2DBFCFA3946A9400
:100F400009F0A4CF8981EA81FB81818F0F900F90F6
:100F50000F90CF91DF911F910F91FF90EF90DF9055
:100F6000CF90BF90AF909F908F907F906F905F9049
:100F70004F903F902F9008950F93CF93DF93EC0104
:100F8000262F6A3031F48B8D26E0829FC001112418
:100F90002AC06D3061F16F89488D0B8D0E94FA0671
:100FA0008B8D482F50E0CA01880F991F880F991F19
:100FB0002F89280F2F8B8C8D8823C9F0332727FD8D
:100FC000309585E190E0841B950B880F991F880F61
:100FD000991F821793075CF4CA01880F991F840F29
:100FE000951F880F991F288D280F288F1F8A81E051
:100FF00090E0DF91CF910F910895FC01678B408FB6
:101000000895FC01662309F461E0638F08951F933E
:10101000CF93DF93EC01162FF894888560E00E944F
:101020006B0F898518161CF460E00E946B0F1EBDC3
:101030000DB407FEFDCF8EB5898518161CF461E04E
:101040000E946B0F7894DF91CF911F910895FF92CA
:101050000F931F93CF93DF93EC01FF2400E010E088
:101060006F2D6064CE010E940708CE0160E80E94E7
:101070000708888561E00E946B0F898518161CF4AB
:1010800060E00E946B0FF801EC54FE4F90E080810D
:101090008EBD0DB407FEFDCF8EB59F5F31969435A2
:1010A000B1F7898518161CF461E00E946B0FF39468
:1010B0000C5A1F4F86E0F81699F6CE0160E40E94A4
:1010C0000708DF91CF911F910F91FF900895CF9363
:1010D000DF93DC0188EF91E0E4EBF1E0EF019C01AC
:1010E000199221503040E1F757961C925797589625
:1010F0001C92DF91CF910895EF920F93CF93DF93DE
:10110000EC014F836E832887EA8609871F8A188E31
:1011100081E08B8F898F1A8E8C8F1C820E94B50282
:1011200081E00E94960280E00E94A4028CE00E946E
:101130009F028F8161E00E942C0F8E8161E00E94EE
:101140002C0F888561E00E942C0F8A8518161CF4EC
:1011500061E00E942C0F898518161CF461E00E9442
:101160002C0F8A8518166CF460E00E946B0F65E006
:1011700070E080E090E00E94160E8A8561E00E9497
:101180006B0FEE812E2F332727FD3095F901E4599F
:10119000FC4FE491F0E0EE0FFF1FE85AFC4F859101
:1011A00094919E878D8720583C4FF90184918C8BB8
:1011B000EF812E2F332727FD3095F901E459FC4F9D
:1011C000E491F0E0EE0FFF1FE85AFC4F85919491F7
:1011D0009C878B8720583C4FF90184918B8BE98544
:1011E0002E2F332727FD3095F901E459FC4FE49168
:1011F000F0E0EE0FFF1FE85AFC4F85919491988B19
:101200008F8720583C4FF90184918D8BE8852E2FD4
:10121000332727FD3095F901E459FC4FE491F0E0C4
:10122000EE0FFF1FE85AFC4F859194919A8B898BA2
:1012300020583C4FF90184918E8BCE0161E20E94CF
:101240000708CE0164E10E9407088D8187FF02C074
:101250008FE78D836D816068CE010E940708CE0103
:1012600060E20E940708CE016CE00E940708CE01F0
:101270000E942708DF91CF910F91EF900895FC0114
:1012800015AA14AA89E491E093AB82AB0895CF9399
:10129000DF93DC01E0E8FFE685919491ED01C15B0D
:1012A000DF4F8150904C09F04FC0E6E9FFE6E49132
:1012B000D796EC93D797E7E9FFE6E4911496EC9381
:1012C0001497E8E9FFE6E4911596EC931597E9E9A0
:1012D000FFE68591949117969C938E931697EBE970
:1012E000FFE68591949119969C938E931897EDE95A
:1012F000FFE6E4919796EC939797EEE9FFE6E49189
:101300009696EC939697EFE9FFE6E491E883E0EA9E
:10131000FFE6859194915D969C938E935C97E2EAAB
:10132000FFE6859194915F969C938E935E97E4EA95
:10133000FFE68591949191969C938E939097E6EA1F
:10134000FFE68591949134C08CE3D7968C93D79720
:1013500014961C92149780E815968C93159780E24A
:1013600093E017969C938E93169784ED93E01996CD
:101370009C938E93189783E097968C939797969665
:101380008C93969788E288838CEA9DE05D969C9387
:101390008E935C978EED9DE05F969C938E935E9707
:1013A00084E79EE091969C938E9390978CE39FE0C8
:1013B00093969C938E939297DF91CF910895EF929D
:1013C000FF920F931F93CF93DF937C018C010E5CF0
:1013D0001F4FC8010E946708C80165E372E00E94C0
:1013E0004B10C8010E94270880E091E0EEEFFFE378
:1013F0000995F70116AAC80160E172E00E949610F3
:10140000C8010E942708E7012A96CE010E949E0388
:10141000CE0164E00E949403882339F462E370E013
:1014200080E090E00E94160EF0CFDF91CF911F91E7
:101430000F91FF90EF9008950F931F93CF93DF9339
:10144000EC018C010E5C1F4FC80161E040E00E947E
:10145000CA03C80161E540E00E94FD07698D613063
:10146000C9F0613018F0653080F528C0CE0185964E
:101470000E94850CCE0160E00E94D202C8010E9449
:101480006708C80160E472E00E944B10C8010E9426
:101490002708FFCFC05BDF4F88819981AA81BB817C
:1014A0008F709070A070B0700897A105B10518F406
:1014B000C80167E008C0C80168E705C0888D8823B7
:1014C00021F06B5FC8010E946E10DF91CF911F91D8
:1014D0000F910895CF92DF92EF92FF920F931F9397
:1014E000CF93DF93EC01CB59DF4F8881C556D040B5
:1014F0008823C9F18C3010F010E002C01CE0181BEA
:1015000052E3C52ED12CCC0EDD1EC60161E00E9437
:101510000108C60160E00E94C60347E2F42EF10E06
:10152000C60160E04F2D24E509E033E0E32E0E9480
:101530005106C60161E00E94C603C60160E04F2D5E
:1015400024E50E94F305175DC60164E0412F0E9467
:10155000FD07CD59DF4F69917991C6010E944B106B
:10156000888181508883DF91CF911F910F91FF90E7
:10157000EF90DF90CF900895AF92BF92CF92DF921D
:10158000EF92FF920F931F93CF93DF93EC017FE5D0
:10159000A72EB12CA80EB91EF501E080F1800281C2
:1015A00013810E94E20DE61AF70A080B190B6EE58B
:1015B000C62ED12CCC0EDD1EF601808190E0A0E07D
:1015C000B0E08E159F05A007B10708F075C08E0129
:1015D000065A1F4FF80180819181A281B381009743
:1015E000A105B10509F468C00E94E20DF601208151
:1015F000620F711D811D911DF501608371838283CE
:101600009383FE01E05BFF4F80819181A281B381D2
:101610000196A11DB11D80839183A283B383F8013C
:1016200010821182128213820E94F00DCA5ADF4F7B
:10163000688379838A839B83C655D040CE010E94FC
:10164000D702CE010A960E949E03CE0148960E94C0
:101650004A03CE0185960E94AF0C81E022C0CE01E4
:101660000E946A0ACE010E941C0A8E010E5C1F4F66
:10167000C8010E9427088EA9882319F4C8010E9476
:1016800067080E94F00DC65ADF4F688379838A830A
:101690009B83249728813981621B730B7A936A9309
:1016A00080E0DF91CF911F910F91FF90EF90DF903D
:1016B000CF90BF90AF900895C65ADF4F888199812F
:1016C000AA81BB81CA55D0400097A105B10541F759
:1016D000C6CF2F923F924F925F926F927F928F92DE
:1016E0009F92AF92BF92CF92DF92EF92FF920F93B1
:1016F000CF93DF93EC011B012A01C25ADF4F82E333
:101700008993188219821A821B822F971882198254
:101710001A821B822A9681E090E0A0E0B0E08883E4
:101720009983AA83BB83CA55D0407FE4C72ED12CAE
:10173000CC0EDD1E8FEFF6018083CE010E9447099B
:10174000CE010E94CC026AE0662E712C6C0E7D1ECA
:10175000C3010E947D03CE0148960E943F0355E2DB
:10176000852E912C8C0E9D1EC4010E946D0D42E3AE
:10177000A42EB12CAC0EBD1EC5016DE04BE020E1E6
:101780000FE03EE0E32E0E947C08CE0160E80E945C
:10179000D20281E08EABF6018081882309F479C002
:1017A000C50160E040E024E932E00E948C0641146B
:1017B000510431F0C50160E042E192010E948C06C3
:1017C000C50160E04CE00E94FD07CE01C296B10168
:1017D0000E944B10C50164E444E124E033E00E9420
:1017E0008C06C50167E44FE123E101E00E94FA069F
:1017F000C40166EF71E040E00E946B0C2FE4E22E22
:10180000F12CEC0EFD1E90E5492E512C4C0E5D1E68
:10181000CE010E94BC0A8823D9F3C30165E00E946F
:101820009403882321F0C40160E00E94900CC4015D
:101830000E949F0C882329F0C5016BE44FE124E14D
:1018400004C0C5016BE44FE128E701E00E94FA06FD
:10185000C30164E00E949403882391F4F70160813E
:10186000262F30E040E050E0F20180819181A2819A
:10187000B38182179307A407B50700F16F3FF1F01A
:10188000C40160E00E94780C04C0CE010E94DF0910
:10189000BFCF1EAA81E0888FDF91CF910F91FF907B
:1018A000EF90DF90CF90BF90AF909F908F907F9000
:1018B0006F905F904F903F902F900895C30166E026
:1018C0000E949403882309F4A3CFDFCF40E050E0C7
:1018D0000E94690B0895FC01442349F474836383D7
:1018E00081E083871286118610868093AD03089568
:1018F000FC01662349F413861092B0031092AF03E3
:101900001092AD031092B4000895FC01138610925A
:10191000B0031092AF031092AD031092B40008957B
:10192000FC01772767FD7095828190E08617970705
:101930000CF4BC01862F67FD80E081830895FC01D3
:1019400081810895FC018AE493E09483838381E09C
:1019500083871286118610868093AD030895CF93F6
:10196000DF93EC01F8948B85882309F459C08A85AC
:10197000882309F052C088859985880F991FEB81CB
:10198000FC81E80FF91FA591B491109789F48C851B
:10199000882321F01986188681E041C01B861092A9
:1019A000B0031092AF031092AD031092B40038C090
:1019B000AD0124E0569547952A95E1F7FD01EF2FFB
:1019C000FF27E695E695EE5EFE4F60818A2F8170D7
:1019D0008093B1032D818981289F90011124B695B0
:1019E000A7958A2F877090E0FC012E9FC0012F9F42
:1019F000900D3E9F900D11248093AF038093B00310
:101A00004F738881489F402D11244A876093AE030D
:101A1000888599850196998788878A8581508A87E4
:101A20007894DF91CF9108956091AF03662381F19F
:101A30008091AC038F5F8093AC039091AE038917C4
:101A400038F130E08091AD03882309F431E0309320
:101A5000AD031092AC038091B1038823A9F080916B
:101A6000110123E4829FC0011124895B809311013D
:101A700090E070E00E942F128093B00305C0809127
:101A8000B0038093B40008953323C9F780E0F9CF01
:101A900008951F920F920FB60F9211242F933F9328
:101AA0004F935F936F937F938F939F93AF93BF9366
:101AB000EF93FF930E94140DFF91EF91BF91AF91AF
:101AC0009F918F917F916F915F914F913F912F9156
:101AD0000F900FBE0F901F901895FC0181E080833E
:101AE0008CE0858383E061E070E00E94CC0EE1EB46
:101AF000F0E08081887F81608083F894109280007C
:101B0000E1E8F0E01082109285001092840088E1F4
:101B100091E0909389008093880080818860808321
:101B2000808181608083EFE6F0E080818260808345
:101B3000789408951F920F920FB60F9211242F934D
:101B40003F938F939F93AF93BF938091B6039091F0
:101B5000B703A091B803B091B9033091BA030196CD
:101B6000A11DB11D232F2D5F2D3720F02D5701967C
:101B7000A11DB11D2093BA038093B6039093B703C0
:101B8000A093B803B093B9038091B2039091B303CB
:101B9000A091B403B091B5030196A11DB11D80932E
:101BA000B2039093B303A093B403B093B503BF9172
:101BB000AF919F918F913F912F910F900FBE0F90FA
:101BC0001F9018958FB7F8942091B6033091B70302
:101BD0004091B8035091B9038FBFB901CA0108956C
:101BE0009FB7F8942091B2033091B3034091B403AE
:101BF0005091B50386B5A89B06C08F3F21F02F5F9B
:101C00003F4F4F4F5F4F9FBF542F432F322F2227FD
:101C1000280F311D411D511D82E0220F331F441F2B
:101C2000551F8A95D1F7B901CA0108959B01AC01EE
:101C30007FB7F8948091B2039091B303A091B4035D
:101C4000B091B50366B5A89B05C06F3F19F001962A
:101C5000A11DB11D7FBFBA2FA92F982F8827860FEE
:101C6000911DA11DB11D62E0880F991FAA1FBB1F06
:101C70006A95D1F7BC012DC0FFB7F8948091B203EB
:101C80009091B303A091B403B091B503E6B5A89BBE
:101C900005C0EF3F19F00196A11DB11DFFBFBA2F7E
:101CA000A92F982F88278E0F911DA11DB11DE2E04D
:101CB000880F991FAA1FBB1FEA95D1F7861B970BA8
:101CC000885E9340C8F221503040404050406851F7
:101CD0007C4F211531054105510571F60895789421
:101CE00084B5826084BD84B5816084BD85B5826021
:101CF00085BD85B5816085BDEEE6F0E080818160BF
:101D00008083E1E8F0E010828081826080838081BE
:101D100081608083E0E8F0E0808181608083E1EB96
:101D2000F0E0808184608083E0EBF0E0808181607E
:101D30008083EAE7F0E08081846080838081826034
:101D4000808380818160808380818068808310921D
:101D5000C1000895982F8E3008F09E5097708091A2
:101D600044018295880F880F807C892B80937C00AA
:101D700080917A00806480937A0080917A0086FD59
:101D8000FCCF2091780040917900942F80E030E0E2
:101D9000282B392BC90108951F93CF93DF93182F58
:101DA000EB0161E00E942C0F209709F44AC0CF3F5D
:101DB000D10509F449C0E12FF0E0EC56FC4F8491C5
:101DC0008330C1F0843028F4813051F08230B1F595
:101DD0000CC0863019F1873049F1843079F514C090
:101DE00084B5806884BDC7BD33C084B5806284BDBE
:101DF000C8BD2EC080918000806880938000D09301
:101E00008900C093880024C0809180008062809304
:101E10008000D0938B00C0938A001AC08091B000DC
:101E200080688093B000C093B30012C08091B0006E
:101E300080628093B000C093B4000AC0C038D1055E
:101E40001CF4812F60E002C0812F61E00E946B0FC3
:101E5000DF91CF911F910895CF93DF93482F50E0EA
:101E6000CA0180589C4FFC01349144595C4FFA01DF
:101E70008491882369F190E0880F991FFC01E25B4F
:101E8000FC4FA591B491FC01E85AFC4FC591D49147
:101E9000662351F42FB7F8948C91932F9095892352
:101EA0008C93888189230BC0623061F42FB7F8943A
:101EB0008C91932F909589238C938881832B888391
:101EC0002FBF06C09FB7F8948C91832B8C939FBF34
:101ED000DF91CF910895482F50E0CA018C569C4F56
:101EE000FC012491CA0180589C4FFC0194914459F3
:101EF0005C4FFA013491332309F440C0222351F19D
:101F0000233071F0243028F42130A1F0223011F573
:101F100014C02630B1F02730C1F02430D9F404C009
:101F2000809180008F7703C0809180008F7D8093A7
:101F3000800010C084B58F7702C084B58F7D84BDCA
:101F400009C08091B0008F7703C08091B0008F7D71
:101F50008093B000E32FF0E0EE0FFF1FE85AFC4F34
:101F6000A591B4912FB7F894662321F48C919095A4
:101F7000892302C08C91892B8C932FBF0895682FE1
:101F800070E0CB018C569C4FFC012491CB01805812
:101F90009C4FFC01449164597C4FFB01949199231F
:101FA00019F420E030E03CC0222351F1233071F0DD
:101FB000243028F42130A1F0223011F514C026304D
:101FC000B1F02730C1F02430D9F404C080918000F2
:101FD0008F7703C0809180008F7D8093800010C038
:101FE00084B58F7702C084B58F7D84BD09C0809190
:101FF000B0008F7703C08091B0008F7D8093B000D8
:10200000892F90E0880F991F8E599C4FFC01A59154
:10201000B4918C9120E030E0842311F021E030E095
:10202000C9010895CF93DF930E946F0E0E948F0223
:10203000C0E0D0E00E9404022097E1F30E9400007B
:10204000F9CFCF92DF92EF92FF920F931F93CF932E
:10205000DF937C016B018A01C0E0D0E00FC0D601A4
:102060006D916D01D701ED91FC910190F081E02D12
:10207000C7010995C80FD91F01501040011511055E
:1020800071F7CE01DF91CF911F910F91FF90EF90EB
:10209000DF90CF900895EF92FF920F931F93CF930D
:1020A000DF937C018B01C0E0D0E0F8010F5F1F4F90
:1020B0006491662359F0D701ED91FC910190F08174
:1020C000E02DC7010995C80FD91FEFCFCE01DF91D1
:1020D000CF911F910F91FF90EF900895DC01ED914A
:1020E000FC910190F081E02D09950895EF92FF9207
:1020F0000F931F938C01DC01ED91FC910190F08115
:10210000E02D6DE009957C01D801ED91FC910190E5
:10211000F081E02DC8016AE009959C012E0D3F1D5C
:10212000C9011F910F91FF90EF900895EF92FF92D8
:102130000F931F937C010E944B108C01C7010E94DA
:1021400076109C01200F311FC9011F910F91FF9044
:10215000EF9008952F923F924F925F926F927F92ED
:102160008F929F92AF92BF92CF92DF92EF92FF92A7
:102170000F931F93DF93CF93CDB7DEB73B014C0195
:1021800019012A016D897E898F89988D6A197B09C9
:102190008C099D09621A730A840A950AA4019301A5
:1021A0000E941012E218F30804091509A80197010A
:1021B0000E9478122A0D3B1D4C1D5D1DB901CA01FC
:1021C000CF91DF911F910F91FF90EF90DF90CF9013
:1021D000BF90AF909F908F907F906F905F904F9047
:1021E0003F902F90089598D088F09F5790F0B92F86
:1021F0009927B751A0F0D1F0660F771F881F991F5C
:102200001AF0BA95C9F712C0B13081F09FD0B1E091
:1022100008959CC0672F782F8827B85F39F0B93FA1
:10222000CCF3869577956795B395D9F73EF490955D
:102230008095709561957F4F8F4F9F4F0895E894DB
:1022400009C097FB3EF490958095709561957F4FFE
:102250008F4F9F4F9923A9F0F92F96E9BB279395AC
:10226000F695879577956795B795F111F8CFFAF4BC
:10227000BB0F11F460FF1BC06F5F7F4F8F4F9F4FED
:1022800016C0882311F096E911C0772321F09EE84B
:10229000872F762F05C0662371F096E8862F70E0B1
:1022A00060E02AF09A95660F771F881FDAF7880F8B
:1022B0009695879597F9089597F99F6780E870E05C
:1022C00060E008959FEF80EC089500240A941616AC
:1022D000170618060906089500240A941216130614
:1022E000140605060895092E0394000C11F48823A2
:1022F00052F0BB0F40F4BF2B11F460FF04C06F5FBE
:102300007F4F8F4F9F4F089557FD9058440F551F93
:1023100059F05F3F71F04795880F97FB991F61F067
:102320009F3F79F087950895121613061406551FDE
:10233000F2CF4695F1DF08C0161617061806991F4A
:10234000F1CF86957105610508940895E894BB273F
:1023500066277727CB0197F908950BD0C4CFB5DF57
:1023600028F0BADF18F0952309F0A6CFABCF1124DF
:10237000EECFCADFA0F3959FD1F3950F50E0551F24
:10238000629FF001729FBB27F00DB11D639FAA27CA
:10239000F00DB11DAA1F649F6627B00DA11D661F19
:1023A000829F2227B00DA11D621F739FB00DA11D3A
:1023B000621F839FA00D611D221F749F3327A00DF4
:1023C000611D231F849F600D211D822F762F6A2F90
:1023D00011249F5750408AF0E1F088234AF0EE0F15
:1023E000FF1FBB1F661F771F881F91505040A9F722
:1023F0009E3F510570F060CFAACF5F3FECF3983E4F
:10240000DCF3869577956795B795F795E7959F5F88
:10241000C1F7FE2B880F911D9695879597F9089522
:10242000629FD001739FF001829FE00DF11D649FB8
:10243000E00DF11D929FF00D839FF00D749FF00D44
:10244000659FF00D9927729FB00DE11DF91F639FE5
:10245000B00DE11DF91FBD01CF0111240895AA1B84
:10246000BB1B51E107C0AA1FBB1FA617B70710F07F
:10247000A61BB70B881F991F5A95A9F780959095B1
:10248000BC01CD01089597FB092E07260AD077FDE0
:1024900004D0E5DF06D000201AF4709561957F4FD7
:1024A0000895F6F7909581959F4F0895A1E21A2E11
:1024B000AA1BBB1BFD010DC0AA1FBB1FEE1FFF1FE8
:1024C000A217B307E407F50720F0A21BB30BE40B38
:1024D000F50B661F771F881F991F1A9469F760957F
:1024E0007095809590959B01AC01BD01CF01089539
:1024F00097FB092E05260ED057FD04D0D7DF0AD052
:10250000001C38F450954095309521953F4F4F4F22
:102510005F4F0895F6F790958095709561957F4F80
:102520008F4F9F4F0895EE0FFF1F0590F491E02D00
:062530000994F894FFCFAE
:102536004C4F41444552002A001800010001000694
:102546000001DBCFC3B8AEA49B938A837B746E680D
:10255600625C57524E4A45423E3A3734312E2C2958
:10256600272523211F1D0000000000000000000099
:0E257600000000000100000000BC0721100062
:00000001FF
