:100000000C947E010C94A6010C94A6010C94A601FC
:100010000C94A6010C94A6010C94A6010C94A601C4
:100020000C94A6010C94A6010C94A6010C94640DEA
:100030000C94A6010C94A6010C94A6010C94A601A4
:100040000C94B50D0C94A6010C94A6010C94A60179
:100050000C94A6010C94A6010C94A6010C94A60184
:100060000C94A6010C94A601436F6E74726F6C73AE
:10007000003F213F0A100A1208120E1C0E0C1E0C23
:10008000141A14161F161E131E1E1B1E1E1F1E3FA3
:10009000213F3A2F3A173D173F213F181F02040A0C
:1000A000041F0E04040E1F0A1F0A0E0E1F04110E59
:1000B0002E252E2F2A2E262929021F02081F081559
:1000C0000E04040E150E15151B151B040604040C56
:1000D000040000000017000300031F0A1F16371A50
:1000E0001904130A153A000300000E11110E000A3C
:1000F000040A040E04003000040404001000180474
:10010000030E110E121F1012191611150B07041FE2
:100110001715090E15091905031A150B12150E00EE
:100120000A00003200040A110A0A0A110A04011521
:10013000020E11171E051E1F150A0E110A1F110EA1
:100140001F15111F05010E111D1F041F111F11087E
:10015000100F1F041B1F10101F061F1E040F0E116F
:100160000E1F09060E112E1F051A121509011F0177
:100170001F101F0F180F1F0C1F1B041B031C03193C
:100180001513001F11030418111F00020102202083
:10019000200001020C121E1F120C0C12120C121F56
:1001A0000C1A14041E05242A1E1F021C141D1020E4
:1001B000201D1F0814111F101E041E1E021C0C12ED
:1001C0000C3E0A040C123E1E040214160A020F1200
:1001D0000E101E0E100E1E081E120C1226281E32A5
:1001E0002A26041E21001F00211E040102013F21B6
:1001F0003F1E0010001E3010002E602C602A602868
:1002000060266024602260800000000A4E6F205348
:10021000442063617264206F720A6E6F204C4F41FC
:100220004445522E4845580A0A153A4578697400E3
:100230004C6F6164696E672E2E2E004E4F20424136
:1002400054544552590A0A504C454153450A545595
:10025000524E204F464600564F4C554D45001773A1
:1002600061766500166261636B00157479706500D4
:100270000A0A0A153A6F6B617920163A6564697447
:1002800000596F7520656E74657265640A00001E02
:10029000301E6000001E601E3000001F6000000065
:1002A000000000240027002A00000000002500288C
:1002B000002B000000000023002600290004040495
:1002C00004040404040202020202020303030303FF
:1002D00003010204081020408001020408102001DC
:1002E00002040810200000000700020100000304BF
:1002F00006000000000000000000A80111241FBE3D
:10030000CFEFD8E0DEBFCDBF13E0A0E0B1E0ECE678
:10031000F5E202C005900D92A634B107D9F713E0BB
:10032000A6E4B3E001C01D92AB3BB107E1F712E0D8
:10033000CCEFD2E004C02297FE010E94B012CA3F67
:10034000D107C9F70E942D100C94B4120C94000030
:1003500086E493E00E94460908950F9386E493E0B3
:100360000E94DB0A882309F4C1C080E593E062E0C3
:1003700042E00E948703882391F0809107019091C9
:10038000080120910B0130910C01820F931F909373
:100390000801809307018BE693E00E94BD0C80E585
:1003A00093E060E042E00E948703882391F080910F
:1003B00007019091080120910B0130910C01821BE3
:1003C000930B90930801809307018BE693E00E94C2
:1003D000BD0C80E593E063E042E00E948703882340
:1003E00091F08091090190910A0120910D013091C5
:1003F0000E01820F931F90930A01809309018BE6EF
:1004000093E00E94BD0C80E593E061E042E00E9431
:100410008703882391F08091090190910A0120912E
:100420000D0130910E01821B930B90930A01809372
:1004300009018BE693E00E94BD0C80E593E064E047
:100440000E947D03882321F08BE693E00E94A30C99
:1004500080E593E065E00E947D03882321F08BE630
:1004600093E00E94B00C809107019091080197FFE2
:1004700004C01092080110920701E0910F01F09161
:10048000100180910701909108018E0F9F1F853503
:10049000910544F084E590E08E1B9F0B909308013A
:1004A000809307018091090190910A0197FF04C090
:1004B00010920A01109209018091090190910A019C
:1004C0008E0F9F1FC19744F080E390E08E1B9F0B1F
:1004D00090930A018093090188E793E060910701F6
:1004E000409109012E2F0E2F0E949F040F91089515
:1004F00086E493E068E670E00E94670C0895882324
:1005000019F48CB5806202C08CB58F7D8CBD0895C6
:100510009CB5937F982B9CBD08952CB5382F3370D4
:100520002C7F322B3CBD2DB590E095958795959508
:10053000879581702E7F822B8DBD08958AE061E0C2
:100540000E94860F8AE061E00E94470F8CB58061AF
:100550008CBD8CB580648CBD8DE061E00E94470F3E
:100560008BE061E00E94470F0895FC011282118226
:1005700081E08083089585E070E00E94E70E089591
:100580006F927F928F929F92AF92BF92CF92DF92A3
:10059000EF92FF920F931F93CF93DF93EC0189812A
:1005A0009A818C0124E0000F111F2A95E1F7081BA6
:1005B000190B85E10E94C50EBC01600F711F84E01C
:1005C000769567958A95E1F77A8369838881882390
:1005D00081F12E813F816217730710F4B90106C0C3
:1005E000888599858617970708F4BC0100D000D04C
:1005F00080E090E040E050E0E884F98400E010E022
:10060000AD80BB24CC24DD246C80772488249924FD
:10061000EDB7FEB761827282838294820E94C51018
:100620006B830F900F900F900F9085E070E00E9409
:10063000E70EDF91CF911F910F91FF90EF90DF9028
:10064000CF90BF90AF909F908F907F906F900895C4
:10065000FC018CE39FE09383828384E0818381E0CB
:10066000848710820895CF93DF93EC018C8590E00E
:100670008F719070892B21F584E10E94C50EAA2705
:1006800097FDA095BA2FBC01CD010E943C1126EE2A
:100690003FE34EEC50E40E94C8110E940E117B8390
:1006A0006A8324E02983FE0120E084819581681714
:1006B000790710F4298307C02F5F32962430A9F7F9
:1006C0008C858F5F8C87DF91CF910895FC0188E046
:1006D000808389E0818387E0828386E0838384E06E
:1006E000848382E0858381E1868317821086118668
:1006F0001286138614861586089520E0FC01E60F05
:10070000F11D8781813009F421E0822F0895E62FC1
:10071000F0E0423040F420E0E80FF91F878181507B
:100720008E3F88F40FC0E80FF91F87818F3F11F4C7
:1007300020E009C020E090E0642F70E00E944A129F
:10074000019709F421E0822F08950F931F93CF930F
:10075000DF93EC0110E00FEF888162E00E94470F09
:1007600088810E94DA0F2F81892B19F42F5F2F8344
:1007700007C0222349F02F3F11F41F8201C00F83CD
:10078000888160E00E94470F1F5F2196173021F794
:10079000DF91CF911F910F910895FC01618F628FBE
:1007A0000895FC01618F428F0895FC016435A8F51E
:1007B00047FD33C040338CF5818D942F95959595E9
:1007C0009595772767FD70954770882399F0E4E544
:1007D0009E02F0011124E60FF71FEF5EFE4F81E04D
:1007E00090E002C0880F991F4A95E2F72081282BDC
:1007F00020830895E4E59E02F0011124E60FF71F1F
:10080000EF5EFE4F81E090E002C0880F991F4A958D
:10081000E2F780952081282320830895AF92BF922C
:10082000CF92DF92EF92FF920F931F93CF93DF93BC
:10083000EC01162FF42EE22EAA24402F552747FD57
:1008400050958F2D992787FD9095481B590B57FF81
:1008500003C0509541955F4F2E2D332727FD3095CE
:10086000812F992787FD9095281B390B37FF03C0EF
:10087000309521953F4F2417350744F4AA24A394BB
:100880008F2DF12E182F802F0E2DE82EE11634F427
:100890008E2DE12E182F802F0F2DF82EDE2CD11A41
:1008A000202F332727FD30958F2D992787FD909591
:1008B000281B390B37FF03C0309521953F4FB22ECF
:1008C000F0161CF0CC24CA9402C0CC24C3948D2D05
:1008D000D7FC8F5F082F059511C0AA2021F0CE010B
:1008E0006F2D412F03C0CE01612F4F2D0E94D503E4
:1008F0000B1907FF02C0FC0C0D0D1F5FE1166CF712
:10090000DF91CF911F910F91FF90EF90DF90CF90EB
:10091000BF90AF9008950F93042F322F262F2150B0
:10092000230F0E940E040F9108950F93362F042F6A
:100930000150020F232F0E940E040F9108959F92E1
:10094000AF92BF92CF92DF92EF92FF920F931F93DD
:10095000CF93DF936C01B62E942EA02EC0E0D0E092
:10096000E62EFF24E7FCF094022F112707FD1095D7
:100970000E0D1F1D06C0C601492D2A2D0E9495048B
:1009800021966B2D6C0FCE018E0D9F1D8017910748
:1009900094F3DF91CF911F910F91FF90EF90DF9033
:1009A000CF90BF90AF909F9008952F923F925F920B
:1009B0006F927F928F929F92AF92BF92CF92DF926F
:1009C000EF92FF920F931F93DF93CF9300D000D04D
:1009D00000D0CDB7DEB79E838D83C62ED42EEE24F5
:1009E000E394E21A8EEF289F502C1124842E8A94CF
:1009F000962E9A94A42EA394B62EB394F22E662427
:100A000023E0722E10E0C801847090709A8389836D
:100A1000F801E270F070FC83EB8398E0292E312C12
:100A2000202231220170107054C0E7FC04C0FA94F7
:100A3000F2E05F0EE50C639489819A81892B71F055
:100A40004F2D4D0D8D819E816B2D0E94D5036F2DF5
:100A50006C0D8D819E814A2D0E94D503EB81FC8116
:100A6000EF2B71F04D2D4F198D819E816B2D0E94C2
:100A7000D5036F2D6C0D8D819E81482D0E94D5036D
:100A80002114310471F06C2D6F198D819E814A2DD6
:100A90000E94D5034F2D4D0D8D819E81692D0E94A1
:100AA000D5030115110571F06C2D6F198D819E8193
:100AB000482D0E94D5034D2D4F198D819E81692DA2
:100AC0000E94D503E70CF2E07F0E8A949A94A394D7
:100AD000B3946F140CF4A9CF26960FB6F894DEBF2A
:100AE0000FBECDBFCF91DF911F910F91FF90EF907F
:100AF000DF90CF90BF90AF909F908F907F906F903E
:100B00005F903F902F9008954F925F926F927F92E7
:100B10008F929F92AF92BF92CF92DF92EF92FF920D
:100B20000F931F93CF93DF93EC01A62E742E9E2D6F
:100B3000FF24F394F21A8EEF289F802C1124B42EF8
:100B4000BA9453E0C52ECE0CE22EDD2443E0942E61
:100B500010E031E0432E512C40225122692E639443
:100B60000270107034C0F7FC04C0EA9482E0880E72
:100B7000F80CD3944114510489F06D2D6A0D472D62
:100B80004E192E2D220F260DCE010E9495046E2D9A
:100B90006A0DCE014B2D2C2D0E94950401151105D7
:100BA00089F06A2D6D19472D4E192E2D220F260D15
:100BB000CE010E9495046A2D6E19CE014B2D2C2D6D
:100BC0000E949504F90C82E0980EBA94C80EDE14C7
:100BD00054F2DF91CF911F910F91FF90EF90DF9032
:100BE000CF90BF90AF909F908F907F906F905F90CD
:100BF0004F9008957F928F929F92AF92BF92CF9223
:100C0000DF92EF92FF920F931F936C01962EA42E0A
:100C1000F22E7E2C760E1EEFE19E102D1124812ED9
:100C2000820E672D282D0E948B04B02EBA0CBA9428
:100C3000C601672D4B2D282D0E948B04AE0C100F82
:100C4000C601692D4A2D212F0E949504F90CFA94B2
:100C5000C6016F2D4A2D212F0E949504C601672DD4
:100C60004A2D2E2D01E00E94D504FE18C6016F2DDD
:100C70004A2D2E2D02E00E94D504BE18C6016F2D0C
:100C80004B2D2E2D04E00E94D504C601672D4B2D5F
:100C90002E2D08E00E94D5041F910F91FF90EF9038
:100CA000DF90CF90BF90AF909F908F907F900895EE
:100CB0008F929F92AF92BF92CF92DF92EF92FF926C
:100CC0000F931F936C01162FA42E922EF02EBE2C84
:100CD0008E2C860E2EEFE29EE02C11242E2D290D57
:100CE000682D0E949F04AB0CFA94FE0C1150190D54
:100CF0001B19C601612F4A2D2B2D01E0EF2C0E94FC
:100D00008405C601682D4A2D2B2D02E00E94840522
:100D10001F910F91FF90EF90DF90CF90BF90AF9019
:100D20009F908F9008953F924F925F926F927F9223
:100D30008F929F92AF92BF92CF92DF92EF92FF92EB
:100D40000F931F93CF93DF934C01362E442EE9016E
:100D5000F901A4902196FE01549021978A2D99279C
:100D600087FD9095079668E070E00E945E12C62E9F
:100D7000DD24C7FCD09400E072E0E72EF12C60E89F
:100D8000662E712C26C0E12FE595E595E595FF27A8
:100D9000E7FDF095EE0DFF1DEC0FFD1FE4912E2FEA
:100DA00030E0812F8770A30102C0559547958A9541
:100DB000E2F724233523232B31F0612F630DC40187
:100DC0004B2D0E94D5031F5F1A15ECF20F5FEC0C40
:100DD000FD1C051524F410E0B02EB40CF5CFDF9106
:100DE000CF911F910F91FF90EF90DF90CF90BF9028
:100DF000AF909F908F907F906F905F904F903F90BB
:100E000008952F923F924F925F926F927F928F92AE
:100E10009F92AF92BF92CF92DF92EF92FF920F9389
:100E20001F93DF93CF9300D00F92CDB7DEB79B8394
:100E30008A83562E742E422F102FFC01F18DF983D8
:100E400083E586170CF489C0EFE2E7150CF485C042
:100E5000C02EDD249601220F331F2C0D3D1D862F41
:100E6000992787FD9095820F931F181619060CF08D
:100E700074C0C901880F991F272D332727FD30958E
:100E8000820F931F181619060CF067C083E0489F65
:100E900010011124AA24B4E06B2EF3E0AF1611F474
:100EA00080E009C0EA2DFF27E7FDF095E20DF31D74
:100EB000EF58FF4F8491AC9C902C1124950CBB24CF
:100EC000A6E08A2E4A2C450CE82EFF2480FF16C08F
:100ED000113041F44B2D470D8A819B81642D0E9476
:100EE000D5032CC0BC9C402D1124470D8A819B81C9
:100EF000692D212F012F0E949F0420C0EA81FB81D0
:100F0000928D818D9817D1F0918F113041F44B2D36
:100F1000470D8A819B81642D0E94D5030BC0BC9C28
:100F2000402D1124470D8A819B81692D212F012F8E
:100F30000E949F048981EA81FB81818FB3948A9406
:100F400021F0F594E7948E2DBFCFA3946A9409F015
:100F5000A4CF8981EA81FB81818F0F900F900F9040
:100F6000CF91DF911F910F91FF90EF90DF90CF9085
:100F7000BF90AF909F908F907F906F905F904F90B9
:100F80003F902F9008950F93CF93DF93EC01262F7E
:100F90006A3031F48B8D26E0829FC00111242AC073
:100FA0006D3061F16F89488D0B8D0E9401078B8D2B
:100FB000482F50E0CA01880F991F880F991F2F8969
:100FC000280F2F8B8C8D8823C9F0332727FD309570
:100FD00085E190E0841B950B880F991F880F991F5E
:100FE000821793075CF4CA01880F991F840F951F1D
:100FF000880F991F288D280F288F1F8A81E090E085
:10100000DF91CF910F910895FC01678B408F089578
:10101000FC01662309F461E0638F08951F93CF9369
:10102000DF93EC01162FF894888560E00E94860F0C
:10103000898518161CF460E00E94860F1EBD0DB451
:1010400007FEFDCF8EB5898518161CF461E00E945D
:10105000860F7894DF91CF911F910895FF920F939F
:101060001F93CF93DF93EC01FF2400E010E06F2D7E
:101070006064CE010E940E08CE0160E80E940E0856
:10108000888561E00E94860F898518161CF460E04F
:101090000E94860FF801EF5EFE4F90E080818EBDCA
:1010A0000DB407FEFDCF8EB59F5F31969435B1F735
:1010B000898518161CF461E00E94860FF3940C5A7F
:1010C0001F4F86E0F81699F6CE0160E40E940E08E4
:1010D000DF91CF911F910F91FF900895CF93DF93F0
:1010E000DC0188EF91E0E1E1F1E0EF019C01199270
:1010F00021503040E1F757961C92579758961C9212
:10110000DF91CF910895EF920F93CF93DF93EC018E
:101110004F836E832887EA8609871F8A188E81E0AD
:101120008B8F898F1A8E8C8F1C820E949E0281E089
:101130000E947F0280E00E948D028CE00E94880263
:101140008F8161E00E94470F8E8161E00E94470F0E
:10115000888561E00E94470F8A8518161CF461E0BB
:101160000E94470F898518161CF461E00E94470F02
:101170008A8518166CF460E00E94860F65E070E0C6
:1011800080E090E00E94310E8A8561E00E94860F27
:10119000EE812E2F332727FD3095F901E354FD4FC3
:1011A000E491F0E0EE0FFF1FE755FD4F859194911C
:1011B0009E878D872F523D4FF90184918C8BEF8153
:1011C0002E2F332727FD3095F901E354FD4FE4918D
:1011D000F0E0EE0FFF1FE755FD4F859194919C873E
:1011E0008B872F523D4FF90184918B8BE9852E2FF0
:1011F000332727FD3095F901E354FD4FE491F0E0EA
:10120000EE0FFF1FE755FD4F85919491988B8F87C7
:101210002F523D4FF90184918D8BE8852E2F332776
:1012200027FD3095F901E354FD4FE491F0E0EE0F16
:10123000FF1FE755FD4F859194919A8B898B2F5213
:101240003D4FF90184918E8BCE0161E20E940E0820
:10125000CE0164E10E940E088D8187FF02C08FE7F6
:101260008D836D816068CE010E940E08CE0160E220
:101270000E940E08CE016CE00E940E08CE010E9472
:101280002E08DF91CF910F91EF900895FC0115AAE0
:1012900014AA81E493E093AB82AB0895CF93DF93DC
:1012A000DC01E0E8FFE685919491ED01C15BDF4F41
:1012B0008150904C09F04FC0E6E9FFE6E491D796E3
:1012C000EC93D797E7E9FFE6E4911496EC93149733
:1012D000E8E9FFE6E4911596EC931597E9E9FFE656
:1012E0008591949117969C938E931697EBE9FFE660
:1012F0008591949119969C938E931897EDE9FFE64A
:10130000E4919796EC939797EEE9FFE6E491969631
:10131000EC939697EFE9FFE6E491E883E0EAFFE6D5
:10132000859194915D969C938E935C97E2EAFFE69B
:10133000859194915F969C938E935E97E4EAFFE685
:101340008591949191969C938E939097E6EAFFE60F
:101350008591949134C08CE3D7968C93D79714964B
:101360001C92149780E815968C93159780E293E071
:1013700017969C938E93169784ED93E019969C9301
:101380008E93189783E097968C93979796968C9365
:10139000969788E288838CEA9DE05D969C938E9375
:1013A0005C9780E19EE05F969C938E935E9784E7C6
:1013B0009EE091969C938E9390978CE39FE09396FA
:1013C0009C938E939297DF91CF910895EF92FF9225
:1013D0000F931F93CF93DF937C018C010E5C1F4F03
:1013E000C8010E946E08C80160E372E00E946610A6
:1013F000C8010E942E0880E091E0EEEFFFE309951E
:10140000F70116AAC8016BE072E00E94B110C80192
:101410000E942E08E7012A96CE010E94A503CE0164
:1014200064E00E947D03882339F462E370E080E089
:1014300090E00E94310EF0CFDF91CF911F910F917C
:10144000FF90EF9008950F931F93CF93DF93EC01DC
:101450008C010E5C1F4FC80161E040E00E94D10387
:10146000C80161E540E00E940408698D623038F0EF
:10147000888D882321F06B5FC8010E948910898DB7
:101480008130D1F4C05BDF4F88819981AA81BB8113
:10149000C055D0408F709070A070B0709E012E5CCF
:1014A0003F4F0897A105B10518F4C90167E002C0D4
:1014B000C90168E70E948910898D882329F5CE012A
:1014C00085960E94860CCE0160E00E94BB02C80196
:1014D0000E946E08CE01C2966BE372E00E94661015
:1014E000C8010E942E0883B7817F846083BF83B7C1
:1014F000816083BF83B7816083BF889583B78E7F08
:1015000083BF83B78E7F83BFDF91CF911F910F91F0
:101510000895CF92DF92EF92FF920F931F93CF9394
:10152000DF93EC01CB59DF4F8881C556D04088232B
:10153000C9F18C3010F010E002C01CE0181B52E31F
:10154000C52ED12CCC0EDD1EC60161E00E9408081C
:10155000C60160E00E94CD0347E2F42EF10EC60101
:1015600060E04F2D24E509E033E0E32E0E945806A9
:10157000C60161E00E94CD03C60160E04F2D24E565
:101580000E94FA05175DC60164E0412F0E9404081D
:10159000CD59DF4F69917991C6010E94661088810B
:1015A00081508883DF91CF911F910F91FF90EF9031
:1015B000DF90CF900895AF92BF92CF92DF92EF92DB
:1015C000FF920F931F93CF93DF93EC017FE5A72E3C
:1015D000B12CA80EB91EF501E080F18002811381C3
:1015E0000E94FD0DE61AF70A080B190B6EE5C62ED0
:1015F000D12CCC0EDD1EF601808190E0A0E0B0E0A1
:101600008E159F05A007B10708F075C08E01065A18
:101610001F4FF80180819181A281B3810097A105BC
:10162000B10509F468C00E94FD0DF6012081620F2A
:10163000711D811D911DF5016083718382839383E8
:10164000FE01E05BFF4F80819181A281B381019611
:10165000A11DB11D80839183A283B383F801108201
:101660001182128213820E940B0ECA5ADF4F6883C6
:1016700079838A839B83C655D040CE010E94C002E5
:10168000CE010A960E94A503CE0148960E9433031C
:10169000CE0185960E94CA0C81E022C0CE010E9434
:1016A000890ACE010E94230A8E010E5C1F4FC801D9
:1016B0000E942E088EA9882319F4C8010E946E0882
:1016C0000E940B0EC65ADF4F688379838A839B83FF
:1016D000249728813981621B730B7A936A9380E087
:1016E000DF91CF911F910F91FF90EF90DF90CF90FE
:1016F000BF90AF900895C65ADF4F88819981AA8123
:10170000BB81CA55D0400097A105B10541F7C6CFAE
:101710004F925F926F927F928F929F92AF92BF9201
:10172000CF92DF92EF92FF920F931F93CF93DF93AD
:10173000EC012B016A01C25ADF4F82E389931882C0
:1017400019821A821B822F97188219821A821B8291
:101750002A9681E090E0A0E0B0E088839983AA8394
:10176000BB832B978FEF8883CF54D040CE010E944C
:101770004E09CE010E94B5026AE0662E712C6C0EF5
:101780007D1EC3010E946603CE0148960E94280375
:1017900055E2A52EB12CAC0EBD1EC5010E94880DD0
:1017A00042E3842E912C8C0E9D1EC4016DE04BE013
:1017B00020E10FE03EE0E32E0E948308CE0160E8C6
:1017C0000E94BB0281E08EABC114D10411F400E091
:1017D00009C0F60104910E5FC40160E04CE096017F
:1017E0000E949306C401602F4CE00E940408CE01C1
:1017F000C296B2010E9466108E01015B1F4FF80174
:101800008081882309F449C0C50161EF71E040E09F
:101810000E946C0C780190E5C92ED12CCC0EDD1EF7
:10182000CE010E94DB0A8823D9F3C30165E00E9440
:101830007D03882321F0C50160E00E94910CC30163
:1018400064E00E947D03882391F4F7016081262FD4
:1018500030E040E050E0F60180819181A281B381C7
:1018600082179307A407B50760F16F3F51F1C501D7
:1018700060E00E94790C11C0C40168E44FE128E7E0
:1018800001E00E940107C30166E00E947D038823F6
:1018900039F2CE010E94E609C3CF1EAA81E0888FEB
:1018A000DF91CF911F910F91FF90EF90DF90CF903C
:1018B000BF90AF909F908F907F906F905F904F9070
:1018C0000895C5010E94A00C8823E9F6D5CF40E019
:1018D00050E00E94880B0895FC01442349F474836E
:1018E000638381E083871286118610868093AD031F
:1018F0000895FC01662349F413861092B0031092F8
:10190000AF031092AD031092B4000895FC0113864A
:101910001092B0031092AF031092AD031092B40076
:101920000895FC01772767FD7095828190E0861706
:1019300097070CF4BC01862F67FD80E08183089532
:10194000FC0181810895FC018FE892E094838383F8
:1019500081E083871286118610868093AD030895F7
:10196000FC0185E992E09483838381E0838712867A
:10197000118610868093AD030895FC018BE992E0F7
:101980009483838381E083871286118610868093F7
:10199000AD030895CF93DF93EC01F8948B858823F2
:1019A00009F459C08A85882309F052C08885998531
:1019B000880F991FEB81FC81E80FF91FA591B49165
:1019C000109789F48C85882321F01986188681E088
:1019D00041C01B861092B0031092AF031092AD036A
:1019E0001092B40038C0AD0124E0569547952A9571
:1019F000E1F7FD01EF2FFF27E695E695E65FFC4F47
:101A000060818A2F81708093B1032D818981289F05
:101A100090011124B695A7958A2F877090E0FC015C
:101A20002E9FC0012F9F900D3E9F900D11248093FB
:101A3000AF038093B0034F738881489F402D1124DA
:101A40004A876093AE038885998501969987888730
:101A50008A8581508A877894DF91CF91089560912B
:101A6000AF03662381F18091AC038F5F8093AC0359
:101A70009091AE03891738F130E08091AD0388234F
:101A800009F431E03093AD031092AC038091B103BF
:101A90008823A9F08091090323E4829FC0011124C7
:101AA000895B8093090390E070E00E944A12809362
:101AB000B00305C08091B0038093B4000895332330
:101AC000C9F780E0F9CF08951F920F920FB60F92D9
:101AD00011242F933F934F935F936F937F938F9333
:101AE0009F93AF93BF93EF93FF930E942F0DFF91AE
:101AF000EF91BF91AF919F918F917F916F915F9186
:101B00004F913F912F910F900FBE0F901F901895FE
:101B1000FC0181E080838CE0858383E061E070E0FC
:101B20000E94E70EE1EBF0E08081887F8160808396
:101B3000F89410928000E1E8F0E0108210928500A5
:101B40001092840088E191E090938900809388004E
:101B5000808188608083808181608083EFE6F0E00F
:101B6000808182608083789408951F920F920FB6CF
:101B70000F9211242F933F938F939F93AF93BF9313
:101B80008091B6039091B703A091B803B091B903C7
:101B90003091BA030196A11DB11D232F2D5F2D3762
:101BA00020F02D570196A11DB11D2093BA038093FB
:101BB000B6039093B703A093B803B093B903809191
:101BC000B2039091B303A091B403B091B503019611
:101BD000A11DB11D8093B2039093B303A093B403EE
:101BE000B093B503BF91AF919F918F913F912F918A
:101BF0000F900FBE0F901F9018958FB7F8942091FB
:101C0000B6033091B7034091B8035091B9038FBF29
:101C1000B901CA0108959FB7F8942091B203309199
:101C2000B3034091B4035091B50386B5A89B06C099
:101C30008F3F21F02F5F3F4F4F4F5F4F9FBF542F7C
:101C4000432F322F2227280F311D411D511D82E0C5
:101C5000220F331F441F551F8A95D1F7B901CA01BE
:101C600008959B01AC017FB7F8948091B2039091E5
:101C7000B303A091B403B091B50366B5A89B05C0AA
:101C80006F3F19F00196A11DB11D7FBFBA2FA92F7B
:101C9000982F8827860F911DA11DB11D62E0880F26
:101CA000991FAA1FBB1F6A95D1F7BC012DC0FFB7B2
:101CB000F8948091B2039091B303A091B403B091D2
:101CC000B503E6B5A89B05C0EF3F19F00196A11D2D
:101CD000B11DFFBFBA2FA92F982F88278E0F911DF6
:101CE000A11DB11DE2E0880F991FAA1FBB1FEA9535
:101CF000D1F7861B970B885E9340C8F22150304085
:101D00004040504068517C4F211531054105510537
:101D100071F60895789484B5826084BD84B581603D
:101D200084BD85B5826085BD85B5816085BDEEE6E3
:101D3000F0E0808181608083E1E8F0E010828081C2
:101D400082608083808181608083E0E8F0E0808130
:101D500081608083E1EBF0E0808184608083E0EB50
:101D6000F0E0808181608083EAE7F0E08081846038
:101D70008083808182608083808181608083808194
:101D8000806880831092C1000895982F8E3008F0EB
:101D90009E50977080913C038295880F880F807CBD
:101DA000892B80937C0080917A00806480937A00F4
:101DB00080917A0086FDFCCF2091780040917900D7
:101DC000942F80E030E0282B392BC90108951F9310
:101DD000CF93DF93182FEB0161E00E94470F20970C
:101DE00009F44AC0CF3FD10509F449C0E12FF0E022
:101DF000EB51FD4F84918330C1F0843028F4813061
:101E000051F08230B1F50CC0863019F1873049F1BC
:101E1000843079F514C084B5806884BDC7BD33C0F3
:101E200084B5806284BDC8BD2EC08091800080686A
:101E300080938000D0938900C093880024C0809153
:101E40008000806280938000D0938B00C0938A00D2
:101E50001AC08091B00080688093B000C093B30036
:101E600012C08091B00080628093B000C093B40033
:101E70000AC0C038D1051CF4812F60E002C0812F58
:101E800061E00E94860FDF91CF911F910895CF935B
:101E9000DF93482F50E0CA018F529D4FFC013491CF
:101EA00043545D4FFA018491882369F190E0880FD3
:101EB000991FFC01E156FD4FA591B491FC01E75536
:101EC000FD4FC591D491662351F42FB7F8948C91AE
:101ED000932F909589238C93888189230BC062303E
:101EE00061F42FB7F8948C91932F909589238C935C
:101EF0008881832B88832FBF06C09FB7F8948C916D
:101F0000832B8C939FBFDF91CF910895482F50E092
:101F1000CA018B519D4FFC012491CA018F529D4FE4
:101F2000FC01949143545D4FFA013491332309F439
:101F300040C0222351F1233071F0243028F42130A5
:101F4000A1F0223011F514C02630B1F02730C1F0D5
:101F50002430D9F404C0809180008F7703C0809131
:101F600080008F7D8093800010C084B58F7702C081
:101F700084B58F7D84BD09C08091B0008F7703C088
:101F80008091B0008F7D8093B000E32FF0E0EE0FE2
:101F9000FF1FE755FD4FA591B4912FB7F894662325
:101FA00021F48C919095892302C08C91892B8C937C
:101FB0002FBF0895682F70E0CB018B519D4FFC011E
:101FC0002491CB018F529D4FFC01449163547D4F6E
:101FD000FB019491992319F420E030E03CC02223C6
:101FE00051F1233071F0243028F42130A1F0223057
:101FF00011F514C02630B1F02730C1F02430D9F4E7
:1020000004C0809180008F7703C0809180008F7D15
:102010008093800010C084B58F7702C084B58F7D17
:1020200084BD09C08091B0008F7703C08091B0005B
:102030008F7D8093B000892F90E0880F991F8D5479
:102040009D4FFC01A591B4918C9120E030E0842358
:1020500011F021E030E0C9010895CF93DF930E9491
:102060008A0E0E947802C0E0D0E00E94AD01209765
:10207000E1F30E940000F9CFCF92DF92EF92FF923E
:102080000F931F93CF93DF937C016B018A01C0E014
:10209000D0E00FC0D6016D916D01D701ED91FC919B
:1020A0000190F081E02DC7010995C80FD91F01509B
:1020B00010400115110571F7CE01DF91CF911F91ED
:1020C0000F91FF90EF90DF90CF900895EF92FF92E5
:1020D0000F931F93CF93DF937C018B01C0E0D0E07F
:1020E000F8010F5F1F4F6491662359F0D701ED91FE
:1020F000FC910190F081E02DC7010995C80FD91F0F
:10210000EFCFCE01DF91CF911F910F91FF90EF9014
:102110000895DC01ED91FC910190F081E02D09958D
:102120000895EF92FF920F931F938C01DC01ED91C4
:10213000FC910190F081E02D6DE009957C01D801C2
:10214000ED91FC910190F081E02DC8016AE00995C4
:102150009C012E0D3F1DC9011F910F91FF90EF9023
:102160000895EF92FF920F931F937C010E946610D7
:102170008C01C7010E9491109C01200F311FC901E1
:102180001F910F91FF90EF9008952F923F924F92E1
:102190005F926F927F928F929F92AF92BF92CF92F7
:1021A000DF92EF92FF920F931F93DF93CF93CDB700
:1021B000DEB73B014C0119012A016D897E898F89A7
:1021C000988D6A197B098C099D09621A730A840A21
:1021D000950AA40193010E942B12E218F308040946
:1021E0001509A80197010E9493122A0D3B1D4C1D51
:1021F0005D1DB901CA01CF91DF911F910F91FF9031
:10220000EF90DF90CF90BF90AF909F908F907F9096
:102210006F905F904F903F902F90089598D088F0E6
:102220009F5790F0B92F9927B751A0F0D1F0660FC2
:10223000771F881F991F1AF0BA95C9F712C0B130DD
:1022400081F09FD0B1E008959CC0672F782F882738
:10225000B85F39F0B93FCCF3869577956795B3951C
:10226000D9F73EF490958095709561957F4F8F4F8B
:102270009F4F0895E89409C097FB3EF49095809590
:10228000709561957F4F8F4F9F4F9923A9F0F92F3C
:1022900096E9BB279395F695879577956795B795BA
:1022A000F111F8CFFAF4BB0F11F460FF1BC06F5FA0
:1022B0007F4F8F4F9F4F16C0882311F096E911C0B2
:1022C000772321F09EE8872F762F05C0662371F0D3
:1022D00096E8862F70E060E02AF09A95660F771FE7
:1022E000881FDAF7880F9695879597F9089597F9DB
:1022F0009F6780E870E060E008959FEF80EC0895AC
:1023000000240A94161617061806090608950024D4
:102310000A9412161306140605060895092E03944E
:10232000000C11F4882352F0BB0F40F4BF2B11F4C2
:1023300060FF04C06F5F7F4F8F4F9F4F089557FD21
:102340009058440F551F59F05F3F71F04795880F23
:1023500097FB991F61F09F3F79F0879508951216BA
:1023600013061406551FF2CF4695F1DF08C0161666
:1023700017061806991FF1CF869571056105089417
:102380000895E894BB2766277727CB0197F908952E
:102390000BD0C4CFB5DF28F0BADF18F0952309F0D1
:1023A000A6CFABCF1124EECFCADFA0F3959FD1F318
:1023B000950F50E0551F629FF001729FBB27F00DF3
:1023C000B11D639FAA27F00DB11DAA1F649F662748
:1023D000B00DA11D661F829F2227B00DA11D621F97
:1023E000739FB00DA11D621F839FA00D611D221F51
:1023F000749F3327A00D611D231F849F600D211D35
:10240000822F762F6A2F11249F5750408AF0E1F0D7
:1024100088234AF0EE0FFF1FBB1F661F771F881F20
:1024200091505040A9F79E3F510570F060CFAACF60
:102430005F3FECF3983EDCF3869577956795B7950B
:10244000F795E7959F5FC1F7FE2B880F911D969535
:10245000879597F90895629FD001739FF001829F3D
:10246000E00DF11D649FE00DF11D929FF00D839F23
:10247000F00D749FF00D659FF00D9927729FB00DC0
:10248000E11DF91F639FB00DE11DF91FBD01CF01D3
:1024900011240895AA1BBB1B51E107C0AA1FBB1F33
:1024A000A617B70710F0A61BB70B881F991F5A95E0
:1024B000A9F780959095BC01CD01089597FB092E51
:1024C00007260AD077FD04D0E5DF06D000201AF4F5
:1024D000709561957F4F0895F6F7909581959F4F80
:1024E0000895A1E21A2EAA1BBB1BFD010DC0AA1F55
:1024F000BB1FEE1FFF1FA217B307E407F50720F06D
:10250000A21BB30BE40BF50B661F771F881F991FE7
:102510001A9469F760957095809590959B01AC0130
:10252000BD01CF01089597FB092E05260ED057FD5A
:1025300004D0D7DF0AD0001C38F450954095309570
:1025400021953F4F4F4F5F4F0895F6F79095809537
:10255000709561957F4F8F4F9F4F0895EE0FFF1F2E
:0C2560000590F491E02D0994F894FFCF51
:10256C004C4F41444552002A00180001000100065E
:10257C00000000F0FC0E024341C1C10180E0705C20
:10258C004F7FFC8000C0F03E1FFFE0E0781CFFFF97
:10259C000080FF7F111111110100C0FF3F11193F85
:1025AC00E6C000F8FF07000000F8FF07E0FF1FC0BF
:1025BC00FF3F0E3CF0C0E0FF1F00F8FC06030101DA
:1025CC0083FE7C00000000000103020203030002F2
:1025DC0003010000000003030203010000030300D9
:1025EC0000000303000303020202020202000303C1
:1025FC0002020203010100010302020203010000B6
:10260C0003030003030000000001030300000001AA
:10261C0003020203010000000000000000000000A3
:10262C00000000000000000000000000000000009E
:10263C00000000000000000000000000000000008E
:10264C00000000000000000000000000000000007E
:10265C00000000000000000000000000C02010D0AE
:10266C00901020C000000000C060A060C0000000FE
:10267C00000000000000000000000000000000004E
:10268C00000000000000000000000000000000003E
:10269C00000000000000000000000000000000002E
:1026AC00000000000000000000000000000000001E
:1026BC00070810971311080780000000078C8E8CF8
:1026CC0007000000000000000000000000000000F7
:1026DC0000000000000000000000000000000000EE
:1026EC0000000000000000000000000000000000DE
:1026FC0000000000000000000000000000000000CE
:10270C000000001E1E1E3F7F000C211E403F0000DB
:10271C001F3035311F0000000000000000000000D9
:10272C00000000000000000000000000000000009D
:10273C00000000000000000000000000000000008D
:10274C00000000000000000000000000000000007D
:10275C0000000000000000FE9D858585868484E4D1
:10276C001C0000007CC6D6D67C01DBCFC3B8AEA45F
:10277C009B938A837B746E68625C57524E4A4542C7
:10278C003E3A3734312E2C29272523211F1D0000DA
:10279C00000000000000000000000000010000002C
:0627AC0000C3073C100011
:00000001FF
