:100000000C9479010C94A1010C94A1010C94A10110
:100010000C94A1010C94A1010C94A1010C94A101D8
:100020000C94A1010C94A1010C94A1010C94730FE8
:100030000C94A1010C94A1010C94A1010C94A101B8
:100040000C94C40F0C94A1010C94A1010C94A10177
:100050000C94A1010C94A1010C94A1010C94A10198
:100060000C94A1010C94A10147656E3A00506F7089
:100070003A00436F6E77617927732067616D652061
:100080006F66206C696665003F213F0A100A1208FE
:10009000120E1C0E0C1E0C141A14161F161E131E04
:1000A0001E1B1E1E1F1E3F213F3A2F3A173D173FB2
:1000B000213F181F02040A041F0E04040E1F0A1F0A
:1000C0000A0E0E1F04110E2E252E2F2A2E26292948
:1000D000021F02081F08150E04040E150E15151B2D
:1000E000151B040604040C040000000017000300A4
:1000F000031F0A1F16371A1904130A153A000300C2
:10010000000E11110E000A040A040E04003000044F
:1001100004040010001804030E110E121F1012190F
:100120001611150B07041F1715090E1509190503DC
:100130001A150B12150E000A00003200040A110AEB
:100140000A0A110A040115020E11171E051E1F15B9
:100150000A0E110A1F110E1F15111F05010E111D88
:100160001F041F111F1108100F1F041B1F10101F49
:10017000061F1E040F0E110E1F09060E112E1F055D
:100180001A121509011F011F101F0F180F1F0C1F36
:100190001B041B031C03191513001F110304181162
:1001A0001F000201022020200001020C121E1F125B
:1001B0000C0C12120C121F0C1A14041E05242A1EF9
:1001C0001F021C141D1020201D1F0814111F101EBB
:1001D000041E1E021C0C120C3E0A040C123E1E04CD
:1001E0000214160A020F120E101E0E100E1E081E0A
:1001F000120C1226281E322A26041E21001F00215E
:100200001E040102013F213F1E0010001E3010009D
:100210002E602C602A6028602660246022608000A6
:1002200000000A4E6F2053442063617264206F7295
:100230000A6E6F204C4F414445522E4845580A0AD9
:10024000153A45786974004C6F6164696E672E2EAB
:100250002E004E4F204241545445525900564F4CA7
:10026000554D4500177361766500166261636B003A
:100270001574797065000A0A0A153A6F6B61792066
:10028000163A6564697400596F7520656E746572FD
:1002900065640A000000000000240027002A000016
:1002A000000000250028002B00000000002300268D
:1002B00000290004040404040404040202020202EB
:1002C000020303030303030102040810204080011A
:1002D000020408102001020408102000000007009A
:1002E00002010000030406000000000000000000FE
:1002F000520211241FBECFEFD8E0DEBFCDBF13E006
:10030000A0E0B1E0EEE4FBE202C005900D92AE3455
:10031000B107D9F714E0AEE4B3E001C01D92AB3CE5
:10032000B107E1F712E0C2EFD2E004C02297FE016C
:100330000E946A15C03FD107C9F70E943C120C9475
:10034000A5150C940000A0E0B0E0E9EAF1E00C94FF
:100350007615EC01A880B980CA80DB80A114B104B5
:10036000C104D10441F484E2A82E89EDB82E8BE5B6
:10037000C82E87E0D82EC601B5012DE133EF41E04C
:1003800050E00E944D1527EA31E440E050E00E9421
:10039000E5147B018C01C601B5012DE133EF41E08D
:1003A00050E00E944D15CA01B9012CEE34EF4FEF19
:1003B0005FEF0E94E5146E0D7F1D801F911F97FF58
:1003C00004C06150704080409048688379838A837C
:1003D0009B839B01AC015F77B901CA01CDB7DEB742
:1003E000EAE00C9492150E94A301089586E191E041
:1003F0000E94A301089560931601709317018093E2
:100400001801909319010895E62FE695E695E69573
:1004100090E070E04423B1F0F0E036E0EE0FFF1F13
:100420003A95E1F7E80FF91FEC54FC4F67707070D4
:1004300081E090E002C0880F991F6A95E2F7208161
:10044000282B16C0F0E026E0EE0FFF1F2A95E1F7FB
:10045000E80FF91FEC54FC4F6770707081E090E07A
:1004600002C0880F991F6A95E2F7809520812823A2
:1004700020830895E62FE695E695E695F0E046E0C0
:10048000EE0FFF1F4A95E1F7E80FF11DEC54FC4F0A
:10049000808190E0677002C0959587956A95E2F734
:1004A000817008958EE493E00E94860B0895FF9278
:1004B0000F931F931092B5041092B4041092BA04D3
:1004C0001092B9041092BB0480E893E00E94AE0A37
:1004D00080E893E060E040E022E402E20E94EC0663
:1004E00010E02AC00E94F6016370707080709070F6
:1004F0006115710581059105A9F4812F602F41E0F7
:100500000E940402402F4F5F80E893E06F2D0E940D
:10051000C1058091B4049091B50401969093B504FF
:100520008093B4040F5F0032E9F680E893E00E9404
:100530006E0A1F5F103421F000E0F12EF394D2CF49
:100540001F910F91FF9008959F92AF92BF92CF920B
:10055000DF92EF92FF920F931F93CF93DF938EE47E
:1005600093E00E94110D882309F48DC18091B90494
:100570009091BA0401969093BA048093B904F1E083
:10058000EF2EF12C8FC0CE018150D82E6E96BE0179
:100590006F7170706E97062F892D0E943A0281113B
:1005A00081E0182F8B2D602F0E943A0281111F5F6E
:1005B0008C2D602F0E943A0281111F5F8C2D6D2DB2
:1005C0000E943A0281111F5FBE016F717070062F89
:1005D0008C2D0E943A0281111F5F8B2D602F0E948B
:1005E0003A0281111F5F8A2D602F0E943A02811109
:1005F0001F5F8A2D6D2D0E943A0281111F5F8B2D86
:100600006D2D0E943A028823D1F012501230E0F191
:1006100080E893E060E00E94B90580E893E06E2DE9
:100620004C2F0E94C10580E893E061E040E00E9409
:10063000BD058091B4049091B504019721C0133099
:10064000A1F0123009F580914F0390915003815C25
:100650009340D0F00E94F6016F73707080709070BC
:10066000611571058105910579F480E893E06E2D9F
:100670004C2F0E94C1058091B4049091B50401965D
:100680009093B5048093B4042196C132D10509F04A
:100690007ACF0894E11CF11C81E4E816F10411F40E
:1006A000EE242AC0BE2CBA94C1E0D0E0EEEF9E2E1C
:1006B0009E0C7FE3C72ECE208EE390E0E80EF91E5D
:1006C0006FE3A62EAE2082EC9FEFE80EF91E5BCF03
:1006D000102F012F0F5F80E893E06F2D402F0E94B5
:1006E000FA05482F8E2D612F0E940402003281F7F7
:1006F00090E4F91629F0EF2C10E0FE2CF394E9CFEA
:1007000060919E0370919F038091A0039091A1033B
:1007100026E030E040E050E00E942B1561157105A5
:1007200081059105D9F12091B6043091B7048091EB
:10073000B4049091B5042817390731F58091B804B5
:100740008F5F8093B804853008F180E893E061E022
:1007500040E00E94BD0580E893E066E244E20E942A
:10076000440A80E893E060E071E00E94741380E83E
:1007700093E066E24AE20E94440A80E893E066E081
:1007800071E00E94741302C01092B8048091B40406
:100790009091B5049093B7048093B60480E893E0F9
:1007A00064E440E00E94440A80E893E06DE670E073
:1007B0000E94751280E893E064E446E00E94440AD7
:1007C0006091B4047091B50480E893E04AE050E091
:1007D0000E94631380E893E06DE071E00E9474135F
:1007E00080E893E064E44CE00E94440A80E893E0EF
:1007F00068E670E00E94751280E893E064E442E1EC
:100800000E94440A6091B9047091BA0480E893E0B0
:100810004AE050E00E94631380E893E060E00E94A9
:10082000B90580E893E06091BB0442E22EE00E94AB
:10083000AC0680E893E061E040E00E94BD05609175
:10084000BB046F5F80E893E042E22EE00E94AC06BA
:100850008091B4049091B50455E0969587955A958A
:10086000E1F78F7040E3481B80E893E06091BB04A0
:100870000E94C1058091BB048F5F8093BB048134CB
:1008800010F01092BB04DF91CF911F910F91FF9058
:10089000EF90DF90CF90BF90AF909F900895EF9230
:1008A000FF920F931F938EE493E062E770E00E9443
:1008B0009D0E1092660381E08093840385E10E947F
:1008C000D4107C0185E10E94D4108C0185E10E9446
:1008D000D4100E9D90010F9D300D1E9D300D1124E2
:1008E000820F931F0E94C0130E9457021F910F9105
:1008F000FF90EF900895882319F48CB5806202C0B0
:100900008CB58F7D8CBD08959CB5937F982B9CBD35
:1009100008952CB5382F33702C7F322B3CBD2DB56C
:1009200090E0959587959595879581702E7F822B80
:100930008DBD08958AE061E00E9495118AE061E032
:100940000E9456118CB580618CBD8CB580648CBDC5
:100950008DE061E00E9456118BE061E00E9456112B
:100960000895FC011282118281E08083089585E060
:1009700070E00E94F61008956F927F928F929F927E
:10098000AF92BF92CF92DF92EF92FF920F931F939D
:10099000CF93DF93EC0189819A818C0124E0000FD1
:1009A000111F2A95E1F7081B190B85E10E94D4104D
:1009B000BC01600F711F84E0769567958A95E1F719
:1009C0007A8369838881882381F12E813F81621730
:1009D000730710F4B90106C08885998586179707B3
:1009E00008F4BC0100D000D080E090E040E050E08E
:1009F000E884F98400E010E0AD80BB24CC24DD2441
:100A00006C80772488249924EDB7FEB761827282C6
:100A1000838294820E9477136B830F900F900F90C4
:100A20000F9085E070E00E94F610DF91CF911F914A
:100A30000F91FF90EF90DF90CF90BF90AF909F907D
:100A40008F907F906F900895FC018CE39FE09383DB
:100A5000828384E0818381E0848710820895CF932C
:100A6000DF93EC018C8590E08F719070892B21F5DC
:100A700084E10E94D410AA2797FDA095BA2FBC014B
:100A8000CD010E94F61326EE3FE34EEC50E40E94A7
:100A900082140E94C8137B836A8324E02983FE01A9
:100AA00020E0848195816817790710F4298307C0B5
:100AB0002F5F32962430A9F78C858F5F8C87DF916A
:100AC000CF91089520E0FC01E60FF11D8781813070
:100AD00009F421E0822F08950F931F93CF93DF93A2
:100AE000EC0110E00FEF88810E94E9112F81892B22
:100AF00019F42F5F2F8307C0222329F02F3F11F411
:100B00001F8201C00F831F5F2196173061F7DF91AD
:100B1000CF911F910F9108950F931F93CF93DF9360
:100B2000EC0188E0888389E0898387E08A8386E016
:100B30008B8384E08C8382E08D8381E18E831F82AE
:100B4000188619861A861B861C861D8600E010E012
:100B5000FE01E00FF11F808162E00E9456110F5FDD
:100B60001F4F07301105A1F7DF91CF911F910F9112
:100B70000895FC01618F628F0895FC01618F428F9F
:100B80000895FC016435A8F547FD33C040338CF56A
:100B9000818D942F959595959595772767FD7095FF
:100BA0004770882399F0E4E59E02F0011124E60FD6
:100BB000F71FE65EFE4F81E090E002C0880F991FAC
:100BC0004A95E2F72081282B20830895E4E59E02D0
:100BD000F0011124E60FF71FE65EFE4F81E090E082
:100BE00002C0880F991F4A95E2F78095208128233B
:100BF00020830895742F643530F547FD24C04033B9
:100C000014F5842F859585958595992787FD909571
:100C1000462F552747FD509524E530E0829FF0018F
:100C2000839FF00D929FF00D1124E40FF51FE65EF7
:100C3000FE4F808190E0777002C0959587957A95F8
:100C4000E2F78170089580E00895AF92BF92CF924D
:100C5000DF92EF92FF920F931F93CF93DF93EC01FC
:100C6000162FF42EE22EAA24402F552747FD50952B
:100C70008F2D992787FD9095481B590B57FF03C06F
:100C8000509541955F4F2E2D332727FD3095812FAD
:100C9000992787FD9095281B390B37FF03C03095A6
:100CA00021953F4F2417350744F4AA24A3948F2D90
:100CB000F12E182F802F0E2DE82EE11634F48E2DF4
:100CC000E12E182F802F0F2DF82EDE2CD11A202F79
:100CD000332727FD30958F2D992787FD9095281B69
:100CE000390B37FF03C0309521953F4FB22EF016D8
:100CF0001CF0CC24CA9402C0CC24C3948D2DD7FC04
:100D00008F5F082F059511C0AA2021F0CE016F2D0D
:100D1000412F03C0CE01612F4F2D0E94C1050B1939
:100D200007FF02C0FC0C0D0D1F5FE1166CF7DF9191
:100D3000CF911F910F91FF90EF90DF90CF90BF90D8
:100D4000AF9008950F93042F322F262F2150230F99
:100D50000E9425060F9108950F93362F042F0150FE
:100D6000020F232F0E9425060F9108959F92AF92A4
:100D7000BF92CF92DF92EF92FF920F931F93CF9388
:100D8000DF936C01B62E942EA02EC0E0D0E0E62EAC
:100D9000FF24E7FCF094022F112707FD10950E0D9C
:100DA0001F1D06C0C601492D2A2D0E94AC062196A2
:100DB0006B2D6C0FCE018E0D9F1D8017910794F344
:100DC000DF91CF911F910F91FF90EF90DF90CF9027
:100DD000BF90AF909F900895CF92DF92EF92FF92D5
:100DE0000F931F937C01162FD42EC22E0E94A206B1
:100DF0004D2D4150400FC701612F2C2D0E94A2069E
:100E0000C701612F4D2D202F0E94AC0611501C0DE3
:100E1000C701612F4D2D202F0E94AC061F910F910D
:100E2000FF90EF90DF90CF9008952F923F925F92C6
:100E30006F927F928F929F92AF92BF92CF92DF92EA
:100E4000EF92FF920F931F93DF93CF9300D000D0C8
:100E500000D0CDB7DEB79E838D83C62ED42EEE2470
:100E6000E394E21A8EEF289F502C1124842E8A944A
:100E7000962E9A94A42EA394B62EB394F22E6624A2
:100E800023E0722E10E0C801847090709A838983E9
:100E9000F801E270F070FC83EB8398E0292E312C8E
:100EA000202231220170107054C0E7FC04C0FA9473
:100EB000F2E05F0EE50C639489819A81892B71F0D1
:100EC0004F2D4D0D8D819E816B2D0E94C1056F2D83
:100ED0006C0D8D819E814A2D0E94C105EB81FC81A4
:100EE000EF2B71F04D2D4F198D819E816B2D0E943E
:100EF000C1056F2D6C0D8D819E81482D0E94C1050D
:100F00002114310471F06C2D6F198D819E814A2D51
:100F10000E94C1054F2D4D0D8D819E81692D0E942E
:100F2000C1050115110571F06C2D6F198D819E8120
:100F3000482D0E94C1054D2D4F198D819E81692D2F
:100F40000E94C105E70CF2E07F0E8A949A94A39464
:100F5000B3946F140CF4A9CF26960FB6F894DEBFA5
:100F60000FBECDBFCF91DF911F910F91FF90EF90FA
:100F7000DF90CF90BF90AF909F908F907F906F90B9
:100F80005F903F902F9008954F925F926F927F9263
:100F90008F929F92AF92BF92CF92DF92EF92FF9289
:100FA0000F931F93CF93DF93EC01A62E742E9E2DEB
:100FB000FF24F394F21A8EEF289F802C1124B42E74
:100FC000BA9453E0C52ECE0CE22EDD2443E0942EDD
:100FD00010E031E0432E512C40225122692E6394BF
:100FE0000270107034C0F7FC04C0EA9482E0880EEE
:100FF000F80CD3944114510489F06D2D6A0D472DDE
:101000004E192E2D220F260DCE010E94AC066E2DFC
:101010006A0DCE014B2D2C2D0E94AC060115110539
:1010200089F06A2D6D19472D4E192E2D220F260D90
:10103000CE010E94AC066A2D6E19CE014B2D2C2DCF
:101040000E94AC06F90C82E0980EBA94C80EDE1429
:1010500054F2DF91CF911F910F91FF90EF90DF90AD
:10106000CF90BF90AF909F908F907F906F905F9048
:101070004F9008957F928F929F92AF92BF92CF929E
:10108000DF92EF92FF920F931F936C01962EA42E86
:10109000F22E7E2C760E1EEFE19E102D1124812E55
:1010A000820E672D282D0E94A206B02EBA0CBA948B
:1010B000C601672D4B2D282D0E94A206AE0C100FE5
:1010C000C601692D4A2D212F0E94AC06F90CFA9415
:1010D000C6016F2D4A2D212F0E94AC06C601672D37
:1010E0004A2D2E2D01E00E941507FE18C6016F2D16
:1010F0004A2D2E2D02E00E941507BE18C6016F2D45
:101100004B2D2E2D04E00E941507C601672D4B2D97
:101110002E2D08E00E9415071F910F91FF90EF9070
:10112000DF90CF90BF90AF909F908F907F90089569
:101130008F929F92AF92BF92CF92DF92EF92FF92E7
:101140000F931F936C01162FA42E922EF02EBE2CFF
:101150008E2C860E2EEFE29EE02C11242E2D290DD2
:10116000682D0E94B606AB0CFA94FE0C1150190DB6
:101170001B19C601612F4A2D2B2D01E0EF2C0E9477
:10118000C407C601682D4A2D2B2D02E00E94C4071A
:101190001F910F91FF90EF90DF90CF90BF90AF9095
:1011A0009F908F9008953F924F925F926F927F929F
:1011B0008F929F92AF92BF92CF92DF92EF92FF9267
:1011C0000F931F93CF93DF934C01362E442EE901EA
:1011D000F901A4902196FE01549021978A2D992718
:1011E00087FD9095079668E070E00E941815C62E5E
:1011F000DD24C7FCD09400E072E0E72EF12C60E81B
:10120000662E712C26C0E12FE595E595E595FF2723
:10121000E7FDF095EE0DFF1DEC0FFD1FE4912E2F65
:1012200030E0812F8770A30102C0559547958A95BC
:10123000E2F724233523232B31F0612F630DC40102
:101240004B2D0E94C1051F5F1A15ECF20F5FEC0CCD
:10125000FD1C051524F410E0B02EB40CF5CFDF9181
:10126000CF911F910F91FF90EF90DF90CF90BF90A3
:10127000AF909F908F907F906F905F904F903F9036
:1012800008952F923F924F925F926F927F928F922A
:101290009F92AF92BF92CF92DF92EF92FF920F9305
:1012A0001F93DF93CF9300D00F92CDB7DEB79B8310
:1012B0008A83562E742E422F102FFC01F18DF98354
:1012C00083E586170CF489C0EFE2E7150CF485C0BE
:1012D000C02EDD249601220F331F2C0D3D1D862FBD
:1012E000992787FD9095820F931F181619060CF009
:1012F00074C0C901880F991F272D332727FD30950A
:10130000820F931F181619060CF067C083E0489FE0
:1013100010011124AA24B4E06B2EF3E0AF1611F4EF
:1013200080E009C0EA2DFF27E7FDF095E20DF31DEF
:10133000E857FF4F8491AC9C902C1124950CBB2452
:10134000A6E08A2E4A2C450CE82EFF2480FF16C00A
:10135000113041F44B2D470D8A819B81642D0E94F1
:10136000C1052CC0BC9C402D1124470D8A819B8156
:10137000692D212F012F0E94B60620C0EA81FB8132
:10138000928D818D9817D1F0918F113041F44B2DB2
:10139000470D8A819B81642D0E94C1050BC0BC9CB6
:1013A000402D1124470D8A819B81692D212F012F0A
:1013B0000E94B6068981EA81FB81818FB3948A9469
:1013C00021F0F594E7948E2DBFCFA3946A9409F091
:1013D000A4CF8981EA81FB81818F0F900F900F90BC
:1013E000CF91DF911F910F91FF90EF90DF90CF9001
:1013F000BF90AF909F908F907F906F905F904F9035
:101400003F902F9008950F93CF93DF93EC01262FF9
:101410006A3031F48B8D26E0829FC00111242AC0EE
:101420006D3061F16F89488D0B8D0E9441098B8D64
:10143000482F50E0CA01880F991F880F991F2F89E4
:10144000280F2F8B8C8D8823C9F0332727FD3095EB
:1014500085E190E0841B950B880F991F880F991FD9
:10146000821793075CF4CA01880F991F840F951F98
:10147000880F991F288D280F288F1F8A81E090E000
:10148000DF91CF910F910895FC01678B408F0895F4
:10149000FC01662309F461E0638F08951F93CF93E5
:1014A000DF93EC01162FF894888560E00E94951177
:1014B000898518161CF460E00E9495111EBD0DB4BC
:1014C00007FEFDCF8EB5898518161CF461E00E94D9
:1014D00095117894DF91CF911F910895FF920F930A
:1014E0001F93CF93DF93EC01FF2400E010E06F2DFA
:1014F0006064CE010E944E0ACE0160E80E944E0A4E
:10150000888561E00E949511898518161CF460E0B9
:101510000E949511F801E65EFE4F90E080818EBD3D
:101520000DB407FEFDCF8EB59F5F31969435B1F7B0
:10153000898518161CF461E00E949511F3940C5AE9
:101540001F4F86E0F81699F6CE0160E40E944E0A1D
:10155000DF91CF911F910F91FF900895CF93DF936B
:10156000DC0188EF91E0EAE1F1E0EF019C011992E2
:1015700021503040E1F757961C92579758961C928D
:10158000DF91CF910895EF920F93CF93DF93EC010A
:101590004F836E832887EA8609871F8A188E81E029
:1015A0008B8F898F1A8E8C8F1C820E949A0481E007
:1015B0000E947B0480E00E9489048CE00E948404E5
:1015C0008F8161E00E9456118E8161E00E94561168
:1015D000888561E00E9456118A8518161CF461E026
:1015E0000E945611898518161CF461E00E9456115C
:1015F0008A8518166CF460E00E94951165E070E031
:1016000080E090E00E9440108A8561E00E94951180
:10161000EE812E2F332727FD3095F901ED54FD4F34
:10162000E491F0E0EE0FFF1FE156FD4F859194919C
:101630009E878D8729533D4FF90184918C8BEF81D3
:101640002E2F332727FD3095F901ED54FD4FE491FE
:10165000F0E0EE0FFF1FE156FD4F859194919C87BE
:101660008B8729533D4FF90184918B8BE9852E2F70
:10167000332727FD3095F901ED54FD4FE491F0E05B
:10168000EE0FFF1FE156FD4F85919491988B8F8748
:1016900029533D4FF90184918D8BE8852E2F3327F7
:1016A00027FD3095F901ED54FD4FE491F0E0EE0F88
:1016B000FF1FE156FD4F859194919A8B898B295399
:1016C0003D4FF90184918E8BCE0161E20E944E0A5A
:1016D000CE0164E10E944E0A8D8187FF02C08FE730
:1016E0008D836D816068CE010E944E0ACE0160E25A
:1016F0000E944E0ACE016CE00E944E0ACE010E946A
:101700006E0ADF91CF910F91EF900895FC0115AA19
:1017100014AA8AE493E093AB82AB0895CF93DF934E
:10172000DC01E0E8FFE685919491ED01C15BDF4FBC
:101730008150904C09F04FC0E6E9FFE6E491D7965E
:10174000EC93D797E7E9FFE6E4911496EC931497AE
:10175000E8E9FFE6E4911596EC931597E9E9FFE6D1
:101760008591949117969C938E931697EBE9FFE6DB
:101770008591949119969C938E931897EDE9FFE6C5
:10178000E4919796EC939797EEE9FFE6E4919696AD
:10179000EC939697EFE9FFE6E491E883E0EAFFE651
:1017A000859194915D969C938E935C97E2EAFFE617
:1017B000859194915F969C938E935E97E4EAFFE601
:1017C0008591949191969C938E939097E6EAFFE68B
:1017D0008591949134C08CE3D7968C93D7971496C7
:1017E0001C92149780E815968C93159780E293E0ED
:1017F00017969C938E93169784ED93E019969C937D
:101800008E93189783E097968C93979796968C93E0
:10181000969788E288838CEA9DE05D969C938E93F0
:101820005C9780E19EE05F969C938E935E9784E741
:101830009EE091969C938E9390978CE39FE0939675
:101840009C938E939297DF91CF910895EF92FF92A0
:101850000F931F93CF93DF937C018C010E5C1F4F7E
:10186000C8010E94AE0AC80167E472E00E947512C6
:10187000C8010E946E0A8FE091E0EEEFFFE3099548
:10188000F70116AAC80162E272E00E94C012C80104
:101890000E946E0AE7012A96CE010E946C05CE01D5
:1018A00064E00E946205882339F462E370E080E01E
:1018B00090E00E944010F0CFDF91CF911F910F91E7
:1018C000FF90EF9008950F931F93CF93DF93EC0158
:1018D0008C010E5C1F4FC80161E040E00E94BD0515
:1018E000C80161E540E00E94440A698D623038F029
:1018F000888D882321F06B5FC8010E949812898D22
:101900008130D1F4C05BDF4F88819981AA81BB818E
:10191000C055D0408F709070A070B0709E012E5C4A
:101920003F4F0897A105B10518F4C90167E002C04F
:10193000C90168E70E949812898D8823D9F4CE01E5
:1019400085960E94BC0ECE0160E00E94B704C801DB
:101950000E94AE0ACE01C29662E572E00E94751244
:10196000C8010E946E0A83B7817F846083BF83B7FA
:10197000816083BFDF91CF911F910F910895CF9226
:10198000DF92EF92FF920F931F93CF93DF93EC01BF
:10199000CB59DF4F8881C556D0408823C9F18C30A0
:1019A00010F010E002C01CE0181B52E3C52ED12C31
:1019B000CC0EDD1EC60161E00E94480AC60160E04F
:1019C0000E94B90547E2F42EF10EC60160E04F2DEA
:1019D00024E509E033E0E32E0E949808C60161E0A7
:1019E0000E94B905C60160E04F2D24E50E943A0827
:1019F000175DC60164E0412F0E94440ACD59DF4FB4
:101A000069917991C6010E947512888181508883FD
:101A1000DF91CF911F910F91FF90EF90DF90CF90CA
:101A20000895AF92BF92CF92DF92EF92FF920F9301
:101A30001F93CF93DF93EC017FE5A72EB12CA80E67
:101A4000B91EF501E080F180028113810E940C1023
:101A5000E61AF70A080B190B6EE5C62ED12CCC0E30
:101A6000DD1EF601808190E0A0E0B0E08E159F05BC
:101A7000A007B10708F075C08E01065A1F4FF80184
:101A800080819181A281B3810097A105B10509F4FC
:101A900068C00E940C10F6012081620F711D811D2B
:101AA000911DF5016083718382839383FE01E05B66
:101AB000FF4F80819181A281B3810196A11DB11D4B
:101AC00080839183A283B383F801108211821282F2
:101AD00013820E941A10CA5ADF4F688379838A835F
:101AE0009B83C655D040CE010E94BC04CE010A960D
:101AF0000E946C05CE0148960E942F05CE01859666
:101B00000E94D90E81E022C0CE010E94BF0CCE01FE
:101B10000E94630C8E010E5C1F4FC8010E946E0A6A
:101B20008EA9882319F4C8010E94AE0A0E941A10D7
:101B3000C65ADF4F688379838A839B8324972881E1
:101B40003981621B730B7A936A9380E0DF91CF91A6
:101B50001F910F91FF90EF90DF90CF90BF90AF90CB
:101B60000895C65ADF4F88819981AA81BB81CA55E1
:101B7000D0400097A105B10541F7C6CF4F925F92C3
:101B80006F927F928F929F92AF92BF92CF92DF928D
:101B9000EF92FF920F931F93CF93DF93EC012B01F2
:101BA0006A01C25ADF4F82E38993188219821A822E
:101BB0001B822F97188219821A821B822A9681E033
:101BC00090E0A0E0B0E088839983AA83BB832B9741
:101BD0008FEF8883CF54D040CE010E948E0BCE0170
:101BE0000E94B1046AE0662E712C6C0E7D1EC3014A
:101BF0000E948C05CE0148960E94240555E2A52E30
:101C0000B12CAC0EBD1EC5010E94970F42E3842E7D
:101C1000912C8C0E9D1EC4016DE04BE020E10FE085
:101C20003EE0E32E0E94C30ACE0160E80E94B704A2
:101C300081E08EABC114D10411F400E009C0F601BB
:101C400004910E5FC40160E04CE096010E94D3084D
:101C5000C401602F4CE00E94440ACE01C296B2013A
:101C60000E9475128E01015B1F4FF801808188234D
:101C700009F449C0C50168E072E040E00E94A20E8C
:101C8000780190E5C92ED12CCC0EDD1ECE010E942C
:101C9000110D8823D9F3C30165E00E9462058823F2
:101CA00021F0C50160E00E94C70EC30164E00E94FC
:101CB0006205882391F4F7016081262F30E040E02F
:101CC00050E0F60180819181A281B3818217930750
:101CD000A407B50760F16F3F51F1C50160E00E94B4
:101CE000AF0E11C0C40168E44FE128E701E00E9493
:101CF0004109C30166E00E946205882339F2CE01E2
:101D00000E94260CC3CF1EAA81E0888FDF91CF915D
:101D10001F910F91FF90EF90DF90CF90BF90AF9009
:101D20009F908F907F906F905F904F900895C50126
:101D30000E94D60E8823E9F6D5CF40E050E00E94FD
:101D4000BE0D0895FC01442349F47483638381E04C
:101D500083871286118610868093BD040895FC0146
:101D6000662349F413861092C0041092BF041092A7
:101D7000BD041092B4000895FC0113861092C004B3
:101D80001092BF041092BD041092B4000895FC019B
:101D9000772767FD7095828190E0861797070CF48E
:101DA000BC01862F67FD80E081830895FC0181815D
:101DB0000895CF93DF93EC01F8948B85882309F481
:101DC00059C08A85882309F052C088859985880F73
:101DD000991FEB81FC81E80FF91FA591B491109731
:101DE00089F48C85882321F01986188681E041C00A
:101DF0001B861092C0041092BF041092BD04109272
:101E0000B40038C0AD0124E0569547952A95E1F716
:101E1000FD01EF2FFF27E695E695ED5EFC4F608113
:101E20008A2F81708093C1042D818981289F900120
:101E30001124B695A7958A2F877090E0FC012E9FFC
:101E4000C0012F9F900D3E9F900D11248093BF04E1
:101E50008093C0044F738881489F402D11244A8786
:101E60006093BE04888599850196998788878A85BD
:101E700081508A877894DF91CF9108956091BF0453
:101E8000662381F18091BC048F5F8093BC049091A4
:101E9000BE04891738F130E08091BD04882309F42D
:101EA00031E03093BD041092BC048091C1048823BA
:101EB000A9F08091120323E4829FC0011124895B61
:101EC0008093120390E070E00E9404158093C00498
:101ED00005C08091C0048093B40008953323C9F7EE
:101EE00080E0F9CF08951F920F920FB60F92112440
:101EF0002F933F934F935F936F937F938F939F9312
:101F0000AF93BF93EF93FF930E943E0FFF91EF912A
:101F1000BF91AF919F918F917F916F915F914F9101
:101F20003F912F910F900FBE0F901F901895FC01BD
:101F300081E080838CE0858383E061E070E00E9433
:101F4000F610E1EBF0E08081887F81608083F89477
:101F500010928000E1E8F0E010821092850010926B
:101F6000840088E191E090938900809388008081CB
:101F700088608083808181608083EFE6F0E08081EB
:101F800082608083789408951F920F920FB60F920B
:101F900011242F933F938F939F93AF93BF9380917F
:101FA000C6049091C704A091C804B091C9043091AF
:101FB000CA040196A11DB11D232F2D5F2D3720F0DE
:101FC0002D570196A11DB11D2093CA048093C6040C
:101FD0009093C704A093C804B093C9048091C2042D
:101FE0009091C304A091C404B091C5040196A11DB1
:101FF000B11D8093C2049093C304A093C404B09312
:10200000C504BF91AF919F918F913F912F910F90F8
:102010000FBE0F901F9018958FB7F8942091C604AB
:102020003091C7044091C8045091C9048FBFB901D1
:10203000CA0108959FB7F8942091C2043091C30457
:102040004091C4045091C50486B5A89B06C08F3F3B
:1020500021F02F5F3F4F4F4F5F4F9FBF542F432FB4
:10206000322F2227280F311D411D511D82E0220FE2
:10207000331F441F551F8A95D1F7B901CA0108952E
:102080009B01AC017FB7F8948091C2049091C30486
:10209000A091C404B091C50466B5A89B05C06F3F6C
:1020A00019F00196A11DB11D7FBFBA2FA92F982F3E
:1020B0008827860F911DA11DB11D62E0880F991F11
:1020C000AA1FBB1F6A95D1F7BC012DC0FFB7F894BA
:1020D0008091C2049091C304A091C404B091C5043E
:1020E000E6B5A89B05C0EF3F19F00196A11DB11DF3
:1020F000FFBFBA2FA92F982F88278E0F911DA11DE2
:10210000B11DE2E0880F991FAA1FBB1FEA95D1F706
:10211000861B970B885E9340C8F2215030404040A8
:10212000504068517C4F211531054105510571F62C
:102130000895789484B5826084BD84B5816084BD3F
:1021400085B5826085BD85B5816085BDEEE6F0E030
:10215000808181608083E1E8F0E01082808182608C
:102160008083808181608083E0E8F0E0808181600D
:102170008083E1EBF0E0808184608083E0EBF0E03D
:10218000808181608083EAE7F0E0808184608083E1
:10219000808182608083808181608083808180688B
:1021A00080831092C1000895982F8E3008F09E50C1
:1021B0009770809145038295880F880F807C892BCA
:1021C00080937C0080917A00806480937A00809173
:1021D0007A0086FDFCCF2091780040917900942F01
:1021E00080E030E0282B392BC90108951F93CF934D
:1021F000DF93182FEB0161E00E945611209709F43C
:102200004AC0CF3FD10509F449C0E12FF0E0E552C3
:10221000FD4F84918330C1F0843028F4813051F037
:102220008230B1F50CC0863019F1873049F1843025
:1022300079F514C084B5806884BDC7BD33C084B54A
:10224000806284BDC8BD2EC080918000806880936C
:102250008000D0938900C093880024C080918000C2
:10226000806280938000D0938B00C0938A001AC054
:102270008091B00080688093B000C093B30012C01A
:102280008091B00080628093B000C093B4000AC017
:10229000C038D1051CF4812F60E002C0812F61E0BD
:1022A0000E949511DF91CF911F910895CF93DF93F5
:1022B000482F50E0CA0189539D4FFC0134914D5481
:1022C0005D4FFA018491882369F190E0880F991F8E
:1022D000FC01EB56FD4FA591B491FC01E156FD4F79
:1022E000C591D491662351F42FB7F8948C91932F14
:1022F000909589238C93888189230BC0623061F487
:102300002FB7F8948C91932F909589238C93888183
:10231000832B88832FBF06C09FB7F8948C91832BA3
:102320008C939FBFDF91CF910895482F50E0CA0151
:1023300085529D4FFC012491CA0189539D4FFC0198
:1023400094914D545D4FFA013491332309F440C008
:10235000222351F1233071F0243028F42130A1F0F0
:10236000223011F514C02630B1F02730C1F02430EE
:10237000D9F404C0809180008F7703C080918000E1
:102380008F7D8093800010C084B58F7702C084B5A4
:102390008F7D84BD09C08091B0008F7703C080918C
:1023A000B0008F7D8093B000E32FF0E0EE0FFF1FB1
:1023B000E156FD4FA591B4912FB7F894662321F40F
:1023C0008C919095892302C08C91892B8C932FBF7F
:1023D0000895682F70E0CB0185529D4FFC01249138
:1023E000CB0189539D4FFC0144916D547D4FFB01FE
:1023F0009491992319F420E030E03CC0222351F15C
:10240000233071F0243028F42130A1F0223011F56E
:1024100014C02630B1F02730C1F02430D9F404C004
:10242000809180008F7703C0809180008F7D8093A2
:10243000800010C084B58F7702C084B58F7D84BDC5
:1024400009C08091B0008F7703C08091B0008F7D6C
:102450008093B000892F90E0880F991F87559D4F7A
:10246000FC01A591B4918C9120E030E0842311F01F
:1024700021E030E0C9010895CF93DF930E949910C5
:102480000E944F04C0E0D0E00E94A4022097E1F334
:102490000E940000F9CFCF92DF92EF92FF920F934C
:1024A0001F93CF93DF937C016B018A01C0E0D0E0E2
:1024B0000FC0D6016D916D01D701ED91FC91019096
:1024C000F081E02DC7010995C80FD91F01501040B8
:1024D0000115110571F7CE01DF91CF911F910F9179
:1024E000FF90EF90DF90CF900895EF92FF920F93BF
:1024F0001F93CF93DF937C018B01C0E0D0E0F80104
:102500000F5F1F4F6491662359F0D701ED91FC9145
:102510000190F081E02DC7010995C80FD91FEFCFB9
:10252000CE01DF91CF911F910F91FF90EF90089511
:10253000DC01ED91FC910190F081E02D0995089569
:10254000EF92FF920F931F938C01DC01ED91FC91B0
:102550000190F081E02D6DE009957C01D801ED91AD
:10256000FC910190F081E02DC8016AE009959C0181
:102570002E0D3F1DC9011F910F91FF90EF900895FF
:10258000EF92FF920F931F937C010E9475128C01B2
:10259000C7010E94A0129C01200F311FC9011F9189
:1025A0000F91FF90EF900895CF93DF93EC016115A9
:1025B000710519F420E030E00FC0DB010D90002020
:1025C000E9F71197A61BB70BE881F9810280F38127
:1025D000E02DAD0109959C01C901DF91CF910895CE
:1025E0004F925F927F928F929F92AF92BF92CF92C3
:1025F000DF92EF92FF920F931F93DF93CF93CDB7AC
:10260000DEB7A1970FB6F894DEBF0FBECDBF2C0189
:10261000742ECB01223008F42AE019A231E2C32E35
:10262000D12CCC0EDD1E822E9924AA24BB24672D2A
:10263000752FA50194010E942B1579018A01C8010B
:10264000B701A50194010E94E514472D461B08948B
:10265000C108D1084A3014F4405D01C0495CF6015C
:102660004083E114F1040105110521F07E2C5F2D5A
:10267000C801DDCFC201B6010E94D412A1960FB6E7
:10268000F894DEBF0FBECDBFCF91DF911F910F91A8
:10269000FF90EF90DF90CF90BF90AF909F908F9082
:1026A0007F905F904F900895DC012115310541F432
:1026B000ED91FC910190F081E02D642F0995089532
:1026C0000E94F0120895EF92FF920F931F939A01C8
:1026D0007B0100E010E0B801A7010E9454131F9194
:1026E0000F91FF90EF9008950E94D41208952F92B9
:1026F0003F924F925F926F927F928F929F92AF9292
:10270000BF92CF92DF92EF92FF920F931F93DF93CE
:10271000CF93CDB7DEB73B014C0119012A016D897A
:102720007E898F89988D6A197B098C099D09621AA7
:10273000730A840A950AA40193010E94E514E21821
:10274000F30804091509A80197010E944D152A0DE7
:102750003B1D4C1D5D1DB901CA01CF91DF911F9139
:102760000F91FF90EF90DF90CF90BF90AF909F9030
:102770008F907F906F905F904F903F902F90089533
:10278000009729F0BC0180E090E00E94FB010895D1
:1027900098D088F09F5790F0B92F9927B751A0F0A3
:1027A000D1F0660F771F881F991F1AF0BA95C9F7E5
:1027B00012C0B13081F09FD0B1E008959CC0672F66
:1027C000782F8827B85F39F0B93FCCF38695779595
:1027D0006795B395D9F73EF490958095709561957E
:1027E0007F4F8F4F9F4F0895E89409C097FB3EF4A9
:1027F00090958095709561957F4F8F4F9F4F99234E
:10280000A9F0F92F96E9BB279395F69587957795CB
:102810006795B795F111F8CFFAF4BB0F11F460FF8B
:102820001BC06F5F7F4F8F4F9F4F16C0882311F0E3
:1028300096E911C0772321F09EE8872F762F05C0F7
:10284000662371F096E8862F70E060E02AF09A9592
:10285000660F771F881FDAF7880F9695879597F987
:10286000089597F99F6780E870E060E008959FEF12
:1028700080EC089500240A94161617061806090617
:10288000089500240A9412161306140605060895E6
:10289000092E0394000C11F4882352F0BB0F40F46E
:1028A000BF2B11F460FF04C06F5F7F4F8F4F9F4FAE
:1028B000089557FD9058440F551F59F05F3F71F030
:1028C0004795880F97FB991F61F09F3F79F0879597
:1028D0000895121613061406551FF2CF4695F1DF20
:1028E00008C0161617061806991FF1CF86957105B0
:1028F000610508940895E894BB2766277727CB01E4
:1029000097F908950BD0C4CFB5DF28F0BADF18F0DF
:10291000952309F0A6CFABCF1124EECFCADFA0F3E9
:10292000959FD1F3950F50E0551F629FF001729F64
:10293000BB27F00DB11D639FAA27F00DB11DAA1F83
:10294000649F6627B00DA11D661F829F2227B00DD0
:10295000A11D621F739FB00DA11D621F839FA00D5B
:10296000611D221F749F3327A00D611D231F849FAB
:10297000600D211D822F762F6A2F11249F57504002
:102980008AF0E1F088234AF0EE0FFF1FBB1F661F9D
:10299000771F881F91505040A9F79E3F510570F056
:1029A00060CFAACF5F3FECF3983EDCF38695779536
:1029B0006795B795F795E7959F5FC1F7FE2B880F51
:1029C000911D9695879597F90895629FD001739F01
:1029D000F001829FE00DF11D649FE00DF11D929FBB
:1029E000F00D839FF00D749FF00D659FF00D9927FA
:1029F000729FB00DE11DF91F639FB00DE11DF91F1E
:102A0000BD01CF0111240895AA1BBB1B51E107C0D2
:102A1000AA1FBB1FA617B70710F0A61BB70B881F6E
:102A2000991F5A95A9F780959095BC01CD010895FD
:102A300097FB092E07260AD077FD04D0E5DF06D0E4
:102A400000201AF4709561957F4F0895F6F79095E0
:102A500081959F4F0895A1E21A2EAA1BBB1BFD0171
:102A60000DC0AA1FBB1FEE1FFF1FA217B307E4076D
:102A7000F50720F0A21BB30BE40BF50B661F771FC5
:102A8000881F991F1A9469F76095709580959095A5
:102A90009B01AC01BD01CF01089597FB092E0526CE
:102AA0000ED057FD04D0D7DF0AD0001C38F4509563
:102AB0004095309521953F4F4F4F5F4F0895F6F762
:102AC00090958095709561957F4F8F4F9F4F08959A
:102AD000EE0FFF1F0590F491E02D09942F923F9285
:102AE0004F925F926F927F928F929F92AF92BF921E
:102AF000CF92DF92EF92FF920F931F93CF93DF93CA
:102B0000CDB7DEB7CA1BDB0B0FB6F894DEBF0FBE26
:102B1000CDBF09942A88398848885F846E847D8473
:102B20008C849B84AA84B984C884DF80EE80FD8075
:102B30000C811B81AA81B981CE0FD11D0FB6F894EB
:0E2B4000DEBF0FBECDBFED010895F894FFCFAC
:102B4E0047696D6D65006C69676874210020004CE3
:102B5E004F4144455200010000000000F0FC0E02FF
:102B6E004341C1C10180E0705C4F7FFC8000C0F02A
:102B7E003E1FFFE0E0781CFFFF0080FF7F11111168
:102B8E00110100C0FF3F11193FE6C000F8FF07001A
:102B9E000000F8FF07E0FF1FC0FF3F0E3CF0C0E053
:102BAE00FF1F00F8FC0603010183FE7C00000000FD
:102BBE0000010302020303000203010000000003F0
:102BCE0003020301000003030000000303000303DC
:102BDE0002020202020200030302020203010100CA
:102BEE0001030202020301000003030003030000BD
:102BFE0000000103030000000103020203010000B4
:102C0E0000000000000000000000000000000000B6
:102C1E0000000000000000000000000000000000A6
:102C2E000000000000000000000000000000000096
:102C3E000000000000000000000000000000000086
:102C4E000000000000C02010D0901020C000000036
:102C5E0000C060A060C00000000000000000000086
:102C6E000000000000000000000000000000000056
:102C7E000000000000000000000000000000000046
:102C8E000000000000000000000000000000000036
:102C9E000000000000000000000708109713110844
:102CAE000780000000078C8E8C07000000000000DB
:102CBE000000000000000000000000000000000006
:102CCE0000000000000000000000000000000000F6
:102CDE0000000000000000000000000000000000E6
:102CEE000000000000000000000000001E1E1E3F3D
:102CFE007F000C211E403F00001F3035311F0000A9
:102D0E0000000000000000000000000000000000B5
:102D1E0000000000000000000000000000000000A5
:102D2E000000000000000000000000000000000095
:102D3E000000000000000000000000000000000085
:102D4E00FE9D858585868484E41C0000007CC6D6A5
:102D5E00D67C01DBCFC3B8AEA49B938A837B746E03
:102D6E0068625C57524E4A45423E3A3734312E2CF9
:102D7E0029272523211F1D00000000000000000050
:0E2D8E0000000000000100000000030A4B12CC
:00000001FF
