:100000000C9451020C9479020C9479020C947902AC
:100010000C9479020C9479020C9479020C94790274
:100020000C9479020C9479020C9479020C94642457
:100030000C9479020C9479020C9479020C94790254
:100040000C94C8240C9479020C9479020C947902D3
:100050000C9479020C9479020C9479020C94790234
:100060000C9479020C9479025F5C00001F7C000004
:100070001F7417241520131C00001F4C00001F4480
:1000800000001F2400001F3817241520131C000037
:10009000131C15201724C92B00001F1C1F181D142A
:1000A0001B10190C17081504130000001E3C1E4CF1
:1000B0001E581E6C1E7C1E401E501E5C1E701E8034
:1000C0001E481E581E641E781E8800000808003C4A
:1000D0005A7E7E7E3C0008086CFEFE7C38100000D4
:1000E00008086C928244281000000808000C1C18B4
:1000F00010000000153A616363657074002063723C
:100100006162732E000A6279206B696C6C696E679C
:100110000A00596F75206D61646520240047414DC8
:1001200045204F56455221004E45572048494748E3
:1001300053434F52450047414D45204F56455221AC
:1001400000CFCF804001FC39E00C06871FC3C1817E
:10015000013C3307E08409C1CF08085420144188CA
:1001600004510A153A73686F6F7420163A72756EEF
:1001700000474F2100484947482053434F524553B9
:10018000002F00566F6C756D653A004261636B6CB1
:10019000696768743A004C696768743A002F3300E5
:1001A000426174206C766C3A006D56004261743A7C
:1001B000000008080000183C18240000080800246B
:1001C000187E3C7E3C000808FF81FFA3C5FF81FF2D
:1001D000526566696C6C65642021005570677261B8
:1001E0006465642021004561726E202435206669B3
:1001F0007273740008080008001838B40010696EA3
:1002000066004F7574206F6620616D6D6F2100432D
:1002100072616261746F72003F213F0A100A120816
:10022000120E1C0E0C1E0C141A14161F161E131E72
:100230001E1B1E1E1F1E3F213F3A2F3A173D173F20
:10024000213F181F02040A041F0E04040E1F0A1F78
:100250000A0E0E1F04110E2E252E2F2A2E262929B6
:10026000021F02081F08150E04040E150E15151B9B
:10027000151B040604040C04000000001700030012
:10028000031F0A1F16371A1904130A153A00030030
:10029000000E11110E000A040A040E0400300004BE
:1002A00004040010001804030E110E121F1012197E
:1002B0001611150B07041F1715090E15091905034B
:1002C0001A150B12150E000A00003200040A110A5A
:1002D0000A0A110A040115020E11171E051E1F1528
:1002E0000A0E110A1F110E1F15111F05010E111DF7
:1002F0001F041F111F1108100F1F041B1F10101FB8
:10030000061F1E040F0E110E1F09060E112E1F05CB
:100310001A121509011F011F101F0F180F1F0C1FA4
:100320001B041B031C03191513001F1103041811D0
:100330001F000201022020200001020C121E1F12C9
:100340000C0C12120C121F0C1A14041E05242A1E67
:100350001F021C141D1020201D1F0814111F101E29
:10036000041E1E021C0C120C3E0A040C123E1E043B
:100370000214160A020F120E101E0E100E1E081E78
:10038000120C1226281E322A26041E21001F0021CC
:100390001E040102013F213F1E0010001E3010000C
:1003A0002E602C602A602860266024602260800015
:1003B00000000A4E6F2053442063617264206F7204
:1003C0000A6E6F204C4F414445522E4845580A0A48
:1003D000153A45786974004C6F6164696E672E2E1A
:1003E0002E004E4F20424154544552590A0A504C57
:1003F000454153450A5455524E204F464600564FEC
:100400004C554D4500177361766500166261636B4C
:10041000001574797065000A0A0A153A6F6B6179E4
:1004200020163A6564697400596F7520656E7465AD
:100430007265640A00001E301E6000001E601E30DF
:1004400000001F60000000000000240027002A00B8
:1004500000000000250028002B0000000000230001
:100460002600290004040404040404040202020215
:100470000202030303030303010204081020408067
:1004800001020408102001020408102000000007E7
:10049000000201000003040600000000000000004C
:1004A000F70311241FBECFEFD8E0DEBFCDBF13E0AE
:1004B000A0E0B1E0EAE7F7E502C005900D92A83EA2
:1004C000B107D9F715E0A8EEB3E001C01D92A93E2F
:1004D000B107E1F714E0C2EAD4E004C02297FE01BC
:1004E0000E94802BC03AD107C9F70E9440270C9484
:1004F000BB2B0C940000A0E0B0E0E1E8F2E00C942B
:100500008C2BEC01A880B980CA80DB80A114B104D7
:10051000C104D10441F484E2A82E89EDB82E8BE504
:10052000C82E87E0D82EC601B5012DE133EF41E09A
:1005300050E00E94632B27EA31E440E050E00E9443
:10054000FB2A7B018C01C601B5012DE133EF41E0AF
:1005500050E00E94632BCA01B9012CEE34EF4FEF3B
:100560005FEF0E94FB2A6E0D7F1D801F911F97FF7A
:1005700004C06150704080409048688379838A83CA
:100580009B839B01AC015F77B901CA01CDB7DEB790
:10059000EAE00C94A82B0E947B02089581E691E08A
:1005A0000E947B02089560936101709362018093C1
:1005B00063019093640108950F931F93CF93DF938A
:1005C000FB01EA01890120915C0430915D04821BEA
:1005D000930B089697FD03C08F77907006C060E874
:1005E00070E00E942E2B80589F4F08979983888334
:1005F00080915E0490915F049F01281B390BC90113
:10060000089697FD05C060E670E00E942E2B06C09C
:1006100060E670E00E942E2B805A9F4F9C0128506C
:100620003040F80131832083888199818535910597
:1006300014F080E005C080E0213331050CF481E046
:10064000DF91CF911F910F9108950F931F93CF9337
:10065000DF93EC018B01FA01E081E13081F0E130C0
:1006600028F0E230A1F0E33031F51CC0332727FD3C
:100670003095FB0180819181821B930B10C0332741
:1006800027FD309588819981821B930B12C03327F7
:1006900027FD3095FB0180819181820F931F91830B
:1006A000808309C0332727FD309588819981820F87
:1006B000931F998388838881998180589F4F60E830
:1006C00070E00E942E2B99838883F80180819181AC
:1006D000805A9F4F60E670E00E942E2B91838083AA
:1006E000DF91CF911F910F910895482F862F609130
:1006F000530490E070E00E941A2B2091540430E0E3
:10070000B901869F9001879F300D969F300D11246F
:1007100060915204842F90E070E00E941A2B68E0F0
:1007200070E00E942E2B260F371FE0914E04F091AF
:100730004F04E20FF31FE49150E02E2F30E047709A
:1007400080E890E002C0959587954A95E2F72823C6
:100750003923232B09F051E0852F0895CF92DF92A2
:10076000EF92FF920F931F93CF93DF93EC018B01D6
:10077000F42EC22E68E070E00E942E2BD62EC80107
:1007800068E070E00E942E2BE62E8D2D0E947503EE
:10079000882319F52197CE018F0D911D68E070E037
:1007A0000E942E2BF62E862F6E2D0E947503882315
:1007B000A1F401501040C8018C0D911D68E070E05B
:1007C0000E942E2B162F8F2D0E947503882329F44B
:1007D0008D2D612F0E947503811181E0DF91CF91F2
:1007E0001F910F91FF90EF90DF90CF90089588EECA
:1007F00093E00E94E61B08952F923F924F925F92E2
:100800006F927F928F929F92AF92BF92CF92DF9220
:10081000EF92FF920F931F93DF93CF9300D000D0FE
:1008200000D0CDB7DEB79B014091500450915104E8
:100830005A83498360915204772767FD7095B3E02E
:10084000660F771FBA95E1F7860F971F0E942E2B30
:10085000F82FE92F60915304772767FD7095A3E087
:10086000660F771FAA95E1F7C901860F971F0E94AF
:100870002E2B482F68E070E00E942E2B8B018F2FCB
:100880009E2F68E070E00E942E2B6D837E83202FC8
:10089000332727FD3095C90153E0880F991F5A95DA
:1008A000E1F7A82EA41ACC24DD2446E0242E312C16
:1008B000200E311E2901862E992487FC9094C401B4
:1008C00023E0880F991F2A95E1F7A82FAF1BAC836F
:1008D0009AE0692E712CED81FE816E0E7F1E26C07E
:1008E000BC80EE24FF24FC2DF00FFB8314C08D810F
:1008F0008E0D6B810E947503882341F08AE194E09C
:100900006B2D4A2D29813A810E9482180894E11C9E
:10091000F11C28E0B20EC701880D991D68167906F2
:1009200034F70894C11CD11C48E0A40EC601840D04
:10093000951D28163906A4F626960FB6F894DEBF44
:100940000FBECDBFCF91DF911F910F91FF90EF9020
:10095000DF90CF90BF90AF909F908F907F906F90DF
:100960005F904F903F902F900895DF93CF9300D0EA
:1009700000D0CDB7DEB76091970570919805809152
:10098000950590919605AE014F5F5F4F9E012D5FDB
:100990003F4F0E94DC02882341F08AE194E06981A4
:1009A0004B8126EC31E00E9482180F900F900F903F
:1009B0000F90CF91DF9108958F929F92AF92BF9247
:1009C000CF92DF92EF92FF920F931F93CF93DF931B
:1009D0004DE9842E45E0942EAA24BB24CC24DD24AA
:1009E0003BC0BE016C0D7D1D8FED95E00E94B524CE
:1009F000F80181938F012196CA30D10591F7B60194
:100A0000665F7F4F8FED95E00E94B524082F10E0C0
:100A1000F40111830083B601655F7F4F8FED95E090
:100A20000E94B524F82EEE24C701800F911FFFEF1E
:100A30008F3F9F0711F480E090E0F4018193919340
:100A40004F010894A11CB11C8CE090E0C80ED91E87
:100A500095E0A916B10481F08501000F111FC501B1
:100A600023E0880F991F2A95E1F7080F191F0955F0
:100A70001A4FC0E0D0E0B5CFDF91CF911F910F9119
:100A8000FF90EF90DF90CF90BF90AF909F908F90AE
:100A900008950F931F93809161048823E9F1815099
:100AA0008093610400915C0410915D0420916004C6
:100AB00030E066277727621B730B882777FD8095C8
:100AC000982F2F5F3F4F442737FD4095542F0E94AA
:100AD000B829060F171F10935D0400935C04009162
:100AE0005E0410915F042091600430E06627772750
:100AF000621B730B882777FD8095982F2F5F3F4FE0
:100B0000442737FD4095542F0E94B829060F171F20
:100B100010935F0400935E041F910F9108958F92CC
:100B20009F92AF92BF92CF92DF92EF92FF920F937C
:100B30001F93DF93CF9300D000D0CDB7DEB7F3E0A3
:100B40008F2E912C8C0E9D1E5E010894A11CB11C51
:100B500060E070E080E090E020E130E040E050E0D4
:100B60000E94B829E3E0660F771F881F991FEA9556
:100B7000D1F7709396056093950560E070E080E092
:100B800090E02CE030E040E050E00E94B8297B018A
:100B90008C0153E0EE0CFF1C001F111F5A95D1F77A
:100BA000F0929805E0929705C0909505D090960533
:100BB000C601B70148E028E00E94AE03182FC60125
:100BC000B701A50194010E94DC02882309F61123D4
:100BD00009F0BECF0F900F900F900F90CF91DF9143
:100BE0001F910F91FF90EF90DF90CF90BF90AF904B
:100BF0009F908F9008950F931F93AC0120E030E0F9
:100C0000F901EB52FB4F80818823F9F481E0808366
:100C10008901000F111FF801EB51FB4F51834083F5
:100C2000F801EB5FFA4F7183608360E070E080E071
:100C300090E025E030E040E050E00E94B8290B5DF4
:100C40001A4FF8017183608305C02F5F3F4F203139
:100C50003105B1F61F910F9108950F931F930AE18B
:100C600014E0C80160E040E00E94A11AC80164E2FB
:100C70000E949C276091990570919A05C8014AE0ED
:100C800050E00E9418291F910F910895AF92BF92D2
:100C9000CF92DF92EF92FF920F931F93DF93CF9348
:100CA00000D000D0CDB7DEB7FF2413E0A12EB12CC9
:100CB000AC0EBD1E6E010894C11CD11C31C00F2D9D
:100CC00010E0F801EE0FFF1FDF01AB57BB4F6D9136
:100CD0007C91EB59FB4F80819181A60195010E9487
:100CE000DC028823E1F0F801EB53FB4F808169813E
:100CF0004B81F801EB55FB4F863039F06250425082
:100D00008AE194E022EB31E006C0615041508AE173
:100D100094E02CEB31E00081EE240E94F018F39473
:100D200080916404F81658F20F900F900F900F9076
:100D3000CF91DF911F910F91FF90EF90DF90CF90B7
:100D4000BF90AF9008956F927F928F929F92AF92D3
:100D5000BF92CF92DF92EF920F93DF93CF9300D0A9
:100D600000D0CDB7DEB785EDA82E84E0B82ECC2418
:100D7000DD2403E0602E712C6C0E7D1E4E01089464
:100D8000811C911CF5018081882311F1F601EB5142
:100D9000FB4FD601AB5FBA4F6D917C918081918101
:100DA000A40193010E94DC02882381F069816250D2
:100DB0004B814250F601EB5DFA4F8AE194E024EF5B
:100DC00031E00081EE240E94F01802C0F50110828B
:100DD0000894A11CB11C82E090E0C80ED91E95EECB
:100DE000A91694E0B90671F60F900F900F900F902E
:100DF000CF91DF910F91EF90DF90CF90BF90AF90A8
:100E00009F908F907F906F9008952F923F924F9276
:100E10005F926F927F928F929F92AF92BF92CF928A
:100E2000DF92EF92FF920F931F93CF93DF93682E81
:100E3000772490E045EC242E44E0342E280E391E11
:100E4000880F991F25E6422E24E0522E480E591E87
:100E5000EC01CB57DB4F29C0671431F1D1010C9164
:100E6000E72DF0E0DF01AB53BB4F8C90D2016D91C9
:100E70007C9148815981EE0FFF1FDF01AB59BB4FB9
:100E8000ED90FC90EB57FB4FC080D18088EE93E053
:100E9000202F30E010E0A82CBB2499240E948D1C48
:100EA000882311F081E006C0739480916404781661
:100EB00098F280E0DF91CF911F910F91FF90EF901A
:100EC000DF90CF90BF90AF909F908F907F906F906A
:100ED0005F904F903F902F9008951F93182FE82F09
:100EE000F0E0DF01AB53BB4F2C91EE0FFF1FDF0192
:100EF000AB57BB4F6D917C91EB59FB4F808191813A
:100F0000422F0E94AE03882321F4812F0E940507FF
:100F1000811181E01F9108958F929F92AF92BF92AD
:100F2000CF92DF92EF92FF920F931F9360919505FE
:100F3000709196056E5F7F4F40919705509198058F
:100F40004E5F5F4FE0905604F0905704C0905804F5
:100F5000D090590488EE93E024E030E004E010E003
:100F6000F6E0AF2EB12CE6E08E2E912C0E948D1C67
:100F7000882309F454C08091990590919A050597AA
:100F800044F488EE93E066EE71E04EE10E94EE1BC1
:100F900046C080919105843078F488EE93E06BED43
:100FA00071E04EE10E94EE1B8DE094E06CEA70E08F
:100FB00040E00E946C2307C088EE93E060ED71E092
:100FC0004EE10E94EE1B8091990590919A0505973C
:100FD00090939A05809399050E948F05E091910561
:100FE0008E2F90E0049714F084E002C08E2F8F5F64
:100FF00080939105E82FF0E0EE0FFF1FEC56FE4FB7
:1010000080819181909394058093930580915A04F7
:10101000853014F086E001C08F5F80935A041F91E1
:101020000F91FF90EF90DF90CF90BF90AF909F9087
:101030008F900895FF920F931F93CF93DF9388EEC5
:1010400093E00E94FB1D8823D1F360E070E080E014
:1010500090E022E030E040E050E00E94B829162FF6
:1010600060E070E080E090E022E030E040E050E0BE
:101070000E94B829462F175F8AE194E0612F0E94F1
:10108000A11A8AE194E065E771E00E94C4278AE131
:1010900094E060E00E94AB1A8AE194E060E046E0F0
:1010A0000E94A11A0DE915E0C0E0D0E086E0F82E1C
:1010B000F80180819181892B39F1CE01BE01B3E025
:1010C000660F771FBA95E1F7880F991F680F791F90
:1010D00069557A4F8AE194E00E9437298AE194E0C9
:1010E00068E44F2D0E94A11AF801619171918F015E
:1010F0008AE194E04AE050E00E9418292196F6E047
:10110000FF0E84E2F816A1F682EF93E066E00E94FB
:101110006C15882309F493CF8DE094E00E94B023EE
:10112000DF91CF911F910F91FF9008954F925F92A1
:101130006F927F928F929F92AF92BF92CF92DF92E7
:10114000EF92FF920F931F93DF93CF93CDB7DEB74C
:101150002A970FB6F894DEBF0FBECDBF88EE93E09E
:101160006FEC75E04AE00E942D1F809199059091E7
:101170009A059093A6058093A50523EA35E014E02F
:10118000E12EF12C4E010894811C911CBBE06B2ECA
:10119000712C6C0E7D1EB701C7010197F901A0806B
:1011A000B180C280D380AC14BD044CF0ADE98A2E6E
:1011B000A5E09A2EAA24BB24EE24FF247BC0DC01E8
:1011C000F3E0AA0FBB1FFA95E1F7880F991FA80F4C
:1011D000B91FA955BA4F84012D01A401F2018191D3
:1011E0002F01FA018193AF01E615F705B9F7CB019D
:1011F0002B0173E0440C551C7A95E1F7880F991F79
:10120000480E591E87EA95E0480E591EB20190E03B
:10121000FB018191BF018D939F5F9A30C9F7F8015F
:1012200081918F01F20181932F0104171507B9F7FE
:10123000F901D182C082B382A28222503040089448
:10124000E108F108F5E02B393F0709F0A4CFAECF54
:10125000B8016E0D7F1D8FED95E0F60141916F0194
:101260000E94BC240F5F1F4F0A30110589F78AE0E6
:1012700090E0E80EF91E8FED95E0B701F401408192
:101280000E94BC240894E11CF11CF40141818FED03
:1012900095E0B7010E94BC240894A11CB11C82E017
:1012A00090E0880E991E0894E11CF11C95E0A916A7
:1012B000B10491F06501CC0CDD1CC50123E0880F61
:1012C000991F2A95E1F7C80ED91EE7EAF5E0CE0E80
:1012D000DF1E00E010E0BCCF0E941A082A960FB66D
:1012E000F894DEBF0FBECDBFCF91DF911F910F915C
:1012F000FF90EF90DF90CF90BF90AF909F908F9036
:101300007F906F905F904F9008950F938091930519
:1013100090919405892B09F44DC08AE194E060E036
:101320004AE20E94A11AE0919105F0E0EE0FFF1F42
:10133000E959FE4F608171818AE194E00E9437296A
:1013400020919205233038F08AE194E06EEF4EE26E
:1013500002E00E948E16809191058823F9F0809119
:101360009305909194058436910510F060E005C0D6
:101370000A9710F064E001C068E0685B8AE194E0DD
:101380004AE20E94A11A60919305709194058AE146
:1013900094E04AE050E00E9467280CC08AE194E0A3
:1013A00068E44AE20E94A11A8AE194E06EEF71E0DB
:1013B0000E9479270F9108952F923F924F925F924A
:1013C0006F927F928F929F92AF92BF92CF92DF9255
:1013D000EF92FF920F931F93CF93DF93BB24EAE228
:1013E0002E2E312C70E6A72EC8C04B2D50E0FA01EE
:1013F000EE0FFF1FDF01AB59BB4F8D909C904090CB
:101400005C0450905D04EB57FB4FC080D18060902E
:101410005E0470905F04809156049091570494018B
:10142000281B390BC90137FF03C0909581959F4F49
:10143000282F90E0803491051CF030E8321B232FD8
:10144000243708F099C0809158049091590496016E
:10145000281B390BC90137FF03C0909581959F4F19
:10146000282F90E0C0971CF03A2D321B232F2035F7
:1014700008F082C0CA01880F991F25E6E22E24E0F9
:10148000F22EE80EF91E8C010B571B4FEA01CB55CB
:10149000DB4FC701B801AE0121E00E9425038B2D6F
:1014A0000E946D07882339F0C701B801AE012FEF04
:1014B0000E9425030FC060E070E080E090E020E231
:1014C00030E040E050E00E94B829611571058105C7
:1014D000910551F40E94CE0224E030E040E050E05B
:1014E0000E94632B688348C060E070E080E090E079
:1014F00020E130E040E050E00E94B829611571051C
:1015000081059105C9F560E070E080E090E022E09F
:1015100030E040E050E00E94B82961157105810576
:101520009105A9F080E890E084199509880D991D2E
:1015300060E870E00E942E2B9101281B390B1216D7
:10154000130614F433E015C081E0888315C080E6EB
:1015500090E0861997098C0D9D1D60E670E00E9451
:101560002E2B28E130E0281B390B121613061CF431
:1015700032E0388301C01882B39480916404B816B5
:1015800008F433CFDF91CF911F910F91FF90EF902F
:10159000DF90CF90BF90AF909F908F907F906F9093
:1015A0005F904F903F902F9008959F92AF92BF927F
:1015B000CF92DF92EF92FF920F931F93CF93DF931F
:1015C000982EC82FD0E0FE01EB53FB4F84E08083C0
:1015D000FE01EB54FB4F8091650180838091620492
:1015E0008823C9F420916304822F90E0039714F4B8
:1015F00081E002C0822F8150809363048093620453
:10160000FE01EB53FB4F86E08083FE01EB54FB4F62
:10161000809166018083CE01880F991F25E6E22E16
:1016200024E0F22EE80EF91E8C010B571B4F80E8C8
:10163000A82EB12CB0E6CB2ED12C60E070E080E07B
:1016400090E020E230E040E050E00E94B829A2E0C3
:10165000660F771F881F991FAA95D1F7F70171832D
:10166000608360E070E080E090E028E130E040E0FE
:1016700050E00E94B829F2E0660F771F881F991F7B
:10168000FA95D1F7F80171836083892D0E946D0767
:10169000882399F680915C0490915D049501281B44
:1016A000390BC901F70120813181820F931F60E856
:1016B00070E00E942E2B843591050CF4BECF8091F2
:1016C0005E0490915F049601281B390BC901F80153
:1016D00020813181820F931F60E670E00E942E2BE3
:1016E000C0970CF4AACF0E94CE02CB55DB4F24E06A
:1016F00030E040E050E00E94632B688381E0DF919E
:10170000CF911F910F91FF90EF90DF90CF90BF90FE
:10171000AF909F9008955F926F927F928F929F9269
:10172000AF92BF92CF92DF92EF92FF920F931F93EF
:10173000DF93CF9300D000D0CDB7DEB7582EC82EA0
:10174000DD24E62EFF24F701EF57FA4FE081F0E0A9
:1017500096012B543B4FAF014A585E4FD9018C91F3
:10176000DA019C91891BD9018C93E657FE4F0081C9
:10177000F601EB53FB4F8081863011F406950695F8
:10178000C601880F991FE5E66E2EE4E07E2E680EF6
:10179000791E75E8872E74E0972E880E991E6DE6E7
:1017A000A62E65E0B62EAE0CBF1CC301B401A50188
:1017B000202F0E942503852D0E946D07882339F074
:1017C0000195C301B401A501202F0E942503D60174
:1017D000AB55BB4FF701E359FA4F808190E0029679
:1017E000837090708C93F601EB54FB4F8081181638
:1017F0000CF485C08091990590919A05019690937B
:101800009A058093990580919B0590919C0501967E
:1018100090939C0580939B058091620481508093F6
:101820006204E1E8F5E0EE0EFF1ED7018C918330F3
:1018300039F08DE094E06CE670E040E00E946C23AB
:10184000F601EB53FB4F8081863049F48091990576
:1018500090919A05049690939A0580939905860134
:10186000000F111F45E6E42E44E0F42EE00EF11EB9
:101870000B571B4FF80160817181D7018D919C91AD
:101880000E94FB05F80160817181D7018D919C91C7
:10189000AE014F5F5F4F9E012D5F3F4F0E94DC0204
:1018A000882381F0E5ECF4E0CE0EDF1ED6010C912A
:1018B0000F5F698161504B8141508AE194E0202F94
:1018C0000E948E16852D0E94D50A20916404203135
:1018D000B0F480919B0590919C0566E070E00E94B9
:1018E0002E2B6D5F7F4F822F90E0681779073CF0B9
:1018F0002F5F209364042150822F0E94D50A0F90FD
:101900000F900F900F90CF91DF911F910F91FF904B
:10191000EF90DF90CF90BF90AF909F908F907F908F
:101920006F905F9008952F923F924F925F926F92C7
:101930007F928F929F92AF92BF92CF92DF92EF925F
:10194000FF920F931F93DF93CF9300D000D0CDB7BA
:10195000DEB780918F05882309F47DC08150809384
:101960008F0584E08093600482E08093610460E0EE
:1019700070E080E090E026E030E040E050E00E943F
:10198000B829362E8AE0380E40908B0550908C0591
:101990006CEF7FEF8FEF9FEF24E030E040E050E00E
:1019A0000E94B829032D069510E0460E571E401AD6
:1019B000510A60908D0570908E056CEF7FEF8FEF70
:1019C0009FEF24E030E040E050E00E94B829660E2E
:1019D000771E601A710A222426C0E22DF0E0DF0192
:1019E000AB53BB4F0C91EE0FFF1FDF01AB59BB4F49
:1019F0006D917C91EB57FB4F4081518188EE93E0D4
:101A0000202F30E010E072016301A32CBB24832C53
:101A100099240E948D1C882329F0822D60919005C5
:101A20000E948B0B2394809164042816B0F2C201AB
:101A3000B301AE014F5F5F4F9E012D5F3F4F0E948C
:101A4000DC02882341F08AE194E069814B81232DF7
:101A5000032D0E948E160F900F900F900F90CF9134
:101A6000DF911F910F91FF90EF90DF90CF90BF908B
:101A7000AF909F908F907F906F905F904F903F902E
:101A80002F9008952F923F924F925F926F927F9284
:101A90008F929F92AF92BF92CF92DF92EF92FF927E
:101AA0000F931F93DF93CF93CDB7DEB727970FB672
:101AB000F894DEBF0FBECDBF87E795E09C838B8394
:101AC000A1E8B5E0BA83A98385E4282E85E0382E05
:101AD00009E5402E05E0502E1F821E82BE81BD8387
:101AE000EB81FC818081882309F496C0E981FA8129
:101AF000A081B0E0FD01EF58FE4F60806E817F81D4
:101B0000660F771F4E815F8143595A4FA058BE4FD1
:101B1000CB018B5B9A4F675A7A4F2C910E94250319
:101B2000D101ED90FC90F20100811181C701B80153
:101B3000462D262D0E94AE03882311F4772467C01A
:101B4000AB81BC811C92E981FA818081833009F0EC
:101B500063C0F0928C05E0928B0510938E05009384
:101B60008D05F8E0F0938F058DE094E06AE970E070
:101B700040E00E946C2350C0E72DF0E0DF01AB5342
:101B8000BB4F8C90D1016D917C91D2014D915C91B4
:101B9000EE0FFF1FDF01AB59BB4FED90FC90EB57F1
:101BA000FB4FC080D18088EE93E0262D30E0062DDB
:101BB00010E0A82CBB2499240E948D1C882331F1AD
:101BC000E981FA8180818330C9F4D1018D919C91A2
:101BD00090938C0580938B05F20180819181909385
:101BE0008E0580938D05F8E0F0938F058DE094E0ED
:101BF0006AE970E040E00E946C2304C0872D6D818B
:101C00000E948B0BAB81BC811C9206C073948091A7
:101C10006404781608F4B0CFEE81FF813196FF831B
:101C2000EE838B819C8101969C838B83A981BA81F1
:101C30001196BA83A983E2E0F0E02E0E3F1E4E0E0D
:101C40005F1E8E819F810A9709F048CF27960FB6B5
:101C5000F894DEBF0FBECDBFCF91DF911F910F91E2
:101C6000FF90EF90DF90CF90BF90AF909F908F90BC
:101C70007F906F905F904F903F902F9008951F93AB
:101C800080916404E5E6F4E0A5E8B4E090E0880F14
:101C9000991F8E0F9F1F2FE037E204C021933193CD
:101CA0002D933D93E817F907C9F710E006C0812F7F
:101CB0000E94D50A882331F01F5F809164041817B1
:101CC000B0F381E01F9108950F931F93CF93DF939B
:101CD00081E491E090934F0480934E0480E18093DF
:101CE00052048CE08093530489E591E09093510471
:101CF0008093500482E080935404209199053091A0
:101D00009A058091A5059091A6058217930714F472
:101D10000E94960810929A051092990510929C05BF
:101D200010929B05109291058FE097E29093940595
:101D300080939305109292051092610486E080933F
:101D40005A0480E1809363048093620484E080936A
:101D5000640460E070E080E090E020E130E040E08A
:101D600050E00E94B829E3E0660F771F881F991F93
:101D7000EA95D1F7709357046093560460E070E0E1
:101D800080E090E02CE030E040E050E00E94B82994
:101D90009B01AC0163E0220F331F441F551F6A955E
:101DA000D1F789013093590420935804C091560407
:101DB000D0915704CE01B90146E026E00E94AE035F
:101DC000882339F6A797D0935D04C0935C0405512E
:101DD000104010935F0400935E040E943F0E88231E
:101DE00009F4B7CF0E948F05E7E7F5E0119285E08F
:101DF000E138F807D9F7E5EDF4E0119284E0E53E2B
:101E0000F807D9F710928F051092000410E088EEC1
:101E100093E00E94FB1D8823D1F38AE194E064E102
:101E20004AE00E94A11A8AE194E063E00E94A51AA8
:101E30008AE194E061E771E00E9479271F5F1A3020
:101E400030F38AE194E061E00E94A51A88EE93E005
:101E500063E671E04CE30E94EE1BDF91CF911F918E
:101E60000F91089588EE93E061EB71E040E00E94ED
:101E7000EE1B88EE93E00E94FB1D8823D1F388EED1
:101E800093E068EA71E046E00E945E218230D1F082
:101E9000833034F4882361F0813009F0CBC00FC067
:101EA0008430C1F084308CF0853009F0C3C0BEC0EE
:101EB00064E670E080E090E00E94442508950E946E
:101EC000640E08950E941A08D4CF88EE93E00E9411
:101ED000A81ECFCF88EE93E00E94FB1D8823D1F38C
:101EE00082EF93E066E00E946C15882329F08DE074
:101EF00094E00E94B023BDCF8AE194E060E040E02E
:101F00000E94A11A8AE194E06CEA71E00E947927AC
:101F100060910204709103048AE194E04AE050E089
:101F20000E9467288AE194E069EA71E00E94C42770
:101F30008AE194E060EA71E00E9479278AE194E006
:101F4000609101044AE050E00E9495288AE194E003
:101F50006DE971E00E94C4278AE194E066E971E0CE
:101F60000E9479276091E9037091EA038AE194E085
:101F70004AE050E00E9478288AE194E06BE871E042
:101F80000E9479278AE194E06091EB034AE050E0F7
:101F90000E94A7288AE194E063E871E00E94792713
:101FA0008DE094E00E94A023682F8AE194E04AE04B
:101FB00050E00E9495288AE194E061E871E00E9477
:101FC00079278AE194E060910F044AE050E00E9492
:101FD000A7288AE194E060E071E00E9437298AE155
:101FE00094E0609164044AE050E00E9495288AE100
:101FF00094E066E071E00E9437298AE194E060E1B4
:1020000070E04AE050E00E9418298AE194E068E01C
:1020100071E00E94372960919B0570919C058AE1CF
:1020200094E04AE050E00E94182954CF88EE93E0F3
:102030000E94061D08955F926F927F928F929F92E9
:10204000AF92BF92CF92DF92EF92FF920F931F93C6
:10205000CF93DF932091930530919405211531059D
:1020600009F4E6C080919205882309F0FCC0C0E025
:10207000D0E05C2EFE01E958FA4F8081882309F0F8
:10208000D1C081E08083E0919105DE01AF57BA4F66
:10209000EC93F0E0DF01A558BE4F8C918093920540
:1020A000215030403093940520939305DF01AB57C6
:1020B000BE4FCC90EF58FE4F808180FD03C06C2C4A
:1020C000619402C06C2C60940091560410915704E6
:1020D000772467FC7094872C972CDD24C7FCD09460
:1020E0000894C11CD11CEE24D7FCE094FE2CC40142
:1020F000B301A70196010E94B8295E01AA0CBB1C7E
:10210000D501AB5BBA4F0D5F1F4FE0919105F0E039
:10211000EF58FE4F20812695021B1109060F171F4D
:102120000D931C930091580410915904C401B301FC
:10213000A70196010E94B82990919105A92FB0E0BE
:1021400029E535E0A20EB31E0D5F1F4FFD01EF58CC
:10215000FE4F20812695021B1109060F171FF5015E
:1021600011830083C359DA4F80915B0488835092B6
:102170009005913011F0943021F48091380480FD65
:102180000BC0AA0FBB1FA256BE4F6D917C918DE074
:1021900094E040E00E946C2380919105813059F4D5
:1021A0000E94CE0260FF07C08DE094E06EE770E011
:1021B00040E00E946C23E0919105F0E0E157FE4F72
:1021C000C0802C2D219586E594E068E574E04BE510
:1021D00054E00E94250300E018C0609158047091FB
:1021E0005904809156049091570446E026E00E94DD
:1021F000AE03882361F086E594E068E574E04BE582
:1022000054E021E00E9425030F5F0C1530F380910C
:102210009105843041F581E08093600482E08093F1
:10222000610421C02196CA30D10509F022CF1BC01C
:10223000E0919105E111E150E0939105F0E0EE0F9E
:10224000FF1FEC56FE4F80819181909394058093FF
:10225000930584E18093920588EE93E062E072E05A
:102260004EE10E94EE1BDF91CF911F910F91FF90E5
:10227000EF90DF90CF90BF90AF909F908F907F9026
:102280006F905F9008956F927F928F929F92AF921E
:10229000BF92CF92DF92EF92FF920F93DF93CF9393
:1022A00000D000D0CDB7DEB735E4A32E35E0B32E95
:1022B00029E5C22E25E0D22EEE24FF2493E0692EDC
:1022C000712C6C0E7D1E4E010894811C911CF7012F
:1022D000E958FA4F8081882321F1F60160817181EC
:1022E000F50180819181A40193010E94DC02882381
:1022F000C1F0F701EF57FA4FE081F0E0EF58FE4FE1
:102300000081013039F48AE194E069814B810E94B7
:10231000C41507C08AE194E069814B81202F0E9497
:102320008E160894E11CF11C82E090E0A80EB91E04
:10233000C80ED91E9AE0E916F10449F60F900F90E5
:102340000F900F90CF91DF910F91FF90EF90DF9062
:10235000CF90BF90AF909F908F907F906F90089597
:102360002F923F924F925F926F927F928F929F92A5
:10237000AF92BF92CF92DF92EF92FF920F931F9393
:10238000DF93CF9300D000D0CDB7DEB70E94640EAC
:1023900088EE93E00E94FB1D8823D1F382EF93E047
:1023A00066E00E946C15882359F08DE094E00E944D
:1023B000B02381E0809300040E94320F1092000449
:1023C00082EF93E062E041E00E947615882311F0ED
:1023D00083E00BC082EF93E060E041E00E9476155D
:1023E000882311F410E004C081E080935B0411E0C5
:1023F00082EF93E063E041E00E947615882321F0AC
:1024000082E080935B040DC082EF93E061E041E0E5
:102410000E947615882319F010925B0402C01123E4
:1024200019F186E594E068E574E04BE554E020910D
:1024300055040E94250360915804709159048091BD
:1024400056049091570446E026E00E94AE0388238C
:1024500059F020915504219586E594E068E574E0F3
:102460004BE554E00E942503809156049091570457
:10247000879790935D0480935C04809158049091B9
:102480005904459790935F0480935E040E94490528
:1024900060915E0470915F0480915C0490915D0492
:1024A0000E94FC0360915804709159048091560475
:1024B00090915704AE014F5F5F4F9E012D5F3F4FDC
:1024C0000E94DC02698161504B8141508AE194E0B5
:1024D0002CEC30E000915B04EE240E94F0180E9486
:1024E000DC090E94460680919205882319F08150EC
:1024F0008093920582EF93E064E041E00E947615BC
:10250000882351F082EF93E065E041E00E94761568
:10251000882311F40E941B1082EF93E065E041E0F4
:102520000E947615882311F082E001C081E080933B
:1025300055040E94420D0E9443110E94930C0E9478
:10254000A3060E948C070E94B50400E010E036E567
:10255000F32E80915A04992787FD90958017910753
:102560003CF08AE194E06F2D40E026ED30E019C0A8
:102570008AE194E060E00E94BC158AE194E06F2D4E
:1025800040E026ED30E00E9482188AE194E061E0AC
:1025900040E00E94C0158AE194E06F2D40E020EEFB
:1025A00030E00E9482180E5F1F4F87EFF80EA2E303
:1025B000FA1679F690915A04992359F480913804C7
:1025C00080FD0DC082E08093600481E0809361040F
:1025D00006C0913021F4909360049093610490FFC1
:1025E00019C0892F97FD8F5F8595992787FD909555
:1025F00080959095BC0123E0660F771F2A95E1F73F
:10260000680F791F6A5A8AE194E040E02AEE30E0D0
:102610000E9482180E9485090E942D06772482E07C
:10262000282E04E0602E13E0312E26C1E72DF0E0C5
:10263000B5EC4B2EB4E05B2E4E0E5F1ED2010C911A
:10264000EE0FFF1FDF01AB59BB4F6D917C91EB5734
:10265000FB4F40815181E0905604F0905704C090A8
:102660005804D090590488EE93E0202F30E010E019
:10267000F6E0AF2EB12CE6E08E2E912C0E948D1C40
:10268000882309F4F8C090915A04915090935A0409
:102690002092600460926104F2018081863029F406
:1026A000915090935A04309260048DE094E068E673
:1026B00070E040E00E946C23872D0E94D50A809133
:1026C0005A0487FFD8C010E088EE93E00E94FB1DFB
:1026D0008823D1F30E9446060E9443110E94A3065C
:1026E0000E94B5040E9485090E942D0660915E0437
:1026F00070915F0480915C0490915D040E94FC03E2
:10270000698161504B8141508AE194E02CEC30E0CA
:1027100000915B04EE240E94F0188AE194E060E0EE
:102720000E94BC158AE194E060E040E0212F00E3C4
:102730000E948E1664E5611B8AE194E040E0212F3F
:102740000E948E168AE194E061E040E00E94C0158C
:102750008AE194E06CE041E00E94A11A8AE194E0F1
:1027600066E371E00E9479271E5F1E3309F0ACCF4B
:1027700088EE93E00E94FB1D8823D1F320919905F8
:1027800030919A058091A5059091A605821793072F
:102790000CF560E070E080E090E022E030E040E0A6
:1027A00050E00E94B829162F60E070E080E090E0D1
:1027B00022E030E040E050E00E94B829462F1E5F42
:1027C0008AE194E0612F0E94A11A8AE194E068E214
:1027D00071E00AC08AE194E06CE041E00E94A11A35
:1027E0008AE194E06DE171E00E9479278AE194E04A
:1027F00060E04CE00E94A11A8AE194E062E171E09D
:102800000E9479276091990570919A058AE194E078
:102810004AE050E00E9405298AE194E065E071E019
:102820000E94792760919B0570919C058AE194E054
:102830004AE050E00E9405298AE194E06DEF70E0E3
:102840000E9479278AE194E060E048E20E94A11AA0
:102850008AE194E064EF70E00E94792782EF93E0D0
:1028600064E00E946C15882309F482CF8DE094E027
:102870000E94A3238BCD739480916404781608F092
:1028800087CDD4CE0E94B0110895EF92FF920F939E
:102890001F9388EE93E06FE072E04CEB51E00E94F2
:1028A0008D2285E10E94D8257C0185E10E94D825F2
:1028B0008C0185E10E94D8250E9D90010F9D300D61
:1028C0001E9D300D1124820F931F0E94D6290E9455
:1028D000DC041F910F91FF90EF900895882319F465
:1028E0008CB5806202C08CB58F7D8CBD08959CB57F
:1028F000937F982B9CBD08952CB5382F33702C7F77
:10290000322B3CBD2DB590E0959587959595879593
:1029100081702E7F822B8DBD08958AE061E00E9438
:1029200099268AE061E00E945A268CB580618CBDB0
:102930008CB580648CBD8DE061E00E945A268BE0EE
:1029400061E00E945A260895FC011282118281E002
:102950008083089585E070E00E94FA2508956F92C3
:102960007F928F929F92AF92BF92CF92DF92EF921F
:10297000FF920F931F93CF93DF93EC0189819A818C
:102980008C0124E0000F111F2A95E1F7081B190B99
:1029900085E10E94D825BC01600F711F84E0769507
:1029A00067958A95E1F77A8369838881882381F125
:1029B0002E813F816217730710F4B90106C0888524
:1029C00099858617970708F4BC0100D000D080E0F5
:1029D00090E040E050E0E884F98400E010E0AD8051
:1029E000BB24CC24DD246C80772488249924EDB783
:1029F000FEB761827282838294820E944D296B832A
:102A00000F900F900F900F9085E070E00E94FA25D4
:102A1000DF91CF911F910F91FF90EF90DF90CF90BA
:102A2000BF90AF909F908F907F906F900895FC0122
:102A30008CE39FE09383828384E0818381E08487B9
:102A400010820895CF93DF93EC018C8590E08F7115
:102A50009070892B21F584E10E94D825AA2797FD43
:102A6000A095BA2FBC01CD010E940C2A26EE3FE3AF
:102A70004EEC50E40E94982A0E94DE297B836A83F0
:102A800024E02983FE0120E084819581681779077D
:102A900010F4298307C02F5F32962430A9F78C8564
:102AA0008F5F8C87DF91CF910895FC0188E0808350
:102AB00089E0818387E0828386E0838384E0848366
:102AC00082E0858381E186831782108611861286D3
:102AD000138614861586089520E0FC01E60FF11D8B
:102AE0008781813009F421E0822F0895E62FF0E0FC
:102AF000423040F420E0E80FF91F878181508E3F7B
:102B000088F40FC0E80FF91F87818F3F11F420E090
:102B100009C020E090E0642F70E00E941A2B01971A
:102B200009F421E0822F08950F931F93CF93DF9331
:102B3000EC0110E00FEF888162E00E945A26888144
:102B40000E94ED262F81892B19F42F5F2F8307C058
:102B5000222349F02F3F11F41F8201C00F83888187
:102B600060E00E945A261F5F2196173021F7DF91FF
:102B7000CF911F910F910895FC01618F628F08958D
:102B8000FC01618F428F0895FC016435A8F547FD73
:102B900033C040338CF5818D942F959595959595FF
:102BA000772767FD70954770882399F0E4E59E02CA
:102BB000F0011124E60FF71FEC54FE4F81E090E086
:102BC00002C0880F991F4A95E2F72081282B2083A5
:102BD0000895E4E59E02F0011124E60FF71FEC547E
:102BE000FE4F81E090E002C0880F991F4A95E2F7FE
:102BF00080952081282320830895AF92BF92CF92A1
:102C0000DF92EF92FF920F931F93CF93DF93EC012C
:102C1000162FF42EE22EAA24402F552747FD50955B
:102C20008F2D992787FD9095481B590B57FF03C09F
:102C3000509541955F4F2E2D332727FD3095812FDD
:102C4000992787FD9095281B390B37FF03C03095D6
:102C500021953F4F2417350744F4AA24A3948F2DC0
:102C6000F12E182F802F0E2DE82EE11634F48E2D24
:102C7000E12E182F802F0F2DF82EDE2CD11A202FA9
:102C8000332727FD30958F2D992787FD9095281B99
:102C9000390B37FF03C0309521953F4FB22EF01608
:102CA0001CF0CC24CA9402C0CC24C3948D2DD7FC34
:102CB0008F5F082F059511C0AA2021F0CE016F2D3E
:102CC000412F03C0CE01612F4F2D0E94C4150B1957
:102CD00007FF02C0FC0C0D0D1F5FE1166CF7DF91C2
:102CE000CF911F910F91FF90EF90DF90CF90BF9009
:102CF000AF9008950F93042F322F262F2150230FCA
:102D00000E94FD150F9108950F93362F042F015047
:102D1000020F232F0E94FD150F9108959F92AF92ED
:102D2000BF92CF92DF92EF92FF920F931F93CF93B8
:102D3000DF936C01B62E942EA02EC0E0D0E0E62EDC
:102D4000FF24E7FCF094022F112707FD10950E0DCC
:102D50001F1D06C0C601492D2A2D0E9484162196EA
:102D60006B2D6C0FCE018E0D9F1D8017910794F374
:102D7000DF91CF911F910F91FF90EF90DF90CF9057
:102D8000BF90AF909F9008952F923F925F926F9265
:102D90007F928F929F92AF92BF92CF92DF92EF92EB
:102DA000FF920F931F93DF93CF9300D000D000D0FA
:102DB000CDB7DEB79E838D83C62ED42EEE24E3944A
:102DC000E21A8EEF289F502C1124842E8A94962E7E
:102DD0009A94A42EA394B62EB394F22E662423E0E4
:102DE000722E10E0C801847090709A838983F80174
:102DF000E270F070FC83EB8398E0292E312C2022C6
:102E000031220170107054C0E7FC04C0FA94F2E063
:102E10005F0EE50C639489819A81892B71F04F2DA7
:102E20004D0D8D819E816B2D0E94C4156F2D6C0DF3
:102E30008D819E814A2D0E94C415EB81FC81EF2B70
:102E400071F04D2D4F198D819E816B2D0E94C415FF
:102E50006F2D6C0D8D819E81482D0E94C41521140B
:102E6000310471F06C2D6F198D819E814A2D0E9465
:102E7000C4154F2D4D0D8D819E81692D0E94C41565
:102E80000115110571F06C2D6F198D819E81482DF2
:102E90000E94C4154D2D4F198D819E81692D0E9470
:102EA000C415E70CF2E07F0E8A949A94A394B3942D
:102EB0006F140CF4A9CF26960FB6F894DEBF0FBEA0
:102EC000CDBFCF91DF911F910F91FF90EF90DF90D9
:102ED000CF90BF90AF909F908F907F906F905F90BA
:102EE0003F902F9008954F925F926F927F928F92B2
:102EF0009F92AF92BF92CF92DF92EF92FF920F9389
:102F00001F93CF93DF93EC01A62E742E9E2DFF24EA
:102F1000F394F21A8EEF289F802C1124B42EBA94C9
:102F200053E0C52ECE0CE22EDD2443E0942E10E0BB
:102F300031E0432E512C40225122692E63940270BD
:102F4000107034C0F7FC04C0EA9482E0880EF80CDC
:102F5000D3944114510489F06D2D6A0D472D4E19FB
:102F60002E2D220F260DCE010E9484166E2D6A0D85
:102F7000CE014B2D2C2D0E9484160115110589F0D0
:102F80006A2D6D19472D4E192E2D220F260DCE01BB
:102F90000E9484166A2D6E19CE014B2D2C2D0E9495
:102FA0008416F90C82E0980EBA94C80EDE1454F21E
:102FB000DF91CF911F910F91FF90EF90DF90CF9015
:102FC000BF90AF909F908F907F906F905F904F9049
:102FD00008957F928F929F92AF92BF92CF92DF928D
:102FE000EF92FF920F931F936C01962EA42EF22E58
:102FF0007E2C760E1EEFE19E102D1124812E820E66
:10300000672D282D0E947A16B02EBA0CBA94C601EC
:10301000672D4B2D282D0E947A16AE0C100FC6017D
:10302000692D4A2D212F0E948416F90CFA94C601AD
:103030006F2D4A2D212F0E948416C601672D4A2D1F
:103040002E2D01E00E94C416FE18C6016F2D4A2DD8
:103050002E2D02E00E94C416BE18C6016F2D4B2D06
:103060002E2D04E00E94C416C601672D4B2D2E2D77
:1030700008E00E94C4161F910F91FF90EF90DF901F
:10308000CF90BF90AF909F908F907F9008958F9238
:103090009F92AF92BF92CF92DF92EF92FF920F93E7
:1030A0001F936C01162FA42E922EF02EBE2C8E2C68
:1030B000860E2EEFE29EE02C11242E2D290D682D78
:1030C0000E948E16AB0CFA94FE0C1150190D1B19B0
:1030D000C601612F4A2D2B2D01E0EF2C0E947317A2
:1030E000C601682D4A2D2B2D02E00E9473171F91F7
:1030F0000F91FF90EF90DF90CF90BF90AF909F9097
:103100008F9008953F924F925F926F927F928F922D
:103110009F92AF92BF92CF92DF92EF92FF920F9366
:103120001F93CF93DF934C01362E442EE901F90112
:10313000A4902196FE01549021978A2D992787FD0E
:103140009095079668E070E00E942E2BC62EDD2435
:10315000C7FCD09400E072E0E72EF12C60E8662E08
:10316000712C26C0E12FE595E595E595FF27E7FD54
:10317000F095EE0DFF1DEC0FFD1FE4912E2F30E0BA
:10318000812F8770A30102C0559547958A95E2F774
:1031900024233523232B31F0612F630DC4014B2DE4
:1031A0000E94C4151F5F1A15ECF20F5FEC0CFD1C9A
:1031B000051524F410E0B02EB40CF5CFDF91CF91BB
:1031C0001F910F91FF90EF90DF90CF90BF90AF9045
:1031D0009F908F907F906F905F904F903F90089559
:1031E0002F923F924F925F926F927F928F929F9217
:1031F000AF92BF92CF92DF92EF92FF920F931F9305
:10320000DF93CF9300D000D00F92CDB7DEB71C0173
:1032100069834A83A02E7E2CF901849031966490B4
:103220003197FD83EC83F3E0AF22882D992787FD4A
:103230009095079668E070E00E942E2B462E55244C
:1032400047FC5094962C9A94FF24E2E0CE2ED12C89
:10325000482D41504B8355C0E02FE595E595E59508
:10326000FF27E7FDF095EC0DFD1D8C819D81E80F9A
:10327000F91FE4912E2F30E0802F8770E0E8F0E016
:1032800002C0F595E7958A95E2F72E233F23232B7D
:1032900079F1F1E0AF1661F0AF1638F042E0A41614
:1032A00051F053E0A51661F409C0102FEF2C08C0AF
:1032B000EB2C1F2D05C01B2DE92C02C0192DE02E73
:1032C000772069F083E07822872D70FE03C0982D67
:1032D000911B192F81FF03C0E62DEE19EE2EF98107
:1032E0001F0F4A81E40EC101612F4E2D0E94C415AB
:1032F0000F5FBA9408150CF4AFCFF394C40CD51C2F
:103300009A94F6141CF4BB8000E0F4CF0F900F9059
:103310000F900F900F90CF91DF911F910F91FF9021
:10332000EF90DF90CF90BF90AF909F908F907F9065
:103330006F905F904F903F902F9008952F923F9203
:103340004F925F926F927F928F929F92AF92BF92B5
:10335000CF92DF92EF92FF920F931F93DF93CF9361
:1033600000D00F92CDB7DEB79B838A83562E742E82
:10337000422F102FFC01F18DF98383E586170CF4A1
:1033800089C0EFE2E7150CF485C0C02EDD2496015C
:10339000220F331F2C0D3D1D862F992787FD9095F9
:1033A000820F931F181619060CF074C0C901880FFC
:1033B000991F272D332727FD3095820F931F18164D
:1033C00019060CF067C083E0489F10011124AA245D
:1033D000B4E06B2EF3E0AF1611F480E009C0EA2DE3
:1033E000FF27E7FDF095E20DF31DE85EFD4F8491A8
:1033F000AC9C902C1124950CBB24A6E08A2E4A2C60
:10340000450CE82EFF2480FF16C0113041F44B2DEF
:10341000470D8A819B81642D0E94C4152CC0BC9CE1
:10342000402D1124470D8A819B81692D212F012F69
:103430000E948E1620C0EA81FB81928D818D9817A3
:10344000D1F0918F113041F44B2D470D8A819B8132
:10345000642D0E94C4150BC0BC9C402D1124470D47
:103460008A819B81692D212F012F0E948E168981CF
:10347000EA81FB81818FB3948A9421F0F594E794DB
:103480008E2DBFCFA3946A9409F0A4CF8981EA81DD
:10349000FB81818F0F900F900F90CF91DF911F9143
:1034A0000F91FF90EF90DF90CF90BF90AF909F90E3
:1034B0008F907F906F905F904F903F902F900895E6
:1034C0000F93CF93DF93EC01262F6A3031F48B8D6D
:1034D00026E0829FC00111242AC06D3061F16F89FE
:1034E000488D0B8D0E949E198B8D482F50E0CA018C
:1034F000880F991F880F991F2F89280F2F8B8C8D6C
:103500008823C9F0332727FD309585E190E0841B9F
:10351000950B880F991F880F991F821793075CF4EA
:10352000CA01880F991F840F951F880F991F288D36
:10353000280F288F1F8A81E090E0DF91CF910F91B3
:103540000895FC01678B408F0895FC01662309F400
:1035500061E0638F0895FC01648F08951F93CF93FA
:10356000DF93EC01162FF894888560E00E9499267D
:10357000898518161CF460E00E9499261EBD0DB4C2
:1035800007FEFDCF8EB5898518161CF461E00E94F8
:1035900099267894DF91CF911F910895FF920F9310
:1035A0001F93CF93DF93EC01FF2400E010E06F2D19
:1035B0006064CE010E94AE1ACE0160E80E94AE1A8D
:1035C000888561E00E949926898518161CF460E0C0
:1035D0000E949926F801EC54FE4F90E080818EBD48
:1035E0000DB407FEFDCF8EB59F5F31969435B1F7D0
:1035F000898518161CF461E00E949926F3940C5AF0
:103600001F4F86E0F81699F6CE0160E40E94AE1ACC
:10361000DF91CF911F910F91FF900895CF93DF938A
:10362000DC0188EF91E0E4EBF1E0EF019C011992FD
:1036300021503040E1F757961C92579758961C92AC
:10364000DF91CF910895EF920F93CF93DF93EC0129
:103650004F836E832887EA8609871F8A188E81E048
:103660008B8F898F1A8E8C8F1C820E948D1481E023
:103670000E946E1480E00E947C148CE00E947714FB
:103680008F8161E00E945A268E8161E00E945A2655
:10369000888561E00E945A268A8518161CF461E02C
:1036A0000E945A26898518161CF461E00E945A2649
:1036B0008A8518166CF460E00E94992665E070E037
:1036C00080E090E00E9444258A8561E00E9499266E
:1036D000EE812E2F332727FD3095F901EC59FB4F52
:1036E000E491F0E0EE0FFF1FE05BFB4F85919491BA
:1036F0009E878D8728583B4FF90184918C8BEF81F1
:103700002E2F332727FD3095F901EC59FB4FE4911B
:10371000F0E0EE0FFF1FE05BFB4F859194919C87DB
:103720008B8728583B4FF90184918B8BE9852E2F8D
:10373000332727FD3095F901EC59FB4FE491F0E078
:10374000EE0FFF1FE05BFB4F85919491988B8F8765
:1037500028583B4FF90184918D8BE8852E2F332714
:1037600027FD3095F901EC59FB4FE491F0E0EE0FA5
:10377000FF1FE05BFB4F859194919A8B898B2858B2
:103780003B4FF90184918E8BCE0161E20E94AE1A0B
:10379000CE0164E10E94AE1A8D8187FF02C08FE7DF
:1037A0008D836D816068CE010E94AE1ACE0160E209
:1037B0000E94AE1ACE016CE00E94AE1ACE010E94A9
:1037C000CE1ADF91CF910F91EF900895FC0115AAC9
:1037D00014AA84EE93E093AB82AB0895FC01ED59FB
:1037E000FF4F6193719340830895CF93DF93DC0182
:1037F000E0E8FFE685919491ED01C15BDF4F8150D8
:10380000904C09F04FC0E6E9FFE6E491D796EC93BF
:10381000D797E7E9FFE6E4911496EC931497E8E96B
:10382000FFE6E4911596EC931597E9E9FFE685919B
:10383000949117969C938E931697EBE9FFE68591EA
:10384000949119969C938E931897EDE9FFE6E49175
:103850009796EC939797EEE9FFE6E4919696EC93B2
:103860009697EFE9FFE6E491E883E0EAFFE68591C9
:1038700094915D969C938E935C97E2EAFFE6859126
:1038800094915F969C938E935E97E4EAFFE6859110
:10389000949191969C938E939097E6EAFFE685919A
:1038A000949134C08CE3D7968C93D79714961C923E
:1038B000149780E815968C93159780E293E01796FD
:1038C0009C938E93169784ED93E019969C938E9318
:1038D000189783E097968C93979796968C939697E4
:1038E00088E288838CEA9DE05D969C938E935C973A
:1038F00080E19EE05F969C938E935E9784E79EE0C6
:1039000091969C938E9390978CE39FE093969C93D3
:103910008E939297DF91CF9108958F929F92AF925D
:10392000BF92CF92DF92EF92FF920F931F93DF939C
:10393000CF93CDB7DEB76E157F050CF452C0C5012D
:103940008E0D9F1D681779070CF04BC04C155D0557
:103950000CF447C0C4018C0D9D1D481759078CF10C
:1039600040C0C5018E0D9F1D281739070CF043C0BC
:103970004C155D050CF43FC0C4018C0D9D1D48170E
:103980005907FCF038C0C5018E0D9F1D68177907D7
:10399000CCF54C155D05B4F1C4018C0D9D1D481787
:1039A00059077CF02FC0AE0CBF1C2A153B055CF4F8
:1039B0004C155D0544F080E08C0C9D1C48155905A4
:1039C0001CF481E001C080E0CF91DF911F910F9145
:1039D000FF90EF90DF90CF90BF90AF909F908F902F
:1039E000089561507040260F371F6F5F7F4F2E156F
:1039F0003F050CF0B6CF41505040400F511F6E159F
:103A00007F050CF62E153F0574F6DDCFEF92FF9281
:103A10000F931F93CF93DF937C018C010E5C1F4F9C
:103A2000C8010E940E1BC80167ED73E00E94792750
:103A3000C8010E94CE1A8AE591E0EEEFFFE30995F6
:103A4000F70116AAC80162EB73E00E94C427C801FF
:103A50000E94CE1AE7012A96CE010E949415CE014B
:103A600064E00E946C15882339F462E370E080E022
:103A700090E00E944425F0CFDF91CF911F910F91EC
:103A8000FF90EF9008950F931F93CF93DF93EC0176
:103A90008C010E5C1F4FC80161E040E00E94C01520
:103AA000C80161E540E00E94A11A698D623038F0DA
:103AB000888D882321F06B5FC8010E949C27898D27
:103AC0008130D1F4C05BDF4F88819981AA81BB81AD
:103AD000C055D0408F709070A070B0709E012E5C69
:103AE0003F4F0897A105B10518F4C90167E002C06E
:103AF000C90168E70E949C27898D882329F5CE019A
:103B000085960E948623CE0160E00E94AA14C80117
:103B10000E940E1BCE01C29662EE73E00E947927CE
:103B2000C8010E94CE1A83B7817F846083BF83B7A8
:103B3000816083BF83B7816083BF889583B78E7FA1
:103B400083BF83B78E7F83BFDF91CF911F910F918A
:103B50000895CF92DF92EF92FF920F931F93CF932E
:103B6000DF93EC01CB59DF4F8881C556D0408823C5
:103B7000C9F18C3010F010E002C01CE0181B52E3B9
:103B8000C52ED12CCC0EDD1EC60161E00E94A51A07
:103B9000C60160E00E94BC1547E2F42EF10EC6019A
:103BA00060E04F2D24E509E033E0E32E0E94471842
:103BB000C60161E00E94BC15C60160E04F2D24E5FE
:103BC0000E94E917175DC60164E0412F0E94A11A07
:103BD000CD59DF4F69917991C6010E94792788817B
:103BE00081508883DF91CF911F910F91FF90EF90CB
:103BF000DF90CF900895AF92BF92CF92DF92EF9275
:103C0000FF920F931F93CF93DF93EC017FE5A72ED5
:103C1000B12CA80EB91EF501E080F180028113815C
:103C20000E941025E61AF70A080B190B6EE5C62E3E
:103C3000D12CCC0EDD1EF601808190E0A0E0B0E03A
:103C40008E159F05A007B10708F075C08E01065AB2
:103C50001F4FF80180819181A281B3810097A10556
:103C6000B10509F468C00E941025F6012081620F99
:103C7000711D811D911DF501608371838283938382
:103C8000FE01E05BFF4F80819181A281B3810196AB
:103C9000A11DB11D80839183A283B383F80110829B
:103CA0001182128213820E941E25CA5ADF4F688336
:103CB00079838A839B83C655D040CE010E94AF147E
:103CC000CE010A960E949415CE0148960E942215B4
:103CD000CE0185960E94CA2381E022C0CE010E94B7
:103CE000A91DCE010E94431D8E010E5C1F4FC8010D
:103CF0000E94CE1A8EA9882319F4C8010E940E1BB7
:103D00000E941E25C65ADF4F688379838A839B836E
:103D1000249728813981621B730B7A936A9380E020
:103D2000DF91CF911F910F91FF90EF90DF90CF9097
:103D3000BF90AF900895C65ADF4F88819981AA81BC
:103D4000BB81CA55D0400097A105B10541F7C6CF48
:103D50008F929F92AF92BF92CF92DF92EF92FF929B
:103D60000F931F93CF93DF934C01B5E2AB2EB12C91
:103D7000A80EB91EEC01E296AAE0CA2ED12CC80EFC
:103D8000D91EFCE0FF2EC4010E94FB1D8130D9F733
:103D9000C5010E94A023182FCE0161E00E94A51A40
:103DA000CE0161E00E94BC15CE0168E140E10E94B5
:103DB000A11ACE016EEF73E00E94C427CE0168E124
:103DC0004CE124E207E0E3E0EE2E0E94E917112324
:103DD00041F01F9D90011124CE0168E14CE10E9449
:103DE0004718C60162E00E946C15882331F4C601B1
:103DF00061E00E946C15882341F0612F6F5FC5015F
:103E00000E949123C5010E94A323C60160E00E9485
:103E10006C15882331F4C60163E00E946C15882379
:103E200041F01150C501612F0E949123C5010E94EC
:103E3000B023C60166E00E946C15882309F4A3CF65
:103E4000DF91CF911F910F91FF90EF90DF90CF9076
:103E5000BF90AF909F908F9008952F923F924F9276
:103E60005F926F927F928F929F92AF92BF92CF920A
:103E7000DF92EF92FF920F931F93DF93CF93CDB713
:103E8000DEB761970FB6F894DEBF0FBECDBF2C0131
:103E900078876F834987DC01D6961C92842F90E047
:103EA000EF81F885E80FF91F31971082FAE06F2E45
:103EB000712C640C751CE5E28E2E912C840C951CE3
:103EC00072E3C72ED12CC40CD51CAA241C82B2E0EC
:103ED000BB83E4E5EA83F0E3F9839201205B3F4F83
:103EE0003B872A879D878C8701979F878E87C20192
:103EF0000E94FB1D8823D9F3C30163E044E00E94C4
:103F00007615882331F03B813F5F3B83C4010E94DB
:103F1000BD23C30161E044E00E947615882331F09F
:103F20004B8141504B83C4010E94BD23C30162E019
:103F300044E00E947615882331F05C815F5F5C83EA
:103F4000C4010E94BD23C30160E044E00E947615D5
:103F5000882331F08C8181508C83C4010E94BD2361
:103F60009C81903111F41C8205C0AC81AF3F11F4EB
:103F7000BFE0BC83EB81E83011F41B8205C0FB81FC
:103F8000F7FF02C027E02B834C81552747FD509552
:103F90005E834D835B81252E332427FC3094AD81D5
:103FA000BE81EBEFFFEFAE9FC001AF9F900DBE9FB4
:103FB000900D1124895D992787FD9095FA812F2F07
:103FC000332727FD3095820F931F62E070E00E9437
:103FD0002E2B6A8329EF3FEF229EC001239E900D76
:103FE000329E900D1124825F992787FD909549811B
:103FF000242F332727FD3095820F931F62E070E056
:104000000E942E2B6983C30164E00E946C158823F3
:1040100069F12A2D332727FD30958E859F85281736
:104020003907B4F4C10164E0880F991F6A95E1F77C
:10403000AC818A0F09F45BCF8A3009F458CF8D30F8
:1040400009F455CFEF81F885E20FF31F80831182C9
:10405000A394C4010E94A3238A2D992787FD9095DC
:10406000EC85FD85E817F9070CF4A984C30165E028
:104070000E946C15882389F0AA94C4010E94B02381
:10408000A7FE02C0AA2409C0EA2DFF27E7FDF0958C
:104090002F813885E20FF31F1082C30166E00E9472
:1040A0006C15882309F448C0C4010E94A323C201EF
:1040B0000E94FB1D8823D9F3C60160E040E00E9406
:1040C000A11AC60168E274E00E94C427C6016F818C
:1040D00078850E943729C60167E174E00E94C427F1
:1040E000C30164E00E946C158823E1F0C4010E94C2
:1040F000A32361960FB6F894DEBF0FBECDBFCF915C
:10410000DF911F910F91FF90EF90DF90CF90BF90C4
:10411000AF909F908F907F906F905F904F903F9067
:104120002F900895C30165E00E946C15882309F45F
:10413000BECFC4010E94B023EE24FF24BB241EC0C6
:104140002889622F660F660F620F3A81630F2B0D6D
:10415000C601412F01E00E949E19488959894F5F8D
:104160005F4F598B488B4031510551F70894E11C42
:10417000F11C50E1B50E80E8B81649F097E0E99ED1
:10418000102D1124A9811A0F198A188AD9CF1A81E2
:104190001A514981495FC601612F0E94A11AC601C7
:1041A00061E174E00E9479274981425FC601612F75
:1041B0000E94A11AC6016BE074E00E947927498130
:1041C0004B5EC601612F0E94A11AC60165E074E032
:1041D0000E947927C60160E00E94BC158D819E81F6
:1041E000880F991F880F991FED81FE818E0F9F1FE9
:1041F0000A81080FC10143E0880F991F4A95E1F732
:10420000821993091981180F01501250C601602FAD
:10421000412F27E00E947A16C60161E00E94BC157A
:1042200001501150C601602F412F27E00BE033E011
:10423000E32E0E94E917C60160E048E224E50E94EF
:104240007A16C60160E00E94BC15C60160E049E232
:1042500024E507E00E948E16C60160E04AE20E9453
:10426000A11AC60161E00E94BC15C6016F81788564
:104270000E943729EA85FB8580819181A281B381E3
:1042800087709070A070B0700497A105B10508F018
:104290002ECE6A2D772767FD70952E853F85621794
:1042A00073070CF024CE660F771F660F771FC601C9
:1042B0004AE22FE501E00E949E1919CE2F923F920B
:1042C0004F925F926F927F928F929F92AF92BF9226
:1042D000CF92DF92EF92FF920F931F93DF93CF93D2
:1042E000CDB7DEB72B970FB6F894DEBF0FBECDBFAC
:1042F0003C016F8378874E83FC0116AA8AE0882EE2
:10430000912C860C971C05E2402E512C460C571C14
:10431000242E3324C101880F991F820D931D80958F
:104320009095F82FFF0FF983B2E3CB2ED12CC60C5A
:10433000D71CFF2420E32D831C821B823FEF3A838E
:1043400041504987C3010E94FB1D8823D9F3C40152
:1043500064E00E946C15882369F4C40165E00E9442
:104360006C15882339F4C40166E00E946C1588231B
:1043700009F4CBC0C40164E00E946C15882329F0C5
:10438000C2010E94A323FA82C5C0C2010E94B023C9
:10439000C1C0C40163E044E00E947615882321F087
:1043A000F394C2010E94BD23C40161E044E00E9475
:1043B0007615882321F0FA94C2010E94BD238F2D27
:1043C000992787FD90958215930511F4FF2402C06B
:1043D000F7FCF9844F2DEAEF4E02C0011124F82FAB
:1043E000F65FFC832AC02D81822F992787FD909547
:1043F0004C81242F332727FD3095821B930B029786
:10440000D4F48A812B960FB6F894DEBF0FBECDBFD1
:10441000CF91DF911F910F91FF90EF90DF90CF90A0
:10442000BF90AF909F908F907F906F905F904F90D4
:104430003F902F90089581E08B83EC818E2F9927F8
:1044400087FD9095FD812F2F332727FD3095820F13
:10445000931F62E070E00E942E2B6D83C60160E026
:104460004D810E94A11AC60161E00E94A51AC601F1
:1044700060E00E94AB1A2F813885C9019B878A872B
:1044800010E0AF2CBB24A7FCB0941BC0812F90E0A0
:104490008A159B0561F48A852F81821B482F440F62
:1044A000480F3D81430FC60163E00E94A11AEA85CF
:1044B000FB8561917191FB87EA87C6010E943A29C9
:1044C0001F5FFE811F1710F3C60160E00E94BC153C
:1044D0002F2D36E02302C00111241D81180F115029
:1044E000C60160E0412F24E50E947A16C60161E012
:1044F0000E94BC151150C60160E0412F24E509E07F
:10450000A3E0EA2E0E94E9171DCF4B81442309F056
:104510006ACF3FCF89818C8366CF4F925F926F9233
:104520007F928F929F92AF92BF92CF92DF92EF9243
:10453000FF920F931F93CF93DF93EC012B016A013E
:10454000C25ADF4F82E38993188219821A821B8232
:104550002F97188219821A821B822A9681E090E096
:10456000A0E0B0E088839983AA83BB832B978FEF69
:104570008883CF54D040CE010E94F51BCE010E940B
:10458000A4146AE0662E712C6C0E7D1EC3010E947D
:104590005515CE0148960E94171555E2A52EB12C4F
:1045A000AC0EBD1EC5010E94882442E3842E912CCE
:1045B0008C0E9D1EC4016DE04BE020E10FE03EE05B
:1045C000E32E0E94231BCE0160E80E94AA1481E022
:1045D0008EABC114D10411F400E009C0F6010491BE
:1045E0000E5FC40160E04CE096010E948218C40195
:1045F000602F4CE00E94A11ACE01C296B2010E9427
:1046000079278E01015B1F4FF8018081882309F40F
:1046100049C0C50168E973E040E00E946C2378015D
:1046200090E5C92ED12CCC0EDD1ECE010E94FB1DC3
:104630008823D9F3C30165E00E946C15882321F01B
:10464000C50160E00E949123C30164E00E946C15E3
:10465000882391F4F7016081262F30E040E050E09C
:10466000F60180819181A281B38182179307A4070B
:10467000B50760F16F3F51F1C50160E00E947923F9
:1046800011C0C40168E44FE128E701E00E949E19CF
:10469000C30166E00E946C15882339F2CE010E94A6
:1046A000061DC3CF1EAA81E0888FDF91CF911F9195
:1046B0000F91FF90EF90DF90CF90BF90AF909F90C1
:1046C0008F907F906F905F904F900895C5010E94EA
:1046D000A0238823E9F6D5CFFC01442349F4748351
:1046E000638381E083871286118610868093DA05C2
:1046F0000895FC01662349F413861092DD0510929B
:10470000DC051092DA051092B4000895FC011386BE
:104710001092DD051092DC051092DA051092B400BB
:104720000895FC01772767FD7095828190E08617D8
:1047300097070CF4BC01862F67FD80E08183089504
:10474000FC0181810895FC0186E394E094838383D6
:1047500081E083871286118610868093DA0508959A
:10476000FC018CE394E09483838381E08387128649
:10477000118610868093DA050895FC0182E494E0A6
:104780009483838381E083871286118610868093C9
:10479000DA050895CF93DF93EC01F8948B85882395
:1047A00009F459C08A85882309F052C08885998503
:1047B000880F991FEB81FC81E80FF91FA591B49137
:1047C000109789F48C85882321F01986188681E05A
:1047D00041C01B861092DD051092DC051092DA05AF
:1047E0001092B40038C0AD0124E0569547952A9543
:1047F000E1F7FD01EF2FFF27E695E695E355FC4F26
:1048000060818A2F81708093DE052D818981289FA8
:1048100090011124B695A7958A2F877090E0FC012E
:104820002E9FC0012F9F900D3E9F900D11248093CD
:10483000DC058093DD054F738881489F402D11244E
:104840004A876093DB0588859985019699878887D3
:104850008A8581508A877894DF91CF9108956091FD
:10486000DC05662381F18091D9058F5F8093D9059E
:104870009091DB05891738F130E08091DA058823C3
:1048800009F431E03093DA051092D9058091DE0504
:104890008823A9F08091AC0323E4829FC0011124F6
:1048A000895B8093AC0390E070E00E941A2B8093A8
:1048B000DD0505C08091DD058093B40008953323A4
:1048C000C9F780E0F9CF08951F920F920FB60F92AB
:1048D00011242F933F934F935F936F937F938F9305
:1048E0009F93AF93BF93EF93FF930E942F24FF9169
:1048F000EF91BF91AF919F918F917F916F915F9158
:104900004F913F912F910F900FBE0F901F901895D0
:10491000FC0181E080838CE0858383E061E070E0CE
:104920000E94FA25E1EBF0E08081887F816080833E
:10493000F89410928000E1E8F0E010821092850077
:104940001092840088E191E0909389008093880020
:10495000808188608083808181608083EFE6F0E0E1
:1049600080818260808378940895F999FECF72BD2A
:1049700061BDF89A80B50895F999FECF1FBA72BD4E
:1049800061BD40BD0FB6F894FA9AF99A0FBE08952A
:104990001F920F920FB60F9211242F933F938F9374
:1049A0009F93AF93BF938091E4059091E505A0910B
:1049B000E605B091E7053091E8050196A11DB11D0E
:1049C000232F2D5F2D3720F02D570196A11DB11DEE
:1049D0002093E8058093E4059093E505A093E60510
:1049E000B093E7058091E0059091E105A091E20583
:1049F000B091E3050196A11DB11D8093E005909350
:104A0000E105A093E205B093E305BF91AF919F91BB
:104A10008F913F912F910F900FBE0F901F9018957F
:104A20008FB7F8942091E4053091E5054091E605B3
:104A30005091E7058FBFB901CA0108959FB7F89457
:104A40002091E0053091E1054091E2055091E305A8
:104A500086B5A89B06C08F3F21F02F5F3F4F4F4F79
:104A60005F4F9FBF542F432F322F2227280F311D16
:104A7000411D511D82E0220F331F441F551F8A958F
:104A8000D1F7B901CA0108959B01AC017FB7F89431
:104A90008091E0059091E105A091E205B091E305D8
:104AA00066B5A89B05C06F3F19F00196A11DB11D09
:104AB0007FBFBA2FA92F982F8827860F911DA11D80
:104AC000B11D62E0880F991FAA1FBB1F6A95D1F71D
:104AD000BC012DC0FFB7F8948091E0059091E105ED
:104AE000A091E205B091E305E6B5A89B05C0EF3FB4
:104AF00019F00196A11DB11DFFBFBA2FA92F982F44
:104B000088278E0F911DA11DB11DE2E0880F991F0E
:104B1000AA1FBB1FEA95D1F7861B970B885E9340AF
:104B2000C8F2215030404040504068517C4F211520
:104B300031054105510571F60895789484B5826078
:104B400084BD84B5816084BD85B5826085BD85B531
:104B5000816085BDEEE6F0E0808181608083E1E8E0
:104B6000F0E0108280818260808380818160808318
:104B7000E0E8F0E0808181608083E1EBF0E080811B
:104B800084608083E0EBF0E0808181608083EAE7ED
:104B9000F0E0808184608083808182608083808176
:104BA000816080838081806880831092C100089535
:104BB000982F8E3008F09E5097708091DF03829579
:104BC000880F880F807C892B80937C0080917A00ED
:104BD000806480937A0080917A0086FDFCCF2091DA
:104BE000780040917900942F80E030E0282B392B19
:104BF000C90108951F93CF93DF93182FEB0161E054
:104C00000E945A26209709F44AC0CF3FD10509F4E3
:104C100049C0E12FF0E0E457FB4F84918330C1F0AD
:104C2000843028F4813051F08230B1F50CC08630E8
:104C300019F1873049F1843079F514C084B5806862
:104C400084BDC7BD33C084B5806284BDC8BD2EC0DD
:104C500080918000806880938000D0938900C09309
:104C6000880024C080918000806280938000D0936F
:104C70008B00C0938A001AC08091B0008068809336
:104C8000B000C093B30012C08091B00080628093E6
:104C9000B000C093B4000AC0C038D1051CF4812F05
:104CA00060E002C0812F61E00E949926DF91CF91E0
:104CB0001F910895CF93DF93482F50E0CA01885881
:104CC0009B4FFC0134914C595B4FFA01849188232E
:104CD00069F190E0880F991FFC01EA5BFB4FA591F9
:104CE000B491FC01E05BFB4FC591D491662351F474
:104CF0002FB7F8948C91932F909589238C9388816A
:104D000089230BC0623061F42FB7F8948C91932FF4
:104D1000909589238C938881832B88832FBF06C02D
:104D20009FB7F8948C91832B8C939FBFDF91CF9189
:104D30000895482F50E0CA0184579B4FFC012491ED
:104D4000CA0188589B4FFC0194914C595B4FFA0162
:104D50003491332309F440C0222351F1233071F000
:104D6000243028F42130A1F0223011F514C026306F
:104D7000B1F02730C1F02430D9F404C08091800014
:104D80008F7703C0809180008F7D8093800010C05A
:104D900084B58F7702C084B58F7D84BD09C08091B2
:104DA000B0008F7703C08091B0008F7D8093B000FA
:104DB000E32FF0E0EE0FFF1FE05BFB4FA591B491F6
:104DC0002FB7F894662321F48C919095892302C023
:104DD0008C91892B8C932FBF0895682F70E0CB01A5
:104DE00084579B4FFC012491CB0188589B4FFC01B9
:104DF00044916C597B4FFB019491992319F420E065
:104E000030E03CC0222351F1233071F0243028F4EB
:104E10002130A1F0223011F514C02630B1F0273036
:104E2000C1F02430D9F404C0809180008F7703C092
:104E3000809180008F7D8093800010C084B58F7733
:104E400002C084B58F7D84BD09C08091B0008F778A
:104E500003C08091B0008F7D8093B000892F90E0D7
:104E6000880F991F865A9B4FFC01A591B4918C9194
:104E700020E030E0842311F021E030E0C901089502
:104E8000CF93DF930E949D250E944514C0E0D0E09F
:104E90000E9442142097E1F30E940000F9CFCF92C4
:104EA000DF92EF92FF920F931F93CF93DF937C01DA
:104EB0006B018A01C0E0D0E00FC0D6016D916D0199
:104EC000D701ED91FC910190F081E02DC70109958A
:104ED000C80FD91F015010400115110571F7CE01FF
:104EE000DF91CF911F910F91FF90EF90DF90CF90C6
:104EF0000895EF92FF920F931F93CF93DF937C015E
:104F00008B01C0E0D0E0F8010F5F1F4F6491662372
:104F100059F0D701ED91FC910190F081E02DC7018E
:104F20000995C80FD91FEFCFCE01DF91CF911F9107
:104F30000F91FF90EF900895DC01ED91FC910190AD
:104F4000F081E02D09950895EF92FF920F931F9342
:104F50008C01DC01ED91FC910190F081E02D6DE080
:104F600009957C01D801ED91FC910190F081E02D33
:104F7000C8016AE009959C012E0D3F1DC9011F91D2
:104F80000F91FF90EF900895EF92FF920F931F9370
:104F90007C010E9479278C01C7010E94A4279C01F3
:104FA000200F311FC9011F910F91FF90EF900895BD
:104FB000CF93DF93EC016115710519F420E030E027
:104FC0000FC0DB010D900020E9F71197A61BB70B6E
:104FD000E881F9810280F381E02DAD0109959C0102
:104FE000C901DF91CF9108954F925F927F928F9286
:104FF0009F92AF92BF92CF92DF92EF92FF920F9368
:105000001F93DF93CF93CDB7DEB7A1970FB6F89478
:10501000DEBF0FBECDBF2C01742ECB01223008F4B1
:105020002AE019A231E2C32ED12CCC0EDD1E822E35
:105030009924AA24BB24672D752FA50194010E94F1
:10504000412B79018A01C801B701A50194010E9491
:10505000FB2A472D461B0894C108D1084A3014F496
:10506000405D01C0495CF6014083E114F104010593
:10507000110521F07E2C5F2DC801DDCFC201B601E4
:105080000E94D827A1960FB6F894DEBF0FBECDBF01
:10509000CF91DF911F910F91FF90EF90DF90CF9014
:1050A000BF90AF909F908F907F905F904F900895AA
:1050B000DC012115310541F4ED91FC910190F08165
:1050C000E02D642F099508950E94F4270895EF922A
:1050D000FF920F931F939A017B0100E010E0B8014B
:1050E000A7010E9458281F910F91FF90EF900895FB
:1050F000CF92DF92EF92FF920F931F936C017B018F
:105100009A0100E010E0B801A7010E9458288C0124
:10511000C6010E94A427080F191FC8011F910F91F3
:10512000FF90EF90DF90CF900895EF92FF920F9352
:105130001F939A01E62EFF2400E010E0B801A701BA
:105140000E9458281F910F91FF90EF900895CF92E1
:10515000DF92EF92FF920F931F936C01E62E9A015C
:10516000FF2400E010E0B801A7010E9458288C013C
:10517000C6010E94A427080F191FC8011F910F9193
:10518000FF90EF90DF90CF900895CF92DF92EF9253
:10519000FF920F931F93CF93DF93EC016A017B0182
:1051A0002115310541F4E881F9810190F081E02D6C
:1051B000642F09951FC02A303105D1F477FF17C03D
:1051C000E881F9810190F081E02D6DE209958C0173
:1051D00044275527BA014C195D096E097F09CE0194
:1051E0002AE00E94F4279801280F391F04C02AE002
:1051F0000E94F4279C01C901DF91CF911F910F916B
:10520000FF90EF90DF90CF900895EF92FF920F9371
:105210001F937B019A010027F7FC0095102FB8011E
:10522000A7010E94C5281F910F91FF90EF9008954C
:10523000CF92DF92EF92FF920F931F936C017B014D
:105240009A010027F7FC0095102FB801A7010E94D2
:10525000C5288C01C6010E94A427080F191FC80188
:105260001F910F91FF90EF90DF90CF9008950E94D3
:10527000D8270895EF92FF920F931F937C010E940D
:10528000D8278C01C7010E94A427080F191FC80145
:105290001F910F91FF90EF9008952F923F924F92A0
:1052A0005F926F927F928F929F92AF92BF92CF92B6
:1052B000DF92EF92FF920F931F93DF93CF93CDB7BF
:1052C000DEB73B014C0119012A016D897E898F8966
:1052D000988D6A197B098C099D09621A730A840AE0
:1052E000950AA40193010E94FB2AE218F30804091D
:1052F0001509A80197010E94632B2A0D3B1D4C1D27
:105300005D1DB901CA01CF91DF911F910F91FF90EF
:10531000EF90DF90CF90BF90AF909F908F907F9055
:105320006F905F904F903F902F900895EF92FF9273
:105330000F931F937B018C01611571058105910508
:1053400029F420E030E040E050E00BC00E94CE02A3
:10535000A80197010E94632BAC01CB01DA019C01EB
:10536000AD01B901CA011F910F91FF90EF9008950F
:10537000EF92FF920F931F937B018C0162177307CB
:105380008407950764F4261B370B480B590BCA0199
:10539000B9010E949629E60EF71E081F191FB701D2
:1053A000C8011F910F91FF90EF900895009729F089
:1053B000BC0180E090E00E94D302089598D088F06C
:1053C0009F5790F0B92F9927B751A0F0D1F0660FF1
:1053D000771F881F991F1AF0BA95C9F712C0B1300C
:1053E00081F09FD0B1E008959CC0672F782F882767
:1053F000B85F39F0B93FCCF3869577956795B3954B
:10540000D9F73EF490958095709561957F4F8F4FB9
:105410009F4F0895E89409C097FB3EF490958095BE
:10542000709561957F4F8F4F9F4F9923A9F0F92F6A
:1054300096E9BB279395F695879577956795B795E8
:10544000F111F8CFFAF4BB0F11F460FF1BC06F5FCE
:105450007F4F8F4F9F4F16C0882311F096E911C0E0
:10546000772321F09EE8872F762F05C0662371F001
:1054700096E8862F70E060E02AF09A95660F771F15
:10548000881FDAF7880F9695879597F9089597F909
:105490009F6780E870E060E008959FEF80EC0895DA
:1054A00000240A9416161706180609060895002403
:1054B0000A9412161306140605060895092E03947D
:1054C000000C11F4882352F0BB0F40F4BF2B11F4F1
:1054D00060FF04C06F5F7F4F8F4F9F4F089557FD50
:1054E0009058440F551F59F05F3F71F04795880F52
:1054F00097FB991F61F09F3F79F0879508951216E9
:1055000013061406551FF2CF4695F1DF08C0161694
:1055100017061806991FF1CF869571056105089445
:105520000895E894BB2766277727CB0197F908955C
:105530000BD0C4CFB5DF28F0BADF18F0952309F0FF
:10554000A6CFABCF1124EECFCADFA0F3959FD1F346
:10555000950F50E0551F629FF001729FBB27F00D21
:10556000B11D639FAA27F00DB11DAA1F649F662776
:10557000B00DA11D661F829F2227B00DA11D621FC5
:10558000739FB00DA11D621F839FA00D611D221F7F
:10559000749F3327A00D611D231F849F600D211D63
:1055A000822F762F6A2F11249F5750408AF0E1F006
:1055B00088234AF0EE0FFF1FBB1F661F771F881F4F
:1055C00091505040A9F79E3F510570F060CFAACF8F
:1055D0005F3FECF3983EDCF3869577956795B7953A
:1055E000F795E7959F5FC1F7FE2B880F911D969564
:1055F000879597F90895629FD001739FF001829F6C
:10560000E00DF11D649FE00DF11D929FF00D839F51
:10561000F00D749FF00D659FF00D9927729FB00DEE
:10562000E11DF91F639FB00DE11DF91FBD01CF0101
:1056300011240895AA1BBB1B51E107C0AA1FBB1F61
:10564000A617B70710F0A61BB70B881F991F5A950E
:10565000A9F780959095BC01CD01089597FB092E7F
:1056600007260AD077FD04D0E5DF06D000201AF423
:10567000709561957F4F0895F6F7909581959F4FAE
:105680000895A1E21A2EAA1BBB1BFD010DC0AA1F83
:10569000BB1FEE1FFF1FA217B307E407F50720F09B
:1056A000A21BB30BE40BF50B661F771F881F991F16
:1056B0001A9469F760957095809590959B01AC015F
:1056C000BD01CF01089597FB092E05260ED057FD89
:1056D00004D0D7DF0AD0001C38F45095409530959F
:1056E00021953F4F4F4F5F4F0895F6F79095809566
:1056F000709561957F4F8F4F9F4F0895EE0FFF1F5D
:105700000590F491E02D09942F923F924F925F9271
:105710006F927F928F929F92AF92BF92CF92DF92C1
:10572000EF92FF920F931F93CF93DF93CDB7DEB726
:10573000CA1BDB0B0FB6F894DEBF0FBECDBF0994BA
:105740002A88398848885F846E847D848C849B8411
:10575000AA84B984C884DF80EE80FD800C811B811F
:10576000AA81B981CE0FD11D0FB6F894DEBF0FBE4E
:0A577000CDBFED010895F894FFCFBE
:10577A004D6F62733A002F004B696C6C65643A0096
:10578A002E3335370050393000414B3437005250F0
:10579A0047004D47343200526573756D6500526596
:1057AA00737461727400486967682073636F726505
:1057BA007300566F6C756D650053797374656D204F
:1057CA00696E666F0045786974004C4F41444552D2
:1057DA0000010000000A641001150119011E0122CE
:1057EA000102010203020A020305041E01021E014C
:1057FA00040503020501020100020302030003007B
:10580A00000103030F27F4012C0114009600700015
:10581A007A0082009000860027012E01360142019B
:10582A00490155010000F0FC0E024341C1C101804B
:10583A00E0705C4F7FFC8000C0F03E1FFFE0E07824
:10584A001CFFFF0080FF7F111111110100C0FF3FF3
:10585A0011193FE6C000F8FF07000000F8FF07E053
:10586A00FF1FC0FF3F0E3CF0C0E0FF1F00F8FC0620
:10587A0003010183FE7C0000000000010302020311
:10588A0003000203010000000003030203010000F9
:10589A0003030000000303000303020202020202E0
:1058AA0000030302020203010100010302020203D0
:1058BA0001000003030003030000000001030300CA
:1058CA0000000103020203010000000000000000C2
:1058DA0000000000000000000000000000000000BE
:1058EA0000000000000000000000000000000000AE
:1058FA00000000000000000000000000000000009E
:10590A00000000000000000000000000000000C0CD
:10591A002010D0901020C000000000C060A060C01D
:10592A00000000000000000000000000000000006D
:10593A00000000000000000000000000000000005D
:10594A00000000000000000000000000000000004D
:10595A00000000000000000000000000000000003D
:10596A0000000007081097131108078000000007BD
:10597A008C8E8C0700000000000000000000000070
:10598A00000000000000000000000000000000000D
:10599A0000000000000000000000000000000000FD
:1059AA0000000000000000000000000000000000ED
:1059BA000000000000001E1E1E3F7F000C211E403A
:1059CA003F00001F3035311F0000000000000000BA
:1059DA0000000000000000000000000000000000BD
:1059EA0000000000000000000000000000000000AD
:1059FA00000000000000000000000000000000009D
:105A0A0000000000000000000000FE9D85858586DC
:105A1A008484E41C0000007CC6D6D67C01DBCFC39C
:105A2A00B8AEA49B938A837B746E68625C57524EAD
:105A3A004A45423E3A3734312E2C29272523211F45
:105A4A001D0000000000000000000000000000012E
:085A5A0000000000601A4F2754
:00000001FF
