:100000000C9484010C94AC010C94AC010C94AC01E4
:100010000C94AC010C94AC010C94AC010C94AC01AC
:100020000C94AC010C94AC010C94AC010C94830CBA
:100030000C94AC010C94AC010C94AC010C94AC018C
:100040000C94D40C0C94AC010C94AC010C94AC0149
:100050000C94AC010C94AC010C94AC010C94AC016C
:100060000C94AC010C94AC0148656C6C6F20576F1C
:10007000726C6421004C6574277320676F21004DFA
:10008000792066697273742067616D65003F213F56
:100090000A100A1208120E1C0E0C1E0C141A14164A
:1000A0001F161E131E1E1B1E1E1F1E3F213F3A2F12
:1000B0003A173D173F213F181F02040A041F0E0480
:1000C000040E1F0A1F0A0E0E1F04110E2E252E2FBE
:1000D0002A2E262929021F02081F08150E04040EC5
:1000E000150E15151B151B040604040C0400000056
:1000F0000017000300031F0A1F16371A1904130AFA
:10010000153A000300000E11110E000A040A040E35
:10011000040030000404040010001804030E110E43
:10012000121F1012191611150B07041F1715090EAF
:1001300015091905031A150B12150E000A000032D5
:1001400000040A110A0A0A110A040115020E111705
:100150001E051E1F150A0E110A1F110E1F15111F55
:1001600005010E111D1F041F111F1108100F1F0480
:100170001B1F10101F061F1E040F0E110E1F090655
:100180000E112E1F051A121509011F011F101F0F36
:10019000180F1F0C1F1B041B031C03191513001F32
:1001A00011030418111F0002010220202000010287
:1001B0000C121E1F120C0C12120C121F0C1A14041B
:1001C0001E05242A1E1F021C141D1020201D1F089E
:1001D00014111F101E041E1E021C0C120C3E0A04D9
:1001E0000C123E1E040214160A020F120E101E0EEE
:1001F000100E1E081E120C1226281E322A26041E5D
:1002000021001F00211E040102013F213F1E00109A
:10021000001E3010002E602C602A602860266024AA
:10022000602260800000000A4E6F2053442063610A
:100230007264206F720A6E6F204C4F414445522EFB
:100240004845580A0A153A45786974004C6F61644C
:10025000696E672E2E2E004E4F2042415454455257
:10026000590A0A504C454153450A5455524E204FA5
:10027000464600564F4C554D450017736176650054
:10028000166261636B001574797065000A0A0A15BD
:100290003A6F6B617920163A6564697400596F751D
:1002A00020656E74657265640A0000000000002419
:1002B0000027002A0000000000250028002B000075
:1002C00000000023002600290004040404040404A0
:1002D00004020202020202030303030303010204F5
:1002E00008102040800102040810200102040810B8
:1002F00020000000070002010000030406000000C7
:10030000000000000000AE0111241FBECFEFD8E0B6
:10031000DEBFCDBF13E0A0E0B1E0E8E6F5E202C049
:1003200005900D92AC33B107D9F713E0ACE3B3E01D
:1003300001C01D92A13BB107E1F713E0C8E0D3E093
:1003400004C02297FE010E94AE12C630D107C9F741
:100350000E944C0F0C94B2120C9400008CE393E0BA
:100360000E94850808958CE393E00E94210A882367
:1003700081F08EE693E068E670E00E94D00F609115
:100380008C0370918D038EE693E04AE050E00E946A
:10039000A41008950F931F930CE313E0C8016FE7B7
:1003A00070E00E94AD0BC80165E770E04EE10E946D
:1003B0008D081F910F910895882319F48CB58062E0
:1003C00002C08CB58F7D8CBD08959CB5937F982B12
:1003D0009CBD08952CB5382F33702C7F322B3CBD3B
:1003E0002DB590E0959587959595879581702E7F91
:1003F000822B8DBD08958AE061E00E94A50E8AE0FF
:1004000061E00E94660E8CB580618CBD8CB5806405
:100410008CBD8DE061E00E94660E8BE061E00E9481
:10042000660E0895FC011282118281E08083089596
:1004300085E070E00E94060E08956F927F928F9281
:100440009F92AF92BF92CF92DF92EF92FF920F9363
:100450001F93CF93DF93EC0189819A818C0124E073
:10046000000F111F2A95E1F7081B190B85E10E9467
:10047000E40DBC01600F711F84E0769567958A9545
:10048000E1F77A8369838881882381F12E813F8116
:100490006217730710F4B90106C08885998586171D
:1004A000970708F4BC0100D000D080E090E040E065
:1004B00050E0E884F98400E010E0AD80BB24CC2457
:1004C000DD246C80772488249924EDB7FEB76182FF
:1004D0007282838294820E94C3106B830F900F906C
:1004E0000F900F9085E070E00E94060EDF91CF9193
:1004F0001F910F91FF90EF90DF90CF90BF90AF9042
:100500009F908F907F906F900895FC018CE39FE007
:100510009383828384E0818381E0848710820895BD
:10052000CF93DF93EC018C8590E08F719070892BD5
:1005300021F584E10E94E40DAA2797FDA095BA2F2A
:10054000BC01CD010E943A1126EE3FE34EEC50E48F
:100550000E94C6110E940C117B836A8324E02983C8
:10056000FE0120E0848195816817790710F42983C2
:1005700007C02F5F32962430A9F78C858F5F8C8758
:10058000DF91CF910895FC0188E0808389E0818329
:1005900087E0828386E0838384E0848382E08583AE
:1005A00081E186831782108611861286138614864F
:1005B0001586089520E0FC01E60FF11D878181304A
:1005C00009F421E0822F08950F931F93CF93DF93B7
:1005D000EC0110E00FEF888162E00E94660E8881D6
:1005E0000E94F90E2F81892B19F42F5F2F8307C0EA
:1005F000222349F02F3F11F41F8201C00F8388810D
:1006000060E00E94660E1F5F2196173021F7DF9190
:10061000CF911F910F910895FC01618F628F089512
:10062000FC01618F428F0895FC016435A8F547FDF8
:1006300033C040338CF5818D942F95959595959584
:10064000772767FD70954770882399F0E4E59E024F
:10065000F0011124E60FF71FE95FFE4F81E090E003
:1006600002C0880F991F4A95E2F72081282B20832A
:100670000895E4E59E02F0011124E60FF71FE95FFB
:10068000FE4F81E090E002C0880F991F4A95E2F783
:1006900080952081282320830895AF92BF92CF9226
:1006A000DF92EF92FF920F931F93CF93DF93EC01B2
:1006B000162FF42EE22EAA24402F552747FD5095E1
:1006C0008F2D992787FD9095481B590B57FF03C025
:1006D000509541955F4F2E2D332727FD3095812F63
:1006E000992787FD9095281B390B37FF03C030955C
:1006F00021953F4F2417350744F4AA24A3948F2D46
:10070000F12E182F802F0E2DE82EE11634F48E2DA9
:10071000E12E182F802F0F2DF82EDE2CD11A202F2E
:10072000332727FD30958F2D992787FD9095281B1E
:10073000390B37FF03C0309521953F4FB22EF0168D
:100740001CF0CC24CA9402C0CC24C3948D2DD7FCB9
:100750008F5F082F059511C0AA2021F0CE016F2DC3
:10076000412F03C0CE01612F4F2D0E9414030B199E
:1007700007FF02C0FC0C0D0D1F5FE1166CF7DF9147
:10078000CF911F910F91FF90EF90DF90CF90BF908E
:10079000AF9008950F93042F322F262F2150230F4F
:1007A0000E944D030F9108950F93362F042F01508F
:1007B000020F232F0E944D030F9108959F92AF9235
:1007C000BF92CF92DF92EF92FF920F931F93CF933E
:1007D000DF936C01B62E942EA02EC0E0D0E0E62E62
:1007E000FF24E7FCF094022F112707FD10950E0D52
:1007F0001F1D06C0C601492D2A2D0E94D403219633
:100800006B2D6C0FCE018E0D9F1D8017910794F3F9
:10081000DF91CF911F910F91FF90EF90DF90CF90DC
:10082000BF90AF909F9008952F923F925F926F92EA
:100830007F928F929F92AF92BF92CF92DF92EF9270
:10084000FF920F931F93DF93CF9300D000D000D07F
:10085000CDB7DEB79E838D83C62ED42EEE24E394CF
:10086000E21A8EEF289F502C1124842E8A94962E03
:100870009A94A42EA394B62EB394F22E662423E069
:10088000722E10E0C801847090709A838983F801F9
:10089000E270F070FC83EB8398E0292E312C20224B
:1008A00031220170107054C0E7FC04C0FA94F2E0E9
:1008B0005F0EE50C639489819A81892B71F04F2D2D
:1008C0004D0D8D819E816B2D0E9414036F2D6C0D3B
:1008D0008D819E814A2D0E941403EB81FC81EF2BB8
:1008E00071F04D2D4F198D819E816B2D0E94140347
:1008F0006F2D6C0D8D819E81482D0E941403211453
:10090000310471F06C2D6F198D819E814A2D0E94EA
:1009100014034F2D4D0D8D819E81692D0E9414036E
:100920000115110571F06C2D6F198D819E81482D77
:100930000E9414034D2D4F198D819E81692D0E94B7
:100940001403E70CF2E07F0E8A949A94A394B39474
:100950006F140CF4A9CF26960FB6F894DEBF0FBE25
:10096000CDBFCF91DF911F910F91FF90EF90DF905E
:10097000CF90BF90AF909F908F907F906F905F903F
:100980003F902F9008954F925F926F927F928F9237
:100990009F92AF92BF92CF92DF92EF92FF920F930E
:1009A0001F93CF93DF93EC01A62E742E9E2DFF2470
:1009B000F394F21A8EEF289F802C1124B42EBA944F
:1009C00053E0C52ECE0CE22EDD2443E0942E10E041
:1009D00031E0432E512C40225122692E6394027043
:1009E000107034C0F7FC04C0EA9482E0880EF80C62
:1009F000D3944114510489F06D2D6A0D472D4E1981
:100A00002E2D220F260DCE010E94D4036E2D6A0DCD
:100A1000CE014B2D2C2D0E94D4030115110589F018
:100A20006A2D6D19472D4E192E2D220F260DCE0140
:100A30000E94D4036A2D6E19CE014B2D2C2D0E94DD
:100A4000D403F90C82E0980EBA94C80EDE1454F266
:100A5000DF91CF911F910F91FF90EF90DF90CF909A
:100A6000BF90AF909F908F907F906F905F904F90CE
:100A700008957F928F929F92AF92BF92CF92DF9212
:100A8000EF92FF920F931F936C01962EA42EF22EDD
:100A90007E2C760E1EEFE19E102D1124812E820EEB
:100AA000672D282D0E94CA03B02EBA0CBA94C60135
:100AB000672D4B2D282D0E94CA03AE0C100FC601C6
:100AC000692D4A2D212F0E94D403F90CFA94C601F6
:100AD0006F2D4A2D212F0E94D403C601672D4A2D68
:100AE0002E2D01E00E941404FE18C6016F2D4A2D20
:100AF0002E2D02E00E941404BE18C6016F2D4B2D4E
:100B00002E2D04E00E941404C601672D4B2D2E2DBE
:100B100008E00E9414041F910F91FF90EF90DF9066
:100B2000CF90BF90AF909F908F907F9008958F92BD
:100B30009F92AF92BF92CF92DF92EF92FF920F936C
:100B40001F936C01162FA42E922EF02EBE2C8E2CED
:100B5000860E2EEFE29EE02C11242E2D290D682DFD
:100B60000E94DE03AB0CFA94FE0C1150190D1B19F8
:100B7000C601612F4A2D2B2D01E0EF2C0E94C304EA
:100B8000C601682D4A2D2B2D02E00E94C3041F913F
:100B90000F91FF90EF90DF90CF90BF90AF909F901C
:100BA0008F9008953F924F925F926F927F928F92B3
:100BB0009F92AF92BF92CF92DF92EF92FF920F93EC
:100BC0001F93CF93DF934C01362E442EE901F90198
:100BD000A4902196FE01549021978A2D992787FD94
:100BE0009095079668E070E00E945C12C62EDD24A6
:100BF000C7FCD09400E072E0E72EF12C60E8662E8E
:100C0000712C26C0E12FE595E595E595FF27E7FDD9
:100C1000F095EE0DFF1DEC0FFD1FE4912E2F30E03F
:100C2000812F8770A30102C0559547958A95E2F7F9
:100C300024233523232B31F0612F630DC4014B2D69
:100C40000E9414031F5F1A15ECF20F5FEC0CFD1CE1
:100C5000051524F410E0B02EB40CF5CFDF91CF9140
:100C60001F910F91FF90EF90DF90CF90BF90AF90CA
:100C70009F908F907F906F905F904F903F900895DE
:100C80002F923F924F925F926F927F928F929F929C
:100C9000AF92BF92CF92DF92EF92FF920F931F938A
:100CA000DF93CF9300D00F92CDB7DEB79B838A83BB
:100CB000562E742E422F102FFC01F18DF98383E5FF
:100CC00086170CF489C0EFE2E7150CF485C0C02E3E
:100CD000DD249601220F331F2C0D3D1D862F9927F1
:100CE00087FD9095820F931F181619060CF074C09B
:100CF000C901880F991F272D332727FD3095820FB3
:100D0000931F181619060CF067C083E0489F100166
:100D10001124AA24B4E06B2EF3E0AF1611F480E0A6
:100D200009C0EA2DFF27E7FDF095E20DF31DE3571B
:100D3000FF4F8491AC9C902C1124950CBB24A6E011
:100D40008A2E4A2C450CE82EFF2480FF16C0113055
:100D500041F44B2D470D8A819B81642D0E94140321
:100D60002CC0BC9C402D1124470D8A819B81692D8C
:100D7000212F012F0E94DE0320C0EA81FB81928D8A
:100D8000818D9817D1F0918F113041F44B2D470D83
:100D90008A819B81642D0E9414030BC0BC9C402D52
:100DA0001124470D8A819B81692D212F012F0E94DB
:100DB000DE038981EA81FB81818FB3948A9421F0DB
:100DC000F594E7948E2DBFCFA3946A9409F0A4CF35
:100DD0008981EA81FB81818F0F900F900F90CF91D5
:100DE000DF911F910F91FF90EF90DF90CF90BF9018
:100DF000AF909F908F907F906F905F904F903F90BB
:100E00002F9008950F93CF93DF93EC01262F6A3034
:100E100031F48B8D26E0829FC00111242AC06D30F1
:100E200061F16F89488D0B8D0E9440068B8D482F94
:100E300050E0CA01880F991F880F991F2F89280F2A
:100E40002F8B8C8D8823C9F0332727FD309585E1C2
:100E500090E0841B950B880F991F880F991F8217AC
:100E600093075CF4CA01880F991F840F951F880FA0
:100E7000991F288D280F288F1F8A81E090E0DF912D
:100E8000CF910F910895FC01678B408F0895FC016D
:100E9000662309F461E0638F08951F93CF93DF9376
:100EA000EC01162FF894888560E00E94A50E8985D4
:100EB00018161CF460E00E94A50E1EBD0DB407FEBE
:100EC000FDCF8EB5898518161CF461E00E94A50E31
:100ED0007894DF91CF911F910895FF920F931F9304
:100EE000CF93DF93EC01FF2400E010E06F2D6064EE
:100EF000CE010E944D07CE0160E80E944D07888513
:100F000061E00E94A50E898518161CF460E00E941D
:100F1000A50EF801E95FFE4F90E080818EBD0DB413
:100F200007FEFDCF8EB59F5F31969435B1F7898569
:100F300018161CF461E00E94A50EF3940C5A1F4F82
:100F400086E0F81699F6CE0160E40E944D07DF9125
:100F5000CF911F910F91FF900895CF93DF93DC0104
:100F600088EF91E0E7E0F1E0EF019C011992215058
:100F70003040E1F757961C92579758961C92DF9194
:100F8000CF910895EF920F93CF93DF93EC014F83AE
:100F90006E832887EA8609871F8A188E81E08B8FE7
:100FA000898F1A8E8C8F1C820E94FB0181E00E9427
:100FB000DC0180E00E94EA018CE00E94E5018F8163
:100FC00061E00E94660E8E8161E00E94660E888557
:100FD00061E00E94660E8A8518161CF461E00E948A
:100FE000660E898518161CF461E00E94660E8A85DB
:100FF00018166CF460E00E94A50E65E070E080E0D9
:1010000090E00E94500D8A8561E00E94A50EEE815D
:101010002E2F332727FD3095F901E753FD4FE4913B
:10102000F0E0EE0FFF1FEB54FD4F859194919E87EA
:101030008D8723523D4FF90184918C8BEF812E2FA8
:10104000332727FD3095F901E753FD4FE491F0E098
:10105000EE0FFF1FEB54FD4F859194919C878B877A
:1010600023523D4FF90184918B8BE9852E2F332735
:1010700027FD3095F901E753FD4FE491F0E0EE0FC5
:10108000FF1FEB54FD4F85919491988B8F872352CE
:101090003D4FF90184918D8BE8852E2F332727FD55
:1010A0003095F901E753FD4FE491F0E0EE0FFF1F9B
:1010B000EB54FD4F859194919A8B898B23523D4F30
:1010C000F90184918E8BCE0161E20E944D07CE0121
:1010D00064E10E944D078D8187FF02C08FE78D83F9
:1010E0006D816068CE010E944D07CE0160E20E94D2
:1010F0004D07CE016CE00E944D07CE010E946D07A6
:10110000DF91CF910F91EF900895FC0115AA14AAD9
:1011100087E393E093AB82AB0895FC01ED59FF4F59
:101120006193719340830895CF93DF93DC01E0E8EE
:10113000FFE685919491ED01C15BDF4F8150904CAA
:1011400009F04FC0E6E9FFE6E491D796EC93D79714
:10115000E7E9FFE6E4911496EC931497E8E9FFE6DB
:10116000E4911596EC931597E9E9FFE68591949142
:1011700017969C938E931697EBE9FFE685919491D1
:1011800019969C938E931897EDE9FFE6E491979654
:10119000EC939797EEE9FFE6E4919696EC93969799
:1011A000EFE9FFE6E491E883E0EAFFE685919491B8
:1011B0005D969C938E935C97E2EAFFE6859194910D
:1011C0005F969C938E935E97E4EAFFE685919491F7
:1011D00091969C938E939097E6EAFFE68591949181
:1011E00034C08CE3D7968C93D79714961C9214979F
:1011F00080E815968C93159780E293E017969C9360
:101200008E93169784ED93E019969C938E9318977E
:1012100083E097968C93979796968C93969788E20F
:1012200088838CEA9DE05D969C938E935C9780E129
:101230009EE05F969C938E935E9784E79EE09196E6
:101240009C938E9390978CE39FE093969C938E93C0
:101250009297DF91CF910895EF92FF920F931F9392
:10126000CF93DF937C018C010E5C1F4FC8010E945D
:10127000AD07C8016CE472E00E94850FC8010E94AE
:101280006D0780E091E0EEEFFFE30995F70116AA04
:10129000C80167E272E00E94D00FC8010E946D078A
:1012A000E7012A96CE010E94E402CE0164E00E948A
:1012B000DA02882339F462E370E080E090E00E9473
:1012C000500DF0CFDF91CF911F910F91FF90EF90D4
:1012D00008950F931F93CF93DF93EC018C010E5C65
:1012E0001F4FC80161E040E00E941003C80161E5A2
:1012F00040E00E944307698D623038F0888D882372
:1013000021F06B5FC8010E94A80F898D8130D1F454
:10131000C05BDF4F88819981AA81BB81C055D040D5
:101320008F709070A070B0709E012E5C3F4F089738
:10133000A105B10518F4C90167E002C0C90168E759
:101340000E94A80F898D882329F5CE0185960E94D9
:10135000CC0BCE0160E00E941802C8010E94AD07CC
:10136000CE01C29667E572E00E94850FC8010E9417
:101370006D0783B7817F846083BF83B7816083BF3C
:1013800083B7816083BF889583B78E7F83BF83B720
:101390008E7F83BFDF91CF911F910F910895CF92E0
:1013A000DF92EF92FF920F931F93CF93DF93EC01A5
:1013B000CB59DF4F8881C556D0408823C9F18C3086
:1013C00010F010E002C01CE0181B52E3C52ED12C17
:1013D000CC0EDD1EC60161E00E944707C60160E039
:1013E0000E940C0347E2F42EF10EC60160E04F2D7F
:1013F00024E509E033E0E32E0E949705C60161E091
:101400000E940C03C60160E04F2D24E50E943905BF
:10141000175DC60164E0412F0E944307CD59DF4F9D
:1014200069917991C6010E94850F888181508883D6
:10143000DF91CF911F910F91FF90EF90DF90CF90B0
:101440000895AF92BF92CF92DF92EF92FF920F93E7
:101450001F93CF93DF93EC017FE5A72EB12CA80E4D
:10146000B91EF501E080F180028113810E941C0DFC
:10147000E61AF70A080B190B6EE5C62ED12CCC0E16
:10148000DD1EF601808190E0A0E0B0E08E159F05A2
:10149000A007B10708F075C08E01065A1F4FF8016A
:1014A00080819181A281B3810097A105B10509F4E2
:1014B00068C00E941C0DF6012081620F711D811D04
:1014C000911DF5016083718382839383FE01E05B4C
:1014D000FF4F80819181A281B3810196A11DB11D31
:1014E00080839183A283B383F801108211821282D8
:1014F00013820E942A0DCA5ADF4F688379838A8338
:101500009B83C655D040CE010E941D02CE010A9693
:101510000E94E402CE0148960E949002CE01859678
:101520000E94E90B81E022C0CE010E94CF09CE01CA
:101530000E9469098E010E5C1F4FC8010E946D0751
:101540008EA9882319F4C8010E94AD070E942A0DB4
:10155000C65ADF4F688379838A839B8324972881C7
:101560003981621B730B7A936A9380E0DF91CF918C
:101570001F910F91FF90EF90DF90CF90BF90AF90B1
:101580000895C65ADF4F88819981AA81BB81CA55C7
:10159000D0400097A105B10541F7C6CF4F925F92A9
:1015A0006F927F928F929F92AF92BF92CF92DF9273
:1015B000EF92FF920F931F93CF93DF93EC012B01D8
:1015C0006A01C25ADF4F82E38993188219821A8214
:1015D0001B822F97188219821A821B822A9681E019
:1015E00090E0A0E0B0E088839983AA83BB832B9727
:1015F0008FEF8883CF54D040CE010E949408CE0153
:101600000E9412026AE0662E712C6C0E7D1EC301D0
:101610000E94C302CE0148960E94850255E2A52E83
:10162000B12CAC0EBD1EC5010E94A70C42E3842E56
:10163000912C8C0E9D1EC4016DE04BE020E10FE06B
:101640003EE0E32E0E94C207CE0160E80E9418022D
:1016500081E08EABC114D10411F400E009C0F601A1
:1016600004910E5FC40160E04CE096010E94D20537
:10167000C401602F4CE00E944307CE01C296B20124
:101680000E94850F8E01015B1F4FF8018081882326
:1016900009F449C0C5016DE072E040E00E94B20B60
:1016A000780190E5C92ED12CCC0EDD1ECE010E9412
:1016B000210A8823D9F3C30165E00E94DA02882356
:1016C00021F0C50160E00E94D70BC30164E00E94D5
:1016D000DA02882391F4F7016081262F30E040E0A0
:1016E00050E0F60180819181A281B3818217930736
:1016F000A407B50760F16F3F51F1C50160E00E949A
:10170000BF0B11C0C40168E44FE128E701E00E946B
:101710004006C30166E00E94DA02882339F2CE0156
:101720000E942C09C3CF1EAA81E0888FDF91CF9140
:101730001F910F91FF90EF90DF90CF90BF90AF90EF
:101740009F908F907F906F905F904F900895C5010C
:101750000E94E60B8823E9F6D5CF40E050E00E94D6
:10176000CE0A0895FC01442349F47483638381E025
:1017700083871286118610868093A3030895FC0147
:10178000662349F413861092A6031092A5031092C3
:10179000A3031092B4000895FC0113861092A603CF
:1017A0001092A5031092A3031092B4000895FC01B7
:1017B000772767FD7095828190E0861797070CF474
:1017C000BC01862F67FD80E081830895FC01818143
:1017D0000895CF93DF93EC01F8948B85882309F467
:1017E00059C08A85882309F052C088859985880F59
:1017F000991FEB81FC81E80FF91FA591B491109717
:1018000089F48C85882321F01986188681E041C0EF
:101810001B861092A6031092A5031092A3031092A8
:10182000B40038C0AD0124E0569547952A95E1F7FC
:10183000FD01EF2FFF27E695E695E050FD4F608113
:101840008A2F81708093A7032D818981289F900121
:101850001124B695A7958A2F877090E0FC012E9FE2
:10186000C0012F9F900D3E9F900D11248093A503E2
:101870008093A6034F738881489F402D11244A8787
:101880006093A403888599850196998788878A85BE
:1018900081508A877894DF91CF9108956091A50354
:1018A000662381F18091A2038F5F8093A2039091C0
:1018B000A403891738F130E08091A303882309F449
:1018C00031E03093A3031092A2038091A7038823F1
:1018D000A9F08091FF0223E4829FC0011124895B5B
:1018E0008093FF0290E070E00E9448128093A6036C
:1018F00005C08091A6038093B40008953323C9F7EF
:1019000080E0F9CF08951F920F920FB60F92112425
:101910002F933F934F935F936F937F938F939F93F7
:10192000AF93BF93EF93FF930E944E0CFF91EF9103
:10193000BF91AF919F918F917F916F915F914F91E7
:101940003F912F910F900FBE0F901F901895FC01A3
:1019500081E080838CE0858383E061E070E00E9419
:10196000060EE1EBF0E08081887F81608083F8944F
:1019700010928000E1E8F0E0108210928500109251
:10198000840088E191E090938900809388008081B1
:1019900088608083808181608083EFE6F0E08081D1
:1019A00082608083789408951F920F920FB60F92F1
:1019B00011242F933F938F939F93AF93BF93809165
:1019C000AC039091AD03A091AE03B091AF03309101
:1019D000B0030196A11DB11D232F2D5F2D3720F0DF
:1019E0002D570196A11DB11D2093B0038093AC0328
:1019F0009093AD03A093AE03B093AF038091A8037F
:101A00009091A903A091AA03B091AB030196A11DE7
:101A1000B11D8093A8039093A903A093AA03B09348
:101A2000AB03BF91AF919F918F913F912F910F90F9
:101A30000FBE0F901F9018958FB7F8942091AC03AC
:101A40003091AD034091AE035091AF038FBFB90108
:101A5000CA0108959FB7F8942091A8033091A90373
:101A60004091AA035091AB0386B5A89B06C08F3F57
:101A700021F02F5F3F4F4F4F5F4F9FBF542F432F9A
:101A8000322F2227280F311D411D511D82E0220FC8
:101A9000331F441F551F8A95D1F7B901CA01089514
:101AA0009B01AC017FB7F8948091A8039091A903A2
:101AB000A091AA03B091AB0366B5A89B05C06F3F88
:101AC00019F00196A11DB11D7FBFBA2FA92F982F24
:101AD0008827860F911DA11DB11D62E0880F991FF7
:101AE000AA1FBB1F6A95D1F7BC012DC0FFB7F894A0
:101AF0008091A8039091A903A091AA03B091AB0390
:101B0000E6B5A89B05C0EF3F19F00196A11DB11DD8
:101B1000FFBFBA2FA92F982F88278E0F911DA11DC7
:101B2000B11DE2E0880F991FAA1FBB1FEA95D1F7EC
:101B3000861B970B885E9340C8F22150304040408E
:101B4000504068517C4F211531054105510571F612
:101B50000895789484B5826084BD84B5816084BD25
:101B600085B5826085BD85B5816085BDEEE6F0E016
:101B7000808181608083E1E8F0E010828081826072
:101B80008083808181608083E0E8F0E080818160F3
:101B90008083E1EBF0E0808184608083E0EBF0E023
:101BA000808181608083EAE7F0E0808184608083C7
:101BB0008081826080838081816080838081806871
:101BC00080831092C1000895982F8E3008F09E50A7
:101BD0009770809132038295880F880F807C892BC3
:101BE00080937C0080917A00806480937A00809159
:101BF0007A0086FDFCCF2091780040917900942FE7
:101C000080E030E0282B392BC90108951F93CF9332
:101C1000DF93182FEB0161E00E94660E209709F414
:101C20004AC0CF3FD10509F449C0E12FF0E0EF50A1
:101C3000FD4F84918330C1F0843028F4813051F01D
:101C40008230B1F50CC0863019F1873049F184300B
:101C500079F514C084B5806884BDC7BD33C084B530
:101C6000806284BDC8BD2EC0809180008068809352
:101C70008000D0938900C093880024C080918000A8
:101C8000806280938000D0938B00C0938A001AC03A
:101C90008091B00080688093B000C093B30012C000
:101CA0008091B00080628093B000C093B4000AC0FD
:101CB000C038D1051CF4812F60E002C0812F61E0A3
:101CC0000E94A50EDF91CF911F910895CF93DF93CE
:101CD000482F50E0CA0183529D4FFC013491475375
:101CE0005D4FFA018491882369F190E0880F991F74
:101CF000FC01E555FD4FA591B491FC01EB54FD4F5E
:101D0000C591D491662351F42FB7F8948C91932FF9
:101D1000909589238C93888189230BC0623061F46C
:101D20002FB7F8948C91932F909589238C93888169
:101D3000832B88832FBF06C09FB7F8948C91832B89
:101D40008C939FBFDF91CF910895482F50E0CA0137
:101D50008F509D4FFC012491CA0183529D4FFC017D
:101D6000949147535D4FFA013491332309F440C0F5
:101D7000222351F1233071F0243028F42130A1F0D6
:101D8000223011F514C02630B1F02730C1F02430D4
:101D9000D9F404C0809180008F7703C080918000C7
:101DA0008F7D8093800010C084B58F7702C084B58A
:101DB0008F7D84BD09C08091B0008F7703C0809172
:101DC000B0008F7D8093B000E32FF0E0EE0FFF1F97
:101DD000EB54FD4FA591B4912FB7F894662321F4ED
:101DE0008C919095892302C08C91892B8C932FBF65
:101DF0000895682F70E0CB018F509D4FFC01249116
:101E0000CB0183529D4FFC01449167537D4FFB01F1
:101E10009491992319F420E030E03CC0222351F141
:101E2000233071F0243028F42130A1F0223011F554
:101E300014C02630B1F02730C1F02430D9F404C0EA
:101E4000809180008F7703C0809180008F7D809388
:101E5000800010C084B58F7702C084B58F7D84BDAB
:101E600009C08091B0008F7703C08091B0008F7D52
:101E70008093B000892F90E0880F991F81549D4F67
:101E8000FC01A591B4918C9120E030E0842311F005
:101E900021E030E0C9010895CF93DF930E94A90D9E
:101EA0000E94CA01C0E0D0E00E94B3012097E1F394
:101EB0000E940000F9CFCF92DF92EF92FF920F9332
:101EC0001F93CF93DF937C016B018A01C0E0D0E0C8
:101ED0000FC0D6016D916D01D701ED91FC9101907C
:101EE000F081E02DC7010995C80FD91F015010409E
:101EF0000115110571F7CE01DF91CF911F910F915F
:101F0000FF90EF90DF90CF900895EF92FF920F93A4
:101F10001F93CF93DF937C018B01C0E0D0E0F801E9
:101F20000F5F1F4F6491662359F0D701ED91FC912B
:101F30000190F081E02DC7010995C80FD91FEFCF9F
:101F4000CE01DF91CF911F910F91FF90EF900895F7
:101F5000DC01ED91FC910190F081E02D099508954F
:101F6000EF92FF920F931F938C01DC01ED91FC9196
:101F70000190F081E02D6DE009957C01D801ED9193
:101F8000FC910190F081E02DC8016AE009959C0167
:101F90002E0D3F1DC9011F910F91FF90EF900895E5
:101FA000EF92FF920F931F937C010E94850F8C018B
:101FB000C7010E94B00F9C01200F311FC9011F9162
:101FC0000F91FF90EF900895CF93DF93EC0161158F
:101FD000710519F420E030E00FC0DB010D90002006
:101FE000E9F71197A61BB70BE881F9810280F3810D
:101FF000E02DAD0109959C01C901DF91CF910895B4
:102000004F925F927F928F929F92AF92BF92CF92A8
:10201000DF92EF92FF920F931F93DF93CF93CDB791
:10202000DEB7A1970FB6F894DEBF0FBECDBF2C016F
:10203000742ECB01223008F42AE019A231E2C32E1B
:10204000D12CCC0EDD1E822E9924AA24BB24672D10
:10205000752FA50194010E946F1279018A01C801B0
:10206000B701A50194010E942912472D461B08942F
:10207000C108D1084A3014F4405D01C0495CF60142
:102080004083E114F1040105110521F07E2C5F2D40
:10209000C801DDCFC201B6010E94E40FA1960FB6C0
:1020A000F894DEBF0FBECDBFCF91DF911F910F918E
:1020B000FF90EF90DF90CF90BF90AF909F908F9068
:1020C0007F905F904F900895CF92DF92EF92FF92B2
:1020D0000F931F93CF93DF93EC016A017B012115CE
:1020E000310541F4E881F9810190F081E02D642F00
:1020F00009951FC02A303105D1F477FF17C0E88158
:10210000F9810190F081E02D6DE209958C01442761
:102110005527BA014C195D096E097F09CE012AE0E5
:102120000E9400109801280F391F04C02AE00E9465
:1021300000109C01C901DF91CF911F910F91FF9079
:10214000EF90DF90CF900895CF92DF92EF92FF92C1
:102150000F931F936C017B019A010027F7FC0095F8
:10216000102FB801A7010E9464108C01C6010E94C3
:10217000B00F080F191FC8011F910F91FF90EF902A
:10218000DF90CF9008952F923F924F925F926F927F
:102190007F928F929F92AF92BF92CF92DF92EF92F7
:1021A000FF920F931F93DF93CF93CDB7DEB73B0121
:1021B0004C0119012A016D897E898F89988D6A19D0
:1021C0007B098C099D09621A730A840A950AA40185
:1021D00093010E942912E218F30804091509A801C5
:1021E00097010E9491122A0D3B1D4C1D5D1DB901E6
:1021F000CA01CF91DF911F910F91FF90EF90DF9077
:10220000CF90BF90AF909F908F907F906F905F9096
:102210004F903F902F90089598D088F09F5790F05E
:10222000B92F9927B751A0F0D1F0660F771F881FFB
:10223000991F1AF0BA95C9F712C0B13081F09FD03A
:10224000B1E008959CC0672F782F8827B85F39F0D8
:10225000B93FCCF3869577956795B395D9F73EF45A
:1022600090958095709561957F4F8F4F9F4F089502
:10227000E89409C097FB3EF4909580957095619520
:102280007F4F8F4F9F4F9923A9F0F92F96E9BB27D6
:102290009395F695879577956795B795F111F8CF52
:1022A000FAF4BB0F11F460FF1BC06F5F7F4F8F4FBD
:1022B0009F4F16C0882311F096E911C0772321F0B3
:1022C0009EE8872F762F05C0662371F096E8862F4B
:1022D00070E060E02AF09A95660F771F881FDAF7A2
:1022E000880F9695879597F9089597F99F6780E8E5
:1022F00070E060E008959FEF80EC089500240A9458
:102300001616170618060906089500240A941216D0
:102310001306140605060895092E0394000C11F403
:10232000882352F0BB0F40F4BF2B11F460FF04C0B0
:102330006F5F7F4F8F4F9F4F089557FD9058440F09
:10234000551F59F05F3F71F04795880F97FB991F14
:1023500061F09F3F79F087950895121613061406D1
:10236000551FF2CF4695F1DF08C01616170618065E
:10237000991FF1CF86957105610508940895E89439
:10238000BB2766277727CB0197F908950BD0C4CFD9
:10239000B5DF28F0BADF18F0952309F0A6CFABCF50
:1023A0001124EECFCADFA0F3959FD1F3950F50E033
:1023B000551F629FF001729FBB27F00DB11D639FF7
:1023C000AA27F00DB11DAA1F649F6627B00DA11D9D
:1023D000661F829F2227B00DA11D621F739FB00D43
:1023E000A11D621F839FA00D611D221F749F3327B3
:1023F000A00D611D231F849F600D211D822F762F4C
:102400006A2F11249F5750408AF0E1F088234AF048
:10241000EE0FFF1FBB1F661F771F881F9150504094
:10242000A9F79E3F510570F060CFAACF5F3FECF354
:10243000983EDCF3869577956795B795F795E79580
:102440009F5FC1F7FE2B880F911D9695879597F991
:102450000895629FD001739FF001829FE00DF11DEE
:10246000649FE00DF11D929FF00D839FF00D749F0E
:10247000F00D659FF00D9927729FB00DE11DF91FBA
:10248000639FB00DE11DF91FBD01CF011124089517
:10249000AA1BBB1B51E107C0AA1FBB1FA617B7078A
:1024A00010F0A61BB70B881F991F5A95A9F78095A6
:1024B0009095BC01CD01089597FB092E07260AD0FF
:1024C00077FD04D0E5DF06D000201AF47095619501
:1024D0007F4F0895F6F7909581959F4F0895A1E25B
:1024E0001A2EAA1BBB1BFD010DC0AA1FBB1FEE1F8E
:1024F000FF1FA217B307E407F50720F0A21BB30BD9
:10250000E40BF50B661F771F881F991F1A9469F754
:1025100060957095809590959B01AC01BD01CF01B0
:10252000089597FB092E05260ED057FD04D0D7DF5E
:102530000AD0001C38F450954095309521953F4FB6
:102540004F4F5F4F0895F6F7909580957095619580
:102550007F4F8F4F9F4F0895EE0FFF1F0590F4910F
:08256000E02D0994F894FFCF6F
:102568004C4F41444552000000F0FC0E024341C16B
:10257800C10180E0705C4F7FFC8000C0F03E1FFF0F
:10258800E0E0781CFFFF0080FF7F111111110100AE
:10259800C0FF3F11193FE6C000F8FF07000000F830
:1025A800FF07E0FF1FC0FF3F0E3CF0C0E0FF1F0029
:1025B800F8FC0603010183FE7C0000000000010313
:1025C80002020303000203010000000003030203E8
:1025D80001000003030000000303000303020202DA
:1025E80002020200030302020203010100010302C6
:1025F80002020301000003030003030000000001BE
:1026080003030000000103020203010000000000B0
:1026180000000000000000000000000000000000B2
:1026280000000000000000000000000000000000A2
:102638000000000000000000000000000000000092
:102648000000000000000000000000000000000082
:102658000000C02010D0901020C000000000C06012
:10266800A060C000000000000000000000000000A2
:102678000000000000000000000000000000000052
:102688000000000000000000000000000000000042
:102698000000000000000000000000000000000032
:1026A80000000000000007081097131108078000B9
:1026B8000000078C8E8C070000000000000000005E
:1026C8000000000000000000000000000000000002
:1026D80000000000000000000000000000000000F2
:1026E80000000000000000000000000000000000E2
:1026F8000000000000000000001E1E1E3F7F000CAE
:10270800211E403F00001F3035311F00000000002F
:1027180000000000000000000000000000000000B1
:1027280000000000000000000000000000000000A1
:102738000000000000000000000000000000000091
:1027480000000000000000000000000000FE9D8561
:102758008585868484E41C0000007CC6D6D67C016E
:10276800DBCFC3B8AEA49B938A837B746E68625C2C
:1027780057524E4A45423E3A3734312E2C292725A6
:1027880023211F1D000000000000000000000000C1
:0C2798000000010000000002075B0F00C1
:00000001FF
