:100000000C947E010C94A6010C94A6010C94A601FC
:100010000C94A6010C94A6010C94A6010C94A601C4
:100020000C94A6010C94A6010C94A6010C9410103B
:100030000C94A6010C94A6010C94A6010C94A601A4
:100040000C9461100C94A6010C94A6010C94A601CA
:100050000C94A6010C94A6010C94A6010C94A60184
:100060000C94A6010C94A601506F6E6720536F6C20
:100070006F003F213F0A100A1208120E1C0E0C1EC0
:100080000C141A14161F161E131E1E1B1E1E1F1ED6
:100090003F213F3A2F3A173D173F213F181F0204D7
:1000A0000A041F0E04040E1F0A1F0A0E0E1F04115D
:1000B0000E2E252E2F2A2E262929021F02081F0860
:1000C000150E04040E150E15151B151B040604044D
:1000D0000C040000000017000300031F0A1F16375E
:1000E0001A1904130A153A000300000E11110E002C
:1000F0000A040A040E04003000040404001000186E
:1001000004030E110E121F1012191611150B0704FD
:100110001F1715090E15091905031A150B12150ECF
:10012000000A00003200040A110A0A0A110A040136
:1001300015020E11171E051E1F150A0E110A1F119A
:100140000E1F15111F05010E111D1F041F111F1178
:1001500008100F1F041B1F10101F061F1E040F0E78
:10016000110E1F09060E112E1F051A121509011F67
:10017000011F101F0F180F1F0C1F1B041B031C0354
:10018000191513001F11030418111F00020102208A
:1001900020200001020C121E1F120C0C12120C1255
:1001A0001F0C1A14041E05242A1E1F021C141D10E5
:1001B00020201D1F0814111F101E041E1E021C0CDF
:1001C000120C3E0A040C123E1E040214160A020F00
:1001D000120E101E0E100E1E081E120C1226281EC5
:1001E000322A26041E21001F00211E040102013FA5
:1001F000213F1E0010001E3010002E602C602A606F
:100200002860266024602260800000000A4E6F2073
:1002100053442063617264206F720A6E6F204C4FEA
:10022000414445522E4845580A0A153A45786974A2
:10023000004C6F6164696E672E2E2E004E4F204277
:100240004154544552590A0A504C454153450A54A9
:1002500055524E204F464600564F4C554D450017BF
:100260007361766500166261636B00157479706561
:10027000000A0A0A153A6F6B617920163A656469BB
:100280007400596F7520656E74657265640A0000AC
:100290001E301E6000001E601E3000001F60000047
:1002A00000000000240027002A00000000002500B4
:1002B00028002B0000000000230026002900040471
:1002C00004040404040402020202020203030303FE
:1002D00003030102040810204080010204081020DA
:1002E00001020408102000000007000201000003C2
:1002F00004060000000000000000090211241FBED7
:10030000CFEFD8E0DEBFCDBF13E0A0E0B1E0E8E57D
:10031000FDE202C005900D92A235B107D9F713E0B6
:10032000A2E5B3E001C01D92A83DB107E1F712E0DC
:10033000CCEFD2E004C02297FE010E946F16CA3FA4
:10034000D107C9F70E94D9120C94AA160C94000088
:10035000A0E0B0E0EEEAF1E00C947B16EC01A8809E
:10036000B980CA80DB80A114B104C104D10441F476
:1003700084E2A82E89EDB82E8BE5C82E87E0D82E12
:10038000C601B5012DE133EF41E050E00E94521665
:1003900027EA31E440E050E00E94EA157B018C013D
:1003A000C601B5012DE133EF41E050E00E94521645
:1003B000CA01B9012CEE34EF4FEF5FEF0E94EA154E
:1003C0006E0D7F1D801F911F97FF04C0615070400C
:1003D00080409048688379838A839B839B01AC012A
:1003E0005F77B901CA01CDB7DEB7EAE00C94971682
:1003F0000E94A801089587E091E00E94A801089555
:1004000060930701709308018093090190930A019A
:1004100008950F931F9382E593E00E94860BE0E31B
:10042000F0E080910B0190910C019F01281B390B8A
:10043000C90162E070E00E941D167093BE036093D4
:10044000BD03009113011091140124E530E0C901AE
:10045000801B910B9093C2038093C1038091110183
:1004600090911201AF01481B590BCA0162E070E084
:100470000E941D167093C4036093C30380911701FB
:1004800090911801281B390B201B310B2150304053
:100490003093C6032093C5039F01281B390BC90164
:1004A00062E070E00E941D167093C8036093C7035A
:1004B0001F910F9108958F929F92AF92BF92CF920A
:1004C000DF92EF92FF920F931F9382E593E00E94D9
:1004D000940D882309F43FC28CE593E066E00E9406
:1004E000BD05882341F090E08091B803882309F48A
:1004F00091E09093B8038091B803882309F0E3C199
:100500008CE593E061E041E00E94C705882391F00B
:100510002091BD033091BE0380910F019091100195
:10052000281B390B37FF02C020E030E03093BE03B8
:100530002093BD038CE593E063E041E00E94C70592
:100540008823D1F060E370E020910B0130910C0121
:1005500040910F01509110018091BD039091BE0315
:10056000480F591F621B730B461757070CF4BA014B
:100570007093BE036093BD038091C5039091C60341
:100580002091190130911A01820F931F9093C60395
:100590008093C50320911B0130911C018091C703FA
:1005A0009091C803820F931F9093C8038093C70351
:1005B00097FF10C01092C8031092C703882799278D
:1005C000821B930B90931C0180931B0187E793E0A0
:1005D0000E94690F20911701309118018091C70383
:1005E0009091C803820F931FC197BCF080E390E005
:1005F000821B930B9093C8038093C70380911B01C8
:1006000090911C01909581959F4F90931C01809330
:100610001B0187E793E00E94690F00911701109179
:1006200018016091C5037091C6034091C7035091B2
:10063000C803E090BB03F090BC03C090BD03D09012
:10064000BE03A0900D01B0900E0180900B01909020
:100650000C0182E593E098010E94260C8823E9F0C2
:1006600080910D0190910E012091BB033091BC034C
:10067000820F931F9093C6038093C5038091190145
:1006800090911A01909581959F4F90931A018093B4
:10069000190187E793E00E94690F009117011091FB
:1006A00018016091C5037091C6034091C703509132
:1006B000C803E090C103F090C203C090C303D09080
:1006C000C403A0901301B090140180901101909088
:1006D000120182E593E098010E94260C8823E9F03C
:1006E0008091C1039091C2032091170130911801AC
:1006F000821B930B9093C6038093C50380911901CD
:1007000090911A01909581959F4F90931A01809333
:10071000190187E793E00E94690F8091C5039091CA
:10072000C60397FF43C08091BF039091C003019619
:100730009093C0038093BF0387E793E00E945C0F10
:10074000409117015091180184E590E0841B950BAE
:100750002091130130911401821B930B0197909308
:10076000C6038093C5032091190130911A0137FF08
:1007700003C0309521953F4F88279927821B930B03
:1007800090931A018093190120E330E0241B350B6C
:10079000442737FD4095542F60E070E080E090E002
:1007A0000E94AF147093C8036093C7038091170130
:1007B000909118012091C5033091C603820F931FB9
:1007C000853591050CF443C08091B9039091BA032B
:1007D00001969093BA038093B90387E793E00E9450
:1007E0005C0F409117015091180184E590E0841B43
:1007F000950B2091130130911401821B930B4097AC
:100800009093C6038093C5032091190130911A017A
:1008100037FF03C0309521953F4F88279927821BCA
:10082000930B90931A018093190120E330E0241B6D
:10083000350B442737FD4095542F60E070E080E091
:1008400090E00E94AF147093C8036093C703E091D7
:10085000C303F091C4030091110110911201C8016A
:1008600062E070E00E941D169B012E0F3F1F8091D9
:1008700017019091180162E070E00E941D168091AE
:10088000C7039091C803860F971F4091150150919F
:1008900016012817390764F49F01240F351F80E3E0
:1008A00090E0801B910B281739074CF4C90107C051
:1008B000CF01841B950B97FF02C080E090E09093DE
:1008C000C4038093C30384E893E062E00E94480A73
:1008D00084E893E06FE040E10E94440A6091B9032C
:1008E0007091BA0384E893E04AE050E00E9431142A
:1008F00084E893E069E340E10E94440A6091BF0309
:100900007091C00384E893E04AE050E00E94311403
:100910000091170184E893E06091C5034091C703FB
:10092000202F0E94DF0684E893E06091BB03409192
:10093000BD0320910D0100910B010E94DF0684E8A8
:1009400093E06091C1034091C30320911301009192
:1009500011010E94DF061F910F91FF90EF90DF9031
:10096000CF90BF90AF909F908F90089582E593E0D5
:1009700068E670E00E94200F10926A0308958823B1
:1009800019F48CB5806202C08CB58F7D8CBD089542
:100990009CB5937F982B9CBD08952CB5382F337050
:1009A0002C7F322B3CBD2DB590E095958795959584
:1009B000879581702E7F822B8DBD08958AE061E03E
:1009C0000E9432128AE061E00E94F3118CB58061CE
:1009D0008CBD8CB580648CBD8DE061E00E94F3110C
:1009E0008BE061E00E94F3110895FC0112821182F4
:1009F00081E08083089585E070E00E94931108955E
:100A00006F927F928F929F92AF92BF92CF92DF921E
:100A1000EF92FF920F931F93CF93DF93EC018981A5
:100A20009A818C0124E0000F111F2A95E1F7081B21
:100A3000190B85E10E947111BC01600F711F84E0E8
:100A4000769567958A95E1F77A836983888188230B
:100A500081F12E813F816217730710F4B90106C03E
:100A6000888599858617970708F4BC0100D000D0C7
:100A700080E090E040E050E0E884F98400E010E09D
:100A8000AD80BB24CC24DD246C8077248824992479
:100A9000EDB7FEB761827282838294820E94441411
:100AA0006B830F900F900F900F9085E070E00E9485
:100AB0009311DF91CF911F910F91FF90EF90DF90F5
:100AC000CF90BF90AF909F908F907F906F90089540
:100AD000FC018CE39FE09383828384E0818381E047
:100AE000848710820895CF93DF93EC018C8590E08A
:100AF0008F719070892B21F584E10E947111AA27D2
:100B000097FDA095BA2FBC01CD010E94FB1426EEE3
:100B10003FE34EEC50E40E9487150E94CD147B8386
:100B20006A8324E02983FE0120E08481958168178F
:100B3000790710F4298307C02F5F32962430A9F774
:100B40008C858F5F8C87DF91CF910895FC0188E0C1
:100B5000808389E0818387E0828386E0838384E0E9
:100B6000848382E0858381E18683178210861186E3
:100B70001286138614861586089520E0FC01E60F80
:100B8000F11D8781813009F421E0822F0895E62F3D
:100B9000F0E0423040F420E0E80FF91F87818150F7
:100BA0008E3F88F40FC0E80FF91F87818F3F11F443
:100BB00020E009C020E090E0642F70E00E94091658
:100BC000019709F421E0822F08950F931F93CF938B
:100BD000DF93EC0110E00FEF888162E00E94F311D7
:100BE00088810E9486122F81892B19F42F5F2F8311
:100BF00007C0222349F02F3F11F41F8201C00F8349
:100C0000888160E00E94F3111F5F2196173021F761
:100C1000DF91CF911F910F910895FC01618F628F39
:100C20000895FC01618F428F0895FC016435A8F599
:100C300047FD33C040338CF5818D942F9595959564
:100C40009595772767FD70954770882399F0E4E5BF
:100C50009E02F0011124E60FF71FE35EFE4F81E0D4
:100C600090E002C0880F991F4A95E2F72081282B57
:100C700020830895E4E59E02F0011124E60FF71F9A
:100C8000E35EFE4F81E090E002C0880F991F4A9515
:100C9000E2F780952081282320830895AF92BF92A8
:100CA000CF92DF92EF92FF920F931F93CF93DF9338
:100CB000EC01162FF42EE22EAA24402F552747FDD3
:100CC00050958F2D992787FD9095481B590B57FFFD
:100CD00003C0509541955F4F2E2D332727FD30954A
:100CE000812F992787FD9095281B390B37FF03C06B
:100CF000309521953F4F2417350744F4AA24A39437
:100D00008F2DF12E182F802F0E2DE82EE11634F4A2
:100D10008E2DE12E182F802F0F2DF82EDE2CD11ABC
:100D2000202F332727FD30958F2D992787FD90950C
:100D3000281B390B37FF03C0309521953F4FB22E4A
:100D4000F0161CF0CC24CA9402C0CC24C3948D2D80
:100D5000D7FC8F5F082F059511C0AA2021F0CE0186
:100D60006F2D412F03C0CE01612F4F2D0E9415061C
:100D70000B1907FF02C0FC0C0D0D1F5FE1166CF78D
:100D8000DF91CF911F910F91FF90EF90DF90CF9067
:100D9000BF90AF9008950F93042F322F262F21502C
:100DA000230F0E944E060F9108950F93362F042FA4
:100DB0000150020F232F0E944E060F9108959F921B
:100DC000AF92BF92CF92DF92EF92FF920F931F9359
:100DD000CF93DF936C01B62E942EA02EC0E0D0E00E
:100DE000E62EFF24E7FCF094022F112707FD109553
:100DF0000E0D1F1D06C0C601492D2A2D0E94D506C5
:100E000021966B2D6C0FCE018E0D9F1D80179107C3
:100E100094F3DF91CF911F910F91FF90EF90DF90AE
:100E2000CF90BF90AF909F9008952F923F925F9286
:100E30006F927F928F929F92AF92BF92CF92DF92EA
:100E4000EF92FF920F931F93DF93CF9300D000D0C8
:100E500000D0CDB7DEB79E838D83C62ED42EEE2470
:100E6000E394E21A8EEF289F502C1124842E8A944A
:100E7000962E9A94A42EA394B62EB394F22E6624A2
:100E800023E0722E10E0C801847090709A838983E9
:100E9000F801E270F070FC83EB8398E0292E312C8E
:100EA000202231220170107054C0E7FC04C0FA9473
:100EB000F2E05F0EE50C639489819A81892B71F0D1
:100EC0004F2D4D0D8D819E816B2D0E9415066F2D2E
:100ED0006C0D8D819E814A2D0E941506EB81FC814F
:100EE000EF2B71F04D2D4F198D819E816B2D0E943E
:100EF00015066F2D6C0D8D819E81482D0E94150663
:100F00002114310471F06C2D6F198D819E814A2D51
:100F10000E9415064F2D4D0D8D819E81692D0E94D9
:100F200015060115110571F06C2D6F198D819E81CB
:100F3000482D0E9415064D2D4F198D819E81692DDA
:100F40000E941506E70CF2E07F0E8A949A94A3940F
:100F5000B3946F140CF4A9CF26960FB6F894DEBFA5
:100F60000FBECDBFCF91DF911F910F91FF90EF90FA
:100F7000DF90CF90BF90AF909F908F907F906F90B9
:100F80005F903F902F9008954F925F926F927F9263
:100F90008F929F92AF92BF92CF92DF92EF92FF9289
:100FA0000F931F93CF93DF93EC01A62E742E9E2DEB
:100FB000FF24F394F21A8EEF289F802C1124B42E74
:100FC000BA9453E0C52ECE0CE22EDD2443E0942EDD
:100FD00010E031E0432E512C40225122692E6394BF
:100FE0000270107034C0F7FC04C0EA9482E0880EEE
:100FF000F80CD3944114510489F06D2D6A0D472DDE
:101000004E192E2D220F260DCE010E94D5066E2DD3
:101010006A0DCE014B2D2C2D0E94D5060115110510
:1010200089F06A2D6D19472D4E192E2D220F260D90
:10103000CE010E94D5066A2D6E19CE014B2D2C2DA6
:101040000E94D506F90C82E0980EBA94C80EDE1400
:1010500054F2DF91CF911F910F91FF90EF90DF90AD
:10106000CF90BF90AF909F908F907F906F905F9048
:101070004F9008957F928F929F92AF92BF92CF929E
:10108000DF92EF92FF920F931F936C01962EA42E86
:10109000F22E7E2C760E1EEFE19E102D1124812E55
:1010A000820E672D282D0E94CB06B02EBA0CBA9462
:1010B000C601672D4B2D282D0E94CB06AE0C100FBC
:1010C000C601692D4A2D212F0E94D506F90CFA94EC
:1010D000C6016F2D4A2D212F0E94D506C601672D0E
:1010E0004A2D2E2D01E00E941507FE18C6016F2D16
:1010F0004A2D2E2D02E00E941507BE18C6016F2D45
:101100004B2D2E2D04E00E941507C601672D4B2D97
:101110002E2D08E00E9415071F910F91FF90EF9070
:10112000DF90CF90BF90AF909F908F907F90089569
:101130008F929F92AF92BF92CF92DF92EF92FF92E7
:101140000F931F936C01162FA42E922EF02EBE2CFF
:101150008E2C860E2EEFE29EE02C11242E2D290DD2
:10116000682D0E94DF06AB0CFA94FE0C1150190D8D
:101170001B19C601612F4A2D2B2D01E0EF2C0E9477
:10118000C407C601682D4A2D2B2D02E00E94C4071A
:101190001F910F91FF90EF90DF90CF90BF90AF9095
:1011A0009F908F9008953F924F925F926F927F929F
:1011B0008F929F92AF92BF92CF92DF92EF92FF9267
:1011C0000F931F93CF93DF934C01362E442EE901EA
:1011D000F901A4902196FE01549021978A2D992718
:1011E00087FD9095079668E070E00E941D16C62E58
:1011F000DD24C7FCD09400E072E0E72EF12C60E81B
:10120000662E712C26C0E12FE595E595E595FF2723
:10121000E7FDF095EE0DFF1DEC0FFD1FE4912E2F65
:1012200030E0812F8770A30102C0559547958A95BC
:10123000E2F724233523232B31F0612F630DC40102
:101240004B2D0E9415061F5F1A15ECF20F5FEC0C78
:10125000FD1C051524F410E0B02EB40CF5CFDF9181
:10126000CF911F910F91FF90EF90DF90CF90BF90A3
:10127000AF909F908F907F906F905F904F903F9036
:1012800008952F923F924F925F926F927F928F922A
:101290009F92AF92BF92CF92DF92EF92FF920F9305
:1012A0001F93DF93CF9300D00F92CDB7DEB79B8310
:1012B0008A83562E742E422F102FFC01F18DF98354
:1012C00083E586170CF489C0EFE2E7150CF485C0BE
:1012D000C02EDD249601220F331F2C0D3D1D862FBD
:1012E000992787FD9095820F931F181619060CF009
:1012F00074C0C901880F991F272D332727FD30950A
:10130000820F931F181619060CF067C083E0489FE0
:1013100010011124AA24B4E06B2EF3E0AF1611F4EF
:1013200080E009C0EA2DFF27E7FDF095E20DF31DEF
:10133000EE58FF4F8491AC9C902C1124950CBB244B
:10134000A6E08A2E4A2C450CE82EFF2480FF16C00A
:10135000113041F44B2D470D8A819B81642D0E94F1
:1013600015062CC0BC9C402D1124470D8A819B8101
:10137000692D212F012F0E94DF0620C0EA81FB8109
:10138000928D818D9817D1F0918F113041F44B2DB2
:10139000470D8A819B81642D0E9415060BC0BC9C61
:1013A000402D1124470D8A819B81692D212F012F0A
:1013B0000E94DF068981EA81FB81818FB3948A9440
:1013C00021F0F594E7948E2DBFCFA3946A9409F091
:1013D000A4CF8981EA81FB81818F0F900F900F90BC
:1013E000CF91DF911F910F91FF90EF90DF90CF9001
:1013F000BF90AF909F908F907F906F905F904F9035
:101400003F902F9008950F93CF93DF93EC01262FF9
:101410006A3031F48B8D26E0829FC00111242AC0EE
:101420006D3061F16F89488D0B8D0E9441098B8D64
:10143000482F50E0CA01880F991F880F991F2F89E4
:10144000280F2F8B8C8D8823C9F0332727FD3095EB
:1014500085E190E0841B950B880F991F880F991FD9
:10146000821793075CF4CA01880F991F840F951F98
:10147000880F991F288D280F288F1F8A81E090E000
:10148000DF91CF910F910895FC01678B408F0895F4
:10149000FC01662309F461E0638F08951F93CF93E5
:1014A000DF93EC01162FF894888560E00E943212D9
:1014B000898518161CF460E00E9432121EBD0DB41E
:1014C00007FEFDCF8EB5898518161CF461E00E94D9
:1014D00032127894DF91CF911F910895FF920F936C
:1014E0001F93CF93DF93EC01FF2400E010E06F2DFA
:1014F0006064CE010E944E0ACE0160E80E944E0A4E
:10150000888561E00E943212898518161CF460E01B
:101510000E943212F801E35EFE4F90E080818EBDA2
:101520000DB407FEFDCF8EB59F5F31969435B1F7B0
:10153000898518161CF461E00E943212F3940C5A4B
:101540001F4F86E0F81699F6CE0160E40E944E0A1D
:10155000DF91CF911F910F91FF900895CF93DF936B
:10156000DC0188EF91E0EDE1F1E0EF019C011992DF
:1015700021503040E1F757961C92579758961C928D
:10158000DF91CF910895EF920F93CF93DF93EC010A
:101590004F836E832887EA8609871F8A188E81E029
:1015A0008B8F898F1A8E8C8F1C820E94DE0481E0C3
:1015B0000E94BF0480E00E94CD048CE00E94C80419
:1015C0008F8161E00E94F3118E8161E00E94F3112E
:1015D000888561E00E94F3118A8518161CF461E089
:1015E0000E94F311898518161CF461E00E94F31122
:1015F0008A8518166CF460E00E94321265E070E093
:1016000080E090E00E94DD108A8561E00E94321245
:10161000EE812E2F332727FD3095F901E254FD4F3F
:10162000E491F0E0EE0FFF1FE655FD4F8591949198
:101630009E878D872E523D4FF90184918C8BEF81CF
:101640002E2F332727FD3095F901E254FD4FE49109
:10165000F0E0EE0FFF1FE655FD4F859194919C87BA
:101660008B872E523D4FF90184918B8BE9852E2F6C
:10167000332727FD3095F901E254FD4FE491F0E066
:10168000EE0FFF1FE655FD4F85919491988B8F8744
:101690002E523D4FF90184918D8BE8852E2F3327F3
:1016A00027FD3095F901E254FD4FE491F0E0EE0F93
:1016B000FF1FE655FD4F859194919A8B898B2E5291
:1016C0003D4FF90184918E8BCE0161E20E944E0A5A
:1016D000CE0164E10E944E0A8D8187FF02C08FE730
:1016E0008D836D816068CE010E944E0ACE0160E25A
:1016F0000E944E0ACE016CE00E944E0ACE010E946A
:101700006E0ADF91CF910F91EF900895FC0115AA19
:1017100014AA8DE493E093AB82AB0895CF93DF934B
:10172000DC01E0E8FFE685919491ED01C15BDF4FBC
:101730008150904C09F04FC0E6E9FFE6E491D7965E
:10174000EC93D797E7E9FFE6E4911496EC931497AE
:10175000E8E9FFE6E4911596EC931597E9E9FFE6D1
:101760008591949117969C938E931697EBE9FFE6DB
:101770008591949119969C938E931897EDE9FFE6C5
:10178000E4919796EC939797EEE9FFE6E4919696AD
:10179000EC939697EFE9FFE6E491E883E0EAFFE651
:1017A000859194915D969C938E935C97E2EAFFE617
:1017B000859194915F969C938E935E97E4EAFFE601
:1017C0008591949191969C938E939097E6EAFFE68B
:1017D0008591949134C08CE3D7968C93D7971496C7
:1017E0001C92149780E815968C93159780E293E0ED
:1017F00017969C938E93169784ED93E019969C937D
:101800008E93189783E097968C93979796968C93E0
:10181000969788E288838CEA9DE05D969C938E93F0
:101820005C9780E19EE05F969C938E935E9784E741
:101830009EE091969C938E9390978CE39FE0939675
:101840009C938E939297DF91CF9108958F929F9260
:10185000AF92BF92CF92DF92EF92FF920F931F93BE
:10186000DF93CF93CDB7DEB76E157F050CF452C072
:10187000C5018E0D9F1D681779070CF04BC04C15E4
:101880005D050CF447C0C4018C0D9D1D4817590718
:101890008CF140C0C5018E0D9F1D281739070CF033
:1018A00043C04C155D050CF43FC0C4018C0D9D1D5B
:1018B00048175907FCF038C0C5018E0D9F1D6817E9
:1018C0007907CCF54C155D05B4F1C4018C0D9D1D57
:1018D000481759077CF02FC0AE0CBF1C2A153B05DA
:1018E0005CF44C155D0544F080E08C0C9D1C4815A3
:1018F00059051CF481E001C080E0CF91DF911F9178
:101900000F91FF90EF90DF90CF90BF90AF909F909E
:101910008F90089561507040260F371F6F5F7F4F83
:101920002E153F050CF0B6CF41505040400F511FCF
:101930006E157F050CF62E153F0574F6DDCFEF9280
:10194000FF920F931F93CF93DF937C018C010E5C6A
:101950001F4FC8010E94AE0AC80161E372E00E94F5
:101960001213C8010E946E0A80E091E0EEEFFFE3DF
:101970000995F70116AAC8016CE072E00E945D1398
:10198000C8010E946E0AE7012A96CE010E94E50571
:10199000CE0164E00E94BD05882339F462E370E063
:1019A00080E090E00E94DD10F0CFDF91CF911F9199
:1019B0000F91FF90EF9008950F931F93CF93DF93B4
:1019C000EC018C010E5C1F4FC80161E040E00E94F9
:1019D0001106C80161E540E00E94440A698D623049
:1019E00038F0888D882321F06B5FC8010E94351381
:1019F000898D8130D1F4C05BDF4F88819981AA81C4
:101A0000BB81C055D0408F709070A070B0709E01A7
:101A10002E5C3F4F0897A105B10518F4C90167E096
:101A200002C0C90168E70E943513898D882329F512
:101A3000CE0185960E943F0FCE0160E00E94FB041C
:101A4000C8010E94AE0ACE01C2966CE372E00E9409
:101A50001213C8010E946E0A83B7817F846083BF1E
:101A600083B7816083BF83B7816083BF889583B765
:101A70008E7F83BF83B78E7F83BFDF91CF911F910E
:101A80000F910895CF92DF92EF92FF920F931F93E1
:101A9000CF93DF93EC01CB59DF4F8881C556D040FF
:101AA0008823C9F18C3010F010E002C01CE0181B34
:101AB00052E3C52ED12CCC0EDD1EC60161E00E9482
:101AC000480AC60160E00E940D0647E2F42EF10EBE
:101AD000C60160E04F2D24E509E033E0E32E0E94CB
:101AE0009808C60161E00E940D06C60160E04F2D16
:101AF00024E50E943A08175DC60164E0412F0E9468
:101B0000440ACD59DF4F69917991C6010E941213A1
:101B1000888181508883DF91CF911F910F91FF9031
:101B2000EF90DF90CF900895AF92BF92CF92DF9267
:101B3000EF92FF920F931F93CF93DF93EC017FE51A
:101B4000A72EB12CA80EB91EF501E080F18002810C
:101B500013810E94A910E61AF70A080B190B6EE50B
:101B6000C62ED12CCC0EDD1EF601808190E0A0E0C7
:101B7000B0E08E159F05A007B10708F075C08E0173
:101B8000065A1F4FF80180819181A281B38100978D
:101B9000A105B10509F468C00E94A910F6012081D1
:101BA000620F711D811D911DF50160837183828318
:101BB0009383FE01E05BFF4F80819181A281B3811D
:101BC0000196A11DB11D80839183A283B383F80187
:101BD00010821182128213820E94B710CA5ADF4FFC
:101BE000688379838A839B83C655D040CE010E9447
:101BF0000005CE010A960E94E505CE0148960E9496
:101C00007305CE0185960E94760F81E022C0CE0139
:101C10000E94420DCE010E94DC0C8E010E5C1F4F13
:101C2000C8010E946E0A8EA9882319F4C8010E9477
:101C3000AE0A0E94B710C65ADF4F688379838A8341
:101C40009B83249728813981621B730B7A936A9353
:101C500080E0DF91CF911F910F91FF90EF90DF9087
:101C6000CF90BF90AF900895C65ADF4F8881998179
:101C7000AA81BB81CA55D0400097A105B10541F7A3
:101C8000C6CF4F925F926F927F928F929F92AF9248
:101C9000BF92CF92DF92EF92FF920F931F93CF9359
:101CA000DF93EC012B016A01C25ADF4F82E3899373
:101CB000188219821A821B822F97188219821A821F
:101CC0001B822A9681E090E0A0E0B0E088839983AF
:101CD000AA83BB832B978FEF8883CF54D040CE014C
:101CE0000E948E0BCE010E94F5046AE0662E712CD4
:101CF0006C0E7D1EC3010E94A605CE0148960E946F
:101D0000680555E2A52EB12CAC0EBD1EC5010E9482
:101D1000341042E3842E912C8C0E9D1EC4016DE084
:101D20004BE020E10FE03EE0E32E0E94C30ACE012B
:101D300060E80E94FB0481E08EABC114D10411F471
:101D400000E009C0F60104910E5FC40160E04CE0C0
:101D500096010E94D308C401602F4CE00E94440AFF
:101D6000CE01C296B2010E9412138E01015B1F4F79
:101D7000F8018081882309F449C0C50162EF71E050
:101D800040E00E94250F780190E5C92ED12CCC0EA1
:101D9000DD1ECE010E94940D8823D9F3C30165E0B6
:101DA0000E94BD05882321F0C50160E00E944A0F12
:101DB000C30164E00E94BD05882391F4F7016081AE
:101DC000262F30E040E050E0F60180819181A28131
:101DD000B38182179307A407B50760F16F3F51F1F4
:101DE000C50160E00E94320F11C0C40168E44FE1F8
:101DF00028E701E00E944109C30166E00E94BD0599
:101E0000882339F2CE010E949F0CC3CF1EAA81E025
:101E1000888FDF91CF911F910F91FF90EF90DF900E
:101E2000CF90BF90AF909F908F907F906F905F907A
:101E30004F900895C5010E94590F8823E9F6D5CF28
:101E400040E050E00E94410E0895FC01442349F413
:101E50007483638381E08387128611861086809362
:101E6000CA030895FC01662349F413861092CD033A
:101E70001092CC031092CA031092B4000895FC0192
:101E800013861092CD031092CC031092CA031092C5
:101E9000B4000895FC01772767FD7095828190E07A
:101EA000861797070CF4BC01862F67FD80E08183BD
:101EB0000895FC0181810895FC0186E992E09483F4
:101EC000838381E083871286118610868093CA03FC
:101ED0000895FC018CE992E09483838381E08387F9
:101EE0001286118610868093CA030895CF93DF93DC
:101EF000EC01F8948B85882309F459C08A858823DE
:101F000009F052C088859985880F991FEB81FC8163
:101F1000E80FF91FA591B491109789F48C85882357
:101F200021F01986188681E041C01B861092CD03EE
:101F30001092CC031092CA031092B40038C0AD01C5
:101F400024E0569547952A95E1F7FD01EF2FFF27ED
:101F5000E695E695EA5EFC4F60818A2F817080935A
:101F6000CE032D818981289F90011124B695A795D4
:101F70008A2F877090E0FC012E9FC0012F9F900D4B
:101F80003E9F900D11248093CC038093CD034F731B
:101F90008881489F402D11244A876093CB03888510
:101FA00099850196998788878A8581508A87789450
:101FB000DF91CF9108956091CC03662381F18091E8
:101FC000C9038F5F8093C9039091CB03891738F1C0
:101FD00030E08091CA03882309F431E03093CA03CA
:101FE0001092C9038091CE038823A9F08091150334
:101FF00023E4829FC0011124895B8093150390E044
:1020000070E00E9409168093CD0305C08091CD0336
:102010008093B40008953323C9F780E0F9CF089581
:102020001F920F920FB60F9211242F933F934F934D
:102030005F936F937F938F939F93AF93BF93EF9330
:10204000FF930E94DB0FFF91EF91BF91AF919F91A2
:102050008F917F916F915F914F913F912F910F9051
:102060000FBE0F901F901895FC0181E080838CE0DB
:10207000858383E061E070E00E949311E1EBF0E082
:102080008081887F81608083F89410928000E1E8ED
:10209000F0E01082109285001092840088E191E0B7
:1020A00090938900809388008081886080838081FC
:1020B00081608083EFE6F0E08081826080837894A5
:1020C00008951F920F920FB60F9211242F933F93F2
:1020D0008F939F93AF93BF938091D3039091D40339
:1020E000A091D503B091D6033091D7030196A11DDD
:1020F000B11D232F2D5F2D3720F02D570196A11DE7
:10210000B11D2093D7038093D3039093D403A0935E
:10211000D503B093D6038091CF039091D003A091C3
:10212000D103B091D2030196A11DB11D8093CF03BD
:102130009093D003A093D103B093D203BF91AF91FA
:102140009F918F913F912F910F900FBE0F901F90F5
:1021500018958FB7F8942091D3033091D403409110
:10216000D5035091D6038FBFB901CA0108959FB717
:10217000F8942091CF033091D0034091D103509136
:10218000D20386B5A89B06C08F3F21F02F5F3F4F3B
:102190004F4F5F4F9FBF542F432F322F2227280FBF
:1021A000311D411D511D82E0220F331F441F551F59
:1021B0008A95D1F7B901CA0108959B01AC017FB797
:1021C000F8948091CF039091D003A091D103B09166
:1021D000D20366B5A89B05C06F3F19F00196A11DFB
:1021E000B11D7FBFBA2FA92F982F8827860F911D69
:1021F000A11DB11D62E0880F991FAA1FBB1F6A9520
:10220000D1F7BC012DC0FFB7F8948091CF03909116
:10221000D003A091D103B091D203E6B5A89B05C02D
:10222000EF3F19F00196A11DB11DFFBFBA2FA92FD5
:10223000982F88278E0F911DA11DB11DE2E0880FF8
:10224000991FAA1FBB1FEA95D1F7861B970B885EC3
:102250009340C8F2215030404040504068517C4F7C
:10226000211531054105510571F60895789484B51D
:10227000826084BD84B5816084BD85B5826085BD82
:1022800085B5816085BDEEE6F0E080818160808368
:10229000E1E8F0E01082808182608083808181604B
:1022A0008083E0E8F0E0808181608083E1EBF0E012
:1022B000808184608083E0EBF0E0808181608083B6
:1022C000EAE7F0E08081846080838081826080839F
:1022D0008081816080838081806880831092C100CA
:1022E0000895982F8E3008F09E5097708091480383
:1022F0008295880F880F807C892B80937C00809149
:102300007A00806480937A0080917A0086FDFCCF09
:102310002091780040917900942F80E030E0282BC4
:10232000392BC90108951F93CF93DF93182FEB0129
:1023300061E00E94F311209709F44AC0CF3FD10514
:1023400009F449C0E12FF0E0EA51FD4F8491833058
:10235000C1F0843028F4813051F08230B1F50CC0E6
:10236000863019F1873049F1843079F514C084B58D
:10237000806884BDC7BD33C084B5806284BDC8BDDC
:102380002EC080918000806880938000D093890067
:10239000C093880024C08091800080628093800078
:1023A000D0938B00C0938A001AC08091B0008068DF
:1023B0008093B000C093B30012C08091B0008062DF
:1023C0008093B000C093B4000AC0C038D1051CF49B
:1023D000812F60E002C0812F61E00E943212DF9104
:1023E000CF911F910895CF93DF93482F50E0CA01FA
:1023F0008E529D4FFC01349142545D4FFA018491FD
:10240000882369F190E0880F991FFC01E056FD4F89
:10241000A591B491FC01E655FD4FC591D491662379
:1024200051F42FB7F8948C91932F909589238C9326
:10243000888189230BC0623061F42FB7F8948C91A6
:10244000932F909589238C938881832B88832FBF2A
:1024500006C09FB7F8948C91832B8C939FBFDF911C
:10246000CF910895482F50E0CA018A519D4FFC0139
:102470002491CA018E529D4FFC01949142545D4FAC
:10248000FA013491332309F440C0222351F123305F
:1024900071F0243028F42130A1F0223011F514C05D
:1024A0002630B1F02730C1F02430D9F404C0809137
:1024B00080008F7703C0809180008F7D80938000A3
:1024C00010C084B58F7702C084B58F7D84BD09C0EC
:1024D0008091B0008F7703C08091B0008F7D809392
:1024E000B000E32FF0E0EE0FFF1FE655FD4FA59182
:1024F000B4912FB7F894662321F48C919095892399
:1025000002C08C91892B8C932FBF0895682F70E0A7
:10251000CB018A519D4FFC012491CB018E529D4FDE
:10252000FC01449162547D4FFB019491992319F46D
:1025300020E030E03CC0222351F1233071F0243000
:1025400028F42130A1F0223011F514C02630B1F06A
:102550002730C1F02430D9F404C0809180008F77F7
:1025600003C0809180008F7D8093800010C084B56F
:102570008F7702C084B58F7D84BD09C08091B00083
:102580008F7703C08091B0008F7D8093B000892F3A
:1025900090E0880F991F8C549D4FFC01A591B49138
:1025A0008C9120E030E0842311F021E030E0C9017B
:1025B0000895CF93DF930E9436110E94B604C0E0C5
:1025C000D0E00E945B022097E1F30E940000F9CF67
:1025D000CF92DF92EF92FF920F931F93CF93DF93EF
:1025E0007C016B018A01C0E0D0E00FC0D6016D9183
:1025F0006D01D701ED91FC910190F081E02DC701B3
:102600000995C80FD91F015010400115110571F728
:10261000CE01DF91CF911F910F91FF90EF90DF904E
:10262000CF900895EF92FF920F931F93CF93DF9374
:102630007C018B01C0E0D0E0F8010F5F1F4F649177
:10264000662359F0D701ED91FC910190F081E02DC6
:10265000C7010995C80FD91FEFCFCE01DF91CF91E8
:102660001F910F91FF90EF900895DC01ED91FC9187
:102670000190F081E02D09950895EF92FF920F935C
:102680001F938C01DC01ED91FC910190F081E02D14
:102690006DE009957C01D801ED91FC910190F081EC
:1026A000E02DC8016AE009959C012E0D3F1DC9016E
:1026B0001F910F91FF90EF900895EF92FF920F936B
:1026C0001F937C010E9412138C01C7010E943D13CD
:1026D0009C01200F311FC9011F910F91FF90EF90B6
:1026E0000895CF93DF93EC016115710519F420E093
:1026F00030E00FC0DB010D900020E9F71197A61B19
:10270000B70BE881F9810280F381E02DAD010995D5
:102710009C01C901DF91CF9108954F925F927F9202
:102720008F929F92AF92BF92CF92DF92EF92FF92E1
:102730000F931F93DF93CF93CDB7DEB7A1970FB65B
:10274000F894DEBF0FBECDBF2C01742ECB0122301A
:1027500008F42AE019A231E2C32ED12CCC0EDD1EE2
:10276000822E9924AA24BB24672D752FA5019401DC
:102770000E94301679018A01C801B701A5019401B0
:102780000E94EA15472D461B0894C108D1084A301B
:1027900014F4405D01C0495CF6014083E114F1048A
:1027A0000105110521F07E2C5F2DC801DDCFC2018E
:1027B000B6010E947113A1960FB6F894DEBF0FBE4A
:1027C000CDBFCF91DF911F910F91FF90EF90DF90E0
:1027D000CF90BF90AF909F908F907F905F904F90E1
:1027E0000895CF92DF92EF92FF920F931F93CF93B2
:1027F000DF93EC016A017B012115310541F4E88189
:10280000F9810190F081E02D642F09951FC02A30D5
:102810003105D1F477FF17C0E881F9810190F0818B
:10282000E02D6DE209958C0144275527BA014C191A
:102830005D096E097F09CE012AE00E948D1398017F
:10284000280F391F04C02AE00E948D139C01C90182
:10285000DF91CF911F910F91FF90EF90DF90CF907C
:102860000895EF92FF920F931F937B019A01002727
:10287000F7FC0095102FB801A7010E94F1131F91DA
:102880000F91FF90EF9008952F923F924F925F9299
:102890006F927F928F929F92AF92BF92CF92DF9270
:1028A000EF92FF920F931F93DF93CF93CDB7DEB7D5
:1028B0003B014C0119012A016D897E898F89988D10
:1028C0006A197B098C099D09621A730A840A950AA0
:1028D000A40193010E94EA15E218F30804091509FE
:1028E000A80197010E9452162A0D3B1D4C1D5D1D2B
:1028F000B901CA01CF91DF911F910F91FF90EF9025
:10290000DF90CF90BF90AF909F908F907F906F900F
:102910005F904F903F902F900895EF92FF920F930A
:102920001F937B018C01611571058105910529F4C7
:1029300020E030E040E050E00BC00E94FB01A80125
:1029400097010E945216AC01CB01DA019C01AD0146
:10295000B901CA011F910F91FF90EF900895EF9276
:10296000FF920F931F937B018C01621773078407FB
:10297000950764F4261B370B480B590BCA01B901A4
:102980000E948D14E60EF71E081F191FB701C8011B
:102990001F910F91FF90EF90089598D088F09F5766
:1029A00090F0B92F9927B751A0F0D1F0660F771F9B
:1029B000881F991F1AF0BA95C9F712C0B13081F07B
:1029C0009FD0B1E008959CC0672F782F8827B85F0B
:1029D00039F0B93FCCF3869577956795B395D9F7DC
:1029E0003EF490958095709561957F4F8F4F9F4FE6
:1029F0000895E89409C097FB3EF4909580957095F2
:102A000061957F4F8F4F9F4F9923A9F0F92F96E93A
:102A1000BB279395F695879577956795B795F111AF
:102A2000F8CFFAF4BB0F11F460FF1BC06F5F7F4F4C
:102A30008F4F9F4F16C0882311F096E911C077235E
:102A400021F09EE8872F762F05C0662371F096E867
:102A5000862F70E060E02AF09A95660F771F881F36
:102A6000DAF7880F9695879597F9089597F99F67F4
:102A700080E870E060E008959FEF80EC0895002406
:102A80000A941616170618060906089500240A94D3
:102A900012161306140605060895092E0394000C59
:102AA00011F4882352F0BB0F40F4BF2B11F460FFE8
:102AB00004C06F5F7F4F8F4F9F4F089557FD905811
:102AC000440F551F59F05F3F71F04795880F97FBF2
:102AD000991F61F09F3F79F08795089512161306AC
:102AE0001406551FF2CF4695F1DF08C016161706DB
:102AF0001806991FF1CF8695710561050894089510
:102B0000E894BB2766277727CB0197F908950BD068
:102B1000C4CFB5DF28F0BADF18F0952309F0A6CFAF
:102B2000ABCF1124EECFCADFA0F3959FD1F3950F61
:102B300050E0551F629FF001729FBB27F00DB11D41
:102B4000639FAA27F00DB11DAA1F649F6627B00DD1
:102B5000A11D661F829F2227B00DA11D621F739FBA
:102B6000B00DA11D621F839FA00D611D221F749FC8
:102B70003327A00D611D231F849F600D211D822F0F
:102B8000762F6A2F11249F5750408AF0E1F0882356
:102B90004AF0EE0FFF1FBB1F661F771F881F915063
:102BA0005040A9F79E3F510570F060CFAACF5F3F1C
:102BB000ECF3983EDCF3869577956795B795F79596
:102BC000E7959F5FC1F7FE2B880F911D969587951E
:102BD00097F90895629FD001739FF001829FE00DE5
:102BE000F11D649FE00DF11D929FF00D839FF00D8C
:102BF000749FF00D659FF00D9927729FB00DE11D38
:102C0000F91F639FB00DE11DF91FBD01CF01112414
:102C10000895AA1BBB1B51E107C0AA1FBB1FA61723
:102C2000B70710F0A61BB70B881F991F5A95A9F775
:102C300080959095BC01CD01089597FB092E07263C
:102C40000AD077FD04D0E5DF06D000201AF4709595
:102C500061957F4F0895F6F7909581959F4F089560
:102C6000A1E21A2EAA1BBB1BFD010DC0AA1FBB1F90
:102C7000EE1FFF1FA217B307E407F50720F0A21B02
:102C8000B30BE40BF50B661F771F881F991F1A946F
:102C900069F760957095809590959B01AC01BD0199
:102CA000CF01089597FB092E05260ED057FD04D0BD
:102CB000D7DF0AD0001C38F4509540953095219507
:102CC0003F4F4F4F5F4F0895F6F790958095709561
:102CD00061957F4F8F4F9F4F0895EE0FFF1F059017
:102CE000F491E02D09942F923F924F925F926F9250
:102CF0007F928F929F92AF92BF92CF92DF92EF928C
:102D0000FF920F931F93CF93DF93CDB7DEB7CA1B0C
:102D1000DB0B0FB6F894DEBF0FBECDBF09942A8837
:102D2000398848885F846E847D848C849B84AA84DF
:102D3000B984C884DF80EE80FD800C811B81AA816C
:102D4000B981CE0FD11D0FB6F894DEBF0FBECDBF37
:082D5000ED010895F894FFCF96
:102D58004C4F41444552000100000010000300029E
:102D6800001000030002000600030003000000F04A
:102D7800FC0E024341C1C10180E0705C4F7FFC80C2
:102D880000C0F03E1FFFE0E0781CFFFF0080FF7FDF
:102D9800111111110100C0FF3F11193FE6C000F8E1
:102DA800FF07000000F8FF07E0FF1FC0FF3F0E3CD1
:102DB800F0C0E0FF1F00F8FC0603010183FE7C0061
:102DC80000000000010302020303000203010000E7
:102DD80000000303020301000003030000000303D3
:102DE80000030302020202020200030302020203BA
:102DF80001010001030202020301000003030003B2
:102E080003000000000103030000000103020203A5
:102E180001000000000000000000000000000000A9
:102E2800000000000000000000000000000000009A
:102E3800000000000000000000000000000000008A
:102E4800000000000000000000000000000000007A
:102E58000000000000000000C02010D0901020C02A
:102E680000000000C060A060C0000000000000007A
:102E7800000000000000000000000000000000004A
:102E8800000000000000000000000000000000003A
:102E9800000000000000000000000000000000002A
:102EA8000000000000000000000000000708109764
:102EB8001311080780000000078C8E8C07000000A3
:102EC80000000000000000000000000000000000FA
:102ED80000000000000000000000000000000000EA
:102EE80000000000000000000000000000000000DA
:102EF8000000000000000000000000000000001EAC
:102F08001E1E3F7F000C211E403F00001F30353140
:102F18001F0000000000000000000000000000008A
:102F28000000000000000000000000000000000099
:102F38000000000000000000000000000000000089
:102F48000000000000000000000000000000000079
:102F5800000000FE9D858585868484E41C000000B1
:102F68007CC6D6D67C01DBCFC3B8AEA49B938A833C
:102F78007B746E68625C57524E4A45423E3A37341B
:102F8800312E2C29272523211F1D000000000000B9
:102F980000000000000000000100000000030AE833
:022FA800120015
:00000001FF
