:100000000C94FE010C9426020C9426020C942602F9
:100010000C9426020C9426020C9426020C942602C0
:100020000C9426020C9426020C9426020C94BE1307
:100030000C9426020C9426020C9426020C942602A0
:100040000C9435140C9426020C9426020C9426026F
:100050000C9426020C9426020C9426020C94260280
:100060000C9426020C94260220000F0020000F00A2
:100070000F0053756E0047656E00506F7000436F40
:100080006E77617927732067616D65206F66206CDC
:1000900069666500436F6E77617927732067616DCC
:1000A00065206F66206C6966650003053F213F0A85
:1000B000100A1208120E1C0E0C1E0C141A14161F15
:1000C000161E131E1E1B1E1E1F1E3F213F3A2F3AD7
:1000D000173D173F213F181F02040A041F0E040496
:1000E0000E1F0A1F0A0E0E1F04110E2E252E2F2A78
:1000F0002E262929021F02081F08150E04040E15BA
:100100000E15151B151B040604040C04000000004A
:1001100017000300031F0A1F16371A1904130A15C4
:100120003A000300000E11110E000A040A040E0426
:100130000030000404040010001804031F111F12F3
:100140001F101D151711151F07041F17151D1F154B
:100150001D01011F1F151F17151F000A0000320087
:10016000040A110A0A0A110A040115020E11171EC7
:10017000051E1F150A0E110A1F110E1F15111F054E
:10018000010E111D1F041F111F1108100F1F041B4A
:100190001F10101F061F1E040F0E110E1F09060E42
:1001A000112E1F051A121509011F011F101F0F180C
:1001B0000F1F0C1F1B041B031C03191513001F1119
:1001C000030418111F000201022020200001020C6C
:1001D000121E1F120C0C12120C121F0C1A14041EE9
:1001E00005242A1E1F021C141D1020201D1F081488
:1001F000111F101E041E1E021C0C120C3E0A040CC1
:10020000123E1E040214160A020F120E101E0E10C9
:100210000E1E081E120C1226281E322A26041E212B
:10022000001F00211E040102013F213F0A4E6F20E2
:1002300053442063617264206F720A6E6F204C4FCA
:10024000414445522E4845580A0A153A4578697482
:10025000001D20466C617368696E670A20206C6F10
:10026000616465722E2E2E0A0A444F4E2754205484
:1002700055524E204F464621004E4F204241545485
:100280004552590A0A504C454153450A5455524E5D
:10029000204F464600177361766500166261636BF6
:1002A000001574797065000A0A0A153A6F6B617956
:1002B00020163A6564697400596F7520656E74651F
:1002C0007265640A00540A03E181867F3E186D83DB
:1002D0000F0F0E0183866033186DC3198F1803C387
:1002E0008E6033186DE330CF1803C39E603630CD77
:1002F000E360CF3006C79E7E3E30CDB360CF300C7A
:10030000C6F6603330D9B660CF33CFCCF66061B07B
:10031000DB1E60CF30D86CE6C061B0DB1E618F1988
:10032000986CC6C063B19B0E330F0FB078C6FF7ECA
:100330001F1B061E0F1753440016137800161314C4
:10034000001510200015201000000005008930085D
:100350000238024978681400004500680100000571
:10036000006801380100000500380168010000F64E
:10037000E8DBCFC3B8AEA49B928A827B746E6862BE
:100380005C57524E4945413E3A3734312E2C29278D
:1003900025232197039B030101F7030101FF0300BC
:1003A000000000240027002A00000000002500288B
:1003B000002B000000000023002600290004040494
:1003C00004040404040202020202020303030303FE
:1003D00003010204081020408001020408102001DB
:1003E00002040810200000000700020100000304BE
:1003F00006000000000000000000760211241FBE6D
:10040000CFEFD8E0DEBFCDBF11E0A0E0B1E0EEEB72
:10041000F4E302C005900D92A432B107D9F714E0BD
:10042000A4E2B1E001C01D92A73BB107E1F713E0E0
:10043000CCEFD3E004C02297FE010E94C119CA3F4D
:10044000D107C9F70E9463160C945D1A0C94000042
:10045000E62FE695E695E69590E070E04423B1F04E
:10046000F0E036E0EE0FFF1F3A95E1F7E80FF91FD5
:10047000E855FE4F6770707081E090E002C0880F11
:10048000991F6A95E2F72081282B16C0F0E026E03C
:10049000EE0FFF1F2A95E1F7E80FF91FE855FE4F11
:1004A0006770707081E090E002C0880F991F6A95B4
:1004B000E2F780952081282320830895E62FE69592
:1004C000E695E695F0E046E0EE0FFF1F4A95E1F76E
:1004D000E80FF11DE855FE4F808190E0677002C083
:1004E000959587956A95E2F781700895109273014A
:1004F0001092720180E291E09093710180937001FB
:100500000895FF920F931F9310923C0181E0809316
:1005100076011092A9021092A8021092AE021092D7
:10052000AD021092AF0280E791E00E94690B80E774
:1005300091E060E040E022E402E20E948C0710E0DB
:100540002AC00E94181A63707070807090706115D4
:10055000710581059105A9F4812F602F41E00E946A
:100560002802402F4F5F80E791E06F2D0E946106C7
:100570008091A8029091A90201969093A90280937C
:10058000A8020F5F0032E9F680E791E00E94290B94
:100590001F5F103421F000E0F12EF394D2CF1F91B1
:1005A0000F91FF9008959F92AF92BF92CF92DF92EA
:1005B000EF92FF920F931F93CF93DF9384E291E02A
:1005C0000E942A0E882309F425C28EE291E066E09B
:1005D0000E942706882341F084E291E06EE770E0F4
:1005E0000E9441100E9481028091AD029091AE0262
:1005F00001969093AE028093AD0221E0E22EF12CA1
:100600009EC09E012150D22E6E96BE016F717070F9
:100610006E97062F892D0E945E02811181E0182FAE
:100620008B2D602F0E945E0281111F5F8C2D602F29
:100630000E945E0281111F5F8C2D6D2D0E945E0253
:1006400081111F5FBE016F717070062F8C2D0E948B
:100650005E0281111F5F8B2D602F0E945E0281114F
:100660001F5F8A2D602F0E945E0281111F5F8A2DFD
:100670006D2D0E945E0281111F5F8B2D6D2D0E94DA
:100680005E028823D9F01250123008F44AC080E785
:1006900091E060E00E94590680E791E06E2D4C2FBA
:1006A0000E94610680E791E061E040E00E945D0603
:1006B0008091A8029091A90201972FC0133011F1E7
:1006C000123079F58091250190912601875B934046
:1006D00008F497C10E94181A6F7370708070907040
:1006E000611571058105910509F08BC10BC00E9450
:1006F000181A6F77707080709070611571058105A0
:10070000910579F480E791E06E2D4C2F0E946106EF
:100710008091A8029091A90201969093A9028093DA
:10072000A8022196C132D10509F06BCF0894E11CD3
:10073000F11C81E4E816F10411F4EE242AC0BE2C69
:10074000BA94C1E0D0E09EEF992E9E0C0FE3C02E2C
:10075000CE202EE330E0E20EF31E1FE3A12EAE20EA
:1007600082EC9FEFE80EF91E4CCF102F012F0F5F88
:1007700080E791E06F2D402F0E949A06482F8E2D22
:10078000612F0E942802003281F790E4F91629F0C7
:10079000EF2C10E0FE2CF394E9CF60919201709160
:1007A0009301809194019091950126E030E040E022
:1007B00050E00E9482196115710581059105E1F1F2
:1007C0002091AA023091AB028091A8029091A902D7
:1007D0002817390739F58091AC028F5F8093AC02FE
:1007E000853010F180E791E061E040E00E945D0615
:1007F00016E21093790184E280937A0180E791E018
:1008000060E071E00E94B817109379018091750142
:100810008C5D80937A0180E791E066E071E00E9450
:10082000B81702C01092AC028091A8029091A90260
:100830009093AB028093AA02109277018091740189
:1008400005E110E09801281B3109C901880F991FA3
:10085000880F991F8093790182E080937A0180E765
:1008600091E06AE770E00E94E716809174019801B8
:10087000281B3109C901880F991F880F991F809380
:1008800079016091A8027091A90280E791E04AE0A5
:1008900050E00E948A1780E791E06DE071E00E94CD
:1008A000BB17809174019801281B3109C901880F79
:1008B000991F880F991F8093790180917A018E5F2B
:1008C00080937A0180E791E066E770E00E94E71686
:1008D000809174019801281B3109C901880F991F63
:1008E000880F991F809379016091AD027091AE02DB
:1008F00080E791E04AE050E00E949B1780917401EC
:100900009801281B3109C901880F991F880F991F69
:100910008093790180917A018E5F80937A0180E7DC
:1009200091E062E770E00E94E71680917401081B75
:100930001109000F111F000F111F0093790180E7AB
:1009400091E060E770E00E949C16809125019091F3
:1009500026018558934028F080E791E06EE670E02C
:1009600004C080E791E06CE670E00E949C168091E4
:10097000250190912601875B934028F080E791E064
:100980006AE670E004C080E791E068E670E00E94EB
:100990009C1680E791E060E00E94590680E791E0B4
:1009A0006091AF0242E22EE00E944C0780E791E0A6
:1009B00061E040E00E945D066091AF026F5F80E7FA
:1009C00091E042E22EE00E944C078091A8029091B3
:1009D000A90255E0969587955A95E1F78F7040E307
:1009E000481B80E791E06091AF020E946106809110
:1009F000AF028F5F8093AF02813460F01092AF023C
:100A000009C080912501909126018558934008F4F2
:100A100088CE6DCEDF91CF911F910F91FF90EF9017
:100A2000DF90CF90BF90AF909F9008950F931F934A
:100A300004E211E0C8010E944610C80164E970E0B8
:100A40000E944110C8010E94F50D0E9481021F9171
:100A50000F910895882319F48CB5806202C08CB57B
:100A60008F7D8CBD08959CB5937F982B9CBD089578
:100A70002CB5382F33702C7F322B3CBD2DB590E038
:100A8000959587959595879581702E7F822B8DBD45
:100A900008958AE061E00E9400168AE061E00E9409
:100AA00094158CB580618CBD8CB580648CBD8DE057
:100AB00061E00E9494158BE061E00E949415089516
:100AC000FC0181E08083089585E070E00E94341588
:100AD00008956F927F928F929F92AF92BF92CF9222
:100AE000DF92EF92FF920F931F93CF93DF93EC016E
:100AF00089819A818C0124E0000F111F2A95E1F76A
:100B0000081B190B85E10E941215BC01600F711FB3
:100B100084E0769567958A95E1F77A836983888181
:100B2000882381F12E813F816217730710F4B90188
:100B300006C0888599858617970708F4BC0100D000
:100B400000D080E090E040E050E0E884F98400E0EC
:100B500010E0AD80BB24CC24DD246C807724882475
:100B60009924EDB7FEB761827282838294820E94DB
:100B7000CE176B830F900F900F900F9085E070E071
:100B80000E943415DF91CF911F910F91FF90EF904C
:100B9000DF90CF90BF90AF909F908F907F906F909D
:100BA0000895FC018CE39FE09383828384E081833A
:100BB00081E084870895CF93DF93EC018C8590E0EA
:100BC0008F719070892B69F584E10E941215AA2714
:100BD00097FDA095BA2FBC01CD010E944D1826EEBD
:100BE0003FE34EEC50E40E94D9180E941F189B016D
:100BF000AC017B836A836115710589F084E0898388
:100C0000B901FE0120E0848195816817790710F40D
:100C100029830AC02F5F32962430A9F702C08FEFD4
:100C200089838C858F5F8C87DF91CF910895FC013C
:100C300088E0808389E0818387E0828386E0838304
:100C400084E0848382E0858381E18683089520E0C7
:100C5000FC01E60FF11D8781813009F421E0822F2C
:100C600008950F931F93CF93DF93EC0110E00FEFE4
:100C7000888162E00E94941588810E9433162F813A
:100C8000892B19F42F5F2F8307C0222349F02F3FB0
:100C900011F41F8201C00F83888160E00E949415C7
:100CA0001F5F2196173021F7DF91CF911F910F9190
:100CB0000895FC01678F60A30895FC01678F40A32E
:100CC0000895FC016435A8F547FD33C040338CF529
:100CD000878D942F959595959595772767FD7095B8
:100CE0004770882399F0E4E59E02F0011124E60F95
:100CF000F71FE055FD4F81E090E002C0880F991F7B
:100D00004A95E2F72081282B20830895E4E59E028E
:100D1000F0011124E60FF71FE055FD4F81E090E050
:100D200002C0880F991F4A95E2F7809520812823F9
:100D300020830895742F643530F547FD24C0403377
:100D400014F5842F859585958595992787FD909530
:100D5000462F552747FD509524E530E0829FF0014E
:100D6000839FF00D929FF00D1124E40FF51FE055C5
:100D7000FD4F808190E0777002C0959587957A95B8
:100D8000E2F78170089580E00895AF92BF92CF920C
:100D9000DF92EF92FF920F931F93CF93DF93EC01BB
:100DA000162FF42EE22EAA24402F552747FD5095EA
:100DB0008F2D992787FD9095481B590B57FF03C02E
:100DC000509541955F4F2E2D332727FD3095812F6C
:100DD000992787FD9095281B390B37FF03C0309565
:100DE00021953F4F2417350744F4AA24A3948F2D4F
:100DF000F12E182F802F0E2DE82EE11634F48E2DB3
:100E0000E12E182F802F0F2DF82EDE2CD11A202F37
:100E1000332727FD30958F2D992787FD9095281B27
:100E2000390B37FF03C0309521953F4FB22EF01696
:100E30001CF0CC24CA9402C0CC24C3948D2DD7FCC2
:100E40008F5F082F059511C0AA2021F0CE016F2DCC
:100E5000412F03C0CE01612F4F2D0E9461060B1957
:100E600007FF02C0FC0C0D0D1F5FE1166CF7DF9150
:100E7000CF911F910F91FF90EF90DF90CF90BF9097
:100E8000AF9008950F93042F322F262F2150230F58
:100E90000E94C5060F9108950F93362F042F01501D
:100EA000020F232F0E94C5060F9108959F92AF92C3
:100EB000BF92CF92DF92EF92FF920F931F93CF9347
:100EC000DF936C01B62E942EA02EC0E0D0E0E62E6B
:100ED000FF24E7FCF094022F112707FD10950E0D5B
:100EE0001F1D06C0C601492D2A2D0E944C072196C0
:100EF0006B2D6C0FCE018E0D9F1D8017910794F303
:100F0000DF91CF911F910F91FF90EF90DF90CF90E5
:100F1000BF90AF909F900895CF92DF92EF92FF9293
:100F20000F931F937C01162FD42EC22E0E944207CE
:100F30004D2D4150400FC701612F2C2D0E944207BB
:100F4000C701612F4D2D202F0E944C0711501C0D01
:100F5000C701612F4D2D202F0E944C071F910F912B
:100F6000FF90EF90DF90CF9008952F923F925F9285
:100F70006F927F928F929F92AF92BF92CF92DF92A9
:100F8000EF92FF920F931F93DF93CF9300D000D087
:100F900000D0CDB7DEB79E838D83C62ED42EEE242F
:100FA000E394E21A8EEF289F502C1124842E8A9409
:100FB000962E9A94A42EA394B62EB394F22E662461
:100FC00023E0722E10E0C801847090709A838983A8
:100FD000F801E270F070FC83EB8398E0292E312C4D
:100FE000202231220170107054C0E7FC04C0FA9432
:100FF000F2E05F0EE50C639489819A81892B71F090
:101000004F2D4D0D8D819E816B2D0E9461066F2DA0
:101010006C0D8D819E814A2D0E946106EB81FC81C1
:10102000EF2B71F04D2D4F198D819E816B2D0E94FC
:1010300061066F2D6C0D8D819E81482D0E94610689
:101040002114310471F06C2D6F198D819E814A2D10
:101050000E9461064F2D4D0D8D819E81692D0E944C
:1010600061060115110571F06C2D6F198D819E813E
:10107000482D0E9461064D2D4F198D819E81692D4D
:101080000E946106E70CF2E07F0E8A949A94A39482
:10109000B3946F140CF4A9CF26960FB6F894DEBF64
:1010A0000FBECDBFCF91DF911F910F91FF90EF90B9
:1010B000DF90CF90BF90AF909F908F907F906F9078
:1010C0005F903F902F9008954F925F926F927F9222
:1010D0008F929F92AF92BF92CF92DF92EF92FF9248
:1010E0000F931F93CF93DF93EC01A62E742E9E2DAA
:1010F000FF24F394F21A8EEF289F802C1124B42E33
:10110000BA9453E0C52ECE0CE22EDD2443E0942E9B
:1011100010E031E0432E512C40225122692E63947D
:101120000270107034C0F7FC04C0EA9482E0880EAC
:10113000F80CD3944114510489F06D2D6A0D472D9C
:101140004E192E2D220F260DCE010E944C076E2D1A
:101150006A0DCE014B2D2C2D0E944C070115110557
:1011600089F06A2D6D19472D4E192E2D220F260D4F
:10117000CE010E944C076A2D6E19CE014B2D2C2DED
:101180000E944C07F90C82E0980EBA94C80EDE1447
:1011900054F2DF91CF911F910F91FF90EF90DF906C
:1011A000CF90BF90AF909F908F907F906F905F9007
:1011B0004F9008957F928F929F92AF92BF92CF925D
:1011C000DF92EF92FF920F931F936C01962EA42E45
:1011D000F22E7E2C760E1EEFE19E102D1124812E14
:1011E000820E672D282D0E944207B02EBA0CBA94A9
:1011F000C601672D4B2D282D0E944207AE0C100F03
:10120000C601692D4A2D212F0E944C07F90CFA9432
:10121000C6016F2D4A2D212F0E944C07C601672D54
:101220004A2D2E2D01E00E94B507FE18C6016F2D34
:101230004A2D2E2D02E00E94B507BE18C6016F2D63
:101240004B2D2E2D04E00E94B507C601672D4B2DB6
:101250002E2D08E00E94B5071F910F91FF90EF908F
:10126000DF90CF90BF90AF909F908F907F90089528
:101270008F929F92AF92BF92CF92DF92EF92FF92A6
:101280000F931F936C01162FA42E922EF02EBE2CBE
:101290008E2C860E2EEFE29EE02C11242E2D290D91
:1012A000682D0E945607AB0CFA94FE0C1150190DD4
:1012B0001B19C601612F4A2D2B2D01E0EF2C0E9436
:1012C0006408C601682D4A2D2B2D02E00E94640897
:1012D0001F910F91FF90EF90DF90CF90BF90AF9054
:1012E0009F908F9008953F924F925F926F927F925E
:1012F0008F929F92AF92BF92CF92DF92EF92FF9226
:101300000F931F93CF93DF934C01362E442EF90198
:10131000A490319654906F010894C11CD11C8A2D61
:10132000992787FD9095079668E070E00E946F19F5
:10133000E62EFF24E7FCF09400E0C0E0D0E060E897
:10134000662E712C26C0E12FE595E595E595FF27E2
:10135000E7FDF095EC0FFD1FEC0DFD1DE4912E2F28
:1013600030E0812F8770A30102C0559547958A957B
:10137000E2F724233523232B31F0612F630DC401C1
:101380004B2D0E9461061F5F1A15ECF20F5FCE0D08
:10139000DF1D051524F410E0B02EB40CF5CFDF915D
:1013A000CF911F910F91FF90EF90DF90CF90BF9062
:1013B000AF909F908F907F906F905F904F903F90F5
:1013C0000895DC01FB0184918F5F14968C93149730
:1013D000319684918F5F15968C93159731965E9612
:1013E000FC93EE935D9708953F924F925F926F92B8
:1013F0007F928F929F92AF92BF92CF92DF92EF92A5
:10140000FF920F931F93CF93DF93EC01862EA42EB0
:10141000422F102F3F8C23E526170CF4ABC03FE280
:101420003A150CF4A7C0C02EDD248C8190E0019702
:101430009C01C29EC001C39E900DD29E900D1124AE
:10144000262F332727FD3095820F931F1816190674
:101450000CF090C08D8190E09C01C29EC001C39EA3
:10146000900DD29E900D11242A2D332727FD309503
:10147000820F931F181619060CF07CC09924442E75
:1014800055246DC09C01215030404217530711F480
:1014900060E00EC0429EC001439E900D529E900D92
:1014A0001124840F951FED8DFE8DE80FF91F6491B7
:1014B0004C9DC0014D9D900D5C9D900D1124682C9C
:1014C000680EBB24792C780C3FC0E62EFF2460FF09
:1014D00019C0113039F44B2D4A0DCE01672D0E94F1
:1014E00061062EC02C9DC0012D9D900D3C9D900D40
:1014F00011244A2D480FCE01662D212F012F0E9465
:1015000056071EC098A18F8D9817D1F09F8F11306C
:1015100039F44B2D4A0DCE01672D0E9461060FC094
:101520002C9DC0012D9D900D3C9D900D11244A2DA8
:10153000480FCE01662D212F012F0E9456073F8EA6
:10154000F594E7946E2DB3942B2D332727FD30951A
:101550008D8190E0281739070CF4B7CF9394492D6B
:10156000552747FD50958C8190E0481759070CF49A
:1015700089CF3F8EDF91CF911F910F91FF90EF9018
:10158000DF90CF90BF90AF909F908F907F906F90A3
:101590005F904F903F9008950F93CF93DF93EC01AE
:1015A000262F6A3049F48D819885899F802D1124DA
:1015B0009A85980F9A8726C06D3029F169854A85EA
:1015C00008850E94F4099C816885969F402D11240E
:1015D0008985480F49878F818823A9F0552747FDC2
:1015E0005095699F9001112484E590E0821B930B34
:1015F0008417950744F49D81699F902D11248A8555
:10160000890F8A87198681E090E0DF91CF910F9151
:1016100008951F93CF93DF93EC01162FF8948E85D6
:1016200060E00E9400168F8518161CF460E00E948E
:1016300000161EBD0DB407FEFDCF8EB58F851816A2
:101640001CF461E00E9400167894DF91CF911F9105
:101650000895FF920F931F93CF93DF93EC01FF2424
:1016600000E010E06F2D6064CE010E94090BCE01F6
:1016700060E80E94090B8E8561E00E9400168F854C
:1016800018161CF460E00E940016F801E055FD4FAA
:1016900090E080818EBD0DB407FEFDCF8EB59F5FBB
:1016A00031969435B1F78F8518161CF461E00E94CD
:1016B0000016F3940C5A1F4F86E0F81699F6CE01E7
:1016C00060E40E94090BDF91CF911F910F91FF9071
:1016D0000895CF93DF93DC0188EF91E0E0EBF2E037
:1016E000EF019C01199221503040E1F719961C92AC
:1016F00019971A961C92DF91CF910895EF920F934C
:10170000CF93DF93EC014D876C872E87E88A0F8794
:1017100081E088878F8F18A28F83CE016AEA70E0FC
:101720000E94E1090E94490581E00E942A0585E0A6
:101730000E9438058CE00E9433058D8561E00E948F
:1017400094158C8561E00E9494158E8561E00E945D
:101750009415888918161CF461E00E9494158F85F1
:1017600018161CF461E00E949415888918166CF410
:1017700060E00E9400166AE070E080E090E00E9465
:10178000B114888961E00E940016EC852E2F332762
:1017900027FD3095F901E354FC4FE491F0E0EE0FA2
:1017A000FF1FE755FC4F859194919C8B8B8B2F529B
:1017B0003C4FF90184918A8FED852E2F332727FD29
:1017C0003095F901E354FC4FE491F0E0EE0FFF1F78
:1017D000E755FC4F859194919A8B898B2F523C4F02
:1017E000F9018491898FEF852E2F332727FD3095BE
:1017F000F901E354FC4FE491F0E0EE0FFF1FE755D1
:10180000FC4F859194919E8B8D8B2F523C4FF9010B
:1018100084918B8FEE852E2F332727FD3095F9018C
:10182000E354FC4FE491F0E0EE0FFF1FE755FC4F4F
:1018300085919491988F8F8B2F523C4FF901849111
:101840008C8FCE0161E20E94090BCE0164E10E94FF
:10185000090B8B8587FF02C08FE78B876B856068DC
:10186000CE010E94090BCE0160E20E94090BCE015D
:101870006CE00E94090BCE010E94290BDF91CF91F1
:101880000F91EF900895CF93DF93DC01E0E8FFE63E
:1018900085919491ED01C95ADF4FAD0143595F4FD6
:1018A0008150904C09F04EC0E6E9FFE6E491E883F0
:1018B000E7E9FFE6E4911496EC931497E8E9FFE674
:1018C000E4911596EC931597E9E9FFE685919491DB
:1018D00017969C938E931697EBE9FFE6859194916A
:1018E00019969C938E931897EDE9FFE6E4919996EB
:1018F000EC939997EEE9FFE6E4919896EC9398972C
:10190000EFE9FFE6E491EA01E883E0EAFFE685918A
:1019100094915D969C938E935C97E2EAFFE68591A5
:1019200094915F969C938E935E97E4EAFFE685918F
:10193000949191969C938E939097E6EAFFE6859119
:10194000949132C08CE3888314961C9214972FEFE5
:1019500015962C93159780E293E017969C938E939F
:10196000169784ED93E019969C938E93189781E0D7
:1019700099968C93999798968C939897FA012083CF
:101980008CEA9DE05D969C938E935C978EED9DE036
:101990005F969C938E935E9784E79EE091969C93CE
:1019A0008E9390978CE39FE093969C938E9392975F
:1019B000DF91CF910895EF92FF920F931F93CF93F2
:1019C000DF937C018C01045B1F4FC8010E94690BEF
:1019D000C80161E572E00E949C16C8010E94290BB3
:1019E00083E00E9438058FE091E0EEEFFFE3099578
:1019F00082E590E0E80EF91EF7011082C8016CE262
:101A000072E00E94E716C8010E94290BE701C85442
:101A1000D040CE010E943106CE0164E00E9427062C
:101A2000882339F462E370E080E090E00E94B11412
:101A3000F0CFDF91CF911F910F91FF90EF9008951C
:101A40000F931F93CF93DF93EC018C01045B1F4F27
:101A5000C80161E040E00E945D06FE01EB5AFF4FC5
:101A6000C05BDF4F85E59881891B808326961882AD
:101A7000C655D040698D613061F1613028F0888DA4
:101A8000653008F03FC039C0CE0185960E9429110B
:101A9000CE0160E00E946405C8010E94690BC80184
:101AA00069E772E00E949C16C8010E94290B83B767
:101AB000817F846083BF83B7816083BF83B7816088
:101AC00083BF889583B78E7F83BF83B78E7F83BFA5
:101AD0001FC0C259DF4F88819981AA81BB818F7055
:101AE0009070A070B0700897A105B10518F4C801F6
:101AF00067E00CC0C80168E709C0882349F06B5F44
:101B0000C80104C0882321F0C8016FE20E94BF16FB
:101B1000DF91CF911F910F910895AF92BF92CF9215
:101B2000DF92EF92FF920F931F93CF93DF93EC011D
:101B3000CD57DF4F8881C358D040882309F44AC06D
:101B40008C3010F010E002C01CE0181BCC5ADF4FA4
:101B500081E08883C455D0406CE4C62ED12CCC0ED5
:101B6000DD1EC60160E00E94590651E5A52EB12C8C
:101B7000AC0EBD1EF50100814DE2F42E4F2D401B31
:101B8000410F0D5FC60160E024E533E0E32E0E94C3
:101B90003809C60161E00E945906F5010081F01A7A
:101BA000F10E0D5FC60160E04F2D24E50E94DA08BA
:101BB000CB5ADF4F84E08993F5018081181B115DBA
:101BC0001883AB9669917991C6010E949C16888111
:101BD00081508883DF91CF911F910F91FF90EF90FB
:101BE000DF90CF90BF90AF9008958F929F92AF9269
:101BF000BF92CF92DF92EF92FF920F931F934C010F
:101C0000FC01A28CB38CCC24DD240E948B147B01BC
:101C10008C01F401818092800E948B14860E971EA5
:101C2000E094F09400951095C801B701A6019501C4
:101C30000E943C19860E971EC4010E9417181F911E
:101C40000F91FF90EF90DF90CF90BF90AF909F905B
:101C50008F900895AF92BF92CF92DF92EF92FF9252
:101C60000F931F93CF93DF93EC01EDE7AE2EB12CD2
:101C7000A80EB91EF501E080F180028113810E9457
:101C80007D14E61AF70A080B190B7CE7C72ED12C36
:101C9000CC0EDD1EF601808190E0A0E0B0E08E1554
:101CA0009F05A007B10708F081C08E0108581F4F9B
:101CB000F80180819181A281B3810097A105B105CE
:101CC00009F474C00E947D14F6012081620F711D19
:101CD000811D911DF5016083718382839383FE01D1
:101CE000E259FF4F80819181A281B3810196A11DAC
:101CF000B11D80839183A283B383F8011082118286
:101D0000128213820E948B14CC58DF4F6883798330
:101D10008A839B83C457D040CE010E946905CE01BF
:101D20000A960E943106CE0148960E94DB058E017C
:101D30000B5D1F4FC8010E949611C8010E946E12D0
:101D4000C8010E94851381E026C0CE010E948D0D3E
:101D5000CE010E94200D8E01045B1F4FC8010E941E
:101D6000290BCE5ADF4F8881C255D040882319F401
:101D7000C8010E94690B0E948B14C858DF4F68830A
:101D800079838A839B83249728813981621B730B13
:101D90007A936A9380E0DF91CF911F910F91FF902A
:101DA000EF90DF90CF90BF90AF900895C858DF4F6D
:101DB00088819981AA81BB81C857D0400097A1052D
:101DC000B10541F7C2CF2F923F924F925F926F922F
:101DD0007F928F929F92AF92BF92CF92DF92EF92BB
:101DE000FF920F931F93DF93CF93CDB7DEB72B975F
:101DF0000FB6F894DEBF0FBECDBF9B878A877A836C
:101E000069835C834B838C0103591F4FF8018081E8
:101E1000882309F41DC18A859B858D5A9F4FFC013B
:101E200010821292E255F040FB87EA87108E9CE404
:101E3000E92EF12CEE0EFF1EC70161E00E9459064B
:101E40008AE0282E312C8A859B85280E391EB5E222
:101E50006B2E712C680E791EE981FA81F491FD8355
:101E6000A5E58A2E912C880E991EF6E5CF2ED12C51
:101E7000C80ED91EE0E54E2E512C480E591E8F5A21
:101E80009F4F9F838E837EE6A72EB12C8A859B85EC
:101E9000A80EB91E198708878A859B850E942A0E7D
:101EA0008823D1F39D81992311F410E003C0EE81C2
:101EB000FF811081C70160E040E025EC32E00E9424
:101EC00073098B819C81892B41F0145FC70160E00D
:101ED000412F2B813C810E947309F40110828CE018
:101EE000F6018083C70169817A810E949C16F20104
:101EF000208130E0C901880F991F820F931F9095B0
:101F000081959F4F8D5AF4018083EE81FF8120815E
:101F100030E0C901880F991F820F931F909581951A
:101F20009F4F835DF6018083F501808184FF04C0AB
:101F3000C70165E473E003C0C70161E473E00E9478
:101F4000E716F201208130E0C901880F991F820F46
:101F5000931F909581959F4F8D5AF4018083F601D0
:101F600080818F5F8083EA85FB8580A5882321F0AF
:101F7000C7016DE373E003C0C70169E373E00E942A
:101F8000E716F201808190E09C01220F331F280F99
:101F9000391F309521953F4F2D5AF4012083F601CA
:101FA00080818F5F8083C70165E373E00E94E7163D
:101FB000C10165E00E942706882351F0EA85FB8570
:101FC00060A56F5FC3010E94EE13C3010E94E81376
:101FD000C10164E00E942706882399F4E885F98509
:101FE0006081262F30E040E050E0F5018081918152
:101FF000A281B38182179307A407B50708F16F3F49
:10200000F9F08A859B8583599F4F9B878A878FEF3D
:10201000EA85FB858083ED56F040FB87EA87C301A4
:1020200060E00E941A11C3010E94E21381E0EA8578
:10203000FB85808F0DC08A859B850E94DB0C2CCF91
:10204000C10166E00E942706882309F425CFF3CF5B
:102050002B960FB6F894DEBF0FBECDBFCF91DF91A8
:102060001F910F91FF90EF90DF90CF90BF90AF90B6
:102070009F908F907F906F905F904F903F902F90A8
:10208000089540E050E00E94E30E0895AF92BF92A1
:10209000CF92DF92EF920F93CF93DF936C018CE797
:1020A00090E0C80ED91E82E3F601808381E090E0C3
:1020B000A0E0B0E0B293A293929382936F0185EF78
:1020C0009FEFC80ED91E8FEFF601808383E99FEF43
:1020D000C80ED91EC6010E94430CC6010E946005AD
:1020E000C6016FEF0E9464054AE0A42EB12CAC0C2F
:1020F000BD1CC5010E941706C5010E943106C6011C
:1021000048960E94D105C601845B9F4F6DE04BE06D
:1021100020E10FE03EE0E32E0E947E0BE601A59653
:10212000CE010E94FB13C50165E00E9427068823AB
:1021300029F0CE0160E00E94EE1306C0CE016BE4F0
:1021400073E040E00E942D11DF91CF910F91EF904D
:10215000DF90CF90BF90AF9008950F93CF93DF9310
:10216000EC01623009F440C0633030F4662359F06A
:10217000613009F04AC00BC0633009F43BC06430E1
:1021800009F043C03DC0C00FD11D4C8B3EC0602F35
:1021900070E0DB01AA0FBB1FA80FB91F842F90E0CE
:1021A000880F991F1D962D913C911E97280F391F5E
:1021B000F901859194915E969C938E935D97FC01B5
:1021C00045915491A42FFE01E60FF71F478F252F4D
:1021D0003327842F90E02817390708F4A52F6C0FB8
:1021E0007D1FFB01A0A311C0FC01E00FF11D478B77
:1021F000208F0BC0FC01E00FF11D418F228F05C025
:10220000FC01E00FF11D438F248FDF91CF910F91DF
:102210000895FC01662369F4158A138A12A211A29B
:10222000168A1092AC041092AB041092A90410927A
:10223000B4000895FF920F931F938C01F62E0E9415
:1022400009110F0D111DF80111821F910F91FF90BF
:10225000089560E00E941A110895DF92EF92FF92B4
:102260000F931F938C017B01D42E642F0E941A11AF
:102270004D2D50E0FA01EE0FFF1FE00FF11FF48625
:10228000E386FA013896EE0FFF1FE00FF11F11826F
:102290001082040F151F81E0F801818389E0848B8F
:1022A000178A118E138E1F910F91FF90EF90DF9080
:1022B0000895CF93DF939C01462FA62FB0E0EC0149
:1022C000CA0FDB1F8881882371F18981882359F522
:1022D000FD01EE0FFF1FE20FF31F8F8190E0880FCB
:1022E000991F0580F681E02DE80FF91F85919491E3
:1022F0005FEF8F3F950711F4188215C09A871496E7
:10230000AA0FBB1FA20FB31F90E0880F991FED917A
:10231000FC91E80FF91F65917491C9010E942D117C
:102320008F818F5F8F83DF91CF91089560E00E944E
:10233000591108955F926F927F928F929F92AF9200
:10234000BF92CF92DF92EF92FF920F931F93CF93A2
:10235000DF937C01562EC62EDD24BC016C0D7D1D45
:10236000DB0111968C911197882309F4A7C053962D
:102370008C91882309F0A2C08601000F111F0E0D59
:102380001F1DE6012896CC0FDD1FCE0DDF1DE88155
:10239000F981EE0FFF1FD8011B964D915C911C97A0
:1023A000E40FF51F259134912115310509F049C03D
:1023B000FB018785813031F419821882FA01259159
:1023C00034913FC0DB0111961C9211978C918823A8
:1023D00091F0C701652D0E94591188819981880F5C
:1023E000991FD8011B96ED91FC911C97E80FF91FDE
:1023F0002591349126C0C701652D0E9409115EC048
:1024000086E0369527958A95E1F76F70422F4F71D8
:1024100005E0369527950A95E1F72051C701052D6E
:102420000E94AD1088819981019699838883880FD5
:10243000991FD501ED91FC91E80FF91F2591349179
:1024400014C04601880C991CA8E06A2E712C6C0CF3
:102450007D1CE301CC0FDD1FCE0DDF1D5701A80C45
:10246000B91CEBE0F0E0AE0EBF1EB90176956795A2
:102470007695679520FDC4CFF701EC0DFD1D862FE5
:102480008F73828B338B13A28E0C9F1CD401929678
:102490001C921E92919781E0858B29EA34E0C20E4E
:1024A000D31ED6018C93168AF301EE0FFF1FEE0D9B
:1024B000FF1D80819181019691838083DF91CF916F
:1024C0001F910F91FF90EF90DF90CF90BF90AF9052
:1024D0009F908F907F906F905F90089560E00E9432
:1024E0009A110895DF92EF92FF920F931F93CF936B
:1024F000DF937C01062F10E0DC01A00FB11F559681
:102500008C915597882309F4F8C053968C91539772
:10251000882321F4C7010E940911EFC0815053960E
:102520008C93539793968C919397882309F04BC083
:10253000E801CC0FDD1FCE0DDF1D89A19AA1019608
:10254000880F991FED8DFE8DE80FF91F85919491ED
:10255000282F277094962C939497AC01F3E056950E
:102560004795FA95E1F79A0136952795892F99278E
:102570008695869595968C9395972F73F701828112
:10258000289F202D112493962C939397F801E355BF
:10259000FB4F4170408389A19AA101969AA389A318
:1025A0005F962C915F9730E08217930760F09096CA
:1025B0008C91882329F0281B31093AA329A303C051
:1025C000C7010E940911F701E00FF11F83A181509B
:1025D00083A336893F5F368B428925A1240F8285EC
:1025E000280F618D662311F4D22E0CC0832F9927FA
:1025F00087FD909570E00E946F19828D869FD02C88
:102600001124D20EF701E00FF11F24896789662398
:1026100071F0772767FD7095832F992787FD909537
:102620000E946F19808D869F802D1124280FF7013D
:10263000E00FF11F638D662389F0832F992787FDB3
:10264000909570E00E946F19CB0162E070E00E94EB
:102650006F19948D899F802D1124280F4F3331F0ED
:10266000822F2A300CF089E0482F87FD40E0F89453
:102670008D2D992787FD9095849664E270E00E94E5
:102680006F19E82FFF27E7FDF095E159FC4FE49122
:10269000D801A655BB4FEC93F701E00FF11F26A11F
:1026A00030E084A1992787FD9095B901689F90013A
:1026B000699F300D789F300D1124F701838190E0E0
:1026C000B901689F9001699F300D789F300D1124EA
:1026D000842F992787FD9095FC012E9FC0012F9F85
:1026E000900D3E9F900D1124F801E555FB4F80831E
:1026F00004551B4FF80180837894DF91CF911F918F
:102700000F91FF90EF90DF90089560E00E947212A9
:1027100008956091AB04662381F18091A8048F5FD6
:102720008093A8049091AA04891738F130E0809131
:10273000A904882309F431E03093A9041092A80475
:102740008091AD048823A9F080911A0123E4829F2F
:10275000C0011124895B80931A0190E070E00E940F
:102760005B198093AC0405C08091AC048093B400E5
:1027700008953323C9F780E0F9CF08951F920F928F
:102780000FB60F9211242F933F934F935F936F9344
:102790007F938F939F93AF93BF93EF93FF930E9489
:1027A0008913FF91EF91BF91AF919F918F917F918D
:1027B0006F915F914F913F912F910F900FBE0F90AE
:1027C0001F90189567E673E040E00E942D11089570
:1027D00069E573E040E00E942D110895FC01862F09
:1027E000648170E06F5F7F4F992787FD90950E940D
:1027F0006F19838308950F93FC0181E0828384E045
:1028000086A383E993E096878587CF0161E040E066
:1028100020E000E00E94AD1083E061E070E00E94E3
:102820003415E1EBF0E08081887F81608083F8944B
:1028300010928000E1E8F0E0108210928500109282
:10284000840088E191E090938900809388008081E2
:1028500088608083808181608083EFE6F0E0808102
:102860008260808378940F9108951F920F920FB623
:102870000F9211242F933F938F939F93AF93BF9306
:102880008091B2049091B304A091B404B091B504C6
:102890003091B6040196A11DB11D232F2D5F2D3758
:1028A00020F02D570196A11DB11D2093B6048093F1
:1028B000B2049093B304A093B404B093B504809190
:1028C000AE049091AF04A091B004B091B104019610
:1028D000A11DB11D8093AE049093AF04A093B004EA
:1028E000B093B104BF91AF919F918F913F912F9180
:1028F0000F900FBE0F901F9018958FB7F8942091EE
:10290000B2043091B3044091B4045091B5048FBF28
:10291000B901CA0108959FB7F8942091AE0430918F
:10292000AF044091B0045091B10486B5A89B06C095
:102930008F3F21F02F5F3F4F4F4F5F4F9FBF542F6F
:10294000432F322F2227280F311D411D511D82E0B8
:10295000220F331F441F551F8A95D1F7B901CA01B1
:102960000895EF92FF920F931F93CF93DF937B0114
:102970008C010E948B14EB010EC00E948B146C1B07
:102980007D0B685E7340C8F30894E108F108010903
:102990001109C851DC4FE114F1040105110569F773
:1029A000DF91CF911F910F91FF90EF900895789450
:1029B00084B5826084BD84B5816084BD85B5826044
:1029C00085BD85B5816085BDEEE6F0E080818160E2
:1029D0008083E1E8F0E010828081826080838081E2
:1029E00081608083E0E8F0E0808181608083E1EBBA
:1029F000F0E0808184608083E0EBF0E080818160A2
:102A00008083EAE7F0E08081846080838081826057
:102A10008083808181608083808180688083109240
:102A2000C1000895982F8E3008F09E5097708091C5
:102A30001B018295880F880F807C892B80937C00F6
:102A400080917A00806480937A0080917A0086FD7C
:102A5000FCCF2091780040917900942F80E030E005
:102A6000282B392BC90108951F93CF93DF93182F7B
:102A7000EB0161E00E949415209709F44AC0CF3F12
:102A8000D10509F449C0E12FF0E0EB51FC4F8491EE
:102A90008330C1F0843028F4813051F08230B1F5B8
:102AA0000CC0863019F1873049F1843079F514C0B3
:102AB00084B5806884BDC7BD33C084B5806284BDE1
:102AC000C8BD2EC080918000806880938000D09324
:102AD0008900C093880024C0809180008062809328
:102AE0008000D0938B00C0938A001AC08091B00000
:102AF00080688093B000C093B30012C08091B00092
:102B000080628093B000C093B4000AC0C038D10581
:102B10001CF4812F60E002C0812F61E00E9400164A
:102B2000DF91CF911F910895CF93DF93482F50E00D
:102B3000CA018F529C4FFC01349143545C4FFA01FF
:102B40008491882369F190E0880F991FFC01E15678
:102B5000FC4FA591B491FC01E755FC4FC591D49170
:102B6000662351F42FB7F8948C91932F9095892375
:102B70008C93888189230BC0623061F42FB7F8945D
:102B80008C91932F909589238C938881832B8883B4
:102B90002FBF06C09FB7F8948C91832B8C939FBF57
:102BA000DF91CF910895833071F0843028F4813023
:102BB000A1F0823021F514C08630B1F08730D1F019
:102BC0008430E9F404C0809180008F7703C0809145
:102BD00080008F7D80938000089584B58F7702C038
:102BE00084B58F7D84BD08958091B0008F778093E8
:102BF000B00008958091B0008F7D8093B00008955B
:102C0000FF920F931F93F62E482F50E0CA018B516D
:102C10009C4FFC012491CA018F529C4FFC011491DE
:102C200043545C4FFA0104910023C9F0222319F0A8
:102C3000822F0E94D315E02FF0E0EE0FFF1FE75523
:102C4000FC4FA591B4919FB7F894FF2021F48C918B
:102C50001095812302C08C91812B8C939FBF1F9173
:102C60000F91FF9008950F931F93482F50E0CA01D2
:102C70008B519C4FFC012491CA018F529C4FFC0147
:102C8000049143545C4FFA011491112319F420E08C
:102C900030E015C0222319F0822F0E94D315812F16
:102CA00090E0880F991F8D549C4FFC01A591B49121
:102CB0008C9120E030E0802311F021E030E0C90168
:102CC0001F910F910895CF93DF930E94D7140E9414
:102CD0001605C0E0D0E00E94D3022097E1F30E94E5
:102CE0000000F9CFCF92DF92EF92FF920F931F93E4
:102CF000CF93DF937C016B018A01C0E0D0E00FC06D
:102D0000D6016D916D01D701ED91FC910190F0819B
:102D1000E02DC7010995C80FD91F015010400115BA
:102D2000110571F7CE01DF91CF911F910F91FF90A7
:102D3000EF90DF90CF900895EF92FF920F931F9343
:102D4000CF93DF937C018B01C0E0D0E0F8010F5FEF
:102D50001F4F6491662359F0D701ED91FC910190CA
:102D6000F081E02DC7010995C80FD91FEFCFCE0123
:102D7000DF91CF911F910F91FF90EF900895DC01AB
:102D8000ED91FC910190F081E02D09950895EF926D
:102D9000FF920F931F938C01DC01ED91FC91019048
:102DA000F081E02D6DE009957C01D801ED91FC9159
:102DB0000190F081E02DC8016AE009959C012E0D7B
:102DC0003F1DC9011F910F91FF90EF900895EF9261
:102DD000FF920F931F937C010E949C168C01C701E8
:102DE0000E94C7169C01200F311FC9011F910F912E
:102DF000FF90EF900895CF93DF93EC01611571057B
:102E000019F420E030E00FC0DB010D900020E9F75D
:102E10001197A61BB70BE881F9810280F381E02DA1
:102E2000AD0109959C01C901DF91CF9108954F92A1
:102E30005F927F928F929F92AF92BF92CF92DF92DA
:102E4000EF92FF920F931F93DF93CF93CDB7DEB72F
:102E5000A1970FB6F894DEBF0FBECDBF2C01742E24
:102E6000CB01223008F42AE019A231E2C32ED12C82
:102E7000CC0EDD1E822E9924AA24BB24672D752F2B
:102E8000A50194010E94821979018A01C801B70144
:102E9000A50194010E943C19472D461B0894C108C6
:102EA000D1084A3014F4405D01C0495CF60140830A
:102EB000E114F1040105110521F07E2C5F2DC801FC
:102EC000DDCFC201B6010E94FB16A1960FB6F894A1
:102ED000DEBF0FBECDBFCF91DF911F910F91FF904D
:102EE000EF90DF90CF90BF90AF909F908F907F90AA
:102EF0005F904F900895DC012115310541F4ED916B
:102F0000FC910190F081E02D642F099508950E94B5
:102F100017170895EF92FF920F931F939A017B0169
:102F200000E010E0B801A7010E947B171F910F91EC
:102F3000FF90EF900895CF92DF92EF92FF920F9360
:102F40001F936C017B019A0100E010E0B801A7011A
:102F50000E947B178C01C6010E94C716080F191F1B
:102F6000C8011F910F91FF90EF90DF90CF900895CF
:102F70000E94FB160895EF92FF920F931F937C011E
:102F80000E94FB168C01C7010E94C716080F191F6B
:102F9000C8011F910F91FF90EF9008952F923F92DB
:102FA0004F925F926F927F928F929F92AF92BF9259
:102FB000CF92DF92EF92FF920F931F93DF93CF9305
:102FC000CDB7DEB73B014C0119012A016D897E891D
:102FD0008F89988D6A197B098C099D09621A730A79
:102FE000840A950AA40193010E943C19E218F3088F
:102FF00004091509A80197010E94A4192A0D3B1D77
:103000004C1D5D1DB901CA01CF91DF911F910F9138
:10301000FF90EF90DF90CF90BF90AF909F908F90F8
:103020007F906F905F904F903F902F900895009702
:1030300029F0BC0180E090E00E941D1A089598D00C
:1030400088F09F5790F0B92F9927B751A0F0D1F091
:10305000660F771F881F991F1AF0BA95C9F712C01B
:10306000B13081F09FD0B1E008959CC0672F782FD8
:103070008827B85F39F0B93FCCF386957795679587
:10308000B395D9F73EF490958095709561957F4FF3
:103090008F4F9F4F0895E89409C097FB3EF4909599
:1030A0008095709561957F4F8F4F9F4F9923A9F021
:1030B000F92F96E9BB279395F695879577956795B0
:1030C000B795F111F8CFFAF4BB0F11F460FF1BC0F4
:1030D0006F5F7F4F8F4F9F4F16C0882311F096E987
:1030E00011C0772321F09EE8872F762F05C0662335
:1030F00071F096E8862F70E060E02AF09A95660FEE
:10310000771F881FDAF7880F9695879597F90895A6
:1031100097F99F6780E870E060E008959FEF80EC8A
:10312000089500240A94161617061806090608952D
:1031300000240A9412161306140605060895092E93
:103140000394000C11F4882352F0BB0F40F4BF2B02
:1031500011F460FF04C06F5F7F4F8F4F9F4F089542
:1031600057FD9058440F551F59F05F3F71F0479538
:10317000880F97FB991F61F09F3F79F0879508951D
:10318000121613061406551FF2CF4695F1DF08C03C
:10319000161617061806991FF1CF86957105610559
:1031A00008940895E894BB2766277727CB0197F901
:1031B00008950BD0C4CFB5DF28F0BADF18F09523FF
:1031C00009F0A6CFABCF1124EECFCADFA0F3959FB5
:1031D000D1F3950F50E0551F629FF001729FBB27FE
:1031E000F00DB11D639FAA27F00DB11DAA1F649FAA
:1031F0006627B00DA11D661F829F2227B00DA11D5D
:10320000621F739FB00DA11D621F839FA00D611DE2
:10321000221F749F3327A00D611D231F849F600D03
:10322000211D822F762F6A2F11249F5750408AF03C
:10323000E1F088234AF0EE0FFF1FBB1F661F771FC8
:10324000881F91505040A9F79E3F510570F060CF04
:10325000AACF5F3FECF3983EDCF3869577956795B0
:10326000B795F795E7959F5FC1F7FE2B880F911DE6
:103270009695879597F90895629FD001739FF00105
:10328000829FE00DF11D649FE00DF11D929FF00DF6
:10329000839FF00D749FF00D659FF00D9927729F2D
:1032A000B00DE11DF91F639FB00DE11DF91FBD01B8
:1032B000CF0111240895AA1BBB1B51E107C0AA1F0F
:1032C000BB1FA617B70710F0A61BB70B881F991FC7
:1032D0005A95A9F780959095BC01CD01089597FB6B
:1032E000092E07260AD077FD04D0E5DF06D000209E
:1032F0001AF4709561957F4F0895F6F79095819532
:103300009F4F0895A1E21A2EAA1BBB1BFD010DC001
:10331000AA1FBB1FEE1FFF1FA217B307E407F50785
:1033200020F0A21BB30BE40BF50B661F771F881F61
:10333000991F1A9469F760957095809590959B01F7
:10334000AC01BD01CF01089597FB092E05260ED0D3
:1033500057FD04D0D7DF0AD0001C38F450954095B3
:10336000309521953F4F4F4F5F4F0895F6F7909559
:103370008095709561957F4F8F4F9F4F0895EE0F09
:10338000FF1F0590F491E02D0994A0E0B0E0EBEC74
:10339000F9E10C942E1AEC01A880B980CA80DB8078
:1033A000A114B104C104D10441F484E2A82E89ED32
:1033B000B82E8BE5C82E87E0D82EC601B5012DE1C9
:1033C00033EF41E050E00E94A41927EA31E440E0E5
:1033D00050E00E943C197B018C01C601B5012DE132
:1033E00033EF41E050E00E94A419CA01B9012CEE6C
:1033F00034EF4FEF5FEF0E943C196E0D7F1D801F71
:10340000911F97FF04C061507040804090486883CE
:1034100079838A839B839B01AC015F77B901CA01E1
:10342000CDB7DEB7EAE00C944A1A0E94C519089598
:1034300086E191E00E94C51908956093160170938A
:103440001701809318019093190108952F923F92CC
:103450004F925F926F927F928F929F92AF92BF92A4
:10346000CF92DF92EF92FF920F931F93CF93DF9350
:10347000CDB7DEB7CA1BDB0B0FB6F894DEBF0FBEAD
:10348000CDBF09942A88398848885F846E847D84FA
:103490008C849B84AA84B984C884DF80EE80FD80FC
:1034A0000C811B81AA81B981CE0FD11D0FB6F89472
:0E34B000DEBF0FBECDBFED010895F894FFCF33
:1034BE0047696D6D65006C69676874210020004C6A
:1034CE004F41444552000100000001010000000080
:0434DE00CC0A72168C
:00000001FF
