:100000000C94BB040C94E3040C94E3040C94E304FC
:100010000C94E3040C94E3040C94E3040C94E304C4
:100020000C94E3040C94E3040C94E3040C94962ADB
:100030000C94E3040C94E3040C94E3040C94E304A4
:100040000C941F2B0C94E3040C94E3040C94E30431
:100050000C94E3040C94E3040C94E3040C94E30484
:100060000C94E3040C94E3044024FFFFFFFFFFFF24
:10007000FFFF800000000001414180000180060474
:10008000141180000180060080818000018006003C
:1000900000418F3F79B9EF9E7E1199BBCDFB36337E
:1000A000762199B30D983633664598307D99F633AD
:1000B00060039830CD9B363361419830CD9B363309
:1000C000641599B0DD9B76336089CF30FDF3F39EE4
:1000D00060418000000000000515A0000000002025
:1000E00080A1C000180C00000FF59000245280F091
:1000F0000813D002AC5681F80FF1994334DAE1F8D5
:100100000A359542255281F80C59DDC219CC616837
:100110000FF18040000000F0081580800000000012
:100120000FF1C000000006000005800000000F0075
:100130000003C0000000060000019000000009005C
:1001400000058000000000000009C1400000000020
:10015000000193D0000000000005A3E000000006AD
:10016000000183E00545400F054583D002020006EB
:100170000203814001414009014180000414100044
:100180000415FFFFFFFFFFFFFFFFCFCF804001FC03
:1001900039E00C06871FC3C181013C3307E08409A5
:1001A000C1CF0808542014418804510A08080000EF
:1001B000183C1824000008080024187E3C7E3C00EF
:1001C0000808003C5A7E7E7E3C00080800080018A3
:1001D00038B400100808FF81FFA3C5FF81FF08089D
:1001E0006CFEFE7C381000000808000C1C18100083
:1001F000000008086C928244281000004500640545
:100200000000153A61636365707400206372616277
:10021000732E000A6279206B696C6C696E670A0044
:10022000596F75206D61646520240047414D45205C
:100230004F56455221004E455720484947485343A1
:100240004F52450047414D45204F5645522100151C
:100250003A73686F6F7420163A72756E004C45548D
:10026000275320474F2100484947482053434F52C6
:100270004553002E0333033B03470353032F00561C
:100280006F6C756D653A004261636B6C6967687489
:100290003A004C696768743A002F34004261742058
:1002A0006C766C3A006D56004261743A00450084E9
:1002B0000100000500400150015C01700180016CEB
:1002C0000154016001740184014C015C0168017CEE
:1002D000018C010000526566696C6C656420210028
:1002E00055706772616465642021004561726E20FB
:1002F0002435206669727374005D03620366036BC4
:10030000036F03696E6600450049784D78280A003E
:10031000007403800386038C03940345004C0100A2
:10032000004F7574206F6620616D6D6F2100506CF9
:10033000617900526573746172740048696768205E
:1003400073636F7265730053797374656D20496EC2
:10035000666F004D61696E204D656E75002E3335F8
:10036000370050393000414B343700525047004D70
:1003700047343200450049707C014D782C04000060
:1003800045005401000045002C010000450001819A
:10039000307F000045004001418149788D782C056F
:1003A000000003053F213F0A100A1208120E1C0E1E
:1003B0000C1E0C141A14161F161E131E1E1B1E1EB6
:1003C0001F1E3F213F3A2F3A173D173F213F181F6D
:1003D00002040A041F0E04040E1F0A1F0A0E0E1F39
:1003E00004110E2E252E2F2A2E262929021F02083F
:1003F0001F08150E04040E150E15151B151B0406FB
:1004000004040C040000000017000300031F0A1F6F
:1004100016371A1904130A153A000300000E1111B9
:100420000E000A040A040E04003000040404001044
:10043000001804031F111F121F101D151711151F7F
:1004400007041F17151D1F151D01011F1F151F175D
:10045000151F000A00003200040A110A0A0A110AD4
:10046000040115020E11171E051E1F150A0E110A92
:100470001F110E1F15111F05010E111D1F041F1145
:100480001F1108100F1F041B1F10101F061F1E0432
:100490000F0E110E1F09060E112E1F051A12150937
:1004A000011F011F101F0F180F1F0C1F1B041B0320
:1004B0001C03191513001F11030418111F0002015A
:1004C000022020200001020C121E1F120C0C12121E
:1004D0000C121F0C1A14041E05242A1E1F021C14C1
:1004E0001D1020201D1F0814111F101E041E1E02A7
:1004F0001C0C120C3E0A040C123E1E040214160AB6
:10050000020F120E101E0E100E1E081E120C1226C6
:10051000281E322A26041E21001F00211E0401026B
:10052000013F213F05077F4141417F3E5B4F5B3EDD
:100530003E6B4F6B3E183C783C18183C7E3C181CB8
:10054000577D571C1C5E7F5E1C007E43437E007EF1
:1005500073737E007E7F7F7E7F4141417F30483ACA
:10056000060E06297929067F4141417F60703F02CE
:10057000042A1C361C2A7F3E1C080000081C3E7FF3
:1005800014227F22143C3C3C7EFF18423C817E3E7C
:100590006375633E3E616B633E3E636B6B3E04027C
:1005A0007F020410207F201008082A1C08081C2A3B
:1005B0000808143E554122637569756310181C18AC
:1005C00010040C1C0C04000000000000005F000080
:1005D0000007000700147F147F14042A7F2A1023C9
:1005E0001308646236495620500008070300001CB7
:1005F0002241000041221C002A1C3E1C2A08083E01
:10060000080800E0600000080808080800606000B2
:100610000060100804033E5149453E00427F4000FF
:1006200062514949462141494D331814127F102720
:10063000454545393C4A4949304121110907364968
:10064000494936064949291E0000240000008064FB
:100650000000081422410014141414140041221440
:100660000802015909063E415D594E7C1211127C67
:100670007F494949363E414141227F4141221C7F09
:10068000494949417F090909013E414151327F08E9
:1006900008087F00417F41002041413F017F08144D
:1006A00022417F404040407F020C027F7F020408CD
:1006B0007F3E4141413E7F090909063E416141BEFD
:1006C0007F09192946264949493201017F01013F25
:1006D0004040403F1F2040201F3F4038403F6314B0
:1006E00008146303047804036151494543007F41C2
:1006F000410003040810600041417F000402010230
:1007000004808080808000030708002054547840D3
:100710007F284444383844444428384444287F38A7
:1007200054545418087E09090218A4A49C787F0820
:1007300004047800447D4000006080847D7F1010B8
:10074000284400417F40007C047804787C0804043D
:10075000783844444438FC1824241818242418FCFD
:100760007C080404080854545420043F4444203CAA
:100770004040207C1C2040201C3C4020403C442821
:100780001028444C9090907C4464544C44000836AB
:10079000410000007F0000004136080018040810E6
:1007A0000C7F4141417F0A4E6F20534420636172A8
:1007B00064206F720A6E6F204C4F414445522E48A0
:1007C00045580A0A153A45786974001D20466C613F
:1007D0007368696E670A20206C6F616465722E2EE3
:1007E0002E0A0A444F4E2754205455524E204F464D
:1007F0004621004E4F20424154544552590A0A5056
:100800004C454153450A5455524E204F4646001719
:100810007361766500166261636B001574797065AB
:10082000000A0A0A153A6F6B617920163A65646905
:100830007400596F7520656E74657265640A0054A2
:100840000A03E181867F3E186D830F0F0E018386B8
:100850006033186DC3198F1803C38E6033186DE3AE
:1008600030CF1803C39E603630CDE360CF3006C76B
:100870009E7E3E30CDB360CF300CC6F6603330D9AB
:10088000B660CF33CFCCF66061B0DB1E60CF30D81E
:100890006CE6C061B0DB1E618F19986CC6C063B195
:1008A0009B0E330F0FB078C6FF7E1F1B061E0F175F
:1008B0005344001613780016131400151020001569
:1008C00020100000000500893008023802497868CD
:1008D00014000045006801000005006801380100AF
:1008E000000500380168010000F6E8DBCFC3B8AEB0
:1008F000A49B928A827B746E68625C57524E494513
:10090000413E3A3734312E2C292725232111091550
:10091000090101F7030101FF030000000024002783
:10092000002A0000000000250028002B0000000025
:100930000023002600290004040404040404040223
:10094000020202020203030303030301020408106C
:100950002040800102040810200102040810200039
:100960000000070002010000030406000000000070
:1009700000000000080611241FBECFEFD8E0DEBF44
:10098000CDBF11E0A0E0B1E0E2E8F4E602C00590DE
:100990000D92A635B107D9F715E0A6E5B1E001C083
:1009A0001D92AB36B107E1F719E0C6E7D9E004C004
:1009B0002297FE010E948631C437D107C9F70E94F1
:1009C0004D2D0C943F320C9400000F931F93CF9346
:1009D000DF93FB01EA0189012091E1013091E201FD
:1009E000821B930B089697FD03C08F77907006C00B
:1009F00060E870E00E94343180589F4F08979983D7
:100A000088838091E3019091E4019F01281B390BB9
:100A1000C901089697FD05C060E670E00E94343178
:100A200006C060E670E00E943431805A9F4F9C01FE
:100A300028503040F80131832083888199818535A1
:100A4000910514F080E005C080E0213331050CF4FD
:100A500081E0DF91CF911F910F9108950F931F9324
:100A6000CF93DF93EC018B01FA01E081E13081F05B
:100A7000E13028F0E230A1F0E33031F51CC033273B
:100A800027FD3095FB0180819181821B930B10C063
:100A9000332727FD309588819981821B930B12C0E3
:100AA000332727FD3095FB0180819181820F931FB1
:100AB0009183808309C0332727FD309588819981F0
:100AC000820F931F998388838881998180589F4FD3
:100AD00060E870E00E94343199838883F801808156
:100AE0009181805A9F4F60E670E00E94343191837B
:100AF0008083DF91CF911F910F9108959C01261B58
:100B0000370B37FF03C0309521953F4FE22F30E080
:100B1000CA0162E070E00E9434312617370714F0F2
:100B20004E1BE42F8E2F0895482F50E0862F6CE047
:100B30000E94143180911B01989FF0011124CA0179
:100B40008F70907023E0959587952A95E1F7E80FCF
:100B5000F91FE657FE4FE49160E02E2F30E047701A
:100B6000507080E890E002C0959587954A95E2F72D
:100B700028233923232B09F061E0862F0895CF9293
:100B8000DF92EF92FF920F931F93CF93DF93EC01CD
:100B90008B01F42EC22E68E070E00E943431D62E14
:100BA000C80168E070E00E943431E62E8D2D0E946D
:100BB0009405882319F52197CE018F0D911D68E0CA
:100BC00070E00E943431F62E862F6E2D0E9494051F
:100BD0008823A1F401501040C8018C0D911D68E0DC
:100BE00070E00E943431162F8F2D0E9494058823C7
:100BF00029F48D2D612F0E949405811181E0DF91F0
:100C0000CF911F910F91FF90EF90DF90CF900895BB
:100C10001092A5011092A40181E591E09093A301A7
:100C20008093A20108952F923F924F925F926F920C
:100C30007F928F929F92AF92BF92CF92DF92EF926C
:100C4000FF920F931F93DF93CF9300D000D0CDB7C7
:100C5000DEB79B0180589F4F60E870E00E943431FE
:100C6000F82FE92FC901805A9F4F60E670E00E947B
:100C70003431482F68E070E00E9434318B018F2FAF
:100C80009E2F68E070E00E9434316B837C83202FBC
:100C9000332727FD3095C90173E0880F991F7A9596
:100CA000E1F7A82EA41ACC24DD2456E0252E312C01
:100CB000200E311E2901862E992487FC9094C401B0
:100CC00043E0880F991F4A95E1F7A82FAF1BAA832D
:100CD0003AE0632E712CEB81FC816E0E7F1E26C0E4
:100CE000BA80EE24FF24FC2DF00FF98314C08B8111
:100CF0008E0D69810E949405882341F082EA91E07B
:100D00006B2D4A2D22EA31E00E94C11A0894E11CA1
:100D1000F11C28E0B20EC701880D991D68167906EE
:100D200034F70894C11CD11C88E0A80EC601840DBC
:100D3000951D28163906A4F60F900F900F900F906E
:100D4000CF91DF911F910F91FF90EF90DF90CF90A7
:100D5000BF90AF909F908F907F906F905F904F90DB
:100D60003F902F900895DF93CF9300D000D0CDB760
:100D7000DEB760911C0370911D0380911A0390915E
:100D80001B03AE014F5F5F4F9E012D5F3F4F0E94DF
:100D9000E504882341F082EA91E069814B8124EDEA
:100DA00031E00E94C11A0F900F900F900F90CF91D9
:100DB000DF9108956F927F928F929F92AF92BF9230
:100DC000CF92DF92EF92FF920F931F93CF93DF9317
:100DD000F2E28F2EF3E09F2EAA24BB24CC24DD2444
:100DE000EBE06E2E712C3BC0BE016C0D7D1D81E6CB
:100DF00095E00E941B2BF80181938F012196CA3048
:100E0000D10591F7B601665F7F4F81E695E00E94BC
:100E10001B2B082F10E0F40111830083B601655FDE
:100E20007F4F81E695E00E941B2BF82EEE24C70130
:100E3000800F911FFFEF8F3F9F0711F480E090E03C
:100E4000F401819391934F010894A11CB11C8CE093
:100E500090E0C80ED91E95E0A916B10461F0A69CD9
:100E60008001A79C100DB69C100D1124045D1C4F31
:100E7000C0E0D0E0B9CFDF91CF911F910F91FF90EB
:100E8000EF90DF90CF90BF90AF909F908F907F902A
:100E90006F9008958F929F92AF92BF92CF92DF9200
:100EA000EF92FF920F931F93DF93CF9300D000D068
:100EB000CDB7DEB713E0812E912C8C0E9D1E5E0106
:100EC0000894A11CB11C60E070E080E090E020E19B
:100ED00030E040E050E00E94B22FB3E0660F771F91
:100EE000881F991FBA95D1F770931B0360931A035B
:100EF00060E070E080E090E02CE030E040E050E026
:100F00000E94B22F7B018C01A3E0EE0CFF1C001F9E
:100F1000111FAA95D1F7F0921D03E0921C03C09017
:100F20001A03D0901B03C601B70148E028E00E94D5
:100F3000BF05182FC601B701A50194010E94E50461
:100F4000882309F6112309F0BECF0F900F900F9060
:100F50000F90CF91DF911F910F91FF90EF90DF9055
:100F6000CF90BF90AF909F908F9008950F931F9355
:100F7000AC0120E030E0F901E65AFD4F8081882382
:100F8000F9F481E080838901000F111FF801E6590F
:100F9000FD4F51834083F801E657FD4F7183608315
:100FA00060E070E080E090E025E030E040E050E07C
:100FB0000E94B22F06551D4FF8017183608305C052
:100FC0002F5F3F4F20313105B1F61F910F910895EA
:100FD0000F931F938091E601882309F458C0815034
:100FE0008093E6010091E1011091E2012091E50179
:100FF00030E066277727621B730B882777FD809583
:10100000982F2F5F3F4F442737FD4095542F0E9464
:10101000B22F060F171F1093E2010093E101009118
:10102000E3011091E4012091E50130E06627772784
:10103000621B730B882777FD8095982F2F5F3F4F9A
:10104000442737FD4095542F0E94B22F060F171FDB
:101050001093E4010093E3011091590120915B0189
:10106000269526958091E501289F9001112444271B
:1010700037FD4095542F60E070E080E090E00E94E2
:10108000B22F161B86E591E0612F0E94E8161F9192
:101090000F9108950F931F931092AB011092AC0122
:1010A00002EA11E0C80164E20E94A92D60911E03CA
:1010B00070911F03C8014AE050E00E94252F1F9144
:1010C0000F910895AF92BF92CF92DF92EF92FF926D
:1010D0000F931F93DF93CF9300D000D0CDB7DEB72F
:1010E000FF2423E0A22EB12CAC0EBD1E6E0108948D
:1010F000C11CD11C31C00F2D10E0F801EE0FFF1FF5
:10110000DF01A65FBD4F6D917C91E651FE4F80815E
:101110009181A60195010E94E5048823E1F0F80180
:10112000E65BFD4F808169814B81F801E65DFD4FF3
:10113000863039F06250425082EA91E02CEA31E088
:1011400006C06150415082EA91E026EB31E0008117
:10115000EE240E942F1BF3948091E901F81658F2B7
:101160000F900F900F900F90CF91DF911F910F91E3
:10117000FF90EF90DF90CF90BF90AF9008956F9267
:101180007F928F929F92AF92BF92CF92DF92EF9217
:101190000F93DF93CF9300D000D0CDB7DEB74AE5F1
:1011A000A42E42E0B42ECC24DD2433E0632E712C37
:1011B0006C0E7D1E4E010894811C911CF5018081EE
:1011C000882311F1F601E659FD4FD601A657BD4F10
:1011D0006D917C9180819181A40193010E94E5042D
:1011E000882381F0698162504B814250F601E655B7
:1011F000FD4F82EA91E02AEC31E00081EE240E946A
:101200002F1B02C0F50110820894A11CB11C82E0C2
:1012100090E0C80ED91E9AE6A91692E0B90671F6BA
:101220000F900F900F900F90CF91DF910F91EF9053
:10123000DF90CF90BF90AF909F908F907F906F90F6
:1012400008952F923F924F925F926F927F928F926A
:101250009F92AF92BF92CF92DF92EF92FF920F9345
:101260001F93CF93DF93682E772490E00AE4202E1B
:1012700002E0302E280E391E880F991FBAEE4B2E31
:10128000B1E05B2E480E591EEC01C65FDD4F29C050
:10129000671431F1D1010C91E72DF0E0DF01A65B7D
:1012A000BD4F8C90D2016D917C9148815981EE0F98
:1012B000FF1FDF01A651BE4FED90FC90E65FFD4F92
:1012C000C080D18086E591E0202F30E010E0A82C8E
:1012D000BB2499240E94F81E882311F081E006C0E7
:1012E00073948091E901781698F280E0DF91CF91B4
:1012F0001F910F91FF90EF90DF90CF90BF90AF9034
:101300009F908F907F906F905F904F903F902F9025
:1013100008951F93182FE82FF0E0DF01A65BBD4F63
:101320002C91EE0FFF1FDF01A65FBD4F6D917C91E9
:10133000E651FE4F80819181422F0E94BF05882394
:1013400021F4812F0E942109811181E01F910895CC
:101350008F929F92AF92BF92CF92DF92EF92FF92C5
:101360000F931F9360911A0370911B036E5F7F4F61
:1013700040911C0350911D034E5F5F4FE090DB01D5
:10138000F090DC01C090DD01D090DE0186E591E0B7
:1013900024E030E004E010E0F6E0AF2EB12CE6E00F
:1013A0008E2E912C0E94F81E882309F454C080913F
:1013B0001E0390911F03059744F486E591E06BEEC0
:1013C00072E04EE10E94461E46C0809116038430B2
:1013D00078F486E591E060EE72E04EE10E94461EF0
:1013E0008BE791E063EB72E040E00E94052807C0C4
:1013F00086E591E065ED72E04EE10E94461E809127
:101400001E0390911F03059790931F0380931E0363
:101410000E944A07E09116038E2F90E0049714F083
:1014200084E002C08E2F8F5F80931603E82FF0E0D8
:10143000EE0FFF1FE65DFE4F8081918190931903AF
:10144000809318038091DF01853014F086E001C09D
:101450008F5F8093DF011F910F91FF90EF90DF90DE
:10146000CF90BF90AF909F908F900895EF92FF9292
:101470000F931F93CF93DF93BBE0EB2EF12C86E508
:1014800091E00E94C0208823D1F360E070E080E00A
:1014900090E022E030E040E050E00E94B22F675F31
:1014A0006093AB0160E070E080E090E022E030E02B
:1014B00040E050E00E94B22F6093AC0182EA91E0DC
:1014C00067E672E00E94D12D1092A9011092AB0143
:1014D0008091A7018093AC0102E213E0C0E0D0E06C
:1014E000F80180819181892B31F482EA91E06DE2EB
:1014F0000E94A92D0DC0CE9DB001CF9D700DDE9D27
:10150000700D1124645D7C4F82EA91E00E94442FAB
:101510002091A60130E0C901880F991F820F931F07
:10152000909581959F4F8C5A8093AB012196809125
:10153000A70190E09C01C29FC001C39F900DD29F64
:10154000900D11248093AC01F801619171918F018C
:1015500082EA91E04AE050E00E94252FC530D10593
:1015600009F0BECF80E691E064E00E94AB178823CB
:1015700079F480E691E065E00E94AB17882341F49E
:1015800080E691E066E00E94AB17882309F477CFEC
:101590008BE791E00E94BA2ADF91CF911F910F91C2
:1015A000FF90EF9008954F925F926F927F928F928B
:1015B0009F92AF92BF92CF92DF92EF92FF920F93E2
:1015C0001F93DF93CF93CDB7DEB72A970FB6F8946A
:1015D000DEBF0FBECDBF86E591E068E573E00E94F7
:1015E000E61E82EA91E064E275E00E94E41B86E573
:1015F00091E068E573E04BE00E94792180911E0341
:1016000090911F0390932B0380932A0328E2C22E0C
:1016100023E0D22E93E0A92EB12C8BE0482E512C42
:101620003E010894611C711C45010894811C911CA9
:10163000F60120813181828193812817390764F076
:1016400002E2802E03E0902EAA24BB24CC24DD24C9
:101650001BE0612E712C69C0A49C7001A59CF00C4C
:10166000B49CF00C11248CE293E0E80EF91EC30147
:10167000B7010E94EB31849C8001859C100D949CE5
:10168000100D1124045D1C4FC701B8010E94EB31FD
:10169000C801B3010E94EB31F601208131818281C2
:1016A000938191838083338322838EEF9FEFC80ED3
:1016B000D91E0894A108B10890E2C91693E0D90692
:1016C00009F0B2CFBDCFB8016C0D7D1D81E695E06C
:1016D000F70141917F010E94162B0F5F1F4F0A30C7
:1016E000110589F78AE090E0C80ED91E81E695E0E1
:1016F000B601F40140810E94162B0894C11CD11C34
:10170000F401418181E695E0B6010E94162B089410
:10171000A11CB11C82E090E0880E991E0894C11CA7
:10172000D11C95E0A916B10471F0A69C7001A79C8C
:10173000F00CB69CF00C1124ECE2F3E0EE0EFF1E70
:1017400000E010E0C0CF0E94360A2A960FB6F89447
:10175000DEBF0FBECDBFCF91DF911F910F91FF90E4
:10176000EF90DF90CF90BF90AF909F908F907F9041
:101770006F905F904F9008950F9380911803909110
:101780001903892B09F467C01092AB0180E3909193
:10179000A701891B8093AC0180911603E82FF0E02C
:1017A000EE0FFF1FE750FD4F6591749182EA91E0C3
:1017B0000E94862D20911703233038F082EA91E0B1
:1017C0006EEF4EE202E00E94CD188091160388234E
:1017D00041F160911803709119036436710510F09E
:1017E00040E006C04091A6016A30710508F4440F3C
:1017F0002091A60130E0C901880F991F820F931F25
:10180000481B4C5A4093AB0180E39091A701891B80
:101810008093AC0182EA91E04AE050E00E94742E8D
:101820001AC02091A60130E0C901880F991F820FCC
:10183000931F909581959F4F8C5A8093AB0180E3C5
:101840009091A701891B8093AC0182EA91E063E04B
:1018500073E00E94862D0F9108952F923F924F9230
:101860005F926F927F928F929F92AF92BF92CF9230
:10187000DF92EF92FF920F931F93CF93DF93992400
:10188000AAE22A2E312CF3E08F2EA8C0C92DD0E079
:10189000CE01880F991F7AEEE72E71E0F72EE80E41
:1018A000F91EF701A080B1804090E1015090E20163
:1018B0008C01065F1D4FF801C080D1806090E3016C
:1018C0007090E4016091DB017091DC01C50140E89A
:1018D00050E00E947E05843708F07FC06091DD01F2
:1018E0007091DE01C60140E650E00E947E05803521
:1018F00008F073C0C65DDD4FC701B801AE0121E03D
:101900000E942E05892D0E948909882339F0C7017C
:10191000B801AE012FEF0E942E050FC060E070E00D
:1019200080E090E020E230E040E050E00E94B22F02
:10193000611571058105910551F40E94DD3124E0A6
:1019400030E040E050E00E946931688346C060E0CA
:1019500070E080E090E020E130E040E050E00E9464
:10196000B22F6115710581059105B9F560E070E050
:1019700080E090E022E030E040E050E00E94B22FB2
:101980006115710581059105A1F0A418B508C5017F
:1019900080589F4F60E870E00E9434319101281B0D
:1019A000390B1216130614F4888217C081E088835D
:1019B00014C0C618D708C601805A9F4F60E670E071
:1019C0000E943431E8E1F0E0E81BF90B1E161F0617
:1019D0001CF4F2E0F88301C0188293948091E9012D
:1019E000981608F453CFDF91CF911F910F91FF907C
:1019F000EF90DF90CF90BF90AF909F908F907F90AF
:101A00006F905F904F903F902F9008959F92AF926C
:101A1000BF92CF92DF92EF92FF920F931F93CF93DB
:101A2000DF93982EC82FD0E0FE01E65BFD4F84E0E7
:101A30008083FE01E65CFD4F80911C0180838091D4
:101A4000E7018823C9F42091E801822F90E00397F1
:101A500014F481E002C0822F81508093E8018093CA
:101A6000E701FE01E65BFD4F86E08083FE01E65C58
:101A7000FD4F80911D018083CE01880F991F5AEE82
:101A8000E52E51E0F52EE80EF91E8C01065F1D4F84
:101A900040E8A42EB12C30E6C32ED12C60E070E0DB
:101AA00080E090E020E230E040E050E00E94B22F81
:101AB00022E0660F771F881F991F2A95D1F7F7013B
:101AC0007183608360E070E080E090E028E130E0C6
:101AD00040E050E00E94B22FB2E0660F771F881FEF
:101AE000991FBA95D1F7F80171836083892D0E94FF
:101AF0008909882399F68091E1019091E20195018D
:101B0000281B390BC901F70120813181820F931FF6
:101B100060E870E00E943431843591050CF4BECF4A
:101B20008091E3019091E4019601281B390BC901D2
:101B3000F80120813181820F931F60E670E00E94DE
:101B40003431C0970CF4AACF0E94DD31C65DDD4F61
:101B500024E030E040E050E00E946931688381E099
:101B6000DF91CF911F910F91FF90EF90DF90CF9079
:101B7000BF90AF909F9008955F926F927F928F92E7
:101B80009F92AF92BF92CF92DF92EF92FF920F930C
:101B90001F93DF93CF9300D000D0CDB7DEB7582E80
:101BA000C82EDD24E62EFF24F701EA5FFC4FE0811A
:101BB000F0E09601265C3D4FAF01405E5E4FD901DB
:101BC0008C91DA019C91891BD9018C93EB5DFE4FBE
:101BD0000081F601E65BFD4F8081863011F40695A9
:101BE0000695C601880F991FBAEE6B2EB1E07B2EC9
:101BF000680E791EAAE08A2EA2E09A2E880E991EFF
:101C0000F2EFAF2EF2E0BF2EAE0CBF1CC301B40149
:101C1000A501202F0E942E05852D0E948909882369
:101C200039F00195C301B401A501202F0E942E05B2
:101C3000D601A65DBD4FF701EE50FD4F808190E0CB
:101C40000296837090708C93F601E65CFD4F808164
:101C500018160CF485C080911E0390911F03019605
:101C600090931F0380931E03809120039091210382
:101C7000019690932103809320038091E701815086
:101C80008093E701E6E0F3E0EE0EFF1ED7018C91B2
:101C9000833039F08BE791E06DEA72E040E00E941A
:101CA0000528F601E65BFD4F8081863049F480917E
:101CB0001E0390911F03049690931F0380931E03AD
:101CC0008601000F111F7AEEE72E71E0F72EE00E6D
:101CD000F11E065F1D4FF80160817181D7018D9162
:101CE0009C910E94B607F80160817181D7018D91A6
:101CF0009C91AE014F5F5F4F9E012D5F3F4F0E9451
:101D0000E504882381F0EAE4F2E0CE0EDF1ED6017E
:101D10000C910F5F698161504B81415082EA91E0E3
:101D2000202F0E94CD18852D0E94060D2091E901DB
:101D30002031B0F4809120039091210366E070E09F
:101D40000E9434316D5F7F4F822F90E068177907D2
:101D50003CF02F5F2093E9012150822F0E94060D55
:101D60000F900F900F900F90CF91DF911F910F91D7
:101D7000FF90EF90DF90CF90BF90AF909F908F90AB
:101D80007F906F905F9008952F923F924F925F9255
:101D90006F927F928F929F92AF92BF92CF92DF927B
:101DA000EF92FF920F931F93DF93CF9300D000D059
:101DB000CDB7DEB780911403882309F47DC081502C
:101DC0008093140384E08093E50182E08093E60130
:101DD00060E070E080E090E026E030E040E050E03D
:101DE0000E94B22F362E8AE0380E40901003509099
:101DF00011036CEF7FEF8FEF9FEF24E030E040E0C6
:101E000050E00E94B22F032D069510E0460E571E9B
:101E1000401A510A60901203709013036CEF7FEF29
:101E20008FEF9FEF24E030E040E050E00E94B22FBF
:101E3000660E771E601A710A222426C0E22DF0E099
:101E4000DF01A65BBD4F0C91EE0FFF1FDF01A65116
:101E5000BE4F6D917C91E65FFD4F4081518186E5DB
:101E600091E0202F30E010E072016301A32CBB242D
:101E7000832C99240E94F81E882329F0822D6091DA
:101E800015030E94BC0D23948091E9012816B0F23D
:101E9000C201B301AE014F5F5F4F9E012D5F3F4F07
:101EA0000E94E504882341F082EA91E069814B8138
:101EB000232D032D0E94CD180F900F900F900F909F
:101EC000CF91DF911F910F91FF90EF90DF90CF9016
:101ED000BF90AF909F908F907F906F905F904F904A
:101EE0003F902F9008952F923F924F925F926F9262
:101EF0007F928F929F92AF92BF92CF92DF92EF929A
:101F0000FF920F931F93DF93CF93CDB7DEB7279741
:101F10000FB6F894DEBF0FBECDBF8CEF92E09C836E
:101F20008B83A6E0B3E0BA83A9834AEC242E42E077
:101F3000342E3EED432E32E0532E1F821E82BE8190
:101F4000BD83EB81FC818081882309F496C0E981FF
:101F5000FA81A081B0E0FD01EC5CFE4F60806E81F3
:101F60007F81660F771F4E815F814E505D4FA75C6A
:101F7000BE4FCB0186539D4F62527D4F2C910E94E4
:101F80002E05D101ED90FC90F20100811181C70175
:101F9000B801462D262D0E94BF05882311F4772411
:101FA00067C0AB81BC811C92E981FA81808183305A
:101FB00009F063C0F0921103E09210031093130331
:101FC00000931203F8E0F09314038BE791E067E0CD
:101FD00073E040E00E94052850C0E72DF0E0DF01EB
:101FE000A65BBD4F8C90D1016D917C91D2014D913A
:101FF0005C91EE0FFF1FDF01A651BE4FED90FC90EC
:10200000E65FFD4FC080D18086E591E0262D30E06F
:10201000062D10E0A82CBB2499240E94F81E8823CA
:1020200031F1E981FA8180818330C9F4D1018D9148
:102030009C919093110380931003F2018081918110
:102040009093130380931203F8E0F09314038BE74B
:1020500091E067E073E040E00E94052804C0872D0E
:102060006D810E94BC0DAB81BC811C9206C0739433
:102070008091E901781608F4B0CFEE81FF813196A6
:10208000FF83EE838B819C8101969C838B83A98146
:10209000BA811196BA83A983E2E0F0E02E0E3F1ECA
:1020A0004E0E5F1E8E819F810A9709F048CF2796BA
:1020B0000FB6F894DEBF0FBECDBFCF91DF911F9159
:1020C0000F91FF90EF90DF90CF90BF90AF909F90D7
:1020D0008F907F906F905F904F903F902F900895DA
:1020E0001F938091E901EAEEF1E0AAE0B2E090E00E
:1020F000880F991F8E0F9F1F2FE037E204C0219396
:1021000031932D933D93E817F907C9F710E006C006
:10211000812F0E94060D882331F01F5F8091E90115
:102120001817B0F381E01F9108950F931F93CF9379
:10213000DF9320911E0330911F0380912A03909119
:102140002B038217930714F40E94D30A10921F03E3
:1021500010921E0310922103109220031092160376
:102160008FE097E29093190380931803109217035E
:102170001092E60186E08093DF0180E18093E80120
:102180008093E70184E08093E90160E070E080E003
:1021900090E020E130E040E050E00E94B22FE3E028
:1021A000660F771F881F991FEA95D1F77093DC019E
:1021B0006093DB0160E070E080E090E02CE030E0D4
:1021C00040E050E00E94B22F9B01AC0163E0220F7F
:1021D000331F441F551F6A95D1F789013093DE01E3
:1021E0002093DD01C091DB01D091DC01CE01B9016A
:1021F00046E026E00E94BF05882339F6A797D093D2
:10220000E201C093E101055110401093E4010093F5
:10221000E3010E947010882309F4B7CF0E944A0797
:10222000ECEFF2E0119283E0E630F807D9F7EAE547
:10223000F2E0119282E0EA36F807D9F7109214031F
:10224000DF91CF911F910F9108955F926F927F92CE
:102250008F929F92AF92BF92CF92DF92EF92FF92B6
:102260000F931F93CF93DF9320911803309119039D
:102270002115310509F4E7C080911703882309F07F
:10228000FDC0C0E0D0E05C2EFE01E450FD4F808137
:10229000882309F0D2C081E08083E0911603DE013B
:1022A000AA5FBC4FEC93F0E0DF01A25CBE4F8C91C3
:1022B0008093170321503040309319032093180363
:1022C000DF01AD5BBE4FCC90EC5CFE4F808180FDAA
:1022D00003C06C2C619402C06C2C60940091DB01F3
:1022E0001091DC01772467FC7094872C972CDD24F7
:1022F000C7FCD0940894C11CD11CEE24D7FCE094F8
:10230000FE2CC401B301A70196010E94B22F5E0109
:10231000AA0CBB1CD501A653BD4F0D5F1F4FE0910A
:102320001603F0E0EC5CFE4F20812695021B11099C
:10233000060F171F0D931C930091DD011091DE0114
:10234000C401B301A70196010E94B22F9091160318
:10235000492F50E02EED32E0A20EB31E0D5F1F4F4D
:10236000FA01EC5CFE4F20812695021B1109060F35
:10237000171FF50111830083CE50DD4F8091E001DE
:10238000888350921503913011F0943021F480919C
:10239000C40180FD0CC0FA01EE0FFF1FEF5EFC4F81
:1023A000659174918BE791E040E00E94052880914F
:1023B0001603813059F40E94DD3160FF07C08BE7BE
:1023C00091E06BE173E040E00E940528E091160384
:1023D000F0E0E85BFE4FC0802C2D21958BED91E065
:1023E0006DED71E040EE51E00E942E0500E018C056
:1023F0006091DD017091DE018091DB019091DC0143
:1024000046E026E00E94BF05882361F08BED91E055
:102410006DED71E040EE51E021E00E942E050F5F6E
:102420000C1530F380911603843041F581E08093E0
:10243000E50182E08093E60121C02196CA30D105F2
:1024400009F021CF1BC0E0911603E111E150E093A8
:102450001603F0E0EE0FFF1FE65DFE4F80819181D5
:10246000909319038093180384E18093170386E502
:1024700091E061E273E04EE10E94461EDF91CF9150
:102480001F910F91FF90EF90DF90CF90BF90AF9092
:102490009F908F907F906F905F9008956F927F9242
:1024A0008F929F92AF92BF92CF92DF92EF92FF9264
:1024B0000F93DF93CF9300D000D0CDB7DEB73AECC7
:1024C000A32E32E0B32E2EEDC22E22E0D22EEE2429
:1024D000FF2493E0692E712C6C0E7D1E4E01089432
:1024E000811C911CF701E450FD4F8081882321F16C
:1024F000F60160817181F50180819181A4019301D0
:102500000E94E5048823C1F0F701EA5FFC4FE081F7
:10251000F0E0EC5CFE4F0081013039F482EA91E09A
:1025200069814B810E94031807C082EA91E06981AA
:102530004B81202F0E94CD180894E11CF11C82E0F1
:1025400090E0A80EB91EC80ED91E9AE0E916F10453
:1025500049F60F900F900F900F90CF91DF910F9150
:10256000FF90EF90DF90CF90BF90AF909F908F90B3
:102570007F906F9008952F923F924F925F926F924B
:102580007F928F929F92AF92BF92CF92DF92EF9203
:10259000FF920F931F93DF93CF9300D000D0CDB75E
:1025A000DEB710926E0110E052E0E52E46E0F42E08
:1025B00000E186E591E00E94C0208823D1F3E092FB
:1025C000AA01F092AB010093AC0182EA91E06DE5C3
:1025D00072E00E94862D1F5F1A3058F381E08093CD
:1025E000AA0186E591E06FE472E04CE30E94461E8A
:1025F00086E591E00E94C0208823D1F380E691E037
:1026000066E00E94AB178823D9F08BE791E00E9427
:10261000C02A0F900F900F900F90CF91DF911F91D4
:102620000F91FF90EF90DF90CF90BF90AF909F9071
:102630008F907F906F905F904F903F902F90089574
:1026400080E691E062E041E00E94B517882311F036
:1026500083E00BC080E691E060E041E00E94B517A6
:10266000882311F410E004C081E08093E00111E0C0
:1026700080E691E063E041E00E94B517882321F0F5
:1026800082E08093E0010DC080E691E061E041E0EE
:102690000E94B517882319F01092E00102C011239F
:1026A00019F18BED91E06DED71E040EE51E020917C
:1026B000DA010E942E056091DD017091DE018091AA
:1026C000DB019091DC0146E026E00E94BF058823F3
:1026D00059F02091DA0121958BED91E06DED71E0DB
:1026E00040EE51E00E942E058091DB019091DC01CB
:1026F00087979093E2018093E1018091DD019091B1
:10270000DE0145979093E4018093E3010E94E8077E
:102710006091E3017091E4018091E1019091E20107
:102720000E9413066091DD017091DE018091DB0152
:102730009091DC01AE014F5F5F4F9E012D5F3F4FD7
:102740000E94E504698161504B81415082EA91E029
:1027500020EC31E00091E001EE240E942F1B0E944A
:102760002D0C0E94620880911703882319F0815074
:102770008093170380E691E064E041E00E94B51782
:10278000882351F080E691E065E041E00E94B517B2
:10279000882311F40E94251180E691E065E041E074
:1027A0000E94B517882311F082E001C081E0809378
:1027B000DA010E94730F0E944E120E94C40E0E9402
:1027C000BF080E94A8090E94B30600E010E036E5A9
:1027D000F32E8091DF01992787FD9095801791074F
:1027E0003CF082EA91E06F2D40E02EED31E019C01F
:1027F00082EA91E060E00E94FB1782EA91E06F2D8F
:1028000040E02EED31E00E94C11A82EA91E061E0E1
:1028100040E00E94FF1782EA91E06F2D40E022EF36
:1028200031E00E94C11A0E5F1F4F87EFF80EA2E33E
:10283000FA1679F69091DF01992359F48091C40139
:1028400080FD0DC082E08093E50181E08093E60188
:1028500006C0913021F49093E5019093E60190FF3A
:1028600019C0892F97FD8F5F8595992787FD9095D2
:1028700080959095BC0123E0660F771F2A95E1F7BC
:10288000680F791F6A5A82EA91E040E028EE31E051
:102890000E94C11A0E94BC0B0E944A08772482E061
:1028A000282E04E0602E13E0312E23C1E72DF0E046
:1028B000BAE44B2EB2E05B2E4E0E5F1ED2010C919D
:1028C000EE0FFF1FDF01A651BE4F6D917C91E65FB9
:1028D000FD4F40815181E090DB01F090DC01C09020
:1028E000DD01D090DE0186E591E0202F30E010E0A0
:1028F000F6E0AF2EB12CE6E08E2E912C0E94F81E51
:10290000882309F4F5C09091DF0191509093DF0185
:102910002092E5016092E601F2018081863029F47F
:1029200091509093DF013092E5018BE791E06CEFDD
:1029300071E040E00E940528872D0E94060D8091DD
:10294000DF0187FFD5C010E086E591E00E94C0203E
:102950008823D1F30E9462080E944E120E94BF0891
:102960000E94B3060E94BC0B0E944A086091E301DA
:102970007091E4018091E1019091E2010E941306BF
:10298000698161504B81415082EA91E020EC31E055
:102990000091E001EE240E942F1B82EA91E060E0AA
:1029A0000E94FB1782EA91E060E040E0212F00E303
:1029B0000E94CD1864E5611B82EA91E040E0212F7E
:1029C0000E94CD1882EA91E061E040E00E94FF178A
:1029D000FCE0F093AB0181E08093AC0182EA91E0EE
:1029E00064E472E00E94862D1E5F1E3309F0ACCFB6
:1029F00011E086E591E00E94C0208823D1F3209168
:102A00001E0330911F0380912A0390912B0382179C
:102A10009307F4F460E070E080E090E022E030E0C2
:102A200040E050E00E94B22F6E5F6093AB0160E027
:102A300070E080E090E022E030E040E050E00E9472
:102A4000B22F6093AC0182EA91E066E372E009C0C4
:102A50008CE08093AB011093AC0182EA91E06BE2D1
:102A600072E00E94862D1092AB01ACE0A093AC0105
:102A700082EA91E060E272E00E94862D60911E037E
:102A800070911F0382EA91E04AE050E00E94122F09
:102A900082EA91E063E172E00E94862D609120035A
:102AA0007091210382EA91E04AE050E00E94122FE7
:102AB00082EA91E06BE072E00E94862D1092AB01F9
:102AC000B8E2B093AC0182EA91E062E072E00E9469
:102AD000862D80E691E064E00E94AB17882309F41C
:102AE00088CF8BE791E00E94BA2A0E94951080CD92
:102AF00073948091E901781608F07ACDD7CE0F93C0
:102B00001F9301E086E591E00E94C0208823D1F365
:102B100086E591E063E772E045E00E945824182FB3
:102B20008230C1F1833034F4882351F0813009F0D0
:102B3000EDC01DC0833089F1843009F0E7C0DFC0EB
:102B400064E670E080E090E00E949B2B82EA91E0D6
:102B500062EA73E00E94E41B0E94BB1282EA91E0E9
:102B600064E275E00E94E41B00936E01CBCF0E94EB
:102B7000951082EA91E062EA73E00E94E41B0E94F1
:102B8000BB1282EA91E064E275E00E94E41B1093BC
:102B90006E01BCC00E94360AB5CF82EA91E062EABB
:102BA00073E00E94E41B86E591E00E94C020882328
:102BB000D1F380E691E066E00E94AB17882359F0DC
:102BC00082EA91E064E275E00E94E41B8BE791E009
:102BD0000E94C02A97CF82EA91E068EA72E00E94E0
:102BE000862D609170017091710182EA91E04AE056
:102BF00050E00E94742E82EA91E065EA72E00E9441
:102C0000D12D82EA91E06CE972E00E94862D82EA81
:102C100091E060916F014AE050E00E94A22E82EAAA
:102C200091E069E972E00E94D12D82EA91E062E9C7
:102C300072E00E94862D609157017091580182EADE
:102C400091E04AE050E00E94852E82EA91E067E838
:102C500072E00E94862D82EA91E0609159014AE07B
:102C600050E00E94B42E82EA91E06FE772E00E9489
:102C7000862D8BE791E00E94D92A682F82EA91E0A5
:102C80004AE050E00E94A22E82EA91E06DE772E0F5
:102C90000E94862D82EA91E060917F014AE050E037
:102CA0000E94B42E82EA91E060E071E00E94442F1D
:102CB00082EA91E06091E9014AE050E00E94A22E90
:102CC00082EA91E066E071E00E94442F82EA91E09E
:102CD00060E170E04AE050E00E94252F82EA91E036
:102CE00068E071E00E94442F6091200370912103FD
:102CF00082EA91E04AE050E00E94252F54CF86E519
:102D000091E068E670E00E941827FCCE1F910F91B9
:102D100008950E947F1586E591E068E670E00E94C4
:102D2000182708950F931F9306E511E0C8010E942C
:102D30001E2782EA91E064E275E00E94E41BC8016C
:102D400068E670E00E941827C8010E948B200E944C
:102D5000DA060E9495101F910F910895882319F4A7
:102D60008CB5806202C08CB58F7D8CBD08959CB5FA
:102D7000937F982B9CBD08952CB5382F33702C7FF2
:102D8000322B3CBD2DB590E095958795959587950F
:102D900081702E7F822B8DBD08958AE061E00E94B4
:102DA000EA2C8AE061E00E947E2C8CB580618CBDAB
:102DB0008CB580648CBD8DE061E00E947E2C8BE040
:102DC00061E00E947E2C0895FC0181E080830895DB
:102DD00085E070E00E941E2C08956F927F928F9282
:102DE0009F92AF92BF92CF92DF92EF92FF920F939A
:102DF0001F93CF93DF93EC0189819A818C0124E0AA
:102E0000000F111F2A95E1F7081B190B85E10E949D
:102E1000FC2BBC01600F711F84E0769567958A9545
:102E2000E1F77A8369838881882381F12E813F814C
:102E30006217730710F4B90106C088859985861753
:102E4000970708F4BC0100D000D080E090E040E09B
:102E500050E0E884F98400E010E0AD80BB24CC248D
:102E6000DD246C80772488249924EDB7FEB7618235
:102E70007282838294820E94472F6B830F900F90FF
:102E80000F900F9085E070E00E941E2CDF91CF9193
:102E90001F910F91FF90EF90DF90CF90BF90AF9078
:102EA0009F908F907F906F900895FC018CE39FE03E
:102EB0009383828384E0818381E084870895CF9324
:102EC000DF93EC018C8590E08F719070892B69F510
:102ED00084E10E94FC2BAA2797FDA095BA2FBC0184
:102EE000CD010E94063026EE3FE34EEC50E40E94F6
:102EF00092300E94D82F9B01AC017B836A836115BD
:102F0000710589F084E08983B901FE0120E08481A4
:102F100095816817790710F429830AC02F5F3296CC
:102F20002430A9F702C08FEF89838C858F5F8C874F
:102F3000DF91CF910895FC0188E0808389E081834F
:102F400087E0828386E0838384E0848382E08583D4
:102F500081E18683089520E0FC01E60FF11D878161
:102F6000813009F421E0822F0895E62FF0E042300D
:102F700040F420E0E80FF91F878181508E3F88F4EC
:102F80000FC0E80FF91F87818F3F11F420E009C0BF
:102F900020E090E0642F70E00E942031019709F456
:102FA00021E0822F08950F931F93CF93DF93EC01BD
:102FB00010E00FEF888162E00E947E2C88810E94E1
:102FC0001D2D2F81892B19F42F5F2F8307C02223FA
:102FD00049F02F3F11F41F8201C00F83888160E008
:102FE0000E947E2C1F5F2196173021F7DF91CF9131
:102FF0001F910F910895FC01678F60A30895FC0154
:10300000678F40A30895FC016435A8F547FD33C0E0
:1030100040338CF5878D942F9595959595957727C9
:1030200067FD70954770882399F0E4E59E02F001F2
:103030001124E60FF71FED59FC4F81E090E002C02C
:10304000880F991F4A95E2F72081282B2083089545
:10305000E4E59E02F0011124E60FF71FED59FC4F45
:1030600081E090E002C0880F991F4A95E2F78095B1
:103070002081282320830895AF92BF92CF92DF92C0
:10308000EF92FF920F931F93CF93DF93EC01162FD4
:10309000F42EE22EAA24402F552747FD50958F2D60
:1030A000992787FD9095481B590B57FF03C05095F2
:1030B00041955F4F2E2D332727FD3095812F99277E
:1030C00087FD9095281B390B37FF03C0309521955C
:1030D0003F4F2417350744F4AA24A3948F2DF12ED3
:1030E000182F802F0E2DE82EE11634F48E2DE12EB0
:1030F000182F802F0F2DF82EDE2CD11A202F3327DA
:1031000027FD30958F2D992787FD9095281B390B2A
:1031100037FF03C0309521953F4FB22EF0161CF0BB
:10312000CC24CA9402C0CC24C3948D2DD7FC8F5FCD
:10313000082F059511C0AA2021F0CE016F2D412F37
:1031400003C0CE01612F4F2D0E9403180B1907FFFA
:1031500002C0FC0C0D0D1F5FE1166CF7DF91CF91E3
:103160001F910F91FF90EF90DF90CF90BF90AF90A5
:1031700008950F93042F322F262F2150230F0E94E2
:103180003C180F9108950F93362F042F0150020F12
:10319000232F0E943C180F9108959F92AF92BF92E7
:1031A000CF92DF92EF92FF920F931F93CF93DF9313
:1031B0006C01B62E942EA02EC0E0D0E0E62EFF24A7
:1031C000E7FCF094022F112707FD10950E0D1F1D2F
:1031D00006C0C601492D2A2D0E94C31821966B2DC9
:1031E0006C0FCE018E0D9F1D8017910794F3DF9118
:1031F000CF911F910F91FF90EF90DF90CF90BF90F4
:10320000AF909F9008952F923F925F926F927F921E
:103210008F929F92AF92BF92CF92DF92EF92FF92E6
:103220000F931F93DF93CF9300D000D000D0CDB782
:10323000DEB79E838D83C62ED42EEE24E394E21A4D
:103240008EEF289F502C1124842E8A94962E9A94C7
:10325000A42EA394B62EB394F22E662423E0722EED
:1032600010E0C801847090709A838983F801E2703D
:10327000F070FC83EB8398E0292E312C2022312240
:103280000170107054C0E7FC04C0FA94F2E05F0EC5
:10329000E50C639489819A81892B71F04F2D4D0D36
:1032A0008D819E816B2D0E9403186F2D6C0D8D8179
:1032B0009E814A2D0E940318EB81FC81EF2B71F057
:1032C0004D2D4F198D819E816B2D0E9403186F2DFE
:1032D0006C0D8D819E81482D0E94031821143104AC
:1032E00071F06C2D6F198D819E814A2D0E940318FB
:1032F0004F2D4D0D8D819E81692D0E940318011562
:10330000110571F06C2D6F198D819E81482D0E94E1
:1033100003184D2D4F198D819E81692D0E94031830
:10332000E70CF2E07F0E8A949A94A394B3946F14FE
:103330000CF4A9CF26960FB6F894DEBF0FBECDBF12
:10334000CF91DF911F910F91FF90EF90DF90CF9081
:10335000BF90AF909F908F907F906F905F903F90C5
:103360002F9008954F925F926F927F928F929F92CB
:10337000AF92BF92CF92DF92EF92FF920F931F9383
:10338000CF93DF93EC01A62E742E9E2DFF24F39491
:10339000F21A8EEF289F802C1124B42EBA9453E099
:1033A000C52ECE0CE22EDD2443E0942E10E031E059
:1033B000432E512C40225122692E639402701070CA
:1033C00034C0F7FC04C0EA9482E0880EF80CD39471
:1033D0004114510489F06D2D6A0D472D4E192E2D83
:1033E000220F260DCE010E94C3186E2D6A0DCE014C
:1033F0004B2D2C2D0E94C3180115110589F06A2D43
:103400006D19472D4E192E2D220F260DCE010E942B
:10341000C3186A2D6E19CE014B2D2C2D0E94C31896
:10342000F90C82E0980EBA94C80EDE1454F2DF91C3
:10343000CF911F910F91FF90EF90DF90CF90BF90B1
:10344000AF909F908F907F906F905F904F90089576
:103450007F928F929F92AF92BF92CF92DF92EF9224
:10346000FF920F931F936C01962EA42EF22E7E2CAA
:10347000760E1EEFE19E102D1124812E820E672DF7
:10348000282D0E94B918B02EBA0CBA94C601672D27
:103490004B2D282D0E94B918AE0C100FC601692DB6
:1034A0004A2D212F0E94C318F90CFA94C6016F2DE2
:1034B0004A2D212F0E94C318C601672D4A2D2E2D9B
:1034C00001E00E940319FE18C6016F2D4A2D2E2D12
:1034D00002E00E940319BE18C6016F2D4B2D2E2D40
:1034E00004E00E940319C601672D4B2D2E2D08E024
:1034F0000E9403191F910F91FF90EF90DF90CF90E2
:10350000BF90AF909F908F907F9008958F929F92E1
:10351000AF92BF92CF92DF92EF92FF920F931F93E1
:103520006C01162FA42E922EF02EBE2C8E2C860E01
:103530002EEFE29EE02C11242E2D290D682D0E94E5
:10354000CD18AB0CFA94FE0C1150190D1B19C601C5
:10355000612F4A2D2B2D01E0EF2C0E94B219C601DC
:10356000682D4A2D2B2D02E00E94B2191F910F9158
:10357000FF90EF90DF90CF90BF90AF909F908F9093
:1035800008953F924F925F926F927F928F929F9297
:10359000AF92BF92CF92DF92EF92FF920F931F9361
:1035A000CF93DF934C01362E442EF901A49031962F
:1035B00054906F010894C11CD11C8A2D992787FD56
:1035C0009095079668E070E00E943431E62EFF2463
:1035D000E7FCF09400E0C0E0D0E060E8662E712CDB
:1035E00026C0E12FE595E595E595FF27E7FDF095E8
:1035F000EC0FFD1FEC0DFD1DE4912E2F30E0812F0F
:103600008770A30102C0559547958A95E2F7242358
:103610003523232B31F0612F630DC4014B2D0E9404
:1036200003181F5F1A15ECF20F5FCE0DDF1D051595
:1036300024F410E0B02EB40CF5CFDF91CF911F91A0
:103640000F91FF90EF90DF90CF90BF90AF909F9041
:103650008F907F906F905F904F903F9008952F9242
:103660003F924F925F926F927F928F929F92AF9212
:10367000BF92CF92DF92EF92FF920F931F93DF934F
:10368000CF9300D000D00F92CDB7DEB73C01862E8D
:103690004A83F901BE2C002329F4EE2019F40E947C
:1036A000C11A7AC0A490319694901F010894211CED
:1036B000311C037009838A2D992787FD9095079601
:1036C00068E070E00E943431462E552447FC509447
:1036D000C92CCA94FF241D821C824A2D41504B8361
:1036E00056C0E02FE595E595E595FF27E7FDF095B8
:1036F0008C819D81E80FF91FE20DF31DE4912E2FBF
:1037000030E0802F8770A0E8B0E002C0B595A795A3
:103710008A95E2F72A233B23232B61F1B981B1304B
:1037200051F0B13028F0B23049F0B33061F409C043
:10373000102FEF2C08C0ED2C1F2D05C01D2DEC2CDB
:1037400002C01C2DE02EBB2069F0E3E0BE228B2DD1
:10375000B0FE03C0FA2DF11B1F2F81FF03C0492DBE
:103760004E19E42E180D5A81E50EC301612F4E2D1E
:103770000E9403180F5FDA940A150CF4B2CFF39489
:103780008C819D81840D951D9D838C83CA94F91431
:103790001CF4DB8000E0F0CF0F900F900F900F90A3
:1037A0000F90CF91DF911F910F91FF90EF90DF90DD
:1037B000CF90BF90AF909F908F907F906F905F90D1
:1037C0004F903F902F900895DC01FB0184918F5F13
:1037D00014968C931497319684918F5F15968C93E1
:1037E000159731965E96FC93EE935D9708953F9200
:1037F0004F925F926F927F928F929F92AF92BF9201
:10380000CF92DF92EF92FF920F931F93CF93DF93AC
:10381000EC01862EA42E422F102F3F8C23E5261775
:103820000CF4ABC03FE23A150CF4A7C0C02EDD2467
:103830008C8190E001979C01C29EC001C39E900DB7
:10384000D29E900D1124262F332727FD3095820F0D
:10385000931F181619060CF090C08D8190E09C0102
:10386000C29EC001C39E900DD29E900D11242A2DA0
:10387000332727FD3095820F931F181619060CF079
:103880007CC09924442E55246DC09C0121503040A9
:103890004217530711F460E00EC0429EC001439EE0
:1038A000900D529E900D1124840F951FED8DFE8D6D
:1038B000E80FF91F64914C9DC0014D9D900D5C9DDA
:1038C000900D1124682C680EBB24792C780C3FC015
:1038D000E62EFF2460FF19C0113039F44B2D4A0D3C
:1038E000CE01672D0E9403182EC02C9DC0012D9D76
:1038F000900D3C9D900D11244A2D480FCE01662D50
:10390000212F012F0E94CD181EC098A18F8D9817CE
:10391000D1F09F8F113039F44B2D4A0DCE01672D18
:103920000E9403180FC02C9DC0012D9D900D3C9D41
:10393000900D11244A2D480FCE01662D212F012F05
:103940000E94CD183F8EF594E7946E2DB3942B2DE5
:10395000332727FD30958D8190E0281739070CF427
:10396000B7CF9394492D552747FD50958C8190E012
:10397000481759070CF489CF3F8EDF91CF911F91E3
:103980000F91FF90EF90DF90CF90BF90AF909F90FE
:103990008F907F906F905F904F903F9008950F931E
:1039A000CF93DF93EC01262F6A3049F48D819885FF
:1039B000899F802D11249A85980F9A8726C06D3093
:1039C00029F169854A8508850E94F71B9C816885D5
:1039D000969F402D11248985480F49878F81882320
:1039E000A9F0552747FD5095699F9001112484E562
:1039F00090E0821B930B8417950744F49D81699F87
:103A0000902D11248A85890F8A87198681E090E09C
:103A1000DF91CF910F9108951F93CF93DF93EC0126
:103A2000162FF8948E8560E00E94EA2C8F85181678
:103A30001CF460E00E94EA2C1EBD0DB407FEFDCF11
:103A40008EB58F8518161CF461E00E94EA2C7894DC
:103A5000DF91CF911F910895FF920F931F93CF9302
:103A6000DF93EC01FF2400E010E06F2D6064CE01D5
:103A70000E940C1DCE0160E80E940C1D8E8561E045
:103A80000E94EA2C8F8518161CF460E00E94EA2C34
:103A9000F801ED59FC4F90E080818EBD0DB407FE1A
:103AA000FDCF8EB59F5F31969435B1F78F8518168F
:103AB0001CF461E00E94EA2CF3940C5A1F4F86E03C
:103AC000F81699F6CE0160E40E940C1DDF91CF91AB
:103AD0001F910F91FF900895CF93DF93DC0188EF42
:103AE00091E0E3E6F3E0EF019C01199221503040B0
:103AF000E1F719961C9219971A961C92DF91CF91B3
:103B00000895EF920F93CF93DF93EC014D876C876D
:103B10002E87E88A0F8781E088878F8F18A28F838E
:103B2000CE0162EA73E00E94E41B0E94CD1681E0A0
:103B30000E94AE1685E00E94BC168CE00E94B7166B
:103B40008D8561E00E947E2C8C8561E00E947E2C38
:103B50008E8561E00E947E2C888918161CF461E035
:103B60000E947E2C8F8518161CF461E00E947E2C2A
:103B7000888918166CF460E00E94EA2C6AE070E014
:103B800080E090E00E949B2B888961E00E94EA2CF3
:103B9000EC852E2F332727FD3095F901E95CF64F90
:103BA000E491F0E0EE0FFF1FED5DF64F85919491EB
:103BB0009C8B8B8B255B364FF90184918A8FED8529
:103BC0002E2F332727FD3095F901E95CF64FE4915C
:103BD000F0E0EE0FFF1FED5DF64F859194919A8B0B
:103BE000898B255B364FF9018491898FEF852E2FC4
:103BF000332727FD3095F901E95CF64FE491F0E0B9
:103C0000EE0FFF1FED5DF64F859194919E8B8D8B8E
:103C1000255B364FF90184918B8FEE852E2F33274C
:103C200027FD3095F901E95CF64FE491F0E0EE0FE5
:103C3000FF1FED5DF64F85919491988F8F8B255BDB
:103C4000364FF90184918C8FCE0161E20E940C1DE8
:103C5000CE0164E10E940C1D8B8587FF02C08FE7B7
:103C60008B876B856068CE010E940C1DCE0160E2DF
:103C70000E940C1DCE016CE00E940C1DCE010E9422
:103C80002C1DDF91CF910F91EF900895FC01EF571C
:103C9000FF4F61937193445F40830895CF93DF9307
:103CA000DC01E0E8FFE685919491ED01C95ADF4F10
:103CB000AD0143595F4F8150904C09F04EC0E6E989
:103CC000FFE6E491E883E7E9FFE6E4911496EC93DC
:103CD0001497E8E9FFE6E4911596EC931597E9E966
:103CE000FFE68591949117969C938E931697EBE936
:103CF000FFE68591949119969C938E931897EDE920
:103D0000FFE6E4919996EC939997EEE9FFE6E4914A
:103D10009896EC939897EFE9FFE6E491EA01E8833F
:103D2000E0EAFFE6859194915D969C938E935C9773
:103D3000E2EAFFE6859194915F969C938E935E975D
:103D4000E4EAFFE68591949191969C938E939097E7
:103D5000E6EAFFE68591949132C08CE3888314965D
:103D60001C9214972FEF15962C93159780E293E0F1
:103D700017969C938E93169784ED93E019969C93D7
:103D80008E93189781E099968C93999798968C9337
:103D90009897FA0120838CEA9DE05D969C938E9320
:103DA0005C978EED9DE05F969C938E935E9784E783
:103DB0009EE091969C938E9390978CE39FE09396D0
:103DC0009C938E939297DF91CF910895E0E8FFE660
:103DD000859194918150904C51F4DB01EBE8FFE622
:103DE00084918D9331968FE6E539F807C9F70895E8
:103DF0008F929F92AF92BF92CF92DF92EF92FF92FB
:103E00000F931F93DF93CF93CDB7DEB76E157F056A
:103E10000CF452C0C5018E0D9F1D681779070CF078
:103E20004BC04C155D050CF447C0C4018C0D9D1DA5
:103E3000481759078CF140C0C5018E0D9F1D2817EA
:103E400039070CF043C04C155D050CF43FC0C401AC
:103E50008C0D9D1D48175907FCF038C0C5018E0D0B
:103E60009F1D68177907CCF54C155D05B4F1C401A9
:103E70008C0D9D1D481759077CF02FC0AE0CBF1C40
:103E80002A153B055CF44C155D0544F080E08C0C74
:103E90009D1C481559051CF481E001C080E0CF91BC
:103EA000DF911F910F91FF90EF90DF90CF90BF9027
:103EB000AF909F908F90089561507040260F371FEC
:103EC0006F5F7F4F2E153F050CF0B6CF415050402D
:103ED000400F511F6E157F050CF62E153F0574F629
:103EE000DDCFEF92FF920F931F93CF93DF937C016F
:103EF0008C01045B1F4FC8010E946C1DC8016BEC54
:103F000077E00E94862DC8010E942C1D83E00E944C
:103F1000BC1680E191E0EEEFFFE3099582E590E0C9
:103F2000E80EF91EF7011082C80166EA77E00E94E8
:103F3000D12DC8010E942C1DE701C854D040CE01EC
:103F40000E94D317CE0164E00E94AB17882339F496
:103F500062E370E080E090E00E949B2BF0CFDF9165
:103F6000CF911F910F91FF90EF9008950F931F93A2
:103F7000CF93DF93EC018C01045B1F4FC80161E01C
:103F800040E00E94FF17FE01EB5AFF4FC05BDF4F7E
:103F900085E59881891B808326961882C655D04076
:103FA000698D613061F1613028F0888D653008F0ED
:103FB0003FC039C0CE0185960E940128CE0160E045
:103FC0000E94E816C8010E946C1DC80163EF77E0EB
:103FD0000E94862DC8010E942C1D83B7817F8460BA
:103FE00083BF83B7816083BF83B7816083BF8895B8
:103FF00083B78E7F83BF83B78E7F83BF1FC0C259B5
:10400000DF4F88819981AA81BB818F709070A070E9
:10401000B0700897A105B10518F4C80167E00CC09D
:10402000C80168E709C0882349F06B5FC80104C074
:10403000882321F0C8016FE20E94A92DDF91CF9162
:104040001F910F910895AF92BF92CF92DF92EF929E
:10405000FF920F931F93CF93DF93EC01CD57DF4F68
:104060008881C358D040882309F44AC08C3010F0AE
:1040700010E002C01CE0181BCC5ADF4F81E088839F
:10408000C455D0406CE4C62ED12CCC0EDD1EC6012A
:1040900060E00E94FB1751E5A52EB12CAC0EBD1EB1
:1040A000F50100814DE2F42E4F2D401B410F0D5FB5
:1040B000C60160E024E533E0E32E0E94861AC601C3
:1040C00061E00E94FB17F5010081F01AF10E0D5F0F
:1040D000C60160E04F2D24E50E94281ACB5ADF4F1D
:1040E00084E08993F5018081181B115D1883AB96DC
:1040F00069917991C6010E94862D888181508883BB
:10410000DF91CF911F910F91FF90EF90DF90CF90B3
:10411000BF90AF9008958F929F92AF92BF92CF922F
:10412000DF92EF92FF920F931F934C01FC01A28C40
:10413000B38CCC24DD240E94752B7B018C01F4010F
:10414000818092800E94752B860E971EE094F094D9
:1041500000951095C801B701A60195010E94F530A0
:10416000860E971EC4010E94D02F1F910F91FF90C1
:10417000EF90DF90CF90BF90AF909F908F90089579
:10418000AF92BF92CF92DF92EF92FF920F931F9365
:10419000CF93DF93EC01EDE7AE2EB12CA80EB91E44
:1041A000F501E080F180028113810E94672BE61AFD
:1041B000F70A080B190B7CE7C72ED12CCC0EDD1E9D
:1041C000F601808190E0A0E0B0E08E159F05A00789
:1041D000B10708F081C08E0108581F4FF801808197
:1041E0009181A281B3810097A105B10509F474C042
:1041F0000E94672BF6012081620F711D811D911DA8
:10420000F5016083718382839383FE01E259FF4F3E
:1042100080819181A281B3810196A11DB11D80830E
:104220009183A283B383F8011082118212821382D8
:104230000E94752BCC58DF4F688379838A839B83D8
:10424000C457D040CE010E94ED16CE010A960E94BE
:10425000D317CE0148960E945F178E010B5D1F4F4A
:10426000C8010E946E28C8010E944629C8010E9408
:104270005D2A81E026C0CE010E942320CE010E944B
:10428000B61F8E01045B1F4FC8010E942C1DCE5A21
:10429000DF4F8881C255D040882319F4C8010E949D
:1042A0006C1D0E94752BC858DF4F688379838A8301
:1042B0009B83249728813981621B730B7A936A93BD
:1042C00080E0DF91CF911F910F91FF90EF90DF90F1
:1042D000CF90BF90AF900895C858DF4F88819981E3
:1042E000AA81BB81C857D0400097A105B10541F70D
:1042F000C2CF2F923F924F925F926F927F928F9296
:104300009F92AF92BF92CF92DF92EF92FF920F9364
:104310001F93DF93CF93CDB7DEB768970FB6F894AE
:10432000DEBF0FBECDBF5C017B876A874C8722E56D
:1043300030E0A20EB31ED5011C92EEEAFFEFAE0EE6
:10434000BF1E842F90E0FB01E80FF91F3197108208
:104350005AE0452E512C4A0C5B1C45E2642E712C10
:104360006A0C7B1C3CE4C32ED12CCA0CDB1C1D82C6
:104370001C82F2E0FB8324E52A8330E3398321E5C4
:10438000822E912C8A0C9B1C00E5202E312C2A0CAD
:104390003B1CA5014B5A5F4F5E874D87B5016A5A9A
:1043A0007F4F788B6F87D501A259BF4FBA8BA98BEE
:1043B0009C8B8B8B01979E8B8D8BC5010E94C0209F
:1043C0008823D9F3C20163E044E00E94B517882333
:1043D00031F0BB81BF5FBB83C3010E94C62AC2010B
:1043E00061E044E00E94B517882331F0EB81E15091
:1043F000EB83C3010E94C62AC20162E044E00E942E
:10440000B517882331F0FC81FF5FFC83C3010E9454
:10441000C62AC20160E044E00E94B517882331F04B
:104420002C8121502C83C3010E94C62A3C8130314B
:1044300011F41C8205C04C814F3F11F45FE05C8396
:104440006B81683011F41B8205C07B8177FF02C04D
:1044500087E08B83AC81BB27A7FDB095B987A88780
:10446000D401EC912B81332727FD30953F832E8398
:10447000D1018C9190E08095909528853985AC018B
:10448000249FC001259F900D349F900D1124895DBC
:10449000992787FD90955A81252F332727FD309541
:1044A000820F931F62E070E00E9434316A8384E1DE
:1044B0008E1BF0E0E095F0956E817F816E9F9001FC
:1044C0006F9F300D7E9F300D1124820F992787FD3D
:1044D00090957981272F332727FD3095820F931FE1
:1044E00062E070E00E9434316983C20164E00E949E
:1044F000AB17882399F18D81282F332727FD30951D
:10450000AD89BE892A173B07BCF48E819F8114E0D8
:10451000880F991F1A95E1F7BC818B0F09F44DCFD5
:104520008A3009F44ACF8D3009F447CFEA85FB85FC
:10453000E20FF31F80831182ED81EF5FED83C301F2
:104540000E94BA2AFD818F2F992787FD90952B898C
:104550003C892817390714F43C853D83C20165E086
:104560000E94AB178823A9F04D8141504D83C301B0
:104570000E94C02A5D8157FF02C01D820AC06D8162
:10458000E62FFF27E7FDF0958A859B85E80FF91F49
:104590001082C20166E00E94AB17882309F442C072
:1045A000C3010E94BA2AC5010E94C0208823D9F302
:1045B000C60162E378E00E94D12DC6016A857B8541
:1045C0000E94442FC60161E278E00E94D12DC20111
:1045D00064E00E94AB178823E1F0C3010E94BA2A6D
:1045E00068960FB6F894DEBF0FBECDBFCF91DF91B6
:1045F0001F910F91FF90EF90DF90CF90BF90AF9001
:104600009F908F907F906F905F904F903F902F90F2
:104610000895C20165E00E94AB17882321F2C3010F
:104620000E94C02AEE24FF2410E033C0D1018C91F7
:1046300090E00196EF89F88D9C01E29FC001E39F15
:10464000900DF29F900D11246A81680FD4018C9116
:1046500090E00196FC01EE9EC001EF9E900DFE9E43
:10466000900D11244981480F2F89210FC60101E0C7
:104670000E94F71B2F89388D2F5F3F4F388F2F8B6C
:104680002031310599F60894E11CF11C105F1038B7
:1046900019F0188E1F8ACACFD1018C91BAEF8B9F67
:1046A000802D11248250EA818E0FAD85BE858C93BA
:1046B000F40180818F5FF9818F0FAF85B8898C936A
:1046C000C6016BE178E00E94862DF1018081FAEF4E
:1046D0008F9F802D112482502A81820FAD85BE8547
:1046E0008C93F401808190E00196880F991FF981E5
:1046F0008F0FAF85B8898C93C60165E178E00E9481
:10470000862DF1018081FAEF8F9F802D1124825038
:104710002A81820FAD85BE858C93F401208130E023
:104720002F5F3F4FC901880F991F820F931FF98197
:104730008F0FAF85B8898C93C6016FE078E00E9437
:10474000862DC60160E00E94FB17F101808190E098
:10475000019628853985289FB001299F700D389FC3
:10476000700D112461503A81630FD4018C9190E057
:104770000196EE81FF81E89FA001E99F500DF89F0F
:10478000500D11244250F9814F0FC60127E00E94BD
:10479000B918C60161E00E94FB17D1012C91822F4C
:1047A00090E0F4010081019648855985489F700189
:1047B000499FF00C589FF00C11245EEFE50E6A81C2
:1047C000E60E402F50E04F5F5F4FAE81BF81A49F48
:1047D000F001A59FF00DB49FF00D1124E350B981B5
:1047E000EB0F2E5F029762E070E00E943431280FD9
:1047F0000B5FC6016E2D4E2FF3E0EF2E0E94281A9C
:10480000F40180814EE2481BC60160E024E50E946D
:10481000B918C60160E00E94FB17D4010C914FE269
:10482000401B0F5FC60160E024E50E94CD18ED85B6
:10483000FE851082D4018C91B0E3B81BEF85F88916
:10484000B083C60161E00E94FB17C6016A857B85C3
:104850000E94442FE989FA8980819181A281B381E4
:1048600087709070A070B0700497A105B10508F032
:10487000A4CDFD812F2F332727FD30954D895E89EB
:10488000241735070CF099CDD1018C9190E0289F29
:10489000B001299F700D389F700D1124F4018081A3
:1048A00040E3481BC6012FE501E00E94F71B85CDC0
:1048B0002F923F924F925F926F927F928F929F9230
:1048C000AF92BF92CF92DF92EF92FF920F931F931E
:1048D000DF93CF93CDB7DEB762970FB6F894DEBF04
:1048E0000FBECDBF6C016C837D834B8322E530E02E
:1048F000C20ED31EF60110822EEA3FEFC20ED31E67
:104900001AE0A12EB12CAC0CBD1CB5E22B2E312C23
:104910002C0C3D1CACE44A2E512C4C0C5D1C10E0C0
:10492000F0E37F2E66241A823FEF3983A6014B5AAB
:104930005F4F5F834E83C6018A5A9F4F998788874E
:10494000F601EC5AFF4FFB87EA8796012D5A3F4F3D
:104950003D872C87E1E58E2E912C8C0C9D1C5B8174
:10496000452F50E05F874E878B818150888BC60131
:104970000E94C0208823D9F3C50164E00E94AB17D0
:10498000882369F4C50165E00E94AB17882339F4D8
:10499000C50166E00E94AB17882309F4D3C0F40177
:1049A0000081C50164E00E94AB17882329F0C10192
:1049B0000E94BA2A1983CBC0C1010E94C02AC7C075
:1049C000C50163E044E00E94B517882321F01F5F12
:1049D000C1010E94C62AC50161E044E00E94B517EA
:1049E000882321F01150C1010E94C62A812F9927E6
:1049F00087FD90952E853F858217930711F410E06F
:104A000002C017FD1889F4018081819F902D112427
:104A10008C5F682E691A28C0872D992787FD90958D
:104A2000262D332727FD3095821B930B0297D4F454
:104A3000898162960FB6F894DEBF0FBECDBFCF91CD
:104A4000DF911F910F91FF90EF90DF90CF90BF907B
:104A5000AF909F908F907F906F905F904F903F901E
:104A60002F900895F1E0FA83862D992787FD909580
:104A7000272D332727FD3095820F931F62E070E0CA
:104A80000E943431762EEE81FF811082E885F9850F
:104A9000608321E0EA85FB852083EC85FD8510821B
:104AA0002C813D81C9019A8B898B00E0E12EFF2486
:104AB000E7FCF09420C0802F90E08E159F0569F4EC
:104AC00023E0EE81FF812083F40180818E9D802D83
:104AD0001124870DE885F9858083E989FA89659134
:104AE0007491C2010E94D12D0F5F29893A892E5FEE
:104AF0003F4F3A8B298B3B810317E8F2C20160E0FC
:104B00000E94FB17F40140814E9D402D112441501D
:104B1000470DC20160E024E50E94B918C20161E0BE
:104B20000E94FB17F40100810E9D402D112442507C
:104B3000470D0D5FC20160E024E573E0E72E0E949F
:104B4000281A15CFFA81FF2309F066CF39CF802FBD
:104B500090E0909581959F4F2E853F85AC01249FD5
:104B6000C001259F900D349F900D11246EEF662E8D
:104B7000680E52CF2F923F924F925F926F927F9228
:104B80008F929F92AF92BF92CF92DF92EF92FF925D
:104B90000F931F93DF93CF93CDB7DEB72B970FB64D
:104BA000F894DEBF0FBECDBF9B878A877A83698367
:104BB0005C834B838C0103591F4FF801808188234C
:104BC00009F41DC18A859B858D5A9F4FFC01108277
:104BD0001292E255F040FB87EA87108E9CE4E92EA2
:104BE000F12CEE0EFF1EC70161E00E94FB178AE068
:104BF000282E312C8A859B85280E391EB5E26B2E16
:104C0000712C680E791EE981FA81F491FD83A5E586
:104C10008A2E912C880E991EF6E5CF2ED12CC80E27
:104C2000D91EE0E54E2E512C480E591E8F5A9F4F2B
:104C30009F838E837EE6A72EB12C8A859B85A80E46
:104C4000B91E198708878A859B850E94C020882302
:104C5000D1F39D81992311F410E003C0EE81FF810F
:104C60001081C70160E040E02FE338E00E94C11AE4
:104C70008B819C81892B41F0145FC70160E0412F3B
:104C80002B813C810E94C11AF40110828CE0F60154
:104C90008083C70169817A810E94862DF20120817B
:104CA00030E0C901880F991F820F931F909581955D
:104CB0009F4F8D5AF4018083EE81FF81208130E087
:104CC000C901880F991F820F931F909581959F4F5F
:104CD000835DF6018083F501808184FF04C0C701F4
:104CE0006FEB78E003C0C7016BEB78E00E94D12D39
:104CF000F201208130E0C901880F991F820F931FB4
:104D0000909581959F4F8D5AF4018083F6018081A3
:104D10008F5F8083EA85FB8580A5882321F0C7010A
:104D200067EB78E003C0C70163EB78E00E94D12D08
:104D3000F201808190E09C01220F331F280F391F60
:104D4000309521953F4F2D5AF4012083F601808143
:104D50008F5F8083C7016FEA78E00E94D12DC10187
:104D600065E00E94AB17882351F0EA85FB8560A5BA
:104D70006F5FC3010E94CC2AC3010E94C62AC101F1
:104D800064E00E94AB17882399F4E885F985608177
:104D9000262F30E040E050E0F50180819181A28132
:104DA000B38182179307A407B50708F16F3FF9F0A5
:104DB0008A859B8583599F4F9B878A878FEFEA85DA
:104DC000FB858083ED56F040FB87EA87C30160E0F6
:104DD0000E94F227C3010E94BA2A81E0EA85FB857E
:104DE000808F0DC08A859B850E94711F2CCFC101C9
:104DF00066E00E94AB17882309F425CFF3CF2B96EA
:104E00000FB6F894DEBF0FBECDBFCF91DF911F91DB
:104E10000F91FF90EF90DF90CF90BF90AF909F9059
:104E20008F907F906F905F904F903F902F9008955C
:104E3000AB0164EC78E00E94BA250895AF92BF926E
:104E4000CF92DF92EF920F93CF93DF936C018CE7B9
:104E500090E0C80ED91E82E3F601808381E090E0E5
:104E6000A0E0B0E0B293A293929382936F0185EF9A
:104E70009FEFC80ED91E8FEFF601808383E99FEF65
:104E8000C80ED91EC6010E944E1EC6010E94E4161D
:104E9000C6016FEF0E94E8164AE0A42EB12CAC0CBC
:104EA000BD1CC5010E949B17C5010E94D317C601F6
:104EB00048960E945517C601845B9F4F6DE04BE0FA
:104EC00020E10FE03EE0E32E0E94811DE601A59661
:104ED000CE010E94DC2AC50165E00E94AB17882341
:104EE00029F0CE0160E00E94CC2A06C0CE0165EC1C
:104EF00078E040E00E940528DF91CF910F91EF907C
:104F0000DF90CF90BF90AF9008950F93CF93DF9332
:104F1000EC01623009F440C0633030F4662359F08C
:104F2000613009F04AC00BC0633009F43BC0643003
:104F300009F043C03DC0C00FD11D4C8B3EC0602F57
:104F400070E0DB01AA0FBB1FA80FB91F842F90E0F0
:104F5000880F991F1D962D913C911E97280F391F80
:104F6000F901859194915E969C938E935D97FC01D7
:104F700045915491A42FFE01E60FF71F478F252F6F
:104F80003327842F90E02817390708F4A52F6C0FDA
:104F90007D1FFB01A0A311C0FC01E00FF11D478B99
:104FA000208F0BC0FC01E00FF11D418F228F05C047
:104FB000FC01E00FF11D438F248FDF91CF910F9102
:104FC0000895FC01662369F4158A138A12A211A2BE
:104FD000168A10925F0510925E0510925C05109281
:104FE000B4000895FF920F931F938C01F62E0E9438
:104FF000E1270F0D111DF80111821F910F91FF90F4
:10500000089560E00E94F2270895DF92EF92FF92E8
:105010000F931F938C017B01D42E642F0E94F227E3
:105020004D2D50E0FA01EE0FFF1FE00FF11FF48647
:10503000E386FA013896EE0FFF1FE00FF11F118291
:105040001082040F151F81E0F801818389E0848BB1
:10505000178A118E138E1F910F91FF90EF90DF90A2
:105060000895CF93DF939C01462FA62FB0E0EC016B
:10507000CA0FDB1F8881882371F18981882359F544
:10508000FD01EE0FFF1FE20FF31F8F8190E0880FED
:10509000991F0580F681E02DE80FF91F8591949105
:1050A0005FEF8F3F950711F4188215C09A87149609
:1050B000AA0FBB1FA20FB31F90E0880F991FED919D
:1050C000FC91E80FF91F65917491C9010E940528B0
:1050D0008F818F5F8F83DF91CF91089560E00E9471
:1050E000312808955F926F927F928F929F92AF9234
:1050F000BF92CF92DF92EF92FF920F931F93CF93C5
:10510000DF937C01562EC62EDD24BC016C0D7D1D67
:10511000DB0111968C911197882309F4A7C053964F
:105120008C91882309F0A2C08601000F111F0E0D7B
:105130001F1DE6012896CC0FDD1FCE0DDF1DE88177
:10514000F981EE0FFF1FD8011B964D915C911C97C2
:10515000E40FF51F259134912115310509F049C05F
:10516000FB018785813031F419821882FA0125917B
:1051700034913FC0DB0111961C9211978C918823CA
:1051800091F0C701652D0E94312888819981880F8F
:10519000991FD8011B96ED91FC911C97E80FF91F00
:1051A0002591349126C0C701652D0E94E1275EC07C
:1051B00086E0369527958A95E1F76F70422F4F71FB
:1051C00005E0369527950A95E1F72051C701052D91
:1051D0000E94852788819981019699838883880F09
:1051E000991FD501ED91FC91E80FF91F259134919C
:1051F00014C04601880C991CA8E06A2E712C6C0C16
:105200007D1CE301CC0FDD1FCE0DDF1D5701A80C67
:10521000B91CEBE0F0E0AE0EBF1EB90176956795C4
:105220007695679520FDC4CFF701EC0DFD1D862F07
:105230008F73828B338B13A28E0C9F1CD40192969A
:105240001C921E92919781E0858B2CE535E0C20E71
:10525000D31ED6018C93168AF301EE0FFF1FEE0DBD
:10526000FF1D80819181019691838083DF91CF9191
:105270001F910F91FF90EF90DF90CF90BF90AF9074
:105280009F908F907F906F905F90089560E00E9454
:1052900072280895DF92EF92FF920F931F93CF939E
:1052A000DF937C01062F10E0DC01A00FB11F5596A3
:1052B0008C915597882309F4F8C053968C91539795
:1052C000882321F4C7010E94E127EFC08150539643
:1052D0008C93539793968C919397882309F04BC0A6
:1052E000E801CC0FDD1FCE0DDF1D89A19AA101962B
:1052F000880F991FED8DFE8DE80FF91F8591949110
:10530000282F277094962C939497AC01F3E0569530
:105310004795FA95E1F79A0136952795892F9927B0
:105320008695869595968C9395972F73F701828134
:10533000289F202D112493962C939397F801E05ADF
:10534000FA4F4170408389A19AA101969AA389A33B
:105350005F962C915F9730E08217930760F09096EC
:105360008C91882329F0281B31093AA329A303C073
:10537000C7010E94E127F701E00FF11F83A18150CF
:1053800083A336893F5F368B428925A1240F82850E
:10539000280F618D662311F4D22E0CC0832F99271C
:1053A00087FD909570E00E943431828D869FD02CCD
:1053B0001124D20EF701E00FF11F248967896623BB
:1053C00071F0772767FD7095832F992787FD90955A
:1053D0000E943431808D869F802D1124280FF70183
:1053E000E00FF11F638D662389F0832F992787FDD6
:1053F000909570E00E943431CB0162E070E00E9431
:105400003431948D899F802D1124280F4F3331F032
:10541000822F2A300CF089E0482F87FD40E0F89475
:105420008D2D992787FD9095849664E270E00E9407
:105430003431E82FFF27E7FDF095E751F74FE4916E
:10544000D801A35ABA4FEC93F701E00FF11F26A140
:1054500030E084A1992787FD9095B901689F90015C
:10546000699F300D789F300D1124F701838190E002
:10547000B901689F9001699F300D789F300D11240C
:10548000842F992787FD9095FC012E9FC0012F9FA7
:10549000900D3E9F900D1124F801E25AFA4F80833F
:1054A000015A1A4FF80180837894DF91CF911F91B0
:1054B0000F91FF90EF90DF90089560E00E944A29DD
:1054C000089560915E05662381F180915B058F5F91
:1054D00080935B0590915D05891738F130E08091EC
:1054E0005C05882309F431E030935C0510925B057C
:1054F000809160058823A9F080911E0123E4829F9A
:10550000C0011124895B80931E0190E070E00E942D
:10551000203180935F0505C080915F058093B400C2
:1055200008953323C9F780E0F9CF08951F920F92B1
:105530000FB60F9211242F933F934F935F936F9366
:105540007F938F939F93AF93BF93EF93FF930E94AB
:10555000612AFF91EF91BF91AF919F918F917F91C0
:105560006F915F914F913F912F910F900FBE0F90D0
:105570001F90189561EE78E040E00E94052808959C
:1055800069ED78E040E00E940528089563ED78E039
:1055900040E00E9405280895FC01862F648170E098
:1055A0006F5F7F4F992787FD90950E9434318383E9
:1055B0000895FC01838108950F93FC0181E08283AB
:1055C00084E086A38DE099E096878587CF0161E02E
:1055D00040E020E000E00E94852783E061E070E089
:1055E0000E941E2CE1EBF0E08081887F8160808347
:1055F000F89410928000E1E8F0E0108210928500AB
:105600001092840088E191E0909389008093880053
:10561000808188608083808181608083EFE6F0E014
:1056200080818260808378940F910895CB01642FEC
:105630000E94FA310895CB010E94F23108951F9221
:105640000F920FB60F9211242F933F938F939F9336
:10565000AF93BF938091660590916705A09168050F
:10566000B091690530916A050196A11DB11D232FE6
:105670002D5F2D3720F02D570196A11DB11D2093D0
:105680006A058093660590936705A0936805B093BB
:1056900069058091620590916305A0916405B091C0
:1056A00065050196A11DB11D809362059093630568
:1056B000A0936405B0936505BF91AF919F918F91C1
:1056C0003F912F910F900FBE0F901F9018958FB79D
:1056D000F8942091660530916705409168055091D6
:1056E00069058FBFB901CA0108959FB7F894209149
:1056F000620530916305409164055091650586B55A
:10570000A89B06C08F3F21F02F5F3F4F4F4F5F4F49
:105710009FBF542F432F322F2227280F311D411DA9
:10572000511D82E0220F331F441F551F8A95D1F768
:10573000B901CA010895EF92FF920F931F93CF937F
:10574000DF937B018C010E94752BEB010EC00E9440
:10575000752B6C1B7D0B685E7340C8F30894E108E1
:10576000F10801091109C851DC4FE114F1040105E8
:10577000110569F7DF91CF911F910F91FF90EF9085
:105780000895789484B5826084BD84B5816084BDB9
:1057900085B5826085BD85B5816085BDEEE6F0E0AA
:1057A000808181608083E1E8F0E010828081826006
:1057B0008083808181608083E0E8F0E08081816087
:1057C0008083E1EBF0E0808184608083E0EBF0E0B7
:1057D000808181608083EAE7F0E08081846080835B
:1057E0008081826080838081816080838081806805
:1057F00080831092C1000895982F8E3008F09E503B
:10580000977080911F018295880F880F807C892B6B
:1058100080937C0080917A00806480937A008091EC
:105820007A0086FDFCCF2091780040917900942F7A
:1058300080E030E0282B392BC90108951F93CF93C6
:10584000DF93182FEB0161E00E947E2C209709F472
:105850004AC0CF3FD10509F449C0E12FF0E0E15A39
:10586000F64F84918330C1F0843028F4813051F0B8
:105870008230B1F50CC0863019F1873049F184309F
:1058800079F514C084B5806884BDC7BD33C084B5C4
:10589000806284BDC8BD2EC08091800080688093E6
:1058A0008000D0938900C093880024C0809180003C
:1058B000806280938000D0938B00C0938A001AC0CE
:1058C0008091B00080688093B000C093B30012C094
:1058D0008091B00080628093B000C093B4000AC091
:1058E000C038D1051CF4812F60E002C0812F61E037
:1058F0000E94EA2CDF91CF911F910895CF93DF93FF
:10590000482F50E0CA01855B964FFC013491495CF9
:10591000564FFA018491882369F190E0880F991F0E
:10592000FC01E75EF64FA591B491FC01ED5DF64FE9
:10593000C591D491662351F42FB7F8948C91932F8D
:10594000909589238C93888189230BC0623061F400
:105950002FB7F8948C91932F909589238C938881FD
:10596000832B88832FBF06C09FB7F8948C91832B1D
:105970008C939FBFDF91CF910895833071F0843075
:1059800028F48130A1F0823021F514C08630B1F0C6
:105990008730D1F08430E9F404C0809180008F77A3
:1059A00003C0809180008F7D80938000089584B52E
:1059B0008F7702C084B58F7D84BD08958091B0003B
:1059C0008F778093B00008958091B0008F7D809391
:1059D000B0000895FF920F931F93F62E482F50E0CA
:1059E000CA01815A964FFC012491CA01855B964FEA
:1059F000FC011491495C564FFA0104910023C9F04F
:105A0000222319F0822F0E94BD2CE02FF0E0EE0F30
:105A1000FF1FED5DF64FA591B4919FB7F894FF205D
:105A200021F48C911095812302C08C91812B8C9351
:105A30009FBF1F910F91FF9008950F931F93482FC1
:105A400050E0CA01815A964FFC012491CA01855B3E
:105A5000964FFC010491495C564FFA0114911123B1
:105A600019F420E030E015C0222319F0822F0E94A3
:105A7000BD2C812F90E0880F991F835D964FFC010C
:105A8000A591B4918C9120E030E0802311F021E0C9
:105A900030E0C9011F910F910895CF93DF930E94C9
:105AA000C12B0E949216C0E0D0E00E948916209778
:105AB000E1F30E940000F9CFCF92DF92EF92FF92C4
:105AC0000F931F93CF93DF937C016B018A01C0E09A
:105AD000D0E00FC0D6016D916D01D701ED91FC9121
