:100000000C94FB010C9423020C9423020C94230205
:100010000C9423020C9423020C9423020C942302CC
:100020000C9423020C9423020C9423020C94F80EDB
:100030000C9423020C9423020C9423020C942302AC
:100040000C94650F0C9423020C9423020C9423024D
:100050000C9423020C9423020C9423020C9423028C
:100060000C9423020C94230248656C6C6F20576F2C
:10007000726C6421004C6574277320676F21004DFA
:10008000792066697273742067616D65003F213F56
:100090000A100A1208120E1C0E0C1E0C141A14164A
:1000A0001F161E131E1E1B1E1E1F1E3F213F3A2F12
:1000B0003A173D173F213F181F02040A041F0E0480
:1000C000040E1F0A1F0A0E0E1F04110E2E252E2FBE
:1000D0002A2E262929021F02081F08150E04040EC5
:1000E000150E15151B151B040604040C0400000056
:1000F0000017000300031F0A1F16371A1904130AFA
:10010000153A000300000E11110E000A040A040E35
:10011000040030000404040010001804030E110E43
:10012000121F1012191611150B07041F1715090EAF
:1001300015091905031A150B12150E000A000032D5
:1001400000040A110A0A0A110A040115020E111705
:100150001E051E1F150A0E110A1F110E1F15111F55
:1001600005010E111D1F041F111F1108100F1F0480
:100170001B1F10101F061F1E040F0E110E1F090655
:100180000E112E1F051A121509011F011F101F0F36
:10019000180F1F0C1F1B041B031C03191513001F32
:1001A00011030418111F0002010220202000010287
:1001B0000C121E1F120C0C12120C121F0C1A14041B
:1001C0001E05242A1E1F021C141D1020201D1F089E
:1001D00014111F101E041E1E021C0C120C3E0A04D9
:1001E0000C123E1E040214160A020F120E101E0EEE
:1001F000100E1E081E120C1226281E322A26041E5D
:1002000021001F00211E040102013F213F0A4E6F01
:100210002053442063617264206F720A6E6F204C19
:100220004F414445522E4845580A0A153A457869C7
:1002300074004C6F6164696E672E2E2E0A446F2025
:100240004E4F54207475726E206F666621004E4FBB
:1002500020424154544552590A0A504C4541534595
:100260000A5455524E204F4646001773617665007A
:10027000166261636B001574797065000A0A0A15CD
:100280003A6F6B617920163A6564697400596F752D
:1002900020656E74657265640A00540A03E1818604
:1002A0007F3E186D830F0F0E0183866033186DC378
:1002B000198F1803C38E6033186DE330CF1803C352
:1002C0009E603630CDE360CF3006C79E7E3E30CD97
:1002D000B360CF300CC6F6603330D9B660CF33CFC1
:1002E000CCF66061B0DB1E60CF30D86CE6C061B088
:1002F000DB1E618F19986CC6C063B19B0E330F0F64
:10030000B078C6FF7E1F1B061E0F101C3C00420E5D
:10031000911B99159D119915911F420E3C000000EB
:100320000000000E0017001100150011001F000E44
:10033000000000007800840EFFDFC051C05780919C
:10034000809FFF8E0000050089300802380249783E
:100350006814000092039603450068010000050040
:100360006801380100000500380168010000F6E866
:10037000DBCFC3B8AEA49B928A827B746E68625C4A
:1003800057524E4945413E3A3734312E2C292725C4
:1003900023210101F7030101FF03000000002400F5
:1003A00027002A0000000000250028002B00000084
:1003B00000002300260029000404040404040404AB
:1003C0000202020202020303030303030102040800
:1003D00010204080010204081020010204081020AF
:1003E00000000007000201000003040600000000F6
:1003F00000000000250211241FBECFEFD8E0DEBFB1
:10040000CDBF11E0A0E0B1E0EEE0FAE202C005905D
:100410000D92A231B107D9F713E0A2E1B1E001C01A
:100420001D92A239B107E1F713E0C6EFD3E004C093
:100430002297FE010E940115C43FD107C9F70E940F
:1004400093110C9405150C94000010925A0110920F
:1004500059018DE091E090935801809357010895E0
:1004600082E191E00E949D0A882381F087E591E076
:1004700068E670E00E941712609175017091760134
:1004800087E591E04AE050E00E94EB1208950F9357
:100490001F9302E111E0C8010E94520CC8016FE7EE
:1004A00070E00E944D0CC80165E770E044E60E94D0
:1004B00001091F910F910895882319F48CB580626A
:1004C00002C08CB58F7D8CBD08959CB5937F982B11
:1004D0009CBD08952CB5382F33702C7F322B3CBD3A
:1004E0002DB590E0959587959595879581702E7F90
:1004F000822B8DBD08958AE061E00E9430118AE070
:1005000061E00E94C4108CB580618CBD8CB58064A4
:100510008CBD8DE061E00E94C4108BE061E00E9420
:10052000C4100895FC0181E08083089585E070E0A7
:100530000E94641008956F927F928F929F92AF9263
:10054000BF92CF92DF92EF92FF920F931F93CF93C0
:10055000DF93EC0189819A818C0124E0000F111F47
:100560002A95E1F7081B190B85E10E944210BC0196
:10057000600F711F84E0769567958A95E1F77A831D
:1005800069838881882381F12E813F8162177307F7
:1005900010F4B90106C0888599858617970708F475
:1005A000BC0100D000D080E090E040E050E0E88462
:1005B000F98400E010E0AD80BB24CC24DD246C8005
:1005C000772488249924EDB7FEB7618272828382F2
:1005D00094820E940A136B830F900F900F900F90DC
:1005E00085E070E00E946410DF91CF911F910F9120
:1005F000FF90EF90DF90CF90BF90AF909F908F9043
:100600007F906F900895FC018CE39FE09383828339
:1006100084E0818381E084870895CF93DF93EC01A8
:100620008C8590E08F719070892B69F584E10E9430
:100630004210AA2797FDA095BA2FBC01CD010E94B8
:10064000811326EE3FE34EEC50E40E940D140E940D
:1006500053139B01AC017B836A836115710589F09B
:1006600084E08983B901FE0120E0848195816817C7
:10067000790710F429830AC02F5F32962430A9F736
:1006800002C08FEF89838C858F5F8C87DF91CF913C
:100690000895FC0188E0808389E0818387E082837C
:1006A00086E0838384E0848382E0858381E186839E
:1006B000089520E0FC01E60FF11D8781813009F4E7
:1006C00021E0822F08950F931F93CF93DF93EC01C6
:1006D00010E00FEF888162E00E94C41088810E94C0
:1006E00063112F81892B19F42F5F2F8307C02223D9
:1006F00049F02F3F11F41F8201C00F83888160E011
:100700000E94C4101F5F2196173021F7DF91CF910F
:100710001F910F910895FC01618F628F0895FC0174
:10072000618F428F0895FC016435A8F547FD33C001
:1007300040338CF5818D942F9595959595957727D8
:1007400067FD70954770882399F0E4E59E02F001FB
:100750001124E60FF71FE557FE4F81E090E002C03D
:10076000880F991F4A95E2F72081282B208308954E
:10077000E4E59E02F0011124E60FF71FE557FE4F56
:1007800081E090E002C0880F991F4A95E2F78095BA
:100790002081282320830895AF92BF92CF92DF92C9
:1007A000EF92FF920F931F93CF93DF93EC01162FDD
:1007B000F42EE22EAA24402F552747FD50958F2D69
:1007C000992787FD9095481B590B57FF03C05095FB
:1007D00041955F4F2E2D332727FD3095812F992787
:1007E00087FD9095281B390B37FF03C03095219565
:1007F0003F4F2417350744F4AA24A3948F2DF12EDC
:10080000182F802F0E2DE82EE11634F48E2DE12EB8
:10081000182F802F0F2DF82EDE2CD11A202F3327E2
:1008200027FD30958F2D992787FD9095281B390B33
:1008300037FF03C0309521953F4FB22EF0161CF0C4
:10084000CC24CA9402C0CC24C3948D2DD7FC8F5FD6
:10085000082F059511C0AA2021F0CE016F2D412F40
:1008600003C0CE01612F4F2D0E9493030B1907FF88
:1008700002C0FC0C0D0D1F5FE1166CF7DF91CF91EC
:100880001F910F91FF90EF90DF90CF90BF90AF90AE
:1008900008950F93042F322F262F2150230F0E94EB
:1008A000CC030F9108950F93362F042F0150020FA0
:1008B000232F0E94CC030F9108959F92AF92BF9275
:1008C000CF92DF92EF92FF920F931F93CF93DF931C
:1008D0006C01B62E942EA02EC0E0D0E0E62EFF24B0
:1008E000E7FCF094022F112707FD10950E0D1F1D38
:1008F00006C0C601492D2A2D0E94530421966B2D56
:100900006C0FCE018E0D9F1D8017910794F3DF9120
:10091000CF911F910F91FF90EF90DF90CF90BF90FC
:10092000AF909F9008952F923F925F926F927F9227
:100930008F929F92AF92BF92CF92DF92EF92FF92EF
:100940000F931F93DF93CF9300D000D000D0CDB78B
:10095000DEB79E838D83C62ED42EEE24E394E21A56
:100960008EEF289F502C1124842E8A94962E9A94D0
:10097000A42EA394B62EB394F22E662423E0722EF6
:1009800010E0C801847090709A838983F801E27046
:10099000F070FC83EB8398E0292E312C2022312249
:1009A0000170107054C0E7FC04C0FA94F2E05F0ECE
:1009B000E50C639489819A81892B71F04F2D4D0D3F
:1009C0008D819E816B2D0E9493036F2D6C0D8D8107
:1009D0009E814A2D0E949303EB81FC81EF2B71F0E5
:1009E0004D2D4F198D819E816B2D0E9493036F2D8C
:1009F0006C0D8D819E81482D0E949303211431043A
:100A000071F06C2D6F198D819E814A2D0E94930388
:100A10004F2D4D0D8D819E81692D0E9493030115EF
:100A2000110571F06C2D6F198D819E81482D0E94EA
:100A300093034D2D4F198D819E81692D0E94930343
:100A4000E70CF2E07F0E8A949A94A394B3946F1407
:100A50000CF4A9CF26960FB6F894DEBF0FBECDBF1B
:100A6000CF91DF911F910F91FF90EF90DF90CF908A
:100A7000BF90AF909F908F907F906F905F903F90CE
:100A80002F9008954F925F926F927F928F929F92D4
:100A9000AF92BF92CF92DF92EF92FF920F931F938C
:100AA000CF93DF93EC01A62E742E9E2DFF24F3949A
:100AB000F21A8EEF289F802C1124B42EBA9453E0A2
:100AC000C52ECE0CE22EDD2443E0942E10E031E062
:100AD000432E512C40225122692E639402701070D3
:100AE00034C0F7FC04C0EA9482E0880EF80CD3947A
:100AF0004114510489F06D2D6A0D472D4E192E2D8C
:100B0000220F260DCE010E9453046E2D6A0DCE01D8
:100B10004B2D2C2D0E9453040115110589F06A2DCF
:100B20006D19472D4E192E2D220F260DCE010E9434
:100B300053046A2D6E19CE014B2D2C2D0E945304A7
:100B4000F90C82E0980EBA94C80EDE1454F2DF91CC
:100B5000CF911F910F91FF90EF90DF90CF90BF90BA
:100B6000AF909F908F907F906F905F904F9008957F
:100B70007F928F929F92AF92BF92CF92DF92EF922D
:100B8000FF920F931F936C01962EA42EF22E7E2CB3
:100B9000760E1EEFE19E102D1124812E820E672D00
:100BA000282D0E944904B02EBA0CBA94C601672DB4
:100BB0004B2D282D0E944904AE0C100FC601692D43
:100BC0004A2D212F0E945304F90CFA94C6016F2D6F
:100BD0004A2D212F0E945304C601672D4A2D2E2D28
:100BE00001E00E949304FE18C6016F2D4A2D2E2DA0
:100BF00002E00E949304BE18C6016F2D4B2D2E2DCE
:100C000004E00E949304C601672D4B2D2E2D08E0B1
:100C10000E9493041F910F91FF90EF90DF90CF906F
:100C2000BF90AF909F908F907F9008958F929F92EA
:100C3000AF92BF92CF92DF92EF92FF920F931F93EA
:100C40006C01162FA42E922EF02EBE2C8E2C860E0A
:100C50002EEFE29EE02C11242E2D290D682D0E94EE
:100C60005D04AB0CFA94FE0C1150190D1B19C60152
:100C7000612F4A2D2B2D01E0EF2C0E944205C60169
:100C8000682D4A2D2B2D02E00E9442051F910F91E5
:100C9000FF90EF90DF90CF90BF90AF909F908F909C
:100CA00008953F924F925F926F927F928F929F92A0
:100CB000AF92BF92CF92DF92EF92FF920F931F936A
:100CC000CF93DF934C01362E442EE901F901A49015
:100CD0002196FE01549021978A2D992787FD9095A2
:100CE000079668E070E00E94AF14C62EDD24C7FCB2
:100CF000D09400E072E0E72EF12C60E8662E712CB3
:100D000026C0E12FE595E595E595FF27E7FDF095F0
:100D1000EE0DFF1DEC0FFD1FE4912E2F30E0812F13
:100D20008770A30102C0559547958A95E2F7242361
:100D30003523232B31F0612F630DC4014B2D0E940D
:100D400093031F5F1A15ECF20F5FEC0CFD1C0515E9
:100D500024F410E0B02EB40CF5CFDF91CF911F91A9
:100D60000F91FF90EF90DF90CF90BF90AF909F904A
:100D70008F907F906F905F904F903F9008952F924B
:100D80003F924F925F926F927F928F929F92AF921B
:100D9000BF92CF92DF92EF92FF920F931F93DF9358
:100DA000CF9300D00F92CDB7DEB79B838A83562EA8
:100DB000742E422F102FFC01F18DF98383E58617E5
:100DC0000CF489C0EFE2E7150CF485C0C02EDD24D9
:100DD0009601220F331F2C0D3D1D862F992787FD6D
:100DE0009095820F931F181619060CF074C0C90154
:100DF000880F991F272D332727FD3095820F931FCA
:100E0000181619060CF067C083E0489F10011124E2
:100E1000AA24B4E06B2EF3E0AF1611F480E009C011
:100E2000EA2DFF27E7FDF095E20DF31DE357FF4F95
:100E30008491AC9C902C1124950CBB24A6E08A2EA6
:100E40004A2C450CE82EFF2480FF16C0113041F4D7
:100E50004B2D470D8A819B81642D0E9493032CC0EA
:100E6000BC9C402D1124470D8A819B81692D212F27
:100E7000012F0E945D0420C0EA81FB81928D818D4B
:100E80009817D1F0918F113041F44B2D470D8A8185
:100E90009B81642D0E9493030BC0BC9C402D1124A8
:100EA000470D8A819B81692D212F012F0E945D04AE
:100EB0008981EA81FB81818FB3948A9421F0F59432
:100EC000E7948E2DBFCFA3946A9409F0A4CF8981B3
:100ED000EA81FB81818F0F900F900F90CF91DF916E
:100EE0001F910F91FF90EF90DF90CF90BF90AF9048
:100EF0009F908F907F906F905F904F903F902F903A
:100F000008950F93CF93DF93EC01262F6A3031F4CD
:100F10008B8D26E0829FC00111242AC06D3061F1C3
:100F20006F89488D0B8D0E94BF068B8D482F50E036
:100F3000CA01880F991F880F991F2F89280F2F8B9F
:100F40008C8D8823C9F0332727FD309585E190E00B
:100F5000841B950B880F991F880F991F8217930781
:100F60005CF4CA01880F991F840F951F880F991F81
:100F7000288D280F288F1F8A81E090E0DF91CF9184
:100F80000F910895FC01678B408F0895FC01662343
:100F900009F461E0638F08951F93CF93DF93EC0111
:100FA000162FF894888560E00E9430118985181604
:100FB0001CF460E00E9430111EBD0DB407FEFDCF91
:100FC0008EB5898518161CF461E00E943011789462
:100FD000DF91CF911F910895FF920F931F93CF93AD
:100FE000DF93EC01FF2400E010E06F2D6064CE0180
:100FF0000E94CC07CE0160E80E94CC07888561E0A2
:101000000E943011898518161CF460E00E9430118E
:10101000F801E557FE4F90E080818EBD0DB407FECC
:10102000FDCF8EB59F5F31969435B1F7898518163F
:101030001CF461E00E943011F3940C5A1F4F86E0BB
:10104000F81699F6CE0160E40E94CC07DF91CF91AB
:101050001F910F91FF900895CF93DF93DC0188EFEC
:1010600091E0EBE8F1E0EF019C0119922150304052
:10107000E1F757961C92579758961C92DF91CF91A3
:101080000895EF920F93CF93DF93EC014F836E831C
:101090002887EA86098781E08B8F898F1A8E8C8F4B
:1010A0000E947B0281E00E945C0285E00E946A024D
:1010B0008CE00E9465028F8161E00E94C4108E81E5
:1010C00061E00E94C410888561E00E94C4108A8596
:1010D00018161CF461E00E94C410898518161CF4CF
:1010E00061E00E94C4108A8518166CF460E00E94CA
:1010F00030116AE070E080E090E00E94E10F8A85A4
:1011000061E00E943011EE812E2F332727FD3095AC
:10111000F901E854FC4FE491F0E0EE0FFF1FEC55AD
:10112000FC4F859194919E878D8724533C4FF90104
:1011300084918C8BEF812E2F332727FD3095F90179
:10114000E854FC4FE491F0E0EE0FFF1FEC55FC4F2C
:10115000859194919C878B8724533C4FF90184910E
:101160008B8BE9852E2F332727FD3095F901E85425
:10117000FC4FE491F0E0EE0FFF1FEC55FC4F859122
:101180009491988B8F8724533C4FF90184918D8BD8
:10119000E8852E2F332727FD3095F901E854FC4FC1
:1011A000E491F0E0EE0FFF1FEC55FC4F8591949118
:1011B0009A8B898B24533C4FF90184918E8BCE01FD
:1011C00061E20E94CC07CE0164E10E94CC078D81D0
:1011D00087FF02C08FE78D836D816068CE010E941A
:1011E000CC07CE0160E20E94CC07CE016CE00E94E9
:1011F000CC07CE010E94EC07DF91CF910F91EF90C9
:101200000895FC01EA58FF4F61937193445F408356
:101210000895CF93DF93DC01E0E8FFE68591949198
:10122000ED01C65BDF4F9D012E593F4F8150904C21
:1012300009F04EC0E6E9FFE6E491E883E7E9FFE65E
:10124000E4911496EC931497E8E9FFE6E49115967F
:10125000EC931597E9E9FFE68591949117969C9395
:101260008E931697EBE9FFE68591949119969C93DE
:101270008E931897EDE9FFE6E4919796EC93979794
:10128000EEE9FFE6E4919696EC939697EFE9FFE698
:10129000E491E901E883E0EAFFE6859194915D96A7
:1012A0009C938E935C97E2EAFFE6859194915F961A
:1012B0009C938E935E97E4EAFFE6859194919196D4
:1012C0009C938E939097E6EAFFE68591949133C0C4
:1012D00082E3888314961C92149780E815968C9369
:1012E000159780E293E017969C938E93169784ED62
:1012F00093E019969C938E93189781E097968C9320
:10130000979796968C9396978FEFF90180838CEA46
:101310009DE05D969C938E935C978EED9DE05F962D
:101320009C938E935E9784E79EE091969C938E9318
:1013300090978CE39FE093969C938E939297DF9186
:10134000CF910895EF92FF920F931F93CF93DF9366
:101350007C018C010B5B1F4FC8010E942C08C80147
:1013600062E372E00E94CC11C8010E94EC0783E0A6
:101370000E946A0280E091E0EEEFFFE3099589E4C4
:1013800090E0E80EF91EF7011082C8016DE072E0EE
:101390000E941712C8010E94EC07E701EF97CE01E7
:1013A0000E946303CE0164E00E945903882339F44C
:1013B00062E370E080E090E00E94E10FF0CFDF9107
:1013C000CF911F910F91FF90EF9008950F931F936E
:1013D000CF93DF93EC018C010B5B1F4FC80161E0E1
:1013E00040E00E948F03C80161E540E00E94C2070F
:1013F000698D613061F1613028F0888D653008F0C9
:101400003FC039C0CE0185960E94D90CCE0160E064
:101410000E949602C8010E942C08C8016EE472E086
:101420000E94CC11C8010E94EC0783B7817F8460C1
:1014300083BF83B7816083BF83B7816083BF889593
:1014400083B78E7F83BF83B78E7F83BF1FC0CD5985
:10145000DF4F88819981AA81BB818F709070A070C5
:10146000B0700897A105B10518F4C80167E00CC079
:10147000C80168E709C0882349F06B5FC80104C050
:10148000882321F0C8016FE20E94EF11DF91CF9114
:101490001F910F910895CF92DF92EF92FF920F93D9
:1014A0001F93CF93DF93EC01C858DF4F8881C85753
:1014B000D0408823C9F18C3010F010E002C01CE04D
:1014C000181B55E4C52ED12CCC0EDD1EC60161E0E3
:1014D0000E94C607C60160E00E948B0347E2F42E1B
:1014E000F10EC60160E04F2D24E509E033E0E32E64
:1014F0000E941606C60161E00E948B03C60160E0EF
:101500004F2D24E50E94B805175DC60164E0412F08
:101510000E94C207CA58DF4F69917991C6010E94A3
:10152000CC11888181508883DF91CF911F910F91D9
:10153000FF90EF90DF90CF900895AF92BF92CF923F
:10154000DF92EF92FF920F931F93CF93DF93EC0103
:1015500072E7A72EB12CA80EB91EF501E080F1802C
:10156000028113810E94AD0FE61AF70A080B190BCE
:1015700061E7C62ED12CCC0EDD1EF601808190E0F5
:10158000A0E0B0E08E159F05A007B10708F07EC06F
:101590008E0103591F4FF80180819181A281B3818F
:1015A0000097A105B10509F471C00E94AD0FF601C5
:1015B0002081620F711D811D911DF5016083718372
:1015C00082839383FE01ED59FF4F80819181A28137
:1015D000B3810196A11DB11D80839183A283B38342
:1015E000F80110821182128213820E94BB0FC75928
:1015F000DF4F688379838A839B83C956D040CE01AD
:101600000E949B02CE010A960E946303CE01489677
:101610000E940D038E010B5D1F4FC8010E94160D25
:10162000C8010E94F40D81E026C0CE010E944B0A41
:10163000CE010E94E6098E010B5B1F4FC8010E947C
:10164000EC07C75BDF4F8881C954D040882319F469
:10165000C8010E942C080E94BB0FC359DF4F68834A
:1016600079838A839B83249728813981621B730B3A
:101670007A936A9380E0DF91CF911F910F91FF9051
:10168000EF90DF90CF90BF90AF900895C359DF4F98
:1016900088819981AA81BB81CD56D0400097A10550
:1016A000B10541F7C2CF2F923F924F925F926F9256
:1016B0007F928F929F92AF92BF92CF92DF92EF92E2
:1016C000FF920F931F93DF93CF9300D00F92CDB76C
:1016D000DEB79B838A832B013A018C010E591F4F81
:1016E000F8018081882309F4C2C08A819B81875BCD
:1016F0009F4FFC011082E954F040FB83EA83108E77
:1017000045E4E42EF12CEE0EFF1EC70161E00E94BD
:101710008B033AE0832E912C8A819B81880E991E3F
:1017200025E2A22EB12CA80EB91EF201F491F98384
:10173000B3E6CB2ED12CC80ED91E18018A819B810D
:101740000E949D0A8823D1F38981882311F400E047
:1017500001C006E0C70160E040E02AE932E00E94F3
:1017600051066114710439F0045FC70160E0402F35
:1017700093010E945106C70160E04CE00E94C2073D
:10178000C701B2010E94CC11C70164E444E12AE020
:1017900033E00E945106C70160E00E948B03F6010E
:1017A000808182FF07C0C70167E446E123E005E0CE
:1017B0000E945D04C70161E00E948B03C40165E0E3
:1017C0000E945903882351F0EA81FB8166A16F5F73
:1017D000C5010E94280FC5010E94220FC70165E4C0
:1017E00040E223E101E00E94BF06C5010E94350FDF
:1017F000882329F0C70169E440E224E105C0C7015C
:1018000069E440E228E701E00E94BF06C40164E009
:101810000E945903882391F4F1016081262F30E062
:1018200040E050E0F60180819181A281B38182176E
:101830009307A407B50798F06F3F89F0C50160E0F2
:101840000E94CA0CC5010E941C0F81E0EA81FB8145
:10185000808F0DC08A819B810E94A2096FCFC40135
:1018600066E00E945903882309F468CFF3CF0F90F4
:101870000F900F90CF91DF911F910F91FF90EF90FC
:10188000DF90CF90BF90AF909F908F907F906F90A0
:101890005F904F903F902F90089540E050E00E945D
:1018A000530B0895AF92BF92CF92DF92EF920F93B6
:1018B000CF93DF936C0181E790E0C80ED91E82E3DD
:1018C000F601808381E090E0A0E0B0E0B293A293C3
:1018D000929382936F0185EF9FEFC80ED91E8FEF11
:1018E000F60180838EE99FEFC80ED91EC6010E94C3
:1018F0000909C6010E949202C60160E80E94960290
:101900006AE0A62EB12CAC0CBD1CC5010E94490397
:10191000C5010E946303C60148960E940303C601E5
:101920008B5B9F4F6DE04BE020E10FE05EE0E52E2A
:101930000E944108E601A596CE010E94380FC5011C
:1019400065E00E945903882329F0CE0160E00E94DF
:10195000280F06C0CE0166E473E040E00E94100D3F
:10196000DF91CF910F91EF90DF90CF90BF90AF902C
:101970000895FC01662369F416861486138E128E70
:101980001786109287031092860310928403109298
:10199000B4000895FF920F931F938C01F62E0E94BE
:1019A000B90C0F0D111DF80112861F910F91FF90B8
:1019B000089560E00E94CA0C0895BF92CF92DF9212
:1019C000EF92FF920F931F938C017B016A01B22E5D
:1019D000622F0E94CA0C2B2D30E0F901EE0FFF1F81
:1019E000E00FF11FF482E382D682C582F9013496BA
:1019F000EE0FFF1FE00FF11F11821082020F131F65
:101A000081E0F801828789E08587108A128A148A2A
:101A10001F910F91FF90EF90DF90CF90BF900895AE
:101A2000242F44E553E00E94DD0C0895DC011A9652
:101A30008C911A97882309F4D6C01C968C911C9718
:101A4000882309F0D0C01896ED91FC911997EE0FFC
:101A5000FF1F13962D913C911497E20FF31F859170
:101A60009491009711F09C0193C017968C91179751
:101A7000813041F419961C921E921897F901259114
:101A8000349186C01A961C921A97CD0160E00E948C
:101A9000B90C0895C90156E0969587955A95E1F7D6
:101AA0004F704230B1F1433030F4442359F04130AB
:101AB00009F05BC00CC0433009F43AC0443009F06F
:101AC00054C045C08F711D968C931D974EC0880FD2
:101AD000991F15962D913C911697280F391FF901E2
:101AE0008591949157969C938E935697FC014591BE
:101AF0005491642F58964C935897252F3327842F51
:101B000090E02817390708F4652F59966C93599778
:101B10002CC08F7150968C935097232F3327269586
:101B200026952695822F805151968C9351971DC0F2
:101B30008F7152968C935297232F33272695269593
:101B40002695822F805153968C9353970EC08F7198
:101B500054968C935497232F3327269526952695B4
:101B6000822F805155968C93559718968D919C9104
:101B70001997019619969C938E931897880F991F21
:101B80001396ED91FC911497E80FF91F259134916C
:101B9000A901569547955695479520FD7BCF842FF3
:101BA0008F7364E20E948F141B969C931B971C9664
:101BB0003C931C975C961C925C975B961C921E92C1
:101BC0005A9781E01E968C931E97809384031F96EC
:101BD0001C921F9718968D919C91199701961996B2
:101BE0009C938E93189708951F93CF93DF93EC01E6
:101BF0008E85882309F4C3C08C85882329F4CE01FF
:101C000060E00E94B90CBBC081508C878C8D88230A
:101C100009F03BC08A8D9B8D0196880F991FEE8934
:101C2000FF89E80FF91F85919491282F27702D8F38
:101C3000AC01F3E056954795FA95E1F79A01369590
:101C40002795892F9927869586958E8F2F73888162
:101C5000289F202D11242C8F4170409388038A8D5A
:101C60009B8D01969B8F8A8F288D30E0821793077A
:101C700060F0898D882329F0281B31093B8F2A8F3A
:101C800004C0CE0160E00E94B90C8C8D81508C8F15
:101C90003F853F5F3F872E8D8B85280F6A8966239E
:101CA00011F4422F0CC0832F992787FD909570E087
:101CB0000E94AF148B89869F402D1124420F2D85E1
:101CC0006889662371F0772767FD7095832F9927C0
:101CD00087FD90950E94AF148989869F802D1124DD
:101CE000280F6C89662389F0832F992787FD9095AB
:101CF00070E00E94AF14CB0162E070E00E94AF146C
:101D00009D89899F802D1124280F122F2A300CF0D5
:101D100019E0F894842F992787FD9095849664E2C2
:101D200070E00E94AF14E82FFF27E7FDF095E2591D
:101D3000FC4FE491E09385032F8D8981289F9001CA
:101D400011248D8D992787FD9095289FA001299FAB
:101D5000500D389F500D1124812F17FD80E09927D9
:101D600087FD90959C01429FC001439F900D529F1B
:101D7000900D112480938603809387037894DF91DC
:101D8000CF911F91089560918603662381F1809120
:101D900083038F5F8093830390918503891738F1C4
:101DA00030E080918403882309F431E03093840388
:101DB00010928303809188038823A9F08091070102
:101DC00023E4829FC0011124895B8093070190E086
:101DD00070E00E949B148093870305C08091870365
:101DE0008093B40008953323C9F780E0F9CF0895B4
:101DF0001F920F920FB60F9211242F933F934F9380
:101E00005F936F937F938F939F93AF93BF93EF9362
:101E1000FF930E94C30EFF91EF91BF91AF919F91ED
:101E20008F917F916F915F914F913F912F910F9083
:101E30000FBE0F901F90189566E673E040E00E9479
:101E4000100D089568E573E040E00E94100D0895BC
:101E5000FC01862F628170E06F5F7F4F992787FDBD
:101E600090950E94AF1481830895FC0181810895AB
:101E7000FC0181E0808384E0878F83E061E070E093
:101E80000E946410E1EBF0E08081887F81608083B4
:101E9000F89410928000E1E8F0E010821092850042
:101EA0001092840088E191E09093890080938800EB
:101EB000808188608083808181608083EFE6F0E0AC
:101EC000808182608083789408951F920F920FB66C
:101ED0000F9211242F933F938F939F93AF93BF93B0
:101EE00080918D0390918E03A0918F03B091900308
:101EF000309191030196A11DB11D232F2D5F2D3728
:101F000020F02D570196A11DB11D209391038093C0
:101F10008D0390938E03A0938F03B09390038091D1
:101F2000890390918A03A0918B03B0918C03019651
:101F3000A11DB11D8093890390938A03A0938B0305
:101F4000B0938C03BF91AF919F918F913F912F914F
:101F50000F900FBE0F901F9018958FB7F894209197
:101F60008D0330918E0340918F03509190038FBF6A
:101F7000B901CA0108959FB7F8942091890330915F
:101F80008A0340918B0350918C0386B5A89B06C0B1
:101F90008F3F21F02F5F3F4F4F4F5F4F9FBF542F19
:101FA000432F322F2227280F311D411D511D82E062
:101FB000220F331F441F551F8A95D1F7B901CA015B
:101FC0000895EF92FF920F931F93CF93DF937B01BE
:101FD0008C010E94BB0FEB010EC00E94BB0F6C1B5B
:101FE0007D0B685E7340C8F30894E108F1080109AD
:101FF0001109C851DC4FE114F1040105110569F71D
:10200000DF91CF911F910F91FF90EF9008957894F9
:1020100084B5826084BD84B5816084BD85B58260ED
:1020200085BD85B5816085BDEEE6F0E0808181608B
:102030008083E1E8F0E0108280818260808380818B
:1020400081608083E0E8F0E0808181608083E1EB63
:10205000F0E0808184608083E0EBF0E0808181604B
:102060008083EAE7F0E08081846080838081826001
:1020700080838081816080838081806880831092EA
:10208000C1000895982F8E3008F09E50977080916F
:1020900008018295880F880F807C892B80937C00B3
:1020A00080917A00806480937A0080917A0086FD26
:1020B000FCCF2091780040917900942F80E030E0AF
:1020C000282B392BC90108951F93CF93DF93182F25
:1020D000EB0161E00E94C410209709F44AC0CF3F91
:1020E000D10509F449C0E12FF0E0E052FC4F8491A2
:1020F0008330C1F0843028F4813051F08230B1F562
:102100000CC0863019F1873049F1843079F514C05C
:1021100084B5806884BDC7BD33C084B5806284BD8A
:10212000C8BD2EC080918000806880938000D093CD
:102130008900C093880024C08091800080628093D1
:102140008000D0938B00C0938A001AC08091B000A9
:1021500080688093B000C093B30012C08091B0003B
:1021600080628093B000C093B4000AC0C038D1052B
:102170001CF4812F60E002C0812F61E00E943011C9
:10218000DF91CF911F910895CF93DF93482F50E0B7
:10219000CA0184539C4FFC01349148545C4FFA01AE
:1021A0008491882369F190E0880F991FFC01E6561D
:1021B000FC4FA591B491FC01EC55FC4FC591D49115
:1021C000662351F42FB7F8948C91932F909589231F
:1021D0008C93888189230BC0623061F42FB7F89407
:1021E0008C91932F909589238C938881832B88835E
:1021F0002FBF06C09FB7F8948C91832B8C939FBF01
:10220000DF91CF910895833071F0843028F48130CC
:10221000A1F0823021F514C08630B1F08730D1F0C2
:102220008430E9F404C0809180008F7703C08091EE
:1022300080008F7D80938000089584B58F7702C0E1
:1022400084B58F7D84BD08958091B0008F77809391
:10225000B00008958091B0008F7D8093B000089504
:10226000FF920F931F93F62E482F50E0CA01805221
:102270009C4FFC012491CA0184539C4FFC01149192
:1022800048545C4FFA0104910023C9F0222319F04D
:10229000822F0E940311E02FF0E0EE0FFF1FEC559C
:1022A000FC4FA591B4919FB7F894FF2021F48C9135
:1022B0001095812302C08C91812B8C939FBF1F911D
:1022C0000F91FF9008950F931F93482F50E0CA017C
:1022D00080529C4FFC012491CA0184539C4FFC0105
:1022E000049148545C4FFA011491112319F420E031
:1022F00030E015C0222319F0822F0E940311812F94
:1023000090E0880F991F82559C4FFC01A591B491D4
:102310008C9120E030E0802311F021E030E0C90111
:102320001F910F910895CF93DF930E9407100E9491
:102330004702C0E0D0E00E9430022097E1F30E9403
:102340000000F9CFCF92DF92EF92FF920F931F938D
:10235000CF93DF937C016B018A01C0E0D0E00FC016
:10236000D6016D916D01D701ED91FC910190F08145
:10237000E02DC7010995C80FD91F01501040011564
:10238000110571F7CE01DF91CF911F910F91FF9051
:10239000EF90DF90CF900895EF92FF920F931F93ED
:1023A000CF93DF937C018B01C0E0D0E0F8010F5F99
:1023B0001F4F6491662359F0D701ED91FC91019074
:1023C000F081E02DC7010995C80FD91FEFCFCE01CD
:1023D000DF91CF911F910F91FF90EF900895DC0155
:1023E000ED91FC910190F081E02D09950895EF9217
:1023F000FF920F931F938C01DC01ED91FC910190F2
:10240000F081E02D6DE009957C01D801ED91FC9102
:102410000190F081E02DC8016AE009959C012E0D24
:102420003F1DC9011F910F91FF90EF900895EF920A
:10243000FF920F931F937C010E94CC118C01C70166
:102440000E94F7119C01200F311FC9011F910F91AC
:10245000FF90EF900895CF93DF93EC016115710524
:1024600019F420E030E00FC0DB010D900020E9F707
:102470001197A61BB70BE881F9810280F381E02D4B
:10248000AD0109959C01C901DF91CF9108954F924B
:102490005F927F928F929F92AF92BF92CF92DF9284
:1024A000EF92FF920F931F93DF93CF93CDB7DEB7D9
:1024B000A1970FB6F894DEBF0FBECDBF2C01742ECE
:1024C000CB01223008F42AE019A231E2C32ED12C2C
:1024D000CC0EDD1E822E9924AA24BB24672D752FD5
:1024E000A50194010E94C21479018A01C801B701B3
:1024F000A50194010E947014472D461B0894C10841
:10250000D1084A3014F4405D01C0495CF6014083B3
:10251000E114F1040105110521F07E2C5F2DC801A5
:10252000DDCFC201B6010E942B12A1960FB6F8941E
:10253000DEBF0FBECDBFCF91DF911F910F91FF90F6
:10254000EF90DF90CF90BF90AF909F908F907F9053
:102550005F904F900895CF92DF92EF92FF920F938A
:102560001F93CF93DF93EC016A017B0121153105A5
:1025700041F4E881F9810190F081E02D642F099503
:102580001FC02A303105D1F477FF17C0E881F981E7
:102590000190F081E02D6DE209958C0144275527CB
:1025A000BA014C195D096E097F09CE012AE00E942B
:1025B00047129801280F391F04C02AE00E944712D1
:1025C0009C01C901DF91CF911F910F91FF90EF9076
:1025D000DF90CF900895CF92DF92EF92FF920F930A
:1025E0001F936C017B019A010027F7FC0095102FC7
:1025F000B801A7010E94AB128C01C6010E94F7111D
:10260000080F191FC8011F910F91FF90EF90DF90E5
:10261000CF9008952F923F924F925F926F927F9248
:102620008F929F92AF92BF92CF92DF92EF92FF92E2
:102630000F931F93DF93CF93CDB7DEB73B014C01D0
:1026400019012A016D897E898F89988D6A197B0904
:102650008C099D09621A730A840A950AA4019301E0
:102660000E947014E218F30804091509A8019701E3
:102670000E94E4142A0D3B1D4C1D5D1DB901CA01C9
:10268000CF91DF911F910F91FF90EF90DF90CF904E
:10269000BF90AF909F908F907F906F905F904F9082
:1026A0003F902F90089598D088F09F5790F0B92FC1
:1026B0009927B751A0F0D1F0660F771F881F991F97
:1026C0001AF0BA95C9F712C0B13081F09FD0B1E0CD
:1026D00008959CC0672F782F8827B85F39F0B93FDD
:1026E000CCF3869577956795B395D9F73EF4909599
:1026F0008095709561957F4F8F4F9F4F0895E89417
:1027000009C097FB3EF490958095709561957F4F39
:102710008F4F9F4F9923A9F0F92F96E9BB279395E7
:10272000F695879577956795B795F111F8CFFAF4F7
:10273000BB0F11F460FF1BC06F5F7F4F8F4F9F4F28
:1027400016C0882311F096E911C0772321F09EE886
:10275000872F762F05C0662371F096E8862F70E0EC
:1027600060E02AF09A95660F771F881FDAF7880FC6
:102770009695879597F9089597F99F6780E870E097
:1027800060E008959FEF80EC089500240A941616E7
:10279000170618060906089500240A94121613064F
:1027A000140605060895092E0394000C11F48823DD
:1027B00052F0BB0F40F4BF2B11F460FF04C06F5FF9
:1027C0007F4F8F4F9F4F089557FD9058440F551FCF
:1027D00059F05F3F71F04795880F97FB991F61F0A3
:1027E0009F3F79F087950895121613061406551F1A
:1027F000F2CF4695F1DF08C0161617061806991F86
:10280000F1CF86957105610508940895E894BB277A
:1028100066277727CB0197F908950BD0C4CFB5DF92
:1028200028F0BADF18F0952309F0A6CFABCF11241A
:10283000EECFCADFA0F3959FD1F3950F50E0551F5F
:10284000629FF001729FBB27F00DB11D639FAA2705
:10285000F00DB11DAA1F649F6627B00DA11D661F54
:10286000829F2227B00DA11D621F739FB00DA11D75
:10287000621F839FA00D611D221F749F3327A00D2F
:10288000611D231F849F600D211D822F762F6A2FCB
:1028900011249F5750408AF0E1F088234AF0EE0F50
:1028A000FF1FBB1F661F771F881F91505040A9F75D
:1028B0009E3F510570F060CFAACF5F3FECF3983E8A
:1028C000DCF3869577956795B795F795E7959F5FC4
:1028D000C1F7FE2B880F911D9695879597F908955E
:1028E000629FD001739FF001829FE00DF11D649FF4
:1028F000E00DF11D929FF00D839FF00D749FF00D80
:10290000659FF00D9927729FB00DE11DF91F639F20
:10291000B00DE11DF91FBD01CF0111240895991BD0
:1029200079E004C0991F961708F0961B881F7A95C6
:10293000C9F780950895AA1BBB1B51E107C0AA1FC8
:10294000BB1FA617B70710F0A61BB70B881F991F50
:102950005A95A9F780959095BC01CD01089597FBF4
:10296000092E07260AD077FD04D0E5DF06D0002027
:102970001AF4709561957F4F0895F6F790958195BB
:102980009F4F0895A1E21A2EAA1BBB1BFD010DC08B
:10299000AA1FBB1FEE1FFF1FA217B307E407F5070F
:1029A00020F0A21BB30BE40BF50B661F771F881FEB
:1029B000991F1A9469F760957095809590959B0181
:1029C000AC01BD01CF01089597FB092E05260ED05D
:1029D00057FD04D0D7DF0AD0001C38F4509540953D
:1029E000309521953F4F4F4F5F4F0895F6F79095E3
:1029F0008095709561957F4F8F4F9F4F0895EE0F93
:0E2A0000FF1F0590F491E02D0994F894FFCF8C
:102A0E004C4F41444552000101000000008107A2D5
:022A1E001100A5
:00000001FF
