:100000000C940B050C9433050C9433050C943305B8
:100010000C9433050C9433050C9433050C94330580
:100020000C9433050C9433050C9433050C944E203A
:100030000C9433050C9433050C9433050C94330560
:100040000C9400220C9433050C9433050C94330566
:100050000C9433050C9433050C9433050C94330540
:100060000C9433050C943305401AFFFFFFFFFFFF8C
:10007000FFFF0000000000000000FF0403E100405B
:10008000810FFF8407F180C0818FFF8E0FF9C1C1FE
:10009000C1CFF7CE0FF9E3C1C1EFFFDF1FFDF7C3FB
:1000A000E1FFFF5F1FFDFFC3E1FFFE9F1FF5FF4361
:1000B000E1FDE1BF9F75FF47F1FDEF3B9FF5FF4776
:1000C00071FDE87F5FF5FF4FE9FDE87F5FF5FF4FCA
:1000D000E9FDE87F5FF5FF4FE9FDE8FFAFE9FF5F6E
:1000E000F5FDE8FFAFD1FF5FF5FDC8FF2629FE5FF4
:1000F000E5F9F8FFE3DDFFDFFDFF00000000000091
:100100000000FFFFFFFFFFFFFFFF000000000000F7
:100110000000A6C66AECE66E66CEAAAA8A4A8AAA39
:100120008AA8AAAEEA4ACAEC8EAC4AAA2A4A8AAA85
:100130008AA84ECAE4ECEEAAEACE1605EE4CA4A8B4
:10014000EAACCEAAE8A8EA40AEAC48050570F8C013
:10015000F870050570F8F8F870050570F8C0F870CB
:10016000050570E0C0E070050570F8D8D8500505A9
:1001700070F8F8F870050570F8D8D850050570F8D3
:10018000D88800050570F818F870050570F8F8F8BB
:1001900070050570F818F870050570381838700586
:1001A0000550D8D8F870050570F8F8F870050550B6
:1001B000D8D8F87005050088D8F8700505000088C3
:1001C000F870050500002070700505000000202073
:1001D00005058850005088050570F858F8A80505F1
:1001E00070F858F850050570F8D0F8A8050570F8B3
:1001F000D0F850050570A8F8F8A8050570A8F8F81B
:1002000050050570F8A8F8A8050570F8A8F850057D
:100210000570F8F8F8A805050000000000050500C5
:10022000505000000505000000000005053848D0CA
:10023000F858050570B0E8702005051870F8D870FA
:10024000050550F8F8E8500505F870B8E8700505A0
:10025000A8F8D8702005052050B8B870050570F8CA
:1002600050507054630000000000000000000000C7
:1002700000000000000000000000007FFFFFFFFF03
:10028000FFFFFFFFFFE08000000000000000000013
:10029000103FFFFFFFFF0FFFFFFFFFC04000000008
:1002A00000900000000020400000000090000000CE
:1002B00000204000000000900000000020400000EE
:1002C00000009000000000204000000000900000AE
:1002D00000002040FF01FFC0903FF80FF0204100D8
:1002E00082002090400410082041008200209040AD
:1002F0000410082041008200209040041008204192
:1003000000820020904004100820410082002090CC
:10031000400410082040FF01FFC0603FF80FF020AC
:10032000400000000000000000002040000000002D
:10033000000000000020400000000000000000005D
:1003400020400000000000000000002040000000ED
:100350000000000000002040FF0180FFFFF0180FA8
:10036000F020410082410000082410082041008252
:10037000410000082410082040FF0240FF0FF02435
:100380000FF02040000240009000240000204000B8
:100390000240009000240000204000024000900035
:1003A0002400002040000240009000240000204073
:1003B000000240009000240000203FFF023FC09058
:1003C0003FC40FFFC0800082002090400410001046
:1003D0007FFE82002090400417FFE00002823FC0B1
:1003E000603FC4140000000282400000002414009A
:1003F000000002824000000024140000000282403D
:1004000000000024140000000282400000002414B8
:10041000000000028240000000241400000002825C
:1004200041FC03F824140000FFFE824105FA082471
:1004300017FFF0000082417C03E824100000FFFF5A
:100440000181400028180FFFF00000000140002843
:100450000000000000000001400028000000000033
:1004600000000140002800000000000000014000E2
:1004700028000000000000000140002800000000EB
:10048000FFFF0181400028180FFFF0000082417F2C
:10049000FFE824100000FFFE82410000082417FF3F
:1004A000F000028241FFFFF82414000000028240A5
:1004B0000000002414000000028240000000241408
:1004C00000000002824000000024140000000282AC
:1004D00040000000241400000002824000000024BC
:1004E00014000000028240FFFFF0241400007FFE91
:1004F00082410000082417FFE080008241000008CC
:10050000241000103FFF0180FF0FF0180FFFC040C4
:10051000000000009000000000204000000000905B
:1005200000000000204000000000900000000020BB
:10053000400000000090000000002040000000008B
:1005400090000000002040FF01FFC0903FF80FF036
:1005500020410082002090400410082041008200C9
:100560002090400410082040FC81FFC0603FF81339
:10057000F0204004800000000000120020400480B1
:100580000000000000120020400480000000000075
:1005900012002040048000000000001200204004EF
:1005A0008000000000001200203E048180FFFFF068
:1005B000181207C00104824100000824120800013B
:1005C000048241000008241208003E030240FF0F8D
:1005D000F0240C07C04000024000900024000020DE
:1005E0004000024000900024000020400002400033
:1005F00090002400002040000240009000240000F1
:1006000020400002400090002400002040FFFC3FFA
:10061000C0903FC3FFF02041000000209040000048
:100620000820410000002090400000082040FFFF0B
:10063000FFC0603FFFFFF02040000000000000000E
:1006400000002040000000000000000000204000EA
:10065000000000000000000020400000000000003A
:100660000000002040000000000000000000203FCB
:10067000FFFFFFFFFFFFFFFFFFC080000000000043
:1006800000000000107FFFFFFFFFFFFFFFFFFFE004
:10069000000000000000000000000000000000005A
:1006A000000000000000596F6461277300202020C3
:1006B00020596F646127730020202020596F6461E6
:1006C00027730003053F213F0A100A1208120E1C6F
:1006D0000E0C1E0C141A14161F161E131E1E1B1EA3
:1006E0001E1F1E3F213F3A2F3A173D173F213F184B
:1006F0001F02040A041F0E04040E1F0A1F0A0E0E16
:100700001F04110E2E252E2F2A2E262929021F0204
:10071000081F08150E04040E150E15151B151B04D5
:100720000604040C040000000017000300031F0A65
:100730001F16371A1904130A153A000300000E1188
:10074000110E000A040A040E040030000404040020
:1007500010001804031F111F121F101D151711156B
:100760001F07041F17151D1F151D01011F1F151F32
:1007700017151F000A00003200040A110A0A0A11A4
:100780000A040115020E11171E051E1F150A0E116F
:100790000A1F110E1F15111F05010E111D1F041F29
:1007A000111F1108100F1F041B1F10101F061F1E02
:1007B000040F0E110E1F09060E112E1F051A121519
:1007C00009011F011F101F0F180F1F0C1F1B041BF7
:1007D000031C03191513001F11030418111F000235
:1007E00001022020200001020C121E1F120C0C120C
:1007F000120C121F0C1A14041E05242A1E1F021CA0
:10080000141D1020201D1F0814111F101E041E1E71
:10081000021C0C120C3E0A040C123E1E040214169A
:100820000A020F120E101E0E100E1E081E120C12BF
:1008300026281E322A26041E21001F00211E040124
:1008400002013F213F0A4E6F2053442063617264CE
:10085000206F720A6E6F204C4F414445522E48451E
:10086000580A0A153A45786974001D20466C617370
:1008700068696E670A20206C6F616465722E2E2E87
:100880000A0A444F4E2754205455524E204F464694
:1008900021004E4F20424154544552590A0A504CAF
:1008A000454153450A5455524E204F464600177352
:1008B00061766500166261636B001574797065007E
:1008C0000A0A0A153A6F6B617920163A65646974F1
:1008D00000596F7520656E74657265640A00540A6C
:1008E00003E181867F3E186D830F0F0E01838660C2
:1008F00033186DC3198F1803C38E6033186DE3303E
:10090000CF1803C39E603630CDE360CF3006C79E5C
:100910007E3E30CDB360CF300CC6F6603330D9B6F2
:1009200060CF33CFCCF66061B0DB1E60CF30D86CC7
:10093000E6C061B0DB1E618F19986CC6C063B19BC5
:100940000E330F0FB078C6FF7E1F1B061E0F175306
:1009500044001613780016131400151020001520FB
:100960001000000005008930080238024978681438
:100970000000450068010000050068013801000022
:100980000500380168010000F6E8DBCFC3B8AEA46B
:100990009B928A827B746E68625C57524E494541D5
:1009A0003E3A3734312E2C2927252321B009B409AA
:1009B0000101F7030101FF030000000024002700EC
:1009C0002A0000000000250028002B000000000085
:1009D0002300260029000404040404040404020281
:1009E00002020202030303030303010204081020AE
:1009F00040800102040810200102040810200000B9
:100A000000070002010000030406000000000000CF
:100A10000000E105DA0511241FBECFEFD8E0DEBFEC
:100A2000CDBF12E0A0E0B1E0EEE0F5E502C0059038
:100A30000D92A23DB107D9F716E0A2EDB2E001C0D8
:100A40001D92A138B107E1F71AE0C4E1DAE004C071
:100A50002297FE010E943F2AC231D107C9F70E94A6
:100A600078240C947A2A0C940000A0E0B0E0EBE328
:100A7000F5E00C944B2AEC01A880B980CA80DB8099
:100A8000A114B104C104D10441F484E2A82E89ED7B
:100A9000B82E8BE5C82E87E0D82EC601B5012DE112
:100AA00033EF41E050E00E94222A27EA31E440E09F
:100AB00050E00E94AE297B018C01C601B5012DE1F9
:100AC00033EF41E050E00E94222ACA01B9012CEE26
:100AD00034EF4FEF5FEF0E94AE296E0D7F1D801F38
:100AE000911F97FF04C06150704080409048688318
:100AF00079838A839B839B01AC015F77B901CA012B
:100B0000CDB7DEB7EAE00C94672A0E943505089558
:100B10008DE891E00E943505089560938D017093F2
:100B20008E0180938F01909390010895FB01DC0169
:100B300002C001900D9241505040D8F70895FB013A
:100B4000DC018D91019080190110D9F3990B089562
:100B5000FB01DC0101900D920020E1F70895813046
:100B60009105D1F46F5F7F4F21F510922103109210
:100B700020038DEC92E090931F0380931E0386E583
:100B800093E060E071E00E94E5268FE594E060E08C
:100B900071E00E94E5260895892B59F46F5F7F4F1D
:100BA00041F48FE594E00E94182786E593E00E94C7
:100BB0001827089580E090E06FEF7FEF0E94AF0567
:100BC000089581E090E06FEF7FEF0E94AF050895F8
:100BD0002F923F924F925F926F927F928F929F924D
:100BE000AF92BF92CF92DF92EF92FF920F931F933B
:100BF000DF93CF93CDB7DEB728970FB6F894DEBF5B
:100C00000FBECDBF82ED92E00E945B1A882311F4E3
:100C10000C94291186E593E061E071E00E94592669
:100C2000882379F010925E0310925D0383E0809335
:100C300061031092620386E593E069E071E00E942F
:100C4000FF2686E593E069E071E00E94592688233B
:100C500009F120E030E0F901E458FC4FD901A75434
:100C6000BE4F8C9180832F5F3F4F2438310599F719
:100C700084EF80937B038091620380936C048830BF
:100C800018F087E080936C0486E593E062E171E000
:100C90000E94FF2686E593E062E171E00E945926FA
:100CA000882309F49CC01092010410920004109251
:100CB0006403109263036FEF7FEF7093660360939A
:100CC00065032DE02093670388E18093680342E089
:100CD00050E050936A034093690310926C031092A2
:100CE0006B0301E010E010936E0300936D0310920C
:100CF000700310926F0310937203009371031093AB
:100D00007403009373039CE09093790383E08093D2
:100D10007A0310926D048EE18093040420930504FD
:100D20009093090410930E0400930D04109216047E
:100D30001092150410931E0400931D0410922604B3
:100D400010922504909306048FE080930A04109279
:100D5000100410920F0410921804109217041093AC
:100D6000200400931F04109228041092270420935B
:100D7000070480930B0450931204409311041092C3
:100D80001A04109219041093220400932104109263
:100D90002A04109229048093080480930C04109272
:100DA00014041092130410921C0410921B047093EC
:100DB00024046093230410922C0410922B048FE5DA
:100DC00094E06AE171E00E94FF26109367040093AB
:100DD000660486E593E060E271E00E94FF2686E506
:100DE00093E060E271E00E945926882311F40C948C
:100DF0003D1080916B048F5F837080936B04882318
:100E000031F480916A048F5F817080936A048091CD
:100E10006B0390916C0345972091680343E0249FF6
:100E200090011124820F931F9093690480936804AA
:100E30008B5F9F4F34F48BEF9FEF90936904809307
:100E400068048091680490916904C99734F088E33C
:100E500090E090936904809368048091630390917B
:100E60006403892B21F080916A04882351F4409116
:100E7000680441958EE193E060E023E632E00E9451
:100E80009E1580916D04882349F480917B038E3AEE
:100E900011F08A3419F480E980936D0480916D0417
:100EA0008823C9F145E380916804481B20916C04B4
:100EB00087E0289F90011124255D3D4F8EE193E04E
:100EC00069E20E949E1580916D04815080936D04AB
:100ED000809167038D508230F0F4809168038231F5
:100EE000D1F410926D048091620324E6829FC001C8
:100EF000112420915D0330915E03280F391F309338
:100F00005E0320935D0387EF92E00E94782087EFD5
:100F100092E00E94722080916503909166033FEFFA
:100F20008F3F930761F5609169036150809167037A
:100F300023E0829FC0011124680F40916B03415050
:100F400080916804481B80916803829FC00111242E
:100F5000480F20917A038091790390E0820F911DD0
:100F60009C01A3E0220F331FAA95E1F7281B390B40
:100F7000255B3E4F8EE193E00E949E155CC0019779
:100F8000909366038093650365E070E00E94ED290D
:100F9000892B21F487EF92E00E947E20E091690383
:100FA000E1508091670323E0829FC0011124E80F84
:100FB00040916B03415080916804481B8091680305
:100FC000829FC0011124480F8091650390916603B0
:100FD00066EF7FEF0E94ED296D5E7F4F9B01F3E08E
:100FE000220F331FFA95E1F7261B370B255B3E4F87
:100FF0008EE193E06E2F0E949E1580916503909183
:101000006603892BC1F48FEF9FEF90936603809363
:10101000650380916103815080936103882329F4E3
:1010200086E593E068E271E004C086E593E062E162
:1010300071E00E94FF2680910404882389F080914A
:101040006A04882341F48EE193E060E242E02AE3FF
:1010500031E00E949E158091040481508093040425
:101060008CED92E061E040E00E946912882351F02B
:101070008FEF9FEF9093780380937703109276031E
:10108000109275038CED92E063E040E00E946912DB
:10109000882351F081E090E0909378038093770368
:1010A00010927603109275038CED92E060E040E0C0
:1010B0000E946912882351F08FEF9FEF909376037F
:1010C0008093750310927803109277038CED92E071
:1010D00062E040E00E946912882351F081E090E0D4
:1010E00090937603809375031092780310927703A0
:1010F0008CED92E066E00E945F12882371F082ED31
:1011000092E06DEA76E048E650E00E94141B86E526
:1011100093E061E371E00E94FF268091040488233C
:1011200099F58091630390916403892B69F580910F
:101130006503909166038F5F9F4F31F5809169033E
:1011400090916A0320916D0330916E03820F931F7B
:1011500090936A038093690380916B0390916C0371
:1011600040916F0350917003840F951F90936C030F
:1011700080936B03232B11F4452B31F080917A037C
:101180008F5F837080937A038091690390916A03E3
:101190000296059758F010926A03109269038091A5
:1011A000670390916D03890F8093670380916B03B0
:1011B00090916C030296059758F010926C03109270
:1011C0006B038091680390916F03890F809368038C
:1011D00080916703882351F480916D0390916E0391
:1011E0008F5F9F4F19F48BE18093670380916703B2
:1011F0008B3140F080916D0390916E03019711F453
:10120000109267038091690390916A03892B09F01A
:1012100043C180916B0390916C03892B09F03CC111
:101220008091680390E0E5E0880F991FEA95E1F767
:1012300020916703820F911D90937504809374042D
:10124000FC0173E0F595E7957A95E1F7F0936F046B
:10125000E0936E0468E070E00E94ED2927E030E042
:10126000281B390B3093710420937004E458FC4F11
:10127000808190E002C0959587952A95E2F781706C
:1012800090709093730480937204019709F064C086
:1012900080917B03815080937B0380FD05C087EFA5
:1012A00092E00E94722004C087EF92E00E947820B2
:1012B000E0916E04F0916F04E458FC4F81E090E0FF
:1012C0000090700402C0880F991F0A94E2F72081F1
:1012D000281B208380916703813011F08A3149F502
:1012E00080916803843011F0883119F580915D0395
:1012F00090915E03C29690935E0380935D0380910C
:10130000620390E021EF3FEFDC01A29FC001A39FA9
:10131000900DB29F900D11248C549F4F9093010417
:101320008093000488EC90E090930304809302047F
:1013300009C080915D0390915E030A9690935E03CD
:1013400080935D0380917B03882331F48CE390E0EC
:101350009093640380936303809167030091750306
:1013600010917603F801E80FF11DCF012091680379
:10137000E0907703F0907803A701420F511D9A0186
:1013800065E0220F331F6A95E1F7820F931F909358
:10139000750480937404FC0153E0F595E7955A9524
:1013A000E1F7F0936F04E0936E0468E070E00E9450
:1013B000ED2927E030E0281B390B3093710420938E
:1013C0007004E35CFD4F808190E002C095958795A5
:1013D0002A95E2F781709070909373048093720461
:1013E000892B81F410936E0300936D03F0927003C8
:1013F000E0926F031093720300937103F0927403F1
:10140000E09273032091670380916D0390916E03C6
:10141000820F911D4091680320916F0330917003FA
:10142000240F311D45E0220F331F4A95E1F7820F4B
:10143000931F9093750480937404FC0123E0F59549
:10144000E7952A95E1F7F0936F04E0936E0468E066
:1014500070E00E94ED2927E030E0281B390B309323
:10146000710420937004E35CFD4F808190E002C022
:10147000959587952A95E2F7817090709093730403
:1014800080937204892B41F010926E0310926D03C9
:101490001092700310926F0380916D0390916E0310
:1014A0008F5F9F4F19F488E08093790380916D03DB
:1014B00090916E03019711F41092790380916F035C
:1014C00090917003019719F484E0809379038091DF
:1014D0006F03909170038F5F9F4F19F48CE080939E
:1014E000790380916303909164031816190694F4AC
:1014F00001979093640380936303892B59F480913F
:1015000062038F5F8093620386E593E069E071E098
:101510000E94FF2688E090E090936F0480936E0411
:1015200000E4E02EF12C17E0C12ED12C7EC0D09229
:101530007104C09270046AC0E458FC4F808190E04E
:1015400002C0959587952A95E2F7817090709093E7
:10155000730480937204019709F04CC0A7014F7186
:1015600050709701B5E035952795BA95E1F7590187
:10157000AA0CBB1CA20EB31E809168049091690452
:10158000A81AB90A4130510519F04A31510531F50F
:101590002430310519F02831310501F5B7FC1EC0A2
:1015A000B0E3AB16B104D4F480916A04813011F534
:1015B000BA01660F771F640F751F162F4A2D4F5FF4
:1015C0008EE193E023E00E946D131F5F8EE193E0B4
:1015D000612F4A2D23E00E9477130CC0BA01660FD9
:1015E000771F640F751F6F5F4A2D4F5F8EE193E089
:1015F0000E94B7120894E11CF11C80917004909134
:101600007104019790937104809370042091700489
:1016100030917104E0916E04F0916F0437FF8CCF2C
:101620003196F0936F04E0936E0480916E04909174
:101630006F048C3791050CF47ACF809166049091F9
:10164000670401979093670480936604181619063F
:1016500084F18FE594E06AE171E00E9459268823C5
:10166000B1F08FE594E067E371E00E94FF2680917E
:10167000620390E024EC3FEFFC01E29FC001E39F96
:10168000900DF29F900D1124845D9E4F0EC08FE54A
:1016900094E06AE171E00E94FF268091620326E9EE
:1016A000829FC0011124885A9D4F909367048093B4
:1016B00066048091000490910104181619060CF03C
:1016C00057C06CE170E080E090E00E942F2670939C
:1016D0002E0460932D0461E270E080E090E00E94AF
:1016E0002F2670933604609335046CE170E080E03F
:1016F00090E00E942F267093300460932F0461E2E3
:1017000070E080E090E00E942F2670933804609390
:1017100037046CE170E080E090E00E942F26709327
:1017200032046093310461E270E080E090E00E9456
:101730002F2670933A04609339046CE170E080E0E6
:1017400090E00E942F26709334046093330461E28A
:1017500070E080E090E00E942F2670933C0460933C
:101760003B0420E030E06DE070E04FE050E0ADC0C1
:101770008FE594E067E371E00E945926882309F120
:1017800010922E0410922D041092360410923504FB
:101790002BE130E03093300420932F041092380472
:1017A00010923704109232041092310480E290E0DB
:1017B00090933A0480933904309334042093330493
:1017C00074C04091670340932D0410922E04A091A1
:1017D0006803A09335041092360420917103309170
:1017E0007203C901880F991F880F991FE42FF0E039
:1017F0008E0F9F1F9093300480932F0440917303AA
:1018000050917403CA01880F991F880F991F6A2F7E
:1018100070E0860F971F909338048093370480916F
:10182000050490E0220F331F2E0F3F1F281B390B9A
:10183000220F331F280F391F3093320420933104B5
:101840008091090490E0440F551F460F571F481B15
:10185000590B440F551F480F591F50933A0440939A
:101860003904809108049F01281B310980910C04E0
:10187000681B7109669FC001679F900D769F900D50
:101880001124A901449F9001459F300D549F300DB4
:101890001124820F931F08976CF48BE190E09093D2
:1018A00034048093330480E290E090933C0480936E
:1018B0003B0457CFF0933404E0933304A0933B04EC
:1018C000E5E3F4E0369611824CCFF901E35CFB4F7F
:1018D00080819181019751F4F901E35DFB4F7183A0
:1018E0006083F901EB5CFB4F518340832E5F3F4FD8
:1018F0002830310551F780910004909101041816A9
:1019000019062CF4019790930104809300048091B0
:10191000550490915604181619060CF033C201971D
:10192000909356048093550480910404882309F011
:1019300033C28091630390916403892B09F02CC218
:1019400080916503909166038F5F9F4F09F024C2D9
:101950008DE394E09E838D8325E0422E24E0522E79
:10196000ADE1B4E0BC83AB8345E154E009E0602E17
:1019700004E0702EE5E2F4E0FA83E9831DE0812EB5
:1019800014E0912E7C01F2015D01B30109811A81FD
:10199000ABE1DA2ED7018D919C91019799F4D40196
:1019A0001D921C92DA011D921C928081D5019C919E
:1019B000890F8083DB018C91D8019C91890FDB0119
:1019C0008C9316C0D4018D919C91D5012D913C91A1
:1019D000820F931FD4018D939C93DA018D919C917A
:1019E000D8012D913C91820F931FDA018D939C9326
:1019F000D4018D919C9111970296059738F01D9214
:101A00001C928081D5019C91890F8083DA018D9190
:101A10009C9111970296059748F01D921C92DB014C
:101A20008C91D8019C91890FDB018C938081882354
:101A300039F4D5018D919C918F5F9F4F09F4D0822D
:101A400080818B3130F0D5018D919C91019709F403
:101A5000108222E030E0E20EF31E3196A20EB31E99
:101A60004E5F5F4F6F5F7F4F0E5F1F4F820E931E63
:101A700035E4E31634E0F30609F08CCF882499248A
:101A8000F401E35FFB4F80819181892B09F048C10C
:101A9000F401EB5EFB4F80819181892B09F040C1FD
:101AA000D3018C9190E065E0880F991F6A95E1F76A
:101AB000F2012081820F911D90937504809374042C
:101AC00055E4252E54E0352E710100E010E0188613
:101AD0001F824DE2A42E44E0B42EA80CB91C35E3BD
:101AE000C32E34E0D32EC80CD91CEF81F885EF56F5
:101AF000FE4F808191812091740430917504820F92
:101B0000931F90935A0480935904FC0123E0F595A8
:101B1000E7952A95E1F7F0936F04E0936E0468E08F
:101B200070E00E94ED2927E030E0281B390B30934C
:101B3000710420937004E35CFD4F808190E002C04B
:101B4000959587952A95E2F7817090709093580447
:101B500080935704D2018C918D50823098F4F30118
:101B600080818C3079F4AD81BE818D919C910197FB
:101B700049F00330110531F4E1E0F0E0F09358044E
:101B8000E0935704EF81F885E755FE4FAB81BC81A8
:101B90002D913C918081918128173907E9F4EF81DB
:101BA000F885EF54FE4FA981BA812D913C91808137
:101BB00091812817390781F4F30180818F3031F446
:101BC000D2018C918C3041F08F3031F0E1E0F0E0C7
:101BD000F0935804E0935704D2012C91EF81F885DB
:101BE000E756FE4F80819181820F911DF501408162
:101BF0005181481B590B50935C0440935B04D30103
:101C00008C91EF81F885EF55FE4F20813181280FAF
:101C1000311DF60180819181821B930B90935E04AC
:101C200080935D04889FB001899F700D989F700D0F
:101C30001124449F9001459F300D549F300D112475
:101C4000620F731F882777FD8095982F0E94362892
:101C50000E944D29D7016D937D938D939C9313978B
:101C60008091570490915804019749F420E030E0A6
:101C700048EC52E42D933D934D935C9313970F5F83
:101C80001F4FEF81F8853296F887EF8324E030E02C
:101C9000E20EF31E0430110509F027CF93E6A92EBA
:101CA000B12CCC24CA94DC2C18861F82D101ED9073
:101CB000FD900D911C91B501882777FD8095982F97
:101CC0000E9436289B01AC01C801B7010E94FF2782
:101CD00018163CF0C801B7010E9403285B01CF80B1
:101CE000D884EF81F8853196F887EF8324E030E0DF
:101CF000220E331E3497D1F6F601EE0FFF1FDF01DF
:101D0000A756BE4F8D919C91AB81BC818D939C93C6
:101D1000EF55FE4F80819181E981FA819183808323
:101D2000D2018C918D3069F4F30180818F3049F4B8
:101D3000AD81BE818D919C911197019711F41D92F7
:101D40001C92E2E0F0E08E0E9F1E0894411C511C94
:101D50000894611C711C2D813E812E5F3F4F3E8394
:101D60002D834B815C814E5F5F4F5C834B83898108
:101D70009A8102969A83898398E08916910409F0E2
:101D80007FCE0AC08091620390E00196880F991F70
:101D900090935604809355041DE0C12E14E0D12E7B
:101DA000B5E1EB2EB4E0FB2E0DE314E04424552402
:101DB000A3E0BA2EF6E46F2E712CE1E08E2E912C6A
:101DC000809167038B9DA0011124809169039091FC
:101DD0006A03480F591FF201EB5FFB4F80818B9D17
:101DE00090011124D6018D919C91280F391FC901B2
:101DF0000196841795070CF45AC0215030404217C1
:101E000053070CF454C0809168038B9DA0011124EA
:101E100080916B0390916C03480F591FF201E75FAB
:101E2000FB4F80818B9D90011124F701808191816E
:101E3000280F391FC901019684179507C4F1215055
:101E40003040421753079CF1D8018D919C91892B0A
:101E500071F580916503909166038F5F9F4F39F50F
:101E6000809100049091010418161906E4F4809101
:101E70005D0390915E032091020430910304820F70
:101E8000931F90935E0380935D03220F331F309363
:101E9000030420930204F8019182808287EF92E08C
:101EA0000E947E2004C070926603609265030894CD
:101EB000411C511C22E030E0C20ED31EE20EF31E84
:101EC0000E5F1F4F34E04316510409F079CF809123
:101ED0006503909166034FEF8F3F940719F0CD97FC
:101EE0000CF46FC000E010E0CC24DD2463E0F62E9B
:101EF000F601E35EFB4F80819181019719F422E0A6
:101F000030E002C020E030E0F601EB5DFB4F0190D5
:101F1000F081E02D5FEFEF3FF50719F424E030E0AA
:101F200004C0319711F426E030E0809100049091D4
:101F300001041816190614F428E030E0F601E35CF9
:101F4000FB4F80819181019711F42AE030E0F60186
:101F5000E35FFB4F60816150F801EB5FFB4F8081D5
:101F60008F9DC0011124680FF601EB5EFB4F40818D
:101F7000415080916804481BF801E75FFB4F808166
:101F80008F9DC0011124480F80916A04D901A80FC8
:101F9000B11D9D0153E0220F331F5A95E1F72A1B13
:101FA0003B0B29523E4F8EE193E00E949E150F5F3E
:101FB0001F4FE2E0F0E0CE0EDF1E0430110509F005
:101FC00097CF8091680490916904FFEF8B3F9F0742
:101FD00019F400E010E005C0C89709F04EC00BE20C
:101FE00010E080916103823040F08EE193E060E088
:101FF000402F20E631E00E949E15809161038330DE
:1020000040F08EE193E066E0402F20E631E00E9450
:102010009E1580915D0390915E038A30910514F4C2
:1020200028E201C026E28436910514F430E001C0B4
:1020300032E0885E934014F480E001C082E0231B0C
:10204000281B209327030093280360915D03709160
:102050005E038EE193E04AE050E00E94D02588E4E0
:10206000809327036091620370E06F5F7F4F8EE182
:1020700093E04AE050E00E94D02586E593E061E3DA
:1020800071E00E945926882309F4AAC020915D03BB
:1020900030915E0380915F039091600382179307F4
:1020A00024F43093600320935F031092270310926F
:1020B00028038EE193E06FE371E00E94E3258091B5
:1020C0005D0390915E038A30910514F42EE001C007
:1020D0002CE08436910514F440E001C042E053E066
:1020E000883E950714F430E001C032E080519742F9
:1020F00014F480E001C082E0241B231B281B2093E2
:10210000270386E08093280360915D0370915E034E
:102110008EE193E04AE050E00E94D02580915F0379
:10212000909160038A30910514F422E401C020E408
:102130008436910514F440E001C042E0B3E0883EEB
:102140009B0714F430E001C032E08051974214F450
:1021500080E001C082E0241B231B281B209327035F
:1021600086E08093280360915F03709160038EE1A5
:1021700093E04AE050E00E94D0258EE193E06AE0CF
:102180004DE028E630E00E949E15109227038AE277
:10219000809328038EE193E063E571E00E94E325DC
:1021A0008CED92E064E00E945F12882351F086E596
:1021B00093E061E071E00E94FF2687EF92E00E94C9
:1021C00072208CED92E066E00E945F12882341F05D
:1021D00082ED92E066EA76E048E650E00E94141B49
:1021E00086E593E068E271E00E945926882389F130
:1021F00088E18093270382E1809328038EE193E0B6
:1022000068E671E00E94E3258EE193E066E140E13B
:1022100027E209E00E94B71384E0809327038AE253
:10222000809328038EE193E062E771E00E94E3254A
:102230008CED92E065E00E945F12882351F086E504
:1022400093E061E371E00E94FF2687EF92E00E9435
:10225000722028960FB6F894DEBF0FBECDBFCF9187
:10226000DF911F910F91FF90EF90DF90CF90BF9083
:10227000AF909F908F907F906F905F904F903F9026
:102280002F9008950F931F9302ED12E0C8010E9452
:10229000721CC8016EE10E946218C80168EB76E00A
:1022A00048E650E00E94141BC8010E94261A86E5E9
:1022B00093E061E371E00E94FF261092EA021F9111
:1022C0000F910895882319F48CB5806202C08CB5F3
:1022D0008F7D8CBD08959CB5937F982B9CBD0895F0
:1022E0002CB5382F33702C7F322B3CBD2DB590E0B0
:1022F000959587959595879581702E7F822B8DBDBD
:1023000008958AE061E00E94D1238AE061E00E94A2
:1023100092238CB580618CBD8CB580648CBD8DE0C2
:1023200061E00E9492238BE061E00E949223089575
:10233000FC0181E08083089585E070E00E943223F3
:1023400008956F927F928F929F92AF92BF92CF9299
:10235000DF92EF92FF920F931F93CF93DF93EC01E5
:1023600089819A818C0124E0000F111F2A95E1F7E1
:10237000081B190B85E10E941023BC01600F711F1F
:1023800084E0769567958A95E1F77A8369838881F9
:10239000882381F12E813F816217730710F4B90100
:1023A00006C0888599858617970708F4BC0100D078
:1023B00000D080E090E040E050E0E884F98400E064
:1023C00010E0AD80BB24CC24DD246C8077248824ED
:1023D0009924EDB7FEB761827282838294820E9453
:1023E000E6256B830F900F900F900F9085E070E0C3
:1023F0000E943223DF91CF911F910F91FF90EF90B8
:10240000DF90CF90BF90AF909F908F907F906F9014
:102410000895FC018CE39FE09383828384E08183B1
:1024200081E084870895CF93DF93EC018C8590E061
:102430008F719070892B69F584E10E941023AA277F
:1024400097FDA095BA2FBC01CD010E94362826EE3B
:102450003FE34EEC50E40E94E6280E9408289B01CE
:10246000AC017B836A836115710589F084E08983FF
:10247000B901FE0120E0848195816817790710F485
:1024800029830AC02F5F32962430A9F702C08FEF4C
:1024900089838C858F5F8C87DF91CF910895FC01B4
:1024A00088E0808389E0818387E0828386E083837C
:1024B00084E0848382E0858381E18683089520E03F
:1024C000FC01E60FF11D8781813009F421E0822FA4
:1024D0000895E62FF0E0423040F420E0E80FF91FC5
:1024E000878181508E3F88F40FC0E80FF91F8781E4
:1024F0008F3F11F420E009C020E090E0642F70E0ED
:102500000E94D929019709F421E0822F08950F93A1
:102510001F93CF93DF93EC0110E00FEF888162E00F
:102520000E94922388810E9425242F81892B19F4EF
:102530002F5F2F8307C0222349F02F3F11F41F8202
:1025400001C00F83888160E00E9492231F5F219663
:10255000173021F7DF91CF911F910F910895FC0162
:10256000678F60A30895FC01678F40A30895FC0165
:102570006435A8F547FD33C040338CF5878D942F23
:10258000959595959595772767FD70954770882364
:1025900099F0E4E59E02F0011124E60FF71FEA58D6
:1025A000FB4F81E090E002C0880F991F4A95E2F747
:1025B0002081282B20830895E4E59E02F001112458
:1025C000E60FF71FEA58FB4F81E090E002C0880F4A
:1025D000991F4A95E2F7809520812823208308954A
:1025E000AF92BF92CF92DF92EF92FF920F931F9321
:1025F000CF93DF93EC01162FF42EE22EAA24402F66
:10260000552747FD50958F2D992787FD9095481B9D
:10261000590B57FF03C0509541955F4F2E2D33271F
:1026200027FD3095812F992787FD9095281B390B21
:1026300037FF03C0309521953F4F2417350744F4E9
:10264000AA24A3948F2DF12E182F802F0E2DE82E63
:10265000E11634F48E2DE12E182F802F0F2DF82E39
:10266000DE2CD11A202F332727FD30958F2D992767
:1026700087FD9095281B390B37FF03C030952195B6
:102680003F4FB22EF0161CF0CC24CA9402C0CC24CA
:10269000C3948D2DD7FC8F5F082F059511C0AA20FC
:1026A00021F0CE016F2D412F03C0CE01612F4F2DA0
:1026B0000E94B7120B1907FF02C0FC0C0D0D1F5F23
:1026C000E1166CF7DF91CF911F910F91FF90EF9082
:1026D000DF90CF90BF90AF9008950F93042F322FCB
:1026E000262F2150230F0E94F0120F9108950F936F
:1026F000362F042F0150020F232F0E94F0120F914A
:1027000008959F92AF92BF92CF92DF92EF92FF9285
:102710000F931F93CF93DF936C01B62E942EA02EB0
:10272000C0E0D0E0E62EFF24E7FCF094022F112752
:1027300007FD10950E0D1F1D06C0C601492D2A2D3F
:102740000E94771321966B2D6C0FCE018E0D9F1D6D
:102750008017910794F3DF91CF911F910F91FF9014
:10276000EF90DF90CF90BF90AF909F900895CF9261
:10277000DF92EF92FF920F931F937C01162FD42EBE
:10278000C22E0E946D134D2D4150400FC701612F85
:102790002C2D0E946D13C701612F4D2D202F0E94FB
:1027A000771311501C0DC701612F4D2D202F0E9452
:1027B00077131F910F91FF90EF90DF90CF900895C6
:1027C0002F923F925F926F927F928F929F92AF92E1
:1027D000BF92CF92DF92EF92FF920F931F93DF93FE
:1027E000CF9300D000D000D0CDB7DEB79E838D83CD
:1027F000C62ED42EEE24E394E21A8EEF289F502C9E
:102800001124842E8A94962E9A94A42EA394B62EE4
:10281000B394F22E662423E0722E10E0C801847077
:1028200090709A838983F801E270F070FC83EB83E7
:1028300098E0292E312C202231220170107054C0D2
:10284000E7FC04C0FA94F2E05F0EE50C6394898122
:102850009A81892B71F04F2D4D0D8D819E816B2DAD
:102860000E94B7126F2D6C0D8D819E814A2D0E94A2
:10287000B712EB81FC81EF2B71F04D2D4F198D813B
:102880009E816B2D0E94B7126F2D6C0D8D819E81E4
:10289000482D0E94B7122114310471F06C2D6F196C
:1028A0008D819E814A2D0E94B7124F2D4D0D8D8135
:1028B0009E81692D0E94B7120115110571F06C2DD2
:1028C0006F198D819E81482D0E94B7124D2D4F1991
:1028D0008D819E81692D0E94B712E70CF2E07F0E78
:1028E0008A949A94A394B3946F140CF4A9CF269667
:1028F0000FB6F894DEBF0FBECDBFCF91DF911F9111
:102900000F91FF90EF90DF90CF90BF90AF909F908E
:102910008F907F906F905F903F902F9008954F928F
:102920005F926F927F928F929F92AF92BF92CF925F
:10293000DF92EF92FF920F931F93CF93DF93EC01FF
:10294000A62E742E9E2DFF24F394F21A8EEF289F4C
:10295000802C1124B42EBA9453E0C52ECE0CE22E56
:10296000DD2443E0942E10E031E0432E512C402230
:102970005122692E63940270107034C0F7FC04C0B9
:10298000EA9482E0880EF80CD3944114510489F043
:102990006D2D6A0D472D4E192E2D220F260DCE01BD
:1029A0000E9477136E2D6A0DCE014B2D2C2D0E94A7
:1029B00077130115110589F06A2D6D19472D4E19F0
:1029C0002E2D220F260DCE010E9477136A2D6E192F
:1029D000CE014B2D2C2D0E947713F90C82E0980E1E
:1029E000BA94C80EDE1454F2DF91CF911F910F916B
:1029F000FF90EF90DF90CF90BF90AF909F908F901F
:102A00007F906F905F904F9008957F928F929F92EA
:102A1000AF92BF92CF92DF92EF92FF920F931F93EC
:102A20006C01962EA42EF22E7E2C760E1EEFE19EC9
:102A3000102D1124812E820E672D282D0E946D13DA
:102A4000B02EBA0CBA94C601672D4B2D282D0E94CA
:102A50006D13AE0C100FC601692D4A2D212F0E9457
:102A60007713F90CFA94C6016F2D4A2D212F0E947D
:102A70007713C601672D4A2D2E2D01E00E94E01329
:102A8000FE18C6016F2D4A2D2E2D02E00E94E01384
:102A9000BE18C6016F2D4B2D2E2D04E00E94E013B1
:102AA000C601672D4B2D2E2D08E00E94E0131F91CB
:102AB0000F91FF90EF90DF90CF90BF90AF909F90DD
:102AC0008F907F9008958F929F92AF92BF92CF92F6
:102AD000DF92EF92FF920F931F936C01162FA42E9B
:102AE000922EF02EBE2C8E2C860E2EEFE29EE02C27
:102AF00011242E2D290D682D0E948113AB0CFA9400
:102B0000FE0C1150190D1B19C601612F4A2D2B2DDA
:102B100001E0EF2C0E948F14C601682D4A2D2B2D49
:102B200002E00E948F141F910F91FF90EF90DF90B1
:102B3000CF90BF90AF909F908F9008953F924F920B
:102B40005F926F927F928F929F92AF92BF92CF923D
:102B5000DF92EF92FF920F931F93CF93DF934C017D
:102B6000362E442EF901A490319654906F010894AA
:102B7000C11CD11C8A2D992787FD9095079668E086
:102B800070E00E94ED29E62EFF24E7FCF09400E0BF
:102B9000C0E0D0E060E8662E712C26C0E12FE595FC
:102BA000E595E595FF27E7FDF095EC0FFD1FEC0D92
:102BB000FD1DE4912E2F30E0812F8770A30102C00C
:102BC000559547958A95E2F724233523232B31F039
:102BD000612F630DC4014B2D0E94B7121F5F1A15A0
:102BE000ECF20F5FCE0DDF1D051524F410E0B02EC2
:102BF000B40CF5CFDF91CF911F910F91FF90EF9023
:102C0000DF90CF90BF90AF909F908F907F906F900C
:102C10005F904F903F9008953F924F925F926F92D6
:102C20007F928F929F92AF92BF92CF92DF92EF925C
:102C3000FF920F931F93CF93DF93EC01862EA42E68
:102C4000422F102F3F8C23E526170CF4ABC03FE238
:102C50003A150CF4A7C0C02EDD248C8190E00197BA
:102C60009C01C29EC001C39E900DD29E900D112466
:102C7000262F332727FD3095820F931F181619062C
:102C80000CF090C08D8190E09C01C29EC001C39E5B
:102C9000900DD29E900D11242A2D332727FD3095BB
:102CA000820F931F181619060CF07CC09924442E2D
:102CB00055246DC09C01215030404217530711F438
:102CC00060E00EC0429EC001439E900D529E900D4A
:102CD0001124840F951FED8DFE8DE80FF91F64916F
:102CE0004C9DC0014D9D900D5C9D900D1124682C54
:102CF000680EBB24792C780C3FC0E62EFF2460FFC1
:102D000019C0113039F44B2D4A0DCE01672D0E94A8
:102D1000B7122EC02C9DC0012D9D900D3C9D900D95
:102D200011244A2D480FCE01662D212F012F0E941C
:102D300081131EC098A18F8D9817D1F09F8F1130ED
:102D400039F44B2D4A0DCE01672D0E94B7120FC0EA
:102D50002C9DC0012D9D900D3C9D900D11244A2D60
:102D6000480FCE01662D212F012F0E9481133F8E27
:102D7000F594E7946E2DB3942B2D332727FD3095D2
:102D80008D8190E0281739070CF4B7CF9394492D23
:102D9000552747FD50958C8190E0481759070CF452
:102DA00089CF3F8EDF91CF911F910F91FF90EF90D0
:102DB000DF90CF90BF90AF909F908F907F906F905B
:102DC0005F904F903F9008950F93CF93DF93EC0166
:102DD000262F6A3049F48D819885899F802D112492
:102DE0009A85980F9A8726C06D3029F169854A85A2
:102DF00008850E940C169C816885969F402D1124A1
:102E00008985480F49878F818823A9F0552747FD79
:102E10005095699F9001112484E590E0821B930BEB
:102E20008417950744F49D81699F902D11248A850C
:102E3000890F8A87198681E090E0DF91CF910F9109
:102E400008951F93CF93DF93EC01162FF8948E858E
:102E500060E00E94D1238F8518161CF460E00E9468
:102E6000D1231EBD0DB407FEFDCF8EB58F8518167C
:102E70001CF461E00E94D1237894DF91CF911F91DF
:102E80000895FF920F931F93CF93DF93EC01FF24DC
:102E900000E010E06F2D6064CE010E942117CE018A
:102EA00060E80E9421178E8561E00E94D1238F8502
:102EB00018161CF460E00E94D123F801EA58FB4F79
:102EC00090E080818EBD0DB407FEFDCF8EB59F5F73
:102ED00031969435B1F78F8518161CF461E00E9485
:102EE000D123F3940C5A1F4F86E0F81699F6CE01C1
:102EF00060E40E942117DF91CF911F910F91FF9005
:102F00000895CF93DF93DC0188EF91E0E6E7F4E0EA
:102F1000EF019C01199221503040E1F719961C9263
:102F200019971A961C92DF91CF910895EF920F9303
:102F3000CF93DF93EC014D876C872E87E88A0F874C
:102F400081E088878F8F18A28F83E3ECF6E084916D
:102F50008F5F8C83319684918F5F8D833196FE8F46
:102F6000ED8F0E94811181E00E94621185E00E9434
:102F700070118CE00E946B118D8561E00E9492239C
:102F80008C8561E00E9492238E8561E00E949223ED
:102F9000888918161CF461E00E9492238F85181608
:102FA0001CF461E00E949223888918166CF460E09A
:102FB0000E94D1236AE070E080E090E00E947C22D1
:102FC000888961E00E94D123EC852E2F332727FDCD
:102FD0003095F901EA52F64FE491F0E0EE0FFF1F51
:102FE000EE53F64F859194919C8B8B8B2651364FE7
:102FF000F90184918A8FED852E2F332727FD309597
:10300000F901EA52F64FE491F0E0EE0FFF1FEE53A4
:10301000F64F859194919A8B898B2651364FF90101
:103020008491898FEF852E2F332727FD3095F90165
:10303000EA52F64FE491F0E0EE0FFF1FEE53F64F29
:10304000859194919E8B8D8B2651364FF9018491F9
:103050008B8FEE852E2F332727FD3095F901EA520D
:10306000F64FE491F0E0EE0FFF1FEE53F64F85911F
:103070009491988F8F8B2651364FF90184918C8FC4
:10308000CE0161E20E942117CE0164E10E94211766
:103090008B8587FF02C08FE78B876B856068CE01C9
:1030A0000E942117CE0160E20E942117CE016CE040
:1030B0000E942117CE010E944117DF91CF910F91FD
:1030C000EF900895FC01262FE458FF4F88EE93E01F
:1030D00070E00E94ED296083EC57F040822F64E19C
:1030E0000E94CD2987A30895CF93DF93DC01E0E808
:1030F000FFE685919491ED01C95ADF4FAD01435927
:103100005F4F8150904C09F04EC0E6E9FFE6E49134
:10311000E883E7E9FFE6E4911496EC931497E8E975
:10312000FFE6E4911596EC931597E9E9FFE68591A2
:10313000949117969C938E931697EBE9FFE68591F1
:10314000949119969C938E931897EDE9FFE6E4917C
:103150009996EC939997EEE9FFE6E4919896EC93B3
:103160009897EFE9FFE6E491EA01E883E0EAFFE6F9
:10317000859194915D969C938E935C97E2EAFFE62D
:10318000859194915F969C938E935E97E4EAFFE617
:103190008591949191969C938E939097E6EAFFE6A1
:1031A0008591949132C08CE3888314961C92149775
:1031B0002FEF15962C93159780E293E017969C932A
:1031C0008E93169784ED93E019969C938E9318979F
:1031D00081E099968C93999798968C939897FA0199
:1031E00020838CEA9DE05D969C938E935C978EED98
:1031F0009DE05F969C938E935E9784E79EE0919608
:103200009C938E9390978CE39FE093969C938E93E0
:103210009297DF91CF910895EF92FF920F931F93B2
:10322000CF93DF937C018C01045B1F4FC8010E9488
:103230008117C8016AE678E00E94B124C8010E94A3
:10324000411783E00E94701186E891E0EEEFFFE302
:10325000099582E590E0E80EF91EF7011082C80199
:1032600065E478E00E94FC24C8010E944117E70150
:10327000C854D040CE010E948712CE0164E00E9463
:103280005F12882339F462E370E080E090E00E94EE
:103290007C22F0CFDF91CF911F910F91FF90EF90A3
:1032A00008950F931F93CF93DF93EC018C01045B80
:1032B0001F4FC80161E040E00E94B312FE01EB5ACB
:1032C000FF4FC05BDF4F85E59881891B8083269681
:1032D0001882C655D040698D613061F1613028F0A7
:1032E000888D653008F03FC039C0CE0185960E94B8
:1032F0005E1DCE0160E00E949C11C8010E948117F2
:10330000C80162E978E00E94B124C8010E94411717
:1033100083B7817F846083BF83B7816083BF83B7B6
:10332000816083BF889583B78E7F83BF83B78E7F8D
:1033300083BF1FC0C259DF4F88819981AA81BB8199
:103340008F709070A070B0700897A105B10518F447
:10335000C80167E00CC0C80168E709C0882349F0CC
:103360006B5FC80104C0882321F0C8016FE20E948E
:10337000D424DF91CF911F910F910895AF92BF9206
:10338000CF92DF92EF92FF920F931F93CF93DF9331
:10339000EC01CD57DF4F8881C358D040882309F412
:1033A0004AC08C3010F010E002C01CE0181BCC5A50
:1033B000DF4F81E08883C455D0406CE4C62ED12C09
:1033C000CC0EDD1EC60160E00E94AF1251E5A52EB5
:1033D000B12CAC0EBD1EF50100814DE2F42E4F2D37
:1033E000401B410F0D5FC60160E024E533E0E32E92
:1033F0000E946315C60161E00E94AF12F5010081D1
:10340000F01AF10E0D5FC60160E04F2D24E50E9419
:103410000515CB5ADF4F84E08993F5018081181B95
:10342000115D1883AB9669917991C6010E94B12410
:10343000888181508883DF91CF911F910F91FF90F8
:10344000EF90DF90CF90BF90AF9008958F929F92B2
:10345000AF92BF92CF92DF92EF92FF920F931F93A2
:103460004C01FC01A28CB38CCC24DD240E9456229A
:103470007B018C01F401818092800E945622860E8D
:10348000971EE094F09400951095C801B701A6012D
:1034900095010E94AE29860E971EC4010E945126F6
:1034A0001F910F91FF90EF90DF90CF90BF90AF9062
:1034B0009F908F900895AF92BF92CF92DF92EF923C
:1034C000FF920F931F93CF93DF93EC01EDE7AE2EA6
:1034D000B12CA80EB91EF501E080F18002811381A4
:1034E0000E944822E61AF70A080B190B7CE7C72E40
:1034F000D12CCC0EDD1EF601808190E0A0E0B0E082
:103500008E159F05A007B10708F081C08E010858ED
:103510001F4FF80180819181A281B3810097A1059D
:10352000B10509F474C00E944822F6012081620F9F
:10353000711D811D911DF5016083718382839383C9
:10354000FE01E259FF4F80819181A281B3810196F2
:10355000A11DB11D80839183A283B383F8011082E2
:103560001182128213820E945622CC58DF4F688348
:1035700079838A839B83C457D040CE010E94A111D6
:10358000CE010A960E948712CE0148960E9413121D
:103590008E010B5D1F4FC8010E94461DC8010E948D
:1035A000BD1EC8010E94152081E026C0CE010E94E8
:1035B000BE19CE010E9451198E01045B1F4FC80134
:1035C0000E944117CE5ADF4F8881C255D0408823D0
:1035D00019F4C8010E9481170E945622C858DF4F73
:1035E000688379838A839B83249728813981621B2E
:1035F000730B7A936A9380E0DF91CF911F910F91C3
:10360000FF90EF90DF90CF90BF90AF900895C85893
:10361000DF4F88819981AA81BB81C857D04000972C
:10362000A105B10541F7C2CF2F923F924F925F9211
:103630006F927F928F929F92AF92BF92CF92DF92C2
:10364000EF92FF920F931F93DF93CF93CDB7DEB727
:103650002B970FB6F894DEBF0FBECDBF9B878A872E
:103660007A8369835C834B838C0103591F4FF80174
:103670008081882309F41DC18A859B858D5A9F4FBF
:10368000FC0110821292E255F040FB87EA87108E0F
:103690009CE4E92EF12CEE0EFF1EC70161E00E94B2
:1036A000AF128AE0282E312C8A859B85280E391E80
:1036B000B5E26B2E712C680E791EE981FA81F491C6
:1036C000FD83A5E58A2E912C880E991EF6E5CF2E56
:1036D000D12CC80ED91EE0E54E2E512C480E591E95
:1036E0008F5A9F4F9F838E837EE6A72EB12C8A85AB
:1036F0009B85A80EB91E198708878A859B850E941D
:103700005B1A8823D1F39D81992311F410E003C043
:10371000EE81FF811081C70160E040E02EED38E0CE
:103720000E949E158B819C81892B41F0145FC701FB
:1037300060E0412F2B813C810E949E15F401108294
:103740008CE0F6018083C70169817A810E94B124EF
:10375000F201208130E0C901880F991F820F931F69
:10376000909581959F4F8D5AF4018083EE81FF8162
:10377000208130E0C901880F991F820F931F909517
:1037800081959F4F835DF6018083F501808184FFE1
:1037900004C0C7016EE579E003C0C7016AE579E0BE
:1037A0000E94FC24F201208130E0C901880F991F9A
:1037B000820F931F909581959F4F8D5AF4018083BE
:1037C000F60180818F5F8083EA85FB8580A5882351
:1037D00021F0C70166E579E003C0C70162E579E041
:1037E0000E94FC24F201808190E09C01220F331F93
:1037F000280F391F309521953F4F2D5AF401208312
:10380000F60180818F5F8083C7016EE479E00E94BA
:10381000FC24C10165E00E945F12882351F0EA8513
:10382000FB8560A56F5FC3010E948420C3010E94D5
:103830007E20C10164E00E945F12882399F4E8852C
:10384000F9856081262F30E040E050E0F50180816D
:103850009181A281B38182179307A407B50708F16C
:103860006F3FF9F08A859B8583599F4F9B878A8795
:103870008FEFEA85FB858083ED56F040FB87EA8772
:10388000C30160E00E944A1DC3010E94722081E0D2
:10389000EA85FB85808F0DC08A859B850E940C1967
:1038A0002CCFC10166E00E945F12882309F425CF66
:1038B000F3CF2B960FB6F894DEBF0FBECDBFCF91DE
:1038C000DF911F910F91FF90EF90DF90CF90BF900D
:1038D000AF909F908F907F906F905F904F903F90B0
:1038E0002F900895AF92BF92CF92DF92EF920F93F5
:1038F000CF93DF936C018CE790E0C80ED91E82E372
:10390000F601808381E090E0A0E0B0E0B293A29362
:10391000929382936F0185EF9FEFC80ED91E8FEFB0
:10392000F601808383E99FEFC80ED91EC6010E946D
:103930007418C6010E949811C6016FEF0E949C1175
:103940004AE0A42EB12CAC0CBD1CC5010E944F1244
:10395000C5010E948712C60148960E940912C6013D
:10396000845B9F4F6DE04BE020E10FE03EE0E32EF3
:103970000E949617E601A596CE010E949120C501EE
:1039800065E00E945F12882329F0CE0160E00E946A
:10399000842006C0CE0164E679E040E00E94D91C94
:1039A000DF91CF910F91EF90DF90CF90BF90AF90CC
:1039B0000895CF93DF93EC01442369F41D8A1B8A99
:1039C0001AA219A21E8A1092720610927106109203
:1039D0006F061092B400A42FB0E09E012A0F3B1F87
:1039E000FD01EE0FFF1FEC0FFD1F74876387189614
:1039F000AA0FBB1FAC0FBD1F1D921C9281E0F901E5
:103A0000818389E0848B178A118E138EDF91CF9189
:103A10000895CF93DF939C01462FA62FB0E0EC01D1
:103A2000CA0FDB1F8881882371F18981882359F5AA
:103A3000FD01EE0FFF1FE20FF31F8F8190E0880F53
:103A4000991F0580F681E02DE80FF91F859194916B
:103A50005FEF8F3F950711F4188215C09A8714966F
:103A6000AA0FBB1FA20FB31F90E0880F991FED9103
:103A7000FC91E80FF91F65917491C9010E94D91C4E
:103A80008F818F5F8F83DF91CF91089560E00E94D7
:103A9000091D0895FC01662369F4158A138A12A290
:103AA00011A2168A109272061092710610926F0679
:103AB0001092B400E60FF11D11820895FC01158AE1
:103AC000138A12A211A2168A10927206109271061F
:103AD00010926F061092B400118208950F93CF9345
:103AE000DF93EC01623009F440C0633030F46623A8
:103AF00059F0613009F04AC00BC0633009F43BC093
:103B0000643009F043C03DC0C00FD11D4C8B3EC096
:103B1000602F70E0DB01AA0FBB1FAC0FBD1F842F0D
:103B200090E0880F991F1D962D913C911E97280FAC
:103B3000391FF901859194915E969C938E935D97C0
:103B4000FC0145915491A42FFE01E60FF71F478F0A
:103B5000252F3327842F90E02817390708F4A52F45
:103B60006C0F7D1FFB01A0A311C0FC01E00FF11D34
:103B7000478B208F0BC0FC01E00FF11D418F228F7E
:103B800005C0FC01E00FF11D438F248FDF91CF9121
:103B90000F9108955F926F927F928F929F92AF9252
:103BA000BF92CF92DF92EF92FF920F931F93CF932A
:103BB000DF936C01562EE62EFF24DC01AE0DBF1DF7
:103BC00011968C911197882309F4C7C053968C9154
:103BD0005397882309F0C1C08701000F111F0C0DF6
:103BE0001D1DE7012896CC0FDD1FCC0DDD1D688162
:103BF0007981660F771FF80143855485640F751F1F
:103C0000FB01259134912115310509F069C01F96FA
:103C10008C911F97813031F419821882FA01259115
:103C200034915EC011961C9211978C91882391F06B
:103C3000C601652D0E94091D88819981880F991FF1
:103C4000D8011B96ED91FC911C97E80FF91F259167
:103C5000349146C0552009F080C055961C92559766
:103C600053961C925397F80112A211A256961C92D9
:103C7000F701EE58F94F1082F701EF58F94F108213
:103C80002FE636E0E20EF31ED7011C9280916F06FC
:103C9000882311F0809172068093B4005EC0A6E084
:103CA00036952795AA95E1F76F70422F4F71F5E091
:103CB00036952795FA95E1F72051C601052D0E940A
:103CC0006E1D88819981019699838883880F991F39
:103CD000D501ED91FC91E80FF91F2591349114C0A5
:103CE0004701880C991C68E0662E712C6E0C7F1CB5
:103CF000E301CC0FDD1FCC0DDD1D5601A80CB91C56
:103D0000EBE0F0E0AE0EBF1EB901769567957695B3
:103D1000679520FDC4CFF601EE0DFF1D862F8F7332
:103D2000828B338B13A28C0C9D1CD40192961C9217
:103D30001E92919781E0858B2FE636E0E20EF31E0E
:103D4000D7018C93168AF301EE0FFF1FEC0DFD1DBA
:103D500080819181019691838083DF91CF911F9122
:103D60000F91FF90EF90DF90CF90BF90AF909F901A
:103D70008F907F906F905F90089560E00E94CA1DC1
:103D80000895DF92EF92FF920F931F93CF93DF93EB
:103D90007C01062F10E0DC01A00FB11F55968C911D
:103DA0005597882309F439C153968C9153978823EA
:103DB00039F5662309F031C155961C9255975396F3
:103DC0001C925397F801EE0FFF1FEE0DFF1D12A27C
:103DD00011A256961C92F801EE58F94F1082F80184
:103DE000EF58F94F10820159194FF8011082809154
:103DF0006F06882311F0809172068093B4000DC184
:103E0000815053968C93539793968C9193978823D4
:103E100009F069C0E801CC0FDD1FCE0DDF1D89A1BF
:103E20009AA10196880F991FED8DFE8DE80FF91F5D
:103E300085919491282F277094962C939497AC0198
:103E4000E3E056954795EA95E1F79A01369527956F
:103E5000892F99278695869595968C9395972F739C
:103E6000F7018281289F202D112493962C939397FC
:103E7000F801ED58F94F4170408389A19AA101964C
:103E80009AA389A35F962C915F9730E082179307DE
:103E900050F190968C919097882329F0281B310936
:103EA0003AA329A320C06623F1F455961C92559796
:103EB00053961C9253971AA219A256961C92F80177
:103EC000EE58F94F1082F801EF58F94F1082F801BF
:103ED000E159F94F108280916F06882311F080918B
:103EE00072068093B400F701E00FF11F83A18150A7
:103EF00083A336893F5F368B428925A1240F8285B3
:103F0000280F618D662311F4D22E0CC0832F9927C0
:103F100087FD909570E00E94ED29828D869FD02CC0
:103F20001124D20EF701E00FF11F2489678966235F
:103F300071F0772767FD7095832F992787FD9095FE
:103F40000E94ED29808D869F802D1124280FF70176
:103F5000E00FF11F638D662389F0832F992787FD7A
:103F6000909570E00E94ED29CB0162E070E00E9424
:103F7000ED29948D899F802D1124280F4F3331F026
:103F8000822F2A300CF089E0482F87FD40E0F8941A
:103F90008D2D992787FD9095849664E270E00E94AC
:103FA000ED29E82FFF27E7FDF095E857F64FE4915C
:103FB000D801A059B94FEC93F701E00FF11F26A1EA
:103FC00030E084A1992787FD9095B901689F900101
:103FD000699F300D789F300D1124F701838190E0A7
:103FE000B901689F9001699F300D789F300D1124B1
:103FF000842F992787FD9095FC012E9FC0012F9F4C
:10400000900D3E9F900D1124F801EF58F94F8083D9
:104010000E58194FF80180837894DF91CF911F914A
:104020000F91FF90EF90DF90089560E00E94C11E15
:10403000089560917106662381F180916E068F5F0D
:1040400080936E0690917006891738F130E0809168
:104050006F06882309F431E030936F0610926E06E4
:10406000809173068823A9F08091C10223E4829F86
:10407000C0011124895B8093C10290E070E00E942E
:10408000D9298093720605C0809172068093B4008E
:1040900008953323C9F780E0F9CF08951F920F9256
:1040A0000FB60F9211242F933F934F935F936F930B
:1040B0007F938F939F93AF93BF93EF93FF930E9450
:1040C0001920FF91EF91BF91AF919F918F917F91B7
:1040D0006F915F914F913F912F910F900FBE0F9075
:1040E0001F90189560E879E040E00E94D91C08957F
:1040F00068E779E040E00E94D91C089562E779E022
:1041000040E00E94D91C0895FC01862F648170E074
:104110006F5F7F4F992787FD90950E94ED298383DC
:1041200008950F93FC0181E0828384E086A38CEAEA
:1041300099E096878587CF0161E040E020E000E0CC
:104140000E946E1D83E061E070E00E943223E1EB8B
:10415000F0E08081887F81608083F89410928000F5
:10416000E1E8F0E01082109285001092840088E16E
:1041700091E090938900809388008081886080839B
:10418000808181608083EFE6F0E0808182608083BF
:1041900078940F9108950F931F93CF93DF93BC01F1
:1041A0008230910510F462E070E0E0917F06F091BA
:1041B0008006A0E0B0E040E050E024C08081918122
:1041C00086179707D0F08617970771F4828193813D
:1041D000109729F013969C938E9312972CC090936E
:1041E000800680937F0627C04115510519F084177A
:1041F000950718F4EF018D01AC01DF0182819381F5
:104200009C01F9013097D1F641155105F9F0CA0129
:10421000861B970B8430910580F48A819B81011560
:10422000110521F0F8019383828304C090938006E6
:1042300080937F06FE01329645C0FE01E80FF91F0C
:10424000619371930297998388833CC080917D0626
:1042500090917E06892B41F48091C4029091C50211
:1042600090937E0680937D064091C6025091C702CE
:104270004115510541F44DB75EB78091C20290914E
:10428000C302481B590B20917D0630917E062417EE
:104290003507B0F4CA01821B930B8617970780F08D
:1042A000AB014E5F5F4F8417950750F0420F531FCD
:1042B00050937E0640937D06F9016193719302C08D
:1042C000E0E0F0E0CF01DF91CF911F910F910895D1
:1042D000CF93DF939C01009709F48FC0EC012297E4
:1042E0001B821A8260917F067091800661157105AC
:1042F00081F488819981820F931F20917D063091EE
:104300007E062817390739F5D0937E06C0937D06BF
:1043100074C0DB0140E050E0AC17BD0708F1BB837F
:10432000AA83FE0121913191E20FF31FAE17BF075F
:1043300079F48D919C911197280F391F2E5F3F4F73
:104340003983288312968D919C9113979B838A833E
:104350004115510571F4D0938006C0937F064DC07E
:1043600012968D919C911397AD01009711F0DC018D
:10437000D3CFDA011396DC93CE931297FA012191F1
:104380003191E20FF31FCE17DF0769F4888199811D
:10439000280F391F2E5F3F4FFA01318320838A8116
:1043A0009B8193838283E0E0F0E0DB0112968D91A4
:1043B0009C911397009719F0BC01FD01F6CFAB015A
:1043C0004E5F5F4FDB018D919C91840F951F209173
:1043D0007D0630917E062817390779F4309729F445
:1043E0001092800610927F0602C013821282425001
:1043F000504050937E0640937D06DF91CF91089503
:104400001F920F920FB60F9211242F933F938F9309
:104410009F93AF93BF938091780690917906A09176
:104420007A06B0917B0630917C060196A11DB11DE4
:10443000232F2D5F2D3720F02D570196A11DB11D83
:1044400020937C068093780690937906A0937A0651
:10445000B0937B068091740690917506A0917606C4
:10446000B09177060196A11DB11D809374069093BB
:104470007506A0937606B0937706BF91AF919F9192
:104480008F913F912F910F900FBE0F901F90189515
:104490008FB7F894209178063091790640917A068A
:1044A00050917B068FBFB901CA0108959FB7F89458
:1044B00020917406309175064091760650917706EA
:1044C00086B5A89B06C08F3F21F02F5F3F4F4F4F0F
:1044D0005F4F9FBF542F432F322F2227280F311DAC
:1044E000411D511D82E0220F331F441F551F8A9525
:1044F000D1F7B901CA0108959B01AC017FB7F894C7
:104500008091740690917506A0917606B091770619
:1045100066B5A89B05C06F3F19F00196A11DB11D9E
:104520007FBFBA2FA92F982F8827860F911DA11D15
:10453000B11D62E0880F991FAA1FBB1F6A95D1F7B2
:10454000BC012DC0FFB7F894809174069091750658
:10455000A0917606B0917706E6B5A89B05C0EF3F1F
:1045600019F00196A11DB11DFFBFBA2FA92F982FD9
:1045700088278E0F911DA11DB11DE2E0880F991FA4
:10458000AA1FBB1FEA95D1F7861B970B885E934045
:10459000C8F2215030404040504068517C4F2115B6
:1045A00031054105510571F60895789484B582600E
:1045B00084BD84B5816084BD85B5826085BD85B5C7
:1045C000816085BDEEE6F0E0808181608083E1E876
:1045D000F0E01082808182608083808181608083AE
:1045E000E0E8F0E0808181608083E1EBF0E08081B1
:1045F00084608083E0EBF0E0808181608083EAE783
:10460000F0E080818460808380818260808380810B
:10461000816080838081806880831092C1000895CA
:10462000982F8E3008F09E5097708091C802829526
:10463000880F880F807C892B80937C0080917A0082
:10464000806480937A0080917A0086FDFCCF20916F
:10465000780040917900942F80E030E0282B392BAE
:10466000C90108951F93CF93DF93182FEB0161E0E9
:104670000E949223209709F44AC0CF3FD10509F444
:1046800049C0E12FF0E0E250F64F84918330C1F051
:10469000843028F4813051F08230B1F50CC086307E
:1046A00019F1873049F1843079F514C084B58068F8
:1046B00084BDC7BD33C084B5806284BDC8BD2EC073
:1046C00080918000806880938000D0938900C0939F
:1046D000880024C080918000806280938000D09305
:1046E0008B00C0938A001AC08091B00080688093CC
:1046F000B000C093B30012C08091B000806280937C
:10470000B000C093B4000AC0C038D1051CF4812F9A
:1047100060E002C0812F61E00E94D123DF91CF9140
:104720001F910895CF93DF93482F50E0CA0186511F
:10473000964FFC0134914A52564FFA0184918823D6
:1047400069F190E0880F991FFC01E854F64FA5919C
:10475000B491FC01EE53F64FC591D491662351F408
:104760002FB7F8948C91932F909589238C938881FF
:1047700089230BC0623061F42FB7F8948C91932F8A
:10478000909589238C938881832B88832FBF06C0C3
:104790009FB7F8948C91832B8C939FBFDF91CF911F
:1047A0000895482F50E0CA018250964FFC01249191
:1047B000CA018651964FFC0194914A52564FFA0114
:1047C0003491332309F440C0222351F1233071F096
:1047D000243028F42130A1F0223011F514C0263005
:1047E000B1F02730C1F02430D9F404C080918000AA
:1047F0008F7703C0809180008F7D8093800010C0F0
:1048000084B58F7702C084B58F7D84BD09C0809147
:10481000B0008F7703C08091B0008F7D8093B0008F
:10482000E32FF0E0EE0FFF1FEE53F64FA591B4918A
:104830002FB7F894662321F48C919095892302C0B8
:104840008C91892B8C932FBF0895682F70E0CB013A
:104850008250964FFC012491CB018651964FFC016A
:1048600044916A52764FFB019491992319F420E008
:1048700030E03CC0222351F1233071F0243028F481
:104880002130A1F0223011F514C02630B1F02730CC
:10489000C1F02430D9F404C0809180008F7703C028
:1048A000809180008F7D8093800010C084B58F77C9
:1048B00002C084B58F7D84BD09C08091B0008F7720
:1048C00003C08091B0008F7D8093B000892F90E06D
:1048D000880F991F8453964FFC01A591B4918C9138
:1048E00020E030E0842311F021E030E0C901089598
:1048F000CF93DF930E94D5220E944211C0E0D0E006
:104900000E94E8052097E1F30E940000F9CFCF92C2
:10491000DF92EF92FF920F931F93CF93DF937C016F
:104920006B018A01C0E0D0E00FC0D6016D916D012E
:10493000D701ED91FC910190F081E02DC70109951F
:10494000C80FD91F015010400115110571F7CE0194
:10495000DF91CF911F910F91FF90EF90DF90CF905B
:104960000895EF92FF920F931F93CF93DF937C01F3
:104970008B01C0E0D0E0F8010F5F1F4F6491662308
:1049800059F0D701ED91FC910190F081E02DC70124
:104990000995C80FD91FEFCFCE01DF91CF911F919D
:1049A0000F91FF90EF900895DC01ED91FC91019043
:1049B000F081E02D09950895EF92FF920F931F93D8
:1049C0008C01DC01ED91FC910190F081E02D6DE016
:1049D00009957C01D801ED91FC910190F081E02DC9
:1049E000C8016AE009959C012E0D3F1DC9011F9168
:1049F0000F91FF90EF900895EF92FF920F931F9306
:104A00007C010E94B1248C01C7010E94DC249C011E
:104A1000200F311FC9011F910F91FF90EF90089552
:104A2000CF93DF93EC016115710519F420E030E0BC
:104A30000FC0DB010D900020E9F71197A61BB70B03
:104A4000E881F9810280F381E02DAD0109959C0197
:104A5000C901DF91CF9108954F925F927F928F921B
:104A60009F92AF92BF92CF92DF92EF92FF920F93FD
:104A70001F93DF93CF93CDB7DEB7A1970FB6F8940E
:104A8000DEBF0FBECDBF2C01742ECB01223008F447
:104A90002AE019A231E2C32ED12CCC0EDD1E822ECB
:104AA0009924AA24BB24672D752FA50194010E9487
:104AB000002A79018A01C801B701A50194010E9469
:104AC000AE29472D461B0894C108D1084A3014F47A
:104AD000405D01C0495CF6014083E114F104010529
:104AE000110521F07E2C5F2DC801DDCFC201B6017A
:104AF0000E941025A1960FB6F894DEBF0FBECDBF61
:104B0000CF91DF911F910F91FF90EF90DF90CF90A9
:104B1000BF90AF909F908F907F905F904F9008953F
:104B2000CF92DF92EF92FF920F931F93CF93DF9379
:104B3000EC016A017B012115310541F4E881F9811D
:104B40000190F081E02D642F09951FC02A303105B6
:104B5000D1F477FF17C0E881F9810190F081E02D51
:104B60006DE209958C0144275527BA014C195D095E
:104B70006E097F09CE012AE00E942C259801280F9A
:104B8000391F04C02AE00E942C259C01C901DF9135
:104B9000CF911F910F91FF90EF90DF90CF900895EC
:104BA000EF92FF920F931F937B019A010027F7FC6E
:104BB0000095102FB801A7010E9490251F910F9119
:104BC000FF90EF9008950E94102508952F923F9234
:104BD0004F925F926F927F928F929F92AF92BF920D
:104BE000CF92DF92EF92FF920F931F93DF93CF93B9
:104BF000CDB7DEB73B014C0119012A016D897E89D1
:104C00008F89988D6A197B098C099D09621A730A2C
:104C1000840A950AA40193010E94AE29E218F308C0
:104C200004091509A80197010E94222A2A0D3B1D9B
:104C30004C1D5D1DB901CA01CF91DF911F910F91EC
:104C4000FF90EF90DF90CF90BF90AF909F908F90AC
:104C50007F906F905F904F903F902F900895EF92CC
:104C6000FF920F931F937B018C01611571058105E4
:104C7000910529F420E030E040E050E00BC00E94B4
:104C80008805A80197010E94222AAC01CB01DA0114
:104C90009C01AD01B901CA011F910F91FF90EF90E6
:104CA0000895009729F0BC0180E090E00E948D05F6
:104CB0000895DC01FB0114968D919C911597892B29
:104CC00031F461157105A9F090E0808108C00D9064
:104CD000BC91A02D6115710529F490E08C91882379
:104CE00049F407C0CD010E949F059C0190E0232B51
:104CF00009F491E0892F08950F931F93CF93DF93C9
:104D0000EC018B016F5F7F4F888199810E941E2784
:104D1000009711F480E005C0998388831B830A8380
:104D200081E0DF91CF911F910F910895CF93DF9391
:104D3000EC0188819981892B29F08A819B818617D2
:104D4000970760F4CE010E947C26882341F08C8175
:104D50009D81892B19F4E881F981108281E0DF912E
:104D6000CF910895CF93DF93EC01888199810097CB
:104D700011F00E946821198218821D821C821B82F8
:104D80001A82DF91CF910895EF92FF920F931F93B4
:104D9000CF93DF93EC017B018A01BA010E94962632
:104DA000882321F4CE010E94B22607C01D830C8304
:104DB00088819981B7010E94A805CE01DF91CF912A
:104DC0001F910F91FF90EF900895CF93DF93EC0127
:104DD000198218821B821A821D821C821E82611512
:104DE000710551F0DB010D900020E9F71197A61B2A
:104DF000B70BAD010E94C426DF91CF9108950F93A8
:104E00001F93182F092F6115710559F0DB010D90C3
:104E10000020E9F71197A61BB70BAD010E94C4262D
:104E200002C00E94B226812F902F1F910F910895EA
:104E3000FC01808191810E94682108956F927F9288
:104E40008F929F92AF92BF92CF92DF92EF92FF929A
:104E50000F931F93CF93DF938C01009729F4CB011D
:104E60000E94CB208C01BBC08EEFE82E8FEFF82E76
:104E7000E00EF11E4801860E971E8E149F0408F462
:104E8000ACC0D7014D915C91119746175707B8F008
:104E90004530510508F4A3C0CA0104978617970747
:104EA00008F49DC042505040461B570BF4014193FB
:104EB00051936D937C93CF010E94682190C05B0158
:104EC000A41AB50A3801640E751EA0917F06B09130
:104ED0008006CC24DD24E0E0F0E047C0A615B7054D
:104EE000A9F5CD91DC911197CE0102968A159B050B
:104EF00068F1CE018A199B09029612962C9112979D
:104F000013963C91059758F0F40122833383CA1914
:104F1000DB09D183C083D7016D937C9309C04E5FB9
:104F20005F4F4C0F5D1FF70151834083C901FC01A6
:104F3000C114D10431F0D6011396FC93EE9312976D
:104F40004EC0F0938006E0937F0649C08D919C91FE
:104F50001197E817F90708F4FC016D0112968C917E
:104F6000129713969C919C01D901109709F0B6CF26
:104F700080917D0690917E0686159705E9F4E617E7
:104F8000F707D0F42091C6023091C70221153105F0
:104F900041F42DB73EB78091C2029091C302281B05
:104FA000390B82169306C8F490927E0680927D0695
:104FB000F7017183608313C0CB010E94CB20EC0109
:104FC000009759F0D7014D915C91B8010E94960568
:104FD000C8010E9468218E0102C000E010E0C801F3
:104FE000DF91CF911F910F91FF90EF90DF90CF90C5
:104FF000BF90AF909F908F907F906F90089571D0E9
:1050000008F481E0089504D06894B111D9C00895DE
:10501000BCD088F09F5790F0B92F9927B751A0F0D6
:10502000D1F0660F771F881F991F1AF0BA95C9F73C
:1050300012C0B13081F0C3D0B1E00895C0C0672F75
:10504000782F8827B85F39F0B93FCCF386957795EC
:105050006795B395D9F73EF49095809570956195D5
:105060007F4F8F4F9F4F0895E89409C097FB3EF400
:1050700090958095709561957F4F8F4F9F4F9923A5
:10508000A9F0F92F96E9BB279395F6958795779523
:105090006795B795F111F8CFFAF4BB0F11F460FFE3
:1050A0001BC06F5F7F4F8F4F9F4F16C0882311F03B
:1050B00096E911C0772321F09EE8872F762F05C04F
:1050C000662371F096E8862F70E060E02AF09A95EA
:1050D000660F771F881FDAF7880F9695879597F9DF
:1050E0000895990F0008550FAA0BE0E8FEEF161679
:1050F0001706E807F907C0F012161306E407F507CC
:1051000098F0621B730B840B950B39F40A2661F03F
:10511000232B242B252B21F408950A2609F4A140E2
:10512000A6958FEF811D811D089597F99F6780E8EF
:1051300070E060E008959FEF80EC089500240A94E9
:105140001616170618060906089500240A94121662
:105150001306140605060895092E0394000C11F495
:10516000882352F0BB0F40F4BF2B11F460FF04C042
:105170006F5F7F4F8F4F9F4F089557FD9058440F9B
:10518000551F59F05F3F71F04795880F97FB991FA6
:1051900061F09F3F79F08795089512161306140663
:1051A000551FF2CF4695F1DF08C0161617061806F0
:1051B000991FF1CF86957105610508940895E894CB
:1051C000BB2766277727CB0197F908950BD0C4CF6B
:1051D000B5DF28F0BADF18F0952309F0A6CFABCFE2
:1051E0001124EECFCADFA0F3959FD1F3950F50E0C5
:1051F000551F629FF001729FBB27F00DB11D639F89
:10520000AA27F00DB11DAA1F649F6627B00DA11D2E
:10521000661F829F2227B00DA11D621F739FB00DD4
:10522000A11D621F839FA00D611D221F749F332744
:10523000A00D611D231F849F600D211D822F762FDD
:105240006A2F11249F5750408AF0E1F088234AF0DA
:10525000EE0FFF1FBB1F661F771F881F9150504026
:10526000A9F79E3F510570F060CFAACF5F3FECF3E6
:10527000983EDCF3869577956795B795F795E79512
:105280009F5FC1F7FE2B880F911D9695879597F923
:10529000089511F40EF44FCF4AC077DFD0F399236D
:1052A000D9F3CEF39F57550B87FF51D0569597955D
:1052B000B0E020F4660F771F881FBB1F1F930F936A
:1052C00000249001A0018001F001A0E80E0F1F1F33
:1052D0000A1E511D601B710B8009B50B48F4600F4D
:1052E000711F801DB51F0E1B1F0B0A0A510907C035
:1052F0002E0F3F1F4A1F0E0F1F1F0A1E511D660F44
:10530000771F881FBB1FA695F795E795F8F6061738
:10531000170708065B07211D311D411D0F911F91C5
:10532000B901842F9158880F9695879508959F3FCE
:1053300049F0915028F4869577956795B7959F5FCA
:1053400080389F4F880F9695879597F908959150CB
:105350005040660F771F881FD2F70895629FD001D3
:10536000739FF001829FE00DF11D649FE00DF11D20
:10537000929FF00D839FF00D749FF00D659FF00DCF
:105380009927729FB00DE11DF91F639FB00DE11DBC
:10539000F91FBD01CF0111240895991B79E004C0C4
:1053A000991F961708F0961B881F7A95C9F7809564
:1053B0000895AA1BBB1B51E107C0AA1FBB1FA6175C
:1053C000B70710F0A61BB70B881F991F5A95A9F7AE
:1053D00080959095BC01CD01089597FB092E072675
:1053E0000AD077FD04D0E5DF06D000201AF47095CE
:1053F00061957F4F0895F6F7909581959F4F089599
:10540000A1E21A2EAA1BBB1BFD010DC0AA1FBB1FC8
:10541000EE1FFF1FA217B307E407F50720F0A21B3A
:10542000B30BE40BF50B661F771F881F991F1A94A7
:1054300069F760957095809590959B01AC01BD01D1
:10544000CF01089597FB092E05260ED057FD04D0F5
:10545000D7DF0AD0001C38F450954095309521953F
:105460003F4F4F4F5F4F0895F6F790958095709599
:1054700061957F4F8F4F9F4F0895EE0FFF1F05904F
:10548000F491E02D09942F923F924F925F926F9288
:105490007F928F929F92AF92BF92CF92DF92EF92C4
:1054A000FF920F931F93CF93DF93CDB7DEB7CA1B45
:1054B000DB0B0FB6F894DEBF0FBECDBF09942A8870
:1054C000398848885F846E847D848C849B84AA8418
:1054D000B984C884DF80EE80FD800C811B81AA81A5
:1054E000B981CE0FD11D0FB6F894DEBF0FBECDBF70
:1054F000ED0108951AE0C4E1DAE004C0FE010E9463
:0E5500003F2A2296C631D107C9F7F894FFCF93
:10550E00006E657767616D65006E65776C657665B3
:10551E006C006E65776C6966650063686173650023
:10552E0072756E6E696E670067616D656F76657216
:10553E00007469746C650073636174746572002025
:10554E00204C415354202020202020202020484948
:10555E0047480020413A20504C415920202020201D
:10556E00433A20515549540047414D45204F564529
:10557E0052005052455353204220544F20434F4E19
:10558E0054494E5545004C4F4144455200010000D0
:10559E0000FFFF0100E0FF2000FFFF010000000000
:1055AE000000000000FFFF01000100FFFF000000EF
:1055BE0000000000000100FFFF00000000000000DE
:1055CE00007FF9FFE0420904204209042042090449
:1055DE0020FFFFFFFE42402420424024207E79E738
:1055EE00E0020004000200040002000400020004B5
:1055FE000002000400020004000200040002000485
:10560E00000200040002000400020004007FF9FF03
:10561E00E0420904204209042073F9FCE012402400
:10562E0080124024807E79E7E04009002040090086
:10563E00207FFFFFE00000000000000000FFFFFFE2
:10564E00FFFFFFFFFF8006001FBDF6FBDFBDF6FB71
:10565E00DFBDF6FBDF8000001FBDBFDBDFBDBFDBA4
:10566E00DF8186181FFDF6FBFFFDF6FBFFFD801B9D
:10567E00FFFDB9DBFFFDB9DBFE0030C007FDBFDB70
:10568E00FFFDBFDBFFFD801BFFFDBFDBFFFDBFDBB3
:10569E00FF8006001FBDF6FBDFBDF6FBDF8C0003AF
:1056AE001FEDBFDB7FEDBFDB7F8186181FBFF6FFCF
:1056BE00DFBFF6FFDF8000001FFFFFFFFFFFFFFFD2
:1056CE00FF018000810600000100000000E4168743
:0256DE002400A6
:00000001FF
