:100000000C942E020C9456020C9456020C94560238
:100010000C9456020C9456020C9456020C94560200
:100020000C9456020C9456020C9456020C94C31471
:100030000C9456020C9456020C9456020C945602E0
:100040000C94E3180C9456020C9456020C9456022D
:100050000C9456020C9456020C9456020C945602C0
:100060000C9434170C945602D600E4004E6F206DA9
:10007000617374657200536C6176652064697363A3
:100080006F6E6E65637465640057726F6E67207380
:100090006C61766520646174610031206D617374F8
:1000A0006572206D617800536C61766520706175B2
:1000B0007365640020736C6176652000206D617348
:1000C0007465722000506F6E67204D756C74697096
:1000D0006C6179657200486F737420286D61737468
:1000E000657229004A6F696E2028736C61766529F4
:1000F000003F213F0A100A1208120E1C0E0C1E0CA3
:10010000141A14161F161E131E1E1B1E1E1F1E3F22
:10011000213F3A2F3A173D173F213F181F02040A8B
:10012000041F0E04040E1F0A1F0A0E0E1F04110ED8
:100130002E252E2F2A2E262929021F02081F0815D8
:100140000E04040E150E15151B151B040604040CD5
:10015000040000000017000300031F0A1F16371ACF
:100160001904130A153A000300000E11110E000ABB
:10017000040A040E040030000404040010001804F3
:10018000030E110E121F1012191611150B07041F62
:100190001715090E15091905031A150B12150E006E
:1001A0000A00003200040A110A0A0A110A040115A1
:1001B000020E11171E051E1F150A0E110A1F110E21
:1001C0001F15111F05010E111D1F041F111F1108FE
:1001D000100F1F041B1F10101F061F1E040F0E11EF
:1001E0000E1F09060E112E1F051A121509011F01F7
:1001F0001F101F0F180F1F0C1F1B041B031C0319BC
:100200001513001F11030418111F00020102202002
:10021000200001020C121E1F120C0C12120C121FD5
:100220000C1A14041E05242A1E1F021C141D102063
:10023000201D1F0814111F101E041E1E021C0C126C
:100240000C3E0A040C123E1E040214160A020F127F
:100250000E101E0E100E1E081E120C1226281E3224
:100260002A26041E21001F00211E040102013F2135
:100270003F0A4E6F2053442063617264206F720AFC
:100280006E6F204C4F414445522E4845580A0A157E
:100290003A45786974004C6F6164696E672E2E2E42
:1002A0000A446F204E4F54207475726E206F66663C
:1002B00021004E4F20424154544552590A0A504C95
:1002C000454153450A5455524E204F464600177338
:1002D00061766500166261636B0015747970650064
:1002E0000A0A0A153A6F6B617920163A65646974D7
:1002F00000596F7520656E74657265640A00540A52
:1003000003E181867F3E186D830F0F0E01838660A7
:1003100033186DC3198F1803C38E6033186DE33023
:10032000CF1803C39E603630CDE360CF3006C79E42
:100330007E3E30CDB360CF300CC6F6603330D9B6D8
:1003400060CF33CFCCF66061B0DB1E60CF30D86CAD
:10035000E6C061B0DB1E618F19986CC6C063B19BAB
:100360000E330F0FB078C6FF7E1F1B061E0F101C2A
:100370003C00420E911B99159D119915911F420E3B
:100380003C0000000000000E0017001100150011D5
:10039000001F000E000000007800840EFFDFC05137
:1003A000C0578091809FFF8E0000050089300802B1
:1003B0003802497868140000F603FA034500680122
:1003C00000000500680138010000050038016801DF
:1003D0000000F6E8DBCFC3B8AEA49B928A827B74A0
:1003E0006E68625C57524E4945413E3A3734312E71
:1003F0002C29272523210101F7030101FF03000018
:100400000000240027002A0000000000250028002A
:100410002B0000000000230026002900040404042F
:10042000040404040202020202020303030303039E
:10043000010204081020408001020408102001027B
:100440000408102000000007000201000003040659
:1004500000000000000000005802AB1511241FBE70
:10046000CFEFD8E0DEBFCDBF11E0A0E0B1E0EEE31A
:10047000FEE302C005900D92AE32B107D9F714E049
:10048000AEE2B1E001C01D92A038B107E1F714E07F
:10049000CCE5D4E004C02297FE010E94811EC8353D
:1004A000D107C9F70E94111B0C941D1F0C9400006A
:1004B000EEE2F1E089E7DF011D928A95E9F71092FB
:1004C0007601109275018AE191E090937401809316
:1004D000730180910D01992787FD9095E0E3F0E08D
:1004E0009F01281B390BC90162E070E00E942F1E9A
:1004F0006093AA0184E590910F01891B8093AD015F
:1005000080911001992787FD9095DF01A81BB90BF9
:10051000CD0162E070E00E942F1E6093AE018091D9
:100520000E018093AF0120911101332727FD3095F3
:1005300084E590E0821B930B62E070E00E942F1E26
:100540006093B101CF01821B930B62E070E00E94C7
:100550002F1E6093B20108958F929F92AF92BF9227
:10056000CF92DF92EF92FF920F931F9380910B0136
:10057000882309F043C18091B10190911201890F44
:100580008093B101909113018091B201890F809302
:10059000B20187FF07C091959093130183E591E025
:1005A0000E94F31420911101332727FD309580918B
:1005B000B201992787FD9095280F391F2133310506
:1005C0004CF08091130181958093130183E591E0B4
:1005D0000E94F31400911101112707FD10956091FD
:1005E000B101772767FD70954091B201552747FD0E
:1005F0005095E090AB01FF24E7FCF094C090AA0175
:10060000DD24C7FCD094A0900C01BB24A7FCB094BF
:1006100080900D01992487FC90948EE291E09801DE
:100620000E94BA0D882381F080910C019091AB015A
:10063000890F8093B10180911201819580931201FD
:1006400083E591E00E94F31400911101112707FD49
:1006500010956091B101772767FD70954091B201C7
:10066000552747FD5095E090AD01FF24E7FCF0943D
:10067000C090AE01DD24C7FCD094A0900F01BB2434
:10068000A7FCB09480901001992487FC90948EE28E
:1006900091E098010E94BA0D882381F08091AD010C
:1006A00090911101891B8093B10180911201819574
:1006B0008093120183E591E00E94F3148091B101CF
:1006C00087FF40C08091B0018F5F8093B00183E5C8
:1006D00091E00E94ED1420911101332727FD309500
:1006E00084E590E0821B930B62E070E00E942F1E75
:1006F0006093B10160E070E080E090E022E030E0E3
:1007000040E050E00E94B51C26E030E040E050E0C0
:100710000E94F01D6350609312018091110199278E
:1007200087FD909520E330E0281B390B442737FDE7
:100730004095542F60E070E080E090E00E94B51C8E
:100740006093B20120911101332727FD30958091EC
:10075000B101992787FD9095280F391F253531055F
:100760000CF440C08091AC018F5F8093AC0183E5B5
:1007700091E00E94ED1420911101332727FD30955F
:1007800084E590E0821B930B62E070E00E942F1ED4
:100790006093B10160E070E080E090E022E030E042
:1007A00040E050E00E94B51C26E030E040E050E020
:1007B0000E94F01D635060931201809111019927EE
:1007C00087FD909520E330E0281B390B442737FD47
:1007D0004095542F60E070E080E090E00E94B51CEE
:1007E0006093B2018091AC018A3020F48091B00115
:1007F0008A3020F01092AC011092B0011F910F913D
:10080000FF90EF90DF90CF90BF90AF909F908F9030
:100810000895EF92FF920F9383E7E82E81E0F82E80
:10082000C70162E00E94DB0BC7016FE040E10E945C
:10083000D70BC7016091AC014AE050E00E94381C20
:10084000C70169E340E10E94D70BC7016091B00185
:100850004AE050E00E94381CC70161E00E94DB0BB7
:1008600000911101C7016091B1014091B201202FA7
:100870000E947208C7016091AB014091AA012091CA
:100880000C0100910D010E947208C7016091AD0139
:100890004091AE0120910F01009110010E94720859
:1008A0000F91FF90EF90089539C08DEF93E00E9473
:1008B00049158531F9F086312CF48A3041F08431C4
:1008C00069F50CC08E31E9F08F3141F521C08DEF13
:1008D00093E00E9449158093AE0120C08DEF93E014
:1008E0000E9449159091110191959C5A981B9093E3
:1008F000B10114C08DEF93E00E9449158093B201BD
:100900000DC08DEF93E00E9449158093B00106C0A1
:100910008DEF93E00E9449158093AC018DEF93E039
:100920000E944015892B09F681E08093A90110925D
:10093000A80108958AE08093B3018091AA01809371
:10094000B40180910B01882329F081E08093B301E9
:100950008093B4018091A701882329F082E08093DD
:10096000B3018093B40123EB31E0D9010D90002055
:10097000E9F71197A21BB30BE091FD03F091FE0381
:100980000280F381E02D8DEF93E0B901AD0109956F
:1009900008951F9310920B0110E016C061E070E003
:1009A00080E090E00E945F191F5F143169F48EE2CD
:1009B00091E06CE670E042E00E94190D81E08093C6
:1009C000A80180930B0104C08091A901882331F311
:1009D0001092A9011F9108950F931F930DEF13E03B
:1009E000C80162E070E00E946A16C80164E574E024
:1009F0000E94A115C8016AE974E00E94A6151F9122
:100A00000F9108950F931F930DEF13E0C80162E05B
:100A100070E00E943615C8016AE00E94F3156091EB
:100A2000AA01772767FD7095C8010E94F315C801D8
:100A300064E10E94F3156091B101772767FD70951D
:100A4000C8010E94F315C80165E10E94F315609189
:100A5000B201772767FD7095C8010E94F315C801A0
:100A60006EE10E94F315C8016091AC010E94F3157C
:100A7000C8016FE10E94F315C8016091B0010E94A6
:100A8000F315C8010E9436161F910F9108950F9318
:100A90001F938DEF93E062E070E042E050E00E942F
:100AA00047168823C1F11092A80110920B0101E0B2
:100AB0002BC08DEF93E00E944915182F8230B1F0C2
:100AC0008A3019F08130B9F407C08DEF93E00E94AD
:100AD00049158093AE0118C08EE291E067EA70E09C
:100AE00042E00E94190D10930B010EC08EE291E0BE
:100AF0006AE970E004C08EE291E069E870E042E0EB
:100B00000E94190D00930B018DEF93E00E94401598
:100B1000892B79F60CC08EE291E066E770E042E046
:100B20000E94190D81E080930B018093A8011F9111
:100B30000F9108950E9447050E94AC020E94020591
:100B400008958DEF93E00E944B1608951F93CF9365
:100B5000DF9311E010930B011092A7011092AC01EA
:100B60001092B0018EE291E068E670E042E00E94EF
:100B7000E40F882319F0813071F407C010920B0143
:100B80001092A8011093A70106C010920B011092B9
:100B9000A8011092A701C0E3D0E08EE291E00E948C
:100BA0002E0F8823D1F388E391E066E00E9450077E
:100BB000882309F05FC080910B018823F1F588E359
:100BC00091E061E041E00E945A07882399F080910A
:100BD000AA01282F332727FD309580910E019927F0
:100BE00087FD9095281B390B37FF02C020E030E0CD
:100BF0002093AA0188E391E063E041E00E945A0754
:100C00008823D9F080910D01992787FD9095AE0139
:100C1000481B590B80910E01282F332727FD309553
:100C20008091AA01992787FD9095280F391F2417D5
:100C300035070CF4A9014093AA0183E791E061E034
:100C40000E94DB0B8091A701882349F083E791E0A4
:100C50006CEB70E00E944A1B0E949A0508C083E773
:100C600091E064EB70E00E944A1B0E94C9040E945C
:100C7000090493CFDF91CF911F9108950F931F9394
:100C80000EE211E0C8010E941D12C80165EC70E07F
:100C90000E941812109246010E94A1050E94EC04C5
:100CA0001F910F910895882319F48CB5806202C0BA
:100CB0008CB58F7D8CBD08959CB5937F982B9CBD82
:100CC00008952CB5382F33702C7F322B3CBD2DB5B9
:100CD00090E0959587959595879581702E7F822BCD
:100CE0008DBD08958AE061E00E94AE1A8AE061E05D
:100CF0000E94421A8CB580618CBD8CB580648CBD1D
:100D00008DE061E00E94421A8BE061E00E94421A8D
:100D10000895FC0181E08083089585E070E00E94E1
:100D2000E21908956F927F928F929F92AF92BF9235
:100D3000CF92DF92EF92FF920F931F93CF93DF93A7
:100D4000EC0189819A818C0124E0000F111F2A9502
:100D5000E1F7081B190B85E10E94C019BC01600F67
:100D6000711F84E0769567958A95E1F77A836983A8
:100D70008881882381F12E813F816217730710F4E7
:100D8000B90106C0888599858617970708F4BC01C4
:100D900000D000D080E090E040E050E0E884F984AA
:100DA00000E010E0AD80BB24CC24DD246C807724EF
:100DB00088249924EDB7FEB761827282838294827F
:100DC0000E944A1C6B830F900F900F900F9085E04C
:100DD00070E00E94E219DF91CF911F910F91FF9077
:100DE000EF90DF90CF90BF90AF909F908F907F90CB
:100DF0006F900895FC018CE39FE09383828384E0ED
:100E0000818381E084870895CF93DF93EC018C8503
:100E100090E08F719070892B69F584E10E94C01970
:100E2000AA2797FDA095BA2FBC01CD010E94011DF4
:100E300026EE3FE34EEC50E40E948D1D0E94D31C31
:100E40009B01AC017B836A836115710589F084E0A5
:100E50008983B901FE0120E08481958168177907B3
:100E600010F429830AC02F5F32962430A9F702C0FC
:100E70008FEF89838C858F5F8C87DF91CF91089569
:100E8000FC0188E0808389E0818387E0828386E0BB
:100E9000838384E0848382E0858381E1868308956F
:100EA00020E0FC01E60FF11D8781813009F421E08B
:100EB000822F0895E62FF0E0423040F420E0E80F62
:100EC000F91F878181508E3F88F40FC0E80FF91F0A
:100ED00087818F3F11F420E009C020E090E0642F6B
:100EE00070E00E941B1E019709F421E0822F0895F3
:100EF0000F931F93CF93DF93EC0110E00FEF8881E6
:100F000062E00E94421A88810E94E11A2F81892B97
:100F100019F42F5F2F8307C0222349F02F3F11F4CC
:100F20001F8201C00F83888160E00E94421A1F5F08
:100F30002196173021F7DF91CF911F910F910895DE
:100F4000FC01618F628F0895FC01618F428F0895CB
:100F5000FC016435A8F547FD33C040338CF5818D25
:100F6000942F959595959595772767FD7095477082
:100F7000882399F0E4E59E02F0011124E60FF71FA3
:100F8000EB54FE4F81E090E002C0880F991F4A9514
:100F9000E2F72081282B20830895E4E59E02F001EA
:100FA0001124E60FF71FEB54FE4F81E090E002C0E2
:100FB000880F991F4A95E2F7809520812823208386
:100FC0000895AF92BF92CF92DF92EF92FF920F936C
:100FD0001F93CF93DF93EC01162FF42EE22EAA2459
:100FE000402F552747FD50958F2D992787FD9095C8
:100FF000481B590B57FF03C0509541955F4F2E2D4D
:10100000332727FD3095812F992787FD9095281B41
:10101000390B37FF03C0309521953F4F2417350713
:1010200044F4AA24A3948F2DF12E182F802F0E2D77
:10103000E82EE11634F48E2DE12E182F802F0F2D7F
:10104000F82EDE2CD11A202F332727FD30958F2D37
:10105000992787FD9095281B390B37FF03C03095E2
:1010600021953F4FB22EF0161CF0CC24CA9402C03A
:10107000CC24C3948D2DD7FC8F5F082F059511C00C
:10108000AA2021F0CE016F2D412F03C0CE01612F88
:101090004F2D0E94A8070B1907FF02C0FC0C0D0D75
:1010A0001F5FE1166CF7DF91CF911F910F91FF90B9
:1010B000EF90DF90CF90BF90AF9008950F93042FE3
:1010C000322F262F2150230F0E94E1070F91089500
:1010D0000F93362F042F0150020F232F0E94E10798
:1010E0000F9108959F92AF92BF92CF92DF92EF92AD
:1010F000FF920F931F93CF93DF936C01B62E942E24
:10110000A02EC0E0D0E0E62EFF24E7FCF094022FF2
:10111000112707FD10950E0D1F1D06C0C601492D94
:101120002A2D0E94680821966B2D6C0FCE018E0D22
:101130009F1D8017910794F3DF91CF911F910F911D
:10114000FF90EF90DF90CF90BF90AF909F90089569
:101150002F923F925F926F927F928F929F92AF9267
:10116000BF92CF92DF92EF92FF920F931F93DF9384
:10117000CF9300D000D000D0CDB7DEB79E838D8353
:10118000C62ED42EEE24E394E21A8EEF289F502C24
:101190001124842E8A94962E9A94A42EA394B62E6B
:1011A000B394F22E662423E0722E10E0C8018470FE
:1011B00090709A838983F801E270F070FC83EB836E
:1011C00098E0292E312C202231220170107054C059
:1011D000E7FC04C0FA94F2E05F0EE50C63948981A9
:1011E0009A81892B71F04F2D4D0D8D819E816B2D34
:1011F0000E94A8076F2D6C0D8D819E814A2D0E9443
:10120000A807EB81FC81EF2B71F04D2D4F198D81DB
:101210009E816B2D0E94A8076F2D6C0D8D819E8184
:10122000482D0E94A8072114310471F06C2D6F190C
:101230008D819E814A2D0E94A8074F2D4D0D8D81D5
:101240009E81692D0E94A8070115110571F06C2D72
:101250006F198D819E81482D0E94A8074D2D4F1931
:101260008D819E81692D0E94A807E70CF2E07F0E18
:101270008A949A94A394B3946F140CF4A9CF2696ED
:101280000FB6F894DEBF0FBECDBFCF91DF911F9197
:101290000F91FF90EF90DF90CF90BF90AF909F9015
:1012A0008F907F906F905F903F902F9008954F9216
:1012B0005F926F927F928F929F92AF92BF92CF92E6
:1012C000DF92EF92FF920F931F93CF93DF93EC0186
:1012D000A62E742E9E2DFF24F394F21A8EEF289FD3
:1012E000802C1124B42EBA9453E0C52ECE0CE22EDD
:1012F000DD2443E0942E10E031E0432E512C4022B7
:101300005122692E63940270107034C0F7FC04C03F
:10131000EA9482E0880EF80CD3944114510489F0C9
:101320006D2D6A0D472D4E192E2D220F260DCE0143
:101330000E9468086E2D6A0DCE014B2D2C2D0E9447
:1013400068080115110589F06A2D6D19472D4E1990
:101350002E2D220F260DCE010E9468086A2D6E19CF
:10136000CE014B2D2C2D0E946808F90C82E0980EBE
:10137000BA94C80EDE1454F2DF91CF911F910F91F1
:10138000FF90EF90DF90CF90BF90AF909F908F90A5
:101390007F906F905F904F9008957F928F929F9271
:1013A000AF92BF92CF92DF92EF92FF920F931F9373
:1013B0006C01962EA42EF22E7E2C760E1EEFE19E50
:1013C000102D1124812E820E672D282D0E945E087B
:1013D000B02EBA0CBA94C601672D4B2D282D0E9451
:1013E0005E08AE0C100FC601692D4A2D212F0E94F8
:1013F0006808F90CFA94C6016F2D4A2D212F0E941E
:101400006808C601672D4A2D2E2D01E00E94A8080C
:10141000FE18C6016F2D4A2D2E2D02E00E94A8084D
:10142000BE18C6016F2D4B2D2E2D04E00E94A8087A
:10143000C601672D4B2D2E2D08E00E94A8081F9194
:101440000F91FF90EF90DF90CF90BF90AF909F9063
:101450008F907F9008958F929F92AF92BF92CF927C
:10146000DF92EF92FF920F931F936C01162FA42E21
:10147000922EF02EBE2C8E2C860E2EEFE29EE02CAD
:1014800011242E2D290D682D0E947208AB0CFA94A0
:10149000FE0C1150190D1B19C601612F4A2D2B2D61
:1014A00001E0EF2C0E945709C601682D4A2D2B2D13
:1014B00002E00E9457091F910F91FF90EF90DF907B
:1014C000CF90BF90AF909F908F9008953F924F9292
:1014D0005F926F927F928F929F92AF92BF92CF92C4
:1014E000DF92EF92FF920F931F93CF93DF934C0104
:1014F000362E442EE901F901A4902196FE01549064
:1015000021978A2D992787FD9095079668E070E0CE
:101510000E942F1EC62EDD24C7FCD09400E072E08E
:10152000E72EF12C60E8662E712C26C0E12FE595A0
:10153000E595E595FF27E7FDF095EE0DFF1DEC0F16
:10154000FD1FE4912E2F30E0812F8770A30102C090
:10155000559547958A95E2F724233523232B31F0BF
:10156000612F630DC4014B2D0E94A8071F5F1A1540
:10157000ECF20F5FEC0CFD1C051524F410E0B02E0E
:10158000B40CF5CFDF91CF911F910F91FF90EF90A9
:10159000DF90CF90BF90AF909F908F907F906F9093
:1015A0005F904F903F9008952F923F924F925F929D
:1015B0006F927F928F929F92AF92BF92CF92DF9263
:1015C000EF92FF920F931F93DF93CF9300D00F9270
:1015D000CDB7DEB79B838A83562E742E422F102FF1
:1015E000FC01F18DF98383E586170CF489C0EFE2E5
:1015F000E7150CF485C0C02EDD249601220F331FA1
:101600002C0D3D1D862F992787FD9095820F931FE6
:10161000181619060CF074C0C901880F991F272DE0
:10162000332727FD3095820F931F181619060CF0EB
:1016300067C083E0489F10011124AA24B4E06B2EF8
:10164000F3E0AF1611F480E009C0EA2DFF27E7FDB3
:10165000F095E20DF31DEF50FF4F8491AC9C902C60
:101660001124950CBB24A6E08A2E4A2C450CE82EAA
:10167000FF2480FF16C0113041F44B2D470D8A81A5
:101680009B81642D0E94A8072CC0BC9C402D112476
:10169000470D8A819B81692D212F012F0E9472089D
:1016A00020C0EA81FB81928D818D9817D1F0918FB6
:1016B000113041F44B2D470D8A819B81642D0E948E
:1016C000A8070BC0BC9C402D1124470D8A819B812B
:1016D000692D212F012F0E9472088981EA81FB81E7
:1016E000818FB3948A9421F0F594E7948E2DBFCF27
:1016F000A3946A9409F0A4CF8981EA81FB81818F48
:101700000F900F900F90CF91DF911F910F91FF904D
:10171000EF90DF90CF90BF90AF909F908F907F9091
:101720006F905F904F903F902F9008950F93CF93BD
:10173000DF93EC01262F6A3031F48B8D26E0829FF7
:10174000C00111242AC06D3061F16F89488D0B8D65
:101750000E94D40A8B8D482F50E0CA01880F991F30
:10176000880F991F2F89280F2F8B8C8D8823C9F004
:10177000332727FD309585E190E0841B950B880F7A
:10178000991F880F991F821793075CF4CA01880F6D
:10179000991F840F951F880F991F288D280F288F58
:1017A0001F8A81E090E0DF91CF910F910895FC01B5
:1017B000678B408F0895FC01662309F461E0638F15
:1017C0000895FC01648F08951F93CF93DF93EC017C
:1017D000162FF894888560E00E94AE1A8985181645
:1017E0001CF460E00E94AE1A1EBD0DB407FEFDCFD2
:1017F0008EB5898518161CF461E00E94AE1A7894A3
:10180000DF91CF911F910895FF920F931F93CF9374
:10181000DF93EC01FF2400E010E06F2D6064CE0147
:101820000E94E40BCE0160E80E94E40B888561E031
:101830000E94AE1A898518161CF460E00E94AE1A48
:10184000F801EB54FE4F90E080818EBD0DB407FE91
:10185000FDCF8EB59F5F31969435B1F78985181607
:101860001CF461E00E94AE1AF3940C5A1F4F86E0FC
:10187000F81699F6CE0160E40E94E40BDF91CF9157
:101880001F910F91FF900895CF93DF93DC0188EFB4
:1018900091E0E5EBF1E0EF019C011992215030401D
:1018A000E1F757961C92579758961C92DF91CF916B
:1018B0000895EF920F93CF93DF93EC014F836E83E4
:1018C0002887EA86098781E08B8F898F1A8E8C8F13
:1018D0000E94720681E00E94530685E00E94610624
:1018E0008CE00E945C068F8161E00E94421A8E812A
:1018F00061E00E94421A888561E00E94421A8A854E
:1019000018161CF461E00E94421A898518161CF40E
:1019100061E00E94421A8A8518166CF460E00E9409
:10192000AE1A6AE070E080E090E00E945F198A855C
:1019300061E00E94AE1AEE812E2F332727FD3095ED
:10194000F901E45EFB4FE491F0E0EE0FFF1FE85F6A
:10195000FB4F859194919E878D87205D3B4FF901C8
:1019600084918C8BEF812E2F332727FD3095F90141
:10197000E45EFB4FE491F0E0EE0FFF1FE85FFB4FEA
:10198000859194919C878B87205D3B4FF9018491D1
:101990008B8BE9852E2F332727FD3095F901E45EE7
:1019A000FB4FE491F0E0EE0FFF1FE85FFB4F8591E6
:1019B0009491988B8F87205D3B4FF90184918D8B9B
:1019C000E8852E2F332727FD3095F901E45EFB4F84
:1019D000E491F0E0EE0FFF1FE85FFB4F85919491DB
:1019E0009A8B898B205D3B4FF90184918E8BCE01C0
:1019F00061E20E94E40BCE0164E10E94E40B8D8160
:101A000087FF02C08FE78D836D816068CE010E94E1
:101A1000E40BCE0160E20E94E40BCE016CE00E9478
:101A2000E40BCE010E94040CDF91CF910F91EF9057
:101A30000895FC01EA58FF4F61937193445F40831E
:101A40000895CF93DF93DC01E0E8FFE68591949160
:101A5000ED01C65BDF4F9D012E593F4F8150904CE9
:101A600009F04EC0E6E9FFE6E491E883E7E9FFE626
:101A7000E4911496EC931497E8E9FFE6E491159647
:101A8000EC931597E9E9FFE68591949117969C935D
:101A90008E931697EBE9FFE68591949119969C93A6
:101AA0008E931897EDE9FFE6E4919796EC9397975C
:101AB000EEE9FFE6E4919696EC939697EFE9FFE660
:101AC000E491E901E883E0EAFFE6859194915D966F
:101AD0009C938E935C97E2EAFFE6859194915F96E2
:101AE0009C938E935E97E4EAFFE68591949191969C
:101AF0009C938E939097E6EAFFE68591949133C08C
:101B000082E3888314961C92149780E815968C9330
:101B1000159780E293E017969C938E93169784ED29
:101B200093E019969C938E93189781E097968C93E7
:101B3000979796968C9396978FEFF90180838CEA0E
:101B40009DE05D969C938E935C978EED9DE05F96F5
:101B50009C938E935E9784E79EE091969C938E93E0
:101B600090978CE39FE093969C938E939297DF914E
:101B7000CF9108958F929F92AF92BF92CF92DF92B2
:101B8000EF92FF920F931F93DF93CF93CDB7DEB702
:101B90006E157F050CF452C0C5018E0D9F1D681790
:101BA00079070CF04BC04C155D050CF447C0C4011F
:101BB0008C0D9D1D481759078CF140C0C5018E0D35
:101BC0009F1D281739070CF043C04C155D050CF418
:101BD0003FC0C4018C0D9D1D48175907FCF038C04B
:101BE000C5018E0D9F1D68177907CCF54C155D0555
:101BF000B4F1C4018C0D9D1D481759077CF02FC00E
:101C0000AE0CBF1C2A153B055CF44C155D0544F079
:101C100080E08C0C9D1C481559051CF481E001C026
:101C200080E0CF91DF911F910F91FF90EF90DF90B7
:101C3000CF90BF90AF909F908F900895615070406B
:101C4000260F371F6F5F7F4F2E153F050CF0B6CF65
:101C500041505040400F511F6E157F050CF62E1558
:101C60003F0574F6DDCFEF92FF920F931F93CF9352
:101C7000DF937C018C010B5B1F4FC8010E94440C59
:101C8000C80166E972E00E944A1BC8010E94040C68
:101C900083E00E94610680E091E0EEEFFFE30995AA
:101CA00089E490E0E80EF91EF7011082C80161E7AF
:101CB00072E00E94951BC8010E94040CE701EF9797
:101CC000CE010E947807CE0164E00E94500788236D
:101CD00039F462E370E080E090E00E945F19F0CF99
:101CE000DF91CF911F910F91FF90EF9008950F9387
:101CF0001F93CF93DF93EC018C010B5B1F4FC80147
:101D000061E040E00E94A407C80161E540E00E9454
:101D1000D70B698D613061F1613028F0888D6530B5
:101D200008F03FC039C0CE0185960E94A412CE01B2
:101D300060E00E948D06C8010E94440CC80162EB5D
:101D400072E00E944A1BC8010E94040C83B7817F85
:101D5000846083BF83B7816083BF83B7816083BFA3
:101D6000889583B78E7F83BF83B78E7F83BF1FC065
:101D7000CD59DF4F88819981AA81BB818F70907086
:101D8000A070B0700897A105B10518F4C80167E00C
:101D90000CC0C80168E709C0882349F06B5FC8011F
:101DA00004C0882321F0C8016FE20E946D1BDF91FF
:101DB000CF911F910F910895CF92DF92EF92FF92F2
:101DC0000F931F93CF93DF93EC01C858DF4F8881A7
:101DD000C857D0408823C9F18C3010F010E002C001
:101DE0001CE0181B55E4C52ED12CCC0EDD1EC601FF
:101DF00061E00E94DB0BC60160E00E94A00747E2A1
:101E0000F42EF10EC60160E04F2D24E509E033E029
:101E1000E32E0E942B0AC60161E00E94A007C601C2
:101E200060E04F2D24E50E94CD09175DC60164E0F6
:101E3000412F0E94D70BCA58DF4F69917991C60193
:101E40000E944A1B888181508883DF91CF911F9126
:101E50000F91FF90EF90DF90CF900895AF92BF92D7
:101E6000CF92DF92EF92FF920F931F93CF93DF9366
:101E7000EC0172E7A72EB12CA80EB91EF501E08087
:101E8000F180028113810E942B19E61AF70A080BD0
:101E9000190B61E7C62ED12CCC0EDD1EF601808118
:101EA00090E0A0E0B0E08E159F05A007B10708F014
:101EB0007EC08E0103591F4FF80180819181A2815C
:101EC000B3810097A105B10509F471C00E942B19D7
:101ED000F6012081620F711D811D911DF501608346
:101EE000718382839383FE01ED59FF4F808191813D
:101EF000A281B3810196A11DB11D80839183A2832C
:101F0000B383F80110821182128213820E94391960
:101F1000C759DF4F688379838A839B83C956D04032
:101F2000CE010E949206CE010A960E947807CE0149
:101F300048960E9404078E010B5D1F4FC8010E9446
:101F4000E112C8010E94BF1381E026C0CE010E94A9
:101F5000DC0ECE010E94770E8E010B5B1F4FC80175
:101F60000E94040CC75BDF4F8881C954D04088238E
:101F700019F4C8010E94440C0E943919C359DF4F5B
:101F8000688379838A839B83249728813981621BA4
:101F9000730B7A936A9380E0DF91CF911F910F9139
:101FA000FF90EF90DF90CF90BF90AF900895C3590E
:101FB000DF4F88819981AA81BB81CD56D04000979F
:101FC000A105B10541F7C2CF2F923F924F925F9288
:101FD0006F927F928F929F92AF92BF92CF92DF9239
:101FE000EF92FF920F931F93DF93CF93CDB7DEB79E
:101FF00029970FB6F894DEBF0FBECDBF6C016D837D
:102000007E834C8329E430E0C20ED31EF601108299
:1020100027EB3FEFC20ED31EAAE08A2E912C8C0C28
:102020009D1CF5E26F2E712C6C0C7D1C3C81432EA7
:102030005524C201880F991F840D951D8095909598
:10204000E82FEE0FE98396012B5B3F4F39872887F6
:10205000FF2470E3372E22241B823FEF3A838C81CA
:1020600081508F83C6010E942E0F8823D9F3C401AB
:1020700064E00E945007882369F4C40165E00E946F
:102080005007882339F4C40166E00E945007882372
:1020900009F4CDC0C40164E00E945007882329F0F0
:1020A000C3010E94E714FA82C7C0C3010E94ED1465
:1020B000C3C0C40163E044E00E945A07882321F0B2
:1020C000F394C3010E94F314C40161E044E00E9450
:1020D0005A07882321F0FA94C3010E94F3148F2D2C
:1020E000992787FD90958415950511F4FF2402C06A
:1020F000F7FCFF80EF2DFAEFEF02C00111246AE038
:10210000262E280E28C0832D992787FD9095222DF5
:10211000332727FD3095821B930B0297D4F48A81D5
:1021200029960FB6F894DEBF0FBECDBFCF91DF91D9
:102130001F910F91FF90EF90DF90CF90BF90AF90E5
:102140009F908F907F906F905F904F903F902F90D7
:10215000089521E02B83822D992787FD9095232DCB
:10216000332727FD3095820F931F62E070E00E94B5
:102170002F1E362E8885998560E0432D0E94D70B4F
:102180008885998561E00E94DB0B8885998560E0F0
:102190000E94E10B2D813E81C9018C01EE24AF2C00
:1021A000BB24A7FCB0941BC08E2D90E08A159B0524
:1021B00061F4802F3D81831B482F440F480F430D4E
:1021C0008885998563E00E94D70BF8016591749129
:1021D000888599850E94951BE3940E5F1F4F8C8123
:1021E000E81610F38885998560E00E94A007EF2D1E
:1021F000F6E0EF02C0011124132D180F115088854D
:10220000998560E0412F24E50E945E0888859985C4
:1022100061E00E94A00711508885998560E0412FF8
:1022200024E509E053E0E52E0E94CD091BCF2B8168
:10223000222309F068CF3DCF298065CF2F923F92AE
:102240004F925F926F927F928F929F92AF92BF92C6
:10225000CF92DF92EF92FF920F931F93DF93CF9372
:1022600000D00F92CDB7DEB79B838A832B013A0152
:102270008C010E591F4FF8018081882309F4C2C0D8
:102280008A819B81875B9F4FFC011082E954F0405B
:10229000FB83EA83108E45E4E42EF12CEE0EFF1E44
:1022A000C70161E00E94A0073AE0832E912C8A8149
:1022B0009B81880E991E25E2A22EB12CA80EB91E74
:1022C000F201F491F983B3E6CB2ED12CC80ED91EBE
:1022D00018018A819B810E942E0F8823D1F3898166
:1022E000882311F400E001C006E0C70160E040E08F
:1022F0002EEF32E00E94660A6114710439F0045F27
:10230000C70160E0402F93010E94660AC70160E0A8
:102310004CE00E94D70BC701B2010E944A1BC701C3
:1023200064E444E12EE633E00E94660AC70160E0FF
:102330000E94A007F601808182FF07C0C70167E401
:1023400046E123E005E00E947208C70161E00E94B7
:10235000A007C40165E00E945007882351F0EA817C
:10236000FB8166A16F5FC5010E94F914C5010E943F
:10237000F314C70165E440E223E101E00E94D40ABE
:10238000C5010E940615882329F0C70169E440E2CF
:1023900024E105C0C70169E440E228E701E00E94AA
:1023A000D40AC40164E00E945007882391F4F1012B
:1023B0006081262F30E040E050E0F601808191817D
:1023C000A281B38182179307A407B50798F06F3FE6
:1023D00089F0C50160E00E949512C5010E94E714D2
:1023E00081E0EA81FB81808F0DC08A819B810E9400
:1023F000330E6FCFC40166E00E945007882309F4B2
:1024000068CFF3CF0F900F900F90CF91DF911F9176
:102410000F91FF90EF90DF90CF90BF90AF909F9083
:102420008F907F906F905F904F903F902F90089586
:1024300040E050E00E941E110895AF92BF92CF92EB
:10244000DF92EF920F93CF93DF936C0181E790E0DF
:10245000C80ED91E82E3F601808381E090E0A0E0FF
:10246000B0E0B293A293929382936F0185EF9FEFB6
:10247000C80ED91E8FEFF60180838EE99FEFC80E3C
:10248000D91EC6010E94210DC6010E948906C601FF
:1024900060E80E948D066AE0A62EB12CAC0CBD1C33
:1024A000C5010E944007C5010E947807C6014896F1
:1024B0000E94FA06C6018B5B9F4F6DE04BE020E166
:1024C0000FE05EE0E52E0E94590CE601A596CE01D4
:1024D0000E940915C50165E00E945007882329F074
:1024E000CE0160E00E94F91406C0CE016AEA73E0F2
:1024F00040E00E94DB12DF91CF910F91EF90DF90CF
:10250000CF90BF90AF900895FC01662369F41686C2
:102510001486138E128E17861092B1031092B00398
:102520001092AE031092B4000895FF920F931F9380
:102530008C01F62E0E9484120F0D111DF8011286D7
:102540001F910F91FF90089560E00E9495120895E9
:10255000BF92CF92DF92EF92FF920F931F938C0165
:102560007B016A01B22E622F0E9495122B2D30E062
:10257000F901EE0FFF1FE00FF11FF482E382D68214
:10258000C582F9013496EE0FFF1FE00FF11F118293
:102590001082020F131F81E0F801828789E085878E
:1025A000108A128A148A1F910F91FF90EF90DF908A
:1025B000CF90BF900895242F48EB53E00E94A812BB
:1025C0000895DC011A968C911A97882309F4D6C0D5
:1025D0001C968C911C97882309F0D0C01896ED9119
:1025E000FC911997EE0FFF1F13962D913C911497B4
:1025F000E20FF31F85919491009711F09C0193C015
:1026000017968C911797813041F419961C921E925F
:102610001897F9012591349186C01A961C921A9741
:10262000CD0160E00E9484120895C90156E096959C
:1026300087955A95E1F74F704230B1F1433030F44D
:10264000442359F0413009F05BC00CC0433009F419
:102650003AC0443009F054C045C08F711D968C9328
:102660001D974EC0880F991F15962D913C91169776
:10267000280F391FF9018591949157969C938E9359
:102680005697FC0145915491642F58964C93589756
:10269000252F3327842F90E02817390708F4652F5A
:1026A00059966C9359972CC08F7150968C93509774
:1026B000232F3327269526952695822F80515196D4
:1026C0008C9351971DC08F7152968C935297232FE4
:1026D0003327269526952695822F805153968C93E5
:1026E00053970EC08F7154968C935497232F332792
:1026F000269526952695822F805155968C93559731
:1027000018968D919C911997019619969C938E938A
:102710001897880F991F1396ED91FC911497E80F65
:10272000F91F25913491A9015695479556954795DE
:1027300020FD7BCF842F8F7364E20E940F1E1B96B7
:102740009C931B971C963C931C975C961C925C97E1
:102750005B961C921E925A9781E01E968C931E9750
:102760008093AE031F961C921F9718968D919C9193
:102770001997019619969C938E93189708951F9315
:10278000CF93DF93EC018E85882309F4C3C08C8539
:10279000882329F4CE0160E00E948412BBC08150DE
:1027A0008C878C8D882309F03BC08A8D9B8D019688
:1027B000880F991FEE89FF89E80FF91F8591949181
:1027C000282F27702D8FAC01F3E056954795FA9589
:1027D000E1F79A0136952795892F99278695869551
:1027E0008E8F2F738881289F202D11242C8F41706C
:1027F0004093B2038A8D9B8D01969B8F8A8F288D83
:1028000030E08217930760F0898D882329F0281B18
:1028100031093B8F2A8F04C0CE0160E00E948412F0
:102820008C8D81508C8F3F853F5F3F872E8D8B85B0
:10283000280F6A89662311F4422F0CC0832F992731
:1028400087FD909570E00E942F1E8B89869F402DFA
:102850001124420F2D856889662371F0772767FD63
:102860007095832F992787FD90950E942F1E898947
:10287000869F802D1124280F6C89662389F0832F71
:10288000992787FD909570E00E942F1ECB0162E092
:1028900070E00E942F1E9D89899F802D1124280F92
:1028A000122F2A300CF019E0F894842F992787FD15
:1028B0009095849664E270E00E942F1EE82FFF2717
:1028C000E7FDF095EE52FC4FE491E093AF032F8DBE
:1028D0008981289F900111248D8D992787FD9095DE
:1028E000289FA001299F500D389F500D1124812F42
:1028F00017FD80E0992787FD90959C01429FC001BC
:10290000439F900D529F900D11248093B0038093AC
:10291000B1037894DF91CF911F9108956091B00336
:10292000662381F18091AD038F5F8093AD03909119
:10293000AF03891738F130E08091AE03882309F4A2
:1029400031E03093AE031092AD038091B20388233F
:10295000A9F08091140123E4829FC0011124895BB6
:102960008093140190E070E00E941B1E8093B103DD
:1029700005C08091B1038093B40008953323C9F753
:1029800080E0F9CF08951F920F920FB60F92112495
:102990002F933F934F935F936F937F938F939F9367
:1029A000AF93BF93EF93FF930E948E14FF91EF912B
:1029B000BF91AF919F918F917F916F915F914F9157
:1029C0003F912F910F900FBE0F901F9018956AECBA
:1029D00073E040E00E94DB12089562EC73E040E097
:1029E0000E94DB1208956CEB73E040E00E94DB1262
:1029F0000895FC01862F628170E06F5F7F4F9927F9
:102A000087FD90950E942F1E81830895FC0181818E
:102A10000895FC0181E0808384E0878F83E061E09A
:102A200070E00E94E219E1EBF0E08081887F816034
:102A30008083F89410928000E1E8F0E01082109218
:102A400085001092840088E191E090938900809342
:102A50008800808188608083808181608083EFE648
:102A6000F0E08081826080837894089581E0809393
:102A7000F8036093D5031092F6031092F7030895BC
:102A80002091D40330E08091D303281B3109C90180
:102A900008954091D3038091D403481718F02FEF85
:102AA0003FEF0AC0E42FF0E0ED54FC4F8081282F67
:102AB00030E04F5F4093D303C9010895E091D30301
:102AC0008091D403E81718F0EFEFFFEF06C0F0E0B5
:102AD000ED54FC4F8081E82FF0E0CF010895089578
:102AE000AC012091FB033091FC0321153105E1F08D
:102AF0009091D3038091D4039817B0F090E008C070
:102B0000FA01EA0FFB1F8081AD54BC4F8C939F5F8D
:102B1000A92FB0E0A617B7079CF31092D3036093D8
:102B2000D403CB01F90109950895E091F903F091DF
:102B3000FA03309729F01092F6031092F7030995E3
:102B400008957093FC036093FB0308957093FA0358
:102B50006093F9030895109200041092FF0388EE29
:102B600093E0A0E0B0E08093010490930204A0936E
:102B70000304B093040482E291E09093FE038093F7
:102B8000FD030895CF92DF92EF92FF920F931F9370
:102B9000CF93DF937C016B018A018091F803882336
:102BA000A1F0C0E0D0E00DC0D701ED91FC91D601BD
:102BB000AC0FBD1F0190F081E02DC7016C9109950C
:102BC0002196C017D10780F304C0CB01642F0E9467
:102BD0000F17C801DF91CF911F910F91FF90EF90D8
:102BE000DF90CF900895DF93CF930F92CDB7DEB7EC
:102BF000FC0169838091F8038823C9F08091F70371
:102C0000803238F081E090E09383828320E030E0EE
:102C100015C08091F603E82FF0E0EA52FC4F99814D
:102C200090838F5F8093F6038093F70305C0CE01F6
:102C3000019661E00E940F1721E030E0C9010F907A
:102C4000CF91DF9108950F93062F8091D50366ED04
:102C500073E04091F70321E00E94BA161092F60348
:102C60001092F7031092F8030F91089561E00E940B
:102C700023160895413208F040E2862F63EB73E09B
:102C80000E9471161092D3038093D403089521E01B
:102C90000E943A1608951092D3031092D403109212
:102CA000F6031092F7030E94C51808950F931F931F
:102CB0008C01862F0E946D1685E995E10E942F17E1
:102CC00080E795E10E942A17C8010E944B161F91C8
:102CD0000F9108950E9456160895880F8093BA00A8
:102CE0000895382F413210F040E042C0809109042D
:102CF0008823E1F791E09093090420930B048FEF70
:102D000080937604109231044150409332044F5F17
:102D100090930A0480910A04330F832B80930A0452
:102D200080910C04813041F410920C0480910A04CB
:102D30008093BB0085EC01C085EE8093BC00809140
:102D400009048130E1F380913104841710F440913B
:102D5000310420E030E00AC0FB01E20FF31FD9018B
:102D6000AF5EBB4F8C9180832F5F3F4F2417A0F342
:102D7000842F08950F931F93582F122F413210F074
:102D800081E04AC0809109048823E1F782E08093C2
:102D9000090400930B048FEF8093760410923104A2
:102DA00040933204A1E1B4E0FB0102C081918D9314
:102DB0008E2F861B8417D0F310920A0480910A0488
:102DC000550F852B80930A0480910C04813041F4C7
:102DD00010920C0480910A048093BB0085EC01C022
:102DE00085EE8093BC00112321F08091090482308C
:102DF000E1F3809176048F3F11F480E00DC0809163
:102E00007604803211F482E007C08091760480332A
:102E100011F084E001C083E01F910F910895482FC5
:102E2000613210F081E0089580910904843011F03E
:102E300082E0089560935404A3E3B4E0842F9C01DE
:102E4000F90102C081918D938E2F841B8617D0F3D8
:102E500080E008959093100480930F040895909358
:102E60000E0480930D0408951F920F920FB60F92D7
:102E700011242F933F934F935F936F937F938F937F
:102E80009F93AF93BF93EF93FF938091B90090E02E
:102E9000887F90708036910509F4F2C081369105E3
:102EA000CCF58832910509F47BC089329105B4F4E0
:102EB0008031910509F46FC0813191053CF4009790
:102EC00009F447C1089709F04FC165C088319105E1
:102ED00009F466C0809709F047C182C0803491052B
:102EE00009F4A4C08134910544F48033910509F4B8
:102EF00082C0C89709F038C189C08035910509F4AE
:102F000089C08835910509F496C08834910509F087
:102F10002BC1AEC08839910509F413C189399105D7
:102F2000ECF48837910509F4ABC0893791054CF46E
:102F30008836910509F4A4C08037910509F014C1C1
:102F40009FC08838910509F4FCC08039910509F4C7
:102F50009DC08038910509F007C198C0803B91055C
:102F600009F4C6C0813B91054CF4803A910509F4FF
:102F70009FC0883A910509F0F7C0BAC0803C91051E
:102F800009F4E3C0883C910509F4DFC0883B910552
:102F900009F0EAC0C2C080910A048093BB00CFC090
:102FA0009091310480913204981768F49091310423
:102FB000E92FF0E0EF5EFB4F80818093BB009F5FC5
:102FC00090933104BCC080910B04882309F44BC05A
:102FD00085ED8093BC008091BC0084FDFCCFC2C015
:102FE00080E28093760485ED8093BC008091BC00E4
:102FF00084FDFCCFB7C080E38093760485ED809399
:10300000BC008091BC0084FDFCCFACC088E3809301
:1030100076049BC0809131049091BB00E82FF0E0D2
:10302000EF5EFB4F90838F5F80933104909131046A
:103030008091320482C0809131049091BB00E82FCE
:10304000F0E0EF5EFB4F90838F5F809331048091BF
:103050000B04882341F085ED8093BC008091BC0077
:1030600084FDFCCF7FC081E080930C0484EA6EC0B5
:1030700085ED8093BC008091BC0084FDFCCF72C0C4
:1030800083E0809309041092750459C080917504FF
:10309000803208F056C0809175049091BB00E82FF3
:1030A000F0E0EB5AFB4F90838F5F8093750447C02D
:1030B00080917504803230F4E0917504F0E0EB5AB1
:1030C000FB4F108285ED8093BC008091BC0084FD95
:1030D000FCCF1092090460917504E0910F04F09107
:1030E000100485E594E070E00995109275042DC0F8
:1030F00084E0809309041092530410925404E091E8
:103100000D04F0910E04099580915404882329F44C
:1031100081E0809354041092330490915304E92F7A
:10312000F0E0ED5CFB4F80818093BB009F5F90934C
:1031300053049091530480915404981710F485EC33
:1031400001C085E88093BC000FC085EC8093BC0073
:1031500009C01092760485ED8093BC008091BC007C
:1031600084FDFCCF10920904FF91EF91BF91AF91C4
:103170009F918F917F916F915F914F913F912F918F
:103180000F900FBE0F901F9018951092090481E0C8
:1031900080930B0410920C0482E161E00E94AE1A4D
:1031A00083E161E00E94AE1AE9EBF0E080818E7F5E
:1031B000808380818D7F808388E48093B80085E45C
:1031C0008093BC0008951F920F920FB60F921124A6
:1031D0002F933F938F939F93AF93BF9380917B04E3
:1031E00090917C04A0917D04B0917E0430917F0485
:1031F0000196A11DB11D232F2D5F2D3720F02D57D6
:103200000196A11DB11D20937F0480937B049093B0
:103210007C04A0937D04B0937E0480917704909108
:103220007804A0917904B0917A040196A11DB11D92
:103230008093770490937804A0937904B0937A04F0
:10324000BF91AF919F918F913F912F910F900FBEA2
:103250000F901F9018958FB7F89420917B043091B0
:103260007C0440917D0450917E048FBFB901CA0156
:1032700008959FB7F8942091770430917804409195
:10328000790450917A0486B5A89B06C08F3F21F03F
:103290002F5F3F4F4F4F5F4F9FBF542F432F322F12
:1032A0002227280F311D411D511D82E0220F331F9F
:1032B000441F551F8A95D1F7B901CA010895EF92AD
:1032C000FF920F931F93CF93DF937B018C010E949A
:1032D0003919EB010EC00E9439196C1B7D0B685E19
:1032E0007340C8F30894E108F10801091109C851B5
:1032F000DC4FE114F1040105110569F7DF91CF916D
:103300001F910F91FF90EF900895789484B582609B
:1033100084BD84B5816084BD85B5826085BD85B579
:10332000816085BDEEE6F0E0808181608083E1E828
:10333000F0E0108280818260808380818160808360
:10334000E0E8F0E0808181608083E1EBF0E0808163
:1033500084608083E0EBF0E0808181608083EAE735
:10336000F0E08081846080838081826080838081BE
:10337000816080838081806880831092C10008957D
:10338000982F8E3008F09E5097708091150182958D
:10339000880F880F807C892B80937C0080917A0035
:1033A000806480937A0080917A0086FDFCCF209122
:1033B000780040917900942F80E030E0282B392B61
:1033C000C90108951F93CF93DF93182FEB0161E09C
:1033D0000E94421A209709F44AC0CF3FD10509F450
:1033E00049C0E12FF0E0EC5BFB4F84918330C1F0EA
:1033F000843028F4813051F08230B1F50CC0863031
:1034000019F1873049F1843079F514C084B58068AA
:1034100084BDC7BD33C084B5806284BDC8BD2EC025
:1034200080918000806880938000D0938900C09351
:10343000880024C080918000806280938000D093B7
:103440008B00C0938A001AC08091B000806880937E
:10345000B000C093B30012C08091B000806280932E
:10346000B000C093B4000AC0C038D1051CF4812F4D
:1034700060E002C0812F61E00E94AE1ADF91CF911F
:103480001F910895CF93DF93482F50E0CA01805DCC
:103490009B4FFC013491445E5B4FFA018491882379
:1034A00069F190E0880F991FFC01E250FC4FA59153
:1034B000B491FC01E85FFB4FC591D491662351F4B0
:1034C0002FB7F8948C91932F909589238C938881B2
:1034D00089230BC0623061F42FB7F8948C91932F3D
:1034E000909589238C938881832B88832FBF06C076
:1034F0009FB7F8948C91832B8C939FBFDF91CF91D2
:103500000895833071F0843028F48130A1F0823046
:1035100021F514C08630B1F08730D1F08430E9F461
:1035200004C0809180008F7703C0809180008F7DE0
:1035300080938000089584B58F7702C084B58F7D15
:1035400084BD08958091B0008F778093B000089576
:103550008091B0008F7D8093B0000895FF920F930B
:103560001F93F62E482F50E0CA018C5B9B4FFC0145
:103570002491CA01805D9B4FFC011491445E5B4F16
:10358000FA0104910023C9F0222319F0822F0E942E
:10359000811AE02FF0E0EE0FFF1FE85FFB4FA591CF
:1035A000B4919FB7F894FF2021F48C91109581235A
:1035B00002C08C91812B8C939FBF1F910F91FF9024
:1035C00008950F931F93482F50E0CA018C5B9B4FC7
:1035D000FC012491CA01805D9B4FFC010491445E73
:1035E0005B4FFA011491112319F420E030E015C06B
:1035F000222319F0822F0E94811A812F90E0880FD8
:10360000991F8E5E9B4FFC01A591B4918C9120E097
:1036100030E0802311F021E030E0C9011F910F91CB
:103620000895CF93DF930E9485190E943E06C0E063
:10363000D0E00E94A6052097E1F30E940000F9CF98
:10364000CF92DF92EF92FF920F931F93CF93DF936E
:103650007C016B018A01C0E0D0E00FC0D6016D9102
:103660006D01D701ED91FC910190F081E02DC70132
:103670000995C80FD91F015010400115110571F7A8
:10368000CE01DF91CF911F910F91FF90EF90DF90CE
:10369000CF900895EF92FF920F931F93CF93DF93F4
:1036A0007C018B01C0E0D0E0F8010F5F1F4F6491F7
:1036B000662359F0D701ED91FC910190F081E02D46
:1036C000C7010995C80FD91FEFCFCE01DF91CF9168
:1036D0001F910F91FF90EF900895DC01ED91FC9107
:1036E0000190F081E02D09950895EF92FF920F93DC
:1036F0001F938C01DC01ED91FC910190F081E02D94
:103700006DE009957C01D801ED91FC910190F0816B
:10371000E02DC8016AE009959C012E0D3F1DC901ED
:103720001F910F91FF90EF900895EF92FF920F93EA
:103730001F937C010E944A1B8C01C7010E94751BCC
:103740009C01200F311FC9011F910F91FF90EF9035
:103750000895CF93DF93EC016115710519F420E012
:1037600030E00FC0DB010D900020E9F71197A61B98
:10377000B70BE881F9810280F381E02DAD01099555
:103780009C01C901DF91CF9108954F925F927F9282
:103790008F929F92AF92BF92CF92DF92EF92FF9261
:1037A0000F931F93DF93CF93CDB7DEB7A1970FB6DB
:1037B000F894DEBF0FBECDBF2C01742ECB0122309A
:1037C00008F42AE019A231E2C32ED12CCC0EDD1E62
:1037D000822E9924AA24BB24672D752FA50194015C
:1037E0000E94421E79018A01C801B701A501940116
:1037F0000E94F01D472D461B0894C108D1084A308D
:1038000014F4405D01C0495CF6014083E114F10409
:103810000105110521F07E2C5F2DC801DDCFC2010D
:10382000B6010E94A91BA1960FB6F894DEBF0FBE89
:10383000CDBFCF91DF911F910F91FF90EF90DF905F
:10384000CF90BF90AF909F908F907F905F904F9060
:103850000895DC012115310541F4ED91FC910190B1
:10386000F081E02D642F099508950E94C51B0895ED
:10387000EF92FF920F931F939A01E62EFF2400E030
:1038800010E0B801A7010E94291C1F910F91FF9021
:10389000EF9008952F923F924F925F926F927F9296
:1038A0008F929F92AF92BF92CF92DF92EF92FF9250
:1038B0000F931F93DF93CF93CDB7DEB73B014C013E
:1038C00019012A016D897E898F89988D6A197B0972
:1038D0008C099D09621A730A840A950AA40193014E
:1038E0000E94F01DE218F30804091509A8019701C8
:1038F0000E94641E2A0D3B1D4C1D5D1DB901CA01AD
:10390000CF91DF911F910F91FF90EF90DF90CF90BB
:10391000BF90AF909F908F907F906F905F904F90EF
:103920003F902F900895EF92FF920F931F937B018A
:103930008C01611571058105910529F420E030E0C5
:1039400040E050E00BC00E94D81EA80197010E94E1
:10395000641EAC01CB01DA019C01AD01B901CA01C1
:103960001F910F91FF90EF900895EF92FF920F93A8
:103970001F937B018C01621773078407950764F41A
:10398000261B370B480B590BCA01B9010E94931C27
:10399000E60EF71E081F191FB701C8011F910F91EE
:1039A000FF90EF90089598D088F09F5790F0B92F2E
:1039B0009927B751A0F0D1F0660F771F881F991F84
:1039C0001AF0BA95C9F712C0B13081F09FD0B1E0BA
:1039D00008959CC0672F782F8827B85F39F0B93FCA
:1039E000CCF3869577956795B395D9F73EF4909586
:1039F0008095709561957F4F8F4F9F4F0895E89404
:103A000009C097FB3EF490958095709561957F4F26
:103A10008F4F9F4F9923A9F0F92F96E9BB279395D4
:103A2000F695879577956795B795F111F8CFFAF4E4
:103A3000BB0F11F460FF1BC06F5F7F4F8F4F9F4F15
:103A400016C0882311F096E911C0772321F09EE873
:103A5000872F762F05C0662371F096E8862F70E0D9
:103A600060E02AF09A95660F771F881FDAF7880FB3
:103A70009695879597F9089597F99F6780E870E084
:103A800060E008959FEF80EC089500240A941616D4
:103A9000170618060906089500240A94121613063C
:103AA000140605060895092E0394000C11F48823CA
:103AB00052F0BB0F40F4BF2B11F460FF04C06F5FE6
:103AC0007F4F8F4F9F4F089557FD9058440F551FBC
:103AD00059F05F3F71F04795880F97FB991F61F090
:103AE0009F3F79F087950895121613061406551F07
:103AF000F2CF4695F1DF08C0161617061806991F73
:103B0000F1CF86957105610508940895E894BB2767
:103B100066277727CB0197F908950BD0C4CFB5DF7F
:103B200028F0BADF18F0952309F0A6CFABCF112407
:103B3000EECFCADFA0F3959FD1F3950F50E0551F4C
:103B4000629FF001729FBB27F00DB11D639FAA27F2
:103B5000F00DB11DAA1F649F6627B00DA11D661F41
:103B6000829F2227B00DA11D621F739FB00DA11D62
:103B7000621F839FA00D611D221F749F3327A00D1C
:103B8000611D231F849F600D211D822F762F6A2FB8
:103B900011249F5750408AF0E1F088234AF0EE0F3D
:103BA000FF1FBB1F661F771F881F91505040A9F74A
:103BB0009E3F510570F060CFAACF5F3FECF3983E77
:103BC000DCF3869577956795B795F795E7959F5FB1
:103BD000C1F7FE2B880F911D9695879597F908954B
:103BE000629FD001739FF001829FE00DF11D649FE1
:103BF000E00DF11D929FF00D839FF00D749FF00D6D
:103C0000659FF00D9927729FB00DE11DF91F639F0D
:103C1000B00DE11DF91FBD01CF0111240895991BBD
:103C200079E004C0991F961708F0961B881F7A95B3
:103C3000C9F780950895AA1BBB1B51E107C0AA1FB5
:103C4000BB1FA617B70710F0A61BB70B881F991F3D
:103C50005A95A9F780959095BC01CD01089597FBE1
:103C6000092E07260AD077FD04D0E5DF06D0002014
:103C70001AF4709561957F4F0895F6F790958195A8
:103C80009F4F0895A1E21A2EAA1BBB1BFD010DC078
:103C9000AA1FBB1FEE1FFF1FA217B307E407F507FC
:103CA00020F0A21BB30BE40BF50B661F771F881FD8
:103CB000991F1A9469F760957095809590959B016E
:103CC000AC01BD01CF01089597FB092E05260ED04A
:103CD00057FD04D0D7DF0AD0001C38F4509540952A
:103CE000309521953F4F4F4F5F4F0895F6F79095D0
:103CF0008095709561957F4F8F4F9F4F0895EE0F80
:103D0000FF1F0590F491E02D0994A0E0B0E0EBE8EE
:103D1000FEE10C94EE1EEC01A880B980CA80DB8025
:103D2000A114B104C104D10441F484E2A82E89EDA8
:103D3000B82E8BE5C82E87E0D82EC601B5012DE13F
:103D400033EF41E050E00E94641E27EA31E440E096
:103D500050E00E94F01D7B018C01C601B5012DE1F0
:103D600033EF41E050E00E94641ECA01B9012CEE1D
:103D700034EF4FEF5FEF0E94F01D6E0D7F1D801F2F
:103D8000911F97FF04C06150704080409048688345
:103D900079838A839B839B01AC015F77B901CA0158
:103DA000CDB7DEB7EAE00C940A1F0E94851E089585
:103DB00087E091E00E94851E08956093070170934B
:103DC00008018093090190930A0108952F923F9270
:103DD0004F925F926F927F928F929F92AF92BF921B
:103DE000CF92DF92EF92FF920F931F93CF93DF93C7
:103DF000CDB7DEB7CA1BDB0B0FB6F894DEBF0FBE24
:103E0000CDBF09942A88398848885F846E847D8470
:103E10008C849B84AA84B984C884DF80EE80FD8072
:103E20000C811B81AA81B981CE0FD11D0FB6F894E8
:0E3E3000DEBF0FBECDBFED010895F894FFCFA9
:103E3E004C4F4144455200010000000103100203A3
:103E4E0010060303010100000000960B201B00006A
:0E3E5E000000F315C215401549155E156F15CD
:00000001FF
