:100000000C94F7040C941F050C941F050C941F0509
:100010000C941F050C941F050C941F050C941F05D0
:100020000C941F050C941F050C941F050C947C1D4B
:100030000C941F050C941F050C941F050C941F05B0
:100040000C94F91D0C941F050C941F050C941F05AE
:100050000C941F050C941F050C941F050C941F0590
:100060000C941F050C941F054024FFFFFFFFFFFFAA
:10007000FFFF80000000000000019E000000000063
:100080000001B300C63000000001B300C63000001C
:100090000001B300C60000000001983DFFB6E7CFA5
:1000A00000018C66C637ECD980018666C6366CD8EE
:1000B0000001837EC6366CCE00018360C6366CC3F9
:1000C0000001B366C6366CC18001B366C6366CD912
:1000D00080019E3C73B667CF00018000000000C025
:1000E0000001800000000CC00001800000000CC076
:1000F0000001800000000780000180000000000077
:10010000E001800000000001BF018000000000034A
:1001100021C180000000000620618000003FFFFC3C
:100120002031800000400001BFF1800000900008F5
:100130002001800000B80009A001800000900008A4
:10014000200180000040000190018000003FFFFC82
:100150000FF1800000000007003180000000000166
:100160008061800000000000E1C18000000000000C
:100170003F0180000000000000018000000000003E
:100180000001FFFFFFFFFFFFFFFF486967683A00BC
:100190004D65643A004C6F773A0043726974696345
:1001A0003A0042617474657279206C6576656C738F
:1001B00020286D5629007374617274206D656E7508
:1001C0002074696D65723A00766F6C756D65206498
:1001D000656661756C743A00766F6C756D65206D3F
:1001E00061783A006C69676874206D61783A006CD8
:1001F00069676874206D696E3A006261636B6C694F
:10020000676874206D61783A006261636B6C69673E
:100210006874206D696E3A00636F6E7472617374F6
:100220003A002200706C617965723A220022006700
:10023000616D653A2200746F6B656E3A30780044E8
:10024000656661756C742073657474696E67730A92
:10025000726573746F7265642E0075058405900570
:100260009C05A9050A43757272656E7420766F6CE1
:10027000746167653A0042617474657279207368CD
:100280006F776E2066756C6C0A61626F766520749C
:100290006869732076616C75650A28696E206D69DE
:1002A0006C6C69566F6C747329000A4375727265C1
:1002B0006E7420766F6C746167653A004261747485
:1002C0006572792073686F776E20656D7074790A36
:1002D00062656C6F7720746869732076616C7565F0
:1002E0000A28696E206D696C6C69566F6C7473298D
:1002F000000A43757272656E7420766F6C74616764
:10030000653A004261747465727920616C6572743B
:100310002062656C6F770A746869732076616C750A
:10032000650A28696E206D696C6C69566F6C747310
:1003300029000A43757272656E7420766F6C746161
:1003400067653A004175746F6D6174696320736805
:100350007574646F776E0A62656C6F772074686974
:10036000732076616C75650A28696E206D696C6C06
:1003700069566F6C74732900AE05A90553746172D8
:1003800074206D656E75206475726174696F6E0A94
:10039000696E206E756D626572206F66206672618F
:1003A0006D65730A283230206672616D65732F7334
:1003B00065636F6E64290A3020746F20646973610D
:1003C000626C65206D656E750A32353520746F205C
:1003D00064697361626C652074696D650A00C205A9
:1003E000D105A9054D617820766F6C756D653A0071
:1003F00044656661756C7420766F6C756D653A0046
:10040000DC05E505F30501060D06A9050A4375722D
:1004100072656E7420616D6269656E743A004D613B
:100420007820616D6269656E74206C6967687420FC
:100430000A287768656E206974277320627269677D
:100440006874290A6173736F6369617465642077E6
:100450006974680A6D6178206261636B6C696768B2
:1004600074000A43757272656E7420616D6269650D
:100470006E743A004D696E20616D6269656E74201C
:100480006C69676874200A287768656E206974272C
:1004900073206461726B290A6173736F636961749D
:1004A000656420776974680A6D696E206261636BA8
:1004B0006C696768740053657420746865206D61A9
:1004C00078696D756D0A616D6F756E74206F662049
:1004D0006261636B6C696768743A0A0053657420E3
:1004E000746865206D696E696D756D0A616D6F75F3
:1004F0006E74206F66206261636B6C696768743A22
:100500000A0041646A75737420636F6E737472615C
:10051000737420746F0A7365652022475241592213
:1005200020636F72726563746C790A001906210684
:100530002D0633063D06A9051020153A4163636573
:10054000707400110053657474696E677320706174
:100550006765206572617365642E00536574746904
:100560006E6773207361766564001510004506554B
:10057000066606770643726974696320766F6C7449
:10058000616765004C6F7720766F6C7461676500FA
:100590004D656420766F6C746167650048696768B3
:1005A00020766F6C746167650053617665005374E3
:1005B000617274206D656E75206475726174696F07
:1005C0006E0044656661756C7420766F6C756D6540
:1005D000004D617820766F6C756D6500436F6E74A9
:1005E00072617374004261636B6C69676874206D3B
:1005F000696E004261636B6C69676874206D617835
:1006000000416D6269616E74206D696E00416D62BA
:1006100069616E74206D617800446973706C6179F2
:1006200000506C61796572206E616D6500536F7565
:100630006E6400496E746572666163650042617440
:1006400074657279004368616E67652073657474C0
:10065000696E67730053656520616C6C2073657407
:1006600074696E67730044656661756C74207365A8
:100670007474696E67730045726173652073657485
:1006800074696E67730003053F213F0A100A120860
:10069000120E1C0E0C1E0C141A14161F161E131EFE
:1006A0001E1B1E1E1F1E3F213F3A2F3A173D173FAC
:1006B000213F181F02040A041F0E04040E1F0A1F04
:1006C0000A0E0E1F04110E2E252E2F2A2E26292942
:1006D000021F02081F08150E04040E150E15151B27
:1006E000151B040604040C0400000000170003009E
:1006F000031F0A1F16371A1904130A153A000300BC
:10070000000E11110E000A040A040E040030000449
:1007100004040010001804031F111F121F101D15E0
:100720001711151F07041F17151D1F151D01011F88
:100730001F151F17151F000A00003200040A110AB6
:100740000A0A110A040115020E11171E051E1F15B3
:100750000A0E110A1F110E1F15111F05010E111D82
:100760001F041F111F1108100F1F041B1F10101F43
:10077000061F1E040F0E110E1F09060E112E1F0557
:100780001A121509011F011F101F0F180F1F0C1F30
:100790001B041B031C03191513001F11030418115C
:1007A0001F000201022020200001020C121E1F1255
:1007B0000C0C12120C121F0C1A14041E05242A1EF3
:1007C0001F021C141D1020201D1F0814111F101EB5
:1007D000041E1E021C0C120C3E0A040C123E1E04C7
:1007E0000214160A020F120E101E0E100E1E081E04
:1007F000120C1226281E322A26041E21001F002158
:100800001E040102013F213F0A4E6F205344206322
:10081000617264206F720A6E6F204C4F41444552E2
:100820002E4845580A0A153A45786974001D204635
:100830006C617368696E670A20206C6F6164657211
:100840002E2E2E0A0A444F4E2754205455524E2025
:100850004F464621004E4F20424154544552590ABA
:100860000A504C454153450A5455524E204F464676
:1008700000177361766500166261636B0015747909
:100880007065000A0A0A153A6F6B617920163A659D
:1008900064697400596F7520656E74657265640AC9
:1008A00000540A03E181867F3E186D830F0F0E010D
:1008B00083866033186DC3198F1803C38E60331895
:1008C0006DE330CF1803C39E603630CDE360CF3088
:1008D00006C79E7E3E30CDB360CF300CC6F6603387
:1008E00030D9B660CF33CFCCF66061B0DB1E60CFBD
:1008F00030D86CE6C061B0DB1E618F19986CC6C041
:1009000063B19B0E330F0FB078C6FF7E1F1B061E10
:100910000F175344001613780016131400151020F7
:100920000015201000000005008930080238024937
:10093000786814000045006801000005006801386F
:100940000100000500380168010000F6E8DBCFC3B4
:10095000B8AEA49B928A827B746E68625C57524EDA
:100960004945413E3A3734312E2C29272523211F72
:100970001D1C1A1917161514131211100F0E0D0C39
:100980000B0A090807068A098E090101F70301010C
:10099000FF0300000000240027002A0000000000E0
:1009A000250028002B00000000002300260029005D
:1009B0000404040404040404020202020202030305
:1009C000030303030102040810204080010204080D
:1009D000102001020408102000000007000201009E
:1009E000000304060000000000000000AC05112414
:1009F0001FBECFEFD8E0DEBFCDBF11E0A0E0B1E079
:100A0000E0E1F8E402C005900D92A832B107D9F7F1
:100A100014E0A8E2B1E001C01D92A336B107E1F7EE
:100A200019E0CEEED9E004C02297FE010E94FB231C
:100A3000CC3ED107C9F70E9427200C9406240C94C1
:100A4000000090E0E92FF0E0E058F0498491E05890
:100A5000FF46E255FE4F80839F5F903899F7E0E8AC
:100A6000FFE68591949190932F0280932E0222E8C5
:100A70003FE6F9018491E255FD4680832F5F3F4FA9
:100A8000FFE62B383F07A9F72BE83FE6F9018491F1
:100A9000E255FD4680832F5F3F4FFFE625393F0734
:100AA000A9F7E6E9FFE6E491E093440210924502DB
:100AB000E7E9FFE6E491E093460210924702E8E995
:100AC000FFE6E491E093480210924902E9E9FFE66B
:100AD0008591949190934B0280934A02EBE9FFE653
:100AE0008591949190934D0280934C02EDE9FFE63D
:100AF000E491E0934E0210924F02EEE9FFE6E4919A
:100B0000E093500210925102EFE9FFE6E491E09386
:100B1000520210925302E0EAFFE68591949190937D
:100B2000550280935402E2EAFFE6859194919093F6
:100B3000570280935602E4EAFFE6859194919093E0
:100B4000590280935802E6EAFFE6859194919093CA
:100B50005B0280935A0208951092790110927801F5
:100B600083E291E090937701809376010895CF928C
:100B7000DF92EF92FF920F931F93CF93DF93EC01DD
:100B80008B017A01690182E391E064E00E94680CC4
:100B9000882341F482E391E065E00E94680C882399
:100BA00009F480C08DE491E00E94A01D81E071C035
:100BB0008881998101969983888382E391E062E03C
:100BC0000E94900C8D3328F0888199810196998339
:100BD00088838DE491E00E94AC1D82E391E060E0A7
:100BE0000E94900C682F86E490E070E00E94A92398
:100BF000462F82E391E060E00E94720C8823A9F006
:100C00008881998101979983888382E391E060E0EC
:100C10000E94900C8D3328F08881998101979983E7
:100C200088838DE491E00E94AC1D88819981E8164B
:100C3000F90614F419830883888199818017910734
:100C400014F4F982E88210927F0180E390917B0195
:100C5000891B8093800186E791E063E475E00E9440
:100C600060206881798186E791E04AE050E00E9447
:100C7000BC2186E791E068E375E00E94AB2010920A
:100C80007F011092800186E791E0B6010E94AB20BF
:100C900080E0DF91CF911F910F91FF90EF90DF9057
:100CA000CF90089582E391E062E00E94900C682F5B
:100CB00086E490E070E00E94A923462F82E391E051
:100CC00062E00E94720C882309F487CF71CF2091D3
:100CD0007A018AE290E0821B9109880F991F809324
:100CE0007F0180E390917B01891B8093800186E7DF
:100CF00091E06AE675E00E94602086E791E00E943C
:100D0000801182E391E00E94980C82E391E064E01C
:100D10000E94680C882339F464E170E080E090E080
:100D20000E94751EEECF86E791E00E94C01186E713
:100D300091E00E94801108950F931F9306E711E040
:100D4000C8010E94C011C8010E94801181E08093F7
:100D50007C01C80166E372E00E94602060912E026F
:100D600070912F02C80140E150E00E945F21C8014C
:100D70006FE272E00E946020C80160E372E00E94AE
:100D8000EE21C8016DE272E00E94AB20C80164E26E
:100D900072E00E946020C80169E372E00E94EE21C7
:100DA000C80162E272E00E94AB20C80168E172E013
:100DB0000E9460206091440270914502C8014AE09F
:100DC00050E00E94CF21C80169E072E00E946020DB
:100DD0006091460270914702C8014AE050E00E94CB
:100DE000CF21C8016AEF71E00E9460206091480243
:100DF00070914902C8014AE050E00E94CF21C80129
:100E00006FEE71E00E94602060914A0270914B0287
:100E1000C8014AE050E00E94CF21C80164EE71E0B1
:100E20000E94602060914C0270914D02C8014AE01E
:100E300050E00E94CF210E946706C80168ED71E072
:100E40000E94602060914E0270914F02C8014AE0FA
:100E500050E00E94CF21C80168EC71E00E94602040
:100E60006091500270915102C8014AE050E00E9426
:100E7000CF21C80166EB71E00E94602060915202B0
:100E800070915302C8014AE050E00E94CF21C8018E
:100E900062EA71E00E94AB20C8016AE971E00E9439
:100EA00060206091540270915502C8014AE050E000
:100EB0000E94CF21C80165E971E00E946020609125
:100EC000560270915702C8014AE050E00E94CF21BB
:100ED000C80160E971E00E94602060915802709141
:100EE0005902C8014AE050E00E94CF21C8016AE8D7
:100EF00071E00E94602060915A0270915B02C8010B
:100F00004AE050E00E94CF210E9467061F910F9196
:100F100008950F931F9381E090EC90932F0280939C
:100F20002E0289E392E060E071E00E94FF238CE3EF
:100F300090E09093450280934402109247021092F1
:100F400046022FEF30E0309349022093480280E2BE
:100F500093E090934B0280934A0284ED93E0909348
:100F60004D0280934C0281E090E090934F02809379
:100F70004E0290935102809350023093530220937B
:100F800052028CEA9DE090935502809354028EEDBC
:100F90009DE0909357028093560284E79EE09093E1
:100FA0005902809358028CE39FE090935B028093F8
:100FB0005A0206E711E0C8010E94C011C8010E9450
:100FC000801181E080937C01C8016FE372E00E9490
:100FD000AB200E9467061F910F9108950F931F93F6
:100FE000EEEAF1E080E8DF011D928A95E9F780E8FA
:100FF0009FE6BF01EDEFFFE3099506E711E0C801A9
:101000000E94C011C8010E94801181E080937C0180
:10101000C80165E475E00E94AB200E9467061F913D
:101020000F9108950F931F930EEA11E080912E0205
:1010300090912F029093AF018093AE01C8010B965F
:1010400069E372E00E94FF23809144028093C4010F
:10105000809146028093C501809148028093C60129
:1010600080914A0290914B029093C8018093C701EE
:1010700080914C0290914D029093CA018093C901D6
:1010800080914E028093CB01809150028093CC01DD
:10109000809152028093CD0180915402909155022B
:1010A0009093CF018093CE01809156029091570288
:1010B0009093D1018093D001809158029091590270
:1010C0009093D3018093D20180915A0290915B0258
:1010D0009093D5018093D40180E89FE6B801EDEFAD
:1010E000FFE3099506E711E0C8010E94C011C8019D
:1010F0000E94801181E080937C01C8016BE575E05E
:101100000E94AB200E9467061F910F91089588E20C
:1011100091E06AE572E045E00E94F917823009F437
:1011200056C0833034F4882359F0813009F099C0D7
:101130002AC0833009F46FC0843009F092C08FC098
:1011400088E291E00E9461148823D1F384E592E063
:1011500060E070E048E853E124E433E00E94B70522
:101160008823A9F686E791E062E373E00E9460209D
:10117000609142017091430186E791E04AE050E0BE
:101180000E944E21DDCF88E291E00E946114882305
:10119000D1F386E592E060E070E048E853E123E0B7
:1011A00033E00E94B705882309F0B1CF86E791E0CC
:1011B00061EF72E00E9460206091420170914301F2
:1011C00086E791E04AE050E00E944E21DCCF88E2C1
:1011D00091E00E9461148823D1F388E592E060E0F9
:1011E00070E048E853E12CEB32E00E94B705882319
:1011F00009F08DCF86E791E06AEA72E00E946020F4
:10120000609142017091430186E791E04AE050E02D
:101210000E944E21DCCF88E291E00E946114882375
:10122000D1F38AE592E060E070E048E853E126E718
:1012300032E00E94B705882309F069CF86E791E084
:1012400064E672E00E946020609142017091430167
:1012500086E791E04AE050E00E944E21DCCF0E94F8
:101260001208089588E291E068E773E042E00E9486
:10127000F917882319F08130B1F413C088E291E0A6
:101280000E9461148823D1F382E592E060E070E06F
:101290004FEF50E02CE733E00E94B705882371F34D
:1012A000E1CF0E941208089588E291E06EED73E0AC
:1012B00043E00E94F9178130A9F1823009F466C039
:1012C000882309F065C088E291E00E9461148823B8
:1012D000D1F340914E0250914F0280E592E060E0E0
:1012E00070E020EF33E00E94B705882369F582E3C0
:1012F00091E060E044E00E94720C882341F482E3B4
:1013000091E062E044E00E94720C8823E1F28DE4F7
:1013100091E0609150020E94B21D8DE491E00E9424
:10132000A01DD1CF88E291E00E9461148823D1F3FF
:101330008EE492E060E070E041E050E024EE33E0C3
:101340000E94B705882339F08DE491E060914E0248
:101350000E94B21DA9CF82E391E060E044E00E94C8
:10136000720C882341F482E391E062E044E00E9441
:10137000720C8823B9F28DE491E060914E020E94D4
:10138000B21D8DE491E00E94A01DCCCF0E941208F6
:101390000895FF920F931F9311E054E1F52E88E218
:1013A00091E060E074E046E00E94F917823009F4B1
:1013B000AFC0833034F4882371F0813009F01FC14D
:1013C0008BC0843009F4EBC084300CF4BDC0853090
:1013D00009F015C112C188E291E069E20E948E1203
:1013E00088E291E00E9461148823D1F384E492E0C2
:1013F0006EE170E040E550E022E035E00E94B70584
:10140000882309F063C010927F01F092800186E783
:1014100091E06BE071E00E94F1218091980180FFE2
:1014200006C086E791E061E171E00E94F1216091E0
:1014300098017091990180919A0190919B0124E506
:1014400030E040E050E00E94BC2386E791E040E1BC
:1014500026E006E00E94C80D609198017091990104
:1014600080919A0190919B019695879577956795C4
:1014700024E530E040E050E00E94BC2386E791E0A4
:1014800047E126E00E94C80D609198017091990192
:1014900080919A0190919B0132E09695879577957E
:1014A00067953A95D1F724E530E040E050E00E949E
:1014B000BC2386E791E04EE126E00E94C80D86E756
:1014C00091E0609144020E9465118ACF88E291E028
:1014D00064E10E948E1263CF1092280188E291E0AD
:1014E0000E9461148823C1F386E492E060E070E01A
:1014F0004FEF50E02CED34E00E94B705882309F04F
:1015000079C088E291E0609146020E94A50BE4CF89
:101510001092280188E291E00E9461148823C1F3AF
:1015200088E492E060E070E04FEF50E026EB34E0BA
:101530000E94B705882309F05DC088E291E06091C0
:1015400048020E94A50BE4CF88E291E00E9461145A
:101550008823D1F31092280188E291E0609148023B
:101560000E94A50B8AE492E060E070E040E054E065
:1015700024E734E00E94B7058823E1F586E791E08F
:1015800062E674E00E9460206091290170912A0156
:1015900086E791E04AE050E00E944E21D5CF88E2F4
:1015A00091E00E9461148823D1F31092280188E20F
:1015B00091E0609146020E94A50B8CE492E060E00D
:1015C00070E040E054E02EE134E00E94B70588234B
:1015D00089F486E791E06CE074E00E9460206091FD
:1015E000290170912A0186E791E04AE050E00E94CB
:1015F0004E21D5CF10932801D2CE0E9412081F9100
:101600000F91FF90089588E291E06CE275E046E06A
:101610000E94F9178230C9F083302CF4882351F0EE
:101620008130F1F40AC08430B1F084308CF0853020
:10163000B9F414C00E94C909E6CF88E291E069E3D9
:1016400072E04BE00E941A15DECF0E945409DBCFF6
:101650000E943209D8CF0E948708D5CF0E94120875
:10166000089588E291E06DE675E044E00E94F91784
:101670008130C1F082302CF48F3F51F0882379F013
:1016800008958330A9F0833084F08430D1F413C0FE
:1016900088E291E068E670E00E94BE1A08950E9418
:1016A000030B08950E949C0608950E9489070895DF
:1016B0000E94EE0708950E94120888E291E00E94BD
:1016C0004313089588E291E00E94C41A88E291E0F1
:1016D00068E670E00E94BE1A88E291E00E94A012C3
:1016E000882321F40E9489070E9412080E94210584
:1016F00008952CB5382F33702C7F322B3CBD2DB57F
:1017000090E0959587959595879581702E7F822B92
:101710008DBD08958AE061E00E94C41F8AE061E007
:101720000E94581F8CB580618CBD8CB580648CBDC7
:101730008DE061E00E94581F8BE061E00E94581F1D
:101740000895FC0181E08083089585E070E00E94A7
:10175000F81E08956F927F928F929F92AF92BF92E0
:10176000CF92DF92EF92FF920F931F93CF93DF936D
:10177000EC0189819A818C0124E0000F111F2A95C8
:10178000E1F7081B190B85E10E94D61EBC01600F12
:10179000711F84E0769567958A95E1F77A8369836E
:1017A0008881882381F12E813F816217730710F4AD
:1017B000B90106C0888599858617970708F4BC018A
:1017C00000D000D080E090E040E050E0E884F98470
:1017D00000E010E0AD80BB24CC24DD246C807724B5
:1017E00088249924EDB7FEB7618272828382948245
:1017F0000E9404226B830F900F900F900F9085E052
:1018000070E00E94F81EDF91CF911F910F91FF9021
:10181000EF90DF90CF90BF90AF909F908F907F9090
:101820006F900895FC018CE39FE09383828384E0B2
:10183000818381E084870895CF93DF93EC018C85C9
:1018400090E08F719070892B69F584E10E94D61E1B
:10185000AA2797FDA095BA2FBC01CD010E947B223B
:1018600026EE3FE34EEC50E40E9407230E944D22F7
:101870009B01AC017B836A836115710589F084E06B
:101880008983B901FE0120E0848195816817790779
:1018900010F429830AC02F5F32962430A9F702C0C2
:1018A0008FEF89838C858F5F8C87DF91CF9108952F
:1018B000FC0188E0808389E0818387E0828386E081
:1018C000838384E0848382E0858381E18683089535
:1018D00020E0FC01E60FF11D8781813009F421E051
:1018E000822F0895E62FF0E0423040F420E0E80F28
:1018F000F91F878181508E3F88F40FC0E80FF91FD0
:1019000087818F3F11F420E009C020E090E0642F30
:1019100070E00E949523019709F421E0822F089539
:10192000FC01E60FF11D87818F3F09F480E00895E7
:101930000F931F93CF93DF93EC0110E00FEF88819B
:1019400062E00E94581F88810E94F71F2F81892B17
:1019500019F42F5F2F8307C0222349F02F3F11F482
:101960001F8201C00F83888160E00E94581F1F5FA3
:101970002196173021F7DF91CF911F910F91089594
:10198000FC01678F60A30895FC01678F40A3089551
:10199000FC016435A8F547FD33C040338CF5878DD5
:1019A000942F959595959595772767FD7095477038
:1019B000882399F0E4E59E02F0011124E60FF71F59
:1019C000E45AFD4F81E090E002C0880F991F4A95CC
:1019D000E2F72081282B20830895E4E59E02F001A0
:1019E0001124E60FF71FE45AFD4F81E090E002C09A
:1019F000880F991F4A95E2F780952081282320833C
:101A00000895AF92BF92CF92DF92EF92FF920F9321
:101A10001F93CF93DF93EC01162FF42EE22EAA240E
:101A2000402F552747FD50958F2D992787FD90957D
:101A3000481B590B57FF03C0509541955F4F2E2D02
:101A4000332727FD3095812F992787FD9095281BF7
:101A5000390B37FF03C0309521953F4F24173507C9
:101A600044F4AA24A3948F2DF12E182F802F0E2D2D
:101A7000E82EE11634F48E2DE12E182F802F0F2D35
:101A8000F82EDE2CD11A202F332727FD30958F2DED
:101A9000992787FD9095281B390B37FF03C0309598
:101AA00021953F4FB22EF0161CF0CC24CA9402C0F0
:101AB000CC24C3948D2DD7FC8F5F082F059511C0C2
:101AC000AA2021F0CE016F2D412F03C0CE01612F3E
:101AD0004F2D0E94C80C0B1907FF02C0FC0C0D0D06
:101AE0001F5FE1166CF7DF91CF911F910F91FF906F
:101AF000EF90DF90CF90BF90AF9008950F93042F99
:101B0000322F262F2150230F0E94010D0F9108958F
:101B10000F93362F042F0150020F232F0E94010D27
:101B20000F9108959F92AF92BF92CF92DF92EF9262
:101B3000FF920F931F93CF93DF936C01B62E942ED9
:101B4000A02EC0E0D0E0E62EFF24E7FCF094022FA8
:101B5000112707FD10950E0D1F1D06C0C601492D4A
:101B60002A2D0E94880D21966B2D6C0FCE018E0DB3
:101B70009F1D8017910794F3DF91CF911F910F91D3
:101B8000FF90EF90DF90CF90BF90AF909F9008951F
:101B9000CF92DF92EF92FF920F931F937C01162F4B
:101BA000D42EC22E0E947E0D4D2D4150400FC701F4
:101BB000612F2C2D0E947E0DC701612F4D2D202FEE
:101BC0000E94880D11501C0DC701612F4D2D202F33
:101BD0000E94880D1F910F91FF90EF90DF90CF90A2
:101BE00008952F923F925F926F927F928F929F9271
:101BF000AF92BF92CF92DF92EF92FF920F931F931B
:101C0000DF93CF9300D000D000D0CDB7DEB79E8356
:101C10008D83C62ED42EEE24E394E21A8EEF289FF5
:101C2000502C1124842E8A94962E9A94A42EA39438
:101C3000B62EB394F22E662423E0722E10E0C80173
:101C4000847090709A838983F801E270F070FC834D
:101C5000EB8398E0292E312C202231220170107064
:101C600054C0E7FC04C0FA94F2E05F0EE50C639404
:101C700089819A81892B71F04F2D4D0D8D819E8127
:101C80006B2D0E94C80C6F2D6C0D8D819E814A2D8D
:101C90000E94C80CEB81FC81EF2B71F04D2D4F1988
:101CA0008D819E816B2D0E94C80C6F2D6C0D8D81D6
:101CB0009E81482D0E94C80C2114310471F06C2DB6
:101CC0006F198D819E814A2D0E94C80C4F2D4D0D9C
:101CD0008D819E81692D0E94C80C0115110571F03E
:101CE0006C2D6F198D819E81482D0E94C80C4D2D41
:101CF0004F198D819E81692D0E94C80CE70CF2E07E
:101D00007F0E8A949A94A394B3946F140CF4A9CF81
:101D100026960FB6F894DEBF0FBECDBFCF91DF91F0
:101D20001F910F91FF90EF90DF90CF90BF90AF90F9
:101D30009F908F907F906F905F903F902F9008952D
:101D40004F925F926F927F928F929F92AF92BF92CB
:101D5000CF92DF92EF92FF920F931F93CF93DF9377
:101D6000EC01A62E742E9E2DFF24F394F21A8EEF12
:101D7000289F802C1124B42EBA9453E0C52ECE0C8B
:101D8000E22EDD2443E0942E10E031E0432E512C6E
:101D900040225122692E63940270107034C0F7FC07
:101DA00004C0EA9482E0880EF80CD39441145104E4
:101DB00089F06D2D6A0D472D4E192E2D220F260DFF
:101DC000CE010E94880D6E2D6A0DCE014B2D2C2D5B
:101DD0000E94880D0115110589F06A2D6D19472D96
:101DE0004E192E2D220F260DCE010E94880D6A2D30
:101DF0006E19CE014B2D2C2D0E94880DF90C82E01E
:101E0000980EBA94C80EDE1454F2DF91CF911F9150
:101E10000F91FF90EF90DF90CF90BF90AF909F9089
:101E20008F907F906F905F904F9008957F928F92E8
:101E30009F92AF92BF92CF92DF92EF92FF920F9359
:101E40001F936C01962EA42EF22E7E2C760E1EEF82
:101E5000E19E102D1124812E820E672D282D0E94C7
:101E60007E0DB02EBA0CBA94C601672D4B2D282DCD
:101E70000E947E0DAE0C100FC601692D4A2D212F38
:101E80000E94880DF90CFA94C6016F2D4A2D212F5E
:101E90000E94880DC601672D4A2D2E2D01E00E945B
:101EA000F10DFE18C6016F2D4A2D2E2D02E00E9465
:101EB000F10DBE18C6016F2D4B2D2E2D04E00E9492
:101EC000F10DC601672D4B2D2E2D08E00E94F10D5E
:101ED0001F910F91FF90EF90DF90CF90BF90AF9048
:101EE0009F908F907F9008958F929F92AF92BF9214
:101EF000CF92DF92EF92FF920F931F936C01162FF8
:101F0000A42E922EF02EBE2C8E2C860E2EEFE29E4C
:101F1000E02C11242E2D290D682D0E94920DAB0C62
:101F2000FA94FE0C1150190D1B19C601612F4A2D90
:101F30002B2D01E0EF2C0E94A00EC601682D4A2D2A
:101F40002B2D02E00E94A00E1F910F91FF90EF90A9
:101F5000DF90CF90BF90AF909F908F9008953F9269
:101F60004F925F926F927F928F929F92AF92BF92A9
:101F7000CF92DF92EF92FF920F931F93CF93DF9355
:101F80004C01362E442EF901A490319654906F01E5
:101F90000894C11CD11C8A2D992787FD909507961E
:101FA00068E070E00E94A923E62EFF24E7FCF0948D
:101FB00000E0C0E0D0E060E8662E712C26C0E12F82
:101FC000E595E595E595FF27E7FDF095EC0FFD1FFD
:101FD000EC0DFD1DE4912E2F30E0812F8770A301C1
:101FE00002C0559547958A95E2F724233523232B84
:101FF00031F0612F630DC4014B2D0E94C80C1F5F8F
:102000001A15ECF20F5FCE0DDF1D051524F410E05C
:10201000B02EB40CF5CFDF91CF911F910F91FF90AF
:10202000EF90DF90CF90BF90AF909F908F907F9078
:102030006F905F904F903F900895DC01FB01849179
:102040008F5F14968C931497319684918F5F1596B9
:102050008C93159731965E96FC93EE935D97089559
:102060003F924F925F926F927F928F929F92AF9228
:10207000BF92CF92DF92EF92FF920F931F93CF9375
:10208000DF93EC01862EA42E422F102F3F8C23E5E8
:1020900026170CF4ABC03FE23A150CF4A7C0C02ED3
:1020A000DD248C8190E001979C01C29EC001C39EFB
:1020B000900DD29E900D1124262F332727FD3095A9
:1020C000820F931F181619060CF090C08D8190E0B6
:1020D0009C01C29EC001C39E900DD29E900D112402
:1020E0002A2D332727FD3095820F931F18161906C6
:1020F0000CF07CC09924442E55246DC09C012150C5
:1021000030404217530711F460E00EC0429EC001F8
:10211000439E900D529E900D1124840F951FED8DBE
:10212000FE8DE80FF91F64914C9DC0014D9D900DEF
:102130005C9D900D1124682C680EBB24792C780CC2
:102140003FC0E62EFF2460FF19C0113039F44B2D3B
:102150004A0DCE01672D0E94C80C2EC02C9DC001D7
:102160002D9D900D3C9D900D11244A2D480FCE01C0
:10217000662D212F012F0E94920D1EC098A18F8DD8
:102180009817D1F09F8F113039F44B2D4A0DCE01A5
:10219000672D0E94C80C0FC02C9DC0012D9D900D75
:1021A0003C9D900D11244A2D480FCE01662D212F04
:1021B000012F0E94920D3F8EF594E7946E2DB394FB
:1021C0002B2D332727FD30958D8190E02817390777
:1021D0000CF4B7CF9394492D552747FD50958C812A
:1021E00090E0481759070CF489CF3F8EDF91CF91CB
:1021F0001F910F91FF90EF90DF90CF90BF90AF9025
:102200009F908F907F906F905F904F903F90089538
:102210000F93CF93DF93EC01262F6A3049F48D8121
:102220009885899F802D11249A85980F9A8726C0BA
:102230006D3029F169854A8508850E9430109C819E
:102240006885969F402D11248985480F49878F8185
:102250008823A9F0552747FD5095699F90011124C7
:1022600084E590E0821B930B8417950744F49D81CD
:10227000699F902D11248A85890F8A87198681E0AC
:1022800090E0DF91CF910F9108951F93CF93DF934B
:10229000EC01162FF8948E8560E00E94C41F8F8594
:1022A00018161CF460E00E94C41F1EBD0DB407FE8A
:1022B000FDCF8EB58F8518161CF461E00E94C41FF7
:1022C0007894DF91CF911F910895CF93DF93EC0124
:1022D0006E3110F46EE103C0613508F060E56B8784
:1022E000CE0161E20E9445116B856068CE010E94BB
:1022F0004511CE0160E20E944511DF91CF91089512
:10230000FF920F931F93CF93DF93EC01FF2400E024
:1023100010E06F2D6064CE010E944511CE0160E88F
:102320000E9445118E8561E00E94C41F8F8518169A
:102330001CF460E00E94C41FF801E45AFD4F90E0D5
:1023400080818EBD0DB407FEFDCF8EB59F5F3196A7
:102350009435B1F78F8518161CF461E00E94C41FF4
:10236000F3940C5A1F4F86E0F81699F6CE0160E4FC
:102370000E944511DF91CF911F910F91FF90089519
:10238000CF93DF93DC0188EF91E0ECE5F2E0EF0121
:102390009C01199221503040E1F719961C9219972F
:1023A0001A961C92DF91CF910895EF920F93CF93DD
:1023B000DF93EC014D876C872E87E88A0F8781E0D9
:1023C00088878F8F18A28F83CE0166E876E00E94FF
:1023D0001D100E948A0B8D8561E00E94581F8C851C
:1023E00061E00E94581F8E8561E00E94581F888915
:1023F00018161CF461E00E94581F8F8518161CF4F3
:1024000061E00E94581F888918166CF460E00E94F1
:10241000C41F6AE070E080E090E00E94751E888929
:1024200061E00E94C41FEC852E2F332727FD3095D5
:10243000F901E055F64FE491F0E0EE0FFF1FE4568E
:10244000F64F859194919C8B8B8B2C53364FF901D1
:1024500084918A8FED852E2F332727FD3095F90142
:10246000E055F64FE491F0E0EE0FFF1FE456F64F13
:10247000859194919A8B898B2C53364FF9018491D5
:10248000898FEF852E2F332727FD3095F901E055F1
:10249000F64FE491F0E0EE0FFF1FE456F64F859102
:1024A00094919E8B8D8B2C53364FF90184918B8F99
:1024B000EE852E2F332727FD3095F901E055F64F95
:1024C000E491F0E0EE0FFF1FE456F64F85919491F2
:1024D000988F8F8B2C53364FF90184918C8FCE01BE
:1024E00061E20E944511CE0164E10E9445118B8595
:1024F00087FF02C08FE78B876B856068CE010E94E3
:102500004511CE0160E20E944511CE016CE00E94AF
:102510004511DF91CF910F91EF900895FC01262F87
:10252000E258FF4F88EE93E070E00E94A923608399
:10253000EE57F040822F64E10E94892381A708951D
:10254000E0E8FFE68591949120E08150904C09F4F9
:1025500021E0822F0895CF93DF93DC01E0E8FFE6CE
:1025600085919491ED01C75ADF4FAD0141595F4FFD
:102570008150904C09F04EC0E6E9FFE6E491E88313
:10258000E7E9FFE6E4911496EC931497E8E9FFE697
:10259000E4911596EC931597E9E9FFE685919491FE
:1025A00017969C938E931697EBE9FFE6859194918D
:1025B00019969C938E931897EDE9FFE6E4919B960C
:1025C000EC939B97EEE9FFE6E4919A96EC939A9749
:1025D000EFE9FFE6E491EA01E883E0EAFFE68591AE
:1025E00094915D969C938E935C97E2EAFFE68591C9
:1025F00094915F969C938E935E97E4EAFFE68591B3
:10260000949191969C938E939097E6EAFFE685913C
:10261000949132C08CE3888314961C9214972FEF08
:1026200015962C93159780E293E017969C938E93C2
:10263000169784ED93E019969C938E93189781E0FA
:102640009B968C939B979A968C939A97FA012083EA
:102650008CEA9DE05D969C938E935C978EED9DE059
:102660005F969C938E935E9784E79EE091969C93F1
:102670008E9390978CE39FE093969C938E93929782
:10268000DF91CF910895EF92FF920F931F93CF9315
:10269000DF937C018C01025B1F4FC8010E94C011B7
:1026A000C8016DE278E00E946020C8010E9480119C
:1026B00083E00E94790B86E191E0EEEFFFE309955C
:1026C00084E590E0E80EF91EF7011082C80168E089
:1026D00078E00E94AB20C8010E948011E701CA5433
:1026E000D040CE010E94980CCE0164E00E94680C9C
:1026F000882339F462E370E080E090E00E94751E68
:10270000F0CFDF91CF911F910F91FF90EF9008953F
:102710000F931F93CF93DF93EC018C01025B1F4F4C
:10272000C80161E040E00E94C40CFE01E95AFF4F7D
:10273000CE5ADF4F85E59881891B808326961882C3
:10274000C855D040698D613081F1613028F0888DA5
:10275000653008F043C03DC0CE0185960E94951BB0
:10276000CE0160E00E94A50BC8010E94C011CA5AA8
:10277000DF4F81E08883C80165E578E00E94602032
:10278000C8010E94801183B7817F846083BF83B7B3
:10279000816083BF83B7816083BF889583B78E7F55
:1027A00083BF83B78E7F83BF1FC0C059DF4F88812F
:1027B0009981AA81BB818F709070A070B0700897CA
:1027C000A105B10518F4C80167E00CC0C80168E7AD
:1027D00009C0882349F06B5FC80104C0882321F039
:1027E000C8016FE20E948320DF91CF911F910F916A
:1027F0000895AF92BF92CF92DF92EF92FF920F9324
:102800001F93CF93DF93EC01CB57DF4F8881C558DF
:10281000D040882309F44AC08C3010F010E002C088
:102820001CE0181BCA5ADF4F81E08883C655D04090
:102830006EE4C62ED12CCC0EDD1EC60160E00E94D7
:10284000C00C53E5A52EB12CAC0EBD1EF5010081C8
:102850004DE2F42E4F2D401B410F0D5FC60160E08D
:1028600024E533E0E32E0E94740FC60161E00E946C
:10287000C00CF5010081F01AF10E0D5FC60160E099
:102880004F2D24E50E94160FC95ADF4F84E089932B
:10289000F5018081181B115D1883AB9669917991C0
:1028A000C6010E946020888181508883DF91CF918A
:1028B0001F910F91FF90EF90DF90CF90BF90AF905E
:1028C0000895AF92BF92CF92DF92EF92FF920F9353
:1028D0001F93CF93DF93EC01EFE7AE2EB12CA80E40
:1028E000B91EF501E080F180028113810E94411E32
:1028F000E61AF70A080B190B7EE7C72ED12CCC0E6F
:10290000DD1EF601808190E0A0E0B0E08E159F050D
:10291000A007B10708F081C08E0106581F4FF801CB
:1029200080819181A281B3810097A105B10509F44D
:1029300074C00E94411EF6012081620F711D811D2D
:10294000911DF5016083718382839383FE01E059B9
:10295000FF4F80819181A281B3810196A11DB11D9C
:1029600080839183A283B383F80110821182128243
:1029700013820E944F1ECA58DF4F688379838A836F
:102980009B83C657D040CE010E94AA0BCE010A9667
:102990000E94980CCE0148960E941C0C81E032C027
:1029A0008E010B5D1F4FC8010E94E31BC8010E94EE
:1029B000601CC8010E94431DCE010E94F913CE0184
:1029C0000E9488138E01025B1F4FC8010E94801174
:1029D000CC5ADF4F8881C455D040882319F4C801F0
:1029E0000E94C0110E944F1EC658DF4F6883798332
:1029F0008A839B83249728813981621B730B7A9386
:102A00006A9380E0DF91CF911F910F91FF90EF903B
:102A1000DF90CF90BF90AF900895C658DF4F888168
:102A20009981AA81BB81CA57D0400097A105B10501
:102A300041F7B6CF2F923F924F925F926F927F9263
:102A40008F929F92AF92BF92CF92DF92EF92FF92BE
:102A50000F931F93DF93CF93CDB7DEB768970FB671
:102A6000F894DEBF0FBECDBF5C017B876A874C87C1
:102A700024E530E0A20EB31ED5011C92ECEAFFEF74
:102A8000AE0EBF1E842F90E0FB01E80FF91F3197B7
:102A900010825AE0452E512C4A0C5B1C45E2642EF4
:102AA000712C6A0C7B1C3EE4C32ED12CCA0CDB1C9F
:102AB0001D821C82F2E0FB8324E52A8330E3398304
:102AC00023E5822E912C8A0C9B1C02E5202E312CB2
:102AD0002A0C3B1CA501495A5F4F5E874D87B50103
:102AE000685A7F4F788B6F87D501A059BF4FBA8B3B
:102AF000A98B9C8B8B8B01979E8B8D8BC5010E9424
:102B000061148823D9F3C20163E044E00E94720C8F
:102B1000882331F0BB81BF5FBB83C3010E94AC1D22
:102B2000C20161E044E00E94720C882331F0EB8125
:102B3000E150EB83C3010E94AC1DC20162E044E09E
:102B40000E94720C882331F0FC81FF5FFC83C3017B
:102B50000E94AC1DC20160E044E00E94720C882318
:102B600031F02C8121502C83C3010E94AC1D3C818B
:102B7000303111F41C8205C04C814F3F11F45FE0ED
:102B80005C836B81683011F41B8205C07B8177FF09
:102B900002C087E08B83AC81BB27A7FDB095B987C6
:102BA000A887D401EC912B81332727FD30953F83F3
:102BB0002E83D1018C9190E0809590952885398560
:102BC000AC01249FC001259F900D349F900D1124CE
:102BD000895D992787FD90955A81252F332727FDF9
:102BE0003095820F931F62E070E00E94A9236A83F0
:102BF00084E18E1BF0E0E095F0956E817F816E9F01
:102C000090016F9F300D7E9F300D1124820F992708
:102C100087FD90957981272F332727FD3095820FE7
:102C2000931F62E070E00E94A9236983C20164E0FF
:102C30000E94680C882399F18D81282F332727FD66
:102C40003095AD89BE892A173B07BCF48E819F81E0
:102C500014E0880F991F1A95E1F7BC818B0F09F4D6
:102C60004DCF8A3009F44ACF8D3009F447CFEA8539
:102C7000FB85E20FF31F80831182ED81EF5FED830F
:102C8000C3010E94A01DFD818F2F992787FD90957C
:102C90002B893C892817390714F43C853D83C201F0
:102CA00065E00E94680C8823A9F04D8141504D8356
:102CB000C3010E94A61D5D8157FF02C01D820AC08C
:102CC0006D81E62FFF27E7FDF0958A859B85E80F4C
:102CD000F91F1082C20166E00E94680C882309F483
:102CE00042C0C3010E94A01DC5010E946114882337
:102CF000D9F3C60164E978E00E94AB20C6016A8579
:102D00007B850E94EE21C60163E878E00E94AB203B
:102D1000C20164E00E94680C8823E1F0C3010E94B4
:102D2000A01D68960FB6F894DEBF0FBECDBFCF9141
:102D3000DF911F910F91FF90EF90DF90CF90BF90A8
:102D4000AF909F908F907F906F905F904F903F904B
:102D50002F900895C20165E00E94680C882321F23B
:102D6000C3010E94A61DEE24FF2410E033C0D10150
:102D70008C9190E00196EF89F88D9C01E29FC00153
:102D8000E39F900DF29F900D11246A81680FD4018A
:102D90008C9190E00196FC01EE9EC001EF9E900D9B
:102DA000FE9E900D11244981480F2F89210FC601E5
:102DB00001E00E9430102F89388D2F5F3F4F388FF0
:102DC0002F8B2031310599F60894E11CF11C105F1E
:102DD000103819F0188E1F8ACACFD1018C91BAEF22
:102DE0008B9F802D11248250EA818E0FAD85BE8588
:102DF0008C93F40180818F5FF9818F0FAF85B88943
:102E00008C93C6016DE778E00E946020F10180811B
:102E1000FAEF8F9F802D112482502A81820FAD8579
:102E2000BE858C93F401808190E00196880F991FF4
:102E3000F9818F0FAF85B8898C93C60167E778E079
:102E40000E946020F1018081FAEF8F9F802D112474
:102E500082502A81820FAD85BE858C93F40120813A
:102E600030E02F5F3F4FC901880F991F820F931FDA
:102E7000F9818F0FAF85B8898C93C60161E778E03F
:102E80000E946020C60160E00E94C00CF1018081B8
:102E900090E0019628853985289FB001299F700D03
:102EA000389F700D112461503A81630FD4018C91C9
:102EB00090E00196EE81FF81E89FA001E99F500D0F
:102EC000F89F500D11244250F9814F0FC60127E0A1
:102ED0000E947E0DC60161E00E94C00CD1012C91C0
:102EE000822F90E0F4010081019648855985489F22
:102EF0007001499FF00C589FF00C11245EEFE50E15
:102F00006A81E60E402F50E04F5F5F4FAE81BF8178
:102F1000A49FF001A59FF00DB49FF00D1124E35084
:102F2000B981EB0F2E5F029762E070E00E94A92347
:102F3000280F0B5FC6016E2D4E2FF3E0EF2E0E947F
:102F4000160FF40180814EE2481BC60160E024E5C3
:102F50000E947E0DC60160E00E94C00CD4010C915D
:102F60004FE2401B0F5FC60160E024E50E94920D16
:102F7000ED85FE851082D4018C91B0E3B81BEF85FE
:102F8000F889B083C60161E00E94C00CC6016A8561
:102F90007B850E94EE21E989FA8980819181A28155
:102FA000B38187709070A070B0700497A105B105CF
:102FB00008F0A4CDFD812F2F332727FD30954D89B3
:102FC0005E89241735070CF099CDD1018C9190E0E2
:102FD000289FB001299F700D389F700D1124F401B6
:102FE000808140E3481BC6012FE501E00E943010BC
:102FF00085CD2F923F924F925F926F927F928F92E8
:103000009F92AF92BF92CF92DF92EF92FF920F9377
:103010001F93DF93CF93CDB7DEB762970FB6F894C7
:10302000DEBF0FBECDBF6C016C837D834B8324E577
:1030300030E0C20ED31EF60110822CEA3FEFC20E22
:10304000D31E1AE0A12EB12CAC0CBD1CB5E22B2E68
:10305000312C2C0C3D1CAEE44A2E512C4C0C5D1C2A
:1030600010E0F0E37F2E66241A823FEF3983A60139
:10307000495A5F4F5F834E83C601885A9F4F998795
:103080008887F601EA5AFF4FFB87EA8796012B5A99
:103090003F4F3D872C87E3E58E2E912C8C0C9D1C99
:1030A0005B81452F50E05F874E878B818150888BF5
:1030B000C6010E9461148823D9F3C50164E00E940F
:1030C000680C882369F4C50165E00E94680C8823B8
:1030D00039F4C50166E00E94680C882309F4D3C066
:1030E000F4010081C50164E00E94680C882329F086
:1030F000C1010E94A01D1983CBC0C1010E94A61D61
:10310000C7C0C50163E044E00E94720C882321F02F
:103110001F5FC1010E94AC1DC50161E044E00E9437
:10312000720C882321F01150C1010E94AC1D812F27
:10313000992787FD90952E853F858217930711F477
:1031400010E002C017FD1889F4018081819F902D45
:1031500011248C5F682E691A28C0872D992787FD56
:103160009095262D332727FD3095821B930B0297D0
:10317000D4F4898162960FB6F894DEBF0FBECDBF3E
:10318000CF91DF911F910F91FF90EF90DF90CF9043
:10319000BF90AF909F908F907F906F905F904F9077
:1031A0003F902F900895F1E0FA83862D992787FDAF
:1031B0009095272D332727FD3095820F931F62E0CE
:1031C00070E00E94A923762EEE81FF811082E885AF
:1031D000F985608321E0EA85FB852083EC85FD8508
:1031E00010822C813D81C9019A8B898B00E0E12EF0
:1031F000FF24E7FCF09420C0802F90E08E159F05FF
:1032000069F423E0EE81FF812083F40180818E9DAB
:10321000802D1124870DE885F9858083E989FA8955
:1032200065917491C2010E94AB200F5F29893A8990
:103230002E5F3F4F3A8B298B3B810317E8F2C20187
:1032400060E00E94C00CF40140814E9D402D11248D
:103250004150470DC20160E024E50E947E0DC2018D
:1032600061E00E94C00CF40100810E9D402D1124EC
:103270004250470D0D5FC20160E024E573E0E72E88
:103280000E94160F15CFFA81FF2309F066CF39CFC0
:10329000802F90E0909581959F4F2E853F85AC01C2
:1032A000249FC001259F900D349F900D11246EEF37
:1032B000662E680E52CF2F923F924F925F926F927E
:1032C0007F928F929F92AF92BF92CF92DF92EF92B6
:1032D000FF920F931F93DF93CF93CDB7DEB72B975A
:1032E0000FB6F894DEBF0FBECDBF9B878A877A8367
:1032F00069835C834B838C0101591F4FF8018081E6
:10330000882309F422C18A859B858A5A9F4F9B870F
:103310008A8781E0EA85FB85808312921292E455C8
:10332000F040FB87EA87108E9EE4E92EF12CEE0E2A
:10333000FF1EC70161E00E94C00C8AE0282E312CDC
:103340008A859B85280E391EB5E26B2E712C680E7E
:10335000791EE981FA81F491FD83A7E58A2E912CEB
:10336000880E991EF8E5CF2ED12CC80ED91EE2E5A5
:103370004E2E512C480E591E8D5A9F4F9F838E837F
:1033800070E7A72EB12C8A859B85A80EB91E1987D8
:1033900008878A859B850E9461148823D1F39D81CB
:1033A000992311F410E003C0EE81FF811081C70161
:1033B00060E040E021EA38E00E94AF0F8B819C8101
:1033C000892B41F0145FC70160E0412F2B813C81C4
:1033D0000E94AF0FF40110828CE0F6018083C701D8
:1033E00069817A810E946020F201208130E0C90168
:1033F000880F991F820F931F909581959F4F8D5A2B
:10340000F4018083EE81FF81208130E0C901880FC3
:10341000991F820F931F909581959F4F835DF601B1
:103420008083F501808184FF04C0C70161E279E0F7
:1034300003C0C7016DE179E00E94AB20F201208159
:1034400030E0C901880F991F820F931F90958195D5
:103450009F4F8D5AF4018083F60180818F5F8083B6
:10346000EA85FB8582A5882321F0C70169E179E01F
:1034700003C0C70165E179E00E94AB20F2018081C1
:1034800090E09C01220F331F280F391F30952195A2
:103490003F4F2D5AF4012083F60180818F5F808396
:1034A000C70161E179E00E94AB20C10165E00E94A3
:1034B000680C882351F0EA85FB8562A56F5FC30124
:1034C0000E94B21DC3010E94AC1DC10164E00E94B4
:1034D000680C882399F4E885F9856081262F30E00F
:1034E00040E050E0F50180819181A281B381821793
:1034F0009307A407B50708F16F3FF9F08A859B850C
:1035000081599F4F9B878A878FEFEA85FB85808350
:10351000EF56F040FB87EA87C30160E00E948A1BF8
:10352000C3010E94A01D81E0EA85FB85808F0DC04C
:103530008A859B850E9443132CCFC10166E00E94BF
:10354000680C882309F425CFF3CF2B960FB6F89497
:10355000DEBF0FBECDBFCF91DF911F910F91FF90C6
:10356000EF90DF90CF90BF90AF909F908F907F9023
:103570006F905F904F903F902F900895AB0166E25F
:1035800079E00E945B190895AF92BF92CF92DF92CB
:10359000EF920F93CF93DF936C018EE790E0C80E0C
:1035A000D91E82E3F601808381E090E0A0E0B0E0E4
:1035B000B293A293929382936F0185EF9FEFC80E0F
:1035C000D91E8FEFF601808381E99FEFC80ED91EC7
:1035D000C6010E94AB12C6010E94A10BC6016FEF8B
:1035E0000E94A50B4AE0A42EB12CAC0CBD1CC50159
:1035F0000E94580CC5010E94980CC60148960E9472
:10360000120CC601825B9F4F6DE04BE020E10FE0A2
:103610003EE0E32E0E94D511E601A596CE010E9460
:10362000BF1DC50165E00E94680C882329F0CE010A
:1036300060E00E94B21D06C0CE0167E279E040E082
:103640000E94991BDF91CF910F91EF90DF90CF9067
:10365000BF90AF9008950F93DC01002309F047C09D
:103660006230A1F1633030F4662351F0613009F02B
:103670003EC009C0633081F1643009F038C032C007
:1036800056964C9334C0842F90E0880F991F1F9654
:103690002D913C915097280F391FF90185919491F4
:1036A00090969C938E935F97FC0145915491642F63
:1036B00091964C939197252F3327842F90E02817CC
:1036C000390708F4652F92966C9311C059964C9364
:1036D00059975A962C930BC05B964C935B975C96CC
:1036E0002C9305C05D964C935D975E962C930F913D
:1036F0000895FC01662369F4178A158A14A213A29F
:10370000108E109258041092570410925504109283
:10371000B4000895CF93DF93EC01662319F40E945F
:10372000791B1982DF91CF91089560E00E948A1B76
:1037300008950F931F93CF93DF93EC018B014423E4
:1037400071F460E00E948A1B1E870D871B8A1A8A0B
:1037500081E0898389E08E8B198E1B8E1D8EDF910F
:10376000CF911F910F910895CF93DF93EC016623C2
:1037700039F58881882321F18981882309F5898594
:1037800090E0880F991FEF81F885E80FF91F859168
:1037900094912FEF8F3F920711F4188211C09C87EC
:1037A00090E0880F991FEA85FB85E80FF91F659166
:1037B0007491CE0140E00E94991B89858F5F8987B3
:1037C000DF91CF91089560E00E94B41B08950F939C
:1037D000CF93DF93EC01662309F06EC089818823C3
:1037E00009F46AC08D89882309F066C0EA89FB89DB
:1037F000EE0FFF1F4D855E85E40FF51F2591349177
:103800002115310509F040C08989813031F41B8AC6
:103810001A8AFA012591349137C019828881882348
:1038200079F0CE0160E00E94B41B8A899B89880FE1
:10383000991FED85FE85E80FF91F2591349124C06D
:10384000CE0160E00E94791B37C0E6E036952795EF
:10385000EA95E1F76F70422F4F7175E03695279525
:103860007A95E1F72051CE0100E00E942B1B8A8956
:103870009B8901969B8B8A8B880F991FED85FE850E
:10388000E80FF91F25913491B901769567957695E2
:10389000679520FDDACF862F8F738C8B3D8B1DA211
:1038A0001CA21BA281E08F8B80935504188E8A89FD
:1038B0009B8901969B8B8A8BDF91CF910F91089505
:1038C00060E00E94E71B0895CF93DF93EC0166232D
:1038D00009F0D6C08F89882309F4D2C08D89882346
:1038E00021F4CE010E94791BCBC081508D8B8DA11C
:1038F000882309F03BC08BA19CA10196880F991FDA
:10390000EF8DF8A1E80FF91F85919491282F27706A
:103910002EA3AC0163E0569547956A95E1F79A01AD
:1039200036952795892F9927869586958FA32F738E
:103930008C81289F202D11242DA341704093590480
:103940008BA19CA101969CA38BA329A130E0821797
:10395000930760F08AA1882329F0281B31093CA332
:103960002BA304C0CE0160E00E94791B8DA1815081
:103970008DA3988D9F5F988F2FA18C89280F8C85A0
:10398000280F2A836B8D662369F0892F992787FD7D
:10399000909570E00E94A9238C8D869F802D112424
:1039A000820F8A838A8190E0CB966BE370E00E945D
:1039B000A9238A832E892B83698D662379F0888DCC
:1039C000772767FD7095992787FD90950E94A92319
:1039D0008A8D869F802D1124820F8B836D8D6623A7
:1039E00099F0888D992787FD909570E00E94A92312
:1039F000CB0162E070E00E94A9239E8D899F802DFB
:103A000011249B81890F8B838B818A300CF089E094
:103A100087FD80E08B838C898F3309F41B82F894B7
:103A2000EA81F0E0E55BF64FE491E09356042D81E6
:103A300030E08B81992787FD9095A901489F9001DF
:103A4000499F300D589F300D112488A590E0A901A1
:103A5000489F9001499F300D589F300D11248EA131
:103A6000992787FD9095AC01249FC001259F900D5B
:103A7000349F900D112480935704809358047894B8
:103A8000DF91CF91089560E00E94641C08956091D9
:103A90005704662381F1809154048F5F809354040E
:103AA00090915604891738F130E0809155048823AD
:103AB00009F431E030935504109254048091590474
:103AC0008823A9F080911D0123E4829FC001112465
:103AD000895B80931D0190E070E00E9495238093A4
:103AE000580405C0809158048093B400089533238E
:103AF000C9F780E0F9CF08951F920F920FB60F9289
:103B000011242F933F934F935F936F937F938F93E2
:103B10009F93AF93BF93EF93FF930E94471DFF9135
:103B2000EF91BF91AF919F918F917F916F915F9135
:103B30004F913F912F910F900FBE0F901F901895AE
:103B400063E479E040E00E94991B08956BE379E01B
:103B500040E00E94991B089565E379E040E00E94EF
:103B6000991B0895FC01862F668170E06F5F7F4F7F
:103B7000992787FD90950E94A923858308950F9327
:103B8000FC0181E0848384E080A786E899E0908B43
:103B90008787CF0161E040E020E000E00E942B1B1E
:103BA00083E061E070E00E94F81EE1EBF0E08081CC
:103BB000887F81608083F89410928000E1E8F0E0D3
:103BC0001082109285001092840088E191E0909319
:103BD00089008093880080818860808380818160F3
:103BE0008083EFE6F0E080818260808378940F919B
:103BF00008951F920F920FB60F9211242F933F93A7
:103C00008F939F93AF93BF9380915E0490915F04D5
:103C1000A0916004B0916104309162040196A11DED
:103C2000B11D232F2D5F2D3720F02D570196A11D9B
:103C3000B11D2093620480935E0490935F04A0936F
:103C40006004B093610480915A0490915B04A09148
:103C50005C04B0915D040196A11DB11D80935A04CE
:103C600090935B04A0935C04B0935D04BF91AF910B
:103C70009F918F913F912F910F900FBE0F901F90AA
:103C800018958FB7F89420915E0430915F044091AD
:103C90006004509161048FBFB901CA0108959FB7B4
:103CA000F89420915A0430915B0440915C04509147
:103CB0005D0486B5A89B06C08F3F21F02F5F3F4F64
:103CC0004F4F5F4F9FBF542F432F322F2227280F74
:103CD000311D411D511D82E0220F331F441F551F0E
:103CE0008A95D1F7B901CA010895EF92FF920F9317
:103CF0001F93CF93DF937B018C010E944F1EEB013A
:103D00000EC00E944F1E6C1B7D0B685E7340C8F393
:103D10000894E108F10801091109C851DC4FE114C8
:103D2000F1040105110569F7DF91CF911F910F9102
:103D3000FF90EF900895789484B5826084BD84B537
:103D4000816084BD85B5826085BD85B5816085BD96
:103D5000EEE6F0E0808181608083E1E8F0E01082AF
:103D6000808182608083808181608083E0E8F0E0F0
:103D7000808181608083E1EBF0E0808184608083DA
:103D8000E0EBF0E0808181608083EAE7F0E0808111
:103D90008460808380818260808380818160808371
:103DA0008081806880831092C1000895982F8E30A2
:103DB00008F09E50977080911E018295880F880FA1
:103DC000807C892B80937C0080917A008064809332
:103DD0007A0080917A0086FDFCCF20917800409196
:103DE0007900942F80E030E0282B392BC901089509
:103DF0001F93CF93DF93182FEB0161E00E94581FB0
:103E0000209709F44AC0CF3FD10509F449C0E12FFA
:103E1000F0E0E852F64F84918330C1F0843028F40A
:103E2000813051F08230B1F50CC0863019F1873005
:103E300049F1843079F514C084B5806884BDC7BD6C
:103E400033C084B5806284BDC8BD2EC0809180001F
:103E5000806880938000D0938900C093880024C03C
:103E600080918000806280938000D0938B00C0930B
:103E70008A001AC08091B00080688093B000C0931F
:103E8000B30012C08091B00080628093B000C093F4
:103E9000B4000AC0C038D1051CF4812F60E002C014
:103EA000812F61E00E94C41FDF91CF911F9108957F
:103EB000CF93DF93482F50E0CA018C53964FFC01FB
:103EC00034914055564FFA018491882369F190E06E
:103ED000880F991FFC01EE56F64FA591B491FC0195
:103EE000E456F64FC591D491662351F42FB7F89458
:103EF0008C91932F909589238C93888189230BC073
:103F0000623061F42FB7F8948C91932F90958923A8
:103F10008C938881832B88832FBF06C09FB7F8942A
:103F20008C91832B8C939FBFDF91CF910895833029
:103F300071F0843028F48130A1F0823021F514C072
:103F40008630B1F08730D1F08430E9F404C080913C
:103F500080008F7703C0809180008F7D80938000E8
:103F6000089584B58F7702C084B58F7D84BD089590
:103F70008091B0008F778093B00008958091B00059
:103F80008F7D8093B0000895FF920F931F93F62EBC
:103F9000482F50E0CA018852964FFC012491CA0173
:103FA0008C53964FFC0114914055564FFA010491E1
:103FB0000023C9F0222319F0822F0E94971FE02FBF
:103FC000F0E0EE0FFF1FE456F64FA591B4919FB7B6
:103FD000F894FF2021F48C911095812302C08C91DC
:103FE000812B8C939FBF1F910F91FF9008950F938A
:103FF0001F93482F50E0CA018852964FFC0124912C
:10400000CA018C53964FFC0104914055564FFA015A
:104010001491112319F420E030E015C0222319F087
:10402000822F0E94971F812F90E0880F991F8A5539
:10403000964FFC01A591B4918C9120E030E0802353
:1040400011F021E030E0C9011F910F910895CF9345
:10405000DF930E949B1E0E94620BC0E0D0E00E9492
:10406000310B2097E1F30E940000F9CFCF92DF924D
:10407000EF92FF920F931F93CF93DF937C016B011D
:104080008A01C0E0D0E00FC0D6016D916D01D7016B
:10409000ED91FC910190F081E02DC7010995C80FC9
:1040A000D91F015010400115110571F7CE01DF91A4
:1040B000CF911F910F91FF90EF90DF90CF900895D7
:1040C000EF92FF920F931F93CF93DF937C018B01AD
:1040D000C0E0D0E0F8010F5F1F4F6491662359F0F4
:1040E000D701ED91FC910190F081E02DC701099578
:1040F000C80FD91FEFCFCE01DF91CF911F910F9144
:10410000FF90EF900895DC01ED91FC910190F0811A
:10411000E02D09950895EF92FF920F931F938C0164
:10412000DC01ED91FC910190F081E02D6DE00995AD
:104130007C01D801ED91FC910190F081E02DC80146
:104140006AE009959C012E0D3F1DC9011F910F9139
:10415000FF90EF900895EF92FF920F931F937C01D1
:104160000E9460208C01C7010E948B209C01200FBF
:10417000311FC9011F910F91FF90EF900895CF93C8
:10418000DF93EC016115710519F420E030E00FC0F8
:10419000DB010D900020E9F71197A61BB70BE88112
:1041A000F9810280F381E02DAD0109959C01C901DF
:1041B000DF91CF9108954F925F927F928F929F925D
:1041C000AF92BF92CF92DF92EF92FF920F931F9325
:1041D000DF93CF93CDB7DEB7A1970FB6F894DEBFCC
:1041E0000FBECDBF2C01742ECB01223008F42AE083
:1041F00019A231E2C32ED12CCC0EDD1E822E9924C1
:10420000AA24BB24672D752FA50194010E94BC230D
:1042100079018A01C801B701A50194010E946A23AE
:10422000472D461B0894C108D1084A3014F4405D5C
:1042300001C0495CF6014083E114F1040105110558
:1042400021F07E2C5F2DC801DDCFC201B6010E9496
:10425000BF20A1960FB6F894DEBF0FBECDBFCF91A1
:10426000DF911F910F91FF90EF90DF90CF90BF9063
:10427000AF909F908F907F905F904F900895DC015A
:104280002115310541F4ED91FC910190F081E02D73
:10429000642F099508950E94DB200895EF92FF9204
:1042A0000F931F939A017B0100E010E0B801A70172
:1042B0000E943F211F910F91FF90EF900895CF92A0
:1042C000DF92EF92FF920F931F936C017B019A0193
:1042D00000E010E0B801A7010E943F218C01C60157
:1042E0000E948B20080F191FC8011F910F91FF908A
:1042F000EF90DF90CF900895CF92DF92EF92FF92F0
:104300000F931F93CF93DF93EC016A017B0121157B
:10431000310541F4E881F9810190F081E02D642FAD
:1043200009951FC02A303105D1F477FF17C0E88105
:10433000F9810190F081E02D6DE209958C0144270F
:104340005527BA014C195D096E097F09CE012AE093
:104350000E94DB209801280F391F04C02AE00E9428
:10436000DB209C01C901DF91CF911F910F91FF903C
:10437000EF90DF90CF900895EF92FF920F931F93ED
:104380007B019A010027F7FC0095102FB801A701C7
:104390000E947C211F910F91FF90EF900895CF9282
:1043A000DF92EF92FF920F931F936C017B019A01B2
:1043B0000027F7FC0095102FB801A7010E947C216F
:1043C0008C01C6010E948B20080F191FC8011F9184
:1043D0000F91FF90EF90DF90CF9008950E94BF2043
:1043E0000895EF92FF920F931F937C010E94BF20CC
:1043F0008C01C7010E948B20080F191FC8011F9153
:104400000F91FF90EF9008952F923F924F925F92FD
:104410006F927F928F929F92AF92BF92CF92DF92D4
:10442000EF92FF920F931F93DF93CF93CDB7DEB739
:104430003B014C0119012A016D897E898F89988D74
:104440006A197B098C099D09621A730A840A950A04
:10445000A40193010E946A23E218F30804091509D4
:10446000A80197010E94DE232A0D3B1D4C1D5D1DF6
:10447000B901CA01CF91DF911F910F91FF90EF9089
:10448000DF90CF90BF90AF909F908F907F906F9074
:104490005F904F903F902F90089598D088F09F574D
:1044A00090F0B92F9927B751A0F0D1F0660F771F80
:1044B000881F991F1AF0BA95C9F712C0B13081F060
:1044C0009FD0B1E008959CC0672F782F8827B85FF0
:1044D00039F0B93FCCF3869577956795B395D9F7C1
:1044E0003EF490958095709561957F4F8F4F9F4FCB
:1044F0000895E89409C097FB3EF4909580957095D7
:1045000061957F4F8F4F9F4F9923A9F0F92F96E91F
:10451000BB279395F695879577956795B795F11194
:10452000F8CFFAF4BB0F11F460FF1BC06F5F7F4F31
:104530008F4F9F4F16C0882311F096E911C0772343
:1045400021F09EE8872F762F05C0662371F096E84C
:10455000862F70E060E02AF09A95660F771F881F1B
:10456000DAF7880F9695879597F9089597F99F67D9
:1045700080E870E060E008959FEF80EC08950024EB
:104580000A941616170618060906089500240A94B8
:1045900012161306140605060895092E0394000C3E
:1045A00011F4882352F0BB0F40F4BF2B11F460FFCD
:1045B00004C06F5F7F4F8F4F9F4F089557FD9058F6
:1045C000440F551F59F05F3F71F04795880F97FBD7
:1045D000991F61F09F3F79F0879508951216130691
:1045E0001406551FF2CF4695F1DF08C016161706C0
:1045F0001806991FF1CF86957105610508940895F5
:10460000E894BB2766277727CB0197F908950BD04D
:10461000C4CFB5DF28F0BADF18F0952309F0A6CF94
:10462000ABCF1124EECFCADFA0F3959FD1F3950F46
:1046300050E0551F629FF001729FBB27F00DB11D26
:10464000639FAA27F00DB11DAA1F649F6627B00DB6
:10465000A11D661F829F2227B00DA11D621F739F9F
:10466000B00DA11D621F839FA00D611D221F749FAD
:104670003327A00D611D231F849F600D211D822FF4
:10468000762F6A2F11249F5750408AF0E1F088233B
:104690004AF0EE0FFF1FBB1F661F771F881F915048
:1046A0005040A9F79E3F510570F060CFAACF5F3F01
:1046B000ECF3983EDCF3869577956795B795F7957B
:1046C000E7959F5FC1F7FE2B880F911D9695879503
:1046D00097F90895629FD001739FF001829FE00DCA
:1046E000F11D649FE00DF11D929FF00D839FF00D71
:1046F000749FF00D659FF00D9927729FB00DE11D1D
:10470000F91F639FB00DE11DF91FBD01CF011124F9
:104710000895991B79E004C0991F961708F0961B1D
:10472000881F7A95C9F780950895AA1BBB1B51E194
:1047300007C0AA1FBB1FA617B70710F0A61BB70B11
:10474000881F991F5A95A9F780959095BC01CD01B6
:10475000089597FB092E07260AD077FD04D0E5DFE0
:1047600006D000201AF4709561957F4F0895F6F7F2
:10477000909581959F4F0895A1E21A2EAA1BBB1B0D
:10478000FD010DC0AA1FBB1FEE1FFF1FA217B3071D
:10479000E407F50720F0A21BB30BE40BF50B661F33
:1047A000771F881F991F1A9469F7609570958095F7
:1047B00090959B01AC01BD01CF01089597FB092E97
:1047C00005260ED057FD04D0D7DF0AD0001C38F4E0
:1047D00050954095309521953F4F4F4F5F4F08952D
:1047E000F6F790958095709561957F4F8F4F9F4F0D
:1047F0000895EE0FFF1F0590F491E02D0994FB0141
:10480000DC0101900D920020E1F70895F894FFCFAC
:104810004A6F686E20536D69746800424C41434B87
:104820000047524159004C4F41444552000101009C
:08483000000000081136200011
:00000001FF
