:100000000C94F5020C941D030C941D030C941D0319
:100010000C941D030C941D030C941D030C941D03E0
:100020000C941D030C941D030C941D030C943A2D89
:100030000C941D030C941D030C941D030C941D03C0
:100040000C94972D0C941D030C941D030C941D030C
:100050000C941D030C941D030C941D030C941D03A0
:100060000C941D030C941D034572726F720047615E
:100070006D65206C6F6164656400536176696E67BD
:100080002067616D65004E6F7468696E6720746FDC
:1000900020626520736176656421004E6F20736174
:1000A0007665642067616D650046696C6520656DE5
:1000B000707479004C6F6164696E67207361766556
:1000C000642067616D6500436C65616E696E6720D1
:1000D000454550524F4D00202D204E6F20646573D2
:1000E0006372697074696F6E202D20001120444581
:1000F0004C4554452047414D4520100011204445B2
:100100004C45544520534156452010001120504C79
:100110004159201000486F6C64204120746F2064A6
:10012000656C65746500202120444F4E275420548F
:1001300055524E204F46462021200020201D204CA5
:100140006F6164696E672067616D652E2E2E2020B9
:1001500000496E73657274205344202620726573C3
:1001600074617274001D2052656164696E6720536A
:100170004420636172642E2E2E0A0A000808CACB3E
:10018000C3FF818181FF40240000000000000000C7
:10019000000000000000000000000000000000005F
:1001A00000000001F8FFFFFC00000003F9FFFFFE64
:1001B00000000007FFFFFFFF000007FFFFFFFFFF3A
:1001C00000000FFF0330C71F00001C060120820F34
:1001D00000001C0649E7924F00001FFE49279E4F72
:1001E00000001C0649279E4F00001C0679209E0F28
:1001F00000001FFE79309F1F00001C0679FFFFFFE3
:1002000000001C07FF0041BF00001FFFFC00466FFD
:1002100000001807F87FFD8700001807FC0FFE0399
:1002200000001FFFFE03FE0300001C07FFC1800744
:1002300000001C07F001801F00001FFFE003007F8B
:1002400000001807E00F07FF00001807FFFFFFFF7F
:1002500000001FFFFFFFFFFF00001C07FF7FFBFFE9
:1002600000001C07FF77337300001FFFFF6AAAAF6F
:1002700000001C07FF6AAA6F00001C07FFB7332F9E
:1002800000000FFFFFFFFFFE000007FFFFFFFFFC66
:10029000000000000000000000000000000000005E
:1002A000000000000000000003053F213F1208127B
:1002B0000A100A0E1C0E0C1E0C141A14161F161E01
:1002C000131E1E1B1E1E1F1E3F213F3A2F3A173DB5
:1002D000173F213F181F02040A041F0E04040E1FBB
:1002E0000A1F0A0E0E1F04110E2E252E2F2A2E264F
:1002F0002929021F02081F08150E04040E150E15E9
:10030000151B151B040604040C0400000000170054
:100310000300031F0A1F16371A1904130A153A009F
:100320000300000E11110E000A040A040E0400302E
:10033000000404040010001804031F111F121F10F2
:100340001D151711151F07041F17151D1F151D015A
:10035000011F1F151F17151F000A00003200040A95
:10036000110A0A0A110A040115020E11171E051EB0
:100370001F150A0E110A1F110E1F15111F05010E60
:10038000111D1F041F111F1108100F1F041B1F1028
:10039000101F061F1E040F0E110E1F09060E112E30
:1003A0001F051A121509011F011F101F0F180F1F1B
:1003B0000C1F1B041B031C03191513001F1103043E
:1003C00018111F000201022020200001020C121E41
:1003D0001F120C0C12120C121F0C1A14041E0524EE
:1003E0002A1E1F021C141D1020201D1F0814111F7F
:1003F000101E041E1E021C0C120C3E0A040C123E9F
:100400001E040214160A020F120E101E0E100E1EEB
:10041000081E120C1226281E322A26041E21001F36
:1004200000211E040102013F213F0A4E6F20534468
:100430002063617264206F720A6E6F204C4F4144DA
:1004400045522E4845580A0A153A45786974001DE8
:1004500020466C617368696E670A20206C6F616466
:1004600065722E2E2E0A0A444F4E275420545552A0
:100470004E204F464621000A0A153A49676E6F72B0
:1004800065006D560A0A504C45415345205455525B
:100490004E204F464620004C4F5720424154544571
:1004A00052592120001753440016137800161314D4
:1004B00000151020001520100000540A03E1818669
:1004C0007F3E186D830F0F0E0183866033186DC356
:1004D000198F1803C38E6033186DE330CF1803C330
:1004E0009E603630CDE360CF3006C79E7E3E30CD75
:1004F000B360CF300CC6F6603330D9B660CF33CF9F
:10050000CCF66061B0DB1E60CF30D86CE6C061B065
:10051000DB1E618F19986CC6C063B19B0E330F0F41
:10052000B078C6FF7E1F1B061E0F0500893008022B
:100530003802497868140000F6E8DBCFC3B8AEA4EF
:100540009B928A827B746E68625C57524E49454129
:100550003E3A3734312E2C29272523211F1D1C1A02
:100560001917161514131211100F0E0D0C0B0A0982
:100570000807064500680100000500380168010011
:1005800000890585050101FF030101F70300000053
:100590000800020100000304070000000000000042
:1005A000000102040810204080010204081020010C
:1005B00002040810200404040404040404020202D7
:1005C00002020203030303030300000000230026CA
:1005D00000290000000000250028002B000000007A
:1005E00000240027002A0000BE0D11241FBECFEFFB
:1005F000D8E0DEBFCDBF11E0A0E0B1E0EAEBF6E667
:1006000002C005900D92A436B107D9F727E0A4E601
:10061000B1E001C01D92AB35B207E1F715E0CAEEBB
:10062000D5E004C02297FE010E94E132C83ED10706
:10063000C9F70E94B12F0C945B330C940000FB01AE
:1006400005900020E9F7609570956E0F7F1FCB0134
:10065000089504960C943515895B9D4F0C94860F74
:10066000895B9D4F0C94ED0FCF93DF931F92CDB715
:10067000DEB7698341E050E0BE016F5F7F4F0496B3
:100680000E9435150F90DF91CF910895FB01242F23
:100690006091490570914A05AF010C94B014FF9226
:1006A0000F931F93CF93DF938C01F62EEC01C95D5E
:1006B000DD4FCE010E94A714B801CE010E94F810B0
:1006C000882359F0FF2039F08881807731F0D0936A
:1006D0004A05C093490581E001C080E0DF91CF91D8
:1006E0001F910F91FF900895DC01643508F053C00D
:1006F000403308F050C090968C919097342F3595E8
:1007000035953595E62FFF27E7FDF095242F2770C7
:10071000823099F4DF01A45BBA4F84E53802A00D62
:10072000B11D11248C9190E0022E02C09595879501
:100730000A94E2F78095817009C0833039F4462726
:100740001C968C91482740FF03C014C0811112C031
:1007500084E53802E00DF11D1124E45BFA4F81E0DD
:1007600090E0022E01C0880F0A94EAF780959081EC
:10077000982310C084E53802E00DF11D1124E45BDC
:10078000FA4F81E090E0022E01C0880F0A94EAF748
:100790009081982B90830895A9E6B1E0E0E8F7E70F
:1007A00084918D933196E11588E7F807C9F7E4E461
:1007B000F2E0ABE6B1E081918D9382E0ED34F80791
:1007C000D1F769E671E080E897E7EDEFFFE3099480
:1007D0000F9361E08EE095E00E94792107E024E527
:1007E00040E060E08EE095E00E94EF2182E080939F
:1007F000170581E08093180560E08EE095E00E9487
:10080000792101E024E547E060E08EE095E00E9478
:10081000EF210F9108950F9361E08EE095E00E9423
:10082000792107E024E549E260E08EE095E00E944E
:10083000EF2182E0809317058AE28093180560E03B
:100840008EE095E00E94792101E024E548E260E035
:100850008EE095E00E94EF210F910895CF93DF93F2
:10086000EC01BC01882777FD8095982F0E941F031B
:100870002091160540911205429FA0011124489F26
:100880009001499F300D589F300D112436952795C2
:100890008AE2821B80931705BE018EE095E0DF910E
:1008A000CF910C94E82FCF93DF9300D0CDB7DEB774
:1008B00089839A830E94E80389819A810F900F901F
:1008C000DF91CF910C942E04CF93DF9300D0CDB75E
:1008D000DEB789839A830E940B0489819A810F90E5
:1008E0000F90DF91CF910C942E04FC010190002019
:1008F000E9F73197E81BF90B209116054091120595
:10090000429FA00111244E9F90014F9F300D5E9F8A
:10091000300D1124369527953AE2321B3093170596
:10092000BC018EE095E00C940D30CF93DF9300D0A6
:10093000CDB7DEB789839A830E94E80389819A81C3
:100940000F900F90DF91CF910C947504CF93DF93AC
:1009500000D0CDB7DEB789839A830E940B048981CA
:100960009A810F900F90DF91CF910C9475042F9284
:100970003F924F925F926F927F928F929F92AF922F
:10098000BF92CF92DF92EF92FF920F931F93CF937C
:10099000DF9300D000D0CDB7DEB7582E662E742E70
:1009A000422EB80141E081E592E00E94460388238F
:1009B00009F481C0472D50E0495F5F4F63E05595D2
:1009C00047956A95E1F75C834B835B81598380E8A7
:1009D00090E06B817C810E947F326B016A83A7016A
:1009E00060E070E081E592E00E94A41200E010E077
:1009F000A42CB12C70E8872E912C202E041508F021
:100A000054C0822D6A810E945F32392E992371F081
:100A10008B819C81389E7001399EF00C1124312C01
:100A2000F701E759FE4F7F01260C3AC07501E01A25
:100A3000F10ACE14DF040CF47601F981FE9DE02C5E
:100A40001124F12CA70169E671E081E592E00E9492
:100A500012118E159F05E4F681E592E00E94A7141D
:100A60002AC0832D869586958695F701E80FF11D9E
:100A70008081992787FD9095232D2770A40102C0BE
:100A8000559547952A95E2F784239523892B39F0CC
:100A9000422D632D650D8EE095E00E947403339422
:100AA0003710DFCF0F5F1F4FA8CF81E592E00E9484
:100AB000A71481E001C080E00F900F900F900F907D
:100AC000DF91CF911F910F91FF90EF90DF90CF902A
:100AD000BF90AF909F908F907F906F905F904F905E
:100AE0003F902F900895EF92FF920F931F93CF9313
:100AF000DF93EC0160E08EE095E00E94792100E256
:100B000024E548E060E08EE095E00E94EF2161E09E
:100B10008EE095E00E9479216091F30189E0689F61
:100B2000B00111246C507E4F8FE091E00E9415338C
:100B30006EE171E08FE091E00E940A3380E691E07F
:100B4000C89F7001C99FF00CD89FF00C112481E55B
:100B5000E80EF11C0FE011E020E244E568E080E0DF
:100B60000E94B704DF91CF911F910F91FF90EF90FA
:100B70000895CF938EE095E00E94202161E08EE001
:100B800095E00E94792110926801109267018EE130
:100B90008093640110926601109265016091F301E7
:100BA00089E0689FB00111246C507E4F8FE091E086
:100BB0000E9415336EE171E08FE091E00E940A33EC
:100BC00041E06FE071E081E592E00E9446038823F6
:100BD00089F141E550E069E671E081E592E00E942B
:100BE00012118135910531F580916F01813011F538
:100BF0001092830180E791E00E9495048091B901F1
:100C00008093680181E592E00E94A71480916701BA
:100C100090E00E947305811141C086E18093180520
:100C200083E08093170567ED70E08EE095E0CF914B
:100C30000C94E82F6091F301C9E0C69FB001112424
:100C40006C507E4F8FE091E00E94153369E271E0B5
:100C50008FE091E00E940A3310927B0141E06FE047
:100C600071E081E592E00E9446038091540288235E
:100C700059F042E150E069E671E081E592E00E94BE
:100C8000DA1689E691E007C08091F301C89FC001A0
:100C900011248C509E4F0E949504B4CFCF9108959B
:100CA000EFE0F1E0A0E080E0811104C090819E328D
:100CB000B1F405C0813021F490819E3281F08F5FC4
:100CC000823069F491E09A0FB0E0A351BE4F2081C9
:100CD0002C93933019F41092F0010895A92F3196B6
:100CE00091E0EC31F90701F7F6CF6FE071E081E5B3
:100CF00092E00E94201C0E9450066AE271E08DEE94
:100D000091E00E942B33892B69F063E271E08FE060
:100D100091E00E942B33892B29F490915102907716
:100D200081E009F080E008950F93482F469546959D
:100D300093E1499F402D1124837094E1899F602D98
:100D4000112404E125E18EE095E00E94C7210F9176
:100D500008950F93CF9361E08EE095E00E94792192
:100D60008091F201883010F40E94940660E08EE0D9
:100D700095E00E9479218091F3010E949406609190
:100D8000F3016093F20189E0689FB00111246C5077
:100D90007E4F8FE091E00E9415336EE171E08FE0AD
:100DA00091E00E940A3341E06FE071E081E592E05A
:100DB0000E944603882309F45AC041E550E069E6E1
:100DC00071E081E592E00E9412118135910509F0F0
:100DD0004EC080916F01813009F049C010928301AB
:100DE00080E791E00E94A60481E592E00E94A714AA
:100DF0006091F30189E0689FB00111246C507E4F2F
:100E00008FE091E00E9415336EE271E08FE091E097
:100E10000E940A3341E06FE071E081E592E00E94B8
:100E200046038823F1F081E592E00E94A71460E078
:100E30008EE095E00E94792108E029E048E260E038
:100E40008EE095E00E94EF2161E08EE095E00E9447
:100E500079212CE731E048E260E08EE095E00E94E5
:100E6000972385EE94E0CF910F910C94742D6091AF
:100E7000F301C9E0C69FB00111246C507E4F8FE092
:100E800091E00E94153369E271E08FE091E00E94E9
:100E90000A3310927B0141E06FE071E081E592E05E
:100EA0000E94460380915402882359F042E150E0A9
:100EB00069E671E081E592E00E94DA1689E691E048
:100EC00091CF8091F301C89FC00111248C509E4F97
:100ED00089CF8F929F92AF92BF92CF92DF92EF9283
:100EE000FF920F931F93CF93DF938EE095E00E94C4
:100EF000202161E08EE095E00E947921C0E027E2A8
:100F000040E06C2F8EE095E00E948121CC5EC837D6
:100F1000B1F7C0E020E54C2F60E08EE095E00E9444
:100F2000A421CD5ECC34B1F761E081E792E00E946C
:100F30004F031092F101C0E0D0E019E041E068E910
:100F400074E081E592E00E94EF13882309F44FC01A
:100F50000E947506882309F445C04091F1014111B2
:100F60000DC080913E0290913F029E0103E03595B5
:100F700027950A95E1F72817390799F5EFE0F1E091
:100F800089E0489F900111242C503E4F80E090E072
:100F9000582F61916E3249F4FC01149FE00DF11D50
:100FA0001124EC50FE4F108209C0D901A80FB91FBF
:100FB0006C9301968830910559F758E05F5F149F54
:100FC000F0011124E50FF11DEC50FE4F10824F5F30
:100FD0004093F101483030F081E592E00E94A7147F
:100FE00006C0219681E592E00E94A714A7CF61E098
:100FF0008EE095E00E94792180914002909141021B
:10100000029744F107E224E040E060E58EE095E0DD
:101010000E94C721209140023091410285E290E078
:10102000B9010E947F3201E0060F40913E025091CB
:101030003F0265E2649FC001659F900D1124B901D4
:101040000E947F3241E0460F23E061E58EE095E0AB
:101050000E94EF214091F101242F30E08091F301B3
:1010600090E0821793071CF041504093F301D12C7C
:10107000F9E0AF2EA4E19A2EB3E18B2E8091F1011D
:10108000D81608F056C0AD9CE0011124CC50DE4FBC
:10109000BE018FE091E00E9415336EE171E08FE0B8
:1010A00091E00E940A331D2D1370199DB02C11245C
:1010B000CD2CC694C694C89CC02C112461E06C0D44
:1010C000EAE1EE2EF12C0FE011E022E143E181E0B4
:1010D0008B0D0E94B70481112AC01B2D1D5F109338
:1010E000170582E08C0D8093180544E050E0BE01A6
:1010F0008AE091E00E941C336AE071E08EE095E0A6
:101100000E940D30109317058C2D885F8093180571
:10111000BE016C5F7F4F44E050E08AE091E00E94A6
:101120001C336AE071E08EE095E00E940D30D394AC
:10113000A5CF88E08093F201DF91CF911F910F91AD
:10114000FF90EF90DF90CF90BF90AF909F908F90E7
:101150000C94A906CF93DF93EC0187EC90E00E94FA
:1011600064048EE095E00E943121C11584E0D80727
:101170005CF4CE010E944533882321F060E0CE016B
:101180000E944D332196F1CFDF91CF910895DF92E8
:10119000EF92FF920F931F93CF93DF9364E472E07B
:1011A0008FE091E00E941533EFE0F1E08081803222
:1011B00009F41082319681E0E731F807B9F76EE261
:1011C00071E08FE091E00E940A3341E06FE071E04E
:1011D00081E592E00E944603882309F440C084EB35
:1011E00090E00E9464048EE095E00E943121D12CB1
:1011F000F12C40E850E069E671E081E592E00E9460
:1012000012118C01181619060CF5CD2DDF2DEC2EC0
:10121000ED18F12CE016F1069CF5CE010E94453345
:10122000F701E759FE4F6081482F50E0262F332702
:1012300027FD30954217530719F0CE010E944D3318
:101240002196C11584E0D80714F31AC02D2D3F2D27
:10125000232BC9F489EA90E00E94640414C08BE94E
:1012600090E00E946404D12CF12C8D2D9F2DDF91F4
:10127000CF911F910F91FF90EF90DF900C94AA08EF
:10128000DC2EFD2EB6CF81E592E00E94A714EDCFB3
:101290006091F30189E0689FB00111246C507E4F8A
:1012A00084E492E00E9415330E94CC030E94C70898
:1012B00080E090E00E947305811107C084E1809373
:1012C000180584E492E00E9475048BE391E00E948B
:1012D000530486E291E00E9464048EE095E00E944F
:1012E000312184E492E0EEEFFFE30994BF92CF92C4
:1012F000DF92EF92FF920F93CF93DF930E94B90595
:1013000089E0C82EC3E0D0E092E2E92EF12CBB24A4
:10131000B3942CE0D22E80EC94E00E94A027882386
:10132000D1F365E08AEC94E00E94CE20811107C0E1
:1013300066E08AEC94E00E94CE20882359F085EE86
:1013400094E00E94742D80916501882309F4BBC14B
:101350001092650164E08AEC94E00E94CE2088231C
:1013600099F085EE94E00E94742D809166018130A1
:1013700049F028F0823041F4B092650105C00E9426
:10138000480902C080936501809165018823A1F11D
:1013900044E164E08AEC94E00E94D720882361F164
:1013A00085EE94E00E94742D809166018130C9F52C
:1013B0006091F301C69EB00111246C507E4F8FE006
:1013C00091E00E9415336EE271E08FE091E00E949F
:1013D0000A3343E06FE071E081E592E00E9446034A
:1013E000882341F081E592E00E949B1881E592E01C
:1013F0000E94A7140E94B90561E08AEC94E00E9463
:10140000CE20811149C18091D2048B3008F45AC09A
:1014100043E061E08AEC94E00E94E52081113CC148
:1014200051C0823049F76091F30159E0659FB001E6
:1014300011246C507E4F8FE091E00E9415336EE1D5
:1014400071E08FE091E00E940A3343E06FE071E0C9
:1014500081E592E00E944603882341F081E592E015
:101460000E949B1881E592E00E94A7146091F3010D
:1014700089E0689FB00111246C507E4F8FE091E0AD
:101480000E94153369E271E08FE091E00E940A3317
:1014900043E06FE071E081E592E00E94460388231B
:1014A00009F411C181E592E00E949B1881E592E068
:1014B000DF91CF910F91FF90EF90DF90CF90BF9091
:1014C0000C94A71463E08AEC94E00E94CE20811172
:1014D000EAC08091D4048B3040F043E063E08AECB2
:1014E00094E00E94E5208111DEC043E062E08AECD6
:1014F00094E00E94E520882329F08091660190E025
:1015000001960CC043E060E08AEC94E00E94E52084
:10151000882349F08091660190E00296BE010E9406
:101520007F328093660180916501882319F085E1FF
:1015300091E00FC080916601813049F028F082303F
:1015400051F48CEE90E005C08CE091E002C08CEF8D
:1015500090E00E94640480916801823008F462C0C7
:1015600080916401882309F45DC0815080936401F7
:1015700060E0811117C08EE095E00E94792102E2BF
:1015800025E047E06FE48EE095E00E94EF2161E006
:101590008EE095E00E9479218091670190E00E94A1
:1015A000730540C08EE095E00E94792102E225E0BB
:1015B00047E06FE48EE095E00E94EF2161E08EE06D
:1015C00095E00E94792100E521E047E060E58EE0AA
:1015D00095E00E94C72103E521E047E063E58EE046
:1015E00095E00E94C7212091680130E04091670199
:1015F000C701B9010E947F326330710514F463E0C2
:1016000070E001E0060F52E2459FC0011124B901CC
:101610000E947F3247E0460F23E061E58EE095E0CF
:101620000E94EF216091F301C69EB00111246C501D
:101630007E4F8FE091E00E9415336EE271E08FE003
:1016400091E00E940A3341E06FE071E081E592E0B1
:101650000E944603882309F45ECE81E592E00E9451
:10166000A71460E08EE095E00E94792108E029E06F
:1016700048E260E08EE095E00E94EF2161E08EE0BC
:1016800095E00E9479212CE731E048E260E08EE0AD
:1016900095E00E9497233FCE609168018091670199
:1016A000860F815005C0809167018F5F609168014E
:1016B0000E945F3290936701892F90E00E9473052A
:1016C000D092640112CFDF91CF910F91FF90EF90F4
:1016D000DF90CF90BF900895C7E080EC94E00E9427
:1016E000A0278823D1F364E08AEC94E00E94CE2006
:1016F000882341F085EE94E00E94742D0E947609C3
:101700000E94690743E062E08AEC94E00E94E520D1
:10171000882311F18091F3018F5F8093F301909101
:10172000F1018917B8F01092F30180913E02909177
:101730003F02019690933F0280933E022091400227
:1017400030914102821793073CF010923F021092B1
:101750003E0202C00E94A90643E063E08AEC94E0E6
:101760000E94E520882359F18091F3018C5F8093DA
:10177000F3019091F101891748F441E065E08AECAA
:1017800094E00E94E520882309F4A9C08091F30128
:1017900083708093F30180913E0290913F02019605
:1017A00090933F0280933E0220914002309141028B
:1017B0008217930724F010923F0210923E0243E0FA
:1017C00060E08AEC94E00E94E520882319F1809182
:1017D000F30181111AC0C093F30180913E029091F0
:1017E0003F02892B41F480914002909141029093F5
:1017F0003F0280933E0280913E0290913F0201970A
:1018000090933F0280933E0205C081508093F30184
:101810000E94A90643E061E08AEC94E00E94E52082
:10182000882349F18091F301843048F041E065E07C
:101830008AEC94E00E94E520882309F453C080914B
:10184000F3018C5F8093F30180913E0290913F02FF
:10185000892B41F4809140029091410290933F0284
:1018600080933E0280913E0290913F0201979093B7
:101870003F0280933E0220913E0230913F028091D0
:101880003C0290913D022817390751F00E946907E8
:1018900080913E0290913F0290933D0280933C02E2
:1018A00061E08EE095E00E94792180913105909170
:1018B0003205A0913305B091340587709927AA2786
:1018C000BB270497A105B10528F060E08EE095E004
:1018D0000E9479218091F3010E949406FECE0E941D
:1018E000A9066DCF8091F30184508093F3010E948B
:1018F000A906C1CFEF92FF920F931F93CF93DF936F
:10190000C0E0D0E0CE010E94453381110FC0219686
:10191000C11584E0D807B1F786E890E0DF91CF9158
:101920001F910F91FF90EF900C94640464E472E0B7
:101930008FE091E00E9415336EE271E08FE091E05C
:101940000E940A338AE790E00E94640443E46FE057
:1019500071E081E592E00E944603811103C088E6B0
:1019600090E0DCCFC0E0D0E009E611E0FE01E956EE
:10197000F1407F01F1E0093E1F0749F0C701800FE8
:10198000911F0E944533F80181938F01F3CF40E806
:1019900050E069E671E081E592E00E943515C0589B
:1019A000DF4FC11584E0D807F9F681E592E00E9487
:1019B000A7148EE690E00E9464048EE095E0DF912B
:1019C000CF911F910F91FF90EF900C94312180ECFB
:1019D00094E00E945B2A1092DD041092DC048CE0FB
:1019E0008093300566E871E080EC94E00E94DD2988
:1019F0008EE095E00E94202181E0809314051092F2
:101A0000D80426E831E04CE060E08EE095E00E94EA
:101A1000972385E691E00E9453048EE095E00E94B2
:101A2000312124E04AE06FEB74E088EB94E00E94FF
:101A3000D70E882309F499C088E994E00E94A7147E
:101A400061E081E792E00E94A81E882351F061E7DF
:101A500072E088E994E00E94F810882309F485C0B8
:101A600008C060E081E792E00E94A81E8111EFCFDC
:101A70007CC080919804807709F477C088E994E06D
:101A800090934A0580934905E2E8F7E7E491E093F3
:101A90004402E3E8F7E7E491E0934502E4E8F7E77E
:101AA000E491E0934602E5E8F7E7E491E09347022A
:101AB000E6E8F7E7E491E0934802E7E8F7E7E49126
:101AC000E0934902E8E8F7E7E491E0934A02E9E8A5
:101AD000F7E7E491E0934B02E4E4F2E080818032A6
:101AE00009F41082319682E0EC34F807B9F780915E
:101AF0004402882321F00E947A0C0E94CC0361E00A
:101B000081E792E00E944F0341E068E974E081E5DB
:101B100092E00E94EF13882391F00E9475068823BB
:101B200049F08091420290914302019690934302C2
:101B30008093420281E592E00E94A714E5CF2091B4
:101B4000420230914302C901019797FD079633E0A5
:101B5000959587953A95E1F7019690934102809388
:101B60004002109215050C94690781E591E00E94EE
:101B700053048EE095E00E943121FFCF10921105B1
:101B80001092100587E491E090930F0580930E0565
:101B900010927602109298041092990489E1809331
:101BA000BB041092BE048FE391E090937202809385
:101BB0007102109251021092520210925002109231
:101BC0004F0287E391E090934E0280934D02089577
:101BD00090E022E0281740F0892F806A86958CBD1E
:101BE000909591709DBD08959730B0F7220F953074
:101BF00010F431E001C032E0930FECCF8FEF8EBDD7
:101C00000DB407FEFDCF8EB508958EBD0DB407FE51
:101C1000FDCF089561E0FC0182810E94512F8FEF7A
:101C20000C94050ECF93DF93EC018C810E94E80D9C
:101C300060E08A81DF91CF910C94512FCF92DF9297
:101C4000EF92FF920F931F93CF93DF93EC018B01E1
:101C50007A010E94E12D6B010E94FE0D8D838F3F62
:101C600049F40E94E12D6C197D096D327140A0F399
:101C700081E103C08E3F39F08FE08B83CE010E945B
:101C80000A0E80E028C0E114F104E1F081E0E81AD6
:101C9000F1088FEF8EBDF8012FEFCF01801B910B64
:101CA0008E159F0538F40DB407FEFDCF8EB52EBD01
:101CB0008193F3CF0DB407FEFDCF8EB5F801EE0D85
:101CC000FF1D80831D820E94FE0D0E94FE0DCE012D
:101CD0000E940A0E81E0DF91CF911F910F91FF903A
:101CE000EF90DF90CF9008950F931F93CF93DF93E2
:101CF000EB010E94E12D8B010E94FE0D8F3F49F008
:101D00000E94E12D601B710B6C177D07A8F380E02A
:101D100001C081E0DF91CF911F910F910895FF9253
:101D20000F931F93CF93DF9300D000D0CDB7DEB7D2
:101D30008C01F62E29833A834B835C830E94120E1A
:101D400068E572E0C8010E94740E8F2D80640E94C5
:101D5000050E8C810E94050E8B810E94050E8A81E2
:101D60000E94050E89810E94050EF11002C085E9CE
:101D700001C087E80E94050E8CE0F81202C00E94A4
:101D8000FE0DF12C0E94FE0DF801858387FF05C032
:101D9000FFEFFF1611F0F394F5CF0F900F900F9017
:101DA0000F90DF91CF911F910F91FF900895BF92F7
:101DB000CF92DF92EF92FF920F931F93CF93DF9317
:101DC000EC01B22E1E821B82798368834A830E94B3
:101DD000E12D8B0161E08A810E94182F61E08A81E8
:101DE0000E94512F2A9A229A239A259A80E48C8362
:101DF0000E94E80D2AE0F22E8FEF0E94050EFA9461
:101E0000D9F720E030E0A90160E0CE010E948F0EFA
:101E1000813049F00E94E12D601B710B613D7740DC
:101E200080F381E051C02AEA31E040E050E068E010
:101E3000CE010E948F0E853011F481E00AC094E03B
:101E4000F92E0E94FE0D8D83FA94D9F78A3A59F43F
:101E500082E08E838E81823079F4C12CD12CE12CEA
:101E600080E4F82E0CC00E94E12D601B710B613DD7
:101E70007740C8F282E028C0C12CD12C760120E046
:101E800030E0A90167E3CE010E948F0EA701960101
:101E900069E2CE010E948F0E882349F00E94E12D55
:101EA000601B710B613D774050F38AE00DC08E815D
:101EB0008230E9F420E030E0A9016AE3CE010E941B
:101EC0008F0E882339F088E08B83CE010E940A0EA2
:101ED00080E012C00E94FE0D807C803C11F483E003
:101EE0008E830E94FE0D0E94FE0D0E94FE0DCE010B
:101EF0000E940A0EBC8281E0DF91CF911F910F9169
:101F0000FF90EF90DF90CF90BF9008950F931F93B5
:101F1000CF93DF93EC0189018E81833039F039E072
:101F2000440F551F661F771F3A95D1F79A01AB01F1
:101F300061E1CE010E948F0E81110AC040E052E0A3
:101F4000B801CE01DF91CF911F910F910C941E0E1D
:101F500084E08B83CE010E940A0E80E0DF91CF9156
:101F60001F910F9108950F931F93CF93DF93EC016F
:101F7000862F8A010E94050EF80180818EBD818125
:101F800022E030E00DB407FEFDCF8EBD2115F2E05A
:101F90003F0739F0F801E20FF31F80812F5F3F4FB9
:101FA000F1CF0DB407FEFDCF8FEF0E94050E8FEF2E
:101FB0000E94050E0E94FE0D8D838F71853039F0D1
:101FC00083E18B83CE010E940A0E80E001C081E094
:101FD000DF91CF911F910F9108950F931F93CF938E
:101FE000DF93EC0189018E81833039F089E0440F61
:101FF000551F661F771F8A95D1F79A01AB0168E1DB
:10200000CE010E948F0E882319F086E08B830CC0CE
:10201000A8016EEFCE010E94B30F182F882321F084
:10202000CE010E940A0E04C0CE010E940A0E10E0EA
:10203000812FDF91CF911F910F910895FC01828133
:10204000806882839F01245F3F4F44855585668564
:102050007785868197810C94B91D9F92AF92BF922C
:10206000CF92DF92EF92FF920F931F93CF93DF9364
:10207000EC01888185FF02C0912C5EC08889998916
:10208000AA89BB8981159E4FAF41B105A8F7CE0142
:102090000E941E10982E882379F34C855D856E85ED
:1020A0007F858E819F810E94D01C6B017C018E8177
:1020B0009F8125E0B701A60180960E948E1C5C01DD
:1020C0000097D1F280E092E0F5019C01119221503D
:1020D0003040E1F711E0AE81BF8112960C9112976A
:1020E0001017A0F4ED91FC9111970280F381E02D7F
:1020F0009501B701A601410F511D611D711DCD0153
:102100000995882309F4B8CF1F5FE5CF10E020E0E0
:1021100030E089E0000F111F221F331F8A95D1F78D
:10212000488959896A897B89400F511F621F731F33
:10213000488B598B6A8B7B8B892DDF91CF911F91B7
:102140000F91FF90EF90DF90CF90BF90AF909F9056
:102150000895CF93DF93EC01262F4C895D896E891A
:102160007F898E819F8180960E948E1C9C010097A2
:1021700061F08C819D818F70992745E0880F991FB0
:102180004A95E1F7820F931F02C080E090E0DF9153
:10219000CF910895CF93DF93DC01FC0190E048E0FC
:1021A00080E05EE220812032C1F0983031F4EB0112
:1021B000C80FD11D58838F5F40E120813FEB320F64
:1021C0003A3130F41C963C911C97342309F0205E80
:1021D000EB01C80FD11D28838F5F9F5F31969B3025
:1021E00009F7FB01E80FF11D1082DF91CF910895EF
:1021F000FC018081811114C080E2DF01982F1D92C3
:102200009A95E9F777836683DB0115969C91903167
:1022100019F0903229F480E4808381E0828308956C
:1022200080E008952F923F924F925F926F927F923B
:102230008F929F92AF92BF92CF92DF92EF92FF92D6
:102240000F931F93CF93DF9300D000D0CDB7DEB7AD
:102250009C838B834B017A01DC018C91882309F1EB
:1022600012969C9190FF1DC027C0D380D822A11444
:10227000B10409F09CC0D1109AC0452B462B472BC6
:1022800009F47EC0AB81BC811C964D915D916D912E
:102290007C911F9729813A81CF010E94E81C87FF1A
:1022A0007EC0AB81BC8111968C9111978260119692
:1022B0008C938FEF9FEFE3C083FF17C0EB81FC810E
:1022C000808D918DA28DB38D4089518962897389EA
:1022D000841B950BA60BB70BA70160E070E04817B5
:1022E00059076A077B07D0F018C085FF17C0AB817C
:1022F000BC811696ED91FC9117978681978155E0E8
:10230000880F991F5A95E1F750962D913C9151975E
:10231000821B930B8E159F0508F47C018701EB81CE
:10232000FC813C96FA83E983612C42E0742E01150E
:10233000110509F468C0AB81BC8150964D915D9147
:102340006D917C9153975A01B1E0BB22EB81FC81E6
:1023500020810680F781E02DDB01CA0139E0B695C6
:10236000A795979587953A95D1F725FF7ECF448D10
:10237000558D668D778D480F591F6A1F7B1F2BC0A7
:1023800026FD02C0EB81FC81848D958DA68DB78DD5
:10239000EB81FC8184879587A687B78708C0811168
:1023A00006C0EB81FC818081807769F57ACFAB81B3
:1023B000BC811C964D915D916D917C911F971696F5
:1023C0008D919C9117970E94D01CAB01BC014D0DC3
:1023D000511D611D711DEB81FC8186819781A114C6
:1023E000B104B1F50115F2E01F0790F1DC019396FD
:1023F0002D903D904D905C90969742155305640545
:10240000750529F425C0C701801B910B38C0DC017C
:10241000ED91FC910190F081E02D940109958823C4
:1024200009F43FCFC12CF2E0DF2E8C0C9D1CEB8118
:10243000FC8180899189A289B3898C0D9D1DA11D84
:10244000B11D808B918BA28BB38B0C191D096FCFA3
:1024500093012A193B0968012017310708F4690123
:1024600020E080960E948E1C009709F41ACFBC01D0
:102470006A0D7B1DA601C4010E940133D6CF0F90C7
:102480000F900F900F90DF91CF911F910F91FF90C0
:10249000EF90DF90CF90BF90AF909F908F907F9004
:1024A0006F905F904F903F902F900895FF920F9301
:1024B0001F93CF93DF931F92CDB7DEB78C01262FEA
:1024C000FC014089518962897389DB01CA01E5E019
:1024D000B695A79597958795EA95D1F7F82FFF7050
:1024E000FF2E11F0211117C041E050E0BE016F5FD7
:1024F0007F4FC8010E941211813019F080E090E0F6
:102500001CC0F8014089518962897389415E5F4F1F
:102510006F4F7F4F05C0405E5F4F6F4F7F4FF80199
:10252000408B518B628B738BF801868197818796E4
:10253000F0E2FF9E800D911D11240F90DF91CF914D
:102540001F910F91FF9008954F925F926F927F922B
:102550008F929F92AF92BF92CF92DF92EF92FF92B3
:102560000F931F93CF93DF93EC016A017B014C849F
:102570005D846E847F84A881AA2309F48CC04115F0
:1025800051056105710529F41C861D861E861F866E
:102590007CC0A3FF0BC0488D598D6A8D7B8D4C1577
:1025A0005D056E057F0508F476C014C0A5FF12C056
:1025B000EE81FF8186819781F5E0880F991FFA955A
:1025C000E1F7A0E0B0E084179507A607B70708F485
:1025D00062C05BC0088919892A893B89EE81FF8125
:1025E000848190E00996B901A8014150510961091F
:1025F0007109082E04C076956795579547950A94FA
:10260000D2F746015701B1E08B1A9108A108B10831
:1026100004C0B694A794979487948A95D2F78416A9
:102620009506A606B70620F0012B022B032B81F49A
:10263000A6FF05C0848D958DA68DB78D04C08C8DA9
:102640009D8DAE8DBF8D8C879D87AE87BF8704C063
:10265000841A950AA60AB70A8E01045F1F4F8114D7
:102660009104A104B10489F04C855D856E857F8558
:1026700098018E819F810E94E81C91E0891A91083F
:10268000A108B10818165CF306C0C88AD98AEA8A7C
:10269000FB8A81E005C04C865D866E867F8680E081
:1026A000DF91CF911F910F91FF90EF90DF90CF902E
:1026B000BF90AF909F908F907F906F905F904F9062
:1026C00008958F929F92AF92BF92FF920F931F93A4
:1026D000CF93DF93EC01F22E80E2DE011D928A950A
:1026E000E9F7FB01868197819F838E835D834C830D
:1026F000848C958CA68CB78C88869986AA86BB8696
:10270000FC01B7964F705527B5E0440F551FBA9599
:10271000E1F7E40FF51F338533FF03C0188280E033
:1027200054C0377138832385287111F43860388399
:102730000B832F2D227319F02881217179F72F2D0A
:102740002F702A83DC0193964D915D916D917C9160
:1027500096974C8B5D8B6E8B7F8B4489558960E09F
:1027600070E0BA0155274427028D138D20E030E038
:10277000402B512B622B732BF4FE0AC041155105DF
:1027800061057105E9F00E945B1E811119C0C6CF79
:102790004C8F5D8F6E8F7F8F448D558D668D778DBD
:1027A000488F598F6A8F7B8FF5FE0EC0488D598DEB
:1027B0006A8D7B8DCE010E94A412811105C0AECF1F
:1027C0008A8180688A83F0CF81E0DF91CF911F9169
:1027D0000F91FF90BF90AF909F908F9008958F9230
:1027E0009F92AF92BF92DF92EF92FF920F931F934F
:1027F000CF93DF937C01EB01D42EFC01808181110A
:1028000038C088818077A9F1088919892A893B898C
:102810000F71112722273327012B022B032B49F598
:1028200000E010E088889988AA88BB8860E0CE0123
:102830000E9456120097E9F0FC0120812223C9F082
:102840002E3211F400E0EECF253EE1F3338533FD67
:1028500007C0002381F00E949B1618130AC00BC00A
:102860003F3081F726FFDECF022F0F71FC01158567
:10287000D9CF80E00EC0B501A40115E0769567952B
:10288000579547951A95D1F72D2DBE01C7010E9486
:102890006113DF91CF911F910F91FF90EF90DF9027
:1028A000BF90AF909F908F9008950F931F93CF93F9
:1028B000DF93EC018881882309F443C08A8187FF74
:1028C00038C061E0CE010E94A9108C01009729F464
:1028D00089818160898380E035C0FC018081853EEB
:1028E000B9F3888183FF08C0488D598D6A8D7B8D2F
:1028F000448F558F668F778F4C8D5D8D6E8D7F8D5C
:10290000F801538F428F758B648BE0914705F091EE
:102910004805309759F0B8016A5E7F4FC801489664
:102920000995F801808D918D938B828B8A818F77A9
:102930008A838E819F8180960E943B1C882341F26E
:1029400001C081E0DF91CF911F910F910895CF9346
:10295000DF93EC010E9455141882DF91CF91089506
:10296000CF92DF92EF92FF920F931F93CF93DF935B
:10297000CDB7DEB7E3970FB6F894DEBF0FBECDBF7D
:102980008C017B015BAB4AABD22E19821A82FC010F
:102990008081882311F080E059C0FB01808180771D
:1029A000D1F3EAA9FBA980818F32D9F4EAA9FBA966
:1029B00080818F3221F43196FBABEAABF7CFF70180
:1029C00066817781811104C0C8010E94F8103EC061
:1029D000CE0101960E94F8108823E9F2CE010196FB
:1029E0007C0150E2C52EAE014E5C5F4FBE016F5DB3
:1029F0007F4F8AA99BA90E94A017882361F2EAA9A8
:102A0000FBA980818823D1F021E0AE014F5D5F4FAB
:102A1000B701C8010E94D419882309F4BCCFF8017A
:102A2000DE0111968C2D01900D928A95E1F7C80177
:102A30000E94A714FE0131967F01D5CF2D2DAE0146
:102A40004F5D5F4FB701C8010E94D419E3960FB6DE
:102A5000F894DEBF0FBECDBFDF91CF911F910F91D4
:102A6000FF90EF90DF90CF9008952F923F924F927A
:102A70005F926F927F928F929F92AF92BF92CF920E
:102A8000DF92EF92FF920F931F93CF93DF93EC01AE
:102A90005B014A01888183FF0EC08A8181FF0BC0E0
:102AA00082FF0FC0488D598D6A8D7B8DCE010E94AB
:102AB000A412811106C08981816089838FEF9FEF05
:102AC00006C1A40160E070E088899989AA89BB8960
:102AD00080959095A095B09584179507A607B707A0
:102AE00050F364011E012CE0220E311C48895989E3
:102AF0006A897B89C114D10409F4C7C08E819F8182
:102B00002A013B0129E076946794579447942A95CB
:102B1000D1F7DC0113961C9114217A01B1E0FB225C
:102B2000111134C0E114F10489F54C855D856E8581
:102B30007F85411551056105710569F091010E947C
:102B4000E81C87FDB8CF811121C0CE010E941E1064
:102B500081111CC0B0CF8C8D9D8DAE8DBF8D009727
:102B6000A105B10579F4CE010E941E10882309F455
:102B7000A2CF8C859D85AE85BF858C8F9D8FAE8FB6
:102B8000BF8F04C08C879D87AE87BF874C855D85CE
:102B90006E857F858E819F810E94D01CAB01BC0118
:102BA000410F511D611D711DEE81FF81E114F10482
:102BB00021F4C11422E0D206B8F580E092E08E192B
:102BC0009F0986018C159D0508F48C01E114F10420
:102BD00079F4488859886A887B88888D998DAA8D70
:102BE000BB8D481659066A067B0610F025E001C029
:102BF00021E0CF0180960E948E1C009709F45BCFE4
:102C0000A801B5018E0D9F1D0E940133E00EF11E3B
:102C1000E11482E0F80641F58E819F8180960E9442
:102C20003B1C811121C047CF83A194A1A5A1B6A1CE
:102C300084179507A607B70741F410A28FEF9FEFFF
:102C4000DC0183A394A3A5A3B6A38E819F81DC019D
:102C5000ED91FC910280F381E02D95010995882387
:102C600009F429CF00E012E088899989AA89BB89F3
:102C7000800F911FA11DB11D888B998BAA8BBB8BD7
:102C8000A00EB11EC01AD10A31CF888D998DAA8DA0
:102C9000BB8D2A8184179507A607B70728F4488FAC
:102CA000598F6A8F7B8F06C08091470590914805A8
:102CB000892B11F020682A838A8183FD02C0C40118
:102CC00006C0CE010E9455148111F9CFF4CEDF91D8
:102CD000CF911F910F91FF90EF90DF90CF90BF9019
:102CE000AF909F908F907F906F905F904F903F90AC
:102CF0002F900895653040F4FC01E60FF11DE60FBA
:102D0000F11D8181928108956B3040F4FC01E60F42
:102D1000F11DE60FF11D848195810895613140F424
:102D2000FC01E60FF11DE60FF11D868197810895E4
:102D300080E090E00895FC0190E080E080FB8795C2
:102D400087F92191820F9F5F9B30C1F70895CF9340
:102D5000DF93FC01DB0118964D915D916D917C91A3
:102D60001B97452B462B472B41F416966D917C9172
:102D70001797DF91CF910C94F81080E2EF01199230
:102D80008A95E9F780E1808381E0828316968D91B0
:102D90009C9117979783868318964D915D916D91BD
:102DA0007C911B97448F558F668F778F81E0DF91E1
:102DB000CF9108952F923F924F925F926F927F92A0
:102DC0008F929F92AF92BF92CF92DF92EF92FF923B
:102DD0000F931F93CF93DF93CDB7DEB7A1970FB6B5
:102DE000F894DEBF0FBECDBF8C016B015A01198272
:102DF0001A82FC018081811104C0F6011082412CED
:102E000085C04D305105C8F3F8018381811106C09A
:102E1000B601C8010E94201C482E78C0B801CE011E
:102E200001960E94A716882341F355245394460126
:102E30008A0C9B1C21E0821A9108F8018381851578
:102E4000E0F2652C712CF80144815581461957092F
:102E500060E070E085E0440F551F661F771F8A957C
:102E6000D1F7CE0101960E94A412482E882329F2A0
:102E700060E0CE0101960E9456127C01009709F491
:102E8000BCCFFC0183858F3009F0B7CF80818F7173
:102E900090E06816790609F0B0CFC3010197FDE014
:102EA000F89F3001F99F700C11241601260C371C75
:102EB00050E0652FC70159A30E947A1659A10097C7
:102EC00091F06A147B04D0F42FEF621A720A8F37E4
:102ED000910510F4282F01C02FE3F10121931F0168
:102EE0005F5F5D3031F76A147B0440F4F701808145
:102EF00086FF04C0F601E60DF71D1082F401108272
:102F0000F701808186FD02C0539497CF842DA1964E
:102F10000FB6F894DEBF0FBECDBFDF91CF911F91EA
:102F20000F91FF90EF90DF90CF90BF90AF909F9068
:102F30008F907F906F905F904F903F902F9008956B
:102F4000CF92DF92EF92FF920F931F93CF93DF9375
:102F5000FB01DC0101962C912032D9F3B483A383C9
:102F6000ED01BE016A1B7B0B8991811105C0CD016A
:102F7000860F971FEC0118C08F32C9F38C3511F4FE
:102F800080E0D0C0982F977F9232D1F38A33C1F37B
:102F9000982F9F7B9C33A1F392EC980F923080F393
:102FA00080528F35F0F2ECCF1C2F3D2F299120322B
:102FB000D9F32F32C9F3EA0118833983EC01611583
:102FC000710561F08A918E3211F0803219F46150EE
:102FD0007109F5CF6F3F710509F094F67283618333
:102FE00080E090E020E2EF01C80FD91F2E83019608
:102FF0008B309105C1F7ED01CE018A1B9B0B299106
:103000002E32D1F32032C1F351E0009709F050E0A5
:103010009B012150310938F407E010E0C12CF12C5C
:10302000C8E0EC2E0FC0ED01C20FD31F48814E3215
:1030300081F7F2CFED01C80FD91F4881403231F43A
:1030400050E0019686179707ACF343C04E3221F447
:1030500028173907A9F704C04232A1F04C3791F084
:10306000C6EDC40FC63010F44D3261F4C6ECC40F87
:10307000C63040F0C5EAC40FC33020F0CFEDC40F16
:10308000CE3530F08217930709F150E04FE503C0C9
:1030900082179307D9F00117D0F1CFE9C40FCA31D5
:1030A00018F44052FE2805C0CFEBC40FCA3108F413
:1030B000CE28DD24D394D10EEF01C10FD11D4E8354
:1030C00046E04D1508F0D5821D2DBBCF0A30C9F45E
:1030D00050E08681803209F453CF552339F0CF2058
:1030E00011F082E001C08F2D808309C081E08083D0
:1030F0008581E80FF11D8EE7868381E3878381E078
:1031000011C0C9010AE018E040E1E42E9ACF0A306C
:10311000F9F228173907E4F2C9010AE018E050E192
:10312000E52E8ECFDF91CF911F910F91FF90EF9001
:10313000DF90CF900895BF92CF92DF92EF92FF92EF
:103140000F931F93CF93DF93CDB7DEB7A0970FB642
:10315000F894DEBF0FBECDBF8C0119821A82DC014C
:103160008C9183FD02C080E089C0F801828181FFDB
:10317000FACF448D558D668D778D411551056105CA
:10318000710549F0D80116968D919C9117970E9470
:103190005B1E882341F361E0C8010E94A9107C01F5
:1031A000009709F30E949B16D82E85EEF7018083C5
:1031B000D8011C9216968D919C91179780960E942B
:1031C0003B1C882381F2F8019381992309F456C0AE
:1031D000B801CE0101960E94A716882321F2BB24D4
:1031E000B39425EEC22EF80183818B1508F4BBCF72
:1031F000EB2CF12CD80114964D915C9115974E193A
:103200005F0960E070E095E0440F551F661F771F6F
:103210009A95D1F7CE0101960E94A412882309F451
:10322000A2CF60E0CE0101960E945612FC010097E9
:1032300009F499CF83858F3009F095CF2081822FB3
:103240008F7190E0E816F90609F08DCF8585D812C8
:103250008ACFC082D8011696ED91FC91179780A174
:10326000816080A326FF08C016968D919C911797C8
:1032700080960E943B1C02C0B394B5CFA0960FB6B7
:10328000F894DEBF0FBECDBFDF91CF911F910F919C
:10329000FF90EF90DF90CF90BF900895AF92BF92D4
:1032A000CF92DF92EF92FF920F931F93CF93DF9312
:1032B0007C01EB01AD8002E010E07EE7B72E6E01ED
:1032C00086E0C80ED11C89819A819801280F391F88
:1032D000EB81FC81AF01480F591FE417F50779F026
:1032E000C90165E0880F991F6A95E1F7820F931F66
:1032F0002191332727FD309528273927EECFE3E0AA
:10330000EA1510F453E0A52E84E08A0D922F9F70E9
:10331000E82FF0E09A3010F4905D01C0995CEC0F5A
:10332000FD1F968344E0369527954A95E1F7815035
:10333000A81660F3FE01EA0DF11DB68240E050E0F0
:10334000BA01C7010E94A41261E0C7010E9456128F
:10335000BC01009731F481E0F70191819923C9F014
:1033600017C0FC018081882359F0838583FDECCF51
:103370004BE050E0C6010E94F432892B29F702C0CD
:1033800081E007C00F5F1F4F0436110509F09BCF86
:1033900080E0DF91CF911F910F91FF90EF90DF9030
:1033A000CF90BF90AF9008952F923F924F925F922F
:1033B0006F927F928F929F92AF92BF92CF92DF9245
:1033C000EF92FF920F931F93CF93DF93CDB7DEB7AA
:1033D0002B970FB6F894DEBF0FBECDBF3C017B87A5
:1033E0006A877A012A83DA0111968D909C90129750
:1033F000FB018081807711F480E0F3C1D3018C91CF
:103400008111FACFFA018081837009F4E1C1C4010E
:103410000C966DE070E00E946B3255245394560E6A
:1034200040E050E0BA018A859B850E94A4121C826C
:103430001D821982412C10E000E01B821701B6E0CA
:103440002B0E311CAA85BB8550962D913D914D9137
:103450005C91539765E056954795379527956A9502
:10346000D1F7590161E0CD0128873E8349875F8309
:103470000E9456126C0128853E81009739F4EA8536
:10348000FB858181882309F488C0B6CFDC018C914B
:10349000853E11F081110AC0111102C02C833D83B9
:1034A000151508F41F5F811104C077C0151528F0A9
:1034B00005C0853E19F400E0C5CF10E08E32D9F387
:1034C000F60193859F3009F046C0011108C086FFC0
:1034D000B9CF082F0F7125852983402E07C04A9444
:1034E0008411E9CF858529812813E5CF842D90E0CB
:1034F0000197ADE0A89F5001A99FB00C1124A8141A
:10350000B904C8F620E0622FC60128870E947A1607
:103510002885A814B90419F4892B69F693CF8F3F35
:10352000910509F040F63FEB380F3A3108F4805E20
:10353000A5014F5F5F4FD7011396ED91FC91149752
:10354000EA0DFB1D90813FEB390F3A3108F4905E94
:103550008913B1CF40C193FDAECF002351F0B1E04C
:103560004B124ACFC6010E949B162981821344CF79
:1035700010C04BE050E0B101C6010E94F432892B2B
:1035800009F060CFD7018C9180FF03C021E02B832D
:1035900059CF2A8127FF14C12FCF8A8182748234A8
:1035A00009F02ACF112359F0AC80BD8008C060E03B
:1035B0008A859B850E945612892B21F01F5F151565
:1035C000B0F318C0AA85BB8511968C91882391F021
:1035D00013CF8A859B850E942D10882309F40CCF78
:1035E000AA85BB851696ED91FC9117978281823052
:1035F00018F4105F151568F32B81222341F0B701F1
:103600008A859B850E944E19882309F4F5CEA50171
:1036100060E070E025E0440F551F661F771F2A9574
:10362000D1F78A859B850E94A412882309F4E4CEF1
:103630000FEF050D102F8FE0482E670186E0C80EB2
:10364000D11C9DE0592E49C060E08A859B850E946F
:1036500056125C01009709F4CFCEAA85BB85169659
:10366000ED91FC91179780A1816080A3412F1013E9
:1036700001C04064F501408343861486C601498732
:103680000E949B16D5011D968C931D975B961C92EC
:103690001E925A97F7012381348149854F7150E07A
:1036A00041505109549EC001559E900D1124F501C1
:1036B00060E088159905A0F4D901A80FB91F4C91B5
:1036C000552747FD50956530B0F4528341836F5FB5
:1036D000019632966D3069F711501111B5CF13C0B4
:1036E00041E050E08815990511F440E050E0519513
:1036F00041955109E8CF6B3018F455834483E7CFE7
:1037000057834683E4CFEA85FB8580899189A28926
:10371000B38915E0B695A795979587951A95D1F732
:103720005C0160E0CF010E9456126C01009709F421
:1037300063CE80E2D6011D928A95E9F7F7013696AD
:103740008BE0D60101900D928A95E1F7F701808117
:103750008871D6011C968C93E0914705F09148053D
:10376000309739F0B601625F7F4FC60140960995E8
:1037700009C081E298E2F601918B808B80E098E0AD
:1037800097878687D60150968D919C915197539635
:103790009C938E93529759969C938E9358971E960E
:1037A0008D919C911F9757969C938E935697AA85BF
:1037B000BB851696ED91FC91179780A1816080A33F
:1037C0002A81A5016A857B85C3010E94611309C016
:1037D0005524539425CE2F5F2D3009F433CE5A0152
:1037E00092CE2B960FB6F894DEBF0FBECDBFDF9101
:1037F000CF911F910F91FF90EF90DF90CF90BF90EE
:10380000AF909F908F907F906F905F904F903F9080
:103810002F9008956115710581F0DB010D90002056
:10382000E9F7AD0141505109461B570BDC01ED9101
:10383000FC910280F381E02D099480E090E00895EE
:10384000CF93DF93EB01FC012081211102C080E0C6
:103850000FC0207621F08FE28883198208C060E0D3
:103860000E94A910009799F3BE010E94CA1081E03E
:10387000DF91CF910895BF92CF92DF92EF92FF92A6
:103880000F931F93CF93DF93EC01888180FF39C0A2
:1038900089819A818E01095F1F4FDC01ED91FC91B6
:1038A0004B815C816D817E810280F381E02D9801E6
:1038B0000995B82E811102C0B12C25C0888181FDE7
:1038C00004C088818E7F88831EC0A981BA81ED9152
:1038D000FC9111971C964D915D916D917C911F9774
:1038E000CB80DC80ED80FE804C0D5D1D6E1D7F1D4C
:1038F0000280F381E02D9801CD0109958111E1CF7E
:10390000DBCFBB24B3948B2DDF91CF911F910F910F
:10391000FF90EF90DF90CF90BF900895CF92DF920D
:10392000EF92FF921F93CF93DF93EC016A017B012B
:10393000122F4B815C816D817E814C155D056E057A
:103940007F0501F10E943B1C811103C080E090E0E3
:103950001FC012FF06C01882CB82DC82ED82FE827D
:1039600011C089819A81DC01ED91FC910190F08177
:10397000E02D9E01295F3F4FB701A60109958111F6
:10398000EACFE4CF13708881812B8883CE0107961C
:10399000DF91CF911F91FF90EF90DF90CF9008952E
:1039A0004250510961097109FC01048004C0440FAF
:1039B000551F661F771F0A94D2F780899189A289C3
:1039C000B389480F591F6A1F7B1FCB01BA010895A5
:1039D000CF92DF92EF92FF920F931F93CF93DF93DB
:1039E000EC016A017B0189018D81803251F5E7E0AC
:1039F0007695679557954795EA95D1F78C899D8976
:103A0000AE89BF89480F591F6A1F7B1F22E0CE0174
:103A100080960E948E1C009711F48FEF40C0E894AE
:103A2000C7F8DD24EE24FF24F601EE0FFF1FEE0F92
:103A3000FF1FE80FF91F40815181628173817F7000
:103A40001DC0803151F74C895D896E897F894D0D8C
:103A5000511D611D711D22E0CE0180960E948E1CB9
:103A60000097D9F2DD24EE24FF24F601EE0FFF1FAC
:103A7000E80FF91F4081518160E070E0888D998DD9
:103A8000AA8DBB8D84179507A607B70738F0F801F4
:103A9000408351836283738381E001C080E0DF91C2
:103AA000CF911F910F91FF90EF90DF90CF900895ED
:103AB0008F929F92AF92BF92CF92DF92EF92FF923E
:103AC0000F931F936A017B0148015901FC01258175
:103AD000203231F517E076956795579547951A95F9
:103AE000D1F70489158926893789400F511F621F34
:103AF000731F23E080960E948E1C009799F0E89433
:103B0000C7F8DD24EE24FF24F601EE0FFF1FEE0FB1
:103B1000FF1FE80FF91F80829182A282B3821DC02D
:103B2000203111F080E01AC0FC0144895589668972
:103B300077894D0D511D611D711D23E080960E94F6
:103B40008E1C009779F3DD24EE24FF24F601EE0F9E
:103B5000FF1FE80FF91F9182808281E01F910F9172
:103B6000FF90EF90DF90CF90BF90AF909F908F909D
:103B700008953F924F925F926F927F928F929F92A1
:103B8000AF92BF92CF92DF92EF92FF920F931F936B
:103B9000CF93DF93CDB7DEB728970FB6F894DEBF8B
:103BA0000FBECDBF9E838D832A013B0138872F83B3
:103BB000411551056105710531F4FC018084918442
:103BC000A284B38402C04A015B0175016401FFEF66
:103BD000CF1ADF0AEF0AFF0AED81FE81808D918DF9
:103BE000A28DB38D8C159D05AE05BF0528F402E0AE
:103BF000C02ED12CE12CF12C9E012F5F3F4FB7013D
:103C0000A6018D819E810E94E81C87FD1DC088232E
:103C100041F089819A81AB81BC81892B8A2B8B2BC6
:103C200031F0C814D904EA04FB0489F60DC00FEF83
:103C30001FEF2FEF3FE0B701A6018D819E810E940B
:103C4000581D382E811102C0312C1CC04114510462
:103C50006104710459F097018601B301A2018D81BD
:103C60009E810E94581D811107C0EECFED81FE811B
:103C7000C086D186E286F386EF81F885C082D18244
:103C8000E282F382832D28960FB6F894DEBF0FBE32
:103C9000CDBFDF91CF911F910F91FF90EF90DF90FB
:103CA000CF90BF90AF909F908F907F906F905F90DC
:103CB0004F903F9008959F92AF92BF92CF92DF9224
:103CC000EF92FF920F931F93CF93DF9300D000D01A
:103CD000CDB7DEB75C016A017B019E012F5F3F4FCC
:103CE000B701A601C5010E94E81C982E87FF02C0FB
:103CF00080E01EC000E010E09801B701A601C501F8
:103D00000E94581D8823A1F3F501408551856285E5
:103D10007385C416D506E606F70620F4C086D1865C
:103D2000E286F386C980DA80EB80FC809110D5CFE3
:103D30000F900F900F900F90DF91CF911F910F91E7
:103D4000FF90EF90DF90CF90BF90AF909F9008953D
:103D5000CF92DF92EF92FF920F931F93CF93DF9357
:103D6000EC01162F1D8281E090E0A0E0B0E0888792
:103D70009987AA87BB87DAA3C9A318A28FEF9FEF01
:103D8000DC018BA39CA3ADA3BEA3662321F1653008
:103D900008F0BFC020E040E050E0BA01CE018096BC
:103DA0000E948E1C009709F4B4C0FC0100E1109F32
:103DB000E00DF11D1124E255FE4F80818F7709F04F
:103DC000A8C0C084D184E284F384C114D104E10486
:103DD000F10421F49EC0C12CD12C760120E0B70162
:103DE000A601CE0180960E948E1CFC01009709F46A
:103DF00090C0838594858115924009F08AC080899E
:103E0000823009F086C086859785892B09F481C0A8
:103E100035853A838FEF830F8B831C8289E090E096
:103E200021E0321741F0019709F473C0220F4C8151
:103E30004F5F4C83F6CF468957894115510519F0DC
:103E400060E070E004C044A155A166A177A14C8751
:103E50005D876E877F878685978597018601080F26
:103E6000191F211D311D0C8B1D8B2E8B3F8B8189C2
:103E700092899F838E83440F551F661F771F400FC3
:103E8000511F621F731F4C8F5D8F6E8F7F8FB5E048
:103E9000880F991FBA95E1F781509E4F892F992776
:103EA0008695480F591F611D711D488B598B6A8B70
:103EB0007B8B83899489009719F0A0E0B0E004C05F
:103EC00080A191A1A2A1B3A197018601041B150BAA
:103ED000260B370BB901A801480F591F6A1F7B1F1A
:103EE0000C8004C076956795579547950A94D2F74C
:103EF000DB01CA010196A11DB11D888F998FAA8F80
:103F0000BB8F453F1FE051076105710520F48CE030
:103F10008D8380E012C0453F5F4F6105710510F44D
:103F200080E109C084A595A5A6A5B7A58C8F9D8F16
:103F3000AE8FBF8F80E28D8381E0DF91CF911F91A3
:103F40000F91FF90EF90DF90CF900895CF93CFB770
:103F5000F89480914B05811127C0EFEBF5E0849137
:103F6000EBEAF5E09491E82FF0E0EE0FFF1FE3524B
:103F7000FA4FA591B4918C91892321F461E08AE0F4
:103F80000E94512F61E08AE00E94182F8CB5806159
:103F90008CBD8CB580648CBD61E08DE00E94182FD3
:103FA00061E08BE00E94182F80914B058F5F80931A
:103FB0004B05CFBFCF91089521E0FC0120830895E8
:103FC00070E085E00C94902EAF92BF92CF92DF927A
:103FD000EF92FF920F931F93CF93DF93EC018981B0
:103FE0009A812FE0289F8001299F100D112485E1DF
:103FF0000E94732E800F911F24E0969587952A9535
:10400000E1F79A8389832881222391F1AC81AD80E5
:10401000B12CC12CD12CE885F9857F0100E010E09E
:104020006E817F819B0140E050E08617970728F062
:10403000BC01E817F90708F4BF0180E090E01F9287
:104040001F921F92AF930E94EA306B830F900F90E4
:104050000F900F9070E085E0DF91CF911F910F914D
:10406000FF90EF90DF90CF90BF90AF900C94902E88
:10407000DF91CF911F910F91FF90EF90DF90CF9044
:10408000BF90AF900895FC018CE39FE093838283FF
:1040900084E0818381E084870895CF93DF93EC01EE
:1040A0008C819D81892B81F18C858F7151F584E103
:1040B0000E94732EBC01882777FD8095982F0E945F
:1040C000603126EE3FE34EEC50E40E94EC310E945A
:1040D00032319B017B836A836115710581F084E035
:1040E0008983FE0140E0848195812817390710F407
:1040F00049830AC04F5F32964430A9F702C08FEF60
:1041000089838C858F5F8C87DF91CF910895FC0127
:1041100088E0808389E0818387E0828386E08383EF
:1041200084E0848382E0858381E186830895DF9241
:10413000EF92FF920F931F93CF93DF937C01EC01DB
:1041400000E010E0DD24DA9462E088810E94182FFC
:1041500088810E94872FF701E00FF11F892B21F43E
:1041600087818F5F878308C08781882349F08F3FCD
:1041700011F4178201C0D78260E088810E94182F55
:104180000F5F1F4F219607301105F1F6DF91CF9198
:104190001F910F91FF90EF90DF900895FC01E60FC3
:1041A000F11D81E09781913009F080E00895860F3C
:1041B000911DFC01278130E050E04F5F5F4F81E0AF
:1041C0002417350709F080E00895262F30E0FC0120
:1041D000E20FF31F8781423028F481508E3F48F070
:1041E00080E008958F3FE1F3642F0E945F329130A9
:1041F000B9F781E008958EBD00000DB407FEFDCF34
:104200008EB508951F93CF93DF93EC01162FF8948A
:1042100060E08F850E94512F888918161CF460E099
:104220000E94512F812F0E94FB20888918161CF4B0
:1042300061E00E94512F7894DF91CF911F910895F2
:1042400028EF31E0ECE4F5E0DF01A9011D924150D7
:104250005040E1F7DC0119961C9219971A961C92AE
:104260000895DF92EF92FF920F931F93CF93DF9306
:10427000EC018C858F5F8C878CE4E82E85E0F82E2E
:10428000D12C6D2D6064CE010E94022160E8CE0128
:104290000E94022161E08F850E94512F88891816A3
:1042A0001CF460E00E94512F00E010E0F701E00FE5
:1042B000F11F80810E94FB200F5F1F4F0435110505
:1042C000A9F7888918161CF461E00E94512FD39435
:1042D00084E5E80EF11C86E0D812D3CF60E4CE016D
:1042E000DF91CF911F910F91FF90EF90DF900C9491
:1042F0000221FC0160A361A30895FC0160A341A316
:104300000895CF92DF92FF920F931F93CF93DF9385
:104310001F92CDB7DEB76C01062FF42E10E01217F6
:1043200054F4412F4F0D602FC60129830E9474035E
:104330001F5F2981F4CF0F90DF91CF911F910F91D3
:10434000FF90DF90CF900895CF92DF92FF920F936E
:104350001F93CF93DF931F92CDB7DEB76C01062F6B
:10436000F42E10E0121754F4612F600F4F2DC60188
:1043700029830E9474031F5F2981F4CF0F90DF917E
:10438000CF911F910F91FF90DF90CF900895EF9202
:10439000FF920F931F93CF93DF93EC01F62E142F10
:1043A000E22E0E94A4214FEF400F410F2E2D6F2DC2
:1043B000CE010E94A421202F412F6F2DCE010E94FB
:1043C00081216FEF6E0D6F0D202F412FCE01DF91F8
:1043D000CF911F910F91FF90EF900C948121DF926C
:1043E000EF92FF920F931F93CF93DF93EC01E62E92
:1043F000D22EF42E112707FD1095040F111D47FD35
:104400001A958F2D992787FD90958017910744F471
:104410002D2D4F2D6E2DCE010E94A421F394F1CFAE
:10442000DF91CF911F910F91FF90EF90DF90089552
:104430008F929F92AF92BF92CF92DF92EF92FF92B4
:104440000F931F93CF93DF93EC01E62ED42E122F00
:10445000CC24C394C21AB22EB194BB0CF12C802F81
:104460008470A82E802F8270982E802F8870882EBE
:104470000170F1160CF04DC0C7FC04C01150B3948C
:10448000B394CB0CF3948F2D880F8F5FC80EAA20A6
:1044900071F0412F4D0D6F2D6E0DCE010E947403F2
:1044A0004F2D4D0D612F6E0DCE010E94740399208A
:1044B00071F04D2D411B6F2D6E0DCE010E947403C6
:1044C0004D2D4F19612F6E0DCE010E94740388206F
:1044D00071F04F2D4D0D6E2D611BCE010E947403A6
:1044E000412F4D0D6E2D6F19CE010E9474030023D4
:1044F00009F4BFCF4D2D4F196E2D611BCE010E94C7
:1045000074034D2D411B6E2D6F19CE010E94740353
:10451000B0CFDF91CF911F910F91FF90EF90DF907F
:10452000CF90BF90AF909F908F9008958F929F9261
:10453000AF92BF92CF92DF92EF92FF920F931F93B1
:10454000CF93DF93EC01B62EA42E122FDD24D3944B
:10455000D21AC22EC194CC0CFF24F394802F817008
:10456000882E992493949E0C02708FEF8F0D8117E3
:10457000C4F5D7FC04C01150C394C394DC0C8F2D38
:10458000880F8F5FD80E882099F0212F220F290DD8
:104590004A2D411B6F2D6B0DCE010E94812123E01E
:1045A0002E0D4A2D4F19612F6B0DCE010E948121D6
:1045B000002399F0212F220F290D4A2D411B6B2D2D
:1045C0006F19CE010E94812123E02E0D4A2D4F1933
:1045D0006B2D611BCE010E948121F394E394E3943F
:1045E000C4CFDF91CF911F910F91FF90EF90DF909B
:1045F000CF90BF90AF909F908F9008959F92AF9271
:10460000BF92CF92DF92EF92FF920F931F93CF93BF
:10461000DF93EC01B62EF42EA22EDE2CD194DD0C0D
:104620009D2C920E1E2D160F292D612F0E94A42164
:10463000CC24CA94C00ECF0C292D4C2D612FCE0155
:104640000E94A421D00EFE0C2D2D4F2D6B2DCE01DE
:104650000E948121BA0C6FEF6B0D2D2D4F2DCE01D5
:104660000E94812101E02E2D4F2D612FCE010E944D
:104670001822DE2CD094DB0C02E02E2D4F2D6D2D58
:10468000CE010E941822CE1804E02E2D4C2D6D2D47
:10469000CE010E94182208E02E2D4C2D612FCE0154
:1046A0000E941822DF91CF911F910F91FF90EF9000
:1046B000DF90CF90BF90AF909F900895AF92BF9240
:1046C000CF92DF92EF92FF920F931F93CF93DF93DE
:1046D000EC01A62EC42EB22EF02E1E2DE194EE0C6F
:1046E000D12ED60E2E2D2B0D6D2D0E94EF21FA947A
:1046F000FE0CC10E6FEF6A0D6B0D611BEF2C01E01C
:10470000212F4C2DCE010E94962202E0212F4C2D0C
:104710006D2DCE010E949622DF91CF911F910F91B6
:10472000FF90EF90DF90CF90BF90AF9008956F9281
:104730007F928F929F92AF92BF92CF92DF92EF9231
:10474000FF920F931F93CF93DF93F901A4903196BB
:104750005491FC01F0A064350CF00CC1BB24A7FC03
:10476000B094A62FBB27A7FDB095FD01EA0DFB1D58
:104770001E161F060CF0FEC040330CF0FBC0C52E09
:10478000042F112707FD1095E801C50FD11D57FD16
:10479000DA951C161D060CF0EDC0E9012296950174
:1047A000295F3F4F37FF02C0295F3F4F73E03595C8
:1047B00027957A95E1F747FF0AC0C52EC40E209FC2
:1047C000A001219F500D1124C41BD50B40E00C2DDE
:1047D000112707FD1095040F111D47FD1A95013390
:1047E00011051CF070E3C72EC41A67FD60E0E535C3
:1047F000F10514F0E4E5F0E01E2FFC017485742748
:10480000862F992787FD9095FC01EA1BFB0BDF01A2
:104810005F01F7E0AF22BB24E0E8F0E002C0F595CD
:10482000E795AA94E2F70E2FB7FD179653E0B595DA
:10483000A7955A95E1F7AC0FBD1FE42FE77051E043
:1048400001C0550FEA95EAF7459545954595E4E58C
:104850004E02800D911D1124845B9A4F40E0DD24AF
:10486000C7FCD094BB24B3943327E42FF0E0EC15BD
:10487000FD050CF07FC0FD01E490F1E0FF1219C0CE
:10488000EC01A02EFD01862E881A9C2E980C911604
:1048900008F067C09E2C9A2019F09880952A98827B
:1048A000A69429F43196E4906894AA24A7F8219656
:1048B000ECCFF1101BC0752E7094EC01A02EFD0101
:1048C000862E881A9C2E980C911608F04AC09E2CB1
:1048D0009A2019F0988097209882A69429F431960E
:1048E000E4906894AA24A7F82196ECCFE3E0FE16A2
:1048F00031F0EC01A02EFD01862E881A2EC0752EF7
:104900007094962EEC01A02EFD019116B0F48E2C21
:104910008A2049F08880692C672660FE02C0852ABB
:1049200001C087208882A69429F43196E490689487
:10493000AA24A7F893942196E8CF7B2512C09E2C39
:104940009A2019F0988095269882A69429F4319699
:10495000E4906894AA24A7F821969C2E980C9116AE
:1049600070F3550F19F48C5A9F4F51E04F5FA20F0F
:10497000B31F7BCFDF91CF911F910F91FF90EF90ED
:10498000DF90CF90BF90AF909F908F907F906F906F
:104990000895DC01FB0184918F5F14968C9314972A
:1049A0003196E491EF5F1596EC9315976E5F7F4F0C
:1049B0005F967C936E935E970895EF920F93CF93DB
:1049C000DF93EC014E876D872F87E98A088B81E0A2
:1049D000888788A319A28F8368EA72E0CE010E94BB
:1049E000C9240E94A61F8CB58F7D8CBD8CB58C7F91
:1049F00081608CBD8DB581608DBD8CB58C608CBDAA
:104A000061E08E850E94182F61E08D850E94182F2D
:104A100061E08F850E94182F898918161CF461E0C7
:104A20000E94182F888918161CF461E00E94182F24
:104A3000898918166CF460E00E94512F6AE070E0DA
:104A400080E090E00E94102E61E089890E94512F41
:104A50008D85992787FD9095FC01EB54FA4FE491E1
:104A6000F0E0EE0FFF1FED52FA4F259134913D8B90
:104A70002C8BFC01EF55FA4F84918B8F8E859927F3
:104A800087FD9095FC01EB54FA4FE491F0E0EE0FB6
:104A9000FF1FED52FA4F259134913B8B2A8BFC017D
:104AA000EF55FA4F84918A8F8889992787FD9095D1
:104AB000FC01EB54FA4FE491F0E0EE0FFF1FED52D2
:104AC000FA4F259134913F8B2E8BFC01EF55FA4F15
:104AD00084918C8F8F85992787FD9095FC01EB54ED
:104AE000FA4FE491F0E0EE0FFF1FED52FA4F2591DF
:104AF0003491398F288FFC01EF55FA4F84918D8FB7
:104B000061E2CE010E94022164E1CE010E940221F5
:104B10008B8587FF02C08FE78B876B856068CE012E
:104B20000E94022160E2CE010E9402216CE0CE01CF
:104B30000E940221CE01DF91CF910F91EF900C9452
:104B400031216F927F928F929F92AF92BF92CF92BC
:104B5000DF92EF92FF920F931F93CF93DF93EC01BD
:104B6000162FF42EB02EE8A064350CF081C08FE231
:104B700084170CF47DC0EC81F0E031970E9FC001EA
:104B80000F9F900D1124860F911D67FD9A951816A1
:104B900019060CF06DC08D81809FC0011124840F17
:104BA000911D47FD9A95181619060CF061C0A62EA6
:104BB000962EC22ED12C8A2D811B992787FD909588
:104BC0002C8130E0821793070CF051C0215031093D
:104BD0008217930779F0C29ED001C39EB00DD29E7A
:104BE000B00D1124A80FB91FEE8DFF8DEA0FFB1F2A
:104BF000749001C0712C8F2C6F2C282D2F19332706
:104C000027FD30958D8190E0281739076CF570FEEF
:104C100011C081E0B81206C0482D6A2DCE010E9455
:104C200074031EC00B2D2B2D462D692DCE010E9425
:104C3000EF2116C089A198A1891791F088A381E07E
:104C4000B81206C0482D6A2DCE010E94740307C019
:104C50000B2D2B2D462D692DCE010E94EF21E8A2B0
:104C600076946B0C8394C9CF9B0CA394A4CFE8A239
:104C7000DF91CF911F910F91FF90EF90DF90CF9038
:104C8000BF90AF909F908F907F906F9008950F93FB
:104C9000CF93DF93EC01262F6A3039F42D8198856C
:104CA0008A85299F800D112422C06D3011F108855D
:104CB0004A8569850E94A12548855C812985549F84
:104CC000200D112429878F81882399F0332727FD10
:104CD000309584E590E0459F801991091124821751
:104CE00093073CF49D818A85499F800D11248A8712
:104CF000198681E090E0DF91CF910F9108958F9216
:104D00009F92AF92BF92CF92DF92EF92FF920F935A
:104D10001F93CF93DF93EC015C0186E8A80EB11CD2
:104D2000D5018C91882309F44DC08C3018F41CE017
:104D3000181B01C010E0FE01EA5AFF4F81E080839A
:104D40006E01BEE4CB0ED11C60E0C6010E94792149
:104D50004E01E3E58E0E911CD4018C9103E0080F07
:104D60009DE2F92E4F2D481B410F23E0E22E24E552
:104D700060E0C6010E945E2361E0C6010E947921C5
:104D8000F401808103E0080F4F2D481B410F24E5FB
:104D900060E0C6010E94FE22FE01E95AFF4F84E056
:104DA00080833196D4018C91181B115D1083CC57F0
:104DB000DF4F68817981C6010E94E82FF50180816B
:104DC00081508083DF91CF911F910F91FF90EF90E1
:104DD000DF90CF90BF90AF909F908F900895DF921B
:104DE000EF92FF920F931F93CF93DF93EC018C8D83
:104DF0009D8D892B09F49CC08E01025B1F4F40E002
:104E000061E0C8010E947D2185E5FE01EE5AFF4F59
:104E10009081891B3596808331961082698D61302F
:104E200009F462C028F0888D653008F074C06FC046
:104E3000CE0185960E94E02B81E0FE01EA5AFF4FE9
:104E4000808368EA72E0C8010E94C9241D8E1C8E0E
:104E5000FE01EC5AFF4F108238EAD32E7E018AE021
:104E6000E80EF11CCE010E94A0278823D9F367E940
:104E700074E0C8010E94E82F6A8D7B8D4AE050E003
:104E8000C8010E94E43062E874E0C8010E94E82F83
:104E90006D2D62956F7070E04AE050E0C8010E948D
:104EA000CF3067E774E0C8010E94E82F64E0C701D3
:104EB0000E94CE2081113CC0DA94A1F660E0CE01C0
:104EC0000E94E01F83B7817F846083BF83B78160C6
:104ED00083BF83B7816083BF889583B78E7F83BF8D
:104EE00083B78E7F83BFBECFCF58DF4F48815981B4
:104EF0006A817B814F705527662777274830510597
:104F00006105710510F467E009C068E707C08823F0
:104F100079F06B5F03C0882359F06FE2C801DF911D
:104F2000CF911F910F91FF90EF90DF900C940F3075
:104F3000DF91CF911F910F91FF90EF90DF90089537
:104F40008F929F92AF92BF92EF92FF920F931F9317
:104F5000CF93DF93EC017C0100E8E00EF11CF70138
:104F600080809180A280B3800E94E12D9501840110
:104F7000061B170B280B390BB901A8015E011FE7AF
:104F8000A10EB11CF501808190E0A0E0B0E08E019F
:104F900005581F4F84179507A607B70750F4F80167
:104FA00080819181A281B381892B8A2B8B2B09F07F
:104FB00040C0F80180819181A281B381892B8A2B25
:104FC0008B2BA9F57E01F5E2EF0EF11CC7010E94C3
:104FD000DD2BC7010E944A2CC7010E940E2DCE0175
:104FE0000E947F26CE010E94EF267E012EE4E20E73
:104FF000F11CC7010E943121FE01EC5AFF4F808154
:10500000811103C0C7010E9420210E94ED2DF801EB
:105010006083718382839383FE01EB58FF4FC958ED
:10502000DF4F28813981621B730B7183608380E0BD
:1050300036C00E94E12DF5012081620F711D811D96
:10504000911DF7016083718382839383FE01EF5882
:10505000FF4F40815181628173814F5F5F4F6F4F7E
:105060007F4F4083518362837383F80110821182E2
:10507000128213820E94ED2DFE01E958FF4F6083DA
:10508000718382839383CE010E94E41FCE010A962E
:105090000E949720CE0148960E944D2081E0DF912A
:1050A000CF911F910F91FF90EF90BF90AF909F9085
:1050B0008F9008950F931F93CF93DF938C01EC0192
:1050C000C25BDF4FCE010E9420216FE474E0CE016D
:1050D0000E94E82FCE010E9431218CB583608CBDE7
:1050E0008DB58E7F8DBD8BE491E0EEEFFFE30995EA
:1050F000F801EC5AFF4F10826AE274E0CE010E9480
:105100001A30CE010E943121065F1F4FC8010E9454
:10511000972064E0C8010E94CE20811107C062E39D
:1051200070E080E090E00E94102EF0CFDF91CF91F0
:105130001F910F9108952F923F924F925F926F921D
:105140007F928F929F92AF92BF92CF92DF92EF9217
:10515000FF920F931F93CF93DF93CDB7DEB72997BD
:105160000FB6F894DEBF0FBECDBF998788871B01AD
:105170002A013C0180E7680E711CF30180818823BD
:1051800009F402C181E0E885F985EA5AFF4F80837E
:10519000E885F985EB5AFF4F1082E885F985EC5ACE
:1051A000FF4F1082E885F985108E8F01025B1F4F3B
:1051B00061E0C8010E947921888599858D5A9F4FA9
:1051C0009C838B83C884D98497E5C90ED11CE8845D
:1051D000F984E8E5EE0EF11C888599858E5A9F4F7B
:1051E0009A838983E885F985EF58FF4FFE83ED8325
:1051F00088849984FAE08F0E911CA884B98485E292
:10520000A80EB11C888599850E94A0278823D1F318
:10521000F1018491882321F0EB81FC81508101C050
:1052200050E02AEB34E040E060E0C8015F830E9478
:1052300097235F814114510439F04CE0450F9201EE
:1052400060E0C8010E949723F60110828CE0F7010C
:105250008083B101C8010E94E82FE981FA81908121
:10526000892F880F890F81958D5AF6018083EB81F4
:10527000FC819081892F880F890F8195835DF701CB
:105280008083ED81FE81808184FF03C065EB74E043
:1052900002C061EB74E0C8010E941A30E981FA8112
:1052A0009081892F880F890F81958D5AF60180830F
:1052B000F70180818F5F8083E885F98582A5882347
:1052C00019F06DEA74E002C069EA74E0C8010E9456
:1052D0001A30E981FA819081892F880F890F819591
:1052E0008D5AF6018083F70180818F5F808365EAA4
:1052F00074E0C8010E941A3065E0C4010E94CE200B
:10530000882351F0E885F98562A56F5FC5010E9489
:105310008A2DC5010E94742D64E0C4010E94CE2034
:10532000811113C0F3012081822F90E0A0E0B0E052
:10533000ED81FE8140815181628173814817590757
:105340006A077B07A8F02F3F99F08FEFF301808366
:10535000088519850B5D1F4F60E0C8010E94872BEF
:10536000C8010E945E2D81E0E885F985808F0CC020
:1053700066E0C4010E94CE20882309F443CF8885CB
:1053800099850E945A2834CF29960FB6F894DEBF2B
:105390000FBECDBFDF91CF911F910F91FF90EF9086
:1053A000DF90CF90BF90AF909F908F907F906F9045
:1053B0005F904F903F902F900895AB0169EB74E0A0
:1053C0000C949B28E0E8F7E72591349181E02130A7
:1053D000304C09F080E00895CF93DF93EC010E94F8
:1053E000E2299E01275A3F4FDE01A059BF4F882373
:1053F00009F43CC0E6E9F7E78491F9018083E7E925
:10540000F7E7E491EC83E8E9F7E7E491ED83E9E974
:10541000F7E7859194919F838E83EBE9F7E7859178
:10542000949199878887EDE9F7E7E491EBA7EEE996
:10543000F7E7E491EAA7EFE9F7E7E491EC93E0EA14
:10544000F7E7859194919D8F8C8FE2EAF7E785913C
:1054500094919F8F8E8FE4EAF7E78591949199A3B9
:1054600088A3E6EAF7E78591949120C08CE3F901DF
:1054700080831C822FEF2D8380E293E09F838E83B5
:1054800084ED93E09987888781E08BA78AA72C9386
:105490008CEA9DE09D8F8C8F8EED9DE09F8F8E8F8F
:1054A00084E79EE099A388A38CE39FE09BA38AA353
:1054B000DF91CF910895CF92DF92EF920F93CF9328
:1054C000DF93EC01FC01E158FF4F82E380833497C6
:1054D00041E050E060E070E0408351836283738379
:1054E0003B978FEF8083CE010E94EC29CE010E9472
:1054F000DC1F6FEFCE010E94E01F6E018AE0C80E34
:10550000D11CC6010E948720C6010E949720CE01AF
:1055100048960E9443203EE0E32E0FE020E14BE05E
:105520006DE0CE01825B9F4F0E94DD24A596CE01E7
:105530000E94F32A65E0C6010E94CE20882351F024
:1055400060E0CE01DF91CF910F91EF90DF90CF908F
:105550000C948A2D40E06AE275E0CE01DF91CF9194
:105560000F91EF90DF90CF900C94922BCF93DF931D
:1055700050E0FA01EE0FFF1FE80FF91F3785208971
:10558000E32FF22FE60FF11DE60FF11D2591349167
:10559000FA01EE0FFF1FE80FF91F30A3278FF90163
:1055A00065917491FC01D481D69FC02D1124E40F24
:1055B000F51FC1A3F901A591B4916B2F70E0EC2FF9
:1055C000F0E0DC01A40FB51F6E177F0720F4F9018E
:1055D00025913491C32FCD9FC02D11249296CC9349
:1055E000DF91CF91089521E0FC01248324E020A7DE
:1055F00021E835E0308B278740E060E00E94B62A42
:1056000061E070E083E00E94902EE1EBF0E08081A9
:10561000887F81608083F89410928000E1E8F0E058
:105620001082109285001092840088E191E090939E
:105630008900809388008081886080838081816078
:105640008083EFE6F0E08081826080837894089523
:105650000F93FC01862F642F011129C08230D1F0F5
:1056600048F4882391F0813011F540E0CF010F918B
:105670000C94B62A8330A9F08430C9F48481489F01
:10568000602D1124658F268F12C04B3008F06AE020
:10569000668B0DC08481489F602D1124618F228FFD
:1056A00006C08481489F602D1124638F248F0F9141
:1056B0000895FC0121110EC0648B8481489F402D08
:1056C0001124458B15A214A213A281E0878B80932D
:1056D0005007108E089580915007882319F080910B
:1056E0004D0701C080E08093B4000895FC01611172
:1056F0000DC0178A158A14A213A2108E10924D079E
:1057000010924E07109250070C946B2B0895CF9374
:10571000DF93EC01611103C00E94762B1982DF91A7
:10572000CF9108950F931F93CF93DF93EC018B01DB
:1057300041110EC060E00E94872B1E870D871B8AD7
:105740001A8A81E0898389E08E8B198E1B8E1D8ECB
:10575000DF91CF911F910F910895CF93DF93EC01CB
:10576000611128C08881882329F18981811122C093
:1057700089852F819885E22FF92FE80FF11DE80F19
:10578000F11D859194918F3F2FEF920711F41882AC
:1057900011C09C879927880F991FEA85FB85E80F20
:1057A000F91F6591749140E0CE010E94922B89858A
:1057B0008F5F8987DF91CF91089560E00C94AD2BC6
:1057C00060E00C94872B0F93CF93DF93EC01611172
:1057D0005DC08981882309F459C08D89811156C023
:1057E0002D853E858A899B89880F991F820F931F7B
:1057F000FC01859194910097D1F48989882321F047
:105800001B8A1A8AF90111C01982888160E08823F5
:1058100031F0CE010E94AD2B8A899B8925C0CE0133
:10582000DF91CF910F910C94762B85919491BC01CF
:10583000769567957695679580FF1DC0AC01A6E0CB
:1058400056954795AA95E1F7292F269526952695F1
:1058500020514F716F7000E0CE010E94282B8A8981
:105860009B8901969B8B8A8B880F991FED85FE85FE
:10587000E80FF91FDACF492F6F7320E0CE010E94A5
:10588000592B8A899B8901969B8B8A8BDF91CF91BB
:105890000F91089560E00C94E32BCF93DF93EC011C
:1058A0006111B9C08F89882309F4B5C08D89811130
:1058B00005C0CE01DF91CF910C94762B81508D8B5A
:1058C0008DA1811138C08BA19CA101969C01220F52
:1058D000331FEF8DF8A1E20FF31F25913491422F72
:1058E00047704EA3A90163E0569547956A95E1F785
:1058F000BA0176956795232F269526952FA36F736A
:105900002C81629F602D11246DA3417040934C0740
:105910009CA38BA329A130E08217930760F08AA192
:10592000882329F0281B31093CA32BA304C060E085
:10593000CE010E94762B8DA181508DA3288D2F5FE3
:10594000288F4C893FA1340F8C85380F3A836B8D9B
:10595000662361F070E0822F992787FD90950E9461
:105960007F328C8D869F300D11243A838A8190E09E
:10597000CB966BE370E00E947F328A833E893B8343
:10598000698D662371F0772767FD7095822F9927BF
:1059900087FD90950E947F328A8D869F300D11245D
:1059A0003B836D8D662391F0822F992787FD90951B
:1059B00070E00E947F32CB0162E070E00E947F3293
:1059C0002E8D9B81289F900D11249B838B814F33BB
:1059D00039F08A300CF089E087FD80E08B8301C0CC
:1059E0001B82F894EA81F0E0E85CFA4FE491E093DE
:1059F0004F0798A58D81989F802D11249B81899FA9
:105A0000802D11249EA1899F802D112480934E0703
:105A100080934D077894DF91CF91089560E00C94C6
:105A20004D2C60914E07662321F1809151078F5FC5
:105A30008093510790914F078917D8F080915007B4
:105A400091E08927809350071092510780914C076D
:105A5000882369F090911C0183E4989F802D112484
:105A6000895B80931C010E945F3290934D070C94D8
:105A70006B2B08951F920F920FB60F9211242F9344
:105A80003F934F935F936F937F938F939F93AF93C6
:105A9000BF93EF93FF930E94112DFF91EF91BF9160
:105AA000AF919F918F917F916F915F914F913F91B6
:105AB0002F910F900FBE0F901F901895CF93DF93EB
:105AC000EC0160E00E94872B89E795E09E878D8737
:105AD0001B8A1A8A81E0898389E08E8B198E1B8E3E
