:100000000C9443060C946B060C946B060C946B06D4
:100010000C946B060C946B060C946B060C946B069C
:100020000C946B060C946B060C946B060C94EE22ED
:100030000C946B060C946B060C946B060C946B067C
:100040000C9477230C946B060C946B060C946B0643
:100050000C946B060C946B060C946B060C946B065C
:100060000C946B060C946B0605A84CCDB2D44EB91B
:100070003836A9020C50B9918688083CA6AAAA2A4B
:10008000BE000000803FDCEEEEEEEEEEEEEEEEEEB9
:10009000EEEEEEEEEEADF0017100000000D00000DB
:1000A0000DD00000055FF00CEEEEEEEA00F00D0062
:1000B0000FF00000005FF000D555005D00F00FD09C
:1000C0000FF00D50000FF080F500000F00F00FF062
:1000D0000FF00FCA800FF000F000D00B00F04FF0CF
:1000E0000FF00F55000FF080F0D0F50005F44FF041
:1000F0000BB00F50005FF000F0B0F55555F46FF005
:1001000000000F00005FF080F000BCEEEAB66FF078
:1001100000000F008CAFF000F500000066666FBCB9
:10012000EEEEAF50005FF040B555000666666F001A
:1001300000000B55000FF5000CEEEEEEEEEEAB00FE
:100140000000CEEA000FF55000CEEEEEEEEEEEEE41
:10015000EEEEEEEA005FF5550000000055CEEA55E0
:1001600008888800005FF55550000000000330004B
:1001700000000000055FBCEEEEEEEEEEEEEEEEEE01
:10018000A88888CEEEAB0000000000000000000050
:10019000000000000000000000000000000000005F
:1001A000000000000000000000000000000000004F
:1001B000000000000000000000000000000000003F
:1001C000000000000000000000000000000000002F
:1001D000000000000000000000000000000000001F
:1001E000000000000000000000000000000000000F
:1001F00000000000000000000000000000000000FF
:1002000000000000000000000000000000000000EE
:1002100000000000000000000000000000000000DE
:1002200000000000000000000000000000000000CE
:1002300000000000000000000000000000000000BE
:1002400000000000000000000000000000000000AE
:10025000000000000000000000000000000000009E
:10026000000000000000000000000000000000008E
:10027000000000000000000000000000000000007E
:100280000000000000004024FFFFFFFFFFFFFFFF12
:100290008000000000304001800000000060E001AC
:1002A000819BE78000C1F001819BEFC001C1F80193
:1002B000819B0CC003FDF001819B0CC003FCE40199
:1002C000819B0CC007F84001819BECC00FF000013E
:1002D000819BECC01818C201819B0CC0383CE60120
:1002E000819B0CC0307FE701819B0CC07FFDFF012B
:1002F000819B0CC0FF3DFF81819B0CC1FE18CF810B
:1003000081FB0FC1FC00CE4180F30783041006215E
:10031000800000060E38841F800000000F79843FA3
:100320009F060F3E1FFBCE3F9F861FBE1F7FDF7FB6
:10033000998F19B00E7BFF01998F19B00633DE013A
:10034000998F19B004218E019F8F1830020104117A
:100350009F9F99BE026007E19F1F9B3E00738FC164
:100360009B19983001F7DFC19B1999B000FFFF81FD
:100370009B1F99B000F7C0019BBFD9B000E380017B
:1003800099B0DFBE0061040199B0CF3E00000001CA
:10039000800000006533B3B980018000723AAA91F1
:1003A000FFFFFFFF722BB39375067A06860692064F
:1003B0002F00566F6C756D653A004261636B6C6916
:1003C0006768743A004C696768743A002F340042D9
:1003D0006174206C766C3A006D56004261743A008C
:1003E0000500400150015C01700180016C01540165
:1003F0006001740184014C015C0168017C018C0185
:100400000000153A5361766520173A457869740003
:100410000A576F7273742020202020000A426573EF
:100420007420202020202000596F75722074696D7F
:100430006520004E4557204849474853434F524591
:1004400000424553542054494D4553004E455720D2
:100450004C4150210010100000200200000000005C
:10046000001040000000000000008000004000007C
:100470000000080400000010100000000000C00090
:10048000A000903F8820042002200220043F880022
:100490009000A000C0000000001010000000000745
:1004A000E0042004200420042004203C3C2004100C
:1004B0000808100420024001800000101000000015
:1004C0000003000500090011FC2004400440042042
:1004D0000411FC09000500030000000000101000DA
:1004E000000180024004200810100820043C3C0455
:1004F00020042004200420042007E0000000001055
:1005000010002020020480800800001044020040F7
:10051000220000088800014200004000088400100A
:10052000801010000004100820104020804100803E
:100530000800110022044008801000201000200054
:100540004000801010000000000000199819980663
:100550006006601998199806600660199819980045
:1005600000000000001010AAAA000180000FF19FF7
:10057000F81C3999981A599A5819999C381FF98F6B
:10058000F00001800055551010AAAA000180000F4C
:10059000F19FF81C3998181819981818199C381FC9
:1005A000F98FF00001800055551010AAAA00010033
:1005B00000FFF1FFF80039001800190018001900B9
:1005C00038FFF9FFF0000100005555101098181879
:1005D0001998181819981818199818181998181897
:1005E000199C381FF98FF00001800055551010AA92
:1005F000AA000080000FFF9FFF1C009800180098C1
:100600000018009C001FFF8FFF0000800055551050
:1006100010AAAA000180000FF19FF81C3998181841
:100620001998181819981818199818181998181846
:10063000191010AAAA00000000FFFFFFFF00000031
:10064000000000000000000000FFFFFFFF000000AE
:100650000055551010981818199818181998181846
:100660001998181819981818199818181998181806
:100670001998181819506C617900486967682073D7
:10068000636F7265730053797374656D20496E668C
:100690006F004D61696E204D656E750003053F2149
:1006A0003F0A100A1208120E1C0E0C1E0C141A140B
:1006B000161F161E131E1E1B1E1E1F1E3F213F3A15
:1006C0002F3A173D173F213F181F02040A041F0E3F
:1006D00004040E1F0A1F0A0E0E1F04110E2E252ED3
:1006E0002F2A2E262929021F02081F08150E04048E
:1006F0000E150E15151B151B040604040C04000032
:10070000000017000300031F0A1F16371A190413ED
:100710000A153A000300000E11110E000A040A0423
:100720000E040030000404040010001804031F111C
:100730001F121F101D151711151F07041F17151D58
:100740001F151D01011F1F151F17151F000A00008F
:100750003200040A110A0A0A110A040115020E11D4
:10076000171E051E1F150A0E110A1F110E1F151147
:100770001F05010E111D1F041F111F1108100F1F4F
:10078000041B1F10101F061F1E040F0E110E1F0941
:10079000060E112E1F051A121509011F011F101F29
:1007A0000F180F1F0C1F1B041B031C03191513002C
:1007B0001F11030418111F00020102202020000154
:1007C000020C121E1F120C0C12120C121F0C1A1407
:1007D000041E05242A1E1F021C141D1020201D1F8C
:1007E0000814111F101E041E1E021C0C120C3E0ABF
:1007F000040C123E1E040214160A020F120E101EE2
:100800000E100E1E081E120C1226281E322A260456
:100810001E21001F00211E040102013F213F050788
:100820007F4141417F3E5B4F5B3E3E6B4F6B3E18CD
:100830003C783C18183C7E3C181C577D571C1C5EAD
:100840007F5E1C007E43437E007E73737E007E7F4E
:100850007F7E7F4141417F30483A060E0629792943
:10086000067F4141417F60703F02042A1C361C2AEA
:100870007F3E1C080000081C3E7F14227F22143C8F
:100880003C3C7EFF18423C817E3E6375633E3E6188
:100890006B633E3E636B6B3E04027F020410207F5D
:1008A000201008082A1C08081C2A0808143E554174
:1008B00022637569756310181C1810040C1C0C0455
:1008C000000000000000005F0000000700070014A7
:1008D0007F147F14042A7F2A102313086462364988
:1008E0005620500008070300001C2241000041224E
:1008F0001C002A1C3E1C2A08083E080800E0600074
:100900000008080808080060600000601008040380
:100910003E5149453E00427F4000625149494621CF
:1009200041494D331814127F1027454545393C4A3B
:100930004949304121110907364949493606494993
:10094000291E0000240000008064000008142241D9
:100950000014141414140041221408020159090649
:100960003E415D594E7C1211127C7F494949363E09
:10097000414141227F4141221C7F494949417F0930
:100980000909013E414151327F0808087F00417F3B
:1009900041002041413F017F081422417F404040F7
:1009A000407F020C027F7F0204087F3E4141413EAE
:1009B0007F090909063E416141BE7F091929462682
:1009C0004949493201017F01013F4040403F1F201A
:1009D00040201F3F4038403F6314081463030478ED
:1009E00004036151494543007F414100030408105D
:1009F000600041417F000402010204808080808009
:100A0000000307080020545478407F2844443838B5
:100A100044444428384444287F3854545418087EA9
:100A200009090218A4A49C787F0804047800447D76
:100A30004000006080847D7F1010284400417F408A
:100A4000007C047804787C080404783844444438F2
:100A5000FC1824241818242418FC7C080404080812
:100A600054545420043F4444203C4040207C1C20EB
:100A700040201C3C4020403C44281028444C90908E
:100A8000907C4464544C44000836410000007F00D0
:100A9000000041360800180408100C7F4141417FD6
:100AA0000A4E6F2053442063617264206F720A6E95
:100AB0006F204C4F414445522E4845580A0A153A7A
:100AC00045786974001D20466C617368696E670A19
:100AD00020206C6F616465722E2E2E0A0A444F4EE0
:100AE0002754205455524E204F464621004E4F2049
:100AF000424154544552590A0A504C454153450A03
:100B00005455524E204F46460017736176650016C5
:100B10006261636B001574797065000A0A0A153A00
:100B20006F6B617920163A6564697400596F75209E
:100B3000656E74657265640A00540A03E181867FFC
:100B40003E186D830F0F0E0183866033186DC31935
:100B50008F1803C38E6033186DE330CF1803C39E24
:100B6000603630CDE360CF3006C79E7E3E30CDB3D9
:100B700060CF300CC6F6603330D9B660CF33CFCCFF
:100B8000F66061B0DB1E60CF30D86CE6C061B0DBD0
:100B90001E618F19986CC6C063B19B0E330F0FB0E6
:100BA00078C6FF7E1F1B061E0F17534400161378CE
:100BB0000016131400151020001520100000000569
:100BC000008930080238024978681400004500683E
:100BD00001000005006801380100000500380168C7
:100BE000010000F6E8DBCFC3B8AEA49B928A827BFB
:100BF000746E68625C57524E4945413E3A37343113
:100C00002E2C29272523211F1D1C1A1917161514F0
:100C1000131211100F0E0D0C0B0A09080706220CF7
:100C2000260C0101F7030101FF030000000024006E
:100C300027002A0000000000250028002B000000EB
:100C40000000230026002900040404040404040412
:100C50000202020202020303030303030102040867
:100C60001020408001020408102001020408102016
:100C7000000000070002010000030406000000005D
:100C800000000000D30611241FBECFEFD8E0DEBF66
:100C9000CDBF11E0A0E0B1E0EAE4F7E502C00590C5
:100CA0000D92A633B107D9F714E0A6E3B1E001C075
:100CB0001D92A532B107E1F71CE0C6E8DCE004C0F4
:100CC0002297FE010E94EA2AC438D107C9F70E9480
:100CD000A5250C94A32B0C94000083E080931902AB
:100CE00080E090E0A0EAB1E48093010290930202D8
:100CF000A0930302B093040280930502909306022E
:100D0000A0930702B093080280E090E0A0E0B0E07A
:100D10008093090290930A02A0930B02B0930C02F5
:100D200080930D0290930E02A0930F02B0931002D5
:100D30008093110290931202A0931302B0931402B5
:100D40008093150290931602A0931702B093180295
:100D5000089510924E010E946D0610921B0210928F
:100D60001A0210921C020895E62FF0E0982F969533
:100D700080FF0CC024E0EE0FFF1F2A95E1F7E90F7A
:100D8000F11DEA57FF4F84918F70089584E0EE0FB4
:100D9000FF1F8A95E1F7E90FF11DEA57FF4F849194
:100DA00082958F700895109287011092860181E3D9
:100DB00091E0909385018093840108953F924F9232
:100DC0005F926F927F928F929F92AF92BF92CF92DB
:100DD000DF92EF92FF920F931F93DF93CF9300D098
:100DE00000D000D0CDB7DEB784E891E060E040E00D
:100DF00022E102E10E94E41284E891E060E00E94B6
:100E000012128824992474C0409005025090060262
:100E100060900702709008022D813E81B9018827F9
:100E200077FD8095982F0E94CB287B018C016091E3
:100E3000010270910202809103029091040220E06D
:100E400030E040E85DE30E94B8299B01AC01C80195
:100E5000B7010E94312820E030E040E051E40E94D8
:100E600030280E9498285B016C0130E2361788F127
:100E700069817A818B819C810E94CB287B018C01C6
:100E8000C301B20120E030E040E85DE30E94B829F0
:100E90009B01AC01C801B7010E94312820E030E07D
:100EA00040E051E40E9430280E9498289B01AC0148
:100EB00027FD0FC061326CF48A2D622F0E94B406A8
:100EC000883038F46D816F5F84E891E0432D0E9493
:100ED0001A128D819E8101969E838D83409709F021
:100EE00093CF0894811C911C90E18916910471F0B4
:100EF0001E821D82C401AA2797FDA095BA2F89835F
:100F00009A83AB83BC83382C33947ECF84E891E002
:100F100061E00E94121284E891E069E049E00E94D9
:100F20001A1226960FB6F894DEBF0FBECDBFCF9132
:100F3000DF911F910F91FF90EF90DF90CF90BF90C6
:100F4000AF909F908F907F906F905F904F903F9069
:100F50000895CF92DF92EF92FF920F931F93CF935A
:100F6000DF938091BE019091BF012FEF813F9207E7
:100F700014F4EE2456C060E170E00E94982AE62E38
:100F800050C08091BC019091BD014FEF813F94070B
:100F900014F4FF2405C060E170E00E94982AF62E48
:100FA000690154E0CC0CDD1C5A95E1F720C08F2D6F
:100FB0006E2D0E94B40644E0CC0FDD1F4A95E1F788
:100FC000C01BD10B2091BE013091BF01A601421B75
:100FD000530BE82FF0E0EE0FFF1FE55FFE4F20817F
:100FE000318184E891E06C2F0E94F414F394CF2DAA
:100FF000D0E00091BC011091BD0181E00C3A1807CE
:101000001CF060E270E009C0C8018C5A9F4F60E19B
:1010100070E00E94982A6F5F7F4FC617D7073CF297
:10102000E3942E2D30E08091BE019091BF0141E00C
:10103000803D94071CF060E270E007C0C09660E15C
:1010400070E00E94982A6F5F7F4F261737070CF4D5
:1010500098CFDF91CF911F910F91FF90EF90DF908C
:10106000CF9008950F931F9306E311E0C80166E83F
:1010700072E00E943020C8010E9488191F910F91D0
:1010800008950F931F9310928D0180E39091890131
:10109000891B80938E0104E811E0C80161E040E003
:1010A0000E94161260911A0270911B02C8014AE058
:1010B00050E00E94CC261F910F9108954F925F92AD
:1010C0006F927F928F929F92AF92BF92CF92DF9258
:1010D000EF92FF920F931F93CF93DF9360910102E2
:1010E0007091020280910302909104020E9498285C
:1010F0002B018091BC019091BD01481A590A2091A1
:1011000005023091060240910702509108020091B9
:10111000BE011091BF01C20140968536910508F0CD
:1011200074C0CA01B9010E949828EB01C01BD10B01
:101130008FEFC03FD8070CF468C0C133D1050CF065
:1011400064C084E891E0642D4C2F209119020E9424
:101150003F1484E891E060E00E941212E0901502D2
:10116000F09016020091170210911802C801B70101
:101170000E9495285B016C01C801B7010E941B2ADF
:101180003B014C01B201882777FD8095982F0E9482
:10119000CB287B018C01C601B50120E030E040E89E
:1011A00050E40E94B8299B01AC01C801B7010E941C
:1011B00031280E9498285B016C01BE01882777FDC9
:1011C0008095982F0E94CB287B018C01C401B3012C
:1011D00020E030E040E850E40E94B8299B01AC01D7
:1011E000C801B7010E9431280E9498287B018C0118
:1011F00084E891E0642D4C2F2A2D0E2D0E9453126D
:1012000084E891E061E00E941212DF91CF911F917A
:101210000F91FF90EF90DF90CF90BF90AF909F9095
:101220008F907F906F905F904F9008952F923F9294
:101230004F925F926F927F928F929F92AF92BF92E6
:10124000CF92DF92EF92FF920F931F93DF93CF9392
:101250000F92CDB7DEB780E491E062E041E00E94FA
:10126000CC118823B1F06091150270911602809123
:1012700017029091180225E438ED40E25EE30E94E7
:101280003128609315027093160280931702909391
:10129000180280E491E060E041E00E94CC118823D4
:1012A000B1F0609115027091160280911702909131
:1012B000180225E438ED40E25EE30E943028609396
:1012C000150270931602809317029093180280E41F
:1012D00091E064E041E00E94CC118823B1F060917C
:1012E000090270910A0280910B0290910C022AE08F
:1012F00037ED43EA5CE30E94312860930902709362
:101300000A0280930B0290930C0280E491E065E066
:1013100041E00E94CC11882309F442C06091090287
:1013200070910A0280910B0290910C022DEC3CEC22
:101330004CE45FE30E94B8296093090270930A02AB
:1013400080930B0290930C0260910D0270910E023B
:1013500080910F02909110022DEC3CEC4CE45FE385
:101360000E94B82960930D0270930E0280930F02C1
:1013700090931002609111027091120280911302F9
:10138000909114022DEC3CEC4CE45FE30E94B829F0
:1013900060931102709312028093130290931402CF
:1013A000209001023090020240900302509004020B
:1013B00060910502709106028091070290910802E7
:1013C00020E030E040E85DE30E94B8290E949D28BB
:1013D0007B018C016983C201B10120E030E040E86B
:1013E0005DE30E94B8290E949D28DC01CB016E2D8F
:1013F0000E94B406D82E25E0821709F440C086E08A
:10140000D81609F477C0DD2009F08BC0609109027D
:1014100070910A0280910B0290910C0223E333E356
:1014200043E75FE30E94B8296093090270930A02C0
:1014300080930B0290930C0260910D0270910E024A
:1014400080910F029091100226E636E646E65FE3B1
:101450000E94B82960930D0270930E0280930F02D0
:101460009093100260911102709112028091130208
:101470009091140226E636E646E65FE338C06091B6
:10148000090270910A0280910B0290910C0226E6EB
:1014900036E646E65FE30E94B8296093090270933E
:1014A0000A0280930B0290930C0260910D027091DE
:1014B0000E0280910F02909110022DEC3CEC4CE456
:1014C0005FE30E94B82960930D0270930E0280932F
:1014D0000F0290931002609111027091120280919C
:1014E0001302909114022DEC3CEC4CE45FE30E945B
:1014F000B82992C06091090270910A0280910B0292
:1015000090910C0223E333E343E35FE30E94B829A5
:101510006093090270930A0280930B0290930C026D
:1015200083C06091090270910A0280910B02909130
:101530000C0223E333E343E75FE30E94B82960939F
:10154000090270930A0280930B0290930C0260913F
:101550000D0270910E0280910F029091100226E60A
:1015600036E646E65FE30E94B8297B018C01609372
:101570000D0270930E0280930F02909310026091FF
:10158000110270911202809113029091140226E6CA
:1015900036E646E65FE30E94B82960931102709335
:1015A00012028093130290931402E2E0DE16B1F06F
:1015B000ED1520F0F1E0DF16B9F507C023E0D216F3
:1015C000A1F0E4E0DE1681F521C0C801B70120E0FA
:1015D00030E040E85FE30E9431280FC020E030E0B7
:1015E00040E85FE30E94312817C0C801B70120E03E
:1015F00030E040E85FE30E94302860930D02709372
:101600000E0280930F02909310020EC020E030E093
:1016100040E85FE30E943028609311027093120249
:101620008093130290931402E0901502F09016023A
:101630000091170210911802C801B7010E94952865
:10164000A0900902B0900A02C0900B02D0900C0248
:10165000A60195010E94B82920910D0230910E0239
:1016600040910F02509110020E9431283B014C0121
:1016700060930D0270930E0280930F0290931002FC
:10168000C801B7010E941B2AA60195010E94B82932
:101690009B01AC01609111027091120280911302C2
:1016A000909114020E9431286093110270931202EB
:1016B0008093130290931402C201B101A40193011B
:1016C0000E9431287B018C01609301027093020219
:1016D000809303029093040220E030E040E85DE351
:1016E0000E94B8290E949D28DC01CB0169810E94DB
:1016F000B406D82EF7E0F81708F05BC0C801B701B0
:10170000A40193010E9430286093010270930202A9
:10171000809303029093040228E0D21601F5C401DD
:10172000B30120E030E040E050E00E94B42988237B
:101730002CF080E090E0A0ECB0EC04C080E090E001
:10174000A0ECB0E480930D0290930E02A0930F02E0
:10175000B09310028BE591E00E94122314C0C401E3
:10176000B30120E030E040E05FEB0E94B8296093D5
:101770000D0270930E0280930F02909310028BE57E
:1017800091E00E941E236091090270910A028091EB
:101790000B0290910C0220E030E040E05FE30E94F9
:1017A000B8296093090270930A0280930B02909308
:1017B0000C026090110270901202809013029090BF
:1017C0001402C401B3012091050230910602409138
:1017D0000702509108020E9431285B016C0160935E
:1017E00005027093060280930702909308026091AD
:1017F000010270910202809103029091040220E0A4
:1018000030E040E85DE30E94B8290E949D287B01FA
:101810008C01C601B50120E030E040E85DE30E94A4
:10182000B8290E949D289B01AC018E2D622F0E9439
:10183000B406182F883008F45AC0C601B501A401B7
:1018400093010E94302860930502709306028093F2
:10185000070290930802183001F5C401B30120E09B
:1018600030E040E050E00E94B42988232CF080E072
:1018700090E0A0ECB0EC04C080E090E0A0ECB0E41C
:101880008093110290931202A0931302B09314025A
:101890008BE591E00E94122314C0C401B30120E043
:1018A00030E040E05FEB0E94B82960931102709332
:1018B000120280931302909314028BE591E00E9430
:1018C0001E236091090270910A0280910B0290918F
:1018D0000C0220E030E040E05FE30E94B829609312
:1018E000090270930A0280930B0290930C02E0901D
:1018F0001502F09016020091170210911802C8010B
:10190000B7010E9495283B014C01A0900902B090BC
:101910000A02C0900B02D0900C02C801B7010E94CD
:101920001B2AA60195010E94B82920E030E040E87A
:1019300052E40E94B829209105023091060240919C
:101940000702509108020E94312820E030E040EC6C
:1019500051E40E9430280E9498287B018C01C40128
:10196000B301A60195010E94B82920E030E040E8CB
:1019700052E40E94B8292091010230910202409164
:101980000302509104020E94312820E030E048E236
:1019900052E40E9430280E949828DC01CB0140913B
:1019A000BC015091BD019A01220F331F240F351F36
:1019B000820F931F64E070E00E94982A7093BD012B
:1019C0006093BC012091BE013091BF01C901880F15
:1019D000991F820F931F8E0D9F1D64E070E00E947F
:1019E000982A7093BF016093BE010F90CF91DF9151
:1019F0001F910F91FF90EF90DF90CF90BF90AF902D
:101A00009F908F907F906F905F904F903F902F901E
:101A100008950F931F93CF93DF93EC018BE591E033
:101A200060EE73E040E00E940B210CE018E286E3D8
:101A300091E00E94D3198823D1F360E070E080E048
:101A400090E022E030E040E050E00E940A286E5F23
:101A500060938D0160E070E080E090E022E030E093
:101A600040E050E00E940A2860938E0184E891E0F3
:101A700063E374E00E94DE2510928D0100938E01D5
:101A800084E891E068E274E00E94DE2584E891E059
:101A9000BE014AE050E00E94CC2684E891E06CE16F
:101AA00074E00E94DE256091C0017091C10184E85C
:101AB00091E04AE050E00E946A2784E891E060E10A
:101AC00074E00E94DE256091C8017091C90184E82C
:101AD00091E04AE050E00E946A2710928D01109335
:101AE0008E0184E891E062E074E00E94DE2580E4EB
:101AF00091E064E00E94C211882331F08BE591E00F
:101B00000E94122381E00DC080E491E066E00E9413
:101B1000C211882309F48BCF8BE591E00E94182332
:101B200080E0DF91CF911F910F910895CF92DF92C6
:101B3000EF92FF920F931F93CF93DF93ABE0CA2EE8
:101B4000D12CF5E1EF2EF12C86E391E00E94D31920
:101B50008823D1F360E070E080E090E022E030E0A4
:101B600040E050E00E940A28675F60938D0160E0CA
:101B700070E080E090E022E030E040E050E00E9441
:101B80000A2860938E0184E891E061E474E00E9489
:101B9000292610928B0110928D01809189018093EA
:101BA0008E0100EC11E0C0E0D0E0F801808191816D
:101BB000892B31F484E891E06DE20E9401260DC08A
:101BC000CC9DB001CD9D700DDC9D700D1124665330
:101BD0007E4F84E891E00E949C27809188019701C4
:101BE000281B3109C901880F991F880F991F8093FD
:101BF0008D0121968091890190E0FC01CE9FC0016A
:101C0000CF9F900DDE9F900D112480938E01F801DF
:101C1000619171918F0184E891E04AE050E00E9467
:101C20007D27C530D10509F680E491E064E00E948B
:101C3000C211882379F480E491E065E00E94C2112A
:101C4000882341F480E491E066E00E94C211882379
:101C500009F47ACF8BE591E00E941223DF91CF91B6
:101C60001F910F91FF90EF90DF90CF9008954F92CA
:101C70005F926F927F928F929F92AF92BF92CF921C
:101C8000DF92EF92FF920F931F93DF93CF93CDB725
:101C9000DEB72A970FB6F894DEBF0FBECDBF8C011A
:101CA0008091C8019091C9010817190708F0B7C0C1
:101CB000C8010E94090D882309F4B8C086E391E0A9
:101CC00066EF71E00E94581886E391E066EF71E0DC
:101CD0004BE00E948C1A1093C9010093C80196EC46
:101CE000C92E91E0D92E83E0A82EB12C0BE0402E16
:101CF000512C3E010894611C711C45010894811C03
:101D0000911CF60120813181828193818217930792
:101D100064F010EC812E11E0912EAA24BB24CC2477
:101D2000DD24BBE06B2E712C69C0A49C7001A59CC6
:101D3000F00CB49CF00C11248AEC91E0E80EF91E32
:101D4000C301B7010E944F2B849C8001859C100D1C
:101D5000949C100D112406531E4FC701B8010E9418
:101D60004F2BC801B3010E944F2BF6012081318116
:101D70008281938191838083338322838EEF9FEFCF
:101D8000C80ED91E0894A108B1089EEBC91691E0AF
:101D9000D90609F0B2CFBDCFB8016C0D7D1D8BE126
:101DA00094E0F70141917F010E946E230F5F1F4F66
:101DB0000A30110589F78AE090E0C80ED91E8BE140
:101DC00094E0B601F40140810E946E230894C11C86
:101DD000D11CF40141818BE194E0B6010E946E2395
:101DE0000894A11CB11C82E090E0880E991E089412
:101DF000C11CD11C95E0A916B10471F0A69C70011C
:101E0000A79CF00CB69CF00C1124EAECF1E0EE0E6D
:101E1000FF1E00E010E0C0CF0E94960D07C086E3D1
:101E200091E06CE474E044E10E94B8172A960FB682
:101E3000F894DEBF0FBECDBFCF91DF911F910F9100
:101E4000FF90EF90DF90CF90BF90AF909F908F90DA
:101E50007F906F905F904F900895EF92FF920F9355
:101E60001F93609101027091020280910302909190
:101E7000040220E030E040E85DE30E94B8290E94BF
:101E80009D287B018C016091050270910602809172
:101E900007029091080220E030E040E85DE30E94F4
:101EA000B8290E949D289B01AC018E2D622F0E94B3
:101EB000B406873061F580911C02882341F481E0EB
:101EC00080931C0210921B0210921A0220C0809173
:101ED0001A0290911B024597D0F084E891E06EE1E0
:101EE00078E00E94621580911A0290911B020E9474
:101EF000370E84E891E06CE976E00E94621510925A
:101F00001B0210921A0210921C020E946D06809110
:101F10001C02882349F080911A0290911B020196BD
:101F200090931B0280931A021F910F91FF90EF90E4
:101F3000089584E891E06CE976E00E94621586E3FA
:101F400091E00E94D3198823D1F380E491E066E008
:101F50000E94C211882339F084E891E06EE178E0B4
:101F60000E94621508950E9416090E942D0F0E947A
:101F7000A9070E94DE060E9441080E945E08DFCF8A
:101F800086E391E068EA73E044E00E946B1D8130D3
:101F900051F0823059F0882309F082C00E94A906CE
:101FA0000E94990F08950E94960D089586E391E08E
:101FB0000E94D3198823D1F380E491E066E00E9467
:101FC000C211882329F08BE591E00E94182308951F
:101FD00084E891E06BED73E00E94DE256091500192
:101FE0007091510184E891E04AE050E00E94CC26D3
:101FF00084E891E068ED73E00E94292684E891E08E
:102000006FEC73E00E94DE2584E891E060914F015F
:102010004AE050E00E94FA2684E891E06CEC73E01C
:102020000E94292684E891E065EC73E00E94DE2599
:10203000609137017091380184E891E04AE050E006
:102040000E94DD2684E891E06AEB73E00E94DE25C1
:1020500084E891E0609139014AE050E00E940C2749
:1020600084E891E062EB73E00E94DE258BE591E06D
:102070000E943123682F84E891E04AE050E00E94FA
:10208000FA2684E891E060EB73E00E94DE2584E8A4
:1020900091E0609161014AE050E00E940C2786CFF8
:1020A0000E94320808950E94C00F08956F927F9297
:1020B0008F929F92AF92BF92CF92DF92EF92FF9258
:1020C0000F931F93CF93DF9330EC832E31E0932E49
:1020D000AA24BB24CC24DD242BE0622E712C39C031
:1020E000BE016C0D7D1D8BE194E00E947323F8010D
:1020F00081938F012196CA30D10591F7B601665FB1
:102100007F4F8BE194E00E947323082F10E0F401CD
:1021100011830083B601655F7F4F8BE194E00E94DD
:102120007323F82EEE24C701800F911F009711F43E
:102130008FE097E2F401819391934F010894A11CE1
:10214000B11C8CE090E0C80ED91E95E0A916B10430
:1021500061F0A69C8001A79C100DB69C100D112467
:1021600006531E4FC0E0D0E0BBCFDF91CF911F914F
:102170000F91FF90EF90DF90CF90BF90AF909F9026
:102180008F907F906F90089586E391E00E943620B3
:1021900084E891E06EE178E00E9462150E9456109A
:1021A0000E94320808952CB5382F33702C7F322BC3
:1021B0003CBD2DB590E09595879595958795817057
:1021C0002E7F822B8DBD08958AE061E00E9442251A
:1021D0008AE061E00E94D6248CB580618CBD8CB50C
:1021E00080648CBD8DE061E00E94D6248BE061E0CC
:1021F0000E94D6240895FC0181E08083089585E043
:1022000070E00E94762408956F927F928F929F9241
:10221000AF92BF92CF92DF92EF92FF920F931F93F4
:10222000CF93DF93EC0189819A818C0124E0000F28
:10223000111F2A95E1F7081B190B85E10E94542410
:10224000BC01600F711F84E0769567958A95E1F770
:102250007A8369838881882381F12E813F81621787
:10226000730710F4B90106C088859985861797070A
:1022700008F4BC0100D000D080E090E040E050E0E5
:10228000E884F98400E010E0AD80BB24CC24DD2498
:102290006C80772488249924EDB7FEB7618272821E
:1022A000838294820E949F276B830F900F900F90E0
:1022B0000F9085E070E00E947624DF91CF911F910E
:1022C0000F91FF90EF90DF90CF90BF90AF909F90D5
:1022D0008F907F906F900895FC018CE39FE0938333
:1022E000828384E0818381E084870895CF93DF93A4
:1022F000EC018C8590E08F719070892B69F584E1F9
:102300000E945424AA2797FDA095BA2FBC01CD01A5
:102310000E94CB2826EE3FE34EEC50E40E94B82901
:102320000E949D289B01AC017B836A836115710526
:1023300089F084E08983B901FE0120E084819581E0
:102340006817790710F429830AC02F5F329624306A
:10235000A9F702C08FEF89838C858F5F8C87DF910F
:10236000CF910895FC0188E0808389E0818387E034
:10237000828386E0838384E0848382E0858381E1B5
:102380008683089520E0FC01E60FF11D87818130EE
:1023900009F421E0822F0895E62FF0E0423040F466
:1023A00020E0E80FF91F878181508E3F88F40FC02D
:1023B000E80FF91F87818F3F11F420E009C020E06A
:1023C00090E0642F70E00E94842A019709F421E0D4
:1023D000822F08950F931F93CF93DF93EC0110E0AA
:1023E0000FEF888162E00E94D62488810E947525C3
:1023F0002F81892B19F42F5F2F8307C0222349F0E7
:102400002F3F11F41F8201C00F83888160E00E947A
:10241000D6241F5F2196173021F7DF91CF911F91AE
:102420000F910895FC01678F60A30895FC01678FE9
:1024300040A30895FC016435A8F547FD33C040333F
:102440008CF5878D942F959595959595772767FDB4
:1024500070954770882399F0E4E59E02F0011124FD
:10246000E60FF71FE35EFD4F81E090E002C0880FAA
:10247000991F4A95E2F72081282B20830895E4E5EF
:102480009E02F0011124E60FF71FE35EFD4F81E08D
:1024900090E002C0880F991F4A95E2F7809520814D
:1024A000282320830895AF92BF92CF92DF92EF92BC
:1024B000FF920F931F93CF93DF93EC01162FF42E0F
:1024C000E22EAA24402F552747FD50958F2D99279E
:1024D00087FD9095481B590B57FF03C050954195B8
:1024E0005F4F2E2D332727FD3095812F992787FDAC
:1024F0009095281B390B37FF03C0309521953F4F2E
:102500002417350744F4AA24A3948F2DF12E182FF5
:10251000802F0E2DE82EE11634F48E2DE12E182F8B
:10252000802F0F2DF82EDE2CD11A202F332727FDD8
:1025300030958F2D992787FD9095281B390B37FFF4
:1025400003C0309521953F4FB22EF0161CF0CC24DD
:10255000CA9402C0CC24C3948D2DD7FC8F5F082F62
:10256000059511C0AA2021F0CE016F2D412F03C087
:10257000CE01612F4F2D0E941A120B1907FF02C0C6
:10258000FC0C0D0D1F5FE1166CF7DF91CF911F91D1
:102590000F91FF90EF90DF90CF90BF90AF90089594
:1025A0000F93042F322F262F2150230F0E945312F6
:1025B0000F9108950F93362F042F0150020F232FF0
:1025C0000E9453120F9108959F92AF92BF92CF92A3
:1025D000DF92EF92FF920F931F93CF93DF936C01E3
:1025E000B62E942EA02EC0E0D0E0E62EFF24E7FC0D
:1025F000F094022F112707FD10950E0D1F1D06C028
:10260000C601492D2A2D0E94DA1221966B2D6C0FDE
:10261000CE018E0D9F1D8017910794F3DF91CF910E
:102620001F910F91FF90EF90DF90CF90BF90AF90F0
:102630009F9008952F923F925F926F927F928F9218
:102640009F92AF92BF92CF92DF92EF92FF920F9341
:102650001F93DF93CF9300D000D000D0CDB7DEB76B
:102660009E838D83C62ED42EEE24E394E21A8EEF41
:10267000289F502C1124842E8A94962E9A94A42E4E
:10268000A394B62EB394F22E662423E0722E10E0AB
:10269000C801847090709A838983F801E270F070A9
:1026A000FC83EB8398E0292E312C2022312201700B
:1026B000107054C0E7FC04C0FA94F2E05F0EE50C21
:1026C000639489819A81892B71F04F2D4D0D8D81F5
:1026D0009E816B2D0E941A126F2D6C0D8D819E8133
:1026E0004A2D0E941A12EB81FC81EF2B71F04D2DC7
:1026F0004F198D819E816B2D0E941A126F2D6C0DCA
:102700008D819E81482D0E941A122114310471F08E
:102710006C2D6F198D819E814A2D0E941A124F2DAA
:102720004D0D8D819E81692D0E941A120115110592
:1027300071F06C2D6F198D819E81482D0E941A12A7
:102740004D2D4F198D819E81692D0E941A12E70C23
:10275000F2E07F0E8A949A94A394B3946F140CF4CD
:10276000A9CF26960FB6F894DEBF0FBECDBFCF918E
:10277000DF911F910F91FF90EF90DF90CF90BF906E
:10278000AF909F908F907F906F905F903F902F9031
:1027900008954F925F926F927F928F929F92AF9225
:1027A000BF92CF92DF92EF92FF920F931F93CF933E
:1027B000DF93EC01A62E742E9E2DFF24F394F21AC3
:1027C0008EEF289F802C1124B42EBA9453E0C52E8E
:1027D000CE0CE22EDD2443E0942E10E031E0432EB7
:1027E000512C40225122692E63940270107034C023
:1027F000F7FC04C0EA9482E0880EF80CD3944114EC
:10280000510489F06D2D6A0D472D4E192E2D220F82
:10281000260DCE010E94DA126E2D6A0DCE014B2DCF
:102820002C2D0E94DA120115110589F06A2D6D19FF
:10283000472D4E192E2D220F260DCE010E94DA12A1
:102840006A2D6E19CE014B2D2C2D0E94DA12F90C37
:1028500082E0980EBA94C80EDE1454F2DF91CF9144
:102860001F910F91FF90EF90DF90CF90BF90AF90AE
:102870009F908F907F906F905F904F900895DF9220
:10288000EF92FF920F931F937C01062FD42E122FED
:10289000421B220F2F5F0E94DA12C701602F4D2DBD
:1028A000212F03E0EE240E94C9131F910F91FF9086
:1028B000EF90DF9008957F928F929F92AF92BF9298
:1028C000CF92DF92EF92FF920F931F936C01962E9F
:1028D000A42EF22E7E2C760E1EEFE19E102D1124DA
:1028E000812E820E672D282D0E94D012B02EBA0C98
:1028F000BA94C601672D4B2D282D0E94D012AE0C24
:10290000100FC601692D4A2D212F0E94DA12F90CF1
:10291000FA94C6016F2D4A2D212F0E94DA12C601AA
:10292000672D4A2D2E2D01E00E941A13FE18C601B4
:102930006F2D4A2D2E2D02E00E941A13BE18C601DB
:102940006F2D4B2D2E2D04E00E941A13C601672D0A
:102950004B2D2E2D08E00E941A131F910F91FF900E
:10296000EF90DF90CF90BF90AF909F908F907F902F
:1029700008958F929F92AF92BF92CF92DF92EF9283
:10298000FF920F931F936C01162FA42E922EF02E00
:10299000BE2C8E2C860E2EEFE29EE02C11242E2DC6
:1029A000290D682D0E94E412AB0CFA94FE0C115014
:1029B000190D1B19C601612F4A2D2B2D01E0EF2C9B
:1029C0000E94C913C601682D4A2D2B2D02E00E94DA
:1029D000C9131F910F91FF90EF90DF90CF90BF90A0
:1029E000AF909F908F9008953F924F925F926F9219
:1029F0007F928F929F92AF92BF92CF92DF92EF928F
:102A0000FF920F931F93CF93DF934C01362E442EEA
:102A1000F901A490319654906F010894C11CD11C07
:102A20008A2D992787FD9095079668E070E00E94AF
:102A3000982AE62EFF24E7FCF09400E0C0E0D0E006
:102A400060E8662E712C26C0E12FE595E595E595A9
:102A5000FF27E7FDF095EC0FFD1FEC0DFD1DE49148
:102A60002E2F30E0812F8770A30102C05595479526
:102A70008A95E2F724233523232B31F0612F630D50
:102A8000C4014B2D0E941A121F5F1A15ECF20F5F42
:102A9000CE0DDF1D051524F410E0B02EB40CF5CFDB
:102AA000DF91CF911F910F91FF90EF90DF90CF902A
:102AB000BF90AF909F908F907F906F905F904F905E
:102AC0003F900895DC01FB0184918F5F14968C93F5
:102AD0001497319684918F5F15968C931597319644
:102AE0005E96FC93EE935D9708953F924F925F92AE
:102AF0006F927F928F929F92AF92BF92CF92DF920E
:102B0000EF92FF920F931F93CF93DF93EC01862EEA
:102B1000A42E422F102F3F8C23E526170CF4ABC0B8
:102B20003FE23A150CF4A7C0C02EDD248C8190E062
:102B300001979C01C29EC001C39E900DD29E900D34
:102B40001124262F332727FD3095820F931F181647
:102B500019060CF090C08D8190E09C01C29EC001CE
:102B6000C39E900DD29E900D11242A2D332727FD50
:102B70003095820F931F181619060CF07CC099240B
:102B8000442E55246DC09C012150304042175307FC
:102B900011F460E00EC0429EC001439E900D529E13
:102BA000900D1124840F951FED8DFE8DE80FF91FF8
:102BB00064914C9DC0014D9D900D5C9D900D112424
:102BC000682C680EBB24792C780C3FC0E62EFF24BD
:102BD00060FF19C0113039F44B2D4A0DCE01672D1D
:102BE0000E941A122EC02C9DC0012D9D900D3C9D5F
:102BF000900D11244A2D480FCE01662D212F012F53
:102C00000E94E4121EC098A18F8D9817D1F09F8F5B
:102C1000113039F44B2D4A0DCE01672D0E941A1246
:102C20000FC02C9DC0012D9D900D3C9D900D112439
:102C30004A2D480FCE01662D212F012F0E94E4124C
:102C40003F8EF594E7946E2DB3942B2D332727FDFB
:102C500030958D8190E0281739070CF4B7CF939405
:102C6000492D552747FD50958C8190E0481759070D
:102C70000CF489CF3F8EDF91CF911F910F91FF9080
:102C8000EF90DF90CF90BF90AF909F908F907F900C
:102C90006F905F904F903F9008950F93CF93DF9385
:102CA000EC01262F6A3049F48D819885899F802D0B
:102CB00011249A85980F9A8726C06D3029F169856D
:102CC0004A8508850E9475159C816885969F402DD0
:102CD00011248985480F49878F818823A9F05527BA
:102CE00047FD5095699F9001112484E590E0821B77
:102CF000930B8417950744F49D81699F902D1124AF
:102D00008A85890F8A87198681E090E0DF91CF91CB
:102D10000F9108951F93CF93DF93EC01162FF89432
:102D20008E8560E00E9442258F8518161CF460E0B5
:102D30000E9442251EBD0DB407FEFDCF8EB58F85C6
:102D400018161CF461E00E9442257894DF91CF911F
:102D50001F910895FF920F931F93CF93DF93EC0180
:102D6000FF2400E010E06F2D6064CE010E948A16FF
:102D7000CE0160E80E948A168E8561E00E9442259D
:102D80008F8518161CF460E00E944225F801E35E6E
:102D9000FD4F90E080818EBD0DB407FEFDCF8EB556
:102DA0009F5F31969435B1F78F8518161CF461E05A
:102DB0000E944225F3940C5A1F4F86E0F81699F6AC
:102DC000CE0160E40E948A16DF91CF911F910F918E
:102DD000FF900895CF93DF93DC0188EF91E0EDE160
:102DE000F2E0EF019C01199221503040E1F7199671
:102DF0001C9219971A961C92DF91CF910895EF9229
:102E00000F93CF93DF93EC014D876C872E87E88A71
:102E10000F8781E088878F8F18A28F83CE016CE99E
:102E200076E00E9462150E94E4108D8561E00E94A8
:102E3000D6248C8561E00E94D6248E8561E00E94B4
:102E4000D624888918161CF461E00E94D6248F8548
:102E500018161CF461E00E94D624888918166CF4B8
:102E600060E00E9442256AE070E080E090E00E940D
:102E7000F323888961E00E944225EC852E2F3327B9
:102E800027FD3095F901E85BF34FE491F0E0EE0F98
:102E9000FF1FEC5CF34F859194919C8B8B8B245A94
:102EA000334FF90184918A8FED852E2F332727FD2B
:102EB0003095F901E85BF34FE491F0E0EE0FFF1F6E
:102EC000EC5CF34F859194919A8B898B245A334F04
:102ED000F9018491898FEF852E2F332727FD3095B7
:102EE000F901E85BF34FE491F0E0EE0FFF1FEC5CBB
:102EF000F34F859194919E8B8D8B245A334FF9011A
:102F000084918B8FEE852E2F332727FD3095F90185
:102F1000E85BF34FE491F0E0EE0FFF1FEC5CF34F42
:102F200085919491988F8F8B245A334FF901849116
:102F30008C8FCE0161E20E948A16CE0164E10E946C
:102F40008A168B8587FF02C08FE78B876B85606849
:102F5000CE010E948A16CE0160E20E948A16CE013E
:102F60006CE00E948A16DF91CF910F91EF90089547
:102F7000FC01ED57FF4F61937193445F40830895C7
:102F8000CF93DF93DC01E0E8FFE685919491ED01BA
:102F9000C75ADF4FAD0141595F4F8150904C09F046
:102FA0004EC0E6E9FFE6E491E883E7E9FFE6E49155
:102FB0001496EC931497E8E9FFE6E4911596EC93E8
:102FC0001597E9E9FFE68591949117969C938E9366
:102FD0001697EBE9FFE68591949119969C938E9351
:102FE0001897EDE9FFE6E4919B96EC939B97EEE949
:102FF000FFE6E4919A96EC939A97EFE9FFE6E49165
:10300000EA01E883E0EAFFE6859194915D969C935E
:103010008E935C97E2EAFFE6859194915F969C938C
:103020008E935E97E4EAFFE68591949191969C9346
:103030008E939097E6EAFFE68591949132C08CE3F7
:10304000888314961C9214972FEF15962C9315973E
:1030500080E293E017969C938E93169784ED93E00D
:1030600019969C938E93189781E09B968C939B97CF
:103070009A968C939A97FA0120838CEA9DE05D964C
:103080009C938E935C978EED9DE05F969C938E93C0
:103090005E9784E79EE091969C938E9390978CE345
:1030A0009FE093969C938E939297DF91CF91089592
:1030B000E0E8FFE6859194918150904C51F4DB015A
:1030C000EBE8FFE684918D9331968FE6E539F807BA
:1030D000C9F70895EF92FF920F931F93CF93DF9359
:1030E0007C018C01025B1F4FC8010E94EA16C801D7
:1030F00065EC7AE00E94DE25C8010E94AA1683E0F2
:103100000E94D31080E091E0EEEFFFE3099584E5A3
:1031100090E0E80EF91EF7011082C80160EA7AE03B
:103120000E942926C8010E94AA16E701CA54D0406D
:10313000CE010E94EA11CE0164E00E94C2118823F0
:1031400039F462E370E080E090E00E94F323F0CF76
:10315000DF91CF911F910F91FF90EF9008950F9302
:103160001F93CF93DF93EC018C01025B1F4FC801CB
:1031700061E040E00E941612FE01E95AFF4FCE5A6C
:10318000DF4F85E59881891B808326961882C85574
:10319000D040698D613081F1613028F0888D6530D3
:1031A00008F043C03DC0CE0185960E940721CE01A4
:1031B00060E00E94FF10C8010E94EA16CA5ADF4F61
:1031C00081E08883C8016DEE7AE00E94DE25C801A7
:1031D0000E94AA1683B7817F846083BF83B7816012
:1031E00083BF83B7816083BF889583B78E7F83BF9A
:1031F00083B78E7F83BF1FC0C059DF4F88819981FD
:10320000AA81BB818F709070A070B0700897A105E3
:10321000B10518F4C80167E00CC0C80168E709C02F
:10322000882349F06B5FC80104C0882321F0C801DE
:103230006FE20E940126DF91CF911F910F910895B7
:10324000AF92BF92CF92DF92EF92FF920F931F93B4
:10325000CF93DF93EC01CB57DF4F8881C558D04027
:10326000882309F44AC08C3010F010E002C01CE042
:10327000181BCA5ADF4F81E08883C655D0406EE4E0
:10328000C62ED12CCC0EDD1EC60160E00E941212AB
:1032900053E5A52EB12CAC0EBD1EF50100814DE20B
:1032A000F42E4F2D401B410F0D5FC60160E024E559
:1032B00033E0E32E0E94B914C60161E00E941212AD
:1032C000F5010081F01AF10E0D5FC60160E04F2D8F
:1032D00024E50E945B14C95ADF4F84E08993F5010D
:1032E0008081181B115D1883AB9669917991C60195
:1032F0000E94DE25888181508883DF91CF911F91C4
:103300000F91FF90EF90DF90CF90BF90AF90089516
:103310004F925F926F927F928F929F92AF92BF92E5
:10332000CF92DF92EF92FF920F931F932C01FC013B
:10333000628C738C60947094882499240E94CD23AD
:103340005B016C010E94CD237B018C01F201418065
:1033500052800E94CD23460E571EA094B094C09474
:10336000D094E094F09400951095C601B501A801A1
:1033700097010E94652AA40193010E94652A460EC6
:10338000571EC2010E9428281F910F91FF90EF90B5
:10339000DF90CF90BF90AF909F908F907F906F9075
:1033A0005F904F900895AF92BF92CF92DF92EF92CD
:1033B000FF920F931F93CF93DF93EC01EFE7AE2EB5
:1033C000B12CA80EB91EF501E080F18002811381B5
:1033D0000E94BF23E61AF70A080B190B7EE7C72ED7
:1033E000D12CCC0EDD1EF601808190E0A0E0B0E093
:1033F0008E159F05A007B10708F081C08E01065801
:103400001F4FF80180819181A281B3810097A105AE
:10341000B10509F474C00E94BF23F6012081620F38
:10342000711D811D911DF5016083718382839383DA
:10343000FE01E059FF4F80819181A281B381019605
:10344000A11DB11D80839183A283B383F8011082F3
:103450001182128213820E94CD23CA58DF4F6883E3
:1034600079838A839B83C657D040CE010E94041182
:10347000CE010A960E94EA11CE0148960E9476116A
:1034800081E032C08E010B5D1F4FC8010E945521A3
:10349000C8010E94D221C8010E94B522CE010E941B
:1034A0002019CE010E94AF188E01025B1F4FC80188
:1034B0000E94AA16CC5ADF4F8881C455D040882379
:1034C00019F4C8010E94EA160E94CD23C658DF4FA6
:1034D000688379838A839B83249728813981621B3F
:1034E000730B7A936A9380E0DF91CF911F910F91D4
:1034F000FF90EF90DF90CF90BF90AF900895C658A7
:10350000DF4F88819981AA81BB81CA57D04000973B
:10351000A105B10541F7B6CF2F923F924F925F922E
:103520006F927F928F929F92AF92BF92CF92DF92D3
:10353000EF92FF920F931F93DF93CF93CDB7DEB738
:1035400068970FB6F894DEBF0FBECDBF5C017B87D6
:103550006A874C8724E530E0A20EB31ED5011C9289
:10356000ECEAFFEFAE0EBF1E842F90E0FB01E80FE8
:10357000F91F319710825AE0452E512C4A0C5B1CE2
:1035800045E2642E712C6A0C7B1C3EE4C32ED12CC8
:10359000CA0CDB1C1D821C82F2E0FB8324E52A831B
:1035A00030E3398323E5822E912C8A0C9B1C02E5A3
:1035B000202E312C2A0C3B1CA501495A5F4F5E87F7
:1035C0004D87B501685A7F4F788B6F87D501A05919
:1035D000BF4FBA8BA98B9C8B8B8B01979E8B8D8B4E
:1035E000C5010E94D3198823D9F3C20163E044E0E6
:1035F0000E94CC11882331F0BB81BF5FBB83C30124
:103600000E941E23C20161E044E00E94CC11882385
:1036100031F0EB81E150EB83C3010E941E23C20114
:1036200062E044E00E94CC11882331F0FC81FF5F0E
:10363000FC83C3010E941E23C20160E044E00E949B
:10364000CC11882331F02C8121502C83C3010E949E
:103650001E233C81303111F41C8205C04C814F3F48
:1036600011F45FE05C836B81683011F41B8205C04C
:103670007B8177FF02C087E08B83AC81BB27A7FDEE
:10368000B095B987A887D401EC912B81332727FD0A
:1036900030953F832E83D1018C9190E08095909559
:1036A00028853985AC01249FC001259F900D349F4A
:1036B000900D1124895D992787FD90955A81252FBA
:1036C000332727FD3095820F931F62E070E00E9440
:1036D000982A6A8384E18E1BF0E0E095F0956E8174
:1036E0007F816E9F90016F9F300D7E9F300D112462
:1036F000820F992787FD90957981272F332727FD02
:103700003095820F931F62E070E00E94982A6983CF
:10371000C20164E00E94C211882399F18D81282F93
:10372000332727FD3095AD89BE892A173B07BCF4A6
:103730008E819F8114E0880F991F1A95E1F7BC8153
:103740008B0F09F44DCF8A3009F44ACF8D3009F43C
:1037500047CFEA85FB85E20FF31F80831182ED815D
:10376000EF5FED83C3010E941223FD818F2F992704
:1037700087FD90952B893C892817390714F43C85DF
:103780003D83C20165E00E94C2118823A9F04D81EA
:1037900041504D83C3010E9418235D8157FF02C031
:1037A0001D820AC06D81E62FFF27E7FDF0958A850F
:1037B0009B85E80FF91F1082C20166E00E94C211CA
:1037C000882309F442C0C3010E941223C5010E944C
:1037D000D3198823D9F3C6016CE27BE00E94292625
:1037E000C6016A857B850E949C27C6016BE17BE050
:1037F0000E942926C20164E00E94C2118823E1F0E0
:10380000C3010E94122368960FB6F894DEBF0FBE64
:10381000CDBFCF91DF911F910F91FF90EF90DF907F
:10382000CF90BF90AF909F908F907F906F905F9060
:103830004F903F902F900895C20165E00E94C21101
:10384000882321F2C3010E941823EE24FF2410E0F4
:1038500033C0D1018C9190E00196EF89F88D9C01E5
:10386000E29FC001E39F900DF29F900D11246A81A9
:10387000680FD4018C9190E00196FC01EE9EC0018E
:10388000EF9E900DFE9E900D11244981480F2F89C7
:10389000210FC60101E00E9475152F89388D2F5F19
:1038A0003F4F388F2F8B2031310599F60894E11C5A
:1038B000F11C105F103819F0188E1F8ACACFD10181
:1038C0008C91BAEF8B9F802D11248250EA818E0F4C
:1038D000AD85BE858C93F40180818F5FF9818F0F58
:1038E000AF85B8898C93C60165E17BE00E94DE2537
:1038F000F1018081FAEF8F9F802D112482502A815F
:10390000820FAD85BE858C93F401808190E0019695
:10391000880F991FF9818F0FAF85B8898C93C601E5
:103920006FE07BE00E94DE25F1018081FAEF8F9F3E
:10393000802D112482502A81820FAD85BE858C9303
:10394000F401208130E02F5F3F4FC901880F991F9C
:10395000820F931FF9818F0FAF85B8898C93C601B1
:1039600069E07BE00E94DE25C60160E00E94121241
:10397000F101808190E0019628853985289FB0016A
:10398000299F700D389F700D112461503A81630F8B
:10399000D4018C9190E00196EE81FF81E89FA00117
:1039A000E99F500DF89F500D11244250F9814F0F9F
:1039B000C60127E00E94D012C60161E00E941212E7
:1039C000D1012C91822F90E0F4010081019648856D
:1039D0005985489F7001499FF00C589FF00C1124A5
:1039E0005EEFE50E6A81E60E402F50E04F5F5F4FBD
:1039F000AE81BF81A49FF001A59FF00DB49FF00D93
:103A00001124E350B981EB0F2E5F029762E070E062
:103A10000E94982A280F0B5FC6016E2D4E2FF3E0EF
:103A2000EF2E0E945B14F40180814EE2481BC60118
:103A300060E024E50E94D012C60160E00E941212EC
:103A4000D4010C914FE2401B0F5FC60160E024E5FA
:103A50000E94E412ED85FE851082D4018C91B0E3C2
:103A6000B81BEF85F889B083C60161E00E9412128D
:103A7000C6016A857B850E949C27E989FA89808135
:103A80009181A281B38187709070A070B07004970B
:103A9000A105B10508F0A4CDFD812F2F332727FD07
:103AA00030954D895E89241735070CF099CDD101E9
:103AB0008C9190E0289FB001299F700D389F700D68
:103AC0001124F401808140E3481BC6012FE501E089
:103AD0000E94751585CD2F923F924F925F926F9203
:103AE0007F928F929F92AF92BF92CF92DF92EF928E
:103AF000FF920F931F93DF93CF93CDB7DEB76297FB
:103B00000FB6F894DEBF0FBECDBF6C016C837D8312
:103B10004B8324E530E0C20ED31EF60110822CEA5E
:103B20003FEFC20ED31E1AE0A12EB12CAC0CBD1C6F
:103B3000B5E22B2E312C2C0C3D1CAEE44A2E512C20
:103B40004C0C5D1C10E0F0E37F2E66241A823FEFE0
:103B50003983A601495A5F4F5F834E83C601885A55
:103B60009F4F99878887F601EA5AFF4FFB87EA87BC
:103B700096012B5A3F4F3D872C87E3E58E2E912CE3
:103B80008C0C9D1C5B81452F50E05F874E878B819D
:103B90008150888BC6010E94D3198823D9F3C501AF
:103BA00064E00E94C211882369F4C50165E00E94A7
:103BB000C211882339F4C50166E00E94C21188232E
:103BC00009F4D3C0F4010081C50164E00E94C21170
:103BD000882329F0C1010E9412231983CBC0C1019F
:103BE0000E941823C7C0C50163E044E00E94CC11C5
:103BF000882321F01F5FC1010E941E23C50161E0DF
:103C000044E00E94CC11882321F01150C1010E9490
:103C10001E23812F992787FD90952E853F8582173A
:103C2000930711F410E002C017FD1889F401808198
:103C3000819F902D11248C5F682E691A28C0872DD2
:103C4000992787FD9095262D332727FD3095821BD8
:103C5000930B0297D4F4898162960FB6F894DEBF75
:103C60000FBECDBFCF91DF911F910F91FF90EF90CD
:103C7000DF90CF90BF90AF909F908F907F906F908C
:103C80005F904F903F902F900895F1E0FA83862D3A
:103C9000992787FD9095272D332727FD3095820F93
:103CA000931F62E070E00E94982A762EEE81FF81D9
:103CB0001082E885F985608321E0EA85FB85208311
:103CC000EC85FD8510822C813D81C9019A8B898B01
:103CD00000E0E12EFF24E7FCF09420C0802F90E06C
:103CE0008E159F0569F423E0EE81FF812083F401A6
:103CF00080818E9D802D1124870DE885F985808334
:103D0000E989FA8965917491C2010E9429260F5FA1
:103D100029893A892E5F3F4F3A8B298B3B810317C4
:103D2000E8F2C20160E00E941212F40140814E9D4F
:103D3000402D11244150470DC20160E024E50E944E
:103D4000D012C20161E00E941212F40100810E9DA6
:103D5000402D11244250470D0D5FC20160E024E563
:103D600073E0E72E0E945B1415CFFA81FF2309F060
:103D700066CF39CF802F90E0909581959F4F2E850B
:103D80003F85AC01249FC001259F900D349F900D6D
:103D900011246EEF662E680E52CF2F923F924F92F3
:103DA0005F926F927F928F929F92AF92BF92CF92CB
:103DB000DF92EF92FF920F931F93DF93CF93CDB7D4
:103DC000DEB72B970FB6F894DEBF0FBECDBF9B8733
:103DD0008A877A8369835C834B838C0101591F4FE7
:103DE000F8018081882309F422C18A859B858A5A3B
:103DF0009F4F9B878A8781E0EA85FB8580831292AB
:103E00001292E455F040FB87EA87108E9EE4E92E7B
:103E1000F12CEE0EFF1EC70161E00E9412128AE033
:103E2000282E312C8A859B85280E391EB5E26B2EF3
:103E3000712C680E791EE981FA81F491FD83A7E562
:103E40008A2E912C880E991EF8E5CF2ED12CC80E03
:103E5000D91EE2E54E2E512C480E591E8D5A9F4F09
:103E60009F838E8370E7A72EB12C8A859B85A80E31
:103E7000B91E198708878A859B850E94D3198823D4
:103E8000D1F39D81992311F410E003C0EE81FF81ED
:103E90001081C70160E040E029E33BE00E94F41498
:103EA0008B819C81892B41F0145FC70160E0412F19
:103EB0002B813C810E94F414F40110828CE0F60105
:103EC0008083C70169817A810E94DE25F201208109
:103ED00030E0C901880F991F820F931F909581953B
:103EE0009F4F8D5AF4018083EE81FF81208130E065
:103EF000C901880F991F820F931F909581959F4F3D
:103F0000835DF6018083F501808184FF04C0C701D1
:103F100069EB7BE003C0C70165EB7BE00E942926CB
:103F2000F201208130E0C901880F991F820F931F91
:103F3000909581959F4F8D5AF4018083F601808181
:103F40008F5F8083EA85FB8582A5882321F0C701E6
:103F500061EB7BE003C0C7016DEA7BE00E9429268C
:103F6000F201808190E09C01220F331F280F391F3E
:103F7000309521953F4F2D5AF4012083F601808121
:103F80008F5F8083C70169EA7BE00E942926C10117
:103F900065E00E94C211882351F0EA85FB8562A585
:103FA0006F5FC3010E942423C3010E941E23C1012D
:103FB00064E00E94C211882399F4E885F985608144
:103FC000262F30E040E050E0F50180819181A28110
:103FD000B38182179307A407B50708F16F3FF9F083
:103FE0008A859B8581599F4F9B878A878FEFEA85BA
:103FF000FB858083EF56F040FB87EA87C30160E0D2
:104000000E94FC20C3010E94122381E0EA85FB8507
:10401000808F0DC08A859B850E946A182CCFC101B4
:1040200066E00E94C211882309F425CFF3CF2B96B6
:104030000FB6F894DEBF0FBECDBFCF91DF911F91B9
:104040000F91FF90EF90DF90CF90BF90AF909F9037
:104050008F907F906F905F904F903F902F9008953A
:10406000AB016EEB7BE00E94CD1E0895AF92BF9234
:10407000CF92DF92EF920F93CF93DF936C018EE795
:1040800090E0C80ED91E82E3F601808381E090E0C3
:10409000A0E0B0E0B293A293929382936F0185EF78
:1040A0009FEFC80ED91E8FEFF601808381E99FEF45
:1040B000C80ED91EC6010E94C017C6010E94FB107F
:1040C000C6016FEF0E94FF104AE0A42EB12CAC0C89
:1040D000BD1CC5010E94B211C5010E94EA11C601B2
:1040E00048960E946C11C601825B9F4F6DE04BE0C9
:1040F00020E10FE03EE0E32E0E94FF16E601A596C8
:10410000CE010E943423C50165E00E94C2118823BC
:1041100029F0CE0160E00E94242306C0CE016FEB9F
:104120007BE040E00E940B21DF91CF910F91EF9057
:10413000DF90CF90BF90AF9008950F93DC010023E4
:1041400009F047C06230A1F1633030F4662351F0CA
:10415000613009F03EC009C0633081F1643009F07C
:1041600038C032C056964C9334C0842F90E0880FEC
:10417000991F1F962D913C915097280F391FF901D7
:104180008591949190969C938E935F97FC014591B5
:104190005491642F91964C939197252F3327842F18
:1041A00090E02817390708F4652F92966C9311C098
:1041B00059964C9359975A962C930BC05B964C93F7
:1041C0005B975C962C9305C05D964C935D975E96CD
:1041D0002C930F910895FC01662369F4178A158AC0
:1041E00014A213A2108E10921904109218041092A7
:1041F00016041092B4000895CF93DF93EC01662368
:1042000019F40E94EB201982DF91CF91089560E0AC
:104210000E94FC2008950F931F93CF93DF93EC012E
:104220008B01442371F460E00E94FC201E870D87FF
:104230001B8A1A8A81E0898389E08E8B198E1B8EF6
:104240001D8EDF91CF911F910F910895CF93DF9332
:10425000EC01662339F58881882321F1898188233F
:1042600009F5898590E0880F991FEF81F885E80F9F
:10427000F91F859194912FEF8F3F920711F41882C7
:1042800011C09C8790E0880F991FEA85FB85E80F95
:10429000F91F65917491CE0140E00E940B21898540
:1042A0008F5F8987DF91CF91089560E00E9426217A
:1042B00008950F93CF93DF93EC01662309F06EC04E
:1042C0008981882309F46AC08D89882309F066C032
:1042D000EA89FB89EE0FFF1F4D855E85E40FF51F10
:1042E000259134912115310509F040C0898981302B
:1042F00031F41B8A1A8AFA012591349137C0198248
:104300008881882379F0CE0160E00E9426218A8985
:104310009B89880F991FED85FE85E80FF91F259170
:10432000349124C0CE0160E00E94EB2037C0E6E06B
:1043300036952795EA95E1F76F70422F4F7175E03A
:10434000369527957A95E1F72051CE0100E00E943D
:104350009D208A899B8901969B8B8A8B880F991F48
:10436000ED85FE85E80FF91F25913491B901769509
:1043700067957695679520FDDACF862F8F738C8BA6
:104380003D8B1DA21CA21BA281E08F8B8093160483
:10439000188E8A899B8901969B8B8A8BDF91CF919E
:1043A0000F91089560E00E9459210895CF93DF9303
:1043B000EC01662309F0D6C08F89882309F4D2C0A6
:1043C0008D89882321F4CE010E94EB20CBC081503F
:1043D0008D8B8DA1882309F03BC08BA19CA10196F8
:1043E000880F991FEF8DF8A1E80FF91F859194911F
:1043F000282F27702EA3AC0163E0569547956A9548
:10440000E1F79A0136952795892F99278695869504
:104410008FA32F738C81289F202D11242DA34170F1
:1044200040931A048BA19CA101969CA38BA329A164
:1044300030E08217930760F08AA1882329F0281BB7
:1044400031093CA32BA304C0CE0160E00E94EB2005
:104450008DA181508DA3988D9F5F988F2FA18C89FE
:10446000280F8C85280F2A836B8D662369F0892F8E
:10447000992787FD909570E00E94982A8C8D869FE1
:10448000802D1124820F8A838A8190E0CB966BE382
:1044900070E00E94982A8A832E892B83698D662377
:1044A00079F0888D772767FD7095992787FD90951E
:1044B0000E94982A8A8D869F802D1124820F8B83DB
:1044C0006D8D662399F0888D992787FD909570E012
:1044D0000E94982ACB0162E070E00E94982A9E8D8B
:1044E000899F802D11249B81890F8B838B818A303A
:1044F0000CF089E087FD80E08B838C898F3309F491
:104500001B82F894EA81F0E0ED51F44FE491E093DE
:1045100017042D8130E08B81992787FD9095A901A3
:10452000489F9001499F300D589F300D112488A558
:1045300090E0A901489F9001499F300D589F300D90
:1045400011248EA1992787FD9095AC01249FC0016D
:10455000259F900D349F900D112480931804809313
:1045600019047894DF91CF91089560E00E94D621DC
:10457000089560911804662381F1809115048F5F7E
:104580008093150490911704891738F130E08091D9
:104590001604882309F431E03093160410921504B0
:1045A00080911A048823A9F080912B0123E4829F33
:1045B000C0011124895B80932B0190E070E00E9480
:1045C000842A8093190405C0809119048093B40053
:1045D00008953323C9F780E0F9CF08951F920F9211
:1045E0000FB60F9211242F933F934F935F936F93C6
:1045F0007F938F939F93AF93BF93EF93FF930E940B
:10460000B922FF91EF91BF91AF919F918F917F91CF
:104610006F915F914F913F912F910F900FBE0F902F
:104620001F9018956BED7BE040E00E940B210895F0
:1046300063ED7BE040E00E940B2108956DEC7BE090
:1046400040E00E940B210895FC01862F668170E0F6
:104650006F5F7F4F992787FD90950E94982A8583E9
:104660000895FC01858108950F93FC0181E0848306
:1046700084E080A78EE19CE0908B8787CF0161E08A
:1046800040E020E000E00E949D2083E061E070E0D7
:104690000E947624E1EBF0E08081887F8160808356
:1046A000F89410928000E1E8F0E01082109285000A
:1046B0001092840088E191E09093890080938800B3
:1046C000808188608083808181608083EFE6F0E074
:1046D00080818260808378940F910895CB01642F4C
:1046E0000E945E2B0895CB010E94562B08951F92C5
:1046F0000F920FB60F9211242F933F938F939F9396
:10470000AF93BF938091200490912104A091220443
:10471000B0912304309124040196A11DB11D232FD3
:104720002D5F2D3720F02D570196A11DB11D20932F
:1047300024048093200490932104A0932204B09336
:10474000230480911C0490911D04A0911E04B0913B
:104750001F040196A11DB11D80931C0490931D049C
:10476000A0931E04B0931F04BF91AF919F918F91AE
:104770003F912F910F900FBE0F901F9018958FB7FC
:10478000F89420912004309121044091220450910A
:1047900023048FBFB901CA0108959FB7F8942091EF
:1047A0001C0430911D0440911E0450911F0486B5D5
:1047B000A89B06C08F3F21F02F5F3F4F4F4F5F4FA9
:1047C0009FBF542F432F322F2227280F311D411D09
:1047D000511D82E0220F331F441F551F8A95D1F7C8
:1047E000B901CA010895EF92FF920F931F93CF93DF
:1047F000DF937B018C010E94CD23EB010EC00E9450
:10480000CD236C1B7D0B685E7340C8F30894E108F0
:10481000F10801091109C851DC4FE114F104010547
:10482000110569F7DF91CF911F910F91FF90EF90E4
:104830000895789484B5826084BD84B5816084BD18
:1048400085B5826085BD85B5816085BDEEE6F0E009
:10485000808181608083E1E8F0E010828081826065
:104860008083808181608083E0E8F0E080818160E6
:104870008083E1EBF0E0808184608083E0EBF0E016
:10488000808181608083EAE7F0E0808184608083BA
:104890008081826080838081816080838081806864
:1048A00080831092C1000895982F8E3008F09E509A
:1048B000977080912C018295880F880F807C892BBE
:1048C00080937C0080917A00806480937A0080914C
:1048D0007A0086FDFCCF2091780040917900942FDA
:1048E00080E030E0282B392BC90108951F93CF9326
:1048F000DF93182FEB0161E00E94D624209709F482
:104900004AC0CF3FD10509F449C0E12FF0E0E0599A
:10491000F34F84918330C1F0843028F4813051F01A
:104920008230B1F50CC0863019F1873049F18430FE
:1049300079F514C084B5806884BDC7BD33C084B523
:10494000806284BDC8BD2EC0809180008068809345
:104950008000D0938900C093880024C0809180009B
:10496000806280938000D0938B00C0938A001AC02D
:104970008091B00080688093B000C093B30012C0F3
:104980008091B00080628093B000C093B4000AC0F0
:10499000C038D1051CF4812F60E002C0812F61E096
:1049A0000E944225DF91CF911F910895CF93DF930D
:1049B000482F50E0CA01845A934FFC013491485B60
:1049C000534FFA018491882369F190E0880F991F71
:1049D000FC01E65DF34FA591B491FC01EC5CF34F53
:1049E000C591D491662351F42FB7F8948C91932FED
:1049F000909589238C93888189230BC0623061F460
:104A00002FB7F8948C91932F909589238C9388815C
:104A1000832B88832FBF06C09FB7F8948C91832B7C
:104A20008C939FBFDF91CF910895833071F08430D4
:104A300028F48130A1F0823021F514C08630B1F025
:104A40008730D1F08430E9F404C0809180008F7702
:104A500003C0809180008F7D80938000089584B58D
:104A60008F7702C084B58F7D84BD08958091B0009A
:104A70008F778093B00008958091B0008F7D8093F0
:104A8000B0000895FF920F931F93F62E482F50E029
:104A9000CA018059934FFC012491CA01845A934F53
:104AA000FC011491485B534FFA0104910023C9F0B3
:104AB000222319F0822F0E941525E02FF0E0EE0F3F
:104AC000FF1FEC5CF34FA591B4919FB7F894FF20C2
:104AD00021F48C911095812302C08C91812B8C93B1
:104AE0009FBF1F910F91FF9008950F931F93482F21
:104AF00050E0CA018059934FFC012491CA01845AA5
:104B0000934FFC010491485B534FFA011491112318
:104B100019F420E030E015C0222319F0822F0E9402
:104B20001525812F90E0880F991F825C934FFC011F
:104B3000A591B4918C9120E030E0802311F021E028
:104B400030E0C9011F910F910895CF93DF930E9428
:104B500019240E94C410C0E0D0E00E945310209796
:104B6000E1F30E940000F9CFCF92DF92EF92FF9223
:104B70000F931F93CF93DF937C016B018A01C0E0F9
:104B8000D0E00FC0D6016D916D01D701ED91FC9180
:104B90000190F081E02DC7010995C80FD91F015080
:104BA00010400115110571F7CE01DF91CF911F91D2
:104BB0000F91FF90EF90DF90CF900895EF92FF92CA
:104BC0000F931F93CF93DF937C018B01C0E0D0E064
:104BD000F8010F5F1F4F6491662359F0D701ED91E3
:104BE000FC910190F081E02DC7010995C80FD91FF4
:104BF000EFCFCE01DF91CF911F910F91FF90EF90FA
:104C00000895DC01ED91FC910190F081E02D099572
:104C10000895EF92FF920F931F938C01DC01ED91A9
:104C2000FC910190F081E02D6DE009957C01D801A7
:104C3000ED91FC910190F081E02DC8016AE00995A9
:104C40009C012E0D3F1DC9011F910F91FF90EF9008
:104C50000895EF92FF920F931F937C010E94DE252F
:104C60008C01C7010E9409269C01200F311FC90138
:104C70001F910F91FF90EF900895CF93DF93EC0178
:104C80006115710519F420E030E00FC0DB010D90D3
:104C90000020E9F71197A61BB70BE881F981028084
:104CA000F381E02DAD0109959C01C901DF91CF9100
:104CB00008954F925F927F928F929F92AF92BF9290
:104CC000CF92DF92EF92FF920F931F93DF93CF93D8
:104CD000CDB7DEB7A1970FB6F894DEBF0FBECDBF3C
:104CE0002C01742ECB01223008F42AE019A231E203
:104CF000C32ED12CCC0EDD1E822E9924AA24BB24D7
:104D0000672D752FA50194010E94AB2A79018A01B4
:104D1000C801B701A50194010E94652A472D461BD1
:104D20000894C108D1084A3014F4405D01C0495CC0
:104D3000F6014083E114F1040105110521F07E2CF8
:104D40005F2DC801DDCFC201B6010E943D26A196AC
:104D50000FB6F894DEBF0FBECDBFCF91DF911F918C
:104D60000F91FF90EF90DF90CF90BF90AF909F900A
:104D70008F907F905F904F900895DC012115310551
:104D800041F4ED91FC910190F081E02D642F0995A3
:104D900008950E9459260895EF92FF920F931F9352
:104DA0009A017B0100E010E0B801A7010E94BD2636
:104DB0001F910F91FF90EF900895CF92DF92EF92A5
:104DC000FF920F931F936C017B019A0100E010E0AA
:104DD000B801A7010E94BD268C01C6010E940926C8
:104DE000080F191FC8011F910F91FF90EF90DF90DE
:104DF000CF900895EF92FF920F931F939A01E62EA2
:104E0000FF2400E010E0B801A7010E94BD261F9119
:104E10000F91FF90EF900895CF92DF92EF92FF9263
:104E20000F931F936C01E62E9A01FF2400E010E01F
:104E3000B801A7010E94BD268C01C6010E94092667
:104E4000080F191FC8011F910F91FF90EF90DF907D
:104E5000CF900895CF92DF92EF92FF920F931F931E
:104E6000CF93DF93EC016A017B012115310541F4F9
:104E7000E881F9810190F081E02D642F09951FC030
:104E80002A303105D1F477FF17C0E881F98101900C
:104E9000F081E02D6DE209958C0144275527BA0178
:104EA0004C195D096E097F09CE012AE00E9459263E
:104EB0009801280F391F04C02AE00E9459269C013E
:104EC000C901DF91CF911F910F91FF90EF90DF907B
:104ED000CF900895EF92FF920F931F937B019A0159
:104EE0000027F7FC0095102FB801A7010E942A2780
:104EF0001F910F91FF90EF900895CF92DF92EF9264
:104F0000FF920F931F936C017B019A010027F7FC1E
:104F10000095102FB801A7010E942A278C01C60115
:104F20000E940926080F191FC8011F910F91FF90B9
:104F3000EF90DF90CF9008950E943D2608952F9224
:104F40003F924F925F926F927F928F929F92AF9219
:104F5000BF92CF92DF92EF92FF920F931F93DF9356
:104F6000CF93CDB7DEB73B014C0119012A016D8902
:104F70007E898F89988D6A197B098C099D09621A2F
:104F8000730A840A950AA40193010E94652AE21813
:104F9000F30804091509A80197010E94CD2A2A0DDA
:104FA0003B1D4C1D5D1DB901CA01CF91DF911F91C1
:104FB0000F91FF90EF90DF90CF90BF90AF909F90B8
:104FC0008F907F906F905F904F903F902F900895BB
:104FD000EF92FF920F931F937B018C016115710576
:104FE0008105910529F420E030E040E050E00BC05D
:104FF0000E94412BA80197010E94CD2AAC01CB0150
:10500000DA019C01AD01B901CA011F910F91FF9016
:10501000EF900895EF92FF920F931F937B018C0105
:10502000621773078407950764F4261B370B480B38
:10503000590BCA01B9010E94E827E60EF71E081FA6
:10504000191FB701C8011F910F91FF90EF900895AC
:10505000009729F0BC0180E090E00E94462B089563
:105060005058BB27AA270ED034C1FDD030F002D152
:1050700020F031F49F3F11F41EF4F2C00EF4E095DD
:10508000E7FBE8C0E92F47D180F3BA17620773073F
:105090008407950718F071F49EF55FC10EF4E09552
:1050A0000B2EBA2FA02D0B01B90190010C01CA01E2
:1050B000A0011124FF27591B99F0593F50F4503E8D
:1050C00068F11A16F040A22F232F342F4427585F7F
:1050D000F3CF469537952795A795F0405395C9F797
:1050E0007EF41F16BA0B620B730B840BBAF091504F
:1050F000A1F0FF0FBB1F661F771F881FC2F70EC0EE
:10510000BA0F621F731F841F48F4879577956795C0
:10511000B795F7959E3F08F0B3CF9395880F08F0A9
:105120009927EE0F979587950895ACD0E395E2C047
:1051300004D06894B11112C10895F5D088F09F573A
:1051400090F0B92F9927B751A0F0D1F0660F771FD3
:10515000881F991F1AF0BA95C9F712C0B13081F0B3
:10516000FCD0B1E00895F9C0672F782F8827B85F89
:1051700039F0B93FCCF3869577956795B395D9F714
:105180003EF490958095709561957F4F8F4F9F4F1E
:105190000895E89409C097FB3EF49095809570952A
:1051A00061957F4F8F4F9F4F9923A9F0F92F96E973
:1051B000BB279395F695879577956795B795F111E8
:1051C000F8CFFAF4BB0F11F460FF1BC06F5F7F4F85
:1051D0008F4F9F4F16C0882311F096E911C0772397
:1051E00021F09EE8872F762F05C0662371F096E8A0
:1051F000862F70E060E02AF09A95660F771F881F6F
:10520000DAF7880F9695879597F90895990F000812
:10521000550FAA0BE0E8FEEF16161706E807F90788
:10522000C0F012161306E407F50798F0621B730B23
:10523000840B950B39F40A2661F0232B242B252BA4
:1052400021F408950A2609F4A140A6958FEF811D47
:10525000811D089597F99F6780E870E060E00895E8
:105260009FEF80EC089500240A941616170618067E
:105270000906089500240A9412161306140605065A
:105280000895EECF50D0E8F3E894E0E0BB279F57B5
:10529000F0F02AED3FE049EC06C0EE0FBB0F661FB1
:1052A000771F881F28F0B23A62077307840728F037
:1052B000B25A620B730B840BE3959A9572F78038A0
:1052C00030F49A95BB0F661F771F881FD2F790485E
:1052D000BAC0092E0394000C11F4882352F0BB0FBE
:1052E00040F4BF2B11F460FF04C06F5F7F4F8F4FFE
:1052F0009F4F0895EF93E0FF06C0A2EA2AED3FE03A
:1053000049EC5FEBBFDEE5DF0F90039401FC9058A2
:10531000E8E6F0E0A4C057FD9058440F551F59F03F
:105320005F3F71F04795880F97FB991F61F09F3F92
:1053300079F087950895121613061406551FF2CFBB
:105340004695F1DF08C0161617061806991FF1CF0B
:1053500086957105610508940895E894BB27662732
:105360007727CB0197F9089551DF08F48FEF08955F
:105370000BD0AFCF78DF28F07DDF18F0952309F050
:1053800069CF6ECF1124EACFC6DFA0F3959FD1F38A
:10539000950F50E0551F629FF001729FBB27F00DE3
:1053A000B11D639FAA27F00DB11DAA1F649F662738
:1053B000B00DA11D661F829F2227B00DA11D621F87
:1053C000739FB00DA11D621F839FA00D611D221F41
:1053D000749F3327A00D611D231F849F600D211D25
:1053E000822F762F6A2F11249F5750408AF0E1F0C8
:1053F00088234AF0EE0FFF1FBB1F661F771F881F11
:1054000091505040A9F79E3F510570F023CFA6CF91
:105410005F3FECF3983EDCF3869577956795B795FB
:10542000F795E7959F5FC1F7FE2B880F911D969525
:10543000879597F908959F9325DF0F9007FCEE5FFE
:1054400059CF9F3F31F0915020F48795779567951C
:10545000B795880F911D9695879597F908959F9315
:105460008F937F936F93FF93EF939B01AC0180DF4A
:10547000EF91FF9105D02F913F914F915F9178CFA0
:10548000DF93CF931F930F93FF92EF92DF927B01F5
:105490008C01689405C0DA2EEF0176DFFE01E894F6
:1054A000A5912591359145915591AEF3EF01EADD36
:1054B000FE019701A801DA9479F7DF90EF90FF9051
:1054C0000F911F91CF91DF910895629FD001739F3B
:1054D000F001829FE00DF11D649FE00DF11D929F90
:1054E000F00D839FF00D749FF00D659FF00D9927CF
:1054F000729FB00DE11DF91F639FB00DE11DF91FF3
:10550000BD01CF0111240895AA1BBB1B51E107C0A7
:10551000AA1FBB1FA617B70710F0A61BB70B881F43
:10552000991F5A95A9F780959095BC01CD010895D2
:1055300097FB092E07260AD077FD04D0E5DF06D0B9
:1055400000201AF4709561957F4F0895F6F79095B5
:1055500081959F4F0895A1E21A2EAA1BBB1BFD0146
:105560000DC0AA1FBB1FEE1FFF1FA217B307E40742
:10557000F50720F0A21BB30BE40BF50B661F771F9A
:10558000881F991F1A9469F760957095809590957A
:105590009B01AC01BD01CF01089597FB092E0526A3
:1055A0000ED057FD04D0D7DF0AD0001C38F4509538
:1055B0004095309521953F4F4F4F5F4F0895F6F737
:1055C00090958095709561957F4F8F4F9F4F08956F
:1055D000EE0FFF1F0590F491E02D0994A0E0B0E0DC
:1055E000E4EFFAE20C94742BEC01A880B980CA8035
:1055F000DB80A114B104C104D10441F484E2A82EDB
:1056000089EDB82E8BE5C82E87E0D82EC601B501EE
:105610002DE133EF41E050E00E94CD2A27EA31E44A
:1056200040E050E00E94652A7B018C01C601B50173
:105630002DE133EF41E050E00E94CD2ACA01B901CB
:105640002CEE34EF4FEF5FEF0E94652A6E0D7F1D49
:10565000801F911F97FF04C06150704080409048A8
:10566000688379838A839B839B01AC015F77B9014F
:10567000CA01CDB7DEB7EAE00C94902B0E94EE2A67
:10568000089587E091E00E94EE2A08956093070153
:10569000709308018093090190930A010895FB011A
:1056A000DC0101900D920020E1F70895F999FECFF9
:1056B00092BD81BDF89A992780B50895262FF99952
:1056C000FECF1FBA92BD81BD20BD0FB6F894FA9AE5
:1056D000F99A0FBE019608952F923F924F925F92D2
:1056E0006F927F928F929F92AF92BF92CF92DF92F2
:1056F000EF92FF920F931F93CF93DF93CDB7DEB757
:10570000CA1BDB0B0FB6F894DEBF0FBECDBF0994EA
:105710002A88398848885F846E847D848C849B8441
:10572000AA84B984C884DF80EE80FD800C811B814F
:10573000AA81B981CE0FD11D0FB6F894DEBF0FBE7E
:0A574000CDBFED010895F894FFCFEE
:10574A004C4F41444552000100000055047704992A
:10575A0004BB04DD04FF042105430565058705A98B
:10576A0005CB05ED050F06310653060101000000C1
:06577A00004D16B42500ED
:00000001FF
