:1078000011243B98439A339BDCD084B714BE81FF8C
:10781000C0D085E08093810082E08093C00088E141
:107820008093C10086E08093C20080E18093C40011
:107830008EE098D086E020E33CEF91E03093850025
:107840002093840096BBB09BFECFA8958150B1F7E2
:10785000CC24DD247BD0813461F478D0082F88D00B
:10786000023811F0013811F484E001C083E05AD0ED
:1078700056C0823411F484E103C0853419F485E0E4
:1078800080D04DC0853579F461D0E82EFF245ED0DC
:10789000082F10E0102F00270E291F29000F111F9D
:1078A00067D068013CC0863521F484E06AD080E06E
:1078B000DECF843671F44AD049D0082F47D0C4E2D5
:1078C000D3E044D089930150E1F752D0C60176D37A
:1078D00026C08437B1F43AD039D0F82E37D048D00A
:1078E000F601EF2C8F010F5F1F4F84911BD0EA949C
:1078F000F801C1F70894C11CD11CFA94CF0CD11C1B
:107900000EC0853739F434D08EE10CD085E90AD029
:107910008FE0ADCF813511F488E024D029D080E10B
:1079200001D098CF982F8091C00085FFFCCF909315
:10793000C6000895CF93DF93EC0102C02196F2DFD9
:1079400088818823D9F7DF91CF9108958091C00075
:1079500087FFFCCF8091C00084FD01C0A895809175
:10796000C6000895E0E6F0E098E1908380830895F2
:10797000EDDF803221F088E0F5DF7894FFCF84E1FD
:10798000D1CF1F93182FE2DF1150E9F7F1DF1F91DC
:10799000089580E0E7DFEE27FF270994F89411248B
:1079A000A7EFB8E0FC0189E001900D928150E1F76A
:1079B00086EF98E09EBF8DBF2CD188E0D3DF78940E
:1079C000FFCF80E0CFDF8CE4809300018FE48093D1
:1079D000010181E48093020184E48093030185E442
:1079E0008093040182E5809305011092060180E0F6
:1079F00091E0D4CF8EBD0DB407FEFDCF08951F9347
:107A0000CF93DF938FEFF6DF2A98C7E0D1E089911B
:107A1000F1DF81E0CD30D807D1F710E08FEFEADF5A
:107A20008EB587FF03C01F5F1F3FC1F7DF91CF9166
:107A30001F9108951F93CF93DF93660F771F881FC1
:107A4000991F21E520930701809308017093090194
:107A500060930A0110920B0180E58CBDD0DF882372
:107A600041F41FEF8FEFC6DF8EB58E3F29F0115026
:107A7000C9F72A9A83E010C0C2E2D1E08FEFBADFE3
:107A80008EB5899383E0C232D807C1F78FEFB2DF9A
:107A90008FEFB0DF2A9A80E0DF91CF911F91089598
:107AA0006F927F929F92AF92BF92CF92DF92EF92AE
:107AB000FF920F931F93CF93DF93A0902001B0907C
:107AC000210182E2A81683E0B80608F461C0C091E3
:107AD0001801D0911901C0901A01D0901B01E090BB
:107AE00015019E2C9694892D860103C01695079545
:107AF00086958823D9F760901601709017012FEFB3
:107B000016C08D2F9927F82E281731F0B301680F72
:107B1000711D80E090E08EDFFE01F070EE0FFF1F20
:107B2000EE5DFE4FC081D181015010402F2D011517
:107B3000110539F722979E0140E050E005C0220F61
:107B4000331F441F551F96949920C9F7EA94EC20DF
:107B500060910F01709110018091110190911201BB
:107B60006E0D711D811D911D620F731F841F951F66
:107B700061DF0894C11CD11CD0921B01C0921A0174
:107B800080E09EEFA80EB91EB0922101A0922001C4
:107B900080911C0190911D01A0911E01B0911F01C7
:107BA0000197A109B10980931C0190931D01A09335
:107BB0001E01B0931F01E0912001F09121018191FC
:107BC000F0932101E0932001DF91CF911F910F915C
:107BD000FF90EF90DF90CF90BF90AF909F907F90FD
:107BE0006F900895813614F087550895813414F00C
:107BF0008753089580330CF0805308951F9350DF0E
:107C0000F1DF182F4DDFEEDF1295107F810F1F91EE
:107C100008954F925F926F927F928F929F92AF9250
:107C2000BF92CF92DF92EF92FF920F931F93CF9369
:107C3000DF932A9A84B18C6284B9229A83E58CBD41
:107C40000AE08FEFD7DE0150E1F780E4809307016F
:107C5000109208011092090110920A0110920B0172
:107C600085E980930C01CBDE182F2A9A8FEFC2DEB4
:107C7000113009F474C10F5F0031A9F736C12A9A97
:107C80008FEFB8DEBCDE8823D1F742C180915C0162
:107C9000863329F4109217011092160117C06091D3
:107CA000E8027091E9028091EA029091EB027093F0
:107CB000170160931601BEDE80915801863409F0E9
:107CC00014C180915C01863309F00FC180912F01AE
:107CD000809315014091300150913101809116013E
:107CE00090911701480F591F5093170140931601A7
:107CF0008091320190E02091380130913901829FCA
:107D00005001839FB00C929FB00C1124A40EB51E9D
:107D1000B0920E01A0920D01C0903301D0903401B9
:107D200034E0D694C7943A95E1F7D0921401C0920A
:107D30001301C5018C0D9D1DA0E0B0E080930F01E3
:107D400090931001A0931101B09312018090200133
:107D50009090210160901A0170901B01E0901C012D
:107D6000F0901D0100911E0110911F01409018011B
:107D700050901901C0E0D0E0BE0124E076956795EF
:107D80002A95E1F76C157D0508F04FC06A0D7B1D43
:107D900080E090E04FDE9E012F70A22FB0E095E0D2
:107DA000AA0FBB1F9A95E1F7AE5DBE4F8C91882359
:107DB000E1F15A964D915C915B9741155105A9F1FE
:107DC0005C96ED90FD900D911C915F9782E2882E5C
:107DD00083E0982E31E090E009C020E0EA0FFB1F1D
:107DE0008081681709F421E032239F5FE92FF0E0DA
:107DF000E950F74F6081E75FF840662371F733235E
:107E000089F0992379F019968C911997853451F45A
:107E100018968C911897883429F41A968C91883585
:107E200009F481C02A0166247724219632E0C0300B
:107E3000D30709F0A1CF9092210180922001709286
:107E40001B0160921A01E0921C01F0921D01009347
:107E50001E0110931F01509219014092180181E0F8
:107E600090E045C01123C9F0C9DE8993115083E029
:107E7000C43AD80719F580912203909123039ED02C
:107E8000809122039091230380589F4F9093230366
:107E900080932203C4E2D3E011C002DE8A3371F47E
:107EA000ADDE182F809120019091210104969093CE
:107EB000210180932001A2DE882361F480911C01BE
:107EC00090911D01A0911E01B0911F010097A10585
:107ED000B10541F6C452D34029F08091220390911C
:107EE00023036CD080E090E002C082E090E0DF915C
:107EF000CF911F910F91FF90EF90DF90CF90BF90A7
:107F0000AF909F908F907F906F905F904F9008956B
:107F100060E070E080E090E08DDD80915801863473
:107F200009F0BDCEB3CE9092210180922001109233
:107F30001B0110921A01E0921C01F0921D010093A6
:107F40001E0110931F0150931901409318011092C4
:107F5000230310922203C4E2D3E010E0AFCF81E408
:107F6000809307018FCE1F93AC01F999FECF83E078
:107F7000FA0187BFE89507B600FCFDCF20E030E0AE
:107F800011E0F901E40FF51FDB01A20FB31F8D9182
:107F90009C910C0117BFE89511242E5F3F4F2038AC
:107FA000310579F785E0FA0187BFE89507B600FC4F
:107FB000FDCF81E187BFE8951F91089527E78130C4
:0C7FC000920718F464E273E0CECF08953D
:047FFA00B5CFCFCC64
:027FFE00040479
:040000030000780081
:00000001FF
